{
	"solidity_advance_assignment.sol": {
		"Sort": {
			"abi": [
				{
					"inputs": [
						{
							"internalType": "uint256[]",
							"name": "arr",
							"type": "uint256[]"
						}
					],
					"name": "sortArray",
					"outputs": [
						{
							"internalType": "uint256[]",
							"name": "",
							"type": "uint256[]"
						}
					],
					"stateMutability": "pure",
					"type": "function"
				}
			],
			"devdoc": {
				"kind": "dev",
				"methods": {},
				"version": 1
			},
			"evm": {
				"assembly": "    /* \"solidity_advance_assignment.sol\":3961:4326  contract Sort{... */\n  mstore(0x40, 0x80)\n  callvalue\n  dup1\n  iszero\n  tag_1\n  jumpi\n  0x00\n  dup1\n  revert\ntag_1:\n  pop\n  dataSize(sub_0)\n  dup1\n  dataOffset(sub_0)\n  0x00\n  codecopy\n  0x00\n  return\nstop\n\nsub_0: assembly {\n        /* \"solidity_advance_assignment.sol\":3961:4326  contract Sort{... */\n      mstore(0x40, 0x80)\n      callvalue\n      dup1\n      iszero\n      tag_1\n      jumpi\n      0x00\n      dup1\n      revert\n    tag_1:\n      pop\n      jumpi(tag_2, lt(calldatasize, 0x04))\n      shr(0xe0, calldataload(0x00))\n      dup1\n      0xe379976e\n      eq\n      tag_3\n      jumpi\n    tag_2:\n      0x00\n      dup1\n      revert\n        /* \"solidity_advance_assignment.sol\":3981:4323  function sortArray(uint[] memory arr) public pure returns(uint[] memory){... */\n    tag_3:\n      tag_4\n      0x04\n      dup1\n      calldatasize\n      sub\n      dup2\n      add\n      swap1\n      tag_5\n      swap2\n      swap1\n      tag_6\n      jump\t// in\n    tag_5:\n      tag_7\n      jump\t// in\n    tag_4:\n      mload(0x40)\n      tag_8\n      swap2\n      swap1\n      tag_9\n      jump\t// in\n    tag_8:\n      mload(0x40)\n      dup1\n      swap2\n      sub\n      swap1\n      return\n    tag_7:\n        /* \"solidity_advance_assignment.sol\":4039:4052  uint[] memory */\n      0x60\n        /* \"solidity_advance_assignment.sol\":4068:4074  uint i */\n      0x00\n        /* \"solidity_advance_assignment.sol\":4064:4295  for(uint i=0; i<arr.length; i++){... */\n    tag_11:\n        /* \"solidity_advance_assignment.sol\":4080:4083  arr */\n      dup3\n        /* \"solidity_advance_assignment.sol\":4080:4090  arr.length */\n      mload\n        /* \"solidity_advance_assignment.sol\":4078:4079  i */\n      dup2\n        /* \"solidity_advance_assignment.sol\":4078:4090  i<arr.length */\n      lt\n        /* \"solidity_advance_assignment.sol\":4064:4295  for(uint i=0; i<arr.length; i++){... */\n      iszero\n      tag_12\n      jumpi\n        /* \"solidity_advance_assignment.sol\":4115:4121  uint j */\n      0x00\n        /* \"solidity_advance_assignment.sol\":4111:4284  for(uint j=0; j<arr.length-1-i; j++){... */\n    tag_14:\n        /* \"solidity_advance_assignment.sol\":4140:4141  i */\n      dup2\n        /* \"solidity_advance_assignment.sol\":4138:4139  1 */\n      0x01\n        /* \"solidity_advance_assignment.sol\":4127:4130  arr */\n      dup6\n        /* \"solidity_advance_assignment.sol\":4127:4137  arr.length */\n      mload\n        /* \"solidity_advance_assignment.sol\":4127:4139  arr.length-1 */\n      tag_17\n      swap2\n      swap1\n      tag_18\n      jump\t// in\n    tag_17:\n        /* \"solidity_advance_assignment.sol\":4127:4141  arr.length-1-i */\n      tag_19\n      swap2\n      swap1\n      tag_18\n      jump\t// in\n    tag_19:\n        /* \"solidity_advance_assignment.sol\":4125:4126  j */\n      dup2\n        /* \"solidity_advance_assignment.sol\":4125:4141  j<arr.length-1-i */\n      lt\n        /* \"solidity_advance_assignment.sol\":4111:4284  for(uint j=0; j<arr.length-1-i; j++){... */\n      iszero\n      tag_15\n      jumpi\n        /* \"solidity_advance_assignment.sol\":4178:4181  arr */\n      dup4\n        /* \"solidity_advance_assignment.sol\":4184:4185  1 */\n      0x01\n        /* \"solidity_advance_assignment.sol\":4182:4183  j */\n      dup3\n        /* \"solidity_advance_assignment.sol\":4182:4185  j+1 */\n      tag_20\n      swap2\n      swap1\n      tag_21\n      jump\t// in\n    tag_20:\n        /* \"solidity_advance_assignment.sol\":4178:4186  arr[j+1] */\n      dup2\n      mload\n      dup2\n      lt\n      tag_22\n      jumpi\n      tag_23\n      tag_24\n      jump\t// in\n    tag_23:\n    tag_22:\n      0x20\n      mul\n      0x20\n      add\n      add\n      mload\n        /* \"solidity_advance_assignment.sol\":4169:4172  arr */\n      dup5\n        /* \"solidity_advance_assignment.sol\":4173:4174  j */\n      dup3\n        /* \"solidity_advance_assignment.sol\":4169:4175  arr[j] */\n      dup2\n      mload\n      dup2\n      lt\n      tag_25\n      jumpi\n      tag_26\n      tag_24\n      jump\t// in\n    tag_26:\n    tag_25:\n      0x20\n      mul\n      0x20\n      add\n      add\n      mload\n        /* \"solidity_advance_assignment.sol\":4169:4186  arr[j] > arr[j+1] */\n      gt\n        /* \"solidity_advance_assignment.sol\":4166:4269  if(arr[j] > arr[j+1]){... */\n      iszero\n      tag_27\n      jumpi\n        /* \"solidity_advance_assignment.sol\":4232:4235  arr */\n      dup4\n        /* \"solidity_advance_assignment.sol\":4238:4239  1 */\n      0x01\n        /* \"solidity_advance_assignment.sol\":4236:4237  j */\n      dup3\n        /* \"solidity_advance_assignment.sol\":4236:4239  j+1 */\n      tag_28\n      swap2\n      swap1\n      tag_21\n      jump\t// in\n    tag_28:\n        /* \"solidity_advance_assignment.sol\":4232:4240  arr[j+1] */\n      dup2\n      mload\n      dup2\n      lt\n      tag_29\n      jumpi\n      tag_30\n      tag_24\n      jump\t// in\n    tag_30:\n    tag_29:\n      0x20\n      mul\n      0x20\n      add\n      add\n      mload\n        /* \"solidity_advance_assignment.sol\":4242:4245  arr */\n      dup5\n        /* \"solidity_advance_assignment.sol\":4246:4247  j */\n      dup3\n        /* \"solidity_advance_assignment.sol\":4242:4248  arr[j] */\n      dup2\n      mload\n      dup2\n      lt\n      tag_31\n      jumpi\n      tag_32\n      tag_24\n      jump\t// in\n    tag_32:\n    tag_31:\n      0x20\n      mul\n      0x20\n      add\n      add\n      mload\n        /* \"solidity_advance_assignment.sol\":4211:4214  arr */\n      dup6\n        /* \"solidity_advance_assignment.sol\":4215:4216  j */\n      dup4\n        /* \"solidity_advance_assignment.sol\":4211:4217  arr[j] */\n      dup2\n      mload\n      dup2\n      lt\n      tag_33\n      jumpi\n      tag_34\n      tag_24\n      jump\t// in\n    tag_34:\n    tag_33:\n      0x20\n      mul\n      0x20\n      add\n      add\n        /* \"solidity_advance_assignment.sol\":4219:4222  arr */\n      dup7\n        /* \"solidity_advance_assignment.sol\":4225:4226  1 */\n      0x01\n        /* \"solidity_advance_assignment.sol\":4223:4224  j */\n      dup6\n        /* \"solidity_advance_assignment.sol\":4223:4226  j+1 */\n      tag_35\n      swap2\n      swap1\n      tag_21\n      jump\t// in\n    tag_35:\n        /* \"solidity_advance_assignment.sol\":4219:4227  arr[j+1] */\n      dup2\n      mload\n      dup2\n      lt\n      tag_36\n      jumpi\n      tag_37\n      tag_24\n      jump\t// in\n    tag_37:\n    tag_36:\n      0x20\n      mul\n      0x20\n      add\n      add\n        /* \"solidity_advance_assignment.sol\":4210:4249  (arr[j], arr[j+1]) = (arr[j+1], arr[j]) */\n      dup3\n      dup2\n      mstore\n      pop\n      dup3\n      dup2\n      mstore\n      pop\n      pop\n      pop\n        /* \"solidity_advance_assignment.sol\":4166:4269  if(arr[j] > arr[j+1]){... */\n    tag_27:\n        /* \"solidity_advance_assignment.sol\":4143:4146  j++ */\n      dup1\n      dup1\n      tag_38\n      swap1\n      tag_39\n      jump\t// in\n    tag_38:\n      swap2\n      pop\n      pop\n        /* \"solidity_advance_assignment.sol\":4111:4284  for(uint j=0; j<arr.length-1-i; j++){... */\n      jump(tag_14)\n    tag_15:\n      pop\n        /* \"solidity_advance_assignment.sol\":4092:4095  i++ */\n      dup1\n      dup1\n      tag_40\n      swap1\n      tag_39\n      jump\t// in\n    tag_40:\n      swap2\n      pop\n      pop\n        /* \"solidity_advance_assignment.sol\":4064:4295  for(uint i=0; i<arr.length; i++){... */\n      jump(tag_11)\n    tag_12:\n      pop\n        /* \"solidity_advance_assignment.sol\":4312:4315  arr */\n      dup2\n        /* \"solidity_advance_assignment.sol\":4305:4315  return arr */\n      swap1\n      pop\n        /* \"solidity_advance_assignment.sol\":3981:4323  function sortArray(uint[] memory arr) public pure returns(uint[] memory){... */\n      swap2\n      swap1\n      pop\n      jump\t// out\n        /* \"#utility.yul\":7:82   */\n    tag_41:\n        /* \"#utility.yul\":40:46   */\n      0x00\n        /* \"#utility.yul\":73:75   */\n      0x40\n        /* \"#utility.yul\":67:76   */\n      mload\n        /* \"#utility.yul\":57:76   */\n      swap1\n      pop\n        /* \"#utility.yul\":7:82   */\n      swap1\n      jump\t// out\n        /* \"#utility.yul\":88:205   */\n    tag_42:\n        /* \"#utility.yul\":197:198   */\n      0x00\n        /* \"#utility.yul\":194:195   */\n      dup1\n        /* \"#utility.yul\":187:199   */\n      revert\n        /* \"#utility.yul\":211:328   */\n    tag_43:\n        /* \"#utility.yul\":320:321   */\n      0x00\n        /* \"#utility.yul\":317:318   */\n      dup1\n        /* \"#utility.yul\":310:322   */\n      revert\n        /* \"#utility.yul\":334:451   */\n    tag_44:\n        /* \"#utility.yul\":443:444   */\n      0x00\n        /* \"#utility.yul\":440:441   */\n      dup1\n        /* \"#utility.yul\":433:445   */\n      revert\n        /* \"#utility.yul\":457:559   */\n    tag_45:\n        /* \"#utility.yul\":498:504   */\n      0x00\n        /* \"#utility.yul\":549:551   */\n      0x1f\n        /* \"#utility.yul\":545:552   */\n      not\n        /* \"#utility.yul\":540:542   */\n      0x1f\n        /* \"#utility.yul\":533:538   */\n      dup4\n        /* \"#utility.yul\":529:543   */\n      add\n        /* \"#utility.yul\":525:553   */\n      and\n        /* \"#utility.yul\":515:553   */\n      swap1\n      pop\n        /* \"#utility.yul\":457:559   */\n      swap2\n      swap1\n      pop\n      jump\t// out\n        /* \"#utility.yul\":565:745   */\n    tag_46:\n        /* \"#utility.yul\":613:690   */\n      0x4e487b7100000000000000000000000000000000000000000000000000000000\n        /* \"#utility.yul\":610:611   */\n      0x00\n        /* \"#utility.yul\":603:691   */\n      mstore\n        /* \"#utility.yul\":710:714   */\n      0x41\n        /* \"#utility.yul\":707:708   */\n      0x04\n        /* \"#utility.yul\":700:715   */\n      mstore\n        /* \"#utility.yul\":734:738   */\n      0x24\n        /* \"#utility.yul\":731:732   */\n      0x00\n        /* \"#utility.yul\":724:739   */\n      revert\n        /* \"#utility.yul\":751:1032   */\n    tag_47:\n        /* \"#utility.yul\":834:861   */\n      tag_72\n        /* \"#utility.yul\":856:860   */\n      dup3\n        /* \"#utility.yul\":834:861   */\n      tag_45\n      jump\t// in\n    tag_72:\n        /* \"#utility.yul\":826:832   */\n      dup2\n        /* \"#utility.yul\":822:862   */\n      add\n        /* \"#utility.yul\":964:970   */\n      dup2\n        /* \"#utility.yul\":952:962   */\n      dup2\n        /* \"#utility.yul\":949:971   */\n      lt\n        /* \"#utility.yul\":928:946   */\n      0xffffffffffffffff\n        /* \"#utility.yul\":916:926   */\n      dup3\n        /* \"#utility.yul\":913:947   */\n      gt\n        /* \"#utility.yul\":910:972   */\n      or\n        /* \"#utility.yul\":907:995   */\n      iszero\n      tag_73\n      jumpi\n        /* \"#utility.yul\":975:993   */\n      tag_74\n      tag_46\n      jump\t// in\n    tag_74:\n        /* \"#utility.yul\":907:995   */\n    tag_73:\n        /* \"#utility.yul\":1015:1025   */\n      dup1\n        /* \"#utility.yul\":1011:1013   */\n      0x40\n        /* \"#utility.yul\":1004:1026   */\n      mstore\n        /* \"#utility.yul\":794:1032   */\n      pop\n        /* \"#utility.yul\":751:1032   */\n      pop\n      pop\n      jump\t// out\n        /* \"#utility.yul\":1038:1167   */\n    tag_48:\n        /* \"#utility.yul\":1072:1078   */\n      0x00\n        /* \"#utility.yul\":1099:1119   */\n      tag_76\n      tag_41\n      jump\t// in\n    tag_76:\n        /* \"#utility.yul\":1089:1119   */\n      swap1\n      pop\n        /* \"#utility.yul\":1128:1161   */\n      tag_77\n        /* \"#utility.yul\":1156:1160   */\n      dup3\n        /* \"#utility.yul\":1148:1154   */\n      dup3\n        /* \"#utility.yul\":1128:1161   */\n      tag_47\n      jump\t// in\n    tag_77:\n        /* \"#utility.yul\":1038:1167   */\n      swap2\n      swap1\n      pop\n      jump\t// out\n        /* \"#utility.yul\":1173:1484   */\n    tag_49:\n        /* \"#utility.yul\":1250:1254   */\n      0x00\n        /* \"#utility.yul\":1340:1358   */\n      0xffffffffffffffff\n        /* \"#utility.yul\":1332:1338   */\n      dup3\n        /* \"#utility.yul\":1329:1359   */\n      gt\n        /* \"#utility.yul\":1326:1382   */\n      iszero\n      tag_79\n      jumpi\n        /* \"#utility.yul\":1362:1380   */\n      tag_80\n      tag_46\n      jump\t// in\n    tag_80:\n        /* \"#utility.yul\":1326:1382   */\n    tag_79:\n        /* \"#utility.yul\":1412:1416   */\n      0x20\n        /* \"#utility.yul\":1404:1410   */\n      dup3\n        /* \"#utility.yul\":1400:1417   */\n      mul\n        /* \"#utility.yul\":1392:1417   */\n      swap1\n      pop\n        /* \"#utility.yul\":1472:1476   */\n      0x20\n        /* \"#utility.yul\":1466:1470   */\n      dup2\n        /* \"#utility.yul\":1462:1477   */\n      add\n        /* \"#utility.yul\":1454:1477   */\n      swap1\n      pop\n        /* \"#utility.yul\":1173:1484   */\n      swap2\n      swap1\n      pop\n      jump\t// out\n        /* \"#utility.yul\":1490:1607   */\n    tag_50:\n        /* \"#utility.yul\":1599:1600   */\n      0x00\n        /* \"#utility.yul\":1596:1597   */\n      dup1\n        /* \"#utility.yul\":1589:1601   */\n      revert\n        /* \"#utility.yul\":1613:1690   */\n    tag_51:\n        /* \"#utility.yul\":1650:1657   */\n      0x00\n        /* \"#utility.yul\":1679:1684   */\n      dup2\n        /* \"#utility.yul\":1668:1684   */\n      swap1\n      pop\n        /* \"#utility.yul\":1613:1690   */\n      swap2\n      swap1\n      pop\n      jump\t// out\n        /* \"#utility.yul\":1696:1818   */\n    tag_52:\n        /* \"#utility.yul\":1769:1793   */\n      tag_84\n        /* \"#utility.yul\":1787:1792   */\n      dup2\n        /* \"#utility.yul\":1769:1793   */\n      tag_51\n      jump\t// in\n    tag_84:\n        /* \"#utility.yul\":1762:1767   */\n      dup2\n        /* \"#utility.yul\":1759:1794   */\n      eq\n        /* \"#utility.yul\":1749:1812   */\n      tag_85\n      jumpi\n        /* \"#utility.yul\":1808:1809   */\n      0x00\n        /* \"#utility.yul\":1805:1806   */\n      dup1\n        /* \"#utility.yul\":1798:1810   */\n      revert\n        /* \"#utility.yul\":1749:1812   */\n    tag_85:\n        /* \"#utility.yul\":1696:1818   */\n      pop\n      jump\t// out\n        /* \"#utility.yul\":1824:1963   */\n    tag_53:\n        /* \"#utility.yul\":1870:1875   */\n      0x00\n        /* \"#utility.yul\":1908:1914   */\n      dup2\n        /* \"#utility.yul\":1895:1915   */\n      calldataload\n        /* \"#utility.yul\":1886:1915   */\n      swap1\n      pop\n        /* \"#utility.yul\":1924:1957   */\n      tag_87\n        /* \"#utility.yul\":1951:1956   */\n      dup2\n        /* \"#utility.yul\":1924:1957   */\n      tag_52\n      jump\t// in\n    tag_87:\n        /* \"#utility.yul\":1824:1963   */\n      swap3\n      swap2\n      pop\n      pop\n      jump\t// out\n        /* \"#utility.yul\":1986:2696   */\n    tag_54:\n        /* \"#utility.yul\":2082:2087   */\n      0x00\n        /* \"#utility.yul\":2107:2188   */\n      tag_89\n        /* \"#utility.yul\":2123:2187   */\n      tag_90\n        /* \"#utility.yul\":2180:2186   */\n      dup5\n        /* \"#utility.yul\":2123:2187   */\n      tag_49\n      jump\t// in\n    tag_90:\n        /* \"#utility.yul\":2107:2188   */\n      tag_48\n      jump\t// in\n    tag_89:\n        /* \"#utility.yul\":2098:2188   */\n      swap1\n      pop\n        /* \"#utility.yul\":2208:2213   */\n      dup1\n        /* \"#utility.yul\":2237:2243   */\n      dup4\n        /* \"#utility.yul\":2230:2235   */\n      dup3\n        /* \"#utility.yul\":2223:2244   */\n      mstore\n        /* \"#utility.yul\":2271:2275   */\n      0x20\n        /* \"#utility.yul\":2264:2269   */\n      dup3\n        /* \"#utility.yul\":2260:2276   */\n      add\n        /* \"#utility.yul\":2253:2276   */\n      swap1\n      pop\n        /* \"#utility.yul\":2324:2328   */\n      0x20\n        /* \"#utility.yul\":2316:2322   */\n      dup5\n        /* \"#utility.yul\":2312:2329   */\n      mul\n        /* \"#utility.yul\":2304:2310   */\n      dup4\n        /* \"#utility.yul\":2300:2330   */\n      add\n        /* \"#utility.yul\":2353:2356   */\n      dup6\n        /* \"#utility.yul\":2345:2351   */\n      dup2\n        /* \"#utility.yul\":2342:2357   */\n      gt\n        /* \"#utility.yul\":2339:2461   */\n      iszero\n      tag_91\n      jumpi\n        /* \"#utility.yul\":2372:2451   */\n      tag_92\n      tag_50\n      jump\t// in\n    tag_92:\n        /* \"#utility.yul\":2339:2461   */\n    tag_91:\n        /* \"#utility.yul\":2487:2493   */\n      dup4\n        /* \"#utility.yul\":2470:2690   */\n    tag_93:\n        /* \"#utility.yul\":2504:2510   */\n      dup2\n        /* \"#utility.yul\":2499:2502   */\n      dup2\n        /* \"#utility.yul\":2496:2511   */\n      lt\n        /* \"#utility.yul\":2470:2690   */\n      iszero\n      tag_95\n      jumpi\n        /* \"#utility.yul\":2579:2582   */\n      dup1\n        /* \"#utility.yul\":2608:2645   */\n      tag_96\n        /* \"#utility.yul\":2641:2644   */\n      dup9\n        /* \"#utility.yul\":2629:2639   */\n      dup3\n        /* \"#utility.yul\":2608:2645   */\n      tag_53\n      jump\t// in\n    tag_96:\n        /* \"#utility.yul\":2603:2606   */\n      dup5\n        /* \"#utility.yul\":2596:2646   */\n      mstore\n        /* \"#utility.yul\":2675:2679   */\n      0x20\n        /* \"#utility.yul\":2670:2673   */\n      dup5\n        /* \"#utility.yul\":2666:2680   */\n      add\n        /* \"#utility.yul\":2659:2680   */\n      swap4\n      pop\n        /* \"#utility.yul\":2546:2690   */\n      pop\n        /* \"#utility.yul\":2530:2534   */\n      0x20\n        /* \"#utility.yul\":2525:2528   */\n      dup2\n        /* \"#utility.yul\":2521:2535   */\n      add\n        /* \"#utility.yul\":2514:2535   */\n      swap1\n      pop\n        /* \"#utility.yul\":2470:2690   */\n      jump(tag_93)\n    tag_95:\n        /* \"#utility.yul\":2474:2495   */\n      pop\n        /* \"#utility.yul\":2088:2696   */\n      pop\n      pop\n        /* \"#utility.yul\":1986:2696   */\n      swap4\n      swap3\n      pop\n      pop\n      pop\n      jump\t// out\n        /* \"#utility.yul\":2719:3089   */\n    tag_55:\n        /* \"#utility.yul\":2790:2795   */\n      0x00\n        /* \"#utility.yul\":2839:2842   */\n      dup3\n        /* \"#utility.yul\":2832:2836   */\n      0x1f\n        /* \"#utility.yul\":2824:2830   */\n      dup4\n        /* \"#utility.yul\":2820:2837   */\n      add\n        /* \"#utility.yul\":2816:2843   */\n      slt\n        /* \"#utility.yul\":2806:2928   */\n      tag_98\n      jumpi\n        /* \"#utility.yul\":2847:2926   */\n      tag_99\n      tag_44\n      jump\t// in\n    tag_99:\n        /* \"#utility.yul\":2806:2928   */\n    tag_98:\n        /* \"#utility.yul\":2964:2970   */\n      dup2\n        /* \"#utility.yul\":2951:2971   */\n      calldataload\n        /* \"#utility.yul\":2989:3083   */\n      tag_100\n        /* \"#utility.yul\":3079:3082   */\n      dup5\n        /* \"#utility.yul\":3071:3077   */\n      dup3\n        /* \"#utility.yul\":3064:3068   */\n      0x20\n        /* \"#utility.yul\":3056:3062   */\n      dup7\n        /* \"#utility.yul\":3052:3069   */\n      add\n        /* \"#utility.yul\":2989:3083   */\n      tag_54\n      jump\t// in\n    tag_100:\n        /* \"#utility.yul\":2980:3083   */\n      swap2\n      pop\n        /* \"#utility.yul\":2796:3089   */\n      pop\n        /* \"#utility.yul\":2719:3089   */\n      swap3\n      swap2\n      pop\n      pop\n      jump\t// out\n        /* \"#utility.yul\":3095:3634   */\n    tag_6:\n        /* \"#utility.yul\":3179:3185   */\n      0x00\n        /* \"#utility.yul\":3228:3230   */\n      0x20\n        /* \"#utility.yul\":3216:3225   */\n      dup3\n        /* \"#utility.yul\":3207:3214   */\n      dup5\n        /* \"#utility.yul\":3203:3226   */\n      sub\n        /* \"#utility.yul\":3199:3231   */\n      slt\n        /* \"#utility.yul\":3196:3315   */\n      iszero\n      tag_102\n      jumpi\n        /* \"#utility.yul\":3234:3313   */\n      tag_103\n      tag_42\n      jump\t// in\n    tag_103:\n        /* \"#utility.yul\":3196:3315   */\n    tag_102:\n        /* \"#utility.yul\":3382:3383   */\n      0x00\n        /* \"#utility.yul\":3371:3380   */\n      dup3\n        /* \"#utility.yul\":3367:3384   */\n      add\n        /* \"#utility.yul\":3354:3385   */\n      calldataload\n        /* \"#utility.yul\":3412:3430   */\n      0xffffffffffffffff\n        /* \"#utility.yul\":3404:3410   */\n      dup2\n        /* \"#utility.yul\":3401:3431   */\n      gt\n        /* \"#utility.yul\":3398:3515   */\n      iszero\n      tag_104\n      jumpi\n        /* \"#utility.yul\":3434:3513   */\n      tag_105\n      tag_43\n      jump\t// in\n    tag_105:\n        /* \"#utility.yul\":3398:3515   */\n    tag_104:\n        /* \"#utility.yul\":3539:3617   */\n      tag_106\n        /* \"#utility.yul\":3609:3616   */\n      dup5\n        /* \"#utility.yul\":3600:3606   */\n      dup3\n        /* \"#utility.yul\":3589:3598   */\n      dup6\n        /* \"#utility.yul\":3585:3607   */\n      add\n        /* \"#utility.yul\":3539:3617   */\n      tag_55\n      jump\t// in\n    tag_106:\n        /* \"#utility.yul\":3529:3617   */\n      swap2\n      pop\n        /* \"#utility.yul\":3325:3627   */\n      pop\n        /* \"#utility.yul\":3095:3634   */\n      swap3\n      swap2\n      pop\n      pop\n      jump\t// out\n        /* \"#utility.yul\":3640:3754   */\n    tag_56:\n        /* \"#utility.yul\":3707:3713   */\n      0x00\n        /* \"#utility.yul\":3741:3746   */\n      dup2\n        /* \"#utility.yul\":3735:3747   */\n      mload\n        /* \"#utility.yul\":3725:3747   */\n      swap1\n      pop\n        /* \"#utility.yul\":3640:3754   */\n      swap2\n      swap1\n      pop\n      jump\t// out\n        /* \"#utility.yul\":3760:3944   */\n    tag_57:\n        /* \"#utility.yul\":3859:3870   */\n      0x00\n        /* \"#utility.yul\":3893:3899   */\n      dup3\n        /* \"#utility.yul\":3888:3891   */\n      dup3\n        /* \"#utility.yul\":3881:3900   */\n      mstore\n        /* \"#utility.yul\":3933:3937   */\n      0x20\n        /* \"#utility.yul\":3928:3931   */\n      dup3\n        /* \"#utility.yul\":3924:3938   */\n      add\n        /* \"#utility.yul\":3909:3938   */\n      swap1\n      pop\n        /* \"#utility.yul\":3760:3944   */\n      swap3\n      swap2\n      pop\n      pop\n      jump\t// out\n        /* \"#utility.yul\":3950:4082   */\n    tag_58:\n        /* \"#utility.yul\":4017:4021   */\n      0x00\n        /* \"#utility.yul\":4040:4043   */\n      dup2\n        /* \"#utility.yul\":4032:4043   */\n      swap1\n      pop\n        /* \"#utility.yul\":4070:4074   */\n      0x20\n        /* \"#utility.yul\":4065:4068   */\n      dup3\n        /* \"#utility.yul\":4061:4075   */\n      add\n        /* \"#utility.yul\":4053:4075   */\n      swap1\n      pop\n        /* \"#utility.yul\":3950:4082   */\n      swap2\n      swap1\n      pop\n      jump\t// out\n        /* \"#utility.yul\":4088:4196   */\n    tag_59:\n        /* \"#utility.yul\":4165:4189   */\n      tag_111\n        /* \"#utility.yul\":4183:4188   */\n      dup2\n        /* \"#utility.yul\":4165:4189   */\n      tag_51\n      jump\t// in\n    tag_111:\n        /* \"#utility.yul\":4160:4163   */\n      dup3\n        /* \"#utility.yul\":4153:4190   */\n      mstore\n        /* \"#utility.yul\":4088:4196   */\n      pop\n      pop\n      jump\t// out\n        /* \"#utility.yul\":4202:4381   */\n    tag_60:\n        /* \"#utility.yul\":4271:4281   */\n      0x00\n        /* \"#utility.yul\":4292:4338   */\n      tag_113\n        /* \"#utility.yul\":4334:4337   */\n      dup4\n        /* \"#utility.yul\":4326:4332   */\n      dup4\n        /* \"#utility.yul\":4292:4338   */\n      tag_59\n      jump\t// in\n    tag_113:\n        /* \"#utility.yul\":4370:4374   */\n      0x20\n        /* \"#utility.yul\":4365:4368   */\n      dup4\n        /* \"#utility.yul\":4361:4375   */\n      add\n        /* \"#utility.yul\":4347:4375   */\n      swap1\n      pop\n        /* \"#utility.yul\":4202:4381   */\n      swap3\n      swap2\n      pop\n      pop\n      jump\t// out\n        /* \"#utility.yul\":4387:4500   */\n    tag_61:\n        /* \"#utility.yul\":4457:4461   */\n      0x00\n        /* \"#utility.yul\":4489:4493   */\n      0x20\n        /* \"#utility.yul\":4484:4487   */\n      dup3\n        /* \"#utility.yul\":4480:4494   */\n      add\n        /* \"#utility.yul\":4472:4494   */\n      swap1\n      pop\n        /* \"#utility.yul\":4387:4500   */\n      swap2\n      swap1\n      pop\n      jump\t// out\n        /* \"#utility.yul\":4536:5268   */\n    tag_62:\n        /* \"#utility.yul\":4655:4658   */\n      0x00\n        /* \"#utility.yul\":4684:4738   */\n      tag_116\n        /* \"#utility.yul\":4732:4737   */\n      dup3\n        /* \"#utility.yul\":4684:4738   */\n      tag_56\n      jump\t// in\n    tag_116:\n        /* \"#utility.yul\":4754:4840   */\n      tag_117\n        /* \"#utility.yul\":4833:4839   */\n      dup2\n        /* \"#utility.yul\":4828:4831   */\n      dup6\n        /* \"#utility.yul\":4754:4840   */\n      tag_57\n      jump\t// in\n    tag_117:\n        /* \"#utility.yul\":4747:4840   */\n      swap4\n      pop\n        /* \"#utility.yul\":4864:4920   */\n      tag_118\n        /* \"#utility.yul\":4914:4919   */\n      dup4\n        /* \"#utility.yul\":4864:4920   */\n      tag_58\n      jump\t// in\n    tag_118:\n        /* \"#utility.yul\":4943:4950   */\n      dup1\n        /* \"#utility.yul\":4974:4975   */\n      0x00\n        /* \"#utility.yul\":4959:5243   */\n    tag_119:\n        /* \"#utility.yul\":4984:4990   */\n      dup4\n        /* \"#utility.yul\":4981:4982   */\n      dup2\n        /* \"#utility.yul\":4978:4991   */\n      lt\n        /* \"#utility.yul\":4959:5243   */\n      iszero\n      tag_121\n      jumpi\n        /* \"#utility.yul\":5060:5066   */\n      dup2\n        /* \"#utility.yul\":5054:5067   */\n      mload\n        /* \"#utility.yul\":5087:5150   */\n      tag_122\n        /* \"#utility.yul\":5146:5149   */\n      dup9\n        /* \"#utility.yul\":5131:5144   */\n      dup3\n        /* \"#utility.yul\":5087:5150   */\n      tag_60\n      jump\t// in\n    tag_122:\n        /* \"#utility.yul\":5080:5150   */\n      swap8\n      pop\n        /* \"#utility.yul\":5173:5233   */\n      tag_123\n        /* \"#utility.yul\":5226:5232   */\n      dup4\n        /* \"#utility.yul\":5173:5233   */\n      tag_61\n      jump\t// in\n    tag_123:\n        /* \"#utility.yul\":5163:5233   */\n      swap3\n      pop\n        /* \"#utility.yul\":5019:5243   */\n      pop\n        /* \"#utility.yul\":5006:5007   */\n      0x01\n        /* \"#utility.yul\":5003:5004   */\n      dup2\n        /* \"#utility.yul\":4999:5008   */\n      add\n        /* \"#utility.yul\":4994:5008   */\n      swap1\n      pop\n        /* \"#utility.yul\":4959:5243   */\n      jump(tag_119)\n    tag_121:\n        /* \"#utility.yul\":4963:4977   */\n      pop\n        /* \"#utility.yul\":5259:5262   */\n      dup6\n        /* \"#utility.yul\":5252:5262   */\n      swap4\n      pop\n        /* \"#utility.yul\":4660:5268   */\n      pop\n      pop\n      pop\n        /* \"#utility.yul\":4536:5268   */\n      swap3\n      swap2\n      pop\n      pop\n      jump\t// out\n        /* \"#utility.yul\":5274:5647   */\n    tag_9:\n        /* \"#utility.yul\":5417:5421   */\n      0x00\n        /* \"#utility.yul\":5455:5457   */\n      0x20\n        /* \"#utility.yul\":5444:5453   */\n      dup3\n        /* \"#utility.yul\":5440:5458   */\n      add\n        /* \"#utility.yul\":5432:5458   */\n      swap1\n      pop\n        /* \"#utility.yul\":5504:5513   */\n      dup2\n        /* \"#utility.yul\":5498:5502   */\n      dup2\n        /* \"#utility.yul\":5494:5514   */\n      sub\n        /* \"#utility.yul\":5490:5491   */\n      0x00\n        /* \"#utility.yul\":5479:5488   */\n      dup4\n        /* \"#utility.yul\":5475:5492   */\n      add\n        /* \"#utility.yul\":5468:5515   */\n      mstore\n        /* \"#utility.yul\":5532:5640   */\n      tag_125\n        /* \"#utility.yul\":5635:5639   */\n      dup2\n        /* \"#utility.yul\":5626:5632   */\n      dup5\n        /* \"#utility.yul\":5532:5640   */\n      tag_62\n      jump\t// in\n    tag_125:\n        /* \"#utility.yul\":5524:5640   */\n      swap1\n      pop\n        /* \"#utility.yul\":5274:5647   */\n      swap3\n      swap2\n      pop\n      pop\n      jump\t// out\n        /* \"#utility.yul\":5653:5833   */\n    tag_63:\n        /* \"#utility.yul\":5701:5778   */\n      0x4e487b7100000000000000000000000000000000000000000000000000000000\n        /* \"#utility.yul\":5698:5699   */\n      0x00\n        /* \"#utility.yul\":5691:5779   */\n      mstore\n        /* \"#utility.yul\":5798:5802   */\n      0x11\n        /* \"#utility.yul\":5795:5796   */\n      0x04\n        /* \"#utility.yul\":5788:5803   */\n      mstore\n        /* \"#utility.yul\":5822:5826   */\n      0x24\n        /* \"#utility.yul\":5819:5820   */\n      0x00\n        /* \"#utility.yul\":5812:5827   */\n      revert\n        /* \"#utility.yul\":5839:6033   */\n    tag_18:\n        /* \"#utility.yul\":5879:5883   */\n      0x00\n        /* \"#utility.yul\":5899:5919   */\n      tag_128\n        /* \"#utility.yul\":5917:5918   */\n      dup3\n        /* \"#utility.yul\":5899:5919   */\n      tag_51\n      jump\t// in\n    tag_128:\n        /* \"#utility.yul\":5894:5919   */\n      swap2\n      pop\n        /* \"#utility.yul\":5933:5953   */\n      tag_129\n        /* \"#utility.yul\":5951:5952   */\n      dup4\n        /* \"#utility.yul\":5933:5953   */\n      tag_51\n      jump\t// in\n    tag_129:\n        /* \"#utility.yul\":5928:5953   */\n      swap3\n      pop\n        /* \"#utility.yul\":5977:5978   */\n      dup3\n        /* \"#utility.yul\":5974:5975   */\n      dup3\n        /* \"#utility.yul\":5970:5979   */\n      sub\n        /* \"#utility.yul\":5962:5979   */\n      swap1\n      pop\n        /* \"#utility.yul\":6001:6002   */\n      dup2\n        /* \"#utility.yul\":5995:5999   */\n      dup2\n        /* \"#utility.yul\":5992:6003   */\n      gt\n        /* \"#utility.yul\":5989:6026   */\n      iszero\n      tag_130\n      jumpi\n        /* \"#utility.yul\":6006:6024   */\n      tag_131\n      tag_63\n      jump\t// in\n    tag_131:\n        /* \"#utility.yul\":5989:6026   */\n    tag_130:\n        /* \"#utility.yul\":5839:6033   */\n      swap3\n      swap2\n      pop\n      pop\n      jump\t// out\n        /* \"#utility.yul\":6039:6230   */\n    tag_21:\n        /* \"#utility.yul\":6079:6082   */\n      0x00\n        /* \"#utility.yul\":6098:6118   */\n      tag_133\n        /* \"#utility.yul\":6116:6117   */\n      dup3\n        /* \"#utility.yul\":6098:6118   */\n      tag_51\n      jump\t// in\n    tag_133:\n        /* \"#utility.yul\":6093:6118   */\n      swap2\n      pop\n        /* \"#utility.yul\":6132:6152   */\n      tag_134\n        /* \"#utility.yul\":6150:6151   */\n      dup4\n        /* \"#utility.yul\":6132:6152   */\n      tag_51\n      jump\t// in\n    tag_134:\n        /* \"#utility.yul\":6127:6152   */\n      swap3\n      pop\n        /* \"#utility.yul\":6175:6176   */\n      dup3\n        /* \"#utility.yul\":6172:6173   */\n      dup3\n        /* \"#utility.yul\":6168:6177   */\n      add\n        /* \"#utility.yul\":6161:6177   */\n      swap1\n      pop\n        /* \"#utility.yul\":6196:6199   */\n      dup1\n        /* \"#utility.yul\":6193:6194   */\n      dup3\n        /* \"#utility.yul\":6190:6200   */\n      gt\n        /* \"#utility.yul\":6187:6223   */\n      iszero\n      tag_135\n      jumpi\n        /* \"#utility.yul\":6203:6221   */\n      tag_136\n      tag_63\n      jump\t// in\n    tag_136:\n        /* \"#utility.yul\":6187:6223   */\n    tag_135:\n        /* \"#utility.yul\":6039:6230   */\n      swap3\n      swap2\n      pop\n      pop\n      jump\t// out\n        /* \"#utility.yul\":6236:6416   */\n    tag_24:\n        /* \"#utility.yul\":6284:6361   */\n      0x4e487b7100000000000000000000000000000000000000000000000000000000\n        /* \"#utility.yul\":6281:6282   */\n      0x00\n        /* \"#utility.yul\":6274:6362   */\n      mstore\n        /* \"#utility.yul\":6381:6385   */\n      0x32\n        /* \"#utility.yul\":6378:6379   */\n      0x04\n        /* \"#utility.yul\":6371:6386   */\n      mstore\n        /* \"#utility.yul\":6405:6409   */\n      0x24\n        /* \"#utility.yul\":6402:6403   */\n      0x00\n        /* \"#utility.yul\":6395:6410   */\n      revert\n        /* \"#utility.yul\":6422:6655   */\n    tag_39:\n        /* \"#utility.yul\":6461:6464   */\n      0x00\n        /* \"#utility.yul\":6484:6508   */\n      tag_139\n        /* \"#utility.yul\":6502:6507   */\n      dup3\n        /* \"#utility.yul\":6484:6508   */\n      tag_51\n      jump\t// in\n    tag_139:\n        /* \"#utility.yul\":6475:6508   */\n      swap2\n      pop\n        /* \"#utility.yul\":6530:6596   */\n      0xffffffffffffffffffffffffffffffffffffffffffffffffffffffffffffffff\n        /* \"#utility.yul\":6523:6528   */\n      dup3\n        /* \"#utility.yul\":6520:6597   */\n      sub\n        /* \"#utility.yul\":6517:6620   */\n      tag_140\n      jumpi\n        /* \"#utility.yul\":6600:6618   */\n      tag_141\n      tag_63\n      jump\t// in\n    tag_141:\n        /* \"#utility.yul\":6517:6620   */\n    tag_140:\n        /* \"#utility.yul\":6647:6648   */\n      0x01\n        /* \"#utility.yul\":6640:6645   */\n      dup3\n        /* \"#utility.yul\":6636:6649   */\n      add\n        /* \"#utility.yul\":6629:6649   */\n      swap1\n      pop\n        /* \"#utility.yul\":6422:6655   */\n      swap2\n      swap1\n      pop\n      jump\t// out\n\n    auxdata: 0xa2646970667358221220565e551bf17d1aa78040648fd5fe52adbba39ec865095240d62afc4bfe84fecb64736f6c63430008120033\n}\n",
				"bytecode": {
					"linkReferences": {},
					"object": "608060405234801561001057600080fd5b506105a6806100206000396000f3fe608060405234801561001057600080fd5b506004361061002b5760003560e01c8063e379976e14610030575b600080fd5b61004a60048036038101906100459190610339565b610060565b6040516100579190610440565b60405180910390f35b606060005b825181101561018d5760005b81600185516100809190610491565b61008a9190610491565b811015610179578360018261009f91906104c5565b815181106100b0576100af6104f9565b5b60200260200101518482815181106100cb576100ca6104f9565b5b6020026020010151111561016657836001826100e791906104c5565b815181106100f8576100f76104f9565b5b6020026020010151848281518110610113576101126104f9565b5b602002602001015185838151811061012e5761012d6104f9565b5b602002602001018660018561014391906104c5565b81518110610154576101536104f9565b5b60200260200101828152508281525050505b808061017190610528565b915050610071565b50808061018590610528565b915050610065565b50819050919050565b6000604051905090565b600080fd5b600080fd5b600080fd5b6000601f19601f8301169050919050565b7f4e487b7100000000000000000000000000000000000000000000000000000000600052604160045260246000fd5b6101f8826101af565b810181811067ffffffffffffffff82111715610217576102166101c0565b5b80604052505050565b600061022a610196565b905061023682826101ef565b919050565b600067ffffffffffffffff821115610256576102556101c0565b5b602082029050602081019050919050565b600080fd5b6000819050919050565b61027f8161026c565b811461028a57600080fd5b50565b60008135905061029c81610276565b92915050565b60006102b56102b08461023b565b610220565b905080838252602082019050602084028301858111156102d8576102d7610267565b5b835b8181101561030157806102ed888261028d565b8452602084019350506020810190506102da565b5050509392505050565b600082601f8301126103205761031f6101aa565b5b81356103308482602086016102a2565b91505092915050565b60006020828403121561034f5761034e6101a0565b5b600082013567ffffffffffffffff81111561036d5761036c6101a5565b5b6103798482850161030b565b91505092915050565b600081519050919050565b600082825260208201905092915050565b6000819050602082019050919050565b6103b78161026c565b82525050565b60006103c983836103ae565b60208301905092915050565b6000602082019050919050565b60006103ed82610382565b6103f7818561038d565b93506104028361039e565b8060005b8381101561043357815161041a88826103bd565b9750610425836103d5565b925050600181019050610406565b5085935050505092915050565b6000602082019050818103600083015261045a81846103e2565b905092915050565b7f4e487b7100000000000000000000000000000000000000000000000000000000600052601160045260246000fd5b600061049c8261026c565b91506104a78361026c565b92508282039050818111156104bf576104be610462565b5b92915050565b60006104d08261026c565b91506104db8361026c565b92508282019050808211156104f3576104f2610462565b5b92915050565b7f4e487b7100000000000000000000000000000000000000000000000000000000600052603260045260246000fd5b60006105338261026c565b91507fffffffffffffffffffffffffffffffffffffffffffffffffffffffffffffffff820361056557610564610462565b5b60018201905091905056fea2646970667358221220565e551bf17d1aa78040648fd5fe52adbba39ec865095240d62afc4bfe84fecb64736f6c63430008120033",
					"opcodes": "PUSH1 0x80 PUSH1 0x40 MSTORE CALLVALUE DUP1 ISZERO PUSH2 0x10 JUMPI PUSH1 0x0 DUP1 REVERT JUMPDEST POP PUSH2 0x5A6 DUP1 PUSH2 0x20 PUSH1 0x0 CODECOPY PUSH1 0x0 RETURN INVALID PUSH1 0x80 PUSH1 0x40 MSTORE CALLVALUE DUP1 ISZERO PUSH2 0x10 JUMPI PUSH1 0x0 DUP1 REVERT JUMPDEST POP PUSH1 0x4 CALLDATASIZE LT PUSH2 0x2B JUMPI PUSH1 0x0 CALLDATALOAD PUSH1 0xE0 SHR DUP1 PUSH4 0xE379976E EQ PUSH2 0x30 JUMPI JUMPDEST PUSH1 0x0 DUP1 REVERT JUMPDEST PUSH2 0x4A PUSH1 0x4 DUP1 CALLDATASIZE SUB DUP2 ADD SWAP1 PUSH2 0x45 SWAP2 SWAP1 PUSH2 0x339 JUMP JUMPDEST PUSH2 0x60 JUMP JUMPDEST PUSH1 0x40 MLOAD PUSH2 0x57 SWAP2 SWAP1 PUSH2 0x440 JUMP JUMPDEST PUSH1 0x40 MLOAD DUP1 SWAP2 SUB SWAP1 RETURN JUMPDEST PUSH1 0x60 PUSH1 0x0 JUMPDEST DUP3 MLOAD DUP2 LT ISZERO PUSH2 0x18D JUMPI PUSH1 0x0 JUMPDEST DUP2 PUSH1 0x1 DUP6 MLOAD PUSH2 0x80 SWAP2 SWAP1 PUSH2 0x491 JUMP JUMPDEST PUSH2 0x8A SWAP2 SWAP1 PUSH2 0x491 JUMP JUMPDEST DUP2 LT ISZERO PUSH2 0x179 JUMPI DUP4 PUSH1 0x1 DUP3 PUSH2 0x9F SWAP2 SWAP1 PUSH2 0x4C5 JUMP JUMPDEST DUP2 MLOAD DUP2 LT PUSH2 0xB0 JUMPI PUSH2 0xAF PUSH2 0x4F9 JUMP JUMPDEST JUMPDEST PUSH1 0x20 MUL PUSH1 0x20 ADD ADD MLOAD DUP5 DUP3 DUP2 MLOAD DUP2 LT PUSH2 0xCB JUMPI PUSH2 0xCA PUSH2 0x4F9 JUMP JUMPDEST JUMPDEST PUSH1 0x20 MUL PUSH1 0x20 ADD ADD MLOAD GT ISZERO PUSH2 0x166 JUMPI DUP4 PUSH1 0x1 DUP3 PUSH2 0xE7 SWAP2 SWAP1 PUSH2 0x4C5 JUMP JUMPDEST DUP2 MLOAD DUP2 LT PUSH2 0xF8 JUMPI PUSH2 0xF7 PUSH2 0x4F9 JUMP JUMPDEST JUMPDEST PUSH1 0x20 MUL PUSH1 0x20 ADD ADD MLOAD DUP5 DUP3 DUP2 MLOAD DUP2 LT PUSH2 0x113 JUMPI PUSH2 0x112 PUSH2 0x4F9 JUMP JUMPDEST JUMPDEST PUSH1 0x20 MUL PUSH1 0x20 ADD ADD MLOAD DUP6 DUP4 DUP2 MLOAD DUP2 LT PUSH2 0x12E JUMPI PUSH2 0x12D PUSH2 0x4F9 JUMP JUMPDEST JUMPDEST PUSH1 0x20 MUL PUSH1 0x20 ADD ADD DUP7 PUSH1 0x1 DUP6 PUSH2 0x143 SWAP2 SWAP1 PUSH2 0x4C5 JUMP JUMPDEST DUP2 MLOAD DUP2 LT PUSH2 0x154 JUMPI PUSH2 0x153 PUSH2 0x4F9 JUMP JUMPDEST JUMPDEST PUSH1 0x20 MUL PUSH1 0x20 ADD ADD DUP3 DUP2 MSTORE POP DUP3 DUP2 MSTORE POP POP POP JUMPDEST DUP1 DUP1 PUSH2 0x171 SWAP1 PUSH2 0x528 JUMP JUMPDEST SWAP2 POP POP PUSH2 0x71 JUMP JUMPDEST POP DUP1 DUP1 PUSH2 0x185 SWAP1 PUSH2 0x528 JUMP JUMPDEST SWAP2 POP POP PUSH2 0x65 JUMP JUMPDEST POP DUP2 SWAP1 POP SWAP2 SWAP1 POP JUMP JUMPDEST PUSH1 0x0 PUSH1 0x40 MLOAD SWAP1 POP SWAP1 JUMP JUMPDEST PUSH1 0x0 DUP1 REVERT JUMPDEST PUSH1 0x0 DUP1 REVERT JUMPDEST PUSH1 0x0 DUP1 REVERT JUMPDEST PUSH1 0x0 PUSH1 0x1F NOT PUSH1 0x1F DUP4 ADD AND SWAP1 POP SWAP2 SWAP1 POP JUMP JUMPDEST PUSH32 0x4E487B7100000000000000000000000000000000000000000000000000000000 PUSH1 0x0 MSTORE PUSH1 0x41 PUSH1 0x4 MSTORE PUSH1 0x24 PUSH1 0x0 REVERT JUMPDEST PUSH2 0x1F8 DUP3 PUSH2 0x1AF JUMP JUMPDEST DUP2 ADD DUP2 DUP2 LT PUSH8 0xFFFFFFFFFFFFFFFF DUP3 GT OR ISZERO PUSH2 0x217 JUMPI PUSH2 0x216 PUSH2 0x1C0 JUMP JUMPDEST JUMPDEST DUP1 PUSH1 0x40 MSTORE POP POP POP JUMP JUMPDEST PUSH1 0x0 PUSH2 0x22A PUSH2 0x196 JUMP JUMPDEST SWAP1 POP PUSH2 0x236 DUP3 DUP3 PUSH2 0x1EF JUMP JUMPDEST SWAP2 SWAP1 POP JUMP JUMPDEST PUSH1 0x0 PUSH8 0xFFFFFFFFFFFFFFFF DUP3 GT ISZERO PUSH2 0x256 JUMPI PUSH2 0x255 PUSH2 0x1C0 JUMP JUMPDEST JUMPDEST PUSH1 0x20 DUP3 MUL SWAP1 POP PUSH1 0x20 DUP2 ADD SWAP1 POP SWAP2 SWAP1 POP JUMP JUMPDEST PUSH1 0x0 DUP1 REVERT JUMPDEST PUSH1 0x0 DUP2 SWAP1 POP SWAP2 SWAP1 POP JUMP JUMPDEST PUSH2 0x27F DUP2 PUSH2 0x26C JUMP JUMPDEST DUP2 EQ PUSH2 0x28A JUMPI PUSH1 0x0 DUP1 REVERT JUMPDEST POP JUMP JUMPDEST PUSH1 0x0 DUP2 CALLDATALOAD SWAP1 POP PUSH2 0x29C DUP2 PUSH2 0x276 JUMP JUMPDEST SWAP3 SWAP2 POP POP JUMP JUMPDEST PUSH1 0x0 PUSH2 0x2B5 PUSH2 0x2B0 DUP5 PUSH2 0x23B JUMP JUMPDEST PUSH2 0x220 JUMP JUMPDEST SWAP1 POP DUP1 DUP4 DUP3 MSTORE PUSH1 0x20 DUP3 ADD SWAP1 POP PUSH1 0x20 DUP5 MUL DUP4 ADD DUP6 DUP2 GT ISZERO PUSH2 0x2D8 JUMPI PUSH2 0x2D7 PUSH2 0x267 JUMP JUMPDEST JUMPDEST DUP4 JUMPDEST DUP2 DUP2 LT ISZERO PUSH2 0x301 JUMPI DUP1 PUSH2 0x2ED DUP9 DUP3 PUSH2 0x28D JUMP JUMPDEST DUP5 MSTORE PUSH1 0x20 DUP5 ADD SWAP4 POP POP PUSH1 0x20 DUP2 ADD SWAP1 POP PUSH2 0x2DA JUMP JUMPDEST POP POP POP SWAP4 SWAP3 POP POP POP JUMP JUMPDEST PUSH1 0x0 DUP3 PUSH1 0x1F DUP4 ADD SLT PUSH2 0x320 JUMPI PUSH2 0x31F PUSH2 0x1AA JUMP JUMPDEST JUMPDEST DUP2 CALLDATALOAD PUSH2 0x330 DUP5 DUP3 PUSH1 0x20 DUP7 ADD PUSH2 0x2A2 JUMP JUMPDEST SWAP2 POP POP SWAP3 SWAP2 POP POP JUMP JUMPDEST PUSH1 0x0 PUSH1 0x20 DUP3 DUP5 SUB SLT ISZERO PUSH2 0x34F JUMPI PUSH2 0x34E PUSH2 0x1A0 JUMP JUMPDEST JUMPDEST PUSH1 0x0 DUP3 ADD CALLDATALOAD PUSH8 0xFFFFFFFFFFFFFFFF DUP2 GT ISZERO PUSH2 0x36D JUMPI PUSH2 0x36C PUSH2 0x1A5 JUMP JUMPDEST JUMPDEST PUSH2 0x379 DUP5 DUP3 DUP6 ADD PUSH2 0x30B JUMP JUMPDEST SWAP2 POP POP SWAP3 SWAP2 POP POP JUMP JUMPDEST PUSH1 0x0 DUP2 MLOAD SWAP1 POP SWAP2 SWAP1 POP JUMP JUMPDEST PUSH1 0x0 DUP3 DUP3 MSTORE PUSH1 0x20 DUP3 ADD SWAP1 POP SWAP3 SWAP2 POP POP JUMP JUMPDEST PUSH1 0x0 DUP2 SWAP1 POP PUSH1 0x20 DUP3 ADD SWAP1 POP SWAP2 SWAP1 POP JUMP JUMPDEST PUSH2 0x3B7 DUP2 PUSH2 0x26C JUMP JUMPDEST DUP3 MSTORE POP POP JUMP JUMPDEST PUSH1 0x0 PUSH2 0x3C9 DUP4 DUP4 PUSH2 0x3AE JUMP JUMPDEST PUSH1 0x20 DUP4 ADD SWAP1 POP SWAP3 SWAP2 POP POP JUMP JUMPDEST PUSH1 0x0 PUSH1 0x20 DUP3 ADD SWAP1 POP SWAP2 SWAP1 POP JUMP JUMPDEST PUSH1 0x0 PUSH2 0x3ED DUP3 PUSH2 0x382 JUMP JUMPDEST PUSH2 0x3F7 DUP2 DUP6 PUSH2 0x38D JUMP JUMPDEST SWAP4 POP PUSH2 0x402 DUP4 PUSH2 0x39E JUMP JUMPDEST DUP1 PUSH1 0x0 JUMPDEST DUP4 DUP2 LT ISZERO PUSH2 0x433 JUMPI DUP2 MLOAD PUSH2 0x41A DUP9 DUP3 PUSH2 0x3BD JUMP JUMPDEST SWAP8 POP PUSH2 0x425 DUP4 PUSH2 0x3D5 JUMP JUMPDEST SWAP3 POP POP PUSH1 0x1 DUP2 ADD SWAP1 POP PUSH2 0x406 JUMP JUMPDEST POP DUP6 SWAP4 POP POP POP POP SWAP3 SWAP2 POP POP JUMP JUMPDEST PUSH1 0x0 PUSH1 0x20 DUP3 ADD SWAP1 POP DUP2 DUP2 SUB PUSH1 0x0 DUP4 ADD MSTORE PUSH2 0x45A DUP2 DUP5 PUSH2 0x3E2 JUMP JUMPDEST SWAP1 POP SWAP3 SWAP2 POP POP JUMP JUMPDEST PUSH32 0x4E487B7100000000000000000000000000000000000000000000000000000000 PUSH1 0x0 MSTORE PUSH1 0x11 PUSH1 0x4 MSTORE PUSH1 0x24 PUSH1 0x0 REVERT JUMPDEST PUSH1 0x0 PUSH2 0x49C DUP3 PUSH2 0x26C JUMP JUMPDEST SWAP2 POP PUSH2 0x4A7 DUP4 PUSH2 0x26C JUMP JUMPDEST SWAP3 POP DUP3 DUP3 SUB SWAP1 POP DUP2 DUP2 GT ISZERO PUSH2 0x4BF JUMPI PUSH2 0x4BE PUSH2 0x462 JUMP JUMPDEST JUMPDEST SWAP3 SWAP2 POP POP JUMP JUMPDEST PUSH1 0x0 PUSH2 0x4D0 DUP3 PUSH2 0x26C JUMP JUMPDEST SWAP2 POP PUSH2 0x4DB DUP4 PUSH2 0x26C JUMP JUMPDEST SWAP3 POP DUP3 DUP3 ADD SWAP1 POP DUP1 DUP3 GT ISZERO PUSH2 0x4F3 JUMPI PUSH2 0x4F2 PUSH2 0x462 JUMP JUMPDEST JUMPDEST SWAP3 SWAP2 POP POP JUMP JUMPDEST PUSH32 0x4E487B7100000000000000000000000000000000000000000000000000000000 PUSH1 0x0 MSTORE PUSH1 0x32 PUSH1 0x4 MSTORE PUSH1 0x24 PUSH1 0x0 REVERT JUMPDEST PUSH1 0x0 PUSH2 0x533 DUP3 PUSH2 0x26C JUMP JUMPDEST SWAP2 POP PUSH32 0xFFFFFFFFFFFFFFFFFFFFFFFFFFFFFFFFFFFFFFFFFFFFFFFFFFFFFFFFFFFFFFFF DUP3 SUB PUSH2 0x565 JUMPI PUSH2 0x564 PUSH2 0x462 JUMP JUMPDEST JUMPDEST PUSH1 0x1 DUP3 ADD SWAP1 POP SWAP2 SWAP1 POP JUMP INVALID LOG2 PUSH5 0x6970667358 0x22 SLT KECCAK256 JUMP 0x5E SSTORE SHL CALL PUSH30 0x1AA78040648FD5FE52ADBBA39EC865095240D62AFC4BFE84FECB64736F6C PUSH4 0x43000812 STOP CALLER "
				},
				"gasEstimates": {
					"creation": {
						"codeDepositCost": "289200",
						"executionCost": "331",
						"totalCost": "289531"
					},
					"external": {
						"sortArray(uint256[])": "infinite"
					}
				},
				"methodIdentifiers": {
					"sortArray(uint256[])": "e379976e"
				}
			},
			"storageLayout": {
				"storage": [],
				"types": null
			},
			"userdoc": {
				"kind": "user",
				"methods": {},
				"version": 1
			}
		}
	}
}