{
	"solidity_advance_assignment.sol": {
		"CompareStrings": {
			"abi": [
				{
					"inputs": [
						{
							"internalType": "string",
							"name": "str1",
							"type": "string"
						},
						{
							"internalType": "string",
							"name": "str2",
							"type": "string"
						}
					],
					"name": "stringCompare",
					"outputs": [
						{
							"internalType": "string",
							"name": "",
							"type": "string"
						},
						{
							"internalType": "bool",
							"name": "",
							"type": "bool"
						}
					],
					"stateMutability": "pure",
					"type": "function"
				}
			],
			"devdoc": {
				"kind": "dev",
				"methods": {},
				"version": 1
			},
			"evm": {
				"assembly": "    /* \"solidity_advance_assignment.sol\":258:631  contract CompareStrings{... */\n  mstore(0x40, 0x80)\n  callvalue\n  dup1\n  iszero\n  tag_1\n  jumpi\n  0x00\n  dup1\n  revert\ntag_1:\n  pop\n  dataSize(sub_0)\n  dup1\n  dataOffset(sub_0)\n  0x00\n  codecopy\n  0x00\n  return\nstop\n\nsub_0: assembly {\n        /* \"solidity_advance_assignment.sol\":258:631  contract CompareStrings{... */\n      mstore(0x40, 0x80)\n      callvalue\n      dup1\n      iszero\n      tag_1\n      jumpi\n      0x00\n      dup1\n      revert\n    tag_1:\n      pop\n      jumpi(tag_2, lt(calldatasize, 0x04))\n      shr(0xe0, calldataload(0x00))\n      dup1\n      0x60353db9\n      eq\n      tag_3\n      jumpi\n    tag_2:\n      0x00\n      dup1\n      revert\n        /* \"solidity_advance_assignment.sol\":288:628  function stringCompare(string calldata str1, string calldata str2) public pure returns(string memory, bool){... */\n    tag_3:\n      tag_4\n      0x04\n      dup1\n      calldatasize\n      sub\n      dup2\n      add\n      swap1\n      tag_5\n      swap2\n      swap1\n      tag_6\n      jump\t// in\n    tag_5:\n      tag_7\n      jump\t// in\n    tag_4:\n      mload(0x40)\n      tag_8\n      swap3\n      swap2\n      swap1\n      tag_9\n      jump\t// in\n    tag_8:\n      mload(0x40)\n      dup1\n      swap2\n      sub\n      swap1\n      return\n    tag_7:\n        /* \"solidity_advance_assignment.sol\":375:388  string memory */\n      0x60\n        /* \"solidity_advance_assignment.sol\":390:394  bool */\n      0x00\n        /* \"solidity_advance_assignment.sol\":473:477  str2 */\n      dup4\n      dup4\n        /* \"solidity_advance_assignment.sol\":456:478  abi.encodePacked(str2) */\n      add(0x20, mload(0x40))\n      tag_11\n      swap3\n      swap2\n      swap1\n      tag_12\n      jump\t// in\n    tag_11:\n      mload(0x40)\n      0x20\n      dup2\n      dup4\n      sub\n      sub\n      dup2\n      mstore\n      swap1\n      0x40\n      mstore\n        /* \"solidity_advance_assignment.sol\":446:479  keccak256(abi.encodePacked(str2)) */\n      dup1\n      mload\n      swap1\n      0x20\n      add\n      keccak256\n        /* \"solidity_advance_assignment.sol\":436:440  str1 */\n      dup7\n      dup7\n        /* \"solidity_advance_assignment.sol\":419:441  abi.encodePacked(str1) */\n      add(0x20, mload(0x40))\n      tag_13\n      swap3\n      swap2\n      swap1\n      tag_12\n      jump\t// in\n    tag_13:\n      mload(0x40)\n      0x20\n      dup2\n      dup4\n      sub\n      sub\n      dup2\n      mstore\n      swap1\n      0x40\n      mstore\n        /* \"solidity_advance_assignment.sol\":409:442  keccak256(abi.encodePacked(str1)) */\n      dup1\n      mload\n      swap1\n      0x20\n      add\n      keccak256\n        /* \"solidity_advance_assignment.sol\":409:479  keccak256(abi.encodePacked(str1)) == keccak256(abi.encodePacked(str2)) */\n      sub\n        /* \"solidity_advance_assignment.sol\":406:621  if(keccak256(abi.encodePacked(str1)) == keccak256(abi.encodePacked(str2))){... */\n      tag_14\n      jumpi\n        /* \"solidity_advance_assignment.sol\":524:528  true */\n      0x01\n        /* \"solidity_advance_assignment.sol\":495:529  return (\"Strings are equal\", true) */\n      mload(0x40)\n      dup1\n      0x40\n      add\n      0x40\n      mstore\n      dup1\n      0x11\n      dup2\n      mstore\n      0x20\n      add\n      0x537472696e67732061726520657175616c000000000000000000000000000000\n      dup2\n      mstore\n      pop\n      swap1\n      swap2\n      pop\n      swap2\n      pop\n      jump(tag_10)\n        /* \"solidity_advance_assignment.sol\":406:621  if(keccak256(abi.encodePacked(str1)) == keccak256(abi.encodePacked(str2))){... */\n    tag_14:\n        /* \"solidity_advance_assignment.sol\":603:608  false */\n      0x00\n        /* \"solidity_advance_assignment.sol\":570:609  return (\"Strings are not equal\", false) */\n      mload(0x40)\n      dup1\n      0x40\n      add\n      0x40\n      mstore\n      dup1\n      0x15\n      dup2\n      mstore\n      0x20\n      add\n      0x537472696e677320617265206e6f7420657175616c0000000000000000000000\n      dup2\n      mstore\n      pop\n      swap1\n      swap2\n      pop\n      swap2\n      pop\n        /* \"solidity_advance_assignment.sol\":288:628  function stringCompare(string calldata str1, string calldata str2) public pure returns(string memory, bool){... */\n    tag_10:\n      swap5\n      pop\n      swap5\n      swap3\n      pop\n      pop\n      pop\n      jump\t// out\n        /* \"#utility.yul\":88:205   */\n    tag_17:\n        /* \"#utility.yul\":197:198   */\n      0x00\n        /* \"#utility.yul\":194:195   */\n      dup1\n        /* \"#utility.yul\":187:199   */\n      revert\n        /* \"#utility.yul\":211:328   */\n    tag_18:\n        /* \"#utility.yul\":320:321   */\n      0x00\n        /* \"#utility.yul\":317:318   */\n      dup1\n        /* \"#utility.yul\":310:322   */\n      revert\n        /* \"#utility.yul\":334:451   */\n    tag_19:\n        /* \"#utility.yul\":443:444   */\n      0x00\n        /* \"#utility.yul\":440:441   */\n      dup1\n        /* \"#utility.yul\":433:445   */\n      revert\n        /* \"#utility.yul\":457:574   */\n    tag_20:\n        /* \"#utility.yul\":566:567   */\n      0x00\n        /* \"#utility.yul\":563:564   */\n      dup1\n        /* \"#utility.yul\":556:568   */\n      revert\n        /* \"#utility.yul\":580:697   */\n    tag_21:\n        /* \"#utility.yul\":689:690   */\n      0x00\n        /* \"#utility.yul\":686:687   */\n      dup1\n        /* \"#utility.yul\":679:691   */\n      revert\n        /* \"#utility.yul\":717:1270   */\n    tag_22:\n        /* \"#utility.yul\":775:783   */\n      0x00\n        /* \"#utility.yul\":785:791   */\n      dup1\n        /* \"#utility.yul\":835:838   */\n      dup4\n        /* \"#utility.yul\":828:832   */\n      0x1f\n        /* \"#utility.yul\":820:826   */\n      dup5\n        /* \"#utility.yul\":816:833   */\n      add\n        /* \"#utility.yul\":812:839   */\n      slt\n        /* \"#utility.yul\":802:924   */\n      tag_41\n      jumpi\n        /* \"#utility.yul\":843:922   */\n      tag_42\n      tag_19\n      jump\t// in\n    tag_42:\n        /* \"#utility.yul\":802:924   */\n    tag_41:\n        /* \"#utility.yul\":956:962   */\n      dup3\n        /* \"#utility.yul\":943:963   */\n      calldataload\n        /* \"#utility.yul\":933:963   */\n      swap1\n      pop\n        /* \"#utility.yul\":986:1004   */\n      0xffffffffffffffff\n        /* \"#utility.yul\":978:984   */\n      dup2\n        /* \"#utility.yul\":975:1005   */\n      gt\n        /* \"#utility.yul\":972:1089   */\n      iszero\n      tag_43\n      jumpi\n        /* \"#utility.yul\":1008:1087   */\n      tag_44\n      tag_20\n      jump\t// in\n    tag_44:\n        /* \"#utility.yul\":972:1089   */\n    tag_43:\n        /* \"#utility.yul\":1122:1126   */\n      0x20\n        /* \"#utility.yul\":1114:1120   */\n      dup4\n        /* \"#utility.yul\":1110:1127   */\n      add\n        /* \"#utility.yul\":1098:1127   */\n      swap2\n      pop\n        /* \"#utility.yul\":1176:1179   */\n      dup4\n        /* \"#utility.yul\":1168:1172   */\n      0x01\n        /* \"#utility.yul\":1160:1166   */\n      dup3\n        /* \"#utility.yul\":1156:1173   */\n      mul\n        /* \"#utility.yul\":1146:1154   */\n      dup4\n        /* \"#utility.yul\":1142:1174   */\n      add\n        /* \"#utility.yul\":1139:1180   */\n      gt\n        /* \"#utility.yul\":1136:1264   */\n      iszero\n      tag_45\n      jumpi\n        /* \"#utility.yul\":1183:1262   */\n      tag_46\n      tag_21\n      jump\t// in\n    tag_46:\n        /* \"#utility.yul\":1136:1264   */\n    tag_45:\n        /* \"#utility.yul\":717:1270   */\n      swap3\n      pop\n      swap3\n      swap1\n      pop\n      jump\t// out\n        /* \"#utility.yul\":1276:2150   */\n    tag_6:\n        /* \"#utility.yul\":1368:1374   */\n      0x00\n        /* \"#utility.yul\":1376:1382   */\n      dup1\n        /* \"#utility.yul\":1384:1390   */\n      0x00\n        /* \"#utility.yul\":1392:1398   */\n      dup1\n        /* \"#utility.yul\":1441:1443   */\n      0x40\n        /* \"#utility.yul\":1429:1438   */\n      dup6\n        /* \"#utility.yul\":1420:1427   */\n      dup8\n        /* \"#utility.yul\":1416:1439   */\n      sub\n        /* \"#utility.yul\":1412:1444   */\n      slt\n        /* \"#utility.yul\":1409:1528   */\n      iszero\n      tag_48\n      jumpi\n        /* \"#utility.yul\":1447:1526   */\n      tag_49\n      tag_17\n      jump\t// in\n    tag_49:\n        /* \"#utility.yul\":1409:1528   */\n    tag_48:\n        /* \"#utility.yul\":1595:1596   */\n      0x00\n        /* \"#utility.yul\":1584:1593   */\n      dup6\n        /* \"#utility.yul\":1580:1597   */\n      add\n        /* \"#utility.yul\":1567:1598   */\n      calldataload\n        /* \"#utility.yul\":1625:1643   */\n      0xffffffffffffffff\n        /* \"#utility.yul\":1617:1623   */\n      dup2\n        /* \"#utility.yul\":1614:1644   */\n      gt\n        /* \"#utility.yul\":1611:1728   */\n      iszero\n      tag_50\n      jumpi\n        /* \"#utility.yul\":1647:1726   */\n      tag_51\n      tag_18\n      jump\t// in\n    tag_51:\n        /* \"#utility.yul\":1611:1728   */\n    tag_50:\n        /* \"#utility.yul\":1760:1825   */\n      tag_52\n        /* \"#utility.yul\":1817:1824   */\n      dup8\n        /* \"#utility.yul\":1808:1814   */\n      dup3\n        /* \"#utility.yul\":1797:1806   */\n      dup9\n        /* \"#utility.yul\":1793:1815   */\n      add\n        /* \"#utility.yul\":1760:1825   */\n      tag_22\n      jump\t// in\n    tag_52:\n        /* \"#utility.yul\":1742:1825   */\n      swap5\n      pop\n      swap5\n      pop\n        /* \"#utility.yul\":1538:1835   */\n      pop\n        /* \"#utility.yul\":1902:1904   */\n      0x20\n        /* \"#utility.yul\":1891:1900   */\n      dup6\n        /* \"#utility.yul\":1887:1905   */\n      add\n        /* \"#utility.yul\":1874:1906   */\n      calldataload\n        /* \"#utility.yul\":1933:1951   */\n      0xffffffffffffffff\n        /* \"#utility.yul\":1925:1931   */\n      dup2\n        /* \"#utility.yul\":1922:1952   */\n      gt\n        /* \"#utility.yul\":1919:2036   */\n      iszero\n      tag_53\n      jumpi\n        /* \"#utility.yul\":1955:2034   */\n      tag_54\n      tag_18\n      jump\t// in\n    tag_54:\n        /* \"#utility.yul\":1919:2036   */\n    tag_53:\n        /* \"#utility.yul\":2068:2133   */\n      tag_55\n        /* \"#utility.yul\":2125:2132   */\n      dup8\n        /* \"#utility.yul\":2116:2122   */\n      dup3\n        /* \"#utility.yul\":2105:2114   */\n      dup9\n        /* \"#utility.yul\":2101:2123   */\n      add\n        /* \"#utility.yul\":2068:2133   */\n      tag_22\n      jump\t// in\n    tag_55:\n        /* \"#utility.yul\":2050:2133   */\n      swap3\n      pop\n      swap3\n      pop\n        /* \"#utility.yul\":1845:2143   */\n      pop\n        /* \"#utility.yul\":1276:2150   */\n      swap3\n      swap6\n      swap2\n      swap5\n      pop\n      swap3\n      pop\n      jump\t// out\n        /* \"#utility.yul\":2156:2255   */\n    tag_23:\n        /* \"#utility.yul\":2208:2214   */\n      0x00\n        /* \"#utility.yul\":2242:2247   */\n      dup2\n        /* \"#utility.yul\":2236:2248   */\n      mload\n        /* \"#utility.yul\":2226:2248   */\n      swap1\n      pop\n        /* \"#utility.yul\":2156:2255   */\n      swap2\n      swap1\n      pop\n      jump\t// out\n        /* \"#utility.yul\":2261:2430   */\n    tag_24:\n        /* \"#utility.yul\":2345:2356   */\n      0x00\n        /* \"#utility.yul\":2379:2385   */\n      dup3\n        /* \"#utility.yul\":2374:2377   */\n      dup3\n        /* \"#utility.yul\":2367:2386   */\n      mstore\n        /* \"#utility.yul\":2419:2423   */\n      0x20\n        /* \"#utility.yul\":2414:2417   */\n      dup3\n        /* \"#utility.yul\":2410:2424   */\n      add\n        /* \"#utility.yul\":2395:2424   */\n      swap1\n      pop\n        /* \"#utility.yul\":2261:2430   */\n      swap3\n      swap2\n      pop\n      pop\n      jump\t// out\n        /* \"#utility.yul\":2436:2682   */\n    tag_25:\n        /* \"#utility.yul\":2517:2518   */\n      0x00\n        /* \"#utility.yul\":2527:2640   */\n    tag_59:\n        /* \"#utility.yul\":2541:2547   */\n      dup4\n        /* \"#utility.yul\":2538:2539   */\n      dup2\n        /* \"#utility.yul\":2535:2548   */\n      lt\n        /* \"#utility.yul\":2527:2640   */\n      iszero\n      tag_61\n      jumpi\n        /* \"#utility.yul\":2626:2627   */\n      dup1\n        /* \"#utility.yul\":2621:2624   */\n      dup3\n        /* \"#utility.yul\":2617:2628   */\n      add\n        /* \"#utility.yul\":2611:2629   */\n      mload\n        /* \"#utility.yul\":2607:2608   */\n      dup2\n        /* \"#utility.yul\":2602:2605   */\n      dup5\n        /* \"#utility.yul\":2598:2609   */\n      add\n        /* \"#utility.yul\":2591:2630   */\n      mstore\n        /* \"#utility.yul\":2563:2565   */\n      0x20\n        /* \"#utility.yul\":2560:2561   */\n      dup2\n        /* \"#utility.yul\":2556:2566   */\n      add\n        /* \"#utility.yul\":2551:2566   */\n      swap1\n      pop\n        /* \"#utility.yul\":2527:2640   */\n      jump(tag_59)\n    tag_61:\n        /* \"#utility.yul\":2674:2675   */\n      0x00\n        /* \"#utility.yul\":2665:2671   */\n      dup5\n        /* \"#utility.yul\":2660:2663   */\n      dup5\n        /* \"#utility.yul\":2656:2672   */\n      add\n        /* \"#utility.yul\":2649:2676   */\n      mstore\n        /* \"#utility.yul\":2498:2682   */\n      pop\n        /* \"#utility.yul\":2436:2682   */\n      pop\n      pop\n      pop\n      jump\t// out\n        /* \"#utility.yul\":2688:2790   */\n    tag_26:\n        /* \"#utility.yul\":2729:2735   */\n      0x00\n        /* \"#utility.yul\":2780:2782   */\n      0x1f\n        /* \"#utility.yul\":2776:2783   */\n      not\n        /* \"#utility.yul\":2771:2773   */\n      0x1f\n        /* \"#utility.yul\":2764:2769   */\n      dup4\n        /* \"#utility.yul\":2760:2774   */\n      add\n        /* \"#utility.yul\":2756:2784   */\n      and\n        /* \"#utility.yul\":2746:2784   */\n      swap1\n      pop\n        /* \"#utility.yul\":2688:2790   */\n      swap2\n      swap1\n      pop\n      jump\t// out\n        /* \"#utility.yul\":2796:3173   */\n    tag_27:\n        /* \"#utility.yul\":2884:2887   */\n      0x00\n        /* \"#utility.yul\":2912:2951   */\n      tag_64\n        /* \"#utility.yul\":2945:2950   */\n      dup3\n        /* \"#utility.yul\":2912:2951   */\n      tag_23\n      jump\t// in\n    tag_64:\n        /* \"#utility.yul\":2967:3038   */\n      tag_65\n        /* \"#utility.yul\":3031:3037   */\n      dup2\n        /* \"#utility.yul\":3026:3029   */\n      dup6\n        /* \"#utility.yul\":2967:3038   */\n      tag_24\n      jump\t// in\n    tag_65:\n        /* \"#utility.yul\":2960:3038   */\n      swap4\n      pop\n        /* \"#utility.yul\":3047:3112   */\n      tag_66\n        /* \"#utility.yul\":3105:3111   */\n      dup2\n        /* \"#utility.yul\":3100:3103   */\n      dup6\n        /* \"#utility.yul\":3093:3097   */\n      0x20\n        /* \"#utility.yul\":3086:3091   */\n      dup7\n        /* \"#utility.yul\":3082:3098   */\n      add\n        /* \"#utility.yul\":3047:3112   */\n      tag_25\n      jump\t// in\n    tag_66:\n        /* \"#utility.yul\":3137:3166   */\n      tag_67\n        /* \"#utility.yul\":3159:3165   */\n      dup2\n        /* \"#utility.yul\":3137:3166   */\n      tag_26\n      jump\t// in\n    tag_67:\n        /* \"#utility.yul\":3132:3135   */\n      dup5\n        /* \"#utility.yul\":3128:3167   */\n      add\n        /* \"#utility.yul\":3121:3167   */\n      swap2\n      pop\n        /* \"#utility.yul\":2888:3173   */\n      pop\n        /* \"#utility.yul\":2796:3173   */\n      swap3\n      swap2\n      pop\n      pop\n      jump\t// out\n        /* \"#utility.yul\":3179:3269   */\n    tag_28:\n        /* \"#utility.yul\":3213:3220   */\n      0x00\n        /* \"#utility.yul\":3256:3261   */\n      dup2\n        /* \"#utility.yul\":3249:3262   */\n      iszero\n        /* \"#utility.yul\":3242:3263   */\n      iszero\n        /* \"#utility.yul\":3231:3263   */\n      swap1\n      pop\n        /* \"#utility.yul\":3179:3269   */\n      swap2\n      swap1\n      pop\n      jump\t// out\n        /* \"#utility.yul\":3275:3384   */\n    tag_29:\n        /* \"#utility.yul\":3356:3377   */\n      tag_70\n        /* \"#utility.yul\":3371:3376   */\n      dup2\n        /* \"#utility.yul\":3356:3377   */\n      tag_28\n      jump\t// in\n    tag_70:\n        /* \"#utility.yul\":3351:3354   */\n      dup3\n        /* \"#utility.yul\":3344:3378   */\n      mstore\n        /* \"#utility.yul\":3275:3384   */\n      pop\n      pop\n      jump\t// out\n        /* \"#utility.yul\":3390:3801   */\n    tag_9:\n        /* \"#utility.yul\":3525:3529   */\n      0x00\n        /* \"#utility.yul\":3563:3565   */\n      0x40\n        /* \"#utility.yul\":3552:3561   */\n      dup3\n        /* \"#utility.yul\":3548:3566   */\n      add\n        /* \"#utility.yul\":3540:3566   */\n      swap1\n      pop\n        /* \"#utility.yul\":3612:3621   */\n      dup2\n        /* \"#utility.yul\":3606:3610   */\n      dup2\n        /* \"#utility.yul\":3602:3622   */\n      sub\n        /* \"#utility.yul\":3598:3599   */\n      0x00\n        /* \"#utility.yul\":3587:3596   */\n      dup4\n        /* \"#utility.yul\":3583:3600   */\n      add\n        /* \"#utility.yul\":3576:3623   */\n      mstore\n        /* \"#utility.yul\":3640:3718   */\n      tag_72\n        /* \"#utility.yul\":3713:3717   */\n      dup2\n        /* \"#utility.yul\":3704:3710   */\n      dup6\n        /* \"#utility.yul\":3640:3718   */\n      tag_27\n      jump\t// in\n    tag_72:\n        /* \"#utility.yul\":3632:3718   */\n      swap1\n      pop\n        /* \"#utility.yul\":3728:3794   */\n      tag_73\n        /* \"#utility.yul\":3790:3792   */\n      0x20\n        /* \"#utility.yul\":3779:3788   */\n      dup4\n        /* \"#utility.yul\":3775:3793   */\n      add\n        /* \"#utility.yul\":3766:3772   */\n      dup5\n        /* \"#utility.yul\":3728:3794   */\n      tag_29\n      jump\t// in\n    tag_73:\n        /* \"#utility.yul\":3390:3801   */\n      swap4\n      swap3\n      pop\n      pop\n      pop\n      jump\t// out\n        /* \"#utility.yul\":3807:3955   */\n    tag_30:\n        /* \"#utility.yul\":3909:3920   */\n      0x00\n        /* \"#utility.yul\":3946:3949   */\n      dup2\n        /* \"#utility.yul\":3931:3949   */\n      swap1\n      pop\n        /* \"#utility.yul\":3807:3955   */\n      swap3\n      swap2\n      pop\n      pop\n      jump\t// out\n        /* \"#utility.yul\":3961:4107   */\n    tag_31:\n        /* \"#utility.yul\":4058:4064   */\n      dup3\n        /* \"#utility.yul\":4053:4056   */\n      dup2\n        /* \"#utility.yul\":4048:4051   */\n      dup4\n        /* \"#utility.yul\":4035:4065   */\n      calldatacopy\n        /* \"#utility.yul\":4099:4100   */\n      0x00\n        /* \"#utility.yul\":4090:4096   */\n      dup4\n        /* \"#utility.yul\":4085:4088   */\n      dup4\n        /* \"#utility.yul\":4081:4097   */\n      add\n        /* \"#utility.yul\":4074:4101   */\n      mstore\n        /* \"#utility.yul\":3961:4107   */\n      pop\n      pop\n      pop\n      jump\t// out\n        /* \"#utility.yul\":4137:4467   */\n    tag_32:\n        /* \"#utility.yul\":4253:4256   */\n      0x00\n        /* \"#utility.yul\":4274:4363   */\n      tag_77\n        /* \"#utility.yul\":4356:4362   */\n      dup4\n        /* \"#utility.yul\":4351:4354   */\n      dup6\n        /* \"#utility.yul\":4274:4363   */\n      tag_30\n      jump\t// in\n    tag_77:\n        /* \"#utility.yul\":4267:4363   */\n      swap4\n      pop\n        /* \"#utility.yul\":4373:4429   */\n      tag_78\n        /* \"#utility.yul\":4422:4428   */\n      dup4\n        /* \"#utility.yul\":4417:4420   */\n      dup6\n        /* \"#utility.yul\":4410:4415   */\n      dup5\n        /* \"#utility.yul\":4373:4429   */\n      tag_31\n      jump\t// in\n    tag_78:\n        /* \"#utility.yul\":4454:4460   */\n      dup3\n        /* \"#utility.yul\":4449:4452   */\n      dup5\n        /* \"#utility.yul\":4445:4461   */\n      add\n        /* \"#utility.yul\":4438:4461   */\n      swap1\n      pop\n        /* \"#utility.yul\":4137:4467   */\n      swap4\n      swap3\n      pop\n      pop\n      pop\n      jump\t// out\n        /* \"#utility.yul\":4473:4768   */\n    tag_12:\n        /* \"#utility.yul\":4615:4618   */\n      0x00\n        /* \"#utility.yul\":4637:4742   */\n      tag_80\n        /* \"#utility.yul\":4738:4741   */\n      dup3\n        /* \"#utility.yul\":4729:4735   */\n      dup5\n        /* \"#utility.yul\":4721:4727   */\n      dup7\n        /* \"#utility.yul\":4637:4742   */\n      tag_32\n      jump\t// in\n    tag_80:\n        /* \"#utility.yul\":4630:4742   */\n      swap2\n      pop\n        /* \"#utility.yul\":4759:4762   */\n      dup2\n        /* \"#utility.yul\":4752:4762   */\n      swap1\n      pop\n        /* \"#utility.yul\":4473:4768   */\n      swap4\n      swap3\n      pop\n      pop\n      pop\n      jump\t// out\n\n    auxdata: 0xa26469706673582212208d803cf2a7c0ce61ee6e9ab93ae0848c80aa0ae3b7bebcd3aa5e0511897588c564736f6c63430008120033\n}\n",
				"bytecode": {
					"linkReferences": {},
					"object": "608060405234801561001057600080fd5b5061039e806100206000396000f3fe608060405234801561001057600080fd5b506004361061002b5760003560e01c806360353db914610030575b600080fd5b61004a600480360381019061004591906101b4565b610061565b6040516100589291906102e0565b60405180910390f35b60606000838360405160200161007892919061034f565b6040516020818303038152906040528051906020012086866040516020016100a192919061034f565b60405160208183030381529060405280519060200120036100fe5760016040518060400160405280601181526020017f537472696e67732061726520657175616c000000000000000000000000000000815250909150915061013c565b60006040518060400160405280601581526020017f537472696e677320617265206e6f7420657175616c000000000000000000000081525090915091505b94509492505050565b600080fd5b600080fd5b600080fd5b600080fd5b600080fd5b60008083601f8401126101745761017361014f565b5b8235905067ffffffffffffffff81111561019157610190610154565b5b6020830191508360018202830111156101ad576101ac610159565b5b9250929050565b600080600080604085870312156101ce576101cd610145565b5b600085013567ffffffffffffffff8111156101ec576101eb61014a565b5b6101f88782880161015e565b9450945050602085013567ffffffffffffffff81111561021b5761021a61014a565b5b6102278782880161015e565b925092505092959194509250565b600081519050919050565b600082825260208201905092915050565b60005b8381101561026f578082015181840152602081019050610254565b60008484015250505050565b6000601f19601f8301169050919050565b600061029782610235565b6102a18185610240565b93506102b1818560208601610251565b6102ba8161027b565b840191505092915050565b60008115159050919050565b6102da816102c5565b82525050565b600060408201905081810360008301526102fa818561028c565b905061030960208301846102d1565b9392505050565b600081905092915050565b82818337600083830152505050565b60006103368385610310565b935061034383858461031b565b82840190509392505050565b600061035c82848661032a565b9150819050939250505056fea26469706673582212208d803cf2a7c0ce61ee6e9ab93ae0848c80aa0ae3b7bebcd3aa5e0511897588c564736f6c63430008120033",
					"opcodes": "PUSH1 0x80 PUSH1 0x40 MSTORE CALLVALUE DUP1 ISZERO PUSH2 0x10 JUMPI PUSH1 0x0 DUP1 REVERT JUMPDEST POP PUSH2 0x39E DUP1 PUSH2 0x20 PUSH1 0x0 CODECOPY PUSH1 0x0 RETURN INVALID PUSH1 0x80 PUSH1 0x40 MSTORE CALLVALUE DUP1 ISZERO PUSH2 0x10 JUMPI PUSH1 0x0 DUP1 REVERT JUMPDEST POP PUSH1 0x4 CALLDATASIZE LT PUSH2 0x2B JUMPI PUSH1 0x0 CALLDATALOAD PUSH1 0xE0 SHR DUP1 PUSH4 0x60353DB9 EQ PUSH2 0x30 JUMPI JUMPDEST PUSH1 0x0 DUP1 REVERT JUMPDEST PUSH2 0x4A PUSH1 0x4 DUP1 CALLDATASIZE SUB DUP2 ADD SWAP1 PUSH2 0x45 SWAP2 SWAP1 PUSH2 0x1B4 JUMP JUMPDEST PUSH2 0x61 JUMP JUMPDEST PUSH1 0x40 MLOAD PUSH2 0x58 SWAP3 SWAP2 SWAP1 PUSH2 0x2E0 JUMP JUMPDEST PUSH1 0x40 MLOAD DUP1 SWAP2 SUB SWAP1 RETURN JUMPDEST PUSH1 0x60 PUSH1 0x0 DUP4 DUP4 PUSH1 0x40 MLOAD PUSH1 0x20 ADD PUSH2 0x78 SWAP3 SWAP2 SWAP1 PUSH2 0x34F JUMP JUMPDEST PUSH1 0x40 MLOAD PUSH1 0x20 DUP2 DUP4 SUB SUB DUP2 MSTORE SWAP1 PUSH1 0x40 MSTORE DUP1 MLOAD SWAP1 PUSH1 0x20 ADD KECCAK256 DUP7 DUP7 PUSH1 0x40 MLOAD PUSH1 0x20 ADD PUSH2 0xA1 SWAP3 SWAP2 SWAP1 PUSH2 0x34F JUMP JUMPDEST PUSH1 0x40 MLOAD PUSH1 0x20 DUP2 DUP4 SUB SUB DUP2 MSTORE SWAP1 PUSH1 0x40 MSTORE DUP1 MLOAD SWAP1 PUSH1 0x20 ADD KECCAK256 SUB PUSH2 0xFE JUMPI PUSH1 0x1 PUSH1 0x40 MLOAD DUP1 PUSH1 0x40 ADD PUSH1 0x40 MSTORE DUP1 PUSH1 0x11 DUP2 MSTORE PUSH1 0x20 ADD PUSH32 0x537472696E67732061726520657175616C000000000000000000000000000000 DUP2 MSTORE POP SWAP1 SWAP2 POP SWAP2 POP PUSH2 0x13C JUMP JUMPDEST PUSH1 0x0 PUSH1 0x40 MLOAD DUP1 PUSH1 0x40 ADD PUSH1 0x40 MSTORE DUP1 PUSH1 0x15 DUP2 MSTORE PUSH1 0x20 ADD PUSH32 0x537472696E677320617265206E6F7420657175616C0000000000000000000000 DUP2 MSTORE POP SWAP1 SWAP2 POP SWAP2 POP JUMPDEST SWAP5 POP SWAP5 SWAP3 POP POP POP JUMP JUMPDEST PUSH1 0x0 DUP1 REVERT JUMPDEST PUSH1 0x0 DUP1 REVERT JUMPDEST PUSH1 0x0 DUP1 REVERT JUMPDEST PUSH1 0x0 DUP1 REVERT JUMPDEST PUSH1 0x0 DUP1 REVERT JUMPDEST PUSH1 0x0 DUP1 DUP4 PUSH1 0x1F DUP5 ADD SLT PUSH2 0x174 JUMPI PUSH2 0x173 PUSH2 0x14F JUMP JUMPDEST JUMPDEST DUP3 CALLDATALOAD SWAP1 POP PUSH8 0xFFFFFFFFFFFFFFFF DUP2 GT ISZERO PUSH2 0x191 JUMPI PUSH2 0x190 PUSH2 0x154 JUMP JUMPDEST JUMPDEST PUSH1 0x20 DUP4 ADD SWAP2 POP DUP4 PUSH1 0x1 DUP3 MUL DUP4 ADD GT ISZERO PUSH2 0x1AD JUMPI PUSH2 0x1AC PUSH2 0x159 JUMP JUMPDEST JUMPDEST SWAP3 POP SWAP3 SWAP1 POP JUMP JUMPDEST PUSH1 0x0 DUP1 PUSH1 0x0 DUP1 PUSH1 0x40 DUP6 DUP8 SUB SLT ISZERO PUSH2 0x1CE JUMPI PUSH2 0x1CD PUSH2 0x145 JUMP JUMPDEST JUMPDEST PUSH1 0x0 DUP6 ADD CALLDATALOAD PUSH8 0xFFFFFFFFFFFFFFFF DUP2 GT ISZERO PUSH2 0x1EC JUMPI PUSH2 0x1EB PUSH2 0x14A JUMP JUMPDEST JUMPDEST PUSH2 0x1F8 DUP8 DUP3 DUP9 ADD PUSH2 0x15E JUMP JUMPDEST SWAP5 POP SWAP5 POP POP PUSH1 0x20 DUP6 ADD CALLDATALOAD PUSH8 0xFFFFFFFFFFFFFFFF DUP2 GT ISZERO PUSH2 0x21B JUMPI PUSH2 0x21A PUSH2 0x14A JUMP JUMPDEST JUMPDEST PUSH2 0x227 DUP8 DUP3 DUP9 ADD PUSH2 0x15E JUMP JUMPDEST SWAP3 POP SWAP3 POP POP SWAP3 SWAP6 SWAP2 SWAP5 POP SWAP3 POP JUMP JUMPDEST PUSH1 0x0 DUP2 MLOAD SWAP1 POP SWAP2 SWAP1 POP JUMP JUMPDEST PUSH1 0x0 DUP3 DUP3 MSTORE PUSH1 0x20 DUP3 ADD SWAP1 POP SWAP3 SWAP2 POP POP JUMP JUMPDEST PUSH1 0x0 JUMPDEST DUP4 DUP2 LT ISZERO PUSH2 0x26F JUMPI DUP1 DUP3 ADD MLOAD DUP2 DUP5 ADD MSTORE PUSH1 0x20 DUP2 ADD SWAP1 POP PUSH2 0x254 JUMP JUMPDEST PUSH1 0x0 DUP5 DUP5 ADD MSTORE POP POP POP POP JUMP JUMPDEST PUSH1 0x0 PUSH1 0x1F NOT PUSH1 0x1F DUP4 ADD AND SWAP1 POP SWAP2 SWAP1 POP JUMP JUMPDEST PUSH1 0x0 PUSH2 0x297 DUP3 PUSH2 0x235 JUMP JUMPDEST PUSH2 0x2A1 DUP2 DUP6 PUSH2 0x240 JUMP JUMPDEST SWAP4 POP PUSH2 0x2B1 DUP2 DUP6 PUSH1 0x20 DUP7 ADD PUSH2 0x251 JUMP JUMPDEST PUSH2 0x2BA DUP2 PUSH2 0x27B JUMP JUMPDEST DUP5 ADD SWAP2 POP POP SWAP3 SWAP2 POP POP JUMP JUMPDEST PUSH1 0x0 DUP2 ISZERO ISZERO SWAP1 POP SWAP2 SWAP1 POP JUMP JUMPDEST PUSH2 0x2DA DUP2 PUSH2 0x2C5 JUMP JUMPDEST DUP3 MSTORE POP POP JUMP JUMPDEST PUSH1 0x0 PUSH1 0x40 DUP3 ADD SWAP1 POP DUP2 DUP2 SUB PUSH1 0x0 DUP4 ADD MSTORE PUSH2 0x2FA DUP2 DUP6 PUSH2 0x28C JUMP JUMPDEST SWAP1 POP PUSH2 0x309 PUSH1 0x20 DUP4 ADD DUP5 PUSH2 0x2D1 JUMP JUMPDEST SWAP4 SWAP3 POP POP POP JUMP JUMPDEST PUSH1 0x0 DUP2 SWAP1 POP SWAP3 SWAP2 POP POP JUMP JUMPDEST DUP3 DUP2 DUP4 CALLDATACOPY PUSH1 0x0 DUP4 DUP4 ADD MSTORE POP POP POP JUMP JUMPDEST PUSH1 0x0 PUSH2 0x336 DUP4 DUP6 PUSH2 0x310 JUMP JUMPDEST SWAP4 POP PUSH2 0x343 DUP4 DUP6 DUP5 PUSH2 0x31B JUMP JUMPDEST DUP3 DUP5 ADD SWAP1 POP SWAP4 SWAP3 POP POP POP JUMP JUMPDEST PUSH1 0x0 PUSH2 0x35C DUP3 DUP5 DUP7 PUSH2 0x32A JUMP JUMPDEST SWAP2 POP DUP2 SWAP1 POP SWAP4 SWAP3 POP POP POP JUMP INVALID LOG2 PUSH5 0x6970667358 0x22 SLT KECCAK256 DUP14 DUP1 EXTCODECOPY CALLCODE 0xA7 0xC0 0xCE PUSH2 0xEE6E SWAP11 0xB9 GASPRICE 0xE0 DUP5 DUP13 DUP1 0xAA EXP 0xE3 0xB7 0xBE 0xBC 0xD3 0xAA 0x5E SDIV GT DUP10 PUSH22 0x88C564736F6C63430008120033000000000000000000 "
				},
				"gasEstimates": {
					"creation": {
						"codeDepositCost": "185200",
						"executionCost": "226",
						"totalCost": "185426"
					},
					"external": {
						"stringCompare(string,string)": "infinite"
					}
				},
				"methodIdentifiers": {
					"stringCompare(string,string)": "60353db9"
				}
			},
			"storageLayout": {
				"storage": [],
				"types": null
			},
			"userdoc": {
				"kind": "user",
				"methods": {},
				"version": 1
			}
		}
	}
}