{
	"solidity_advance_assignment.sol": {
		"SumArray": {
			"abi": [
				{
					"inputs": [
						{
							"internalType": "uint256[]",
							"name": "arr",
							"type": "uint256[]"
						}
					],
					"name": "Sum",
					"outputs": [
						{
							"internalType": "uint256",
							"name": "",
							"type": "uint256"
						}
					],
					"stateMutability": "pure",
					"type": "function"
				}
			],
			"devdoc": {
				"kind": "dev",
				"methods": {},
				"version": 1
			},
			"evm": {
				"assembly": "    /* \"solidity_advance_assignment.sol\":3741:3957  contract SumArray{... */\n  mstore(0x40, 0x80)\n  callvalue\n  dup1\n  iszero\n  tag_1\n  jumpi\n  0x00\n  dup1\n  revert\ntag_1:\n  pop\n  dataSize(sub_0)\n  dup1\n  dataOffset(sub_0)\n  0x00\n  codecopy\n  0x00\n  return\nstop\n\nsub_0: assembly {\n        /* \"solidity_advance_assignment.sol\":3741:3957  contract SumArray{... */\n      mstore(0x40, 0x80)\n      callvalue\n      dup1\n      iszero\n      tag_1\n      jumpi\n      0x00\n      dup1\n      revert\n    tag_1:\n      pop\n      jumpi(tag_2, lt(calldatasize, 0x04))\n      shr(0xe0, calldataload(0x00))\n      dup1\n      0x99340eb3\n      eq\n      tag_3\n      jumpi\n    tag_2:\n      0x00\n      dup1\n      revert\n        /* \"solidity_advance_assignment.sol\":3765:3954  function Sum(uint[] calldata arr) public pure returns(uint){... */\n    tag_3:\n      tag_4\n      0x04\n      dup1\n      calldatasize\n      sub\n      dup2\n      add\n      swap1\n      tag_5\n      swap2\n      swap1\n      tag_6\n      jump\t// in\n    tag_5:\n      tag_7\n      jump\t// in\n    tag_4:\n      mload(0x40)\n      tag_8\n      swap2\n      swap1\n      tag_9\n      jump\t// in\n    tag_8:\n      mload(0x40)\n      dup1\n      swap2\n      sub\n      swap1\n      return\n    tag_7:\n        /* \"solidity_advance_assignment.sol\":3819:3823  uint */\n      0x00\n        /* \"solidity_advance_assignment.sol\":3835:3844  uint  sum */\n      dup1\n        /* \"solidity_advance_assignment.sol\":3859:3865  uint i */\n      0x00\n        /* \"solidity_advance_assignment.sol\":3855:3926  for(uint i=0; i<arr.length;i++){... */\n    tag_11:\n        /* \"solidity_advance_assignment.sol\":3871:3874  arr */\n      dup5\n      dup5\n        /* \"solidity_advance_assignment.sol\":3871:3881  arr.length */\n      swap1\n      pop\n        /* \"solidity_advance_assignment.sol\":3869:3870  i */\n      dup2\n        /* \"solidity_advance_assignment.sol\":3869:3881  i<arr.length */\n      lt\n        /* \"solidity_advance_assignment.sol\":3855:3926  for(uint i=0; i<arr.length;i++){... */\n      iszero\n      tag_12\n      jumpi\n        /* \"solidity_advance_assignment.sol\":3908:3911  arr */\n      dup5\n      dup5\n        /* \"solidity_advance_assignment.sol\":3912:3913  i */\n      dup3\n        /* \"solidity_advance_assignment.sol\":3908:3914  arr[i] */\n      dup2\n      dup2\n      lt\n      tag_14\n      jumpi\n      tag_15\n      tag_16\n      jump\t// in\n    tag_15:\n    tag_14:\n      swap1\n      pop\n      0x20\n      mul\n      add\n      calldataload\n        /* \"solidity_advance_assignment.sol\":3901:3914  sum += arr[i] */\n      dup3\n      tag_17\n      swap2\n      swap1\n      tag_18\n      jump\t// in\n    tag_17:\n      swap2\n      pop\n        /* \"solidity_advance_assignment.sol\":3882:3885  i++ */\n      dup1\n      dup1\n      tag_19\n      swap1\n      tag_20\n      jump\t// in\n    tag_19:\n      swap2\n      pop\n      pop\n        /* \"solidity_advance_assignment.sol\":3855:3926  for(uint i=0; i<arr.length;i++){... */\n      jump(tag_11)\n    tag_12:\n      pop\n        /* \"solidity_advance_assignment.sol\":3943:3946  sum */\n      dup1\n        /* \"solidity_advance_assignment.sol\":3936:3946  return sum */\n      swap2\n      pop\n      pop\n        /* \"solidity_advance_assignment.sol\":3765:3954  function Sum(uint[] calldata arr) public pure returns(uint){... */\n      swap3\n      swap2\n      pop\n      pop\n      jump\t// out\n        /* \"#utility.yul\":88:205   */\n    tag_22:\n        /* \"#utility.yul\":197:198   */\n      0x00\n        /* \"#utility.yul\":194:195   */\n      dup1\n        /* \"#utility.yul\":187:199   */\n      revert\n        /* \"#utility.yul\":211:328   */\n    tag_23:\n        /* \"#utility.yul\":320:321   */\n      0x00\n        /* \"#utility.yul\":317:318   */\n      dup1\n        /* \"#utility.yul\":310:322   */\n      revert\n        /* \"#utility.yul\":334:451   */\n    tag_24:\n        /* \"#utility.yul\":443:444   */\n      0x00\n        /* \"#utility.yul\":440:441   */\n      dup1\n        /* \"#utility.yul\":433:445   */\n      revert\n        /* \"#utility.yul\":457:574   */\n    tag_25:\n        /* \"#utility.yul\":566:567   */\n      0x00\n        /* \"#utility.yul\":563:564   */\n      dup1\n        /* \"#utility.yul\":556:568   */\n      revert\n        /* \"#utility.yul\":580:697   */\n    tag_26:\n        /* \"#utility.yul\":689:690   */\n      0x00\n        /* \"#utility.yul\":686:687   */\n      dup1\n        /* \"#utility.yul\":679:691   */\n      revert\n        /* \"#utility.yul\":720:1288   */\n    tag_27:\n        /* \"#utility.yul\":793:801   */\n      0x00\n        /* \"#utility.yul\":803:809   */\n      dup1\n        /* \"#utility.yul\":853:856   */\n      dup4\n        /* \"#utility.yul\":846:850   */\n      0x1f\n        /* \"#utility.yul\":838:844   */\n      dup5\n        /* \"#utility.yul\":834:851   */\n      add\n        /* \"#utility.yul\":830:857   */\n      slt\n        /* \"#utility.yul\":820:942   */\n      tag_39\n      jumpi\n        /* \"#utility.yul\":861:940   */\n      tag_40\n      tag_24\n      jump\t// in\n    tag_40:\n        /* \"#utility.yul\":820:942   */\n    tag_39:\n        /* \"#utility.yul\":974:980   */\n      dup3\n        /* \"#utility.yul\":961:981   */\n      calldataload\n        /* \"#utility.yul\":951:981   */\n      swap1\n      pop\n        /* \"#utility.yul\":1004:1022   */\n      0xffffffffffffffff\n        /* \"#utility.yul\":996:1002   */\n      dup2\n        /* \"#utility.yul\":993:1023   */\n      gt\n        /* \"#utility.yul\":990:1107   */\n      iszero\n      tag_41\n      jumpi\n        /* \"#utility.yul\":1026:1105   */\n      tag_42\n      tag_25\n      jump\t// in\n    tag_42:\n        /* \"#utility.yul\":990:1107   */\n    tag_41:\n        /* \"#utility.yul\":1140:1144   */\n      0x20\n        /* \"#utility.yul\":1132:1138   */\n      dup4\n        /* \"#utility.yul\":1128:1145   */\n      add\n        /* \"#utility.yul\":1116:1145   */\n      swap2\n      pop\n        /* \"#utility.yul\":1194:1197   */\n      dup4\n        /* \"#utility.yul\":1186:1190   */\n      0x20\n        /* \"#utility.yul\":1178:1184   */\n      dup3\n        /* \"#utility.yul\":1174:1191   */\n      mul\n        /* \"#utility.yul\":1164:1172   */\n      dup4\n        /* \"#utility.yul\":1160:1192   */\n      add\n        /* \"#utility.yul\":1157:1198   */\n      gt\n        /* \"#utility.yul\":1154:1282   */\n      iszero\n      tag_43\n      jumpi\n        /* \"#utility.yul\":1201:1280   */\n      tag_44\n      tag_26\n      jump\t// in\n    tag_44:\n        /* \"#utility.yul\":1154:1282   */\n    tag_43:\n        /* \"#utility.yul\":720:1288   */\n      swap3\n      pop\n      swap3\n      swap1\n      pop\n      jump\t// out\n        /* \"#utility.yul\":1294:1853   */\n    tag_6:\n        /* \"#utility.yul\":1380:1386   */\n      0x00\n        /* \"#utility.yul\":1388:1394   */\n      dup1\n        /* \"#utility.yul\":1437:1439   */\n      0x20\n        /* \"#utility.yul\":1425:1434   */\n      dup4\n        /* \"#utility.yul\":1416:1423   */\n      dup6\n        /* \"#utility.yul\":1412:1435   */\n      sub\n        /* \"#utility.yul\":1408:1440   */\n      slt\n        /* \"#utility.yul\":1405:1524   */\n      iszero\n      tag_46\n      jumpi\n        /* \"#utility.yul\":1443:1522   */\n      tag_47\n      tag_22\n      jump\t// in\n    tag_47:\n        /* \"#utility.yul\":1405:1524   */\n    tag_46:\n        /* \"#utility.yul\":1591:1592   */\n      0x00\n        /* \"#utility.yul\":1580:1589   */\n      dup4\n        /* \"#utility.yul\":1576:1593   */\n      add\n        /* \"#utility.yul\":1563:1594   */\n      calldataload\n        /* \"#utility.yul\":1621:1639   */\n      0xffffffffffffffff\n        /* \"#utility.yul\":1613:1619   */\n      dup2\n        /* \"#utility.yul\":1610:1640   */\n      gt\n        /* \"#utility.yul\":1607:1724   */\n      iszero\n      tag_48\n      jumpi\n        /* \"#utility.yul\":1643:1722   */\n      tag_49\n      tag_23\n      jump\t// in\n    tag_49:\n        /* \"#utility.yul\":1607:1724   */\n    tag_48:\n        /* \"#utility.yul\":1756:1836   */\n      tag_50\n        /* \"#utility.yul\":1828:1835   */\n      dup6\n        /* \"#utility.yul\":1819:1825   */\n      dup3\n        /* \"#utility.yul\":1808:1817   */\n      dup7\n        /* \"#utility.yul\":1804:1826   */\n      add\n        /* \"#utility.yul\":1756:1836   */\n      tag_27\n      jump\t// in\n    tag_50:\n        /* \"#utility.yul\":1738:1836   */\n      swap3\n      pop\n      swap3\n      pop\n        /* \"#utility.yul\":1534:1846   */\n      pop\n        /* \"#utility.yul\":1294:1853   */\n      swap3\n      pop\n      swap3\n      swap1\n      pop\n      jump\t// out\n        /* \"#utility.yul\":1859:1936   */\n    tag_28:\n        /* \"#utility.yul\":1896:1903   */\n      0x00\n        /* \"#utility.yul\":1925:1930   */\n      dup2\n        /* \"#utility.yul\":1914:1930   */\n      swap1\n      pop\n        /* \"#utility.yul\":1859:1936   */\n      swap2\n      swap1\n      pop\n      jump\t// out\n        /* \"#utility.yul\":1942:2060   */\n    tag_29:\n        /* \"#utility.yul\":2029:2053   */\n      tag_53\n        /* \"#utility.yul\":2047:2052   */\n      dup2\n        /* \"#utility.yul\":2029:2053   */\n      tag_28\n      jump\t// in\n    tag_53:\n        /* \"#utility.yul\":2024:2027   */\n      dup3\n        /* \"#utility.yul\":2017:2054   */\n      mstore\n        /* \"#utility.yul\":1942:2060   */\n      pop\n      pop\n      jump\t// out\n        /* \"#utility.yul\":2066:2288   */\n    tag_9:\n        /* \"#utility.yul\":2159:2163   */\n      0x00\n        /* \"#utility.yul\":2197:2199   */\n      0x20\n        /* \"#utility.yul\":2186:2195   */\n      dup3\n        /* \"#utility.yul\":2182:2200   */\n      add\n        /* \"#utility.yul\":2174:2200   */\n      swap1\n      pop\n        /* \"#utility.yul\":2210:2281   */\n      tag_55\n        /* \"#utility.yul\":2278:2279   */\n      0x00\n        /* \"#utility.yul\":2267:2276   */\n      dup4\n        /* \"#utility.yul\":2263:2280   */\n      add\n        /* \"#utility.yul\":2254:2260   */\n      dup5\n        /* \"#utility.yul\":2210:2281   */\n      tag_29\n      jump\t// in\n    tag_55:\n        /* \"#utility.yul\":2066:2288   */\n      swap3\n      swap2\n      pop\n      pop\n      jump\t// out\n        /* \"#utility.yul\":2294:2474   */\n    tag_16:\n        /* \"#utility.yul\":2342:2419   */\n      0x4e487b7100000000000000000000000000000000000000000000000000000000\n        /* \"#utility.yul\":2339:2340   */\n      0x00\n        /* \"#utility.yul\":2332:2420   */\n      mstore\n        /* \"#utility.yul\":2439:2443   */\n      0x32\n        /* \"#utility.yul\":2436:2437   */\n      0x04\n        /* \"#utility.yul\":2429:2444   */\n      mstore\n        /* \"#utility.yul\":2463:2467   */\n      0x24\n        /* \"#utility.yul\":2460:2461   */\n      0x00\n        /* \"#utility.yul\":2453:2468   */\n      revert\n        /* \"#utility.yul\":2480:2660   */\n    tag_30:\n        /* \"#utility.yul\":2528:2605   */\n      0x4e487b7100000000000000000000000000000000000000000000000000000000\n        /* \"#utility.yul\":2525:2526   */\n      0x00\n        /* \"#utility.yul\":2518:2606   */\n      mstore\n        /* \"#utility.yul\":2625:2629   */\n      0x11\n        /* \"#utility.yul\":2622:2623   */\n      0x04\n        /* \"#utility.yul\":2615:2630   */\n      mstore\n        /* \"#utility.yul\":2649:2653   */\n      0x24\n        /* \"#utility.yul\":2646:2647   */\n      0x00\n        /* \"#utility.yul\":2639:2654   */\n      revert\n        /* \"#utility.yul\":2666:2857   */\n    tag_18:\n        /* \"#utility.yul\":2706:2709   */\n      0x00\n        /* \"#utility.yul\":2725:2745   */\n      tag_59\n        /* \"#utility.yul\":2743:2744   */\n      dup3\n        /* \"#utility.yul\":2725:2745   */\n      tag_28\n      jump\t// in\n    tag_59:\n        /* \"#utility.yul\":2720:2745   */\n      swap2\n      pop\n        /* \"#utility.yul\":2759:2779   */\n      tag_60\n        /* \"#utility.yul\":2777:2778   */\n      dup4\n        /* \"#utility.yul\":2759:2779   */\n      tag_28\n      jump\t// in\n    tag_60:\n        /* \"#utility.yul\":2754:2779   */\n      swap3\n      pop\n        /* \"#utility.yul\":2802:2803   */\n      dup3\n        /* \"#utility.yul\":2799:2800   */\n      dup3\n        /* \"#utility.yul\":2795:2804   */\n      add\n        /* \"#utility.yul\":2788:2804   */\n      swap1\n      pop\n        /* \"#utility.yul\":2823:2826   */\n      dup1\n        /* \"#utility.yul\":2820:2821   */\n      dup3\n        /* \"#utility.yul\":2817:2827   */\n      gt\n        /* \"#utility.yul\":2814:2850   */\n      iszero\n      tag_61\n      jumpi\n        /* \"#utility.yul\":2830:2848   */\n      tag_62\n      tag_30\n      jump\t// in\n    tag_62:\n        /* \"#utility.yul\":2814:2850   */\n    tag_61:\n        /* \"#utility.yul\":2666:2857   */\n      swap3\n      swap2\n      pop\n      pop\n      jump\t// out\n        /* \"#utility.yul\":2863:3096   */\n    tag_20:\n        /* \"#utility.yul\":2902:2905   */\n      0x00\n        /* \"#utility.yul\":2925:2949   */\n      tag_64\n        /* \"#utility.yul\":2943:2948   */\n      dup3\n        /* \"#utility.yul\":2925:2949   */\n      tag_28\n      jump\t// in\n    tag_64:\n        /* \"#utility.yul\":2916:2949   */\n      swap2\n      pop\n        /* \"#utility.yul\":2971:3037   */\n      0xffffffffffffffffffffffffffffffffffffffffffffffffffffffffffffffff\n        /* \"#utility.yul\":2964:2969   */\n      dup3\n        /* \"#utility.yul\":2961:3038   */\n      sub\n        /* \"#utility.yul\":2958:3061   */\n      tag_65\n      jumpi\n        /* \"#utility.yul\":3041:3059   */\n      tag_66\n      tag_30\n      jump\t// in\n    tag_66:\n        /* \"#utility.yul\":2958:3061   */\n    tag_65:\n        /* \"#utility.yul\":3088:3089   */\n      0x01\n        /* \"#utility.yul\":3081:3086   */\n      dup3\n        /* \"#utility.yul\":3077:3090   */\n      add\n        /* \"#utility.yul\":3070:3090   */\n      swap1\n      pop\n        /* \"#utility.yul\":2863:3096   */\n      swap2\n      swap1\n      pop\n      jump\t// out\n\n    auxdata: 0xa26469706673582212204b26b17567438a1c4e3c1aac006bfb0e350f89ebe609ef64bcb00cc49f0032bf64736f6c63430008120033\n}\n",
				"bytecode": {
					"linkReferences": {},
					"object": "608060405234801561001057600080fd5b506102b6806100206000396000f3fe608060405234801561001057600080fd5b506004361061002b5760003560e01c806399340eb314610030575b600080fd5b61004a60048036038101906100459190610125565b610060565b604051610057919061018b565b60405180910390f35b60008060005b848490508110156100ab57848482818110610084576100836101a6565b5b90506020020135826100969190610204565b915080806100a390610238565b915050610066565b508091505092915050565b600080fd5b600080fd5b600080fd5b600080fd5b600080fd5b60008083601f8401126100e5576100e46100c0565b5b8235905067ffffffffffffffff811115610102576101016100c5565b5b60208301915083602082028301111561011e5761011d6100ca565b5b9250929050565b6000806020838503121561013c5761013b6100b6565b5b600083013567ffffffffffffffff81111561015a576101596100bb565b5b610166858286016100cf565b92509250509250929050565b6000819050919050565b61018581610172565b82525050565b60006020820190506101a0600083018461017c565b92915050565b7f4e487b7100000000000000000000000000000000000000000000000000000000600052603260045260246000fd5b7f4e487b7100000000000000000000000000000000000000000000000000000000600052601160045260246000fd5b600061020f82610172565b915061021a83610172565b9250828201905080821115610232576102316101d5565b5b92915050565b600061024382610172565b91507fffffffffffffffffffffffffffffffffffffffffffffffffffffffffffffffff8203610275576102746101d5565b5b60018201905091905056fea26469706673582212204b26b17567438a1c4e3c1aac006bfb0e350f89ebe609ef64bcb00cc49f0032bf64736f6c63430008120033",
					"opcodes": "PUSH1 0x80 PUSH1 0x40 MSTORE CALLVALUE DUP1 ISZERO PUSH2 0x10 JUMPI PUSH1 0x0 DUP1 REVERT JUMPDEST POP PUSH2 0x2B6 DUP1 PUSH2 0x20 PUSH1 0x0 CODECOPY PUSH1 0x0 RETURN INVALID PUSH1 0x80 PUSH1 0x40 MSTORE CALLVALUE DUP1 ISZERO PUSH2 0x10 JUMPI PUSH1 0x0 DUP1 REVERT JUMPDEST POP PUSH1 0x4 CALLDATASIZE LT PUSH2 0x2B JUMPI PUSH1 0x0 CALLDATALOAD PUSH1 0xE0 SHR DUP1 PUSH4 0x99340EB3 EQ PUSH2 0x30 JUMPI JUMPDEST PUSH1 0x0 DUP1 REVERT JUMPDEST PUSH2 0x4A PUSH1 0x4 DUP1 CALLDATASIZE SUB DUP2 ADD SWAP1 PUSH2 0x45 SWAP2 SWAP1 PUSH2 0x125 JUMP JUMPDEST PUSH2 0x60 JUMP JUMPDEST PUSH1 0x40 MLOAD PUSH2 0x57 SWAP2 SWAP1 PUSH2 0x18B JUMP JUMPDEST PUSH1 0x40 MLOAD DUP1 SWAP2 SUB SWAP1 RETURN JUMPDEST PUSH1 0x0 DUP1 PUSH1 0x0 JUMPDEST DUP5 DUP5 SWAP1 POP DUP2 LT ISZERO PUSH2 0xAB JUMPI DUP5 DUP5 DUP3 DUP2 DUP2 LT PUSH2 0x84 JUMPI PUSH2 0x83 PUSH2 0x1A6 JUMP JUMPDEST JUMPDEST SWAP1 POP PUSH1 0x20 MUL ADD CALLDATALOAD DUP3 PUSH2 0x96 SWAP2 SWAP1 PUSH2 0x204 JUMP JUMPDEST SWAP2 POP DUP1 DUP1 PUSH2 0xA3 SWAP1 PUSH2 0x238 JUMP JUMPDEST SWAP2 POP POP PUSH2 0x66 JUMP JUMPDEST POP DUP1 SWAP2 POP POP SWAP3 SWAP2 POP POP JUMP JUMPDEST PUSH1 0x0 DUP1 REVERT JUMPDEST PUSH1 0x0 DUP1 REVERT JUMPDEST PUSH1 0x0 DUP1 REVERT JUMPDEST PUSH1 0x0 DUP1 REVERT JUMPDEST PUSH1 0x0 DUP1 REVERT JUMPDEST PUSH1 0x0 DUP1 DUP4 PUSH1 0x1F DUP5 ADD SLT PUSH2 0xE5 JUMPI PUSH2 0xE4 PUSH2 0xC0 JUMP JUMPDEST JUMPDEST DUP3 CALLDATALOAD SWAP1 POP PUSH8 0xFFFFFFFFFFFFFFFF DUP2 GT ISZERO PUSH2 0x102 JUMPI PUSH2 0x101 PUSH2 0xC5 JUMP JUMPDEST JUMPDEST PUSH1 0x20 DUP4 ADD SWAP2 POP DUP4 PUSH1 0x20 DUP3 MUL DUP4 ADD GT ISZERO PUSH2 0x11E JUMPI PUSH2 0x11D PUSH2 0xCA JUMP JUMPDEST JUMPDEST SWAP3 POP SWAP3 SWAP1 POP JUMP JUMPDEST PUSH1 0x0 DUP1 PUSH1 0x20 DUP4 DUP6 SUB SLT ISZERO PUSH2 0x13C JUMPI PUSH2 0x13B PUSH2 0xB6 JUMP JUMPDEST JUMPDEST PUSH1 0x0 DUP4 ADD CALLDATALOAD PUSH8 0xFFFFFFFFFFFFFFFF DUP2 GT ISZERO PUSH2 0x15A JUMPI PUSH2 0x159 PUSH2 0xBB JUMP JUMPDEST JUMPDEST PUSH2 0x166 DUP6 DUP3 DUP7 ADD PUSH2 0xCF JUMP JUMPDEST SWAP3 POP SWAP3 POP POP SWAP3 POP SWAP3 SWAP1 POP JUMP JUMPDEST PUSH1 0x0 DUP2 SWAP1 POP SWAP2 SWAP1 POP JUMP JUMPDEST PUSH2 0x185 DUP2 PUSH2 0x172 JUMP JUMPDEST DUP3 MSTORE POP POP JUMP JUMPDEST PUSH1 0x0 PUSH1 0x20 DUP3 ADD SWAP1 POP PUSH2 0x1A0 PUSH1 0x0 DUP4 ADD DUP5 PUSH2 0x17C JUMP JUMPDEST SWAP3 SWAP2 POP POP JUMP JUMPDEST PUSH32 0x4E487B7100000000000000000000000000000000000000000000000000000000 PUSH1 0x0 MSTORE PUSH1 0x32 PUSH1 0x4 MSTORE PUSH1 0x24 PUSH1 0x0 REVERT JUMPDEST PUSH32 0x4E487B7100000000000000000000000000000000000000000000000000000000 PUSH1 0x0 MSTORE PUSH1 0x11 PUSH1 0x4 MSTORE PUSH1 0x24 PUSH1 0x0 REVERT JUMPDEST PUSH1 0x0 PUSH2 0x20F DUP3 PUSH2 0x172 JUMP JUMPDEST SWAP2 POP PUSH2 0x21A DUP4 PUSH2 0x172 JUMP JUMPDEST SWAP3 POP DUP3 DUP3 ADD SWAP1 POP DUP1 DUP3 GT ISZERO PUSH2 0x232 JUMPI PUSH2 0x231 PUSH2 0x1D5 JUMP JUMPDEST JUMPDEST SWAP3 SWAP2 POP POP JUMP JUMPDEST PUSH1 0x0 PUSH2 0x243 DUP3 PUSH2 0x172 JUMP JUMPDEST SWAP2 POP PUSH32 0xFFFFFFFFFFFFFFFFFFFFFFFFFFFFFFFFFFFFFFFFFFFFFFFFFFFFFFFFFFFFFFFF DUP3 SUB PUSH2 0x275 JUMPI PUSH2 0x274 PUSH2 0x1D5 JUMP JUMPDEST JUMPDEST PUSH1 0x1 DUP3 ADD SWAP1 POP SWAP2 SWAP1 POP JUMP INVALID LOG2 PUSH5 0x6970667358 0x22 SLT KECCAK256 0x4B 0x26 0xB1 PUSH22 0x67438A1C4E3C1AAC006BFB0E350F89EBE609EF64BCB0 0xC 0xC4 SWAP16 STOP ORIGIN 0xBF PUSH5 0x736F6C6343 STOP ADDMOD SLT STOP CALLER "
				},
				"gasEstimates": {
					"creation": {
						"codeDepositCost": "138800",
						"executionCost": "183",
						"totalCost": "138983"
					},
					"external": {
						"Sum(uint256[])": "infinite"
					}
				},
				"methodIdentifiers": {
					"Sum(uint256[])": "99340eb3"
				}
			},
			"storageLayout": {
				"storage": [],
				"types": null
			},
			"userdoc": {
				"kind": "user",
				"methods": {},
				"version": 1
			}
		}
	}
}