{
	"solidity_advance_assignment.sol": {
		"MappingMarks": {
			"abi": [
				{
					"inputs": [
						{
							"internalType": "address",
							"name": "person",
							"type": "address"
						},
						{
							"internalType": "uint256",
							"name": "maths",
							"type": "uint256"
						},
						{
							"internalType": "uint256",
							"name": "english",
							"type": "uint256"
						},
						{
							"internalType": "uint256",
							"name": "history",
							"type": "uint256"
						}
					],
					"name": "enterMarks",
					"outputs": [],
					"stateMutability": "nonpayable",
					"type": "function"
				},
				{
					"inputs": [
						{
							"internalType": "address",
							"name": "person",
							"type": "address"
						}
					],
					"name": "returnMarks",
					"outputs": [
						{
							"internalType": "uint256[3]",
							"name": "",
							"type": "uint256[3]"
						}
					],
					"stateMutability": "view",
					"type": "function"
				}
			],
			"devdoc": {
				"kind": "dev",
				"methods": {},
				"version": 1
			},
			"evm": {
				"assembly": "    /* \"solidity_advance_assignment.sol\":2419:2802  contract MappingMarks{... */\n  mstore(0x40, 0x80)\n  callvalue\n  dup1\n  iszero\n  tag_1\n  jumpi\n  0x00\n  dup1\n  revert\ntag_1:\n  pop\n  dataSize(sub_0)\n  dup1\n  dataOffset(sub_0)\n  0x00\n  codecopy\n  0x00\n  return\nstop\n\nsub_0: assembly {\n        /* \"solidity_advance_assignment.sol\":2419:2802  contract MappingMarks{... */\n      mstore(0x40, 0x80)\n      callvalue\n      dup1\n      iszero\n      tag_1\n      jumpi\n      0x00\n      dup1\n      revert\n    tag_1:\n      pop\n      jumpi(tag_2, lt(calldatasize, 0x04))\n      shr(0xe0, calldataload(0x00))\n      dup1\n      0x5bb5dbab\n      eq\n      tag_3\n      jumpi\n      dup1\n      0xcaa987f5\n      eq\n      tag_4\n      jumpi\n    tag_2:\n      0x00\n      dup1\n      revert\n        /* \"solidity_advance_assignment.sol\":2636:2799  function returnMarks(address person) public view returns(uint[3] memory){... */\n    tag_3:\n      tag_5\n      0x04\n      dup1\n      calldatasize\n      sub\n      dup2\n      add\n      swap1\n      tag_6\n      swap2\n      swap1\n      tag_7\n      jump\t// in\n    tag_6:\n      tag_8\n      jump\t// in\n    tag_5:\n      mload(0x40)\n      tag_9\n      swap2\n      swap1\n      tag_10\n      jump\t// in\n    tag_9:\n      mload(0x40)\n      dup1\n      swap2\n      sub\n      swap1\n      return\n        /* \"solidity_advance_assignment.sol\":2488:2630  function enterMarks(address person, uint maths, uint english, uint history) public{... */\n    tag_4:\n      tag_11\n      0x04\n      dup1\n      calldatasize\n      sub\n      dup2\n      add\n      swap1\n      tag_12\n      swap2\n      swap1\n      tag_13\n      jump\t// in\n    tag_12:\n      tag_14\n      jump\t// in\n    tag_11:\n      stop\n        /* \"solidity_advance_assignment.sol\":2636:2799  function returnMarks(address person) public view returns(uint[3] memory){... */\n    tag_8:\n        /* \"solidity_advance_assignment.sol\":2693:2707  uint[3] memory */\n      tag_15\n      tag_16\n      jump\t// in\n    tag_15:\n        /* \"solidity_advance_assignment.sol\":2719:2746  uint[3] storage PersonMarks */\n      0x00\n        /* \"solidity_advance_assignment.sol\":2749:2754  marks */\n      dup1\n        /* \"solidity_advance_assignment.sol\":2749:2762  marks[person] */\n      0x00\n        /* \"solidity_advance_assignment.sol\":2755:2761  person */\n      dup5\n        /* \"solidity_advance_assignment.sol\":2749:2762  marks[person] */\n      0xffffffffffffffffffffffffffffffffffffffff\n      and\n      0xffffffffffffffffffffffffffffffffffffffff\n      and\n      dup2\n      mstore\n      0x20\n      add\n      swap1\n      dup2\n      mstore\n      0x20\n      add\n      0x00\n      keccak256\n        /* \"solidity_advance_assignment.sol\":2719:2762  uint[3] storage PersonMarks = marks[person] */\n      swap1\n      pop\n        /* \"solidity_advance_assignment.sol\":2780:2791  PersonMarks */\n      dup1\n        /* \"solidity_advance_assignment.sol\":2773:2791  return PersonMarks */\n      0x03\n      dup1\n      0x20\n      mul\n      mload(0x40)\n      swap1\n      dup2\n      add\n      0x40\n      mstore\n      dup1\n      swap3\n      swap2\n      swap1\n      dup3\n      0x03\n      dup1\n      iszero\n      tag_18\n      jumpi\n      0x20\n      mul\n      dup3\n      add\n      swap2\n    tag_19:\n      dup2\n      sload\n      dup2\n      mstore\n      0x20\n      add\n      swap1\n      0x01\n      add\n      swap1\n      dup1\n      dup4\n      gt\n      tag_19\n      jumpi\n    tag_18:\n      pop\n      pop\n      pop\n      pop\n      pop\n      swap2\n      pop\n      pop\n        /* \"solidity_advance_assignment.sol\":2636:2799  function returnMarks(address person) public view returns(uint[3] memory){... */\n      swap2\n      swap1\n      pop\n      jump\t// out\n        /* \"solidity_advance_assignment.sol\":2488:2630  function enterMarks(address person, uint maths, uint english, uint history) public{... */\n    tag_14:\n        /* \"solidity_advance_assignment.sol\":2581:2622  marks[person] = [maths, english, history] */\n      mload(0x40)\n      dup1\n      0x60\n      add\n      0x40\n      mstore\n      dup1\n        /* \"solidity_advance_assignment.sol\":2598:2603  maths */\n      dup5\n        /* \"solidity_advance_assignment.sol\":2581:2622  marks[person] = [maths, english, history] */\n      dup2\n      mstore\n      0x20\n      add\n        /* \"solidity_advance_assignment.sol\":2605:2612  english */\n      dup4\n        /* \"solidity_advance_assignment.sol\":2581:2622  marks[person] = [maths, english, history] */\n      dup2\n      mstore\n      0x20\n      add\n        /* \"solidity_advance_assignment.sol\":2614:2621  history */\n      dup3\n        /* \"solidity_advance_assignment.sol\":2581:2622  marks[person] = [maths, english, history] */\n      dup2\n      mstore\n      pop\n        /* \"solidity_advance_assignment.sol\":2581:2586  marks */\n      0x00\n        /* \"solidity_advance_assignment.sol\":2581:2594  marks[person] */\n      dup1\n        /* \"solidity_advance_assignment.sol\":2587:2593  person */\n      dup7\n        /* \"solidity_advance_assignment.sol\":2581:2594  marks[person] */\n      0xffffffffffffffffffffffffffffffffffffffff\n      and\n      0xffffffffffffffffffffffffffffffffffffffff\n      and\n      dup2\n      mstore\n      0x20\n      add\n      swap1\n      dup2\n      mstore\n      0x20\n      add\n      0x00\n      keccak256\n        /* \"solidity_advance_assignment.sol\":2581:2622  marks[person] = [maths, english, history] */\n      swap1\n      0x03\n      tag_21\n      swap3\n      swap2\n      swap1\n      tag_22\n      jump\t// in\n    tag_21:\n      pop\n        /* \"solidity_advance_assignment.sol\":2488:2630  function enterMarks(address person, uint maths, uint english, uint history) public{... */\n      pop\n      pop\n      pop\n      pop\n      jump\t// out\n    tag_16:\n      mload(0x40)\n      dup1\n      0x60\n      add\n      0x40\n      mstore\n      dup1\n      0x03\n      swap1\n      0x20\n      dup3\n      mul\n      dup1\n      calldatasize\n      dup4\n      calldatacopy\n      dup1\n      dup3\n      add\n      swap2\n      pop\n      pop\n      swap1\n      pop\n      pop\n      swap1\n      jump\t// out\n    tag_22:\n      dup3\n      0x03\n      dup2\n      add\n      swap3\n      dup3\n      iszero\n      tag_23\n      jumpi\n      swap2\n      0x20\n      mul\n      dup3\n      add\n    tag_24:\n      dup3\n      dup2\n      gt\n      iszero\n      tag_25\n      jumpi\n      dup3\n      mload\n      dup3\n      sstore\n      swap2\n      0x20\n      add\n      swap2\n      swap1\n      0x01\n      add\n      swap1\n      jump(tag_24)\n    tag_25:\n    tag_23:\n      pop\n      swap1\n      pop\n      tag_26\n      swap2\n      swap1\n      tag_27\n      jump\t// in\n    tag_26:\n      pop\n      swap1\n      jump\t// out\n    tag_27:\n    tag_28:\n      dup1\n      dup3\n      gt\n      iszero\n      tag_29\n      jumpi\n      0x00\n      dup2\n      0x00\n      swap1\n      sstore\n      pop\n      0x01\n      add\n      jump(tag_28)\n    tag_29:\n      pop\n      swap1\n      jump\t// out\n        /* \"#utility.yul\":88:205   */\n    tag_31:\n        /* \"#utility.yul\":197:198   */\n      0x00\n        /* \"#utility.yul\":194:195   */\n      dup1\n        /* \"#utility.yul\":187:199   */\n      revert\n        /* \"#utility.yul\":334:460   */\n    tag_33:\n        /* \"#utility.yul\":371:378   */\n      0x00\n        /* \"#utility.yul\":411:453   */\n      0xffffffffffffffffffffffffffffffffffffffff\n        /* \"#utility.yul\":404:409   */\n      dup3\n        /* \"#utility.yul\":400:454   */\n      and\n        /* \"#utility.yul\":389:454   */\n      swap1\n      pop\n        /* \"#utility.yul\":334:460   */\n      swap2\n      swap1\n      pop\n      jump\t// out\n        /* \"#utility.yul\":466:562   */\n    tag_34:\n        /* \"#utility.yul\":503:510   */\n      0x00\n        /* \"#utility.yul\":532:556   */\n      tag_53\n        /* \"#utility.yul\":550:555   */\n      dup3\n        /* \"#utility.yul\":532:556   */\n      tag_33\n      jump\t// in\n    tag_53:\n        /* \"#utility.yul\":521:556   */\n      swap1\n      pop\n        /* \"#utility.yul\":466:562   */\n      swap2\n      swap1\n      pop\n      jump\t// out\n        /* \"#utility.yul\":568:690   */\n    tag_35:\n        /* \"#utility.yul\":641:665   */\n      tag_55\n        /* \"#utility.yul\":659:664   */\n      dup2\n        /* \"#utility.yul\":641:665   */\n      tag_34\n      jump\t// in\n    tag_55:\n        /* \"#utility.yul\":634:639   */\n      dup2\n        /* \"#utility.yul\":631:666   */\n      eq\n        /* \"#utility.yul\":621:684   */\n      tag_56\n      jumpi\n        /* \"#utility.yul\":680:681   */\n      0x00\n        /* \"#utility.yul\":677:678   */\n      dup1\n        /* \"#utility.yul\":670:682   */\n      revert\n        /* \"#utility.yul\":621:684   */\n    tag_56:\n        /* \"#utility.yul\":568:690   */\n      pop\n      jump\t// out\n        /* \"#utility.yul\":696:835   */\n    tag_36:\n        /* \"#utility.yul\":742:747   */\n      0x00\n        /* \"#utility.yul\":780:786   */\n      dup2\n        /* \"#utility.yul\":767:787   */\n      calldataload\n        /* \"#utility.yul\":758:787   */\n      swap1\n      pop\n        /* \"#utility.yul\":796:829   */\n      tag_58\n        /* \"#utility.yul\":823:828   */\n      dup2\n        /* \"#utility.yul\":796:829   */\n      tag_35\n      jump\t// in\n    tag_58:\n        /* \"#utility.yul\":696:835   */\n      swap3\n      swap2\n      pop\n      pop\n      jump\t// out\n        /* \"#utility.yul\":841:1170   */\n    tag_7:\n        /* \"#utility.yul\":900:906   */\n      0x00\n        /* \"#utility.yul\":949:951   */\n      0x20\n        /* \"#utility.yul\":937:946   */\n      dup3\n        /* \"#utility.yul\":928:935   */\n      dup5\n        /* \"#utility.yul\":924:947   */\n      sub\n        /* \"#utility.yul\":920:952   */\n      slt\n        /* \"#utility.yul\":917:1036   */\n      iszero\n      tag_60\n      jumpi\n        /* \"#utility.yul\":955:1034   */\n      tag_61\n      tag_31\n      jump\t// in\n    tag_61:\n        /* \"#utility.yul\":917:1036   */\n    tag_60:\n        /* \"#utility.yul\":1075:1076   */\n      0x00\n        /* \"#utility.yul\":1100:1153   */\n      tag_62\n        /* \"#utility.yul\":1145:1152   */\n      dup5\n        /* \"#utility.yul\":1136:1142   */\n      dup3\n        /* \"#utility.yul\":1125:1134   */\n      dup6\n        /* \"#utility.yul\":1121:1143   */\n      add\n        /* \"#utility.yul\":1100:1153   */\n      tag_36\n      jump\t// in\n    tag_62:\n        /* \"#utility.yul\":1090:1153   */\n      swap2\n      pop\n        /* \"#utility.yul\":1046:1163   */\n      pop\n        /* \"#utility.yul\":841:1170   */\n      swap3\n      swap2\n      pop\n      pop\n      jump\t// out\n        /* \"#utility.yul\":1176:1280   */\n    tag_37:\n        /* \"#utility.yul\":1241:1247   */\n      0x00\n        /* \"#utility.yul\":1269:1273   */\n      0x03\n        /* \"#utility.yul\":1259:1273   */\n      swap1\n      pop\n        /* \"#utility.yul\":1176:1280   */\n      swap2\n      swap1\n      pop\n      jump\t// out\n        /* \"#utility.yul\":1286:1429   */\n    tag_38:\n        /* \"#utility.yul\":1383:1394   */\n      0x00\n        /* \"#utility.yul\":1420:1423   */\n      dup2\n        /* \"#utility.yul\":1405:1423   */\n      swap1\n      pop\n        /* \"#utility.yul\":1286:1429   */\n      swap3\n      swap2\n      pop\n      pop\n      jump\t// out\n        /* \"#utility.yul\":1435:1533   */\n    tag_39:\n        /* \"#utility.yul\":1500:1504   */\n      0x00\n        /* \"#utility.yul\":1523:1526   */\n      dup2\n        /* \"#utility.yul\":1515:1526   */\n      swap1\n      pop\n        /* \"#utility.yul\":1435:1533   */\n      swap2\n      swap1\n      pop\n      jump\t// out\n        /* \"#utility.yul\":1539:1616   */\n    tag_40:\n        /* \"#utility.yul\":1576:1583   */\n      0x00\n        /* \"#utility.yul\":1605:1610   */\n      dup2\n        /* \"#utility.yul\":1594:1610   */\n      swap1\n      pop\n        /* \"#utility.yul\":1539:1616   */\n      swap2\n      swap1\n      pop\n      jump\t// out\n        /* \"#utility.yul\":1622:1730   */\n    tag_41:\n        /* \"#utility.yul\":1699:1723   */\n      tag_68\n        /* \"#utility.yul\":1717:1722   */\n      dup2\n        /* \"#utility.yul\":1699:1723   */\n      tag_40\n      jump\t// in\n    tag_68:\n        /* \"#utility.yul\":1694:1697   */\n      dup3\n        /* \"#utility.yul\":1687:1724   */\n      mstore\n        /* \"#utility.yul\":1622:1730   */\n      pop\n      pop\n      jump\t// out\n        /* \"#utility.yul\":1736:1915   */\n    tag_42:\n        /* \"#utility.yul\":1805:1815   */\n      0x00\n        /* \"#utility.yul\":1826:1872   */\n      tag_70\n        /* \"#utility.yul\":1868:1871   */\n      dup4\n        /* \"#utility.yul\":1860:1866   */\n      dup4\n        /* \"#utility.yul\":1826:1872   */\n      tag_41\n      jump\t// in\n    tag_70:\n        /* \"#utility.yul\":1904:1908   */\n      0x20\n        /* \"#utility.yul\":1899:1902   */\n      dup4\n        /* \"#utility.yul\":1895:1909   */\n      add\n        /* \"#utility.yul\":1881:1909   */\n      swap1\n      pop\n        /* \"#utility.yul\":1736:1915   */\n      swap3\n      swap2\n      pop\n      pop\n      jump\t// out\n        /* \"#utility.yul\":1921:2032   */\n    tag_43:\n        /* \"#utility.yul\":1989:1993   */\n      0x00\n        /* \"#utility.yul\":2021:2025   */\n      0x20\n        /* \"#utility.yul\":2016:2019   */\n      dup3\n        /* \"#utility.yul\":2012:2026   */\n      add\n        /* \"#utility.yul\":2004:2026   */\n      swap1\n      pop\n        /* \"#utility.yul\":1921:2032   */\n      swap2\n      swap1\n      pop\n      jump\t// out\n        /* \"#utility.yul\":2070:2764   */\n    tag_44:\n        /* \"#utility.yul\":2206:2258   */\n      tag_73\n        /* \"#utility.yul\":2252:2257   */\n      dup2\n        /* \"#utility.yul\":2206:2258   */\n      tag_37\n      jump\t// in\n    tag_73:\n        /* \"#utility.yul\":2274:2358   */\n      tag_74\n        /* \"#utility.yul\":2351:2357   */\n      dup2\n        /* \"#utility.yul\":2346:2349   */\n      dup5\n        /* \"#utility.yul\":2274:2358   */\n      tag_38\n      jump\t// in\n    tag_74:\n        /* \"#utility.yul\":2267:2358   */\n      swap3\n      pop\n        /* \"#utility.yul\":2382:2436   */\n      tag_75\n        /* \"#utility.yul\":2430:2435   */\n      dup3\n        /* \"#utility.yul\":2382:2436   */\n      tag_39\n      jump\t// in\n    tag_75:\n        /* \"#utility.yul\":2459:2466   */\n      dup1\n        /* \"#utility.yul\":2490:2491   */\n      0x00\n        /* \"#utility.yul\":2475:2757   */\n    tag_76:\n        /* \"#utility.yul\":2500:2506   */\n      dup4\n        /* \"#utility.yul\":2497:2498   */\n      dup2\n        /* \"#utility.yul\":2494:2507   */\n      lt\n        /* \"#utility.yul\":2475:2757   */\n      iszero\n      tag_78\n      jumpi\n        /* \"#utility.yul\":2576:2582   */\n      dup2\n        /* \"#utility.yul\":2570:2583   */\n      mload\n        /* \"#utility.yul\":2603:2666   */\n      tag_79\n        /* \"#utility.yul\":2662:2665   */\n      dup8\n        /* \"#utility.yul\":2647:2660   */\n      dup3\n        /* \"#utility.yul\":2603:2666   */\n      tag_42\n      jump\t// in\n    tag_79:\n        /* \"#utility.yul\":2596:2666   */\n      swap7\n      pop\n        /* \"#utility.yul\":2689:2747   */\n      tag_80\n        /* \"#utility.yul\":2740:2746   */\n      dup4\n        /* \"#utility.yul\":2689:2747   */\n      tag_43\n      jump\t// in\n    tag_80:\n        /* \"#utility.yul\":2679:2747   */\n      swap3\n      pop\n        /* \"#utility.yul\":2535:2757   */\n      pop\n        /* \"#utility.yul\":2522:2523   */\n      0x01\n        /* \"#utility.yul\":2519:2520   */\n      dup2\n        /* \"#utility.yul\":2515:2524   */\n      add\n        /* \"#utility.yul\":2510:2524   */\n      swap1\n      pop\n        /* \"#utility.yul\":2475:2757   */\n      jump(tag_76)\n    tag_78:\n        /* \"#utility.yul\":2479:2493   */\n      pop\n        /* \"#utility.yul\":2182:2764   */\n      pop\n      pop\n      pop\n        /* \"#utility.yul\":2070:2764   */\n      pop\n      pop\n      jump\t// out\n        /* \"#utility.yul\":2770:3084   */\n    tag_10:\n        /* \"#utility.yul\":2909:2913   */\n      0x00\n        /* \"#utility.yul\":2947:2949   */\n      0x60\n        /* \"#utility.yul\":2936:2945   */\n      dup3\n        /* \"#utility.yul\":2932:2950   */\n      add\n        /* \"#utility.yul\":2924:2950   */\n      swap1\n      pop\n        /* \"#utility.yul\":2960:3077   */\n      tag_82\n        /* \"#utility.yul\":3074:3075   */\n      0x00\n        /* \"#utility.yul\":3063:3072   */\n      dup4\n        /* \"#utility.yul\":3059:3076   */\n      add\n        /* \"#utility.yul\":3050:3056   */\n      dup5\n        /* \"#utility.yul\":2960:3077   */\n      tag_44\n      jump\t// in\n    tag_82:\n        /* \"#utility.yul\":2770:3084   */\n      swap3\n      swap2\n      pop\n      pop\n      jump\t// out\n        /* \"#utility.yul\":3090:3212   */\n    tag_45:\n        /* \"#utility.yul\":3163:3187   */\n      tag_84\n        /* \"#utility.yul\":3181:3186   */\n      dup2\n        /* \"#utility.yul\":3163:3187   */\n      tag_40\n      jump\t// in\n    tag_84:\n        /* \"#utility.yul\":3156:3161   */\n      dup2\n        /* \"#utility.yul\":3153:3188   */\n      eq\n        /* \"#utility.yul\":3143:3206   */\n      tag_85\n      jumpi\n        /* \"#utility.yul\":3202:3203   */\n      0x00\n        /* \"#utility.yul\":3199:3200   */\n      dup1\n        /* \"#utility.yul\":3192:3204   */\n      revert\n        /* \"#utility.yul\":3143:3206   */\n    tag_85:\n        /* \"#utility.yul\":3090:3212   */\n      pop\n      jump\t// out\n        /* \"#utility.yul\":3218:3357   */\n    tag_46:\n        /* \"#utility.yul\":3264:3269   */\n      0x00\n        /* \"#utility.yul\":3302:3308   */\n      dup2\n        /* \"#utility.yul\":3289:3309   */\n      calldataload\n        /* \"#utility.yul\":3280:3309   */\n      swap1\n      pop\n        /* \"#utility.yul\":3318:3351   */\n      tag_87\n        /* \"#utility.yul\":3345:3350   */\n      dup2\n        /* \"#utility.yul\":3318:3351   */\n      tag_45\n      jump\t// in\n    tag_87:\n        /* \"#utility.yul\":3218:3357   */\n      swap3\n      swap2\n      pop\n      pop\n      jump\t// out\n        /* \"#utility.yul\":3363:4128   */\n    tag_13:\n        /* \"#utility.yul\":3449:3455   */\n      0x00\n        /* \"#utility.yul\":3457:3463   */\n      dup1\n        /* \"#utility.yul\":3465:3471   */\n      0x00\n        /* \"#utility.yul\":3473:3479   */\n      dup1\n        /* \"#utility.yul\":3522:3525   */\n      0x80\n        /* \"#utility.yul\":3510:3519   */\n      dup6\n        /* \"#utility.yul\":3501:3508   */\n      dup8\n        /* \"#utility.yul\":3497:3520   */\n      sub\n        /* \"#utility.yul\":3493:3526   */\n      slt\n        /* \"#utility.yul\":3490:3610   */\n      iszero\n      tag_89\n      jumpi\n        /* \"#utility.yul\":3529:3608   */\n      tag_90\n      tag_31\n      jump\t// in\n    tag_90:\n        /* \"#utility.yul\":3490:3610   */\n    tag_89:\n        /* \"#utility.yul\":3649:3650   */\n      0x00\n        /* \"#utility.yul\":3674:3727   */\n      tag_91\n        /* \"#utility.yul\":3719:3726   */\n      dup8\n        /* \"#utility.yul\":3710:3716   */\n      dup3\n        /* \"#utility.yul\":3699:3708   */\n      dup9\n        /* \"#utility.yul\":3695:3717   */\n      add\n        /* \"#utility.yul\":3674:3727   */\n      tag_36\n      jump\t// in\n    tag_91:\n        /* \"#utility.yul\":3664:3727   */\n      swap5\n      pop\n        /* \"#utility.yul\":3620:3737   */\n      pop\n        /* \"#utility.yul\":3776:3778   */\n      0x20\n        /* \"#utility.yul\":3802:3855   */\n      tag_92\n        /* \"#utility.yul\":3847:3854   */\n      dup8\n        /* \"#utility.yul\":3838:3844   */\n      dup3\n        /* \"#utility.yul\":3827:3836   */\n      dup9\n        /* \"#utility.yul\":3823:3845   */\n      add\n        /* \"#utility.yul\":3802:3855   */\n      tag_46\n      jump\t// in\n    tag_92:\n        /* \"#utility.yul\":3792:3855   */\n      swap4\n      pop\n        /* \"#utility.yul\":3747:3865   */\n      pop\n        /* \"#utility.yul\":3904:3906   */\n      0x40\n        /* \"#utility.yul\":3930:3983   */\n      tag_93\n        /* \"#utility.yul\":3975:3982   */\n      dup8\n        /* \"#utility.yul\":3966:3972   */\n      dup3\n        /* \"#utility.yul\":3955:3964   */\n      dup9\n        /* \"#utility.yul\":3951:3973   */\n      add\n        /* \"#utility.yul\":3930:3983   */\n      tag_46\n      jump\t// in\n    tag_93:\n        /* \"#utility.yul\":3920:3983   */\n      swap3\n      pop\n        /* \"#utility.yul\":3875:3993   */\n      pop\n        /* \"#utility.yul\":4032:4034   */\n      0x60\n        /* \"#utility.yul\":4058:4111   */\n      tag_94\n        /* \"#utility.yul\":4103:4110   */\n      dup8\n        /* \"#utility.yul\":4094:4100   */\n      dup3\n        /* \"#utility.yul\":4083:4092   */\n      dup9\n        /* \"#utility.yul\":4079:4101   */\n      add\n        /* \"#utility.yul\":4058:4111   */\n      tag_46\n      jump\t// in\n    tag_94:\n        /* \"#utility.yul\":4048:4111   */\n      swap2\n      pop\n        /* \"#utility.yul\":4003:4121   */\n      pop\n        /* \"#utility.yul\":3363:4128   */\n      swap3\n      swap6\n      swap2\n      swap5\n      pop\n      swap3\n      pop\n      jump\t// out\n\n    auxdata: 0xa26469706673582212201749587d487a8ad45e46d8a659c210b7a6602699ea2cb6d0cc1d73c558c6e50f64736f6c63430008120033\n}\n",
				"bytecode": {
					"linkReferences": {},
					"object": "608060405234801561001057600080fd5b5061042c806100206000396000f3fe608060405234801561001057600080fd5b50600436106100365760003560e01c80635bb5dbab1461003b578063caa987f51461006b575b600080fd5b61005560048036038101906100509190610266565b610087565b6040516100629190610348565b60405180910390f35b6100856004803603810190610080919061038f565b610116565b005b61008f610184565b60008060008473ffffffffffffffffffffffffffffffffffffffff1673ffffffffffffffffffffffffffffffffffffffff168152602001908152602001600020905080600380602002604051908101604052809291908260038015610109576020028201915b8154815260200190600101908083116100f5575b5050505050915050919050565b6040518060600160405280848152602001838152602001828152506000808673ffffffffffffffffffffffffffffffffffffffff1673ffffffffffffffffffffffffffffffffffffffff16815260200190815260200160002090600361017d9291906101a6565b5050505050565b6040518060600160405280600390602082028036833780820191505090505090565b82600381019282156101d5579160200282015b828111156101d45782518255916020019190600101906101b9565b5b5090506101e291906101e6565b5090565b5b808211156101ff5760008160009055506001016101e7565b5090565b600080fd5b600073ffffffffffffffffffffffffffffffffffffffff82169050919050565b600061023382610208565b9050919050565b61024381610228565b811461024e57600080fd5b50565b6000813590506102608161023a565b92915050565b60006020828403121561027c5761027b610203565b5b600061028a84828501610251565b91505092915050565b600060039050919050565b600081905092915050565b6000819050919050565b6000819050919050565b6102c6816102b3565b82525050565b60006102d883836102bd565b60208301905092915050565b6000602082019050919050565b6102fa81610293565b610304818461029e565b925061030f826102a9565b8060005b8381101561034057815161032787826102cc565b9650610332836102e4565b925050600181019050610313565b505050505050565b600060608201905061035d60008301846102f1565b92915050565b61036c816102b3565b811461037757600080fd5b50565b60008135905061038981610363565b92915050565b600080600080608085870312156103a9576103a8610203565b5b60006103b787828801610251565b94505060206103c88782880161037a565b93505060406103d98782880161037a565b92505060606103ea8782880161037a565b9150509295919450925056fea26469706673582212201749587d487a8ad45e46d8a659c210b7a6602699ea2cb6d0cc1d73c558c6e50f64736f6c63430008120033",
					"opcodes": "PUSH1 0x80 PUSH1 0x40 MSTORE CALLVALUE DUP1 ISZERO PUSH2 0x10 JUMPI PUSH1 0x0 DUP1 REVERT JUMPDEST POP PUSH2 0x42C DUP1 PUSH2 0x20 PUSH1 0x0 CODECOPY PUSH1 0x0 RETURN INVALID PUSH1 0x80 PUSH1 0x40 MSTORE CALLVALUE DUP1 ISZERO PUSH2 0x10 JUMPI PUSH1 0x0 DUP1 REVERT JUMPDEST POP PUSH1 0x4 CALLDATASIZE LT PUSH2 0x36 JUMPI PUSH1 0x0 CALLDATALOAD PUSH1 0xE0 SHR DUP1 PUSH4 0x5BB5DBAB EQ PUSH2 0x3B JUMPI DUP1 PUSH4 0xCAA987F5 EQ PUSH2 0x6B JUMPI JUMPDEST PUSH1 0x0 DUP1 REVERT JUMPDEST PUSH2 0x55 PUSH1 0x4 DUP1 CALLDATASIZE SUB DUP2 ADD SWAP1 PUSH2 0x50 SWAP2 SWAP1 PUSH2 0x266 JUMP JUMPDEST PUSH2 0x87 JUMP JUMPDEST PUSH1 0x40 MLOAD PUSH2 0x62 SWAP2 SWAP1 PUSH2 0x348 JUMP JUMPDEST PUSH1 0x40 MLOAD DUP1 SWAP2 SUB SWAP1 RETURN JUMPDEST PUSH2 0x85 PUSH1 0x4 DUP1 CALLDATASIZE SUB DUP2 ADD SWAP1 PUSH2 0x80 SWAP2 SWAP1 PUSH2 0x38F JUMP JUMPDEST PUSH2 0x116 JUMP JUMPDEST STOP JUMPDEST PUSH2 0x8F PUSH2 0x184 JUMP JUMPDEST PUSH1 0x0 DUP1 PUSH1 0x0 DUP5 PUSH20 0xFFFFFFFFFFFFFFFFFFFFFFFFFFFFFFFFFFFFFFFF AND PUSH20 0xFFFFFFFFFFFFFFFFFFFFFFFFFFFFFFFFFFFFFFFF AND DUP2 MSTORE PUSH1 0x20 ADD SWAP1 DUP2 MSTORE PUSH1 0x20 ADD PUSH1 0x0 KECCAK256 SWAP1 POP DUP1 PUSH1 0x3 DUP1 PUSH1 0x20 MUL PUSH1 0x40 MLOAD SWAP1 DUP2 ADD PUSH1 0x40 MSTORE DUP1 SWAP3 SWAP2 SWAP1 DUP3 PUSH1 0x3 DUP1 ISZERO PUSH2 0x109 JUMPI PUSH1 0x20 MUL DUP3 ADD SWAP2 JUMPDEST DUP2 SLOAD DUP2 MSTORE PUSH1 0x20 ADD SWAP1 PUSH1 0x1 ADD SWAP1 DUP1 DUP4 GT PUSH2 0xF5 JUMPI JUMPDEST POP POP POP POP POP SWAP2 POP POP SWAP2 SWAP1 POP JUMP JUMPDEST PUSH1 0x40 MLOAD DUP1 PUSH1 0x60 ADD PUSH1 0x40 MSTORE DUP1 DUP5 DUP2 MSTORE PUSH1 0x20 ADD DUP4 DUP2 MSTORE PUSH1 0x20 ADD DUP3 DUP2 MSTORE POP PUSH1 0x0 DUP1 DUP7 PUSH20 0xFFFFFFFFFFFFFFFFFFFFFFFFFFFFFFFFFFFFFFFF AND PUSH20 0xFFFFFFFFFFFFFFFFFFFFFFFFFFFFFFFFFFFFFFFF AND DUP2 MSTORE PUSH1 0x20 ADD SWAP1 DUP2 MSTORE PUSH1 0x20 ADD PUSH1 0x0 KECCAK256 SWAP1 PUSH1 0x3 PUSH2 0x17D SWAP3 SWAP2 SWAP1 PUSH2 0x1A6 JUMP JUMPDEST POP POP POP POP POP JUMP JUMPDEST PUSH1 0x40 MLOAD DUP1 PUSH1 0x60 ADD PUSH1 0x40 MSTORE DUP1 PUSH1 0x3 SWAP1 PUSH1 0x20 DUP3 MUL DUP1 CALLDATASIZE DUP4 CALLDATACOPY DUP1 DUP3 ADD SWAP2 POP POP SWAP1 POP POP SWAP1 JUMP JUMPDEST DUP3 PUSH1 0x3 DUP2 ADD SWAP3 DUP3 ISZERO PUSH2 0x1D5 JUMPI SWAP2 PUSH1 0x20 MUL DUP3 ADD JUMPDEST DUP3 DUP2 GT ISZERO PUSH2 0x1D4 JUMPI DUP3 MLOAD DUP3 SSTORE SWAP2 PUSH1 0x20 ADD SWAP2 SWAP1 PUSH1 0x1 ADD SWAP1 PUSH2 0x1B9 JUMP JUMPDEST JUMPDEST POP SWAP1 POP PUSH2 0x1E2 SWAP2 SWAP1 PUSH2 0x1E6 JUMP JUMPDEST POP SWAP1 JUMP JUMPDEST JUMPDEST DUP1 DUP3 GT ISZERO PUSH2 0x1FF JUMPI PUSH1 0x0 DUP2 PUSH1 0x0 SWAP1 SSTORE POP PUSH1 0x1 ADD PUSH2 0x1E7 JUMP JUMPDEST POP SWAP1 JUMP JUMPDEST PUSH1 0x0 DUP1 REVERT JUMPDEST PUSH1 0x0 PUSH20 0xFFFFFFFFFFFFFFFFFFFFFFFFFFFFFFFFFFFFFFFF DUP3 AND SWAP1 POP SWAP2 SWAP1 POP JUMP JUMPDEST PUSH1 0x0 PUSH2 0x233 DUP3 PUSH2 0x208 JUMP JUMPDEST SWAP1 POP SWAP2 SWAP1 POP JUMP JUMPDEST PUSH2 0x243 DUP2 PUSH2 0x228 JUMP JUMPDEST DUP2 EQ PUSH2 0x24E JUMPI PUSH1 0x0 DUP1 REVERT JUMPDEST POP JUMP JUMPDEST PUSH1 0x0 DUP2 CALLDATALOAD SWAP1 POP PUSH2 0x260 DUP2 PUSH2 0x23A JUMP JUMPDEST SWAP3 SWAP2 POP POP JUMP JUMPDEST PUSH1 0x0 PUSH1 0x20 DUP3 DUP5 SUB SLT ISZERO PUSH2 0x27C JUMPI PUSH2 0x27B PUSH2 0x203 JUMP JUMPDEST JUMPDEST PUSH1 0x0 PUSH2 0x28A DUP5 DUP3 DUP6 ADD PUSH2 0x251 JUMP JUMPDEST SWAP2 POP POP SWAP3 SWAP2 POP POP JUMP JUMPDEST PUSH1 0x0 PUSH1 0x3 SWAP1 POP SWAP2 SWAP1 POP JUMP JUMPDEST PUSH1 0x0 DUP2 SWAP1 POP SWAP3 SWAP2 POP POP JUMP JUMPDEST PUSH1 0x0 DUP2 SWAP1 POP SWAP2 SWAP1 POP JUMP JUMPDEST PUSH1 0x0 DUP2 SWAP1 POP SWAP2 SWAP1 POP JUMP JUMPDEST PUSH2 0x2C6 DUP2 PUSH2 0x2B3 JUMP JUMPDEST DUP3 MSTORE POP POP JUMP JUMPDEST PUSH1 0x0 PUSH2 0x2D8 DUP4 DUP4 PUSH2 0x2BD JUMP JUMPDEST PUSH1 0x20 DUP4 ADD SWAP1 POP SWAP3 SWAP2 POP POP JUMP JUMPDEST PUSH1 0x0 PUSH1 0x20 DUP3 ADD SWAP1 POP SWAP2 SWAP1 POP JUMP JUMPDEST PUSH2 0x2FA DUP2 PUSH2 0x293 JUMP JUMPDEST PUSH2 0x304 DUP2 DUP5 PUSH2 0x29E JUMP JUMPDEST SWAP3 POP PUSH2 0x30F DUP3 PUSH2 0x2A9 JUMP JUMPDEST DUP1 PUSH1 0x0 JUMPDEST DUP4 DUP2 LT ISZERO PUSH2 0x340 JUMPI DUP2 MLOAD PUSH2 0x327 DUP8 DUP3 PUSH2 0x2CC JUMP JUMPDEST SWAP7 POP PUSH2 0x332 DUP4 PUSH2 0x2E4 JUMP JUMPDEST SWAP3 POP POP PUSH1 0x1 DUP2 ADD SWAP1 POP PUSH2 0x313 JUMP JUMPDEST POP POP POP POP POP POP JUMP JUMPDEST PUSH1 0x0 PUSH1 0x60 DUP3 ADD SWAP1 POP PUSH2 0x35D PUSH1 0x0 DUP4 ADD DUP5 PUSH2 0x2F1 JUMP JUMPDEST SWAP3 SWAP2 POP POP JUMP JUMPDEST PUSH2 0x36C DUP2 PUSH2 0x2B3 JUMP JUMPDEST DUP2 EQ PUSH2 0x377 JUMPI PUSH1 0x0 DUP1 REVERT JUMPDEST POP JUMP JUMPDEST PUSH1 0x0 DUP2 CALLDATALOAD SWAP1 POP PUSH2 0x389 DUP2 PUSH2 0x363 JUMP JUMPDEST SWAP3 SWAP2 POP POP JUMP JUMPDEST PUSH1 0x0 DUP1 PUSH1 0x0 DUP1 PUSH1 0x80 DUP6 DUP8 SUB SLT ISZERO PUSH2 0x3A9 JUMPI PUSH2 0x3A8 PUSH2 0x203 JUMP JUMPDEST JUMPDEST PUSH1 0x0 PUSH2 0x3B7 DUP8 DUP3 DUP9 ADD PUSH2 0x251 JUMP JUMPDEST SWAP5 POP POP PUSH1 0x20 PUSH2 0x3C8 DUP8 DUP3 DUP9 ADD PUSH2 0x37A JUMP JUMPDEST SWAP4 POP POP PUSH1 0x40 PUSH2 0x3D9 DUP8 DUP3 DUP9 ADD PUSH2 0x37A JUMP JUMPDEST SWAP3 POP POP PUSH1 0x60 PUSH2 0x3EA DUP8 DUP3 DUP9 ADD PUSH2 0x37A JUMP JUMPDEST SWAP2 POP POP SWAP3 SWAP6 SWAP2 SWAP5 POP SWAP3 POP JUMP INVALID LOG2 PUSH5 0x6970667358 0x22 SLT KECCAK256 OR 0x49 PC PUSH30 0x487A8AD45E46D8A659C210B7A6602699EA2CB6D0CC1D73C558C6E50F6473 PUSH16 0x6C634300081200330000000000000000 "
				},
				"gasEstimates": {
					"creation": {
						"codeDepositCost": "213600",
						"executionCost": "257",
						"totalCost": "213857"
					},
					"external": {
						"enterMarks(address,uint256,uint256,uint256)": "infinite",
						"returnMarks(address)": "infinite"
					}
				},
				"methodIdentifiers": {
					"enterMarks(address,uint256,uint256,uint256)": "caa987f5",
					"returnMarks(address)": "5bb5dbab"
				}
			},
			"storageLayout": {
				"storage": [
					{
						"astId": 305,
						"contract": "solidity_advance_assignment.sol:MappingMarks",
						"label": "marks",
						"offset": 0,
						"slot": "0",
						"type": "t_mapping(t_address,t_array(t_uint256)3_storage)"
					}
				],
				"types": {
					"t_address": {
						"encoding": "inplace",
						"label": "address",
						"numberOfBytes": "20"
					},
					"t_array(t_uint256)3_storage": {
						"base": "t_uint256",
						"encoding": "inplace",
						"label": "uint256[3]",
						"numberOfBytes": "96"
					},
					"t_mapping(t_address,t_array(t_uint256)3_storage)": {
						"encoding": "mapping",
						"key": "t_address",
						"label": "mapping(address => uint256[3])",
						"numberOfBytes": "32",
						"value": "t_array(t_uint256)3_storage"
					},
					"t_uint256": {
						"encoding": "inplace",
						"label": "uint256",
						"numberOfBytes": "32"
					}
				}
			},
			"userdoc": {
				"kind": "user",
				"methods": {},
				"version": 1
			}
		}
	}
}