{
	"solidity_advance_assignment.sol": {
		"InsertAtLocation": {
			"abi": [
				{
					"inputs": [
						{
							"internalType": "uint256",
							"name": "element",
							"type": "uint256"
						},
						{
							"internalType": "uint256",
							"name": "location",
							"type": "uint256"
						}
					],
					"name": "insertValue",
					"outputs": [
						{
							"internalType": "uint256[3]",
							"name": "",
							"type": "uint256[3]"
						}
					],
					"stateMutability": "pure",
					"type": "function"
				}
			],
			"devdoc": {
				"kind": "dev",
				"methods": {},
				"version": 1
			},
			"evm": {
				"assembly": "    /* \"solidity_advance_assignment.sol\":1560:1772  contract InsertAtLocation{... */\n  mstore(0x40, 0x80)\n  callvalue\n  dup1\n  iszero\n  tag_1\n  jumpi\n  0x00\n  dup1\n  revert\ntag_1:\n  pop\n  dataSize(sub_0)\n  dup1\n  dataOffset(sub_0)\n  0x00\n  codecopy\n  0x00\n  return\nstop\n\nsub_0: assembly {\n        /* \"solidity_advance_assignment.sol\":1560:1772  contract InsertAtLocation{... */\n      mstore(0x40, 0x80)\n      callvalue\n      dup1\n      iszero\n      tag_1\n      jumpi\n      0x00\n      dup1\n      revert\n    tag_1:\n      pop\n      jumpi(tag_2, lt(calldatasize, 0x04))\n      shr(0xe0, calldataload(0x00))\n      dup1\n      0x4b98d83a\n      eq\n      tag_3\n      jumpi\n    tag_2:\n      0x00\n      dup1\n      revert\n        /* \"solidity_advance_assignment.sol\":1592:1769  function insertValue(uint element, uint location) public pure returns(uint[3] memory){... */\n    tag_3:\n      tag_4\n      0x04\n      dup1\n      calldatasize\n      sub\n      dup2\n      add\n      swap1\n      tag_5\n      swap2\n      swap1\n      tag_6\n      jump\t// in\n    tag_5:\n      tag_7\n      jump\t// in\n    tag_4:\n      mload(0x40)\n      tag_8\n      swap2\n      swap1\n      tag_9\n      jump\t// in\n    tag_8:\n      mload(0x40)\n      dup1\n      swap2\n      sub\n      swap1\n      return\n    tag_7:\n        /* \"solidity_advance_assignment.sol\":1662:1676  uint[3] memory */\n      tag_10\n      tag_11\n      jump\t// in\n    tag_10:\n        /* \"solidity_advance_assignment.sol\":1688:1706  uint[3] memory arr */\n      tag_13\n      tag_11\n      jump\t// in\n    tag_13:\n        /* \"solidity_advance_assignment.sol\":1733:1740  element */\n      dup4\n        /* \"solidity_advance_assignment.sol\":1717:1720  arr */\n      dup2\n        /* \"solidity_advance_assignment.sol\":1721:1729  location */\n      dup5\n        /* \"solidity_advance_assignment.sol\":1717:1730  arr[location] */\n      0x03\n      dup2\n      lt\n      tag_14\n      jumpi\n      tag_15\n      tag_16\n      jump\t// in\n    tag_15:\n    tag_14:\n      0x20\n      mul\n      add\n        /* \"solidity_advance_assignment.sol\":1717:1740  arr[location] = element */\n      dup2\n      dup2\n      mstore\n      pop\n      pop\n        /* \"solidity_advance_assignment.sol\":1758:1761  arr */\n      dup1\n        /* \"solidity_advance_assignment.sol\":1751:1761  return arr */\n      swap2\n      pop\n      pop\n        /* \"solidity_advance_assignment.sol\":1592:1769  function insertValue(uint element, uint location) public pure returns(uint[3] memory){... */\n      swap3\n      swap2\n      pop\n      pop\n      jump\t// out\n    tag_11:\n      mload(0x40)\n      dup1\n      0x60\n      add\n      0x40\n      mstore\n      dup1\n      0x03\n      swap1\n      0x20\n      dup3\n      mul\n      dup1\n      calldatasize\n      dup4\n      calldatacopy\n      dup1\n      dup3\n      add\n      swap2\n      pop\n      pop\n      swap1\n      pop\n      pop\n      swap1\n      jump\t// out\n        /* \"#utility.yul\":88:205   */\n    tag_18:\n        /* \"#utility.yul\":197:198   */\n      0x00\n        /* \"#utility.yul\":194:195   */\n      dup1\n        /* \"#utility.yul\":187:199   */\n      revert\n        /* \"#utility.yul\":334:411   */\n    tag_20:\n        /* \"#utility.yul\":371:378   */\n      0x00\n        /* \"#utility.yul\":400:405   */\n      dup2\n        /* \"#utility.yul\":389:405   */\n      swap1\n      pop\n        /* \"#utility.yul\":334:411   */\n      swap2\n      swap1\n      pop\n      jump\t// out\n        /* \"#utility.yul\":417:539   */\n    tag_21:\n        /* \"#utility.yul\":490:514   */\n      tag_36\n        /* \"#utility.yul\":508:513   */\n      dup2\n        /* \"#utility.yul\":490:514   */\n      tag_20\n      jump\t// in\n    tag_36:\n        /* \"#utility.yul\":483:488   */\n      dup2\n        /* \"#utility.yul\":480:515   */\n      eq\n        /* \"#utility.yul\":470:533   */\n      tag_37\n      jumpi\n        /* \"#utility.yul\":529:530   */\n      0x00\n        /* \"#utility.yul\":526:527   */\n      dup1\n        /* \"#utility.yul\":519:531   */\n      revert\n        /* \"#utility.yul\":470:533   */\n    tag_37:\n        /* \"#utility.yul\":417:539   */\n      pop\n      jump\t// out\n        /* \"#utility.yul\":545:684   */\n    tag_22:\n        /* \"#utility.yul\":591:596   */\n      0x00\n        /* \"#utility.yul\":629:635   */\n      dup2\n        /* \"#utility.yul\":616:636   */\n      calldataload\n        /* \"#utility.yul\":607:636   */\n      swap1\n      pop\n        /* \"#utility.yul\":645:678   */\n      tag_39\n        /* \"#utility.yul\":672:677   */\n      dup2\n        /* \"#utility.yul\":645:678   */\n      tag_21\n      jump\t// in\n    tag_39:\n        /* \"#utility.yul\":545:684   */\n      swap3\n      swap2\n      pop\n      pop\n      jump\t// out\n        /* \"#utility.yul\":690:1164   */\n    tag_6:\n        /* \"#utility.yul\":758:764   */\n      0x00\n        /* \"#utility.yul\":766:772   */\n      dup1\n        /* \"#utility.yul\":815:817   */\n      0x40\n        /* \"#utility.yul\":803:812   */\n      dup4\n        /* \"#utility.yul\":794:801   */\n      dup6\n        /* \"#utility.yul\":790:813   */\n      sub\n        /* \"#utility.yul\":786:818   */\n      slt\n        /* \"#utility.yul\":783:902   */\n      iszero\n      tag_41\n      jumpi\n        /* \"#utility.yul\":821:900   */\n      tag_42\n      tag_18\n      jump\t// in\n    tag_42:\n        /* \"#utility.yul\":783:902   */\n    tag_41:\n        /* \"#utility.yul\":941:942   */\n      0x00\n        /* \"#utility.yul\":966:1019   */\n      tag_43\n        /* \"#utility.yul\":1011:1018   */\n      dup6\n        /* \"#utility.yul\":1002:1008   */\n      dup3\n        /* \"#utility.yul\":991:1000   */\n      dup7\n        /* \"#utility.yul\":987:1009   */\n      add\n        /* \"#utility.yul\":966:1019   */\n      tag_22\n      jump\t// in\n    tag_43:\n        /* \"#utility.yul\":956:1019   */\n      swap3\n      pop\n        /* \"#utility.yul\":912:1029   */\n      pop\n        /* \"#utility.yul\":1068:1070   */\n      0x20\n        /* \"#utility.yul\":1094:1147   */\n      tag_44\n        /* \"#utility.yul\":1139:1146   */\n      dup6\n        /* \"#utility.yul\":1130:1136   */\n      dup3\n        /* \"#utility.yul\":1119:1128   */\n      dup7\n        /* \"#utility.yul\":1115:1137   */\n      add\n        /* \"#utility.yul\":1094:1147   */\n      tag_22\n      jump\t// in\n    tag_44:\n        /* \"#utility.yul\":1084:1147   */\n      swap2\n      pop\n        /* \"#utility.yul\":1039:1157   */\n      pop\n        /* \"#utility.yul\":690:1164   */\n      swap3\n      pop\n      swap3\n      swap1\n      pop\n      jump\t// out\n        /* \"#utility.yul\":1170:1274   */\n    tag_23:\n        /* \"#utility.yul\":1235:1241   */\n      0x00\n        /* \"#utility.yul\":1263:1267   */\n      0x03\n        /* \"#utility.yul\":1253:1267   */\n      swap1\n      pop\n        /* \"#utility.yul\":1170:1274   */\n      swap2\n      swap1\n      pop\n      jump\t// out\n        /* \"#utility.yul\":1280:1423   */\n    tag_24:\n        /* \"#utility.yul\":1377:1388   */\n      0x00\n        /* \"#utility.yul\":1414:1417   */\n      dup2\n        /* \"#utility.yul\":1399:1417   */\n      swap1\n      pop\n        /* \"#utility.yul\":1280:1423   */\n      swap3\n      swap2\n      pop\n      pop\n      jump\t// out\n        /* \"#utility.yul\":1429:1527   */\n    tag_25:\n        /* \"#utility.yul\":1494:1498   */\n      0x00\n        /* \"#utility.yul\":1517:1520   */\n      dup2\n        /* \"#utility.yul\":1509:1520   */\n      swap1\n      pop\n        /* \"#utility.yul\":1429:1527   */\n      swap2\n      swap1\n      pop\n      jump\t// out\n        /* \"#utility.yul\":1533:1641   */\n    tag_26:\n        /* \"#utility.yul\":1610:1634   */\n      tag_49\n        /* \"#utility.yul\":1628:1633   */\n      dup2\n        /* \"#utility.yul\":1610:1634   */\n      tag_20\n      jump\t// in\n    tag_49:\n        /* \"#utility.yul\":1605:1608   */\n      dup3\n        /* \"#utility.yul\":1598:1635   */\n      mstore\n        /* \"#utility.yul\":1533:1641   */\n      pop\n      pop\n      jump\t// out\n        /* \"#utility.yul\":1647:1826   */\n    tag_27:\n        /* \"#utility.yul\":1716:1726   */\n      0x00\n        /* \"#utility.yul\":1737:1783   */\n      tag_51\n        /* \"#utility.yul\":1779:1782   */\n      dup4\n        /* \"#utility.yul\":1771:1777   */\n      dup4\n        /* \"#utility.yul\":1737:1783   */\n      tag_26\n      jump\t// in\n    tag_51:\n        /* \"#utility.yul\":1815:1819   */\n      0x20\n        /* \"#utility.yul\":1810:1813   */\n      dup4\n        /* \"#utility.yul\":1806:1820   */\n      add\n        /* \"#utility.yul\":1792:1820   */\n      swap1\n      pop\n        /* \"#utility.yul\":1647:1826   */\n      swap3\n      swap2\n      pop\n      pop\n      jump\t// out\n        /* \"#utility.yul\":1832:1943   */\n    tag_28:\n        /* \"#utility.yul\":1900:1904   */\n      0x00\n        /* \"#utility.yul\":1932:1936   */\n      0x20\n        /* \"#utility.yul\":1927:1930   */\n      dup3\n        /* \"#utility.yul\":1923:1937   */\n      add\n        /* \"#utility.yul\":1915:1937   */\n      swap1\n      pop\n        /* \"#utility.yul\":1832:1943   */\n      swap2\n      swap1\n      pop\n      jump\t// out\n        /* \"#utility.yul\":1981:2675   */\n    tag_29:\n        /* \"#utility.yul\":2117:2169   */\n      tag_54\n        /* \"#utility.yul\":2163:2168   */\n      dup2\n        /* \"#utility.yul\":2117:2169   */\n      tag_23\n      jump\t// in\n    tag_54:\n        /* \"#utility.yul\":2185:2269   */\n      tag_55\n        /* \"#utility.yul\":2262:2268   */\n      dup2\n        /* \"#utility.yul\":2257:2260   */\n      dup5\n        /* \"#utility.yul\":2185:2269   */\n      tag_24\n      jump\t// in\n    tag_55:\n        /* \"#utility.yul\":2178:2269   */\n      swap3\n      pop\n        /* \"#utility.yul\":2293:2347   */\n      tag_56\n        /* \"#utility.yul\":2341:2346   */\n      dup3\n        /* \"#utility.yul\":2293:2347   */\n      tag_25\n      jump\t// in\n    tag_56:\n        /* \"#utility.yul\":2370:2377   */\n      dup1\n        /* \"#utility.yul\":2401:2402   */\n      0x00\n        /* \"#utility.yul\":2386:2668   */\n    tag_57:\n        /* \"#utility.yul\":2411:2417   */\n      dup4\n        /* \"#utility.yul\":2408:2409   */\n      dup2\n        /* \"#utility.yul\":2405:2418   */\n      lt\n        /* \"#utility.yul\":2386:2668   */\n      iszero\n      tag_59\n      jumpi\n        /* \"#utility.yul\":2487:2493   */\n      dup2\n        /* \"#utility.yul\":2481:2494   */\n      mload\n        /* \"#utility.yul\":2514:2577   */\n      tag_60\n        /* \"#utility.yul\":2573:2576   */\n      dup8\n        /* \"#utility.yul\":2558:2571   */\n      dup3\n        /* \"#utility.yul\":2514:2577   */\n      tag_27\n      jump\t// in\n    tag_60:\n        /* \"#utility.yul\":2507:2577   */\n      swap7\n      pop\n        /* \"#utility.yul\":2600:2658   */\n      tag_61\n        /* \"#utility.yul\":2651:2657   */\n      dup4\n        /* \"#utility.yul\":2600:2658   */\n      tag_28\n      jump\t// in\n    tag_61:\n        /* \"#utility.yul\":2590:2658   */\n      swap3\n      pop\n        /* \"#utility.yul\":2446:2668   */\n      pop\n        /* \"#utility.yul\":2433:2434   */\n      0x01\n        /* \"#utility.yul\":2430:2431   */\n      dup2\n        /* \"#utility.yul\":2426:2435   */\n      add\n        /* \"#utility.yul\":2421:2435   */\n      swap1\n      pop\n        /* \"#utility.yul\":2386:2668   */\n      jump(tag_57)\n    tag_59:\n        /* \"#utility.yul\":2390:2404   */\n      pop\n        /* \"#utility.yul\":2093:2675   */\n      pop\n      pop\n      pop\n        /* \"#utility.yul\":1981:2675   */\n      pop\n      pop\n      jump\t// out\n        /* \"#utility.yul\":2681:2995   */\n    tag_9:\n        /* \"#utility.yul\":2820:2824   */\n      0x00\n        /* \"#utility.yul\":2858:2860   */\n      0x60\n        /* \"#utility.yul\":2847:2856   */\n      dup3\n        /* \"#utility.yul\":2843:2861   */\n      add\n        /* \"#utility.yul\":2835:2861   */\n      swap1\n      pop\n        /* \"#utility.yul\":2871:2988   */\n      tag_63\n        /* \"#utility.yul\":2985:2986   */\n      0x00\n        /* \"#utility.yul\":2974:2983   */\n      dup4\n        /* \"#utility.yul\":2970:2987   */\n      add\n        /* \"#utility.yul\":2961:2967   */\n      dup5\n        /* \"#utility.yul\":2871:2988   */\n      tag_29\n      jump\t// in\n    tag_63:\n        /* \"#utility.yul\":2681:2995   */\n      swap3\n      swap2\n      pop\n      pop\n      jump\t// out\n        /* \"#utility.yul\":3001:3181   */\n    tag_16:\n        /* \"#utility.yul\":3049:3126   */\n      0x4e487b7100000000000000000000000000000000000000000000000000000000\n        /* \"#utility.yul\":3046:3047   */\n      0x00\n        /* \"#utility.yul\":3039:3127   */\n      mstore\n        /* \"#utility.yul\":3146:3150   */\n      0x32\n        /* \"#utility.yul\":3143:3144   */\n      0x04\n        /* \"#utility.yul\":3136:3151   */\n      mstore\n        /* \"#utility.yul\":3170:3174   */\n      0x24\n        /* \"#utility.yul\":3167:3168   */\n      0x00\n        /* \"#utility.yul\":3160:3175   */\n      revert\n\n    auxdata: 0xa2646970667358221220f2b5b972fdd78a86c2e5e04aeb545d834c0c0a6b17c211045541ba5acbc7917064736f6c63430008120033\n}\n",
				"bytecode": {
					"linkReferences": {},
					"object": "608060405234801561001057600080fd5b5061025f806100206000396000f3fe608060405234801561001057600080fd5b506004361061002b5760003560e01c80634b98d83a14610030575b600080fd5b61004a600480360381019061004591906100f4565b610060565b60405161005791906101df565b60405180910390f35b610068610097565b610070610097565b83818460038110610084576100836101fa565b5b6020020181815250508091505092915050565b6040518060600160405280600390602082028036833780820191505090505090565b600080fd5b6000819050919050565b6100d1816100be565b81146100dc57600080fd5b50565b6000813590506100ee816100c8565b92915050565b6000806040838503121561010b5761010a6100b9565b5b6000610119858286016100df565b925050602061012a858286016100df565b9150509250929050565b600060039050919050565b600081905092915050565b6000819050919050565b61015d816100be565b82525050565b600061016f8383610154565b60208301905092915050565b6000602082019050919050565b61019181610134565b61019b818461013f565b92506101a68261014a565b8060005b838110156101d75781516101be8782610163565b96506101c98361017b565b9250506001810190506101aa565b505050505050565b60006060820190506101f46000830184610188565b92915050565b7f4e487b7100000000000000000000000000000000000000000000000000000000600052603260045260246000fdfea2646970667358221220f2b5b972fdd78a86c2e5e04aeb545d834c0c0a6b17c211045541ba5acbc7917064736f6c63430008120033",
					"opcodes": "PUSH1 0x80 PUSH1 0x40 MSTORE CALLVALUE DUP1 ISZERO PUSH2 0x10 JUMPI PUSH1 0x0 DUP1 REVERT JUMPDEST POP PUSH2 0x25F DUP1 PUSH2 0x20 PUSH1 0x0 CODECOPY PUSH1 0x0 RETURN INVALID PUSH1 0x80 PUSH1 0x40 MSTORE CALLVALUE DUP1 ISZERO PUSH2 0x10 JUMPI PUSH1 0x0 DUP1 REVERT JUMPDEST POP PUSH1 0x4 CALLDATASIZE LT PUSH2 0x2B JUMPI PUSH1 0x0 CALLDATALOAD PUSH1 0xE0 SHR DUP1 PUSH4 0x4B98D83A EQ PUSH2 0x30 JUMPI JUMPDEST PUSH1 0x0 DUP1 REVERT JUMPDEST PUSH2 0x4A PUSH1 0x4 DUP1 CALLDATASIZE SUB DUP2 ADD SWAP1 PUSH2 0x45 SWAP2 SWAP1 PUSH2 0xF4 JUMP JUMPDEST PUSH2 0x60 JUMP JUMPDEST PUSH1 0x40 MLOAD PUSH2 0x57 SWAP2 SWAP1 PUSH2 0x1DF JUMP JUMPDEST PUSH1 0x40 MLOAD DUP1 SWAP2 SUB SWAP1 RETURN JUMPDEST PUSH2 0x68 PUSH2 0x97 JUMP JUMPDEST PUSH2 0x70 PUSH2 0x97 JUMP JUMPDEST DUP4 DUP2 DUP5 PUSH1 0x3 DUP2 LT PUSH2 0x84 JUMPI PUSH2 0x83 PUSH2 0x1FA JUMP JUMPDEST JUMPDEST PUSH1 0x20 MUL ADD DUP2 DUP2 MSTORE POP POP DUP1 SWAP2 POP POP SWAP3 SWAP2 POP POP JUMP JUMPDEST PUSH1 0x40 MLOAD DUP1 PUSH1 0x60 ADD PUSH1 0x40 MSTORE DUP1 PUSH1 0x3 SWAP1 PUSH1 0x20 DUP3 MUL DUP1 CALLDATASIZE DUP4 CALLDATACOPY DUP1 DUP3 ADD SWAP2 POP POP SWAP1 POP POP SWAP1 JUMP JUMPDEST PUSH1 0x0 DUP1 REVERT JUMPDEST PUSH1 0x0 DUP2 SWAP1 POP SWAP2 SWAP1 POP JUMP JUMPDEST PUSH2 0xD1 DUP2 PUSH2 0xBE JUMP JUMPDEST DUP2 EQ PUSH2 0xDC JUMPI PUSH1 0x0 DUP1 REVERT JUMPDEST POP JUMP JUMPDEST PUSH1 0x0 DUP2 CALLDATALOAD SWAP1 POP PUSH2 0xEE DUP2 PUSH2 0xC8 JUMP JUMPDEST SWAP3 SWAP2 POP POP JUMP JUMPDEST PUSH1 0x0 DUP1 PUSH1 0x40 DUP4 DUP6 SUB SLT ISZERO PUSH2 0x10B JUMPI PUSH2 0x10A PUSH2 0xB9 JUMP JUMPDEST JUMPDEST PUSH1 0x0 PUSH2 0x119 DUP6 DUP3 DUP7 ADD PUSH2 0xDF JUMP JUMPDEST SWAP3 POP POP PUSH1 0x20 PUSH2 0x12A DUP6 DUP3 DUP7 ADD PUSH2 0xDF JUMP JUMPDEST SWAP2 POP POP SWAP3 POP SWAP3 SWAP1 POP JUMP JUMPDEST PUSH1 0x0 PUSH1 0x3 SWAP1 POP SWAP2 SWAP1 POP JUMP JUMPDEST PUSH1 0x0 DUP2 SWAP1 POP SWAP3 SWAP2 POP POP JUMP JUMPDEST PUSH1 0x0 DUP2 SWAP1 POP SWAP2 SWAP1 POP JUMP JUMPDEST PUSH2 0x15D DUP2 PUSH2 0xBE JUMP JUMPDEST DUP3 MSTORE POP POP JUMP JUMPDEST PUSH1 0x0 PUSH2 0x16F DUP4 DUP4 PUSH2 0x154 JUMP JUMPDEST PUSH1 0x20 DUP4 ADD SWAP1 POP SWAP3 SWAP2 POP POP JUMP JUMPDEST PUSH1 0x0 PUSH1 0x20 DUP3 ADD SWAP1 POP SWAP2 SWAP1 POP JUMP JUMPDEST PUSH2 0x191 DUP2 PUSH2 0x134 JUMP JUMPDEST PUSH2 0x19B DUP2 DUP5 PUSH2 0x13F JUMP JUMPDEST SWAP3 POP PUSH2 0x1A6 DUP3 PUSH2 0x14A JUMP JUMPDEST DUP1 PUSH1 0x0 JUMPDEST DUP4 DUP2 LT ISZERO PUSH2 0x1D7 JUMPI DUP2 MLOAD PUSH2 0x1BE DUP8 DUP3 PUSH2 0x163 JUMP JUMPDEST SWAP7 POP PUSH2 0x1C9 DUP4 PUSH2 0x17B JUMP JUMPDEST SWAP3 POP POP PUSH1 0x1 DUP2 ADD SWAP1 POP PUSH2 0x1AA JUMP JUMPDEST POP POP POP POP POP POP JUMP JUMPDEST PUSH1 0x0 PUSH1 0x60 DUP3 ADD SWAP1 POP PUSH2 0x1F4 PUSH1 0x0 DUP4 ADD DUP5 PUSH2 0x188 JUMP JUMPDEST SWAP3 SWAP2 POP POP JUMP JUMPDEST PUSH32 0x4E487B7100000000000000000000000000000000000000000000000000000000 PUSH1 0x0 MSTORE PUSH1 0x32 PUSH1 0x4 MSTORE PUSH1 0x24 PUSH1 0x0 REVERT INVALID LOG2 PUSH5 0x6970667358 0x22 SLT KECCAK256 CALLCODE 0xB5 0xB9 PUSH19 0xFDD78A86C2E5E04AEB545D834C0C0A6B17C211 DIV SSTORE COINBASE 0xBA GAS 0xCB 0xC7 SWAP2 PUSH17 0x64736F6C63430008120033000000000000 "
				},
				"gasEstimates": {
					"creation": {
						"codeDepositCost": "121400",
						"executionCost": "165",
						"totalCost": "121565"
					},
					"external": {
						"insertValue(uint256,uint256)": "infinite"
					}
				},
				"methodIdentifiers": {
					"insertValue(uint256,uint256)": "4b98d83a"
				}
			},
			"storageLayout": {
				"storage": [],
				"types": null
			},
			"userdoc": {
				"kind": "user",
				"methods": {},
				"version": 1
			}
		}
	}
}