{
	"solidity_advance_assignment.sol": {
		"multipleStudentDetails": {
			"abi": [
				{
					"inputs": [],
					"name": "getDetails",
					"outputs": [
						{
							"components": [
								{
									"internalType": "string",
									"name": "name",
									"type": "string"
								},
								{
									"internalType": "uint256",
									"name": "rollNO",
									"type": "uint256"
								},
								{
									"internalType": "uint256",
									"name": "age",
									"type": "uint256"
								}
							],
							"internalType": "struct student[]",
							"name": "",
							"type": "tuple[]"
						}
					],
					"stateMutability": "view",
					"type": "function"
				},
				{
					"inputs": [
						{
							"internalType": "string",
							"name": "_name",
							"type": "string"
						},
						{
							"internalType": "uint256",
							"name": "_rollNo",
							"type": "uint256"
						},
						{
							"internalType": "uint256",
							"name": "_age",
							"type": "uint256"
						}
					],
					"name": "insertDetails",
					"outputs": [],
					"stateMutability": "nonpayable",
					"type": "function"
				}
			],
			"devdoc": {
				"kind": "dev",
				"methods": {},
				"version": 1
			},
			"evm": {
				"assembly": "    /* \"solidity_advance_assignment.sol\":2130:2415  contract multipleStudentDetails{... */\n  mstore(0x40, 0x80)\n  callvalue\n  dup1\n  iszero\n  tag_1\n  jumpi\n  0x00\n  dup1\n  revert\ntag_1:\n  pop\n  dataSize(sub_0)\n  dup1\n  dataOffset(sub_0)\n  0x00\n  codecopy\n  0x00\n  return\nstop\n\nsub_0: assembly {\n        /* \"solidity_advance_assignment.sol\":2130:2415  contract multipleStudentDetails{... */\n      mstore(0x40, 0x80)\n      callvalue\n      dup1\n      iszero\n      tag_1\n      jumpi\n      0x00\n      dup1\n      revert\n    tag_1:\n      pop\n      jumpi(tag_2, lt(calldatasize, 0x04))\n      shr(0xe0, calldataload(0x00))\n      dup1\n      0xa27c794b\n      eq\n      tag_3\n      jumpi\n      dup1\n      0xfbbf93a0\n      eq\n      tag_4\n      jumpi\n    tag_2:\n      0x00\n      dup1\n      revert\n        /* \"solidity_advance_assignment.sol\":2186:2320  function insertDetails(string calldata _name, uint _rollNo, uint _age) public {... */\n    tag_3:\n      tag_5\n      0x04\n      dup1\n      calldatasize\n      sub\n      dup2\n      add\n      swap1\n      tag_6\n      swap2\n      swap1\n      tag_7\n      jump\t// in\n    tag_6:\n      tag_8\n      jump\t// in\n    tag_5:\n      stop\n        /* \"solidity_advance_assignment.sol\":2326:2412  function getDetails() public view returns(student[] memory){... */\n    tag_4:\n      tag_9\n      tag_10\n      jump\t// in\n    tag_9:\n      mload(0x40)\n      tag_11\n      swap2\n      swap1\n      tag_12\n      jump\t// in\n    tag_11:\n      mload(0x40)\n      dup1\n      swap2\n      sub\n      swap1\n      return\n        /* \"solidity_advance_assignment.sol\":2186:2320  function insertDetails(string calldata _name, uint _rollNo, uint _age) public {... */\n    tag_8:\n        /* \"solidity_advance_assignment.sol\":2275:2276  s */\n      0x00\n        /* \"solidity_advance_assignment.sol\":2282:2311  student(_name, _rollNo, _age) */\n      mload(0x40)\n      dup1\n      0x60\n      add\n      0x40\n      mstore\n      dup1\n        /* \"solidity_advance_assignment.sol\":2290:2295  _name */\n      dup7\n      dup7\n        /* \"solidity_advance_assignment.sol\":2282:2311  student(_name, _rollNo, _age) */\n      dup1\n      dup1\n      0x1f\n      add\n      0x20\n      dup1\n      swap2\n      div\n      mul\n      0x20\n      add\n      mload(0x40)\n      swap1\n      dup2\n      add\n      0x40\n      mstore\n      dup1\n      swap4\n      swap3\n      swap2\n      swap1\n      dup2\n      dup2\n      mstore\n      0x20\n      add\n      dup4\n      dup4\n      dup1\n      dup3\n      dup5\n      calldatacopy\n      0x00\n      dup2\n      dup5\n      add\n      mstore\n      not(0x1f)\n      0x1f\n      dup3\n      add\n      and\n      swap1\n      pop\n      dup1\n      dup4\n      add\n      swap3\n      pop\n      pop\n      pop\n      pop\n      pop\n      pop\n      pop\n      dup2\n      mstore\n      0x20\n      add\n        /* \"solidity_advance_assignment.sol\":2297:2304  _rollNo */\n      dup5\n        /* \"solidity_advance_assignment.sol\":2282:2311  student(_name, _rollNo, _age) */\n      dup2\n      mstore\n      0x20\n      add\n        /* \"solidity_advance_assignment.sol\":2306:2310  _age */\n      dup4\n        /* \"solidity_advance_assignment.sol\":2282:2311  student(_name, _rollNo, _age) */\n      dup2\n      mstore\n      pop\n        /* \"solidity_advance_assignment.sol\":2275:2312  s.push(student(_name, _rollNo, _age)) */\n      swap1\n      dup1\n      0x01\n      dup2\n      sload\n      add\n      dup1\n      dup3\n      sstore\n      dup1\n      swap2\n      pop\n      pop\n      0x01\n      swap1\n      sub\n      swap1\n      0x00\n      mstore\n      keccak256(0x00, 0x20)\n      swap1\n      0x03\n      mul\n      add\n      0x00\n      swap1\n      swap2\n      swap1\n      swap2\n      swap1\n      swap2\n      pop\n      0x00\n      dup3\n      add\n      mload\n      dup2\n      0x00\n      add\n      swap1\n      dup2\n      tag_15\n      swap2\n      swap1\n      tag_16\n      jump\t// in\n    tag_15:\n      pop\n      0x20\n      dup3\n      add\n      mload\n      dup2\n      0x01\n      add\n      sstore\n      0x40\n      dup3\n      add\n      mload\n      dup2\n      0x02\n      add\n      sstore\n      pop\n      pop\n        /* \"solidity_advance_assignment.sol\":2186:2320  function insertDetails(string calldata _name, uint _rollNo, uint _age) public {... */\n      pop\n      pop\n      pop\n      pop\n      jump\t// out\n        /* \"solidity_advance_assignment.sol\":2326:2412  function getDetails() public view returns(student[] memory){... */\n    tag_10:\n        /* \"solidity_advance_assignment.sol\":2368:2384  student[] memory */\n      0x60\n        /* \"solidity_advance_assignment.sol\":2403:2404  s */\n      0x00\n        /* \"solidity_advance_assignment.sol\":2396:2404  return s */\n      dup1\n      sload\n      dup1\n      0x20\n      mul\n      0x20\n      add\n      mload(0x40)\n      swap1\n      dup2\n      add\n      0x40\n      mstore\n      dup1\n      swap3\n      swap2\n      swap1\n      dup2\n      dup2\n      mstore\n      0x20\n      add\n      0x00\n      swap1\n    tag_18:\n      dup3\n      dup3\n      lt\n      iszero\n      tag_19\n      jumpi\n      dup4\n      dup3\n      swap1\n      0x00\n      mstore\n      keccak256(0x00, 0x20)\n      swap1\n      0x03\n      mul\n      add\n      mload(0x40)\n      dup1\n      0x60\n      add\n      0x40\n      mstore\n      swap1\n      dup2\n      0x00\n      dup3\n      add\n      dup1\n      sload\n      tag_21\n      swap1\n      tag_22\n      jump\t// in\n    tag_21:\n      dup1\n      0x1f\n      add\n      0x20\n      dup1\n      swap2\n      div\n      mul\n      0x20\n      add\n      mload(0x40)\n      swap1\n      dup2\n      add\n      0x40\n      mstore\n      dup1\n      swap3\n      swap2\n      swap1\n      dup2\n      dup2\n      mstore\n      0x20\n      add\n      dup3\n      dup1\n      sload\n      tag_23\n      swap1\n      tag_22\n      jump\t// in\n    tag_23:\n      dup1\n      iszero\n      tag_24\n      jumpi\n      dup1\n      0x1f\n      lt\n      tag_25\n      jumpi\n      0x0100\n      dup1\n      dup4\n      sload\n      div\n      mul\n      dup4\n      mstore\n      swap2\n      0x20\n      add\n      swap2\n      jump(tag_24)\n    tag_25:\n      dup3\n      add\n      swap2\n      swap1\n      0x00\n      mstore\n      keccak256(0x00, 0x20)\n      swap1\n    tag_26:\n      dup2\n      sload\n      dup2\n      mstore\n      swap1\n      0x01\n      add\n      swap1\n      0x20\n      add\n      dup1\n      dup4\n      gt\n      tag_26\n      jumpi\n      dup3\n      swap1\n      sub\n      0x1f\n      and\n      dup3\n      add\n      swap2\n    tag_24:\n      pop\n      pop\n      pop\n      pop\n      pop\n      dup2\n      mstore\n      0x20\n      add\n      0x01\n      dup3\n      add\n      sload\n      dup2\n      mstore\n      0x20\n      add\n      0x02\n      dup3\n      add\n      sload\n      dup2\n      mstore\n      pop\n      pop\n      dup2\n      mstore\n      0x20\n      add\n      swap1\n      0x01\n      add\n      swap1\n      jump(tag_18)\n    tag_19:\n      pop\n      pop\n      pop\n      pop\n      swap1\n      pop\n        /* \"solidity_advance_assignment.sol\":2326:2412  function getDetails() public view returns(student[] memory){... */\n      swap1\n      jump\t// out\n        /* \"#utility.yul\":88:205   */\n    tag_28:\n        /* \"#utility.yul\":197:198   */\n      0x00\n        /* \"#utility.yul\":194:195   */\n      dup1\n        /* \"#utility.yul\":187:199   */\n      revert\n        /* \"#utility.yul\":211:328   */\n    tag_29:\n        /* \"#utility.yul\":320:321   */\n      0x00\n        /* \"#utility.yul\":317:318   */\n      dup1\n        /* \"#utility.yul\":310:322   */\n      revert\n        /* \"#utility.yul\":334:451   */\n    tag_30:\n        /* \"#utility.yul\":443:444   */\n      0x00\n        /* \"#utility.yul\":440:441   */\n      dup1\n        /* \"#utility.yul\":433:445   */\n      revert\n        /* \"#utility.yul\":457:574   */\n    tag_31:\n        /* \"#utility.yul\":566:567   */\n      0x00\n        /* \"#utility.yul\":563:564   */\n      dup1\n        /* \"#utility.yul\":556:568   */\n      revert\n        /* \"#utility.yul\":580:697   */\n    tag_32:\n        /* \"#utility.yul\":689:690   */\n      0x00\n        /* \"#utility.yul\":686:687   */\n      dup1\n        /* \"#utility.yul\":679:691   */\n      revert\n        /* \"#utility.yul\":717:1270   */\n    tag_33:\n        /* \"#utility.yul\":775:783   */\n      0x00\n        /* \"#utility.yul\":785:791   */\n      dup1\n        /* \"#utility.yul\":835:838   */\n      dup4\n        /* \"#utility.yul\":828:832   */\n      0x1f\n        /* \"#utility.yul\":820:826   */\n      dup5\n        /* \"#utility.yul\":816:833   */\n      add\n        /* \"#utility.yul\":812:839   */\n      slt\n        /* \"#utility.yul\":802:924   */\n      tag_75\n      jumpi\n        /* \"#utility.yul\":843:922   */\n      tag_76\n      tag_30\n      jump\t// in\n    tag_76:\n        /* \"#utility.yul\":802:924   */\n    tag_75:\n        /* \"#utility.yul\":956:962   */\n      dup3\n        /* \"#utility.yul\":943:963   */\n      calldataload\n        /* \"#utility.yul\":933:963   */\n      swap1\n      pop\n        /* \"#utility.yul\":986:1004   */\n      0xffffffffffffffff\n        /* \"#utility.yul\":978:984   */\n      dup2\n        /* \"#utility.yul\":975:1005   */\n      gt\n        /* \"#utility.yul\":972:1089   */\n      iszero\n      tag_77\n      jumpi\n        /* \"#utility.yul\":1008:1087   */\n      tag_78\n      tag_31\n      jump\t// in\n    tag_78:\n        /* \"#utility.yul\":972:1089   */\n    tag_77:\n        /* \"#utility.yul\":1122:1126   */\n      0x20\n        /* \"#utility.yul\":1114:1120   */\n      dup4\n        /* \"#utility.yul\":1110:1127   */\n      add\n        /* \"#utility.yul\":1098:1127   */\n      swap2\n      pop\n        /* \"#utility.yul\":1176:1179   */\n      dup4\n        /* \"#utility.yul\":1168:1172   */\n      0x01\n        /* \"#utility.yul\":1160:1166   */\n      dup3\n        /* \"#utility.yul\":1156:1173   */\n      mul\n        /* \"#utility.yul\":1146:1154   */\n      dup4\n        /* \"#utility.yul\":1142:1174   */\n      add\n        /* \"#utility.yul\":1139:1180   */\n      gt\n        /* \"#utility.yul\":1136:1264   */\n      iszero\n      tag_79\n      jumpi\n        /* \"#utility.yul\":1183:1262   */\n      tag_80\n      tag_32\n      jump\t// in\n    tag_80:\n        /* \"#utility.yul\":1136:1264   */\n    tag_79:\n        /* \"#utility.yul\":717:1270   */\n      swap3\n      pop\n      swap3\n      swap1\n      pop\n      jump\t// out\n        /* \"#utility.yul\":1276:1353   */\n    tag_34:\n        /* \"#utility.yul\":1313:1320   */\n      0x00\n        /* \"#utility.yul\":1342:1347   */\n      dup2\n        /* \"#utility.yul\":1331:1347   */\n      swap1\n      pop\n        /* \"#utility.yul\":1276:1353   */\n      swap2\n      swap1\n      pop\n      jump\t// out\n        /* \"#utility.yul\":1359:1481   */\n    tag_35:\n        /* \"#utility.yul\":1432:1456   */\n      tag_83\n        /* \"#utility.yul\":1450:1455   */\n      dup2\n        /* \"#utility.yul\":1432:1456   */\n      tag_34\n      jump\t// in\n    tag_83:\n        /* \"#utility.yul\":1425:1430   */\n      dup2\n        /* \"#utility.yul\":1422:1457   */\n      eq\n        /* \"#utility.yul\":1412:1475   */\n      tag_84\n      jumpi\n        /* \"#utility.yul\":1471:1472   */\n      0x00\n        /* \"#utility.yul\":1468:1469   */\n      dup1\n        /* \"#utility.yul\":1461:1473   */\n      revert\n        /* \"#utility.yul\":1412:1475   */\n    tag_84:\n        /* \"#utility.yul\":1359:1481   */\n      pop\n      jump\t// out\n        /* \"#utility.yul\":1487:1626   */\n    tag_36:\n        /* \"#utility.yul\":1533:1538   */\n      0x00\n        /* \"#utility.yul\":1571:1577   */\n      dup2\n        /* \"#utility.yul\":1558:1578   */\n      calldataload\n        /* \"#utility.yul\":1549:1578   */\n      swap1\n      pop\n        /* \"#utility.yul\":1587:1620   */\n      tag_86\n        /* \"#utility.yul\":1614:1619   */\n      dup2\n        /* \"#utility.yul\":1587:1620   */\n      tag_35\n      jump\t// in\n    tag_86:\n        /* \"#utility.yul\":1487:1626   */\n      swap3\n      swap2\n      pop\n      pop\n      jump\t// out\n        /* \"#utility.yul\":1632:2451   */\n    tag_7:\n        /* \"#utility.yul\":1721:1727   */\n      0x00\n        /* \"#utility.yul\":1729:1735   */\n      dup1\n        /* \"#utility.yul\":1737:1743   */\n      0x00\n        /* \"#utility.yul\":1745:1751   */\n      dup1\n        /* \"#utility.yul\":1794:1796   */\n      0x60\n        /* \"#utility.yul\":1782:1791   */\n      dup6\n        /* \"#utility.yul\":1773:1780   */\n      dup8\n        /* \"#utility.yul\":1769:1792   */\n      sub\n        /* \"#utility.yul\":1765:1797   */\n      slt\n        /* \"#utility.yul\":1762:1881   */\n      iszero\n      tag_88\n      jumpi\n        /* \"#utility.yul\":1800:1879   */\n      tag_89\n      tag_28\n      jump\t// in\n    tag_89:\n        /* \"#utility.yul\":1762:1881   */\n    tag_88:\n        /* \"#utility.yul\":1948:1949   */\n      0x00\n        /* \"#utility.yul\":1937:1946   */\n      dup6\n        /* \"#utility.yul\":1933:1950   */\n      add\n        /* \"#utility.yul\":1920:1951   */\n      calldataload\n        /* \"#utility.yul\":1978:1996   */\n      0xffffffffffffffff\n        /* \"#utility.yul\":1970:1976   */\n      dup2\n        /* \"#utility.yul\":1967:1997   */\n      gt\n        /* \"#utility.yul\":1964:2081   */\n      iszero\n      tag_90\n      jumpi\n        /* \"#utility.yul\":2000:2079   */\n      tag_91\n      tag_29\n      jump\t// in\n    tag_91:\n        /* \"#utility.yul\":1964:2081   */\n    tag_90:\n        /* \"#utility.yul\":2113:2178   */\n      tag_92\n        /* \"#utility.yul\":2170:2177   */\n      dup8\n        /* \"#utility.yul\":2161:2167   */\n      dup3\n        /* \"#utility.yul\":2150:2159   */\n      dup9\n        /* \"#utility.yul\":2146:2168   */\n      add\n        /* \"#utility.yul\":2113:2178   */\n      tag_33\n      jump\t// in\n    tag_92:\n        /* \"#utility.yul\":2095:2178   */\n      swap5\n      pop\n      swap5\n      pop\n        /* \"#utility.yul\":1891:2188   */\n      pop\n        /* \"#utility.yul\":2227:2229   */\n      0x20\n        /* \"#utility.yul\":2253:2306   */\n      tag_93\n        /* \"#utility.yul\":2298:2305   */\n      dup8\n        /* \"#utility.yul\":2289:2295   */\n      dup3\n        /* \"#utility.yul\":2278:2287   */\n      dup9\n        /* \"#utility.yul\":2274:2296   */\n      add\n        /* \"#utility.yul\":2253:2306   */\n      tag_36\n      jump\t// in\n    tag_93:\n        /* \"#utility.yul\":2243:2306   */\n      swap3\n      pop\n        /* \"#utility.yul\":2198:2316   */\n      pop\n        /* \"#utility.yul\":2355:2357   */\n      0x40\n        /* \"#utility.yul\":2381:2434   */\n      tag_94\n        /* \"#utility.yul\":2426:2433   */\n      dup8\n        /* \"#utility.yul\":2417:2423   */\n      dup3\n        /* \"#utility.yul\":2406:2415   */\n      dup9\n        /* \"#utility.yul\":2402:2424   */\n      add\n        /* \"#utility.yul\":2381:2434   */\n      tag_36\n      jump\t// in\n    tag_94:\n        /* \"#utility.yul\":2371:2434   */\n      swap2\n      pop\n        /* \"#utility.yul\":2326:2444   */\n      pop\n        /* \"#utility.yul\":1632:2451   */\n      swap3\n      swap6\n      swap2\n      swap5\n      pop\n      swap3\n      pop\n      jump\t// out\n        /* \"#utility.yul\":2457:2595   */\n    tag_37:\n        /* \"#utility.yul\":2548:2554   */\n      0x00\n        /* \"#utility.yul\":2582:2587   */\n      dup2\n        /* \"#utility.yul\":2576:2588   */\n      mload\n        /* \"#utility.yul\":2566:2588   */\n      swap1\n      pop\n        /* \"#utility.yul\":2457:2595   */\n      swap2\n      swap1\n      pop\n      jump\t// out\n        /* \"#utility.yul\":2601:2809   */\n    tag_38:\n        /* \"#utility.yul\":2724:2735   */\n      0x00\n        /* \"#utility.yul\":2758:2764   */\n      dup3\n        /* \"#utility.yul\":2753:2756   */\n      dup3\n        /* \"#utility.yul\":2746:2765   */\n      mstore\n        /* \"#utility.yul\":2798:2802   */\n      0x20\n        /* \"#utility.yul\":2793:2796   */\n      dup3\n        /* \"#utility.yul\":2789:2803   */\n      add\n        /* \"#utility.yul\":2774:2803   */\n      swap1\n      pop\n        /* \"#utility.yul\":2601:2809   */\n      swap3\n      swap2\n      pop\n      pop\n      jump\t// out\n        /* \"#utility.yul\":2815:2971   */\n    tag_39:\n        /* \"#utility.yul\":2906:2910   */\n      0x00\n        /* \"#utility.yul\":2929:2932   */\n      dup2\n        /* \"#utility.yul\":2921:2932   */\n      swap1\n      pop\n        /* \"#utility.yul\":2959:2963   */\n      0x20\n        /* \"#utility.yul\":2954:2957   */\n      dup3\n        /* \"#utility.yul\":2950:2964   */\n      add\n        /* \"#utility.yul\":2942:2964   */\n      swap1\n      pop\n        /* \"#utility.yul\":2815:2971   */\n      swap2\n      swap1\n      pop\n      jump\t// out\n        /* \"#utility.yul\":2977:3076   */\n    tag_40:\n        /* \"#utility.yul\":3029:3035   */\n      0x00\n        /* \"#utility.yul\":3063:3068   */\n      dup2\n        /* \"#utility.yul\":3057:3069   */\n      mload\n        /* \"#utility.yul\":3047:3069   */\n      swap1\n      pop\n        /* \"#utility.yul\":2977:3076   */\n      swap2\n      swap1\n      pop\n      jump\t// out\n        /* \"#utility.yul\":3082:3241   */\n    tag_41:\n        /* \"#utility.yul\":3156:3167   */\n      0x00\n        /* \"#utility.yul\":3190:3196   */\n      dup3\n        /* \"#utility.yul\":3185:3188   */\n      dup3\n        /* \"#utility.yul\":3178:3197   */\n      mstore\n        /* \"#utility.yul\":3230:3234   */\n      0x20\n        /* \"#utility.yul\":3225:3228   */\n      dup3\n        /* \"#utility.yul\":3221:3235   */\n      add\n        /* \"#utility.yul\":3206:3235   */\n      swap1\n      pop\n        /* \"#utility.yul\":3082:3241   */\n      swap3\n      swap2\n      pop\n      pop\n      jump\t// out\n        /* \"#utility.yul\":3247:3493   */\n    tag_42:\n        /* \"#utility.yul\":3328:3329   */\n      0x00\n        /* \"#utility.yul\":3338:3451   */\n    tag_101:\n        /* \"#utility.yul\":3352:3358   */\n      dup4\n        /* \"#utility.yul\":3349:3350   */\n      dup2\n        /* \"#utility.yul\":3346:3359   */\n      lt\n        /* \"#utility.yul\":3338:3451   */\n      iszero\n      tag_103\n      jumpi\n        /* \"#utility.yul\":3437:3438   */\n      dup1\n        /* \"#utility.yul\":3432:3435   */\n      dup3\n        /* \"#utility.yul\":3428:3439   */\n      add\n        /* \"#utility.yul\":3422:3440   */\n      mload\n        /* \"#utility.yul\":3418:3419   */\n      dup2\n        /* \"#utility.yul\":3413:3416   */\n      dup5\n        /* \"#utility.yul\":3409:3420   */\n      add\n        /* \"#utility.yul\":3402:3441   */\n      mstore\n        /* \"#utility.yul\":3374:3376   */\n      0x20\n        /* \"#utility.yul\":3371:3372   */\n      dup2\n        /* \"#utility.yul\":3367:3377   */\n      add\n        /* \"#utility.yul\":3362:3377   */\n      swap1\n      pop\n        /* \"#utility.yul\":3338:3451   */\n      jump(tag_101)\n    tag_103:\n        /* \"#utility.yul\":3485:3486   */\n      0x00\n        /* \"#utility.yul\":3476:3482   */\n      dup5\n        /* \"#utility.yul\":3471:3474   */\n      dup5\n        /* \"#utility.yul\":3467:3483   */\n      add\n        /* \"#utility.yul\":3460:3487   */\n      mstore\n        /* \"#utility.yul\":3309:3493   */\n      pop\n        /* \"#utility.yul\":3247:3493   */\n      pop\n      pop\n      pop\n      jump\t// out\n        /* \"#utility.yul\":3499:3601   */\n    tag_43:\n        /* \"#utility.yul\":3540:3546   */\n      0x00\n        /* \"#utility.yul\":3591:3593   */\n      0x1f\n        /* \"#utility.yul\":3587:3594   */\n      not\n        /* \"#utility.yul\":3582:3584   */\n      0x1f\n        /* \"#utility.yul\":3575:3580   */\n      dup4\n        /* \"#utility.yul\":3571:3585   */\n      add\n        /* \"#utility.yul\":3567:3595   */\n      and\n        /* \"#utility.yul\":3557:3595   */\n      swap1\n      pop\n        /* \"#utility.yul\":3499:3601   */\n      swap2\n      swap1\n      pop\n      jump\t// out\n        /* \"#utility.yul\":3607:3964   */\n    tag_44:\n        /* \"#utility.yul\":3685:3688   */\n      0x00\n        /* \"#utility.yul\":3713:3752   */\n      tag_106\n        /* \"#utility.yul\":3746:3751   */\n      dup3\n        /* \"#utility.yul\":3713:3752   */\n      tag_40\n      jump\t// in\n    tag_106:\n        /* \"#utility.yul\":3768:3829   */\n      tag_107\n        /* \"#utility.yul\":3822:3828   */\n      dup2\n        /* \"#utility.yul\":3817:3820   */\n      dup6\n        /* \"#utility.yul\":3768:3829   */\n      tag_41\n      jump\t// in\n    tag_107:\n        /* \"#utility.yul\":3761:3829   */\n      swap4\n      pop\n        /* \"#utility.yul\":3838:3903   */\n      tag_108\n        /* \"#utility.yul\":3896:3902   */\n      dup2\n        /* \"#utility.yul\":3891:3894   */\n      dup6\n        /* \"#utility.yul\":3884:3888   */\n      0x20\n        /* \"#utility.yul\":3877:3882   */\n      dup7\n        /* \"#utility.yul\":3873:3889   */\n      add\n        /* \"#utility.yul\":3838:3903   */\n      tag_42\n      jump\t// in\n    tag_108:\n        /* \"#utility.yul\":3928:3957   */\n      tag_109\n        /* \"#utility.yul\":3950:3956   */\n      dup2\n        /* \"#utility.yul\":3928:3957   */\n      tag_43\n      jump\t// in\n    tag_109:\n        /* \"#utility.yul\":3923:3926   */\n      dup5\n        /* \"#utility.yul\":3919:3958   */\n      add\n        /* \"#utility.yul\":3912:3958   */\n      swap2\n      pop\n        /* \"#utility.yul\":3689:3964   */\n      pop\n        /* \"#utility.yul\":3607:3964   */\n      swap3\n      swap2\n      pop\n      pop\n      jump\t// out\n        /* \"#utility.yul\":3970:4078   */\n    tag_45:\n        /* \"#utility.yul\":4047:4071   */\n      tag_111\n        /* \"#utility.yul\":4065:4070   */\n      dup2\n        /* \"#utility.yul\":4047:4071   */\n      tag_34\n      jump\t// in\n    tag_111:\n        /* \"#utility.yul\":4042:4045   */\n      dup3\n        /* \"#utility.yul\":4035:4072   */\n      mstore\n        /* \"#utility.yul\":3970:4078   */\n      pop\n      pop\n      jump\t// out\n        /* \"#utility.yul\":4124:4893   */\n    tag_46:\n        /* \"#utility.yul\":4231:4234   */\n      0x00\n        /* \"#utility.yul\":4267:4271   */\n      0x60\n        /* \"#utility.yul\":4262:4265   */\n      dup4\n        /* \"#utility.yul\":4258:4272   */\n      add\n        /* \"#utility.yul\":4354:4358   */\n      0x00\n        /* \"#utility.yul\":4347:4352   */\n      dup4\n        /* \"#utility.yul\":4343:4359   */\n      add\n        /* \"#utility.yul\":4337:4360   */\n      mload\n        /* \"#utility.yul\":4407:4410   */\n      dup5\n        /* \"#utility.yul\":4401:4405   */\n      dup3\n        /* \"#utility.yul\":4397:4411   */\n      sub\n        /* \"#utility.yul\":4390:4394   */\n      0x00\n        /* \"#utility.yul\":4385:4388   */\n      dup7\n        /* \"#utility.yul\":4381:4395   */\n      add\n        /* \"#utility.yul\":4374:4412   */\n      mstore\n        /* \"#utility.yul\":4433:4506   */\n      tag_113\n        /* \"#utility.yul\":4501:4505   */\n      dup3\n        /* \"#utility.yul\":4487:4499   */\n      dup3\n        /* \"#utility.yul\":4433:4506   */\n      tag_44\n      jump\t// in\n    tag_113:\n        /* \"#utility.yul\":4425:4506   */\n      swap2\n      pop\n        /* \"#utility.yul\":4282:4517   */\n      pop\n        /* \"#utility.yul\":4601:4605   */\n      0x20\n        /* \"#utility.yul\":4594:4599   */\n      dup4\n        /* \"#utility.yul\":4590:4606   */\n      add\n        /* \"#utility.yul\":4584:4607   */\n      mload\n        /* \"#utility.yul\":4620:4683   */\n      tag_114\n        /* \"#utility.yul\":4677:4681   */\n      0x20\n        /* \"#utility.yul\":4672:4675   */\n      dup7\n        /* \"#utility.yul\":4668:4682   */\n      add\n        /* \"#utility.yul\":4654:4666   */\n      dup3\n        /* \"#utility.yul\":4620:4683   */\n      tag_45\n      jump\t// in\n    tag_114:\n        /* \"#utility.yul\":4527:4693   */\n      pop\n        /* \"#utility.yul\":4774:4778   */\n      0x40\n        /* \"#utility.yul\":4767:4772   */\n      dup4\n        /* \"#utility.yul\":4763:4779   */\n      add\n        /* \"#utility.yul\":4757:4780   */\n      mload\n        /* \"#utility.yul\":4793:4856   */\n      tag_115\n        /* \"#utility.yul\":4850:4854   */\n      0x40\n        /* \"#utility.yul\":4845:4848   */\n      dup7\n        /* \"#utility.yul\":4841:4855   */\n      add\n        /* \"#utility.yul\":4827:4839   */\n      dup3\n        /* \"#utility.yul\":4793:4856   */\n      tag_45\n      jump\t// in\n    tag_115:\n        /* \"#utility.yul\":4703:4866   */\n      pop\n        /* \"#utility.yul\":4883:4887   */\n      dup1\n        /* \"#utility.yul\":4876:4887   */\n      swap2\n      pop\n        /* \"#utility.yul\":4236:4893   */\n      pop\n        /* \"#utility.yul\":4124:4893   */\n      swap3\n      swap2\n      pop\n      pop\n      jump\t// out\n        /* \"#utility.yul\":4899:5151   */\n    tag_47:\n        /* \"#utility.yul\":5016:5026   */\n      0x00\n        /* \"#utility.yul\":5051:5145   */\n      tag_117\n        /* \"#utility.yul\":5141:5144   */\n      dup4\n        /* \"#utility.yul\":5133:5139   */\n      dup4\n        /* \"#utility.yul\":5051:5145   */\n      tag_46\n      jump\t// in\n    tag_117:\n        /* \"#utility.yul\":5037:5145   */\n      swap1\n      pop\n        /* \"#utility.yul\":4899:5151   */\n      swap3\n      swap2\n      pop\n      pop\n      jump\t// out\n        /* \"#utility.yul\":5157:5294   */\n    tag_48:\n        /* \"#utility.yul\":5251:5255   */\n      0x00\n        /* \"#utility.yul\":5283:5287   */\n      0x20\n        /* \"#utility.yul\":5278:5281   */\n      dup3\n        /* \"#utility.yul\":5274:5288   */\n      add\n        /* \"#utility.yul\":5266:5288   */\n      swap1\n      pop\n        /* \"#utility.yul\":5157:5294   */\n      swap2\n      swap1\n      pop\n      jump\t// out\n        /* \"#utility.yul\":5344:6447   */\n    tag_49:\n        /* \"#utility.yul\":5511:5514   */\n      0x00\n        /* \"#utility.yul\":5540:5618   */\n      tag_120\n        /* \"#utility.yul\":5612:5617   */\n      dup3\n        /* \"#utility.yul\":5540:5618   */\n      tag_37\n      jump\t// in\n    tag_120:\n        /* \"#utility.yul\":5634:5744   */\n      tag_121\n        /* \"#utility.yul\":5737:5743   */\n      dup2\n        /* \"#utility.yul\":5732:5735   */\n      dup6\n        /* \"#utility.yul\":5634:5744   */\n      tag_38\n      jump\t// in\n    tag_121:\n        /* \"#utility.yul\":5627:5744   */\n      swap4\n      pop\n        /* \"#utility.yul\":5770:5773   */\n      dup4\n        /* \"#utility.yul\":5815:5819   */\n      0x20\n        /* \"#utility.yul\":5807:5813   */\n      dup3\n        /* \"#utility.yul\":5803:5820   */\n      mul\n        /* \"#utility.yul\":5798:5801   */\n      dup6\n        /* \"#utility.yul\":5794:5821   */\n      add\n        /* \"#utility.yul\":5845:5925   */\n      tag_122\n        /* \"#utility.yul\":5919:5924   */\n      dup6\n        /* \"#utility.yul\":5845:5925   */\n      tag_39\n      jump\t// in\n    tag_122:\n        /* \"#utility.yul\":5948:5955   */\n      dup1\n        /* \"#utility.yul\":5979:5980   */\n      0x00\n        /* \"#utility.yul\":5964:6402   */\n    tag_123:\n        /* \"#utility.yul\":5989:5995   */\n      dup6\n        /* \"#utility.yul\":5986:5987   */\n      dup2\n        /* \"#utility.yul\":5983:5996   */\n      lt\n        /* \"#utility.yul\":5964:6402   */\n      iszero\n      tag_125\n      jumpi\n        /* \"#utility.yul\":6060:6069   */\n      dup5\n        /* \"#utility.yul\":6054:6058   */\n      dup5\n        /* \"#utility.yul\":6050:6070   */\n      sub\n        /* \"#utility.yul\":6045:6048   */\n      dup10\n        /* \"#utility.yul\":6038:6071   */\n      mstore\n        /* \"#utility.yul\":6111:6117   */\n      dup2\n        /* \"#utility.yul\":6105:6118   */\n      mload\n        /* \"#utility.yul\":6139:6251   */\n      tag_126\n        /* \"#utility.yul\":6246:6250   */\n      dup6\n        /* \"#utility.yul\":6231:6244   */\n      dup3\n        /* \"#utility.yul\":6139:6251   */\n      tag_47\n      jump\t// in\n    tag_126:\n        /* \"#utility.yul\":6131:6251   */\n      swap5\n      pop\n        /* \"#utility.yul\":6274:6358   */\n      tag_127\n        /* \"#utility.yul\":6351:6357   */\n      dup4\n        /* \"#utility.yul\":6274:6358   */\n      tag_48\n      jump\t// in\n    tag_127:\n        /* \"#utility.yul\":6264:6358   */\n      swap3\n      pop\n        /* \"#utility.yul\":6387:6391   */\n      0x20\n        /* \"#utility.yul\":6382:6385   */\n      dup11\n        /* \"#utility.yul\":6378:6392   */\n      add\n        /* \"#utility.yul\":6371:6392   */\n      swap10\n      pop\n        /* \"#utility.yul\":6024:6402   */\n      pop\n        /* \"#utility.yul\":6011:6012   */\n      0x01\n        /* \"#utility.yul\":6008:6009   */\n      dup2\n        /* \"#utility.yul\":6004:6013   */\n      add\n        /* \"#utility.yul\":5999:6013   */\n      swap1\n      pop\n        /* \"#utility.yul\":5964:6402   */\n      jump(tag_123)\n    tag_125:\n        /* \"#utility.yul\":5968:5982   */\n      pop\n        /* \"#utility.yul\":6418:6422   */\n      dup3\n        /* \"#utility.yul\":6411:6422   */\n      swap8\n      pop\n        /* \"#utility.yul\":6438:6441   */\n      dup8\n        /* \"#utility.yul\":6431:6441   */\n      swap6\n      pop\n        /* \"#utility.yul\":5516:6447   */\n      pop\n      pop\n      pop\n      pop\n      pop\n        /* \"#utility.yul\":5344:6447   */\n      swap3\n      swap2\n      pop\n      pop\n      jump\t// out\n        /* \"#utility.yul\":6453:6922   */\n    tag_12:\n        /* \"#utility.yul\":6644:6648   */\n      0x00\n        /* \"#utility.yul\":6682:6684   */\n      0x20\n        /* \"#utility.yul\":6671:6680   */\n      dup3\n        /* \"#utility.yul\":6667:6685   */\n      add\n        /* \"#utility.yul\":6659:6685   */\n      swap1\n      pop\n        /* \"#utility.yul\":6731:6740   */\n      dup2\n        /* \"#utility.yul\":6725:6729   */\n      dup2\n        /* \"#utility.yul\":6721:6741   */\n      sub\n        /* \"#utility.yul\":6717:6718   */\n      0x00\n        /* \"#utility.yul\":6706:6715   */\n      dup4\n        /* \"#utility.yul\":6702:6719   */\n      add\n        /* \"#utility.yul\":6695:6742   */\n      mstore\n        /* \"#utility.yul\":6759:6915   */\n      tag_129\n        /* \"#utility.yul\":6910:6914   */\n      dup2\n        /* \"#utility.yul\":6901:6907   */\n      dup5\n        /* \"#utility.yul\":6759:6915   */\n      tag_49\n      jump\t// in\n    tag_129:\n        /* \"#utility.yul\":6751:6915   */\n      swap1\n      pop\n        /* \"#utility.yul\":6453:6922   */\n      swap3\n      swap2\n      pop\n      pop\n      jump\t// out\n        /* \"#utility.yul\":6928:7108   */\n    tag_50:\n        /* \"#utility.yul\":6976:7053   */\n      0x4e487b7100000000000000000000000000000000000000000000000000000000\n        /* \"#utility.yul\":6973:6974   */\n      0x00\n        /* \"#utility.yul\":6966:7054   */\n      mstore\n        /* \"#utility.yul\":7073:7077   */\n      0x41\n        /* \"#utility.yul\":7070:7071   */\n      0x04\n        /* \"#utility.yul\":7063:7078   */\n      mstore\n        /* \"#utility.yul\":7097:7101   */\n      0x24\n        /* \"#utility.yul\":7094:7095   */\n      0x00\n        /* \"#utility.yul\":7087:7102   */\n      revert\n        /* \"#utility.yul\":7114:7294   */\n    tag_51:\n        /* \"#utility.yul\":7162:7239   */\n      0x4e487b7100000000000000000000000000000000000000000000000000000000\n        /* \"#utility.yul\":7159:7160   */\n      0x00\n        /* \"#utility.yul\":7152:7240   */\n      mstore\n        /* \"#utility.yul\":7259:7263   */\n      0x22\n        /* \"#utility.yul\":7256:7257   */\n      0x04\n        /* \"#utility.yul\":7249:7264   */\n      mstore\n        /* \"#utility.yul\":7283:7287   */\n      0x24\n        /* \"#utility.yul\":7280:7281   */\n      0x00\n        /* \"#utility.yul\":7273:7288   */\n      revert\n        /* \"#utility.yul\":7300:7620   */\n    tag_22:\n        /* \"#utility.yul\":7344:7350   */\n      0x00\n        /* \"#utility.yul\":7381:7382   */\n      0x02\n        /* \"#utility.yul\":7375:7379   */\n      dup3\n        /* \"#utility.yul\":7371:7383   */\n      div\n        /* \"#utility.yul\":7361:7383   */\n      swap1\n      pop\n        /* \"#utility.yul\":7428:7429   */\n      0x01\n        /* \"#utility.yul\":7422:7426   */\n      dup3\n        /* \"#utility.yul\":7418:7430   */\n      and\n        /* \"#utility.yul\":7449:7467   */\n      dup1\n        /* \"#utility.yul\":7439:7520   */\n      tag_133\n      jumpi\n        /* \"#utility.yul\":7505:7509   */\n      0x7f\n        /* \"#utility.yul\":7497:7503   */\n      dup3\n        /* \"#utility.yul\":7493:7510   */\n      and\n        /* \"#utility.yul\":7483:7510   */\n      swap2\n      pop\n        /* \"#utility.yul\":7439:7520   */\n    tag_133:\n        /* \"#utility.yul\":7567:7569   */\n      0x20\n        /* \"#utility.yul\":7559:7565   */\n      dup3\n        /* \"#utility.yul\":7556:7570   */\n      lt\n        /* \"#utility.yul\":7536:7554   */\n      dup2\n        /* \"#utility.yul\":7533:7571   */\n      sub\n        /* \"#utility.yul\":7530:7614   */\n      tag_134\n      jumpi\n        /* \"#utility.yul\":7586:7604   */\n      tag_135\n      tag_51\n      jump\t// in\n    tag_135:\n        /* \"#utility.yul\":7530:7614   */\n    tag_134:\n        /* \"#utility.yul\":7351:7620   */\n      pop\n        /* \"#utility.yul\":7300:7620   */\n      swap2\n      swap1\n      pop\n      jump\t// out\n        /* \"#utility.yul\":7626:7767   */\n    tag_52:\n        /* \"#utility.yul\":7675:7679   */\n      0x00\n        /* \"#utility.yul\":7698:7701   */\n      dup2\n        /* \"#utility.yul\":7690:7701   */\n      swap1\n      pop\n        /* \"#utility.yul\":7721:7724   */\n      dup2\n        /* \"#utility.yul\":7718:7719   */\n      0x00\n        /* \"#utility.yul\":7711:7725   */\n      mstore\n        /* \"#utility.yul\":7755:7759   */\n      0x20\n        /* \"#utility.yul\":7752:7753   */\n      0x00\n        /* \"#utility.yul\":7742:7760   */\n      keccak256\n        /* \"#utility.yul\":7734:7760   */\n      swap1\n      pop\n        /* \"#utility.yul\":7626:7767   */\n      swap2\n      swap1\n      pop\n      jump\t// out\n        /* \"#utility.yul\":7773:7866   */\n    tag_53:\n        /* \"#utility.yul\":7810:7816   */\n      0x00\n        /* \"#utility.yul\":7857:7859   */\n      0x20\n        /* \"#utility.yul\":7852:7854   */\n      0x1f\n        /* \"#utility.yul\":7845:7850   */\n      dup4\n        /* \"#utility.yul\":7841:7855   */\n      add\n        /* \"#utility.yul\":7837:7860   */\n      div\n        /* \"#utility.yul\":7827:7860   */\n      swap1\n      pop\n        /* \"#utility.yul\":7773:7866   */\n      swap2\n      swap1\n      pop\n      jump\t// out\n        /* \"#utility.yul\":7872:7979   */\n    tag_54:\n        /* \"#utility.yul\":7916:7924   */\n      0x00\n        /* \"#utility.yul\":7966:7971   */\n      dup3\n        /* \"#utility.yul\":7960:7964   */\n      dup3\n        /* \"#utility.yul\":7956:7972   */\n      shl\n        /* \"#utility.yul\":7935:7972   */\n      swap1\n      pop\n        /* \"#utility.yul\":7872:7979   */\n      swap3\n      swap2\n      pop\n      pop\n      jump\t// out\n        /* \"#utility.yul\":7985:8378   */\n    tag_55:\n        /* \"#utility.yul\":8054:8060   */\n      0x00\n        /* \"#utility.yul\":8104:8105   */\n      0x08\n        /* \"#utility.yul\":8092:8102   */\n      dup4\n        /* \"#utility.yul\":8088:8106   */\n      mul\n        /* \"#utility.yul\":8127:8224   */\n      tag_140\n        /* \"#utility.yul\":8157:8223   */\n      0xffffffffffffffffffffffffffffffffffffffffffffffffffffffffffffffff\n        /* \"#utility.yul\":8146:8155   */\n      dup3\n        /* \"#utility.yul\":8127:8224   */\n      tag_54\n      jump\t// in\n    tag_140:\n        /* \"#utility.yul\":8245:8284   */\n      tag_141\n        /* \"#utility.yul\":8275:8283   */\n      dup7\n        /* \"#utility.yul\":8264:8273   */\n      dup4\n        /* \"#utility.yul\":8245:8284   */\n      tag_54\n      jump\t// in\n    tag_141:\n        /* \"#utility.yul\":8233:8284   */\n      swap6\n      pop\n        /* \"#utility.yul\":8317:8321   */\n      dup1\n        /* \"#utility.yul\":8313:8322   */\n      not\n        /* \"#utility.yul\":8306:8311   */\n      dup5\n        /* \"#utility.yul\":8302:8323   */\n      and\n        /* \"#utility.yul\":8293:8323   */\n      swap4\n      pop\n        /* \"#utility.yul\":8366:8370   */\n      dup1\n        /* \"#utility.yul\":8356:8364   */\n      dup7\n        /* \"#utility.yul\":8352:8371   */\n      and\n        /* \"#utility.yul\":8345:8350   */\n      dup5\n        /* \"#utility.yul\":8342:8372   */\n      or\n        /* \"#utility.yul\":8332:8372   */\n      swap3\n      pop\n        /* \"#utility.yul\":8061:8378   */\n      pop\n      pop\n        /* \"#utility.yul\":7985:8378   */\n      swap4\n      swap3\n      pop\n      pop\n      pop\n      jump\t// out\n        /* \"#utility.yul\":8384:8444   */\n    tag_56:\n        /* \"#utility.yul\":8412:8415   */\n      0x00\n        /* \"#utility.yul\":8433:8438   */\n      dup2\n        /* \"#utility.yul\":8426:8438   */\n      swap1\n      pop\n        /* \"#utility.yul\":8384:8444   */\n      swap2\n      swap1\n      pop\n      jump\t// out\n        /* \"#utility.yul\":8450:8592   */\n    tag_57:\n        /* \"#utility.yul\":8500:8509   */\n      0x00\n        /* \"#utility.yul\":8533:8586   */\n      tag_144\n        /* \"#utility.yul\":8551:8585   */\n      tag_145\n        /* \"#utility.yul\":8560:8584   */\n      tag_146\n        /* \"#utility.yul\":8578:8583   */\n      dup5\n        /* \"#utility.yul\":8560:8584   */\n      tag_34\n      jump\t// in\n    tag_146:\n        /* \"#utility.yul\":8551:8585   */\n      tag_56\n      jump\t// in\n    tag_145:\n        /* \"#utility.yul\":8533:8586   */\n      tag_34\n      jump\t// in\n    tag_144:\n        /* \"#utility.yul\":8520:8586   */\n      swap1\n      pop\n        /* \"#utility.yul\":8450:8592   */\n      swap2\n      swap1\n      pop\n      jump\t// out\n        /* \"#utility.yul\":8598:8673   */\n    tag_58:\n        /* \"#utility.yul\":8641:8644   */\n      0x00\n        /* \"#utility.yul\":8662:8667   */\n      dup2\n        /* \"#utility.yul\":8655:8667   */\n      swap1\n      pop\n        /* \"#utility.yul\":8598:8673   */\n      swap2\n      swap1\n      pop\n      jump\t// out\n        /* \"#utility.yul\":8679:8948   */\n    tag_59:\n        /* \"#utility.yul\":8789:8828   */\n      tag_149\n        /* \"#utility.yul\":8820:8827   */\n      dup4\n        /* \"#utility.yul\":8789:8828   */\n      tag_57\n      jump\t// in\n    tag_149:\n        /* \"#utility.yul\":8850:8941   */\n      tag_150\n        /* \"#utility.yul\":8899:8940   */\n      tag_151\n        /* \"#utility.yul\":8923:8939   */\n      dup3\n        /* \"#utility.yul\":8899:8940   */\n      tag_58\n      jump\t// in\n    tag_151:\n        /* \"#utility.yul\":8891:8897   */\n      dup5\n        /* \"#utility.yul\":8884:8888   */\n      dup5\n        /* \"#utility.yul\":8878:8889   */\n      sload\n        /* \"#utility.yul\":8850:8941   */\n      tag_55\n      jump\t// in\n    tag_150:\n        /* \"#utility.yul\":8844:8848   */\n      dup3\n        /* \"#utility.yul\":8837:8942   */\n      sstore\n        /* \"#utility.yul\":8755:8948   */\n      pop\n        /* \"#utility.yul\":8679:8948   */\n      pop\n      pop\n      pop\n      jump\t// out\n        /* \"#utility.yul\":8954:9027   */\n    tag_60:\n        /* \"#utility.yul\":8999:9002   */\n      0x00\n        /* \"#utility.yul\":8954:9027   */\n      swap1\n      jump\t// out\n        /* \"#utility.yul\":9033:9222   */\n    tag_61:\n        /* \"#utility.yul\":9110:9142   */\n      tag_154\n      tag_60\n      jump\t// in\n    tag_154:\n        /* \"#utility.yul\":9151:9216   */\n      tag_155\n        /* \"#utility.yul\":9209:9215   */\n      dup2\n        /* \"#utility.yul\":9201:9207   */\n      dup5\n        /* \"#utility.yul\":9195:9199   */\n      dup5\n        /* \"#utility.yul\":9151:9216   */\n      tag_59\n      jump\t// in\n    tag_155:\n        /* \"#utility.yul\":9086:9222   */\n      pop\n        /* \"#utility.yul\":9033:9222   */\n      pop\n      pop\n      jump\t// out\n        /* \"#utility.yul\":9228:9414   */\n    tag_62:\n        /* \"#utility.yul\":9288:9408   */\n    tag_157:\n        /* \"#utility.yul\":9305:9308   */\n      dup2\n        /* \"#utility.yul\":9298:9303   */\n      dup2\n        /* \"#utility.yul\":9295:9309   */\n      lt\n        /* \"#utility.yul\":9288:9408   */\n      iszero\n      tag_159\n      jumpi\n        /* \"#utility.yul\":9359:9398   */\n      tag_160\n        /* \"#utility.yul\":9396:9397   */\n      0x00\n        /* \"#utility.yul\":9389:9394   */\n      dup3\n        /* \"#utility.yul\":9359:9398   */\n      tag_61\n      jump\t// in\n    tag_160:\n        /* \"#utility.yul\":9332:9333   */\n      0x01\n        /* \"#utility.yul\":9325:9330   */\n      dup2\n        /* \"#utility.yul\":9321:9334   */\n      add\n        /* \"#utility.yul\":9312:9334   */\n      swap1\n      pop\n        /* \"#utility.yul\":9288:9408   */\n      jump(tag_157)\n    tag_159:\n        /* \"#utility.yul\":9228:9414   */\n      pop\n      pop\n      jump\t// out\n        /* \"#utility.yul\":9420:9963   */\n    tag_63:\n        /* \"#utility.yul\":9521:9523   */\n      0x1f\n        /* \"#utility.yul\":9516:9519   */\n      dup3\n        /* \"#utility.yul\":9513:9524   */\n      gt\n        /* \"#utility.yul\":9510:9956   */\n      iszero\n      tag_162\n      jumpi\n        /* \"#utility.yul\":9555:9593   */\n      tag_163\n        /* \"#utility.yul\":9587:9592   */\n      dup2\n        /* \"#utility.yul\":9555:9593   */\n      tag_52\n      jump\t// in\n    tag_163:\n        /* \"#utility.yul\":9639:9668   */\n      tag_164\n        /* \"#utility.yul\":9657:9667   */\n      dup5\n        /* \"#utility.yul\":9639:9668   */\n      tag_53\n      jump\t// in\n    tag_164:\n        /* \"#utility.yul\":9629:9637   */\n      dup2\n        /* \"#utility.yul\":9625:9669   */\n      add\n        /* \"#utility.yul\":9822:9824   */\n      0x20\n        /* \"#utility.yul\":9810:9820   */\n      dup6\n        /* \"#utility.yul\":9807:9825   */\n      lt\n        /* \"#utility.yul\":9804:9853   */\n      iszero\n      tag_165\n      jumpi\n        /* \"#utility.yul\":9843:9851   */\n      dup2\n        /* \"#utility.yul\":9828:9851   */\n      swap1\n      pop\n        /* \"#utility.yul\":9804:9853   */\n    tag_165:\n        /* \"#utility.yul\":9866:9946   */\n      tag_166\n        /* \"#utility.yul\":9922:9944   */\n      tag_167\n        /* \"#utility.yul\":9940:9943   */\n      dup6\n        /* \"#utility.yul\":9922:9944   */\n      tag_53\n      jump\t// in\n    tag_167:\n        /* \"#utility.yul\":9912:9920   */\n      dup4\n        /* \"#utility.yul\":9908:9945   */\n      add\n        /* \"#utility.yul\":9895:9906   */\n      dup3\n        /* \"#utility.yul\":9866:9946   */\n      tag_62\n      jump\t// in\n    tag_166:\n        /* \"#utility.yul\":9525:9956   */\n      pop\n      pop\n        /* \"#utility.yul\":9510:9956   */\n    tag_162:\n        /* \"#utility.yul\":9420:9963   */\n      pop\n      pop\n      pop\n      jump\t// out\n        /* \"#utility.yul\":9969:10086   */\n    tag_64:\n        /* \"#utility.yul\":10023:10031   */\n      0x00\n        /* \"#utility.yul\":10073:10078   */\n      dup3\n        /* \"#utility.yul\":10067:10071   */\n      dup3\n        /* \"#utility.yul\":10063:10079   */\n      shr\n        /* \"#utility.yul\":10042:10079   */\n      swap1\n      pop\n        /* \"#utility.yul\":9969:10086   */\n      swap3\n      swap2\n      pop\n      pop\n      jump\t// out\n        /* \"#utility.yul\":10092:10261   */\n    tag_65:\n        /* \"#utility.yul\":10136:10142   */\n      0x00\n        /* \"#utility.yul\":10169:10220   */\n      tag_170\n        /* \"#utility.yul\":10217:10218   */\n      0x00\n        /* \"#utility.yul\":10213:10219   */\n      not\n        /* \"#utility.yul\":10205:10210   */\n      dup5\n        /* \"#utility.yul\":10202:10203   */\n      0x08\n        /* \"#utility.yul\":10198:10211   */\n      mul\n        /* \"#utility.yul\":10169:10220   */\n      tag_64\n      jump\t// in\n    tag_170:\n        /* \"#utility.yul\":10165:10221   */\n      not\n        /* \"#utility.yul\":10250:10254   */\n      dup1\n        /* \"#utility.yul\":10244:10248   */\n      dup4\n        /* \"#utility.yul\":10240:10255   */\n      and\n        /* \"#utility.yul\":10230:10255   */\n      swap2\n      pop\n        /* \"#utility.yul\":10143:10261   */\n      pop\n        /* \"#utility.yul\":10092:10261   */\n      swap3\n      swap2\n      pop\n      pop\n      jump\t// out\n        /* \"#utility.yul\":10266:10561   */\n    tag_66:\n        /* \"#utility.yul\":10342:10346   */\n      0x00\n        /* \"#utility.yul\":10488:10517   */\n      tag_172\n        /* \"#utility.yul\":10513:10516   */\n      dup4\n        /* \"#utility.yul\":10507:10511   */\n      dup4\n        /* \"#utility.yul\":10488:10517   */\n      tag_65\n      jump\t// in\n    tag_172:\n        /* \"#utility.yul\":10480:10517   */\n      swap2\n      pop\n        /* \"#utility.yul\":10550:10553   */\n      dup3\n        /* \"#utility.yul\":10547:10548   */\n      0x02\n        /* \"#utility.yul\":10543:10554   */\n      mul\n        /* \"#utility.yul\":10537:10541   */\n      dup3\n        /* \"#utility.yul\":10534:10555   */\n      or\n        /* \"#utility.yul\":10526:10555   */\n      swap1\n      pop\n        /* \"#utility.yul\":10266:10561   */\n      swap3\n      swap2\n      pop\n      pop\n      jump\t// out\n        /* \"#utility.yul\":10566:11961   */\n    tag_16:\n        /* \"#utility.yul\":10683:10720   */\n      tag_174\n        /* \"#utility.yul\":10716:10719   */\n      dup3\n        /* \"#utility.yul\":10683:10720   */\n      tag_40\n      jump\t// in\n    tag_174:\n        /* \"#utility.yul\":10785:10803   */\n      0xffffffffffffffff\n        /* \"#utility.yul\":10777:10783   */\n      dup2\n        /* \"#utility.yul\":10774:10804   */\n      gt\n        /* \"#utility.yul\":10771:10827   */\n      iszero\n      tag_175\n      jumpi\n        /* \"#utility.yul\":10807:10825   */\n      tag_176\n      tag_50\n      jump\t// in\n    tag_176:\n        /* \"#utility.yul\":10771:10827   */\n    tag_175:\n        /* \"#utility.yul\":10851:10889   */\n      tag_177\n        /* \"#utility.yul\":10883:10887   */\n      dup3\n        /* \"#utility.yul\":10877:10888   */\n      sload\n        /* \"#utility.yul\":10851:10889   */\n      tag_22\n      jump\t// in\n    tag_177:\n        /* \"#utility.yul\":10936:11003   */\n      tag_178\n        /* \"#utility.yul\":10996:11002   */\n      dup3\n        /* \"#utility.yul\":10988:10994   */\n      dup3\n        /* \"#utility.yul\":10982:10986   */\n      dup6\n        /* \"#utility.yul\":10936:11003   */\n      tag_63\n      jump\t// in\n    tag_178:\n        /* \"#utility.yul\":11030:11031   */\n      0x00\n        /* \"#utility.yul\":11054:11058   */\n      0x20\n        /* \"#utility.yul\":11041:11058   */\n      swap1\n      pop\n        /* \"#utility.yul\":11086:11088   */\n      0x1f\n        /* \"#utility.yul\":11078:11084   */\n      dup4\n        /* \"#utility.yul\":11075:11089   */\n      gt\n        /* \"#utility.yul\":11103:11104   */\n      0x01\n        /* \"#utility.yul\":11098:11716   */\n      dup2\n      eq\n      tag_180\n      jumpi\n        /* \"#utility.yul\":11760:11761   */\n      0x00\n        /* \"#utility.yul\":11777:11783   */\n      dup5\n        /* \"#utility.yul\":11774:11851   */\n      iszero\n      tag_181\n      jumpi\n        /* \"#utility.yul\":11826:11835   */\n      dup3\n        /* \"#utility.yul\":11821:11824   */\n      dup8\n        /* \"#utility.yul\":11817:11836   */\n      add\n        /* \"#utility.yul\":11811:11837   */\n      mload\n        /* \"#utility.yul\":11802:11837   */\n      swap1\n      pop\n        /* \"#utility.yul\":11774:11851   */\n    tag_181:\n        /* \"#utility.yul\":11877:11944   */\n      tag_182\n        /* \"#utility.yul\":11937:11943   */\n      dup6\n        /* \"#utility.yul\":11930:11935   */\n      dup3\n        /* \"#utility.yul\":11877:11944   */\n      tag_66\n      jump\t// in\n    tag_182:\n        /* \"#utility.yul\":11871:11875   */\n      dup7\n        /* \"#utility.yul\":11864:11945   */\n      sstore\n        /* \"#utility.yul\":11733:11955   */\n      pop\n        /* \"#utility.yul\":11068:11955   */\n      jump(tag_179)\n        /* \"#utility.yul\":11098:11716   */\n    tag_180:\n        /* \"#utility.yul\":11150:11154   */\n      0x1f\n        /* \"#utility.yul\":11146:11155   */\n      not\n        /* \"#utility.yul\":11138:11144   */\n      dup5\n        /* \"#utility.yul\":11134:11156   */\n      and\n        /* \"#utility.yul\":11184:11221   */\n      tag_183\n        /* \"#utility.yul\":11216:11220   */\n      dup7\n        /* \"#utility.yul\":11184:11221   */\n      tag_52\n      jump\t// in\n    tag_183:\n        /* \"#utility.yul\":11243:11244   */\n      0x00\n        /* \"#utility.yul\":11257:11465   */\n    tag_184:\n        /* \"#utility.yul\":11271:11278   */\n      dup3\n        /* \"#utility.yul\":11268:11269   */\n      dup2\n        /* \"#utility.yul\":11265:11279   */\n      lt\n        /* \"#utility.yul\":11257:11465   */\n      iszero\n      tag_186\n      jumpi\n        /* \"#utility.yul\":11350:11359   */\n      dup5\n        /* \"#utility.yul\":11345:11348   */\n      dup10\n        /* \"#utility.yul\":11341:11360   */\n      add\n        /* \"#utility.yul\":11335:11361   */\n      mload\n        /* \"#utility.yul\":11327:11333   */\n      dup3\n        /* \"#utility.yul\":11320:11362   */\n      sstore\n        /* \"#utility.yul\":11401:11402   */\n      0x01\n        /* \"#utility.yul\":11393:11399   */\n      dup3\n        /* \"#utility.yul\":11389:11403   */\n      add\n        /* \"#utility.yul\":11379:11403   */\n      swap2\n      pop\n        /* \"#utility.yul\":11448:11450   */\n      0x20\n        /* \"#utility.yul\":11437:11446   */\n      dup6\n        /* \"#utility.yul\":11433:11451   */\n      add\n        /* \"#utility.yul\":11420:11451   */\n      swap5\n      pop\n        /* \"#utility.yul\":11294:11298   */\n      0x20\n        /* \"#utility.yul\":11291:11292   */\n      dup2\n        /* \"#utility.yul\":11287:11299   */\n      add\n        /* \"#utility.yul\":11282:11299   */\n      swap1\n      pop\n        /* \"#utility.yul\":11257:11465   */\n      jump(tag_184)\n    tag_186:\n        /* \"#utility.yul\":11493:11499   */\n      dup7\n        /* \"#utility.yul\":11484:11491   */\n      dup4\n        /* \"#utility.yul\":11481:11500   */\n      lt\n        /* \"#utility.yul\":11478:11657   */\n      iszero\n      tag_187\n      jumpi\n        /* \"#utility.yul\":11551:11560   */\n      dup5\n        /* \"#utility.yul\":11546:11549   */\n      dup10\n        /* \"#utility.yul\":11542:11561   */\n      add\n        /* \"#utility.yul\":11536:11562   */\n      mload\n        /* \"#utility.yul\":11594:11642   */\n      tag_188\n        /* \"#utility.yul\":11636:11640   */\n      0x1f\n        /* \"#utility.yul\":11628:11634   */\n      dup10\n        /* \"#utility.yul\":11624:11641   */\n      and\n        /* \"#utility.yul\":11613:11622   */\n      dup3\n        /* \"#utility.yul\":11594:11642   */\n      tag_65\n      jump\t// in\n    tag_188:\n        /* \"#utility.yul\":11586:11592   */\n      dup4\n        /* \"#utility.yul\":11579:11643   */\n      sstore\n        /* \"#utility.yul\":11501:11657   */\n      pop\n        /* \"#utility.yul\":11478:11657   */\n    tag_187:\n        /* \"#utility.yul\":11703:11704   */\n      0x01\n        /* \"#utility.yul\":11699:11700   */\n      0x02\n        /* \"#utility.yul\":11691:11697   */\n      dup9\n        /* \"#utility.yul\":11687:11701   */\n      mul\n        /* \"#utility.yul\":11683:11705   */\n      add\n        /* \"#utility.yul\":11677:11681   */\n      dup9\n        /* \"#utility.yul\":11670:11706   */\n      sstore\n        /* \"#utility.yul\":11105:11716   */\n      pop\n      pop\n      pop\n        /* \"#utility.yul\":11068:11955   */\n    tag_179:\n      pop\n        /* \"#utility.yul\":10658:11961   */\n      pop\n      pop\n      pop\n        /* \"#utility.yul\":10566:11961   */\n      pop\n      pop\n      jump\t// out\n\n    auxdata: 0xa2646970667358221220232ce881ec0dd3ebeea37e91af3e6cdcf506e9022b82d3e84900c0133f80abb564736f6c63430008120033\n}\n",
				"bytecode": {
					"linkReferences": {},
					"object": "608060405234801561001057600080fd5b50610865806100206000396000f3fe608060405234801561001057600080fd5b50600436106100365760003560e01c8063a27c794b1461003b578063fbbf93a014610057575b600080fd5b610055600480360381019061005091906102db565b610075565b005b61005f610131565b60405161006c9190610500565b60405180910390f35b6000604051806060016040528086868080601f016020809104026020016040519081016040528093929190818152602001838380828437600081840152601f19601f8201169050808301925050505050505081526020018481526020018381525090806001815401808255809150506001900390600052602060002090600302016000909190919091506000820151816000019081610114919061075d565b506020820151816001015560408201518160020155505050505050565b60606000805480602002602001604051908101604052809291908181526020016000905b8282101561022d578382906000526020600020906003020160405180606001604052908160008201805461018890610580565b80601f01602080910402602001604051908101604052809291908181526020018280546101b490610580565b80156102015780601f106101d657610100808354040283529160200191610201565b820191906000526020600020905b8154815290600101906020018083116101e457829003601f168201915b505050505081526020016001820154815260200160028201548152505081526020019060010190610155565b50505050905090565b600080fd5b600080fd5b600080fd5b600080fd5b600080fd5b60008083601f84011261026557610264610240565b5b8235905067ffffffffffffffff81111561028257610281610245565b5b60208301915083600182028301111561029e5761029d61024a565b5b9250929050565b6000819050919050565b6102b8816102a5565b81146102c357600080fd5b50565b6000813590506102d5816102af565b92915050565b600080600080606085870312156102f5576102f4610236565b5b600085013567ffffffffffffffff8111156103135761031261023b565b5b61031f8782880161024f565b94509450506020610332878288016102c6565b9250506040610343878288016102c6565b91505092959194509250565b600081519050919050565b600082825260208201905092915050565b6000819050602082019050919050565b600081519050919050565b600082825260208201905092915050565b60005b838110156103b557808201518184015260208101905061039a565b60008484015250505050565b6000601f19601f8301169050919050565b60006103dd8261037b565b6103e78185610386565b93506103f7818560208601610397565b610400816103c1565b840191505092915050565b610414816102a5565b82525050565b6000606083016000830151848203600086015261043782826103d2565b915050602083015161044c602086018261040b565b50604083015161045f604086018261040b565b508091505092915050565b6000610476838361041a565b905092915050565b6000602082019050919050565b60006104968261034f565b6104a0818561035a565b9350836020820285016104b28561036b565b8060005b858110156104ee57848403895281516104cf858261046a565b94506104da8361047e565b925060208a019950506001810190506104b6565b50829750879550505050505092915050565b6000602082019050818103600083015261051a818461048b565b905092915050565b7f4e487b7100000000000000000000000000000000000000000000000000000000600052604160045260246000fd5b7f4e487b7100000000000000000000000000000000000000000000000000000000600052602260045260246000fd5b6000600282049050600182168061059857607f821691505b6020821081036105ab576105aa610551565b5b50919050565b60008190508160005260206000209050919050565b60006020601f8301049050919050565b600082821b905092915050565b6000600883026106137fffffffffffffffffffffffffffffffffffffffffffffffffffffffffffffffff826105d6565b61061d86836105d6565b95508019841693508086168417925050509392505050565b6000819050919050565b600061065a610655610650846102a5565b610635565b6102a5565b9050919050565b6000819050919050565b6106748361063f565b61068861068082610661565b8484546105e3565b825550505050565b600090565b61069d610690565b6106a881848461066b565b505050565b5b818110156106cc576106c1600082610695565b6001810190506106ae565b5050565b601f821115610711576106e2816105b1565b6106eb846105c6565b810160208510156106fa578190505b61070e610706856105c6565b8301826106ad565b50505b505050565b600082821c905092915050565b600061073460001984600802610716565b1980831691505092915050565b600061074d8383610723565b9150826002028217905092915050565b6107668261037b565b67ffffffffffffffff81111561077f5761077e610522565b5b6107898254610580565b6107948282856106d0565b600060209050601f8311600181146107c757600084156107b5578287015190505b6107bf8582610741565b865550610827565b601f1984166107d5866105b1565b60005b828110156107fd578489015182556001820191506020850194506020810190506107d8565b8683101561081a5784890151610816601f891682610723565b8355505b6001600288020188555050505b50505050505056fea2646970667358221220232ce881ec0dd3ebeea37e91af3e6cdcf506e9022b82d3e84900c0133f80abb564736f6c63430008120033",
					"opcodes": "PUSH1 0x80 PUSH1 0x40 MSTORE CALLVALUE DUP1 ISZERO PUSH2 0x10 JUMPI PUSH1 0x0 DUP1 REVERT JUMPDEST POP PUSH2 0x865 DUP1 PUSH2 0x20 PUSH1 0x0 CODECOPY PUSH1 0x0 RETURN INVALID PUSH1 0x80 PUSH1 0x40 MSTORE CALLVALUE DUP1 ISZERO PUSH2 0x10 JUMPI PUSH1 0x0 DUP1 REVERT JUMPDEST POP PUSH1 0x4 CALLDATASIZE LT PUSH2 0x36 JUMPI PUSH1 0x0 CALLDATALOAD PUSH1 0xE0 SHR DUP1 PUSH4 0xA27C794B EQ PUSH2 0x3B JUMPI DUP1 PUSH4 0xFBBF93A0 EQ PUSH2 0x57 JUMPI JUMPDEST PUSH1 0x0 DUP1 REVERT JUMPDEST PUSH2 0x55 PUSH1 0x4 DUP1 CALLDATASIZE SUB DUP2 ADD SWAP1 PUSH2 0x50 SWAP2 SWAP1 PUSH2 0x2DB JUMP JUMPDEST PUSH2 0x75 JUMP JUMPDEST STOP JUMPDEST PUSH2 0x5F PUSH2 0x131 JUMP JUMPDEST PUSH1 0x40 MLOAD PUSH2 0x6C SWAP2 SWAP1 PUSH2 0x500 JUMP JUMPDEST PUSH1 0x40 MLOAD DUP1 SWAP2 SUB SWAP1 RETURN JUMPDEST PUSH1 0x0 PUSH1 0x40 MLOAD DUP1 PUSH1 0x60 ADD PUSH1 0x40 MSTORE DUP1 DUP7 DUP7 DUP1 DUP1 PUSH1 0x1F ADD PUSH1 0x20 DUP1 SWAP2 DIV MUL PUSH1 0x20 ADD PUSH1 0x40 MLOAD SWAP1 DUP2 ADD PUSH1 0x40 MSTORE DUP1 SWAP4 SWAP3 SWAP2 SWAP1 DUP2 DUP2 MSTORE PUSH1 0x20 ADD DUP4 DUP4 DUP1 DUP3 DUP5 CALLDATACOPY PUSH1 0x0 DUP2 DUP5 ADD MSTORE PUSH1 0x1F NOT PUSH1 0x1F DUP3 ADD AND SWAP1 POP DUP1 DUP4 ADD SWAP3 POP POP POP POP POP POP POP DUP2 MSTORE PUSH1 0x20 ADD DUP5 DUP2 MSTORE PUSH1 0x20 ADD DUP4 DUP2 MSTORE POP SWAP1 DUP1 PUSH1 0x1 DUP2 SLOAD ADD DUP1 DUP3 SSTORE DUP1 SWAP2 POP POP PUSH1 0x1 SWAP1 SUB SWAP1 PUSH1 0x0 MSTORE PUSH1 0x20 PUSH1 0x0 KECCAK256 SWAP1 PUSH1 0x3 MUL ADD PUSH1 0x0 SWAP1 SWAP2 SWAP1 SWAP2 SWAP1 SWAP2 POP PUSH1 0x0 DUP3 ADD MLOAD DUP2 PUSH1 0x0 ADD SWAP1 DUP2 PUSH2 0x114 SWAP2 SWAP1 PUSH2 0x75D JUMP JUMPDEST POP PUSH1 0x20 DUP3 ADD MLOAD DUP2 PUSH1 0x1 ADD SSTORE PUSH1 0x40 DUP3 ADD MLOAD DUP2 PUSH1 0x2 ADD SSTORE POP POP POP POP POP POP JUMP JUMPDEST PUSH1 0x60 PUSH1 0x0 DUP1 SLOAD DUP1 PUSH1 0x20 MUL PUSH1 0x20 ADD PUSH1 0x40 MLOAD SWAP1 DUP2 ADD PUSH1 0x40 MSTORE DUP1 SWAP3 SWAP2 SWAP1 DUP2 DUP2 MSTORE PUSH1 0x20 ADD PUSH1 0x0 SWAP1 JUMPDEST DUP3 DUP3 LT ISZERO PUSH2 0x22D JUMPI DUP4 DUP3 SWAP1 PUSH1 0x0 MSTORE PUSH1 0x20 PUSH1 0x0 KECCAK256 SWAP1 PUSH1 0x3 MUL ADD PUSH1 0x40 MLOAD DUP1 PUSH1 0x60 ADD PUSH1 0x40 MSTORE SWAP1 DUP2 PUSH1 0x0 DUP3 ADD DUP1 SLOAD PUSH2 0x188 SWAP1 PUSH2 0x580 JUMP JUMPDEST DUP1 PUSH1 0x1F ADD PUSH1 0x20 DUP1 SWAP2 DIV MUL PUSH1 0x20 ADD PUSH1 0x40 MLOAD SWAP1 DUP2 ADD PUSH1 0x40 MSTORE DUP1 SWAP3 SWAP2 SWAP1 DUP2 DUP2 MSTORE PUSH1 0x20 ADD DUP3 DUP1 SLOAD PUSH2 0x1B4 SWAP1 PUSH2 0x580 JUMP JUMPDEST DUP1 ISZERO PUSH2 0x201 JUMPI DUP1 PUSH1 0x1F LT PUSH2 0x1D6 JUMPI PUSH2 0x100 DUP1 DUP4 SLOAD DIV MUL DUP4 MSTORE SWAP2 PUSH1 0x20 ADD SWAP2 PUSH2 0x201 JUMP JUMPDEST DUP3 ADD SWAP2 SWAP1 PUSH1 0x0 MSTORE PUSH1 0x20 PUSH1 0x0 KECCAK256 SWAP1 JUMPDEST DUP2 SLOAD DUP2 MSTORE SWAP1 PUSH1 0x1 ADD SWAP1 PUSH1 0x20 ADD DUP1 DUP4 GT PUSH2 0x1E4 JUMPI DUP3 SWAP1 SUB PUSH1 0x1F AND DUP3 ADD SWAP2 JUMPDEST POP POP POP POP POP DUP2 MSTORE PUSH1 0x20 ADD PUSH1 0x1 DUP3 ADD SLOAD DUP2 MSTORE PUSH1 0x20 ADD PUSH1 0x2 DUP3 ADD SLOAD DUP2 MSTORE POP POP DUP2 MSTORE PUSH1 0x20 ADD SWAP1 PUSH1 0x1 ADD SWAP1 PUSH2 0x155 JUMP JUMPDEST POP POP POP POP SWAP1 POP SWAP1 JUMP JUMPDEST PUSH1 0x0 DUP1 REVERT JUMPDEST PUSH1 0x0 DUP1 REVERT JUMPDEST PUSH1 0x0 DUP1 REVERT JUMPDEST PUSH1 0x0 DUP1 REVERT JUMPDEST PUSH1 0x0 DUP1 REVERT JUMPDEST PUSH1 0x0 DUP1 DUP4 PUSH1 0x1F DUP5 ADD SLT PUSH2 0x265 JUMPI PUSH2 0x264 PUSH2 0x240 JUMP JUMPDEST JUMPDEST DUP3 CALLDATALOAD SWAP1 POP PUSH8 0xFFFFFFFFFFFFFFFF DUP2 GT ISZERO PUSH2 0x282 JUMPI PUSH2 0x281 PUSH2 0x245 JUMP JUMPDEST JUMPDEST PUSH1 0x20 DUP4 ADD SWAP2 POP DUP4 PUSH1 0x1 DUP3 MUL DUP4 ADD GT ISZERO PUSH2 0x29E JUMPI PUSH2 0x29D PUSH2 0x24A JUMP JUMPDEST JUMPDEST SWAP3 POP SWAP3 SWAP1 POP JUMP JUMPDEST PUSH1 0x0 DUP2 SWAP1 POP SWAP2 SWAP1 POP JUMP JUMPDEST PUSH2 0x2B8 DUP2 PUSH2 0x2A5 JUMP JUMPDEST DUP2 EQ PUSH2 0x2C3 JUMPI PUSH1 0x0 DUP1 REVERT JUMPDEST POP JUMP JUMPDEST PUSH1 0x0 DUP2 CALLDATALOAD SWAP1 POP PUSH2 0x2D5 DUP2 PUSH2 0x2AF JUMP JUMPDEST SWAP3 SWAP2 POP POP JUMP JUMPDEST PUSH1 0x0 DUP1 PUSH1 0x0 DUP1 PUSH1 0x60 DUP6 DUP8 SUB SLT ISZERO PUSH2 0x2F5 JUMPI PUSH2 0x2F4 PUSH2 0x236 JUMP JUMPDEST JUMPDEST PUSH1 0x0 DUP6 ADD CALLDATALOAD PUSH8 0xFFFFFFFFFFFFFFFF DUP2 GT ISZERO PUSH2 0x313 JUMPI PUSH2 0x312 PUSH2 0x23B JUMP JUMPDEST JUMPDEST PUSH2 0x31F DUP8 DUP3 DUP9 ADD PUSH2 0x24F JUMP JUMPDEST SWAP5 POP SWAP5 POP POP PUSH1 0x20 PUSH2 0x332 DUP8 DUP3 DUP9 ADD PUSH2 0x2C6 JUMP JUMPDEST SWAP3 POP POP PUSH1 0x40 PUSH2 0x343 DUP8 DUP3 DUP9 ADD PUSH2 0x2C6 JUMP JUMPDEST SWAP2 POP POP SWAP3 SWAP6 SWAP2 SWAP5 POP SWAP3 POP JUMP JUMPDEST PUSH1 0x0 DUP2 MLOAD SWAP1 POP SWAP2 SWAP1 POP JUMP JUMPDEST PUSH1 0x0 DUP3 DUP3 MSTORE PUSH1 0x20 DUP3 ADD SWAP1 POP SWAP3 SWAP2 POP POP JUMP JUMPDEST PUSH1 0x0 DUP2 SWAP1 POP PUSH1 0x20 DUP3 ADD SWAP1 POP SWAP2 SWAP1 POP JUMP JUMPDEST PUSH1 0x0 DUP2 MLOAD SWAP1 POP SWAP2 SWAP1 POP JUMP JUMPDEST PUSH1 0x0 DUP3 DUP3 MSTORE PUSH1 0x20 DUP3 ADD SWAP1 POP SWAP3 SWAP2 POP POP JUMP JUMPDEST PUSH1 0x0 JUMPDEST DUP4 DUP2 LT ISZERO PUSH2 0x3B5 JUMPI DUP1 DUP3 ADD MLOAD DUP2 DUP5 ADD MSTORE PUSH1 0x20 DUP2 ADD SWAP1 POP PUSH2 0x39A JUMP JUMPDEST PUSH1 0x0 DUP5 DUP5 ADD MSTORE POP POP POP POP JUMP JUMPDEST PUSH1 0x0 PUSH1 0x1F NOT PUSH1 0x1F DUP4 ADD AND SWAP1 POP SWAP2 SWAP1 POP JUMP JUMPDEST PUSH1 0x0 PUSH2 0x3DD DUP3 PUSH2 0x37B JUMP JUMPDEST PUSH2 0x3E7 DUP2 DUP6 PUSH2 0x386 JUMP JUMPDEST SWAP4 POP PUSH2 0x3F7 DUP2 DUP6 PUSH1 0x20 DUP7 ADD PUSH2 0x397 JUMP JUMPDEST PUSH2 0x400 DUP2 PUSH2 0x3C1 JUMP JUMPDEST DUP5 ADD SWAP2 POP POP SWAP3 SWAP2 POP POP JUMP JUMPDEST PUSH2 0x414 DUP2 PUSH2 0x2A5 JUMP JUMPDEST DUP3 MSTORE POP POP JUMP JUMPDEST PUSH1 0x0 PUSH1 0x60 DUP4 ADD PUSH1 0x0 DUP4 ADD MLOAD DUP5 DUP3 SUB PUSH1 0x0 DUP7 ADD MSTORE PUSH2 0x437 DUP3 DUP3 PUSH2 0x3D2 JUMP JUMPDEST SWAP2 POP POP PUSH1 0x20 DUP4 ADD MLOAD PUSH2 0x44C PUSH1 0x20 DUP7 ADD DUP3 PUSH2 0x40B JUMP JUMPDEST POP PUSH1 0x40 DUP4 ADD MLOAD PUSH2 0x45F PUSH1 0x40 DUP7 ADD DUP3 PUSH2 0x40B JUMP JUMPDEST POP DUP1 SWAP2 POP POP SWAP3 SWAP2 POP POP JUMP JUMPDEST PUSH1 0x0 PUSH2 0x476 DUP4 DUP4 PUSH2 0x41A JUMP JUMPDEST SWAP1 POP SWAP3 SWAP2 POP POP JUMP JUMPDEST PUSH1 0x0 PUSH1 0x20 DUP3 ADD SWAP1 POP SWAP2 SWAP1 POP JUMP JUMPDEST PUSH1 0x0 PUSH2 0x496 DUP3 PUSH2 0x34F JUMP JUMPDEST PUSH2 0x4A0 DUP2 DUP6 PUSH2 0x35A JUMP JUMPDEST SWAP4 POP DUP4 PUSH1 0x20 DUP3 MUL DUP6 ADD PUSH2 0x4B2 DUP6 PUSH2 0x36B JUMP JUMPDEST DUP1 PUSH1 0x0 JUMPDEST DUP6 DUP2 LT ISZERO PUSH2 0x4EE JUMPI DUP5 DUP5 SUB DUP10 MSTORE DUP2 MLOAD PUSH2 0x4CF DUP6 DUP3 PUSH2 0x46A JUMP JUMPDEST SWAP5 POP PUSH2 0x4DA DUP4 PUSH2 0x47E JUMP JUMPDEST SWAP3 POP PUSH1 0x20 DUP11 ADD SWAP10 POP POP PUSH1 0x1 DUP2 ADD SWAP1 POP PUSH2 0x4B6 JUMP JUMPDEST POP DUP3 SWAP8 POP DUP8 SWAP6 POP POP POP POP POP POP SWAP3 SWAP2 POP POP JUMP JUMPDEST PUSH1 0x0 PUSH1 0x20 DUP3 ADD SWAP1 POP DUP2 DUP2 SUB PUSH1 0x0 DUP4 ADD MSTORE PUSH2 0x51A DUP2 DUP5 PUSH2 0x48B JUMP JUMPDEST SWAP1 POP SWAP3 SWAP2 POP POP JUMP JUMPDEST PUSH32 0x4E487B7100000000000000000000000000000000000000000000000000000000 PUSH1 0x0 MSTORE PUSH1 0x41 PUSH1 0x4 MSTORE PUSH1 0x24 PUSH1 0x0 REVERT JUMPDEST PUSH32 0x4E487B7100000000000000000000000000000000000000000000000000000000 PUSH1 0x0 MSTORE PUSH1 0x22 PUSH1 0x4 MSTORE PUSH1 0x24 PUSH1 0x0 REVERT JUMPDEST PUSH1 0x0 PUSH1 0x2 DUP3 DIV SWAP1 POP PUSH1 0x1 DUP3 AND DUP1 PUSH2 0x598 JUMPI PUSH1 0x7F DUP3 AND SWAP2 POP JUMPDEST PUSH1 0x20 DUP3 LT DUP2 SUB PUSH2 0x5AB JUMPI PUSH2 0x5AA PUSH2 0x551 JUMP JUMPDEST JUMPDEST POP SWAP2 SWAP1 POP JUMP JUMPDEST PUSH1 0x0 DUP2 SWAP1 POP DUP2 PUSH1 0x0 MSTORE PUSH1 0x20 PUSH1 0x0 KECCAK256 SWAP1 POP SWAP2 SWAP1 POP JUMP JUMPDEST PUSH1 0x0 PUSH1 0x20 PUSH1 0x1F DUP4 ADD DIV SWAP1 POP SWAP2 SWAP1 POP JUMP JUMPDEST PUSH1 0x0 DUP3 DUP3 SHL SWAP1 POP SWAP3 SWAP2 POP POP JUMP JUMPDEST PUSH1 0x0 PUSH1 0x8 DUP4 MUL PUSH2 0x613 PUSH32 0xFFFFFFFFFFFFFFFFFFFFFFFFFFFFFFFFFFFFFFFFFFFFFFFFFFFFFFFFFFFFFFFF DUP3 PUSH2 0x5D6 JUMP JUMPDEST PUSH2 0x61D DUP7 DUP4 PUSH2 0x5D6 JUMP JUMPDEST SWAP6 POP DUP1 NOT DUP5 AND SWAP4 POP DUP1 DUP7 AND DUP5 OR SWAP3 POP POP POP SWAP4 SWAP3 POP POP POP JUMP JUMPDEST PUSH1 0x0 DUP2 SWAP1 POP SWAP2 SWAP1 POP JUMP JUMPDEST PUSH1 0x0 PUSH2 0x65A PUSH2 0x655 PUSH2 0x650 DUP5 PUSH2 0x2A5 JUMP JUMPDEST PUSH2 0x635 JUMP JUMPDEST PUSH2 0x2A5 JUMP JUMPDEST SWAP1 POP SWAP2 SWAP1 POP JUMP JUMPDEST PUSH1 0x0 DUP2 SWAP1 POP SWAP2 SWAP1 POP JUMP JUMPDEST PUSH2 0x674 DUP4 PUSH2 0x63F JUMP JUMPDEST PUSH2 0x688 PUSH2 0x680 DUP3 PUSH2 0x661 JUMP JUMPDEST DUP5 DUP5 SLOAD PUSH2 0x5E3 JUMP JUMPDEST DUP3 SSTORE POP POP POP POP JUMP JUMPDEST PUSH1 0x0 SWAP1 JUMP JUMPDEST PUSH2 0x69D PUSH2 0x690 JUMP JUMPDEST PUSH2 0x6A8 DUP2 DUP5 DUP5 PUSH2 0x66B JUMP JUMPDEST POP POP POP JUMP JUMPDEST JUMPDEST DUP2 DUP2 LT ISZERO PUSH2 0x6CC JUMPI PUSH2 0x6C1 PUSH1 0x0 DUP3 PUSH2 0x695 JUMP JUMPDEST PUSH1 0x1 DUP2 ADD SWAP1 POP PUSH2 0x6AE JUMP JUMPDEST POP POP JUMP JUMPDEST PUSH1 0x1F DUP3 GT ISZERO PUSH2 0x711 JUMPI PUSH2 0x6E2 DUP2 PUSH2 0x5B1 JUMP JUMPDEST PUSH2 0x6EB DUP5 PUSH2 0x5C6 JUMP JUMPDEST DUP2 ADD PUSH1 0x20 DUP6 LT ISZERO PUSH2 0x6FA JUMPI DUP2 SWAP1 POP JUMPDEST PUSH2 0x70E PUSH2 0x706 DUP6 PUSH2 0x5C6 JUMP JUMPDEST DUP4 ADD DUP3 PUSH2 0x6AD JUMP JUMPDEST POP POP JUMPDEST POP POP POP JUMP JUMPDEST PUSH1 0x0 DUP3 DUP3 SHR SWAP1 POP SWAP3 SWAP2 POP POP JUMP JUMPDEST PUSH1 0x0 PUSH2 0x734 PUSH1 0x0 NOT DUP5 PUSH1 0x8 MUL PUSH2 0x716 JUMP JUMPDEST NOT DUP1 DUP4 AND SWAP2 POP POP SWAP3 SWAP2 POP POP JUMP JUMPDEST PUSH1 0x0 PUSH2 0x74D DUP4 DUP4 PUSH2 0x723 JUMP JUMPDEST SWAP2 POP DUP3 PUSH1 0x2 MUL DUP3 OR SWAP1 POP SWAP3 SWAP2 POP POP JUMP JUMPDEST PUSH2 0x766 DUP3 PUSH2 0x37B JUMP JUMPDEST PUSH8 0xFFFFFFFFFFFFFFFF DUP2 GT ISZERO PUSH2 0x77F JUMPI PUSH2 0x77E PUSH2 0x522 JUMP JUMPDEST JUMPDEST PUSH2 0x789 DUP3 SLOAD PUSH2 0x580 JUMP JUMPDEST PUSH2 0x794 DUP3 DUP3 DUP6 PUSH2 0x6D0 JUMP JUMPDEST PUSH1 0x0 PUSH1 0x20 SWAP1 POP PUSH1 0x1F DUP4 GT PUSH1 0x1 DUP2 EQ PUSH2 0x7C7 JUMPI PUSH1 0x0 DUP5 ISZERO PUSH2 0x7B5 JUMPI DUP3 DUP8 ADD MLOAD SWAP1 POP JUMPDEST PUSH2 0x7BF DUP6 DUP3 PUSH2 0x741 JUMP JUMPDEST DUP7 SSTORE POP PUSH2 0x827 JUMP JUMPDEST PUSH1 0x1F NOT DUP5 AND PUSH2 0x7D5 DUP7 PUSH2 0x5B1 JUMP JUMPDEST PUSH1 0x0 JUMPDEST DUP3 DUP2 LT ISZERO PUSH2 0x7FD JUMPI DUP5 DUP10 ADD MLOAD DUP3 SSTORE PUSH1 0x1 DUP3 ADD SWAP2 POP PUSH1 0x20 DUP6 ADD SWAP5 POP PUSH1 0x20 DUP2 ADD SWAP1 POP PUSH2 0x7D8 JUMP JUMPDEST DUP7 DUP4 LT ISZERO PUSH2 0x81A JUMPI DUP5 DUP10 ADD MLOAD PUSH2 0x816 PUSH1 0x1F DUP10 AND DUP3 PUSH2 0x723 JUMP JUMPDEST DUP4 SSTORE POP JUMPDEST PUSH1 0x1 PUSH1 0x2 DUP9 MUL ADD DUP9 SSTORE POP POP POP JUMPDEST POP POP POP POP POP POP JUMP INVALID LOG2 PUSH5 0x6970667358 0x22 SLT KECCAK256 0x23 0x2C 0xE8 DUP2 0xEC 0xD 0xD3 0xEB 0xEE LOG3 PUSH31 0x91AF3E6CDCF506E9022B82D3E84900C0133F80ABB564736F6C634300081200 CALLER "
				},
				"gasEstimates": {
					"creation": {
						"codeDepositCost": "429800",
						"executionCost": "468",
						"totalCost": "430268"
					},
					"external": {
						"getDetails()": "infinite",
						"insertDetails(string,uint256,uint256)": "infinite"
					}
				},
				"methodIdentifiers": {
					"getDetails()": "fbbf93a0",
					"insertDetails(string,uint256,uint256)": "a27c794b"
				}
			},
			"storageLayout": {
				"storage": [
					{
						"astId": 268,
						"contract": "solidity_advance_assignment.sol:multipleStudentDetails",
						"label": "s",
						"offset": 0,
						"slot": "0",
						"type": "t_array(t_struct(student)233_storage)dyn_storage"
					}
				],
				"types": {
					"t_array(t_struct(student)233_storage)dyn_storage": {
						"base": "t_struct(student)233_storage",
						"encoding": "dynamic_array",
						"label": "struct student[]",
						"numberOfBytes": "32"
					},
					"t_string_storage": {
						"encoding": "bytes",
						"label": "string",
						"numberOfBytes": "32"
					},
					"t_struct(student)233_storage": {
						"encoding": "inplace",
						"label": "struct student",
						"members": [
							{
								"astId": 228,
								"contract": "solidity_advance_assignment.sol:multipleStudentDetails",
								"label": "name",
								"offset": 0,
								"slot": "0",
								"type": "t_string_storage"
							},
							{
								"astId": 230,
								"contract": "solidity_advance_assignment.sol:multipleStudentDetails",
								"label": "rollNO",
								"offset": 0,
								"slot": "1",
								"type": "t_uint256"
							},
							{
								"astId": 232,
								"contract": "solidity_advance_assignment.sol:multipleStudentDetails",
								"label": "age",
								"offset": 0,
								"slot": "2",
								"type": "t_uint256"
							}
						],
						"numberOfBytes": "96"
					},
					"t_uint256": {
						"encoding": "inplace",
						"label": "uint256",
						"numberOfBytes": "32"
					}
				}
			},
			"userdoc": {
				"kind": "user",
				"methods": {},
				"version": 1
			}
		}
	}
}