{
	"solidity_advance_assignment.sol": {
		"studentDetails": {
			"abi": [
				{
					"inputs": [],
					"name": "getDetails",
					"outputs": [
						{
							"components": [
								{
									"internalType": "string",
									"name": "name",
									"type": "string"
								},
								{
									"internalType": "uint256",
									"name": "rollNO",
									"type": "uint256"
								},
								{
									"internalType": "uint256",
									"name": "age",
									"type": "uint256"
								}
							],
							"internalType": "struct student",
							"name": "",
							"type": "tuple"
						}
					],
					"stateMutability": "view",
					"type": "function"
				},
				{
					"inputs": [
						{
							"internalType": "string",
							"name": "_name",
							"type": "string"
						},
						{
							"internalType": "uint256",
							"name": "_rollNo",
							"type": "uint256"
						},
						{
							"internalType": "uint256",
							"name": "_age",
							"type": "uint256"
						}
					],
					"name": "insertDetails",
					"outputs": [],
					"stateMutability": "nonpayable",
					"type": "function"
				}
			],
			"devdoc": {
				"kind": "dev",
				"methods": {},
				"version": 1
			},
			"evm": {
				"assembly": "    /* \"solidity_advance_assignment.sol\":1852:2126  contract studentDetails{... */\n  mstore(0x40, 0x80)\n  callvalue\n  dup1\n  iszero\n  tag_1\n  jumpi\n  0x00\n  dup1\n  revert\ntag_1:\n  pop\n  dataSize(sub_0)\n  dup1\n  dataOffset(sub_0)\n  0x00\n  codecopy\n  0x00\n  return\nstop\n\nsub_0: assembly {\n        /* \"solidity_advance_assignment.sol\":1852:2126  contract studentDetails{... */\n      mstore(0x40, 0x80)\n      callvalue\n      dup1\n      iszero\n      tag_1\n      jumpi\n      0x00\n      dup1\n      revert\n    tag_1:\n      pop\n      jumpi(tag_2, lt(calldatasize, 0x04))\n      shr(0xe0, calldataload(0x00))\n      dup1\n      0xa27c794b\n      eq\n      tag_3\n      jumpi\n      dup1\n      0xfbbf93a0\n      eq\n      tag_4\n      jumpi\n    tag_2:\n      0x00\n      dup1\n      revert\n        /* \"solidity_advance_assignment.sol\":1901:2032  function insertDetails(string calldata _name, uint _rollNo, uint _age) public {... */\n    tag_3:\n      tag_5\n      0x04\n      dup1\n      calldatasize\n      sub\n      dup2\n      add\n      swap1\n      tag_6\n      swap2\n      swap1\n      tag_7\n      jump\t// in\n    tag_6:\n      tag_8\n      jump\t// in\n    tag_5:\n      stop\n        /* \"solidity_advance_assignment.sol\":2038:2123  function getDetails() public view returns(student memory){... */\n    tag_4:\n      tag_9\n      tag_10\n      jump\t// in\n    tag_9:\n      mload(0x40)\n      tag_11\n      swap2\n      swap1\n      tag_12\n      jump\t// in\n    tag_11:\n      mload(0x40)\n      dup1\n      swap2\n      sub\n      swap1\n      return\n        /* \"solidity_advance_assignment.sol\":1901:2032  function insertDetails(string calldata _name, uint _rollNo, uint _age) public {... */\n    tag_8:\n        /* \"solidity_advance_assignment.sol\":1995:2024  student(_name, _rollNo, _age) */\n      mload(0x40)\n      dup1\n      0x60\n      add\n      0x40\n      mstore\n      dup1\n        /* \"solidity_advance_assignment.sol\":2003:2008  _name */\n      dup6\n      dup6\n        /* \"solidity_advance_assignment.sol\":1995:2024  student(_name, _rollNo, _age) */\n      dup1\n      dup1\n      0x1f\n      add\n      0x20\n      dup1\n      swap2\n      div\n      mul\n      0x20\n      add\n      mload(0x40)\n      swap1\n      dup2\n      add\n      0x40\n      mstore\n      dup1\n      swap4\n      swap3\n      swap2\n      swap1\n      dup2\n      dup2\n      mstore\n      0x20\n      add\n      dup4\n      dup4\n      dup1\n      dup3\n      dup5\n      calldatacopy\n      0x00\n      dup2\n      dup5\n      add\n      mstore\n      not(0x1f)\n      0x1f\n      dup3\n      add\n      and\n      swap1\n      pop\n      dup1\n      dup4\n      add\n      swap3\n      pop\n      pop\n      pop\n      pop\n      pop\n      pop\n      pop\n      dup2\n      mstore\n      0x20\n      add\n        /* \"solidity_advance_assignment.sol\":2010:2017  _rollNo */\n      dup4\n        /* \"solidity_advance_assignment.sol\":1995:2024  student(_name, _rollNo, _age) */\n      dup2\n      mstore\n      0x20\n      add\n        /* \"solidity_advance_assignment.sol\":2019:2023  _age */\n      dup3\n        /* \"solidity_advance_assignment.sol\":1995:2024  student(_name, _rollNo, _age) */\n      dup2\n      mstore\n      pop\n        /* \"solidity_advance_assignment.sol\":1990:1992  s1 */\n      0x00\n        /* \"solidity_advance_assignment.sol\":1990:2024  s1 = student(_name, _rollNo, _age) */\n      dup1\n      dup3\n      add\n      mload\n      dup2\n      0x00\n      add\n      swap1\n      dup2\n      tag_14\n      swap2\n      swap1\n      tag_15\n      jump\t// in\n    tag_14:\n      pop\n      0x20\n      dup3\n      add\n      mload\n      dup2\n      0x01\n      add\n      sstore\n      0x40\n      dup3\n      add\n      mload\n      dup2\n      0x02\n      add\n      sstore\n      swap1\n      pop\n      pop\n        /* \"solidity_advance_assignment.sol\":1901:2032  function insertDetails(string calldata _name, uint _rollNo, uint _age) public {... */\n      pop\n      pop\n      pop\n      pop\n      jump\t// out\n        /* \"solidity_advance_assignment.sol\":2038:2123  function getDetails() public view returns(student memory){... */\n    tag_10:\n        /* \"solidity_advance_assignment.sol\":2080:2094  student memory */\n      tag_16\n      tag_17\n      jump\t// in\n    tag_16:\n        /* \"solidity_advance_assignment.sol\":2113:2115  s1 */\n      0x00\n        /* \"solidity_advance_assignment.sol\":2106:2115  return s1 */\n      mload(0x40)\n      dup1\n      0x60\n      add\n      0x40\n      mstore\n      swap1\n      dup2\n      0x00\n      dup3\n      add\n      dup1\n      sload\n      tag_19\n      swap1\n      tag_20\n      jump\t// in\n    tag_19:\n      dup1\n      0x1f\n      add\n      0x20\n      dup1\n      swap2\n      div\n      mul\n      0x20\n      add\n      mload(0x40)\n      swap1\n      dup2\n      add\n      0x40\n      mstore\n      dup1\n      swap3\n      swap2\n      swap1\n      dup2\n      dup2\n      mstore\n      0x20\n      add\n      dup3\n      dup1\n      sload\n      tag_21\n      swap1\n      tag_20\n      jump\t// in\n    tag_21:\n      dup1\n      iszero\n      tag_22\n      jumpi\n      dup1\n      0x1f\n      lt\n      tag_23\n      jumpi\n      0x0100\n      dup1\n      dup4\n      sload\n      div\n      mul\n      dup4\n      mstore\n      swap2\n      0x20\n      add\n      swap2\n      jump(tag_22)\n    tag_23:\n      dup3\n      add\n      swap2\n      swap1\n      0x00\n      mstore\n      keccak256(0x00, 0x20)\n      swap1\n    tag_24:\n      dup2\n      sload\n      dup2\n      mstore\n      swap1\n      0x01\n      add\n      swap1\n      0x20\n      add\n      dup1\n      dup4\n      gt\n      tag_24\n      jumpi\n      dup3\n      swap1\n      sub\n      0x1f\n      and\n      dup3\n      add\n      swap2\n    tag_22:\n      pop\n      pop\n      pop\n      pop\n      pop\n      dup2\n      mstore\n      0x20\n      add\n      0x01\n      dup3\n      add\n      sload\n      dup2\n      mstore\n      0x20\n      add\n      0x02\n      dup3\n      add\n      sload\n      dup2\n      mstore\n      pop\n      pop\n      swap1\n      pop\n        /* \"solidity_advance_assignment.sol\":2038:2123  function getDetails() public view returns(student memory){... */\n      swap1\n      jump\t// out\n    tag_17:\n      mload(0x40)\n      dup1\n      0x60\n      add\n      0x40\n      mstore\n      dup1\n      0x60\n      dup2\n      mstore\n      0x20\n      add\n      0x00\n      dup2\n      mstore\n      0x20\n      add\n      0x00\n      dup2\n      mstore\n      pop\n      swap1\n      jump\t// out\n        /* \"#utility.yul\":88:205   */\n    tag_26:\n        /* \"#utility.yul\":197:198   */\n      0x00\n        /* \"#utility.yul\":194:195   */\n      dup1\n        /* \"#utility.yul\":187:199   */\n      revert\n        /* \"#utility.yul\":211:328   */\n    tag_27:\n        /* \"#utility.yul\":320:321   */\n      0x00\n        /* \"#utility.yul\":317:318   */\n      dup1\n        /* \"#utility.yul\":310:322   */\n      revert\n        /* \"#utility.yul\":334:451   */\n    tag_28:\n        /* \"#utility.yul\":443:444   */\n      0x00\n        /* \"#utility.yul\":440:441   */\n      dup1\n        /* \"#utility.yul\":433:445   */\n      revert\n        /* \"#utility.yul\":457:574   */\n    tag_29:\n        /* \"#utility.yul\":566:567   */\n      0x00\n        /* \"#utility.yul\":563:564   */\n      dup1\n        /* \"#utility.yul\":556:568   */\n      revert\n        /* \"#utility.yul\":580:697   */\n    tag_30:\n        /* \"#utility.yul\":689:690   */\n      0x00\n        /* \"#utility.yul\":686:687   */\n      dup1\n        /* \"#utility.yul\":679:691   */\n      revert\n        /* \"#utility.yul\":717:1270   */\n    tag_31:\n        /* \"#utility.yul\":775:783   */\n      0x00\n        /* \"#utility.yul\":785:791   */\n      dup1\n        /* \"#utility.yul\":835:838   */\n      dup4\n        /* \"#utility.yul\":828:832   */\n      0x1f\n        /* \"#utility.yul\":820:826   */\n      dup5\n        /* \"#utility.yul\":816:833   */\n      add\n        /* \"#utility.yul\":812:839   */\n      slt\n        /* \"#utility.yul\":802:924   */\n      tag_67\n      jumpi\n        /* \"#utility.yul\":843:922   */\n      tag_68\n      tag_28\n      jump\t// in\n    tag_68:\n        /* \"#utility.yul\":802:924   */\n    tag_67:\n        /* \"#utility.yul\":956:962   */\n      dup3\n        /* \"#utility.yul\":943:963   */\n      calldataload\n        /* \"#utility.yul\":933:963   */\n      swap1\n      pop\n        /* \"#utility.yul\":986:1004   */\n      0xffffffffffffffff\n        /* \"#utility.yul\":978:984   */\n      dup2\n        /* \"#utility.yul\":975:1005   */\n      gt\n        /* \"#utility.yul\":972:1089   */\n      iszero\n      tag_69\n      jumpi\n        /* \"#utility.yul\":1008:1087   */\n      tag_70\n      tag_29\n      jump\t// in\n    tag_70:\n        /* \"#utility.yul\":972:1089   */\n    tag_69:\n        /* \"#utility.yul\":1122:1126   */\n      0x20\n        /* \"#utility.yul\":1114:1120   */\n      dup4\n        /* \"#utility.yul\":1110:1127   */\n      add\n        /* \"#utility.yul\":1098:1127   */\n      swap2\n      pop\n        /* \"#utility.yul\":1176:1179   */\n      dup4\n        /* \"#utility.yul\":1168:1172   */\n      0x01\n        /* \"#utility.yul\":1160:1166   */\n      dup3\n        /* \"#utility.yul\":1156:1173   */\n      mul\n        /* \"#utility.yul\":1146:1154   */\n      dup4\n        /* \"#utility.yul\":1142:1174   */\n      add\n        /* \"#utility.yul\":1139:1180   */\n      gt\n        /* \"#utility.yul\":1136:1264   */\n      iszero\n      tag_71\n      jumpi\n        /* \"#utility.yul\":1183:1262   */\n      tag_72\n      tag_30\n      jump\t// in\n    tag_72:\n        /* \"#utility.yul\":1136:1264   */\n    tag_71:\n        /* \"#utility.yul\":717:1270   */\n      swap3\n      pop\n      swap3\n      swap1\n      pop\n      jump\t// out\n        /* \"#utility.yul\":1276:1353   */\n    tag_32:\n        /* \"#utility.yul\":1313:1320   */\n      0x00\n        /* \"#utility.yul\":1342:1347   */\n      dup2\n        /* \"#utility.yul\":1331:1347   */\n      swap1\n      pop\n        /* \"#utility.yul\":1276:1353   */\n      swap2\n      swap1\n      pop\n      jump\t// out\n        /* \"#utility.yul\":1359:1481   */\n    tag_33:\n        /* \"#utility.yul\":1432:1456   */\n      tag_75\n        /* \"#utility.yul\":1450:1455   */\n      dup2\n        /* \"#utility.yul\":1432:1456   */\n      tag_32\n      jump\t// in\n    tag_75:\n        /* \"#utility.yul\":1425:1430   */\n      dup2\n        /* \"#utility.yul\":1422:1457   */\n      eq\n        /* \"#utility.yul\":1412:1475   */\n      tag_76\n      jumpi\n        /* \"#utility.yul\":1471:1472   */\n      0x00\n        /* \"#utility.yul\":1468:1469   */\n      dup1\n        /* \"#utility.yul\":1461:1473   */\n      revert\n        /* \"#utility.yul\":1412:1475   */\n    tag_76:\n        /* \"#utility.yul\":1359:1481   */\n      pop\n      jump\t// out\n        /* \"#utility.yul\":1487:1626   */\n    tag_34:\n        /* \"#utility.yul\":1533:1538   */\n      0x00\n        /* \"#utility.yul\":1571:1577   */\n      dup2\n        /* \"#utility.yul\":1558:1578   */\n      calldataload\n        /* \"#utility.yul\":1549:1578   */\n      swap1\n      pop\n        /* \"#utility.yul\":1587:1620   */\n      tag_78\n        /* \"#utility.yul\":1614:1619   */\n      dup2\n        /* \"#utility.yul\":1587:1620   */\n      tag_33\n      jump\t// in\n    tag_78:\n        /* \"#utility.yul\":1487:1626   */\n      swap3\n      swap2\n      pop\n      pop\n      jump\t// out\n        /* \"#utility.yul\":1632:2451   */\n    tag_7:\n        /* \"#utility.yul\":1721:1727   */\n      0x00\n        /* \"#utility.yul\":1729:1735   */\n      dup1\n        /* \"#utility.yul\":1737:1743   */\n      0x00\n        /* \"#utility.yul\":1745:1751   */\n      dup1\n        /* \"#utility.yul\":1794:1796   */\n      0x60\n        /* \"#utility.yul\":1782:1791   */\n      dup6\n        /* \"#utility.yul\":1773:1780   */\n      dup8\n        /* \"#utility.yul\":1769:1792   */\n      sub\n        /* \"#utility.yul\":1765:1797   */\n      slt\n        /* \"#utility.yul\":1762:1881   */\n      iszero\n      tag_80\n      jumpi\n        /* \"#utility.yul\":1800:1879   */\n      tag_81\n      tag_26\n      jump\t// in\n    tag_81:\n        /* \"#utility.yul\":1762:1881   */\n    tag_80:\n        /* \"#utility.yul\":1948:1949   */\n      0x00\n        /* \"#utility.yul\":1937:1946   */\n      dup6\n        /* \"#utility.yul\":1933:1950   */\n      add\n        /* \"#utility.yul\":1920:1951   */\n      calldataload\n        /* \"#utility.yul\":1978:1996   */\n      0xffffffffffffffff\n        /* \"#utility.yul\":1970:1976   */\n      dup2\n        /* \"#utility.yul\":1967:1997   */\n      gt\n        /* \"#utility.yul\":1964:2081   */\n      iszero\n      tag_82\n      jumpi\n        /* \"#utility.yul\":2000:2079   */\n      tag_83\n      tag_27\n      jump\t// in\n    tag_83:\n        /* \"#utility.yul\":1964:2081   */\n    tag_82:\n        /* \"#utility.yul\":2113:2178   */\n      tag_84\n        /* \"#utility.yul\":2170:2177   */\n      dup8\n        /* \"#utility.yul\":2161:2167   */\n      dup3\n        /* \"#utility.yul\":2150:2159   */\n      dup9\n        /* \"#utility.yul\":2146:2168   */\n      add\n        /* \"#utility.yul\":2113:2178   */\n      tag_31\n      jump\t// in\n    tag_84:\n        /* \"#utility.yul\":2095:2178   */\n      swap5\n      pop\n      swap5\n      pop\n        /* \"#utility.yul\":1891:2188   */\n      pop\n        /* \"#utility.yul\":2227:2229   */\n      0x20\n        /* \"#utility.yul\":2253:2306   */\n      tag_85\n        /* \"#utility.yul\":2298:2305   */\n      dup8\n        /* \"#utility.yul\":2289:2295   */\n      dup3\n        /* \"#utility.yul\":2278:2287   */\n      dup9\n        /* \"#utility.yul\":2274:2296   */\n      add\n        /* \"#utility.yul\":2253:2306   */\n      tag_34\n      jump\t// in\n    tag_85:\n        /* \"#utility.yul\":2243:2306   */\n      swap3\n      pop\n        /* \"#utility.yul\":2198:2316   */\n      pop\n        /* \"#utility.yul\":2355:2357   */\n      0x40\n        /* \"#utility.yul\":2381:2434   */\n      tag_86\n        /* \"#utility.yul\":2426:2433   */\n      dup8\n        /* \"#utility.yul\":2417:2423   */\n      dup3\n        /* \"#utility.yul\":2406:2415   */\n      dup9\n        /* \"#utility.yul\":2402:2424   */\n      add\n        /* \"#utility.yul\":2381:2434   */\n      tag_34\n      jump\t// in\n    tag_86:\n        /* \"#utility.yul\":2371:2434   */\n      swap2\n      pop\n        /* \"#utility.yul\":2326:2444   */\n      pop\n        /* \"#utility.yul\":1632:2451   */\n      swap3\n      swap6\n      swap2\n      swap5\n      pop\n      swap3\n      pop\n      jump\t// out\n        /* \"#utility.yul\":2457:2556   */\n    tag_35:\n        /* \"#utility.yul\":2509:2515   */\n      0x00\n        /* \"#utility.yul\":2543:2548   */\n      dup2\n        /* \"#utility.yul\":2537:2549   */\n      mload\n        /* \"#utility.yul\":2527:2549   */\n      swap1\n      pop\n        /* \"#utility.yul\":2457:2556   */\n      swap2\n      swap1\n      pop\n      jump\t// out\n        /* \"#utility.yul\":2562:2721   */\n    tag_36:\n        /* \"#utility.yul\":2636:2647   */\n      0x00\n        /* \"#utility.yul\":2670:2676   */\n      dup3\n        /* \"#utility.yul\":2665:2668   */\n      dup3\n        /* \"#utility.yul\":2658:2677   */\n      mstore\n        /* \"#utility.yul\":2710:2714   */\n      0x20\n        /* \"#utility.yul\":2705:2708   */\n      dup3\n        /* \"#utility.yul\":2701:2715   */\n      add\n        /* \"#utility.yul\":2686:2715   */\n      swap1\n      pop\n        /* \"#utility.yul\":2562:2721   */\n      swap3\n      swap2\n      pop\n      pop\n      jump\t// out\n        /* \"#utility.yul\":2727:2973   */\n    tag_37:\n        /* \"#utility.yul\":2808:2809   */\n      0x00\n        /* \"#utility.yul\":2818:2931   */\n    tag_90:\n        /* \"#utility.yul\":2832:2838   */\n      dup4\n        /* \"#utility.yul\":2829:2830   */\n      dup2\n        /* \"#utility.yul\":2826:2839   */\n      lt\n        /* \"#utility.yul\":2818:2931   */\n      iszero\n      tag_92\n      jumpi\n        /* \"#utility.yul\":2917:2918   */\n      dup1\n        /* \"#utility.yul\":2912:2915   */\n      dup3\n        /* \"#utility.yul\":2908:2919   */\n      add\n        /* \"#utility.yul\":2902:2920   */\n      mload\n        /* \"#utility.yul\":2898:2899   */\n      dup2\n        /* \"#utility.yul\":2893:2896   */\n      dup5\n        /* \"#utility.yul\":2889:2900   */\n      add\n        /* \"#utility.yul\":2882:2921   */\n      mstore\n        /* \"#utility.yul\":2854:2856   */\n      0x20\n        /* \"#utility.yul\":2851:2852   */\n      dup2\n        /* \"#utility.yul\":2847:2857   */\n      add\n        /* \"#utility.yul\":2842:2857   */\n      swap1\n      pop\n        /* \"#utility.yul\":2818:2931   */\n      jump(tag_90)\n    tag_92:\n        /* \"#utility.yul\":2965:2966   */\n      0x00\n        /* \"#utility.yul\":2956:2962   */\n      dup5\n        /* \"#utility.yul\":2951:2954   */\n      dup5\n        /* \"#utility.yul\":2947:2963   */\n      add\n        /* \"#utility.yul\":2940:2967   */\n      mstore\n        /* \"#utility.yul\":2789:2973   */\n      pop\n        /* \"#utility.yul\":2727:2973   */\n      pop\n      pop\n      pop\n      jump\t// out\n        /* \"#utility.yul\":2979:3081   */\n    tag_38:\n        /* \"#utility.yul\":3020:3026   */\n      0x00\n        /* \"#utility.yul\":3071:3073   */\n      0x1f\n        /* \"#utility.yul\":3067:3074   */\n      not\n        /* \"#utility.yul\":3062:3064   */\n      0x1f\n        /* \"#utility.yul\":3055:3060   */\n      dup4\n        /* \"#utility.yul\":3051:3065   */\n      add\n        /* \"#utility.yul\":3047:3075   */\n      and\n        /* \"#utility.yul\":3037:3075   */\n      swap1\n      pop\n        /* \"#utility.yul\":2979:3081   */\n      swap2\n      swap1\n      pop\n      jump\t// out\n        /* \"#utility.yul\":3087:3444   */\n    tag_39:\n        /* \"#utility.yul\":3165:3168   */\n      0x00\n        /* \"#utility.yul\":3193:3232   */\n      tag_95\n        /* \"#utility.yul\":3226:3231   */\n      dup3\n        /* \"#utility.yul\":3193:3232   */\n      tag_35\n      jump\t// in\n    tag_95:\n        /* \"#utility.yul\":3248:3309   */\n      tag_96\n        /* \"#utility.yul\":3302:3308   */\n      dup2\n        /* \"#utility.yul\":3297:3300   */\n      dup6\n        /* \"#utility.yul\":3248:3309   */\n      tag_36\n      jump\t// in\n    tag_96:\n        /* \"#utility.yul\":3241:3309   */\n      swap4\n      pop\n        /* \"#utility.yul\":3318:3383   */\n      tag_97\n        /* \"#utility.yul\":3376:3382   */\n      dup2\n        /* \"#utility.yul\":3371:3374   */\n      dup6\n        /* \"#utility.yul\":3364:3368   */\n      0x20\n        /* \"#utility.yul\":3357:3362   */\n      dup7\n        /* \"#utility.yul\":3353:3369   */\n      add\n        /* \"#utility.yul\":3318:3383   */\n      tag_37\n      jump\t// in\n    tag_97:\n        /* \"#utility.yul\":3408:3437   */\n      tag_98\n        /* \"#utility.yul\":3430:3436   */\n      dup2\n        /* \"#utility.yul\":3408:3437   */\n      tag_38\n      jump\t// in\n    tag_98:\n        /* \"#utility.yul\":3403:3406   */\n      dup5\n        /* \"#utility.yul\":3399:3438   */\n      add\n        /* \"#utility.yul\":3392:3438   */\n      swap2\n      pop\n        /* \"#utility.yul\":3169:3444   */\n      pop\n        /* \"#utility.yul\":3087:3444   */\n      swap3\n      swap2\n      pop\n      pop\n      jump\t// out\n        /* \"#utility.yul\":3450:3558   */\n    tag_40:\n        /* \"#utility.yul\":3527:3551   */\n      tag_100\n        /* \"#utility.yul\":3545:3550   */\n      dup2\n        /* \"#utility.yul\":3527:3551   */\n      tag_32\n      jump\t// in\n    tag_100:\n        /* \"#utility.yul\":3522:3525   */\n      dup3\n        /* \"#utility.yul\":3515:3552   */\n      mstore\n        /* \"#utility.yul\":3450:3558   */\n      pop\n      pop\n      jump\t// out\n        /* \"#utility.yul\":3604:4383   */\n    tag_41:\n        /* \"#utility.yul\":3721:3724   */\n      0x00\n        /* \"#utility.yul\":3757:3761   */\n      0x60\n        /* \"#utility.yul\":3752:3755   */\n      dup4\n        /* \"#utility.yul\":3748:3762   */\n      add\n        /* \"#utility.yul\":3844:3848   */\n      0x00\n        /* \"#utility.yul\":3837:3842   */\n      dup4\n        /* \"#utility.yul\":3833:3849   */\n      add\n        /* \"#utility.yul\":3827:3850   */\n      mload\n        /* \"#utility.yul\":3897:3900   */\n      dup5\n        /* \"#utility.yul\":3891:3895   */\n      dup3\n        /* \"#utility.yul\":3887:3901   */\n      sub\n        /* \"#utility.yul\":3880:3884   */\n      0x00\n        /* \"#utility.yul\":3875:3878   */\n      dup7\n        /* \"#utility.yul\":3871:3885   */\n      add\n        /* \"#utility.yul\":3864:3902   */\n      mstore\n        /* \"#utility.yul\":3923:3996   */\n      tag_102\n        /* \"#utility.yul\":3991:3995   */\n      dup3\n        /* \"#utility.yul\":3977:3989   */\n      dup3\n        /* \"#utility.yul\":3923:3996   */\n      tag_39\n      jump\t// in\n    tag_102:\n        /* \"#utility.yul\":3915:3996   */\n      swap2\n      pop\n        /* \"#utility.yul\":3772:4007   */\n      pop\n        /* \"#utility.yul\":4091:4095   */\n      0x20\n        /* \"#utility.yul\":4084:4089   */\n      dup4\n        /* \"#utility.yul\":4080:4096   */\n      add\n        /* \"#utility.yul\":4074:4097   */\n      mload\n        /* \"#utility.yul\":4110:4173   */\n      tag_103\n        /* \"#utility.yul\":4167:4171   */\n      0x20\n        /* \"#utility.yul\":4162:4165   */\n      dup7\n        /* \"#utility.yul\":4158:4172   */\n      add\n        /* \"#utility.yul\":4144:4156   */\n      dup3\n        /* \"#utility.yul\":4110:4173   */\n      tag_40\n      jump\t// in\n    tag_103:\n        /* \"#utility.yul\":4017:4183   */\n      pop\n        /* \"#utility.yul\":4264:4268   */\n      0x40\n        /* \"#utility.yul\":4257:4262   */\n      dup4\n        /* \"#utility.yul\":4253:4269   */\n      add\n        /* \"#utility.yul\":4247:4270   */\n      mload\n        /* \"#utility.yul\":4283:4346   */\n      tag_104\n        /* \"#utility.yul\":4340:4344   */\n      0x40\n        /* \"#utility.yul\":4335:4338   */\n      dup7\n        /* \"#utility.yul\":4331:4345   */\n      add\n        /* \"#utility.yul\":4317:4329   */\n      dup3\n        /* \"#utility.yul\":4283:4346   */\n      tag_40\n      jump\t// in\n    tag_104:\n        /* \"#utility.yul\":4193:4356   */\n      pop\n        /* \"#utility.yul\":4373:4377   */\n      dup1\n        /* \"#utility.yul\":4366:4377   */\n      swap2\n      pop\n        /* \"#utility.yul\":3726:4383   */\n      pop\n        /* \"#utility.yul\":3604:4383   */\n      swap3\n      swap2\n      pop\n      pop\n      jump\t// out\n        /* \"#utility.yul\":4389:4758   */\n    tag_12:\n        /* \"#utility.yul\":4530:4534   */\n      0x00\n        /* \"#utility.yul\":4568:4570   */\n      0x20\n        /* \"#utility.yul\":4557:4566   */\n      dup3\n        /* \"#utility.yul\":4553:4571   */\n      add\n        /* \"#utility.yul\":4545:4571   */\n      swap1\n      pop\n        /* \"#utility.yul\":4617:4626   */\n      dup2\n        /* \"#utility.yul\":4611:4615   */\n      dup2\n        /* \"#utility.yul\":4607:4627   */\n      sub\n        /* \"#utility.yul\":4603:4604   */\n      0x00\n        /* \"#utility.yul\":4592:4601   */\n      dup4\n        /* \"#utility.yul\":4588:4605   */\n      add\n        /* \"#utility.yul\":4581:4628   */\n      mstore\n        /* \"#utility.yul\":4645:4751   */\n      tag_106\n        /* \"#utility.yul\":4746:4750   */\n      dup2\n        /* \"#utility.yul\":4737:4743   */\n      dup5\n        /* \"#utility.yul\":4645:4751   */\n      tag_41\n      jump\t// in\n    tag_106:\n        /* \"#utility.yul\":4637:4751   */\n      swap1\n      pop\n        /* \"#utility.yul\":4389:4758   */\n      swap3\n      swap2\n      pop\n      pop\n      jump\t// out\n        /* \"#utility.yul\":4764:4944   */\n    tag_42:\n        /* \"#utility.yul\":4812:4889   */\n      0x4e487b7100000000000000000000000000000000000000000000000000000000\n        /* \"#utility.yul\":4809:4810   */\n      0x00\n        /* \"#utility.yul\":4802:4890   */\n      mstore\n        /* \"#utility.yul\":4909:4913   */\n      0x41\n        /* \"#utility.yul\":4906:4907   */\n      0x04\n        /* \"#utility.yul\":4899:4914   */\n      mstore\n        /* \"#utility.yul\":4933:4937   */\n      0x24\n        /* \"#utility.yul\":4930:4931   */\n      0x00\n        /* \"#utility.yul\":4923:4938   */\n      revert\n        /* \"#utility.yul\":4950:5130   */\n    tag_43:\n        /* \"#utility.yul\":4998:5075   */\n      0x4e487b7100000000000000000000000000000000000000000000000000000000\n        /* \"#utility.yul\":4995:4996   */\n      0x00\n        /* \"#utility.yul\":4988:5076   */\n      mstore\n        /* \"#utility.yul\":5095:5099   */\n      0x22\n        /* \"#utility.yul\":5092:5093   */\n      0x04\n        /* \"#utility.yul\":5085:5100   */\n      mstore\n        /* \"#utility.yul\":5119:5123   */\n      0x24\n        /* \"#utility.yul\":5116:5117   */\n      0x00\n        /* \"#utility.yul\":5109:5124   */\n      revert\n        /* \"#utility.yul\":5136:5456   */\n    tag_20:\n        /* \"#utility.yul\":5180:5186   */\n      0x00\n        /* \"#utility.yul\":5217:5218   */\n      0x02\n        /* \"#utility.yul\":5211:5215   */\n      dup3\n        /* \"#utility.yul\":5207:5219   */\n      div\n        /* \"#utility.yul\":5197:5219   */\n      swap1\n      pop\n        /* \"#utility.yul\":5264:5265   */\n      0x01\n        /* \"#utility.yul\":5258:5262   */\n      dup3\n        /* \"#utility.yul\":5254:5266   */\n      and\n        /* \"#utility.yul\":5285:5303   */\n      dup1\n        /* \"#utility.yul\":5275:5356   */\n      tag_110\n      jumpi\n        /* \"#utility.yul\":5341:5345   */\n      0x7f\n        /* \"#utility.yul\":5333:5339   */\n      dup3\n        /* \"#utility.yul\":5329:5346   */\n      and\n        /* \"#utility.yul\":5319:5346   */\n      swap2\n      pop\n        /* \"#utility.yul\":5275:5356   */\n    tag_110:\n        /* \"#utility.yul\":5403:5405   */\n      0x20\n        /* \"#utility.yul\":5395:5401   */\n      dup3\n        /* \"#utility.yul\":5392:5406   */\n      lt\n        /* \"#utility.yul\":5372:5390   */\n      dup2\n        /* \"#utility.yul\":5369:5407   */\n      sub\n        /* \"#utility.yul\":5366:5450   */\n      tag_111\n      jumpi\n        /* \"#utility.yul\":5422:5440   */\n      tag_112\n      tag_43\n      jump\t// in\n    tag_112:\n        /* \"#utility.yul\":5366:5450   */\n    tag_111:\n        /* \"#utility.yul\":5187:5456   */\n      pop\n        /* \"#utility.yul\":5136:5456   */\n      swap2\n      swap1\n      pop\n      jump\t// out\n        /* \"#utility.yul\":5462:5603   */\n    tag_44:\n        /* \"#utility.yul\":5511:5515   */\n      0x00\n        /* \"#utility.yul\":5534:5537   */\n      dup2\n        /* \"#utility.yul\":5526:5537   */\n      swap1\n      pop\n        /* \"#utility.yul\":5557:5560   */\n      dup2\n        /* \"#utility.yul\":5554:5555   */\n      0x00\n        /* \"#utility.yul\":5547:5561   */\n      mstore\n        /* \"#utility.yul\":5591:5595   */\n      0x20\n        /* \"#utility.yul\":5588:5589   */\n      0x00\n        /* \"#utility.yul\":5578:5596   */\n      keccak256\n        /* \"#utility.yul\":5570:5596   */\n      swap1\n      pop\n        /* \"#utility.yul\":5462:5603   */\n      swap2\n      swap1\n      pop\n      jump\t// out\n        /* \"#utility.yul\":5609:5702   */\n    tag_45:\n        /* \"#utility.yul\":5646:5652   */\n      0x00\n        /* \"#utility.yul\":5693:5695   */\n      0x20\n        /* \"#utility.yul\":5688:5690   */\n      0x1f\n        /* \"#utility.yul\":5681:5686   */\n      dup4\n        /* \"#utility.yul\":5677:5691   */\n      add\n        /* \"#utility.yul\":5673:5696   */\n      div\n        /* \"#utility.yul\":5663:5696   */\n      swap1\n      pop\n        /* \"#utility.yul\":5609:5702   */\n      swap2\n      swap1\n      pop\n      jump\t// out\n        /* \"#utility.yul\":5708:5815   */\n    tag_46:\n        /* \"#utility.yul\":5752:5760   */\n      0x00\n        /* \"#utility.yul\":5802:5807   */\n      dup3\n        /* \"#utility.yul\":5796:5800   */\n      dup3\n        /* \"#utility.yul\":5792:5808   */\n      shl\n        /* \"#utility.yul\":5771:5808   */\n      swap1\n      pop\n        /* \"#utility.yul\":5708:5815   */\n      swap3\n      swap2\n      pop\n      pop\n      jump\t// out\n        /* \"#utility.yul\":5821:6214   */\n    tag_47:\n        /* \"#utility.yul\":5890:5896   */\n      0x00\n        /* \"#utility.yul\":5940:5941   */\n      0x08\n        /* \"#utility.yul\":5928:5938   */\n      dup4\n        /* \"#utility.yul\":5924:5942   */\n      mul\n        /* \"#utility.yul\":5963:6060   */\n      tag_117\n        /* \"#utility.yul\":5993:6059   */\n      0xffffffffffffffffffffffffffffffffffffffffffffffffffffffffffffffff\n        /* \"#utility.yul\":5982:5991   */\n      dup3\n        /* \"#utility.yul\":5963:6060   */\n      tag_46\n      jump\t// in\n    tag_117:\n        /* \"#utility.yul\":6081:6120   */\n      tag_118\n        /* \"#utility.yul\":6111:6119   */\n      dup7\n        /* \"#utility.yul\":6100:6109   */\n      dup4\n        /* \"#utility.yul\":6081:6120   */\n      tag_46\n      jump\t// in\n    tag_118:\n        /* \"#utility.yul\":6069:6120   */\n      swap6\n      pop\n        /* \"#utility.yul\":6153:6157   */\n      dup1\n        /* \"#utility.yul\":6149:6158   */\n      not\n        /* \"#utility.yul\":6142:6147   */\n      dup5\n        /* \"#utility.yul\":6138:6159   */\n      and\n        /* \"#utility.yul\":6129:6159   */\n      swap4\n      pop\n        /* \"#utility.yul\":6202:6206   */\n      dup1\n        /* \"#utility.yul\":6192:6200   */\n      dup7\n        /* \"#utility.yul\":6188:6207   */\n      and\n        /* \"#utility.yul\":6181:6186   */\n      dup5\n        /* \"#utility.yul\":6178:6208   */\n      or\n        /* \"#utility.yul\":6168:6208   */\n      swap3\n      pop\n        /* \"#utility.yul\":5897:6214   */\n      pop\n      pop\n        /* \"#utility.yul\":5821:6214   */\n      swap4\n      swap3\n      pop\n      pop\n      pop\n      jump\t// out\n        /* \"#utility.yul\":6220:6280   */\n    tag_48:\n        /* \"#utility.yul\":6248:6251   */\n      0x00\n        /* \"#utility.yul\":6269:6274   */\n      dup2\n        /* \"#utility.yul\":6262:6274   */\n      swap1\n      pop\n        /* \"#utility.yul\":6220:6280   */\n      swap2\n      swap1\n      pop\n      jump\t// out\n        /* \"#utility.yul\":6286:6428   */\n    tag_49:\n        /* \"#utility.yul\":6336:6345   */\n      0x00\n        /* \"#utility.yul\":6369:6422   */\n      tag_121\n        /* \"#utility.yul\":6387:6421   */\n      tag_122\n        /* \"#utility.yul\":6396:6420   */\n      tag_123\n        /* \"#utility.yul\":6414:6419   */\n      dup5\n        /* \"#utility.yul\":6396:6420   */\n      tag_32\n      jump\t// in\n    tag_123:\n        /* \"#utility.yul\":6387:6421   */\n      tag_48\n      jump\t// in\n    tag_122:\n        /* \"#utility.yul\":6369:6422   */\n      tag_32\n      jump\t// in\n    tag_121:\n        /* \"#utility.yul\":6356:6422   */\n      swap1\n      pop\n        /* \"#utility.yul\":6286:6428   */\n      swap2\n      swap1\n      pop\n      jump\t// out\n        /* \"#utility.yul\":6434:6509   */\n    tag_50:\n        /* \"#utility.yul\":6477:6480   */\n      0x00\n        /* \"#utility.yul\":6498:6503   */\n      dup2\n        /* \"#utility.yul\":6491:6503   */\n      swap1\n      pop\n        /* \"#utility.yul\":6434:6509   */\n      swap2\n      swap1\n      pop\n      jump\t// out\n        /* \"#utility.yul\":6515:6784   */\n    tag_51:\n        /* \"#utility.yul\":6625:6664   */\n      tag_126\n        /* \"#utility.yul\":6656:6663   */\n      dup4\n        /* \"#utility.yul\":6625:6664   */\n      tag_49\n      jump\t// in\n    tag_126:\n        /* \"#utility.yul\":6686:6777   */\n      tag_127\n        /* \"#utility.yul\":6735:6776   */\n      tag_128\n        /* \"#utility.yul\":6759:6775   */\n      dup3\n        /* \"#utility.yul\":6735:6776   */\n      tag_50\n      jump\t// in\n    tag_128:\n        /* \"#utility.yul\":6727:6733   */\n      dup5\n        /* \"#utility.yul\":6720:6724   */\n      dup5\n        /* \"#utility.yul\":6714:6725   */\n      sload\n        /* \"#utility.yul\":6686:6777   */\n      tag_47\n      jump\t// in\n    tag_127:\n        /* \"#utility.yul\":6680:6684   */\n      dup3\n        /* \"#utility.yul\":6673:6778   */\n      sstore\n        /* \"#utility.yul\":6591:6784   */\n      pop\n        /* \"#utility.yul\":6515:6784   */\n      pop\n      pop\n      pop\n      jump\t// out\n        /* \"#utility.yul\":6790:6863   */\n    tag_52:\n        /* \"#utility.yul\":6835:6838   */\n      0x00\n        /* \"#utility.yul\":6790:6863   */\n      swap1\n      jump\t// out\n        /* \"#utility.yul\":6869:7058   */\n    tag_53:\n        /* \"#utility.yul\":6946:6978   */\n      tag_131\n      tag_52\n      jump\t// in\n    tag_131:\n        /* \"#utility.yul\":6987:7052   */\n      tag_132\n        /* \"#utility.yul\":7045:7051   */\n      dup2\n        /* \"#utility.yul\":7037:7043   */\n      dup5\n        /* \"#utility.yul\":7031:7035   */\n      dup5\n        /* \"#utility.yul\":6987:7052   */\n      tag_51\n      jump\t// in\n    tag_132:\n        /* \"#utility.yul\":6922:7058   */\n      pop\n        /* \"#utility.yul\":6869:7058   */\n      pop\n      pop\n      jump\t// out\n        /* \"#utility.yul\":7064:7250   */\n    tag_54:\n        /* \"#utility.yul\":7124:7244   */\n    tag_134:\n        /* \"#utility.yul\":7141:7144   */\n      dup2\n        /* \"#utility.yul\":7134:7139   */\n      dup2\n        /* \"#utility.yul\":7131:7145   */\n      lt\n        /* \"#utility.yul\":7124:7244   */\n      iszero\n      tag_136\n      jumpi\n        /* \"#utility.yul\":7195:7234   */\n      tag_137\n        /* \"#utility.yul\":7232:7233   */\n      0x00\n        /* \"#utility.yul\":7225:7230   */\n      dup3\n        /* \"#utility.yul\":7195:7234   */\n      tag_53\n      jump\t// in\n    tag_137:\n        /* \"#utility.yul\":7168:7169   */\n      0x01\n        /* \"#utility.yul\":7161:7166   */\n      dup2\n        /* \"#utility.yul\":7157:7170   */\n      add\n        /* \"#utility.yul\":7148:7170   */\n      swap1\n      pop\n        /* \"#utility.yul\":7124:7244   */\n      jump(tag_134)\n    tag_136:\n        /* \"#utility.yul\":7064:7250   */\n      pop\n      pop\n      jump\t// out\n        /* \"#utility.yul\":7256:7799   */\n    tag_55:\n        /* \"#utility.yul\":7357:7359   */\n      0x1f\n        /* \"#utility.yul\":7352:7355   */\n      dup3\n        /* \"#utility.yul\":7349:7360   */\n      gt\n        /* \"#utility.yul\":7346:7792   */\n      iszero\n      tag_139\n      jumpi\n        /* \"#utility.yul\":7391:7429   */\n      tag_140\n        /* \"#utility.yul\":7423:7428   */\n      dup2\n        /* \"#utility.yul\":7391:7429   */\n      tag_44\n      jump\t// in\n    tag_140:\n        /* \"#utility.yul\":7475:7504   */\n      tag_141\n        /* \"#utility.yul\":7493:7503   */\n      dup5\n        /* \"#utility.yul\":7475:7504   */\n      tag_45\n      jump\t// in\n    tag_141:\n        /* \"#utility.yul\":7465:7473   */\n      dup2\n        /* \"#utility.yul\":7461:7505   */\n      add\n        /* \"#utility.yul\":7658:7660   */\n      0x20\n        /* \"#utility.yul\":7646:7656   */\n      dup6\n        /* \"#utility.yul\":7643:7661   */\n      lt\n        /* \"#utility.yul\":7640:7689   */\n      iszero\n      tag_142\n      jumpi\n        /* \"#utility.yul\":7679:7687   */\n      dup2\n        /* \"#utility.yul\":7664:7687   */\n      swap1\n      pop\n        /* \"#utility.yul\":7640:7689   */\n    tag_142:\n        /* \"#utility.yul\":7702:7782   */\n      tag_143\n        /* \"#utility.yul\":7758:7780   */\n      tag_144\n        /* \"#utility.yul\":7776:7779   */\n      dup6\n        /* \"#utility.yul\":7758:7780   */\n      tag_45\n      jump\t// in\n    tag_144:\n        /* \"#utility.yul\":7748:7756   */\n      dup4\n        /* \"#utility.yul\":7744:7781   */\n      add\n        /* \"#utility.yul\":7731:7742   */\n      dup3\n        /* \"#utility.yul\":7702:7782   */\n      tag_54\n      jump\t// in\n    tag_143:\n        /* \"#utility.yul\":7361:7792   */\n      pop\n      pop\n        /* \"#utility.yul\":7346:7792   */\n    tag_139:\n        /* \"#utility.yul\":7256:7799   */\n      pop\n      pop\n      pop\n      jump\t// out\n        /* \"#utility.yul\":7805:7922   */\n    tag_56:\n        /* \"#utility.yul\":7859:7867   */\n      0x00\n        /* \"#utility.yul\":7909:7914   */\n      dup3\n        /* \"#utility.yul\":7903:7907   */\n      dup3\n        /* \"#utility.yul\":7899:7915   */\n      shr\n        /* \"#utility.yul\":7878:7915   */\n      swap1\n      pop\n        /* \"#utility.yul\":7805:7922   */\n      swap3\n      swap2\n      pop\n      pop\n      jump\t// out\n        /* \"#utility.yul\":7928:8097   */\n    tag_57:\n        /* \"#utility.yul\":7972:7978   */\n      0x00\n        /* \"#utility.yul\":8005:8056   */\n      tag_147\n        /* \"#utility.yul\":8053:8054   */\n      0x00\n        /* \"#utility.yul\":8049:8055   */\n      not\n        /* \"#utility.yul\":8041:8046   */\n      dup5\n        /* \"#utility.yul\":8038:8039   */\n      0x08\n        /* \"#utility.yul\":8034:8047   */\n      mul\n        /* \"#utility.yul\":8005:8056   */\n      tag_56\n      jump\t// in\n    tag_147:\n        /* \"#utility.yul\":8001:8057   */\n      not\n        /* \"#utility.yul\":8086:8090   */\n      dup1\n        /* \"#utility.yul\":8080:8084   */\n      dup4\n        /* \"#utility.yul\":8076:8091   */\n      and\n        /* \"#utility.yul\":8066:8091   */\n      swap2\n      pop\n        /* \"#utility.yul\":7979:8097   */\n      pop\n        /* \"#utility.yul\":7928:8097   */\n      swap3\n      swap2\n      pop\n      pop\n      jump\t// out\n        /* \"#utility.yul\":8102:8397   */\n    tag_58:\n        /* \"#utility.yul\":8178:8182   */\n      0x00\n        /* \"#utility.yul\":8324:8353   */\n      tag_149\n        /* \"#utility.yul\":8349:8352   */\n      dup4\n        /* \"#utility.yul\":8343:8347   */\n      dup4\n        /* \"#utility.yul\":8324:8353   */\n      tag_57\n      jump\t// in\n    tag_149:\n        /* \"#utility.yul\":8316:8353   */\n      swap2\n      pop\n        /* \"#utility.yul\":8386:8389   */\n      dup3\n        /* \"#utility.yul\":8383:8384   */\n      0x02\n        /* \"#utility.yul\":8379:8390   */\n      mul\n        /* \"#utility.yul\":8373:8377   */\n      dup3\n        /* \"#utility.yul\":8370:8391   */\n      or\n        /* \"#utility.yul\":8362:8391   */\n      swap1\n      pop\n        /* \"#utility.yul\":8102:8397   */\n      swap3\n      swap2\n      pop\n      pop\n      jump\t// out\n        /* \"#utility.yul\":8402:9797   */\n    tag_15:\n        /* \"#utility.yul\":8519:8556   */\n      tag_151\n        /* \"#utility.yul\":8552:8555   */\n      dup3\n        /* \"#utility.yul\":8519:8556   */\n      tag_35\n      jump\t// in\n    tag_151:\n        /* \"#utility.yul\":8621:8639   */\n      0xffffffffffffffff\n        /* \"#utility.yul\":8613:8619   */\n      dup2\n        /* \"#utility.yul\":8610:8640   */\n      gt\n        /* \"#utility.yul\":8607:8663   */\n      iszero\n      tag_152\n      jumpi\n        /* \"#utility.yul\":8643:8661   */\n      tag_153\n      tag_42\n      jump\t// in\n    tag_153:\n        /* \"#utility.yul\":8607:8663   */\n    tag_152:\n        /* \"#utility.yul\":8687:8725   */\n      tag_154\n        /* \"#utility.yul\":8719:8723   */\n      dup3\n        /* \"#utility.yul\":8713:8724   */\n      sload\n        /* \"#utility.yul\":8687:8725   */\n      tag_20\n      jump\t// in\n    tag_154:\n        /* \"#utility.yul\":8772:8839   */\n      tag_155\n        /* \"#utility.yul\":8832:8838   */\n      dup3\n        /* \"#utility.yul\":8824:8830   */\n      dup3\n        /* \"#utility.yul\":8818:8822   */\n      dup6\n        /* \"#utility.yul\":8772:8839   */\n      tag_55\n      jump\t// in\n    tag_155:\n        /* \"#utility.yul\":8866:8867   */\n      0x00\n        /* \"#utility.yul\":8890:8894   */\n      0x20\n        /* \"#utility.yul\":8877:8894   */\n      swap1\n      pop\n        /* \"#utility.yul\":8922:8924   */\n      0x1f\n        /* \"#utility.yul\":8914:8920   */\n      dup4\n        /* \"#utility.yul\":8911:8925   */\n      gt\n        /* \"#utility.yul\":8939:8940   */\n      0x01\n        /* \"#utility.yul\":8934:9552   */\n      dup2\n      eq\n      tag_157\n      jumpi\n        /* \"#utility.yul\":9596:9597   */\n      0x00\n        /* \"#utility.yul\":9613:9619   */\n      dup5\n        /* \"#utility.yul\":9610:9687   */\n      iszero\n      tag_158\n      jumpi\n        /* \"#utility.yul\":9662:9671   */\n      dup3\n        /* \"#utility.yul\":9657:9660   */\n      dup8\n        /* \"#utility.yul\":9653:9672   */\n      add\n        /* \"#utility.yul\":9647:9673   */\n      mload\n        /* \"#utility.yul\":9638:9673   */\n      swap1\n      pop\n        /* \"#utility.yul\":9610:9687   */\n    tag_158:\n        /* \"#utility.yul\":9713:9780   */\n      tag_159\n        /* \"#utility.yul\":9773:9779   */\n      dup6\n        /* \"#utility.yul\":9766:9771   */\n      dup3\n        /* \"#utility.yul\":9713:9780   */\n      tag_58\n      jump\t// in\n    tag_159:\n        /* \"#utility.yul\":9707:9711   */\n      dup7\n        /* \"#utility.yul\":9700:9781   */\n      sstore\n        /* \"#utility.yul\":9569:9791   */\n      pop\n        /* \"#utility.yul\":8904:9791   */\n      jump(tag_156)\n        /* \"#utility.yul\":8934:9552   */\n    tag_157:\n        /* \"#utility.yul\":8986:8990   */\n      0x1f\n        /* \"#utility.yul\":8982:8991   */\n      not\n        /* \"#utility.yul\":8974:8980   */\n      dup5\n        /* \"#utility.yul\":8970:8992   */\n      and\n        /* \"#utility.yul\":9020:9057   */\n      tag_160\n        /* \"#utility.yul\":9052:9056   */\n      dup7\n        /* \"#utility.yul\":9020:9057   */\n      tag_44\n      jump\t// in\n    tag_160:\n        /* \"#utility.yul\":9079:9080   */\n      0x00\n        /* \"#utility.yul\":9093:9301   */\n    tag_161:\n        /* \"#utility.yul\":9107:9114   */\n      dup3\n        /* \"#utility.yul\":9104:9105   */\n      dup2\n        /* \"#utility.yul\":9101:9115   */\n      lt\n        /* \"#utility.yul\":9093:9301   */\n      iszero\n      tag_163\n      jumpi\n        /* \"#utility.yul\":9186:9195   */\n      dup5\n        /* \"#utility.yul\":9181:9184   */\n      dup10\n        /* \"#utility.yul\":9177:9196   */\n      add\n        /* \"#utility.yul\":9171:9197   */\n      mload\n        /* \"#utility.yul\":9163:9169   */\n      dup3\n        /* \"#utility.yul\":9156:9198   */\n      sstore\n        /* \"#utility.yul\":9237:9238   */\n      0x01\n        /* \"#utility.yul\":9229:9235   */\n      dup3\n        /* \"#utility.yul\":9225:9239   */\n      add\n        /* \"#utility.yul\":9215:9239   */\n      swap2\n      pop\n        /* \"#utility.yul\":9284:9286   */\n      0x20\n        /* \"#utility.yul\":9273:9282   */\n      dup6\n        /* \"#utility.yul\":9269:9287   */\n      add\n        /* \"#utility.yul\":9256:9287   */\n      swap5\n      pop\n        /* \"#utility.yul\":9130:9134   */\n      0x20\n        /* \"#utility.yul\":9127:9128   */\n      dup2\n        /* \"#utility.yul\":9123:9135   */\n      add\n        /* \"#utility.yul\":9118:9135   */\n      swap1\n      pop\n        /* \"#utility.yul\":9093:9301   */\n      jump(tag_161)\n    tag_163:\n        /* \"#utility.yul\":9329:9335   */\n      dup7\n        /* \"#utility.yul\":9320:9327   */\n      dup4\n        /* \"#utility.yul\":9317:9336   */\n      lt\n        /* \"#utility.yul\":9314:9493   */\n      iszero\n      tag_164\n      jumpi\n        /* \"#utility.yul\":9387:9396   */\n      dup5\n        /* \"#utility.yul\":9382:9385   */\n      dup10\n        /* \"#utility.yul\":9378:9397   */\n      add\n        /* \"#utility.yul\":9372:9398   */\n      mload\n        /* \"#utility.yul\":9430:9478   */\n      tag_165\n        /* \"#utility.yul\":9472:9476   */\n      0x1f\n        /* \"#utility.yul\":9464:9470   */\n      dup10\n        /* \"#utility.yul\":9460:9477   */\n      and\n        /* \"#utility.yul\":9449:9458   */\n      dup3\n        /* \"#utility.yul\":9430:9478   */\n      tag_57\n      jump\t// in\n    tag_165:\n        /* \"#utility.yul\":9422:9428   */\n      dup4\n        /* \"#utility.yul\":9415:9479   */\n      sstore\n        /* \"#utility.yul\":9337:9493   */\n      pop\n        /* \"#utility.yul\":9314:9493   */\n    tag_164:\n        /* \"#utility.yul\":9539:9540   */\n      0x01\n        /* \"#utility.yul\":9535:9536   */\n      0x02\n        /* \"#utility.yul\":9527:9533   */\n      dup9\n        /* \"#utility.yul\":9523:9537   */\n      mul\n        /* \"#utility.yul\":9519:9541   */\n      add\n        /* \"#utility.yul\":9513:9517   */\n      dup9\n        /* \"#utility.yul\":9506:9542   */\n      sstore\n        /* \"#utility.yul\":8941:9552   */\n      pop\n      pop\n      pop\n        /* \"#utility.yul\":8904:9791   */\n    tag_156:\n      pop\n        /* \"#utility.yul\":8494:9797   */\n      pop\n      pop\n      pop\n        /* \"#utility.yul\":8402:9797   */\n      pop\n      pop\n      jump\t// out\n\n    auxdata: 0xa26469706673582212209a3a7c2228fa3b96fd231b3140d85117f03007c78b394af266c89b0226616ff564736f6c63430008120033\n}\n",
				"bytecode": {
					"linkReferences": {},
					"object": "608060405234801561001057600080fd5b50610756806100206000396000f3fe608060405234801561001057600080fd5b50600436106100365760003560e01c8063a27c794b1461003b578063fbbf93a014610057575b600080fd5b6100556004803603810190610050919061028e565b610075565b005b61005f610108565b60405161006c91906103f1565b60405180910390f35b604051806060016040528085858080601f016020809104026020016040519081016040528093929190818152602001838380828437600081840152601f19601f820116905080830192505050505050508152602001838152602001828152506000808201518160000190816100ea919061064e565b50602082015181600101556040820151816002015590505050505050565b6101106101c8565b600060405180606001604052908160008201805461012d90610471565b80601f016020809104026020016040519081016040528092919081815260200182805461015990610471565b80156101a65780601f1061017b576101008083540402835291602001916101a6565b820191906000526020600020905b81548152906001019060200180831161018957829003601f168201915b5050505050815260200160018201548152602001600282015481525050905090565b60405180606001604052806060815260200160008152602001600081525090565b600080fd5b600080fd5b600080fd5b600080fd5b600080fd5b60008083601f840112610218576102176101f3565b5b8235905067ffffffffffffffff811115610235576102346101f8565b5b602083019150836001820283011115610251576102506101fd565b5b9250929050565b6000819050919050565b61026b81610258565b811461027657600080fd5b50565b60008135905061028881610262565b92915050565b600080600080606085870312156102a8576102a76101e9565b5b600085013567ffffffffffffffff8111156102c6576102c56101ee565b5b6102d287828801610202565b945094505060206102e587828801610279565b92505060406102f687828801610279565b91505092959194509250565b600081519050919050565b600082825260208201905092915050565b60005b8381101561033c578082015181840152602081019050610321565b60008484015250505050565b6000601f19601f8301169050919050565b600061036482610302565b61036e818561030d565b935061037e81856020860161031e565b61038781610348565b840191505092915050565b61039b81610258565b82525050565b600060608301600083015184820360008601526103be8282610359565b91505060208301516103d36020860182610392565b5060408301516103e66040860182610392565b508091505092915050565b6000602082019050818103600083015261040b81846103a1565b905092915050565b7f4e487b7100000000000000000000000000000000000000000000000000000000600052604160045260246000fd5b7f4e487b7100000000000000000000000000000000000000000000000000000000600052602260045260246000fd5b6000600282049050600182168061048957607f821691505b60208210810361049c5761049b610442565b5b50919050565b60008190508160005260206000209050919050565b60006020601f8301049050919050565b600082821b905092915050565b6000600883026105047fffffffffffffffffffffffffffffffffffffffffffffffffffffffffffffffff826104c7565b61050e86836104c7565b95508019841693508086168417925050509392505050565b6000819050919050565b600061054b61054661054184610258565b610526565b610258565b9050919050565b6000819050919050565b61056583610530565b61057961057182610552565b8484546104d4565b825550505050565b600090565b61058e610581565b61059981848461055c565b505050565b5b818110156105bd576105b2600082610586565b60018101905061059f565b5050565b601f821115610602576105d3816104a2565b6105dc846104b7565b810160208510156105eb578190505b6105ff6105f7856104b7565b83018261059e565b50505b505050565b600082821c905092915050565b600061062560001984600802610607565b1980831691505092915050565b600061063e8383610614565b9150826002028217905092915050565b61065782610302565b67ffffffffffffffff8111156106705761066f610413565b5b61067a8254610471565b6106858282856105c1565b600060209050601f8311600181146106b857600084156106a6578287015190505b6106b08582610632565b865550610718565b601f1984166106c6866104a2565b60005b828110156106ee578489015182556001820191506020850194506020810190506106c9565b8683101561070b5784890151610707601f891682610614565b8355505b6001600288020188555050505b50505050505056fea26469706673582212209a3a7c2228fa3b96fd231b3140d85117f03007c78b394af266c89b0226616ff564736f6c63430008120033",
					"opcodes": "PUSH1 0x80 PUSH1 0x40 MSTORE CALLVALUE DUP1 ISZERO PUSH2 0x10 JUMPI PUSH1 0x0 DUP1 REVERT JUMPDEST POP PUSH2 0x756 DUP1 PUSH2 0x20 PUSH1 0x0 CODECOPY PUSH1 0x0 RETURN INVALID PUSH1 0x80 PUSH1 0x40 MSTORE CALLVALUE DUP1 ISZERO PUSH2 0x10 JUMPI PUSH1 0x0 DUP1 REVERT JUMPDEST POP PUSH1 0x4 CALLDATASIZE LT PUSH2 0x36 JUMPI PUSH1 0x0 CALLDATALOAD PUSH1 0xE0 SHR DUP1 PUSH4 0xA27C794B EQ PUSH2 0x3B JUMPI DUP1 PUSH4 0xFBBF93A0 EQ PUSH2 0x57 JUMPI JUMPDEST PUSH1 0x0 DUP1 REVERT JUMPDEST PUSH2 0x55 PUSH1 0x4 DUP1 CALLDATASIZE SUB DUP2 ADD SWAP1 PUSH2 0x50 SWAP2 SWAP1 PUSH2 0x28E JUMP JUMPDEST PUSH2 0x75 JUMP JUMPDEST STOP JUMPDEST PUSH2 0x5F PUSH2 0x108 JUMP JUMPDEST PUSH1 0x40 MLOAD PUSH2 0x6C SWAP2 SWAP1 PUSH2 0x3F1 JUMP JUMPDEST PUSH1 0x40 MLOAD DUP1 SWAP2 SUB SWAP1 RETURN JUMPDEST PUSH1 0x40 MLOAD DUP1 PUSH1 0x60 ADD PUSH1 0x40 MSTORE DUP1 DUP6 DUP6 DUP1 DUP1 PUSH1 0x1F ADD PUSH1 0x20 DUP1 SWAP2 DIV MUL PUSH1 0x20 ADD PUSH1 0x40 MLOAD SWAP1 DUP2 ADD PUSH1 0x40 MSTORE DUP1 SWAP4 SWAP3 SWAP2 SWAP1 DUP2 DUP2 MSTORE PUSH1 0x20 ADD DUP4 DUP4 DUP1 DUP3 DUP5 CALLDATACOPY PUSH1 0x0 DUP2 DUP5 ADD MSTORE PUSH1 0x1F NOT PUSH1 0x1F DUP3 ADD AND SWAP1 POP DUP1 DUP4 ADD SWAP3 POP POP POP POP POP POP POP DUP2 MSTORE PUSH1 0x20 ADD DUP4 DUP2 MSTORE PUSH1 0x20 ADD DUP3 DUP2 MSTORE POP PUSH1 0x0 DUP1 DUP3 ADD MLOAD DUP2 PUSH1 0x0 ADD SWAP1 DUP2 PUSH2 0xEA SWAP2 SWAP1 PUSH2 0x64E JUMP JUMPDEST POP PUSH1 0x20 DUP3 ADD MLOAD DUP2 PUSH1 0x1 ADD SSTORE PUSH1 0x40 DUP3 ADD MLOAD DUP2 PUSH1 0x2 ADD SSTORE SWAP1 POP POP POP POP POP POP JUMP JUMPDEST PUSH2 0x110 PUSH2 0x1C8 JUMP JUMPDEST PUSH1 0x0 PUSH1 0x40 MLOAD DUP1 PUSH1 0x60 ADD PUSH1 0x40 MSTORE SWAP1 DUP2 PUSH1 0x0 DUP3 ADD DUP1 SLOAD PUSH2 0x12D SWAP1 PUSH2 0x471 JUMP JUMPDEST DUP1 PUSH1 0x1F ADD PUSH1 0x20 DUP1 SWAP2 DIV MUL PUSH1 0x20 ADD PUSH1 0x40 MLOAD SWAP1 DUP2 ADD PUSH1 0x40 MSTORE DUP1 SWAP3 SWAP2 SWAP1 DUP2 DUP2 MSTORE PUSH1 0x20 ADD DUP3 DUP1 SLOAD PUSH2 0x159 SWAP1 PUSH2 0x471 JUMP JUMPDEST DUP1 ISZERO PUSH2 0x1A6 JUMPI DUP1 PUSH1 0x1F LT PUSH2 0x17B JUMPI PUSH2 0x100 DUP1 DUP4 SLOAD DIV MUL DUP4 MSTORE SWAP2 PUSH1 0x20 ADD SWAP2 PUSH2 0x1A6 JUMP JUMPDEST DUP3 ADD SWAP2 SWAP1 PUSH1 0x0 MSTORE PUSH1 0x20 PUSH1 0x0 KECCAK256 SWAP1 JUMPDEST DUP2 SLOAD DUP2 MSTORE SWAP1 PUSH1 0x1 ADD SWAP1 PUSH1 0x20 ADD DUP1 DUP4 GT PUSH2 0x189 JUMPI DUP3 SWAP1 SUB PUSH1 0x1F AND DUP3 ADD SWAP2 JUMPDEST POP POP POP POP POP DUP2 MSTORE PUSH1 0x20 ADD PUSH1 0x1 DUP3 ADD SLOAD DUP2 MSTORE PUSH1 0x20 ADD PUSH1 0x2 DUP3 ADD SLOAD DUP2 MSTORE POP POP SWAP1 POP SWAP1 JUMP JUMPDEST PUSH1 0x40 MLOAD DUP1 PUSH1 0x60 ADD PUSH1 0x40 MSTORE DUP1 PUSH1 0x60 DUP2 MSTORE PUSH1 0x20 ADD PUSH1 0x0 DUP2 MSTORE PUSH1 0x20 ADD PUSH1 0x0 DUP2 MSTORE POP SWAP1 JUMP JUMPDEST PUSH1 0x0 DUP1 REVERT JUMPDEST PUSH1 0x0 DUP1 REVERT JUMPDEST PUSH1 0x0 DUP1 REVERT JUMPDEST PUSH1 0x0 DUP1 REVERT JUMPDEST PUSH1 0x0 DUP1 REVERT JUMPDEST PUSH1 0x0 DUP1 DUP4 PUSH1 0x1F DUP5 ADD SLT PUSH2 0x218 JUMPI PUSH2 0x217 PUSH2 0x1F3 JUMP JUMPDEST JUMPDEST DUP3 CALLDATALOAD SWAP1 POP PUSH8 0xFFFFFFFFFFFFFFFF DUP2 GT ISZERO PUSH2 0x235 JUMPI PUSH2 0x234 PUSH2 0x1F8 JUMP JUMPDEST JUMPDEST PUSH1 0x20 DUP4 ADD SWAP2 POP DUP4 PUSH1 0x1 DUP3 MUL DUP4 ADD GT ISZERO PUSH2 0x251 JUMPI PUSH2 0x250 PUSH2 0x1FD JUMP JUMPDEST JUMPDEST SWAP3 POP SWAP3 SWAP1 POP JUMP JUMPDEST PUSH1 0x0 DUP2 SWAP1 POP SWAP2 SWAP1 POP JUMP JUMPDEST PUSH2 0x26B DUP2 PUSH2 0x258 JUMP JUMPDEST DUP2 EQ PUSH2 0x276 JUMPI PUSH1 0x0 DUP1 REVERT JUMPDEST POP JUMP JUMPDEST PUSH1 0x0 DUP2 CALLDATALOAD SWAP1 POP PUSH2 0x288 DUP2 PUSH2 0x262 JUMP JUMPDEST SWAP3 SWAP2 POP POP JUMP JUMPDEST PUSH1 0x0 DUP1 PUSH1 0x0 DUP1 PUSH1 0x60 DUP6 DUP8 SUB SLT ISZERO PUSH2 0x2A8 JUMPI PUSH2 0x2A7 PUSH2 0x1E9 JUMP JUMPDEST JUMPDEST PUSH1 0x0 DUP6 ADD CALLDATALOAD PUSH8 0xFFFFFFFFFFFFFFFF DUP2 GT ISZERO PUSH2 0x2C6 JUMPI PUSH2 0x2C5 PUSH2 0x1EE JUMP JUMPDEST JUMPDEST PUSH2 0x2D2 DUP8 DUP3 DUP9 ADD PUSH2 0x202 JUMP JUMPDEST SWAP5 POP SWAP5 POP POP PUSH1 0x20 PUSH2 0x2E5 DUP8 DUP3 DUP9 ADD PUSH2 0x279 JUMP JUMPDEST SWAP3 POP POP PUSH1 0x40 PUSH2 0x2F6 DUP8 DUP3 DUP9 ADD PUSH2 0x279 JUMP JUMPDEST SWAP2 POP POP SWAP3 SWAP6 SWAP2 SWAP5 POP SWAP3 POP JUMP JUMPDEST PUSH1 0x0 DUP2 MLOAD SWAP1 POP SWAP2 SWAP1 POP JUMP JUMPDEST PUSH1 0x0 DUP3 DUP3 MSTORE PUSH1 0x20 DUP3 ADD SWAP1 POP SWAP3 SWAP2 POP POP JUMP JUMPDEST PUSH1 0x0 JUMPDEST DUP4 DUP2 LT ISZERO PUSH2 0x33C JUMPI DUP1 DUP3 ADD MLOAD DUP2 DUP5 ADD MSTORE PUSH1 0x20 DUP2 ADD SWAP1 POP PUSH2 0x321 JUMP JUMPDEST PUSH1 0x0 DUP5 DUP5 ADD MSTORE POP POP POP POP JUMP JUMPDEST PUSH1 0x0 PUSH1 0x1F NOT PUSH1 0x1F DUP4 ADD AND SWAP1 POP SWAP2 SWAP1 POP JUMP JUMPDEST PUSH1 0x0 PUSH2 0x364 DUP3 PUSH2 0x302 JUMP JUMPDEST PUSH2 0x36E DUP2 DUP6 PUSH2 0x30D JUMP JUMPDEST SWAP4 POP PUSH2 0x37E DUP2 DUP6 PUSH1 0x20 DUP7 ADD PUSH2 0x31E JUMP JUMPDEST PUSH2 0x387 DUP2 PUSH2 0x348 JUMP JUMPDEST DUP5 ADD SWAP2 POP POP SWAP3 SWAP2 POP POP JUMP JUMPDEST PUSH2 0x39B DUP2 PUSH2 0x258 JUMP JUMPDEST DUP3 MSTORE POP POP JUMP JUMPDEST PUSH1 0x0 PUSH1 0x60 DUP4 ADD PUSH1 0x0 DUP4 ADD MLOAD DUP5 DUP3 SUB PUSH1 0x0 DUP7 ADD MSTORE PUSH2 0x3BE DUP3 DUP3 PUSH2 0x359 JUMP JUMPDEST SWAP2 POP POP PUSH1 0x20 DUP4 ADD MLOAD PUSH2 0x3D3 PUSH1 0x20 DUP7 ADD DUP3 PUSH2 0x392 JUMP JUMPDEST POP PUSH1 0x40 DUP4 ADD MLOAD PUSH2 0x3E6 PUSH1 0x40 DUP7 ADD DUP3 PUSH2 0x392 JUMP JUMPDEST POP DUP1 SWAP2 POP POP SWAP3 SWAP2 POP POP JUMP JUMPDEST PUSH1 0x0 PUSH1 0x20 DUP3 ADD SWAP1 POP DUP2 DUP2 SUB PUSH1 0x0 DUP4 ADD MSTORE PUSH2 0x40B DUP2 DUP5 PUSH2 0x3A1 JUMP JUMPDEST SWAP1 POP SWAP3 SWAP2 POP POP JUMP JUMPDEST PUSH32 0x4E487B7100000000000000000000000000000000000000000000000000000000 PUSH1 0x0 MSTORE PUSH1 0x41 PUSH1 0x4 MSTORE PUSH1 0x24 PUSH1 0x0 REVERT JUMPDEST PUSH32 0x4E487B7100000000000000000000000000000000000000000000000000000000 PUSH1 0x0 MSTORE PUSH1 0x22 PUSH1 0x4 MSTORE PUSH1 0x24 PUSH1 0x0 REVERT JUMPDEST PUSH1 0x0 PUSH1 0x2 DUP3 DIV SWAP1 POP PUSH1 0x1 DUP3 AND DUP1 PUSH2 0x489 JUMPI PUSH1 0x7F DUP3 AND SWAP2 POP JUMPDEST PUSH1 0x20 DUP3 LT DUP2 SUB PUSH2 0x49C JUMPI PUSH2 0x49B PUSH2 0x442 JUMP JUMPDEST JUMPDEST POP SWAP2 SWAP1 POP JUMP JUMPDEST PUSH1 0x0 DUP2 SWAP1 POP DUP2 PUSH1 0x0 MSTORE PUSH1 0x20 PUSH1 0x0 KECCAK256 SWAP1 POP SWAP2 SWAP1 POP JUMP JUMPDEST PUSH1 0x0 PUSH1 0x20 PUSH1 0x1F DUP4 ADD DIV SWAP1 POP SWAP2 SWAP1 POP JUMP JUMPDEST PUSH1 0x0 DUP3 DUP3 SHL SWAP1 POP SWAP3 SWAP2 POP POP JUMP JUMPDEST PUSH1 0x0 PUSH1 0x8 DUP4 MUL PUSH2 0x504 PUSH32 0xFFFFFFFFFFFFFFFFFFFFFFFFFFFFFFFFFFFFFFFFFFFFFFFFFFFFFFFFFFFFFFFF DUP3 PUSH2 0x4C7 JUMP JUMPDEST PUSH2 0x50E DUP7 DUP4 PUSH2 0x4C7 JUMP JUMPDEST SWAP6 POP DUP1 NOT DUP5 AND SWAP4 POP DUP1 DUP7 AND DUP5 OR SWAP3 POP POP POP SWAP4 SWAP3 POP POP POP JUMP JUMPDEST PUSH1 0x0 DUP2 SWAP1 POP SWAP2 SWAP1 POP JUMP JUMPDEST PUSH1 0x0 PUSH2 0x54B PUSH2 0x546 PUSH2 0x541 DUP5 PUSH2 0x258 JUMP JUMPDEST PUSH2 0x526 JUMP JUMPDEST PUSH2 0x258 JUMP JUMPDEST SWAP1 POP SWAP2 SWAP1 POP JUMP JUMPDEST PUSH1 0x0 DUP2 SWAP1 POP SWAP2 SWAP1 POP JUMP JUMPDEST PUSH2 0x565 DUP4 PUSH2 0x530 JUMP JUMPDEST PUSH2 0x579 PUSH2 0x571 DUP3 PUSH2 0x552 JUMP JUMPDEST DUP5 DUP5 SLOAD PUSH2 0x4D4 JUMP JUMPDEST DUP3 SSTORE POP POP POP POP JUMP JUMPDEST PUSH1 0x0 SWAP1 JUMP JUMPDEST PUSH2 0x58E PUSH2 0x581 JUMP JUMPDEST PUSH2 0x599 DUP2 DUP5 DUP5 PUSH2 0x55C JUMP JUMPDEST POP POP POP JUMP JUMPDEST JUMPDEST DUP2 DUP2 LT ISZERO PUSH2 0x5BD JUMPI PUSH2 0x5B2 PUSH1 0x0 DUP3 PUSH2 0x586 JUMP JUMPDEST PUSH1 0x1 DUP2 ADD SWAP1 POP PUSH2 0x59F JUMP JUMPDEST POP POP JUMP JUMPDEST PUSH1 0x1F DUP3 GT ISZERO PUSH2 0x602 JUMPI PUSH2 0x5D3 DUP2 PUSH2 0x4A2 JUMP JUMPDEST PUSH2 0x5DC DUP5 PUSH2 0x4B7 JUMP JUMPDEST DUP2 ADD PUSH1 0x20 DUP6 LT ISZERO PUSH2 0x5EB JUMPI DUP2 SWAP1 POP JUMPDEST PUSH2 0x5FF PUSH2 0x5F7 DUP6 PUSH2 0x4B7 JUMP JUMPDEST DUP4 ADD DUP3 PUSH2 0x59E JUMP JUMPDEST POP POP JUMPDEST POP POP POP JUMP JUMPDEST PUSH1 0x0 DUP3 DUP3 SHR SWAP1 POP SWAP3 SWAP2 POP POP JUMP JUMPDEST PUSH1 0x0 PUSH2 0x625 PUSH1 0x0 NOT DUP5 PUSH1 0x8 MUL PUSH2 0x607 JUMP JUMPDEST NOT DUP1 DUP4 AND SWAP2 POP POP SWAP3 SWAP2 POP POP JUMP JUMPDEST PUSH1 0x0 PUSH2 0x63E DUP4 DUP4 PUSH2 0x614 JUMP JUMPDEST SWAP2 POP DUP3 PUSH1 0x2 MUL DUP3 OR SWAP1 POP SWAP3 SWAP2 POP POP JUMP JUMPDEST PUSH2 0x657 DUP3 PUSH2 0x302 JUMP JUMPDEST PUSH8 0xFFFFFFFFFFFFFFFF DUP2 GT ISZERO PUSH2 0x670 JUMPI PUSH2 0x66F PUSH2 0x413 JUMP JUMPDEST JUMPDEST PUSH2 0x67A DUP3 SLOAD PUSH2 0x471 JUMP JUMPDEST PUSH2 0x685 DUP3 DUP3 DUP6 PUSH2 0x5C1 JUMP JUMPDEST PUSH1 0x0 PUSH1 0x20 SWAP1 POP PUSH1 0x1F DUP4 GT PUSH1 0x1 DUP2 EQ PUSH2 0x6B8 JUMPI PUSH1 0x0 DUP5 ISZERO PUSH2 0x6A6 JUMPI DUP3 DUP8 ADD MLOAD SWAP1 POP JUMPDEST PUSH2 0x6B0 DUP6 DUP3 PUSH2 0x632 JUMP JUMPDEST DUP7 SSTORE POP PUSH2 0x718 JUMP JUMPDEST PUSH1 0x1F NOT DUP5 AND PUSH2 0x6C6 DUP7 PUSH2 0x4A2 JUMP JUMPDEST PUSH1 0x0 JUMPDEST DUP3 DUP2 LT ISZERO PUSH2 0x6EE JUMPI DUP5 DUP10 ADD MLOAD DUP3 SSTORE PUSH1 0x1 DUP3 ADD SWAP2 POP PUSH1 0x20 DUP6 ADD SWAP5 POP PUSH1 0x20 DUP2 ADD SWAP1 POP PUSH2 0x6C9 JUMP JUMPDEST DUP7 DUP4 LT ISZERO PUSH2 0x70B JUMPI DUP5 DUP10 ADD MLOAD PUSH2 0x707 PUSH1 0x1F DUP10 AND DUP3 PUSH2 0x614 JUMP JUMPDEST DUP4 SSTORE POP JUMPDEST PUSH1 0x1 PUSH1 0x2 DUP9 MUL ADD DUP9 SSTORE POP POP POP JUMPDEST POP POP POP POP POP POP JUMP INVALID LOG2 PUSH5 0x6970667358 0x22 SLT KECCAK256 SWAP11 GASPRICE PUSH29 0x2228FA3B96FD231B3140D85117F03007C78B394AF266C89B0226616FF5 PUSH5 0x736F6C6343 STOP ADDMOD SLT STOP CALLER "
				},
				"gasEstimates": {
					"creation": {
						"codeDepositCost": "375600",
						"executionCost": "411",
						"totalCost": "376011"
					},
					"external": {
						"getDetails()": "infinite",
						"insertDetails(string,uint256,uint256)": "infinite"
					}
				},
				"methodIdentifiers": {
					"getDetails()": "fbbf93a0",
					"insertDetails(string,uint256,uint256)": "a27c794b"
				}
			},
			"storageLayout": {
				"storage": [
					{
						"astId": 236,
						"contract": "solidity_advance_assignment.sol:studentDetails",
						"label": "s1",
						"offset": 0,
						"slot": "0",
						"type": "t_struct(student)233_storage"
					}
				],
				"types": {
					"t_string_storage": {
						"encoding": "bytes",
						"label": "string",
						"numberOfBytes": "32"
					},
					"t_struct(student)233_storage": {
						"encoding": "inplace",
						"label": "struct student",
						"members": [
							{
								"astId": 228,
								"contract": "solidity_advance_assignment.sol:studentDetails",
								"label": "name",
								"offset": 0,
								"slot": "0",
								"type": "t_string_storage"
							},
							{
								"astId": 230,
								"contract": "solidity_advance_assignment.sol:studentDetails",
								"label": "rollNO",
								"offset": 0,
								"slot": "1",
								"type": "t_uint256"
							},
							{
								"astId": 232,
								"contract": "solidity_advance_assignment.sol:studentDetails",
								"label": "age",
								"offset": 0,
								"slot": "2",
								"type": "t_uint256"
							}
						],
						"numberOfBytes": "96"
					},
					"t_uint256": {
						"encoding": "inplace",
						"label": "uint256",
						"numberOfBytes": "32"
					}
				}
			},
			"userdoc": {
				"kind": "user",
				"methods": {},
				"version": 1
			}
		}
	}
}