{
	"struct.sol": {
		"Struct": {
			"abi": [
				{
					"inputs": [],
					"name": "Audi",
					"outputs": [
						{
							"internalType": "string",
							"name": "modelName",
							"type": "string"
						},
						{
							"internalType": "uint256",
							"name": "year",
							"type": "uint256"
						},
						{
							"internalType": "uint256",
							"name": "price",
							"type": "uint256"
						},
						{
							"internalType": "bool",
							"name": "preBooked",
							"type": "bool"
						}
					],
					"stateMutability": "view",
					"type": "function"
				},
				{
					"inputs": [],
					"name": "returnStruct",
					"outputs": [
						{
							"components": [
								{
									"internalType": "string",
									"name": "modelName",
									"type": "string"
								},
								{
									"internalType": "uint256",
									"name": "year",
									"type": "uint256"
								},
								{
									"internalType": "uint256",
									"name": "price",
									"type": "uint256"
								},
								{
									"internalType": "bool",
									"name": "preBooked",
									"type": "bool"
								}
							],
							"internalType": "struct Struct.Car",
							"name": "",
							"type": "tuple"
						}
					],
					"stateMutability": "view",
					"type": "function"
				},
				{
					"inputs": [
						{
							"internalType": "string",
							"name": "_modelName",
							"type": "string"
						},
						{
							"internalType": "uint256",
							"name": "_year",
							"type": "uint256"
						},
						{
							"internalType": "uint256",
							"name": "_price",
							"type": "uint256"
						},
						{
							"internalType": "bool",
							"name": "_preBooked",
							"type": "bool"
						}
					],
					"name": "setValues",
					"outputs": [],
					"stateMutability": "nonpayable",
					"type": "function"
				}
			],
			"devdoc": {
				"kind": "dev",
				"methods": {},
				"version": 1
			},
			"evm": {
				"assembly": "    /* \"struct.sol\":72:640  contract Struct{... */\n  mstore(0x40, 0x80)\n  callvalue\n  dup1\n  iszero\n  tag_1\n  jumpi\n  0x00\n  dup1\n  revert\ntag_1:\n  pop\n  dataSize(sub_0)\n  dup1\n  dataOffset(sub_0)\n  0x00\n  codecopy\n  0x00\n  return\nstop\n\nsub_0: assembly {\n        /* \"struct.sol\":72:640  contract Struct{... */\n      mstore(0x40, 0x80)\n      callvalue\n      dup1\n      iszero\n      tag_1\n      jumpi\n      0x00\n      dup1\n      revert\n    tag_1:\n      pop\n      jumpi(tag_2, lt(calldatasize, 0x04))\n      shr(0xe0, calldataload(0x00))\n      dup1\n      0xc22fd45e\n      eq\n      tag_3\n      jumpi\n      dup1\n      0xdb186add\n      eq\n      tag_4\n      jumpi\n      dup1\n      0xe3282e18\n      eq\n      tag_5\n      jumpi\n    tag_2:\n      0x00\n      dup1\n      revert\n        /* \"struct.sol\":550:635  function returnStruct() view public returns(Car memory){... */\n    tag_3:\n      tag_6\n      tag_7\n      jump\t// in\n    tag_6:\n      mload(0x40)\n      tag_8\n      swap2\n      swap1\n      tag_9\n      jump\t// in\n    tag_8:\n      mload(0x40)\n      dup1\n      swap2\n      sub\n      swap1\n      return\n        /* \"struct.sol\":213:228  Car public Audi */\n    tag_4:\n      tag_10\n      tag_11\n      jump\t// in\n    tag_10:\n      mload(0x40)\n      tag_12\n      swap5\n      swap4\n      swap3\n      swap2\n      swap1\n      tag_13\n      jump\t// in\n    tag_12:\n      mload(0x40)\n      dup1\n      swap2\n      sub\n      swap1\n      return\n        /* \"struct.sol\":235:544  function setValues(string calldata _modelName, uint _year, uint _price, bool _preBooked) public{... */\n    tag_5:\n      tag_14\n      0x04\n      dup1\n      calldatasize\n      sub\n      dup2\n      add\n      swap1\n      tag_15\n      swap2\n      swap1\n      tag_16\n      jump\t// in\n    tag_15:\n      tag_17\n      jump\t// in\n    tag_14:\n      stop\n        /* \"struct.sol\":550:635  function returnStruct() view public returns(Car memory){... */\n    tag_7:\n        /* \"struct.sol\":594:604  Car memory */\n      tag_18\n      tag_19\n      jump\t// in\n    tag_18:\n        /* \"struct.sol\":623:627  Audi */\n      0x00\n        /* \"struct.sol\":616:627  return Audi */\n      mload(0x40)\n      dup1\n      0x80\n      add\n      0x40\n      mstore\n      swap1\n      dup2\n      0x00\n      dup3\n      add\n      dup1\n      sload\n      tag_21\n      swap1\n      tag_22\n      jump\t// in\n    tag_21:\n      dup1\n      0x1f\n      add\n      0x20\n      dup1\n      swap2\n      div\n      mul\n      0x20\n      add\n      mload(0x40)\n      swap1\n      dup2\n      add\n      0x40\n      mstore\n      dup1\n      swap3\n      swap2\n      swap1\n      dup2\n      dup2\n      mstore\n      0x20\n      add\n      dup3\n      dup1\n      sload\n      tag_23\n      swap1\n      tag_22\n      jump\t// in\n    tag_23:\n      dup1\n      iszero\n      tag_24\n      jumpi\n      dup1\n      0x1f\n      lt\n      tag_25\n      jumpi\n      0x0100\n      dup1\n      dup4\n      sload\n      div\n      mul\n      dup4\n      mstore\n      swap2\n      0x20\n      add\n      swap2\n      jump(tag_24)\n    tag_25:\n      dup3\n      add\n      swap2\n      swap1\n      0x00\n      mstore\n      keccak256(0x00, 0x20)\n      swap1\n    tag_26:\n      dup2\n      sload\n      dup2\n      mstore\n      swap1\n      0x01\n      add\n      swap1\n      0x20\n      add\n      dup1\n      dup4\n      gt\n      tag_26\n      jumpi\n      dup3\n      swap1\n      sub\n      0x1f\n      and\n      dup3\n      add\n      swap2\n    tag_24:\n      pop\n      pop\n      pop\n      pop\n      pop\n      dup2\n      mstore\n      0x20\n      add\n      0x01\n      dup3\n      add\n      sload\n      dup2\n      mstore\n      0x20\n      add\n      0x02\n      dup3\n      add\n      sload\n      dup2\n      mstore\n      0x20\n      add\n      0x03\n      dup3\n      add\n      0x00\n      swap1\n      sload\n      swap1\n      0x0100\n      exp\n      swap1\n      div\n      0xff\n      and\n      iszero\n      iszero\n      iszero\n      iszero\n      dup2\n      mstore\n      pop\n      pop\n      swap1\n      pop\n        /* \"struct.sol\":550:635  function returnStruct() view public returns(Car memory){... */\n      swap1\n      jump\t// out\n        /* \"struct.sol\":213:228  Car public Audi */\n    tag_11:\n      0x00\n      dup1\n      0x00\n      add\n      dup1\n      sload\n      tag_27\n      swap1\n      tag_22\n      jump\t// in\n    tag_27:\n      dup1\n      0x1f\n      add\n      0x20\n      dup1\n      swap2\n      div\n      mul\n      0x20\n      add\n      mload(0x40)\n      swap1\n      dup2\n      add\n      0x40\n      mstore\n      dup1\n      swap3\n      swap2\n      swap1\n      dup2\n      dup2\n      mstore\n      0x20\n      add\n      dup3\n      dup1\n      sload\n      tag_28\n      swap1\n      tag_22\n      jump\t// in\n    tag_28:\n      dup1\n      iszero\n      tag_29\n      jumpi\n      dup1\n      0x1f\n      lt\n      tag_30\n      jumpi\n      0x0100\n      dup1\n      dup4\n      sload\n      div\n      mul\n      dup4\n      mstore\n      swap2\n      0x20\n      add\n      swap2\n      jump(tag_29)\n    tag_30:\n      dup3\n      add\n      swap2\n      swap1\n      0x00\n      mstore\n      keccak256(0x00, 0x20)\n      swap1\n    tag_31:\n      dup2\n      sload\n      dup2\n      mstore\n      swap1\n      0x01\n      add\n      swap1\n      0x20\n      add\n      dup1\n      dup4\n      gt\n      tag_31\n      jumpi\n      dup3\n      swap1\n      sub\n      0x1f\n      and\n      dup3\n      add\n      swap2\n    tag_29:\n      pop\n      pop\n      pop\n      pop\n      pop\n      swap1\n      dup1\n      0x01\n      add\n      sload\n      swap1\n      dup1\n      0x02\n      add\n      sload\n      swap1\n      dup1\n      0x03\n      add\n      0x00\n      swap1\n      sload\n      swap1\n      0x0100\n      exp\n      swap1\n      div\n      0xff\n      and\n      swap1\n      pop\n      dup5\n      jump\t// out\n        /* \"struct.sol\":235:544  function setValues(string calldata _modelName, uint _year, uint _price, bool _preBooked) public{... */\n    tag_17:\n        /* \"struct.sol\":494:536  Car(_modelName, _year, _price, _preBooked) */\n      mload(0x40)\n      dup1\n      0x80\n      add\n      0x40\n      mstore\n      dup1\n        /* \"struct.sol\":498:508  _modelName */\n      dup7\n      dup7\n        /* \"struct.sol\":494:536  Car(_modelName, _year, _price, _preBooked) */\n      dup1\n      dup1\n      0x1f\n      add\n      0x20\n      dup1\n      swap2\n      div\n      mul\n      0x20\n      add\n      mload(0x40)\n      swap1\n      dup2\n      add\n      0x40\n      mstore\n      dup1\n      swap4\n      swap3\n      swap2\n      swap1\n      dup2\n      dup2\n      mstore\n      0x20\n      add\n      dup4\n      dup4\n      dup1\n      dup3\n      dup5\n      calldatacopy\n      0x00\n      dup2\n      dup5\n      add\n      mstore\n      not(0x1f)\n      0x1f\n      dup3\n      add\n      and\n      swap1\n      pop\n      dup1\n      dup4\n      add\n      swap3\n      pop\n      pop\n      pop\n      pop\n      pop\n      pop\n      pop\n      dup2\n      mstore\n      0x20\n      add\n        /* \"struct.sol\":510:515  _year */\n      dup5\n        /* \"struct.sol\":494:536  Car(_modelName, _year, _price, _preBooked) */\n      dup2\n      mstore\n      0x20\n      add\n        /* \"struct.sol\":517:523  _price */\n      dup4\n        /* \"struct.sol\":494:536  Car(_modelName, _year, _price, _preBooked) */\n      dup2\n      mstore\n      0x20\n      add\n        /* \"struct.sol\":525:535  _preBooked */\n      dup3\n        /* \"struct.sol\":494:536  Car(_modelName, _year, _price, _preBooked) */\n      iszero\n      iszero\n      dup2\n      mstore\n      pop\n        /* \"struct.sol\":487:491  Audi */\n      0x00\n        /* \"struct.sol\":487:536  Audi = Car(_modelName, _year, _price, _preBooked) */\n      dup1\n      dup3\n      add\n      mload\n      dup2\n      0x00\n      add\n      swap1\n      dup2\n      tag_33\n      swap2\n      swap1\n      tag_34\n      jump\t// in\n    tag_33:\n      pop\n      0x20\n      dup3\n      add\n      mload\n      dup2\n      0x01\n      add\n      sstore\n      0x40\n      dup3\n      add\n      mload\n      dup2\n      0x02\n      add\n      sstore\n      0x60\n      dup3\n      add\n      mload\n      dup2\n      0x03\n      add\n      exp(0x0100, 0x00)\n      dup2\n      sload\n      dup2\n      0xff\n      mul\n      not\n      and\n      swap1\n      dup4\n      iszero\n      iszero\n      mul\n      or\n      swap1\n      sstore\n      pop\n      swap1\n      pop\n      pop\n        /* \"struct.sol\":235:544  function setValues(string calldata _modelName, uint _year, uint _price, bool _preBooked) public{... */\n      pop\n      pop\n      pop\n      pop\n      pop\n      jump\t// out\n    tag_19:\n      mload(0x40)\n      dup1\n      0x80\n      add\n      0x40\n      mstore\n      dup1\n      0x60\n      dup2\n      mstore\n      0x20\n      add\n      0x00\n      dup2\n      mstore\n      0x20\n      add\n      0x00\n      dup2\n      mstore\n      0x20\n      add\n      iszero(iszero(0x00))\n      dup2\n      mstore\n      pop\n      swap1\n      jump\t// out\n        /* \"#utility.yul\":7:106   */\n    tag_35:\n        /* \"#utility.yul\":59:65   */\n      0x00\n        /* \"#utility.yul\":93:98   */\n      dup2\n        /* \"#utility.yul\":87:99   */\n      mload\n        /* \"#utility.yul\":77:99   */\n      swap1\n      pop\n        /* \"#utility.yul\":7:106   */\n      swap2\n      swap1\n      pop\n      jump\t// out\n        /* \"#utility.yul\":112:271   */\n    tag_36:\n        /* \"#utility.yul\":186:197   */\n      0x00\n        /* \"#utility.yul\":220:226   */\n      dup3\n        /* \"#utility.yul\":215:218   */\n      dup3\n        /* \"#utility.yul\":208:227   */\n      mstore\n        /* \"#utility.yul\":260:264   */\n      0x20\n        /* \"#utility.yul\":255:258   */\n      dup3\n        /* \"#utility.yul\":251:265   */\n      add\n        /* \"#utility.yul\":236:265   */\n      swap1\n      pop\n        /* \"#utility.yul\":112:271   */\n      swap3\n      swap2\n      pop\n      pop\n      jump\t// out\n        /* \"#utility.yul\":277:523   */\n    tag_37:\n        /* \"#utility.yul\":358:359   */\n      0x00\n        /* \"#utility.yul\":368:481   */\n    tag_81:\n        /* \"#utility.yul\":382:388   */\n      dup4\n        /* \"#utility.yul\":379:380   */\n      dup2\n        /* \"#utility.yul\":376:389   */\n      lt\n        /* \"#utility.yul\":368:481   */\n      iszero\n      tag_83\n      jumpi\n        /* \"#utility.yul\":467:468   */\n      dup1\n        /* \"#utility.yul\":462:465   */\n      dup3\n        /* \"#utility.yul\":458:469   */\n      add\n        /* \"#utility.yul\":452:470   */\n      mload\n        /* \"#utility.yul\":448:449   */\n      dup2\n        /* \"#utility.yul\":443:446   */\n      dup5\n        /* \"#utility.yul\":439:450   */\n      add\n        /* \"#utility.yul\":432:471   */\n      mstore\n        /* \"#utility.yul\":404:406   */\n      0x20\n        /* \"#utility.yul\":401:402   */\n      dup2\n        /* \"#utility.yul\":397:407   */\n      add\n        /* \"#utility.yul\":392:407   */\n      swap1\n      pop\n        /* \"#utility.yul\":368:481   */\n      jump(tag_81)\n    tag_83:\n        /* \"#utility.yul\":515:516   */\n      0x00\n        /* \"#utility.yul\":506:512   */\n      dup5\n        /* \"#utility.yul\":501:504   */\n      dup5\n        /* \"#utility.yul\":497:513   */\n      add\n        /* \"#utility.yul\":490:517   */\n      mstore\n        /* \"#utility.yul\":339:523   */\n      pop\n        /* \"#utility.yul\":277:523   */\n      pop\n      pop\n      pop\n      jump\t// out\n        /* \"#utility.yul\":529:631   */\n    tag_38:\n        /* \"#utility.yul\":570:576   */\n      0x00\n        /* \"#utility.yul\":621:623   */\n      0x1f\n        /* \"#utility.yul\":617:624   */\n      not\n        /* \"#utility.yul\":612:614   */\n      0x1f\n        /* \"#utility.yul\":605:610   */\n      dup4\n        /* \"#utility.yul\":601:615   */\n      add\n        /* \"#utility.yul\":597:625   */\n      and\n        /* \"#utility.yul\":587:625   */\n      swap1\n      pop\n        /* \"#utility.yul\":529:631   */\n      swap2\n      swap1\n      pop\n      jump\t// out\n        /* \"#utility.yul\":637:994   */\n    tag_39:\n        /* \"#utility.yul\":715:718   */\n      0x00\n        /* \"#utility.yul\":743:782   */\n      tag_86\n        /* \"#utility.yul\":776:781   */\n      dup3\n        /* \"#utility.yul\":743:782   */\n      tag_35\n      jump\t// in\n    tag_86:\n        /* \"#utility.yul\":798:859   */\n      tag_87\n        /* \"#utility.yul\":852:858   */\n      dup2\n        /* \"#utility.yul\":847:850   */\n      dup6\n        /* \"#utility.yul\":798:859   */\n      tag_36\n      jump\t// in\n    tag_87:\n        /* \"#utility.yul\":791:859   */\n      swap4\n      pop\n        /* \"#utility.yul\":868:933   */\n      tag_88\n        /* \"#utility.yul\":926:932   */\n      dup2\n        /* \"#utility.yul\":921:924   */\n      dup6\n        /* \"#utility.yul\":914:918   */\n      0x20\n        /* \"#utility.yul\":907:912   */\n      dup7\n        /* \"#utility.yul\":903:919   */\n      add\n        /* \"#utility.yul\":868:933   */\n      tag_37\n      jump\t// in\n    tag_88:\n        /* \"#utility.yul\":958:987   */\n      tag_89\n        /* \"#utility.yul\":980:986   */\n      dup2\n        /* \"#utility.yul\":958:987   */\n      tag_38\n      jump\t// in\n    tag_89:\n        /* \"#utility.yul\":953:956   */\n      dup5\n        /* \"#utility.yul\":949:988   */\n      add\n        /* \"#utility.yul\":942:988   */\n      swap2\n      pop\n        /* \"#utility.yul\":719:994   */\n      pop\n        /* \"#utility.yul\":637:994   */\n      swap3\n      swap2\n      pop\n      pop\n      jump\t// out\n        /* \"#utility.yul\":1000:1077   */\n    tag_40:\n        /* \"#utility.yul\":1037:1044   */\n      0x00\n        /* \"#utility.yul\":1066:1071   */\n      dup2\n        /* \"#utility.yul\":1055:1071   */\n      swap1\n      pop\n        /* \"#utility.yul\":1000:1077   */\n      swap2\n      swap1\n      pop\n      jump\t// out\n        /* \"#utility.yul\":1083:1191   */\n    tag_41:\n        /* \"#utility.yul\":1160:1184   */\n      tag_92\n        /* \"#utility.yul\":1178:1183   */\n      dup2\n        /* \"#utility.yul\":1160:1184   */\n      tag_40\n      jump\t// in\n    tag_92:\n        /* \"#utility.yul\":1155:1158   */\n      dup3\n        /* \"#utility.yul\":1148:1185   */\n      mstore\n        /* \"#utility.yul\":1083:1191   */\n      pop\n      pop\n      jump\t// out\n        /* \"#utility.yul\":1197:1287   */\n    tag_42:\n        /* \"#utility.yul\":1231:1238   */\n      0x00\n        /* \"#utility.yul\":1274:1279   */\n      dup2\n        /* \"#utility.yul\":1267:1280   */\n      iszero\n        /* \"#utility.yul\":1260:1281   */\n      iszero\n        /* \"#utility.yul\":1249:1281   */\n      swap1\n      pop\n        /* \"#utility.yul\":1197:1287   */\n      swap2\n      swap1\n      pop\n      jump\t// out\n        /* \"#utility.yul\":1293:1392   */\n    tag_43:\n        /* \"#utility.yul\":1364:1385   */\n      tag_95\n        /* \"#utility.yul\":1379:1384   */\n      dup2\n        /* \"#utility.yul\":1364:1385   */\n      tag_42\n      jump\t// in\n    tag_95:\n        /* \"#utility.yul\":1359:1362   */\n      dup3\n        /* \"#utility.yul\":1352:1386   */\n      mstore\n        /* \"#utility.yul\":1293:1392   */\n      pop\n      pop\n      jump\t// out\n        /* \"#utility.yul\":1444:2391   */\n    tag_44:\n        /* \"#utility.yul\":1551:1554   */\n      0x00\n        /* \"#utility.yul\":1587:1591   */\n      0x80\n        /* \"#utility.yul\":1582:1585   */\n      dup4\n        /* \"#utility.yul\":1578:1592   */\n      add\n        /* \"#utility.yul\":1679:1683   */\n      0x00\n        /* \"#utility.yul\":1672:1677   */\n      dup4\n        /* \"#utility.yul\":1668:1684   */\n      add\n        /* \"#utility.yul\":1662:1685   */\n      mload\n        /* \"#utility.yul\":1732:1735   */\n      dup5\n        /* \"#utility.yul\":1726:1730   */\n      dup3\n        /* \"#utility.yul\":1722:1736   */\n      sub\n        /* \"#utility.yul\":1715:1719   */\n      0x00\n        /* \"#utility.yul\":1710:1713   */\n      dup7\n        /* \"#utility.yul\":1706:1720   */\n      add\n        /* \"#utility.yul\":1699:1737   */\n      mstore\n        /* \"#utility.yul\":1758:1831   */\n      tag_97\n        /* \"#utility.yul\":1826:1830   */\n      dup3\n        /* \"#utility.yul\":1812:1824   */\n      dup3\n        /* \"#utility.yul\":1758:1831   */\n      tag_39\n      jump\t// in\n    tag_97:\n        /* \"#utility.yul\":1750:1831   */\n      swap2\n      pop\n        /* \"#utility.yul\":1602:1842   */\n      pop\n        /* \"#utility.yul\":1924:1928   */\n      0x20\n        /* \"#utility.yul\":1917:1922   */\n      dup4\n        /* \"#utility.yul\":1913:1929   */\n      add\n        /* \"#utility.yul\":1907:1930   */\n      mload\n        /* \"#utility.yul\":1943:2006   */\n      tag_98\n        /* \"#utility.yul\":2000:2004   */\n      0x20\n        /* \"#utility.yul\":1995:1998   */\n      dup7\n        /* \"#utility.yul\":1991:2005   */\n      add\n        /* \"#utility.yul\":1977:1989   */\n      dup3\n        /* \"#utility.yul\":1943:2006   */\n      tag_41\n      jump\t// in\n    tag_98:\n        /* \"#utility.yul\":1852:2016   */\n      pop\n        /* \"#utility.yul\":2099:2103   */\n      0x40\n        /* \"#utility.yul\":2092:2097   */\n      dup4\n        /* \"#utility.yul\":2088:2104   */\n      add\n        /* \"#utility.yul\":2082:2105   */\n      mload\n        /* \"#utility.yul\":2118:2181   */\n      tag_99\n        /* \"#utility.yul\":2175:2179   */\n      0x40\n        /* \"#utility.yul\":2170:2173   */\n      dup7\n        /* \"#utility.yul\":2166:2180   */\n      add\n        /* \"#utility.yul\":2152:2164   */\n      dup3\n        /* \"#utility.yul\":2118:2181   */\n      tag_41\n      jump\t// in\n    tag_99:\n        /* \"#utility.yul\":2026:2191   */\n      pop\n        /* \"#utility.yul\":2278:2282   */\n      0x60\n        /* \"#utility.yul\":2271:2276   */\n      dup4\n        /* \"#utility.yul\":2267:2283   */\n      add\n        /* \"#utility.yul\":2261:2284   */\n      mload\n        /* \"#utility.yul\":2297:2354   */\n      tag_100\n        /* \"#utility.yul\":2348:2352   */\n      0x60\n        /* \"#utility.yul\":2343:2346   */\n      dup7\n        /* \"#utility.yul\":2339:2353   */\n      add\n        /* \"#utility.yul\":2325:2337   */\n      dup3\n        /* \"#utility.yul\":2297:2354   */\n      tag_43\n      jump\t// in\n    tag_100:\n        /* \"#utility.yul\":2201:2364   */\n      pop\n        /* \"#utility.yul\":2381:2385   */\n      dup1\n        /* \"#utility.yul\":2374:2385   */\n      swap2\n      pop\n        /* \"#utility.yul\":1556:2391   */\n      pop\n        /* \"#utility.yul\":1444:2391   */\n      swap3\n      swap2\n      pop\n      pop\n      jump\t// out\n        /* \"#utility.yul\":2397:2746   */\n    tag_9:\n        /* \"#utility.yul\":2528:2532   */\n      0x00\n        /* \"#utility.yul\":2566:2568   */\n      0x20\n        /* \"#utility.yul\":2555:2564   */\n      dup3\n        /* \"#utility.yul\":2551:2569   */\n      add\n        /* \"#utility.yul\":2543:2569   */\n      swap1\n      pop\n        /* \"#utility.yul\":2615:2624   */\n      dup2\n        /* \"#utility.yul\":2609:2613   */\n      dup2\n        /* \"#utility.yul\":2605:2625   */\n      sub\n        /* \"#utility.yul\":2601:2602   */\n      0x00\n        /* \"#utility.yul\":2590:2599   */\n      dup4\n        /* \"#utility.yul\":2586:2603   */\n      add\n        /* \"#utility.yul\":2579:2626   */\n      mstore\n        /* \"#utility.yul\":2643:2739   */\n      tag_102\n        /* \"#utility.yul\":2734:2738   */\n      dup2\n        /* \"#utility.yul\":2725:2731   */\n      dup5\n        /* \"#utility.yul\":2643:2739   */\n      tag_44\n      jump\t// in\n    tag_102:\n        /* \"#utility.yul\":2635:2739   */\n      swap1\n      pop\n        /* \"#utility.yul\":2397:2746   */\n      swap3\n      swap2\n      pop\n      pop\n      jump\t// out\n        /* \"#utility.yul\":2752:2921   */\n    tag_45:\n        /* \"#utility.yul\":2836:2847   */\n      0x00\n        /* \"#utility.yul\":2870:2876   */\n      dup3\n        /* \"#utility.yul\":2865:2868   */\n      dup3\n        /* \"#utility.yul\":2858:2877   */\n      mstore\n        /* \"#utility.yul\":2910:2914   */\n      0x20\n        /* \"#utility.yul\":2905:2908   */\n      dup3\n        /* \"#utility.yul\":2901:2915   */\n      add\n        /* \"#utility.yul\":2886:2915   */\n      swap1\n      pop\n        /* \"#utility.yul\":2752:2921   */\n      swap3\n      swap2\n      pop\n      pop\n      jump\t// out\n        /* \"#utility.yul\":2927:3304   */\n    tag_46:\n        /* \"#utility.yul\":3015:3018   */\n      0x00\n        /* \"#utility.yul\":3043:3082   */\n      tag_105\n        /* \"#utility.yul\":3076:3081   */\n      dup3\n        /* \"#utility.yul\":3043:3082   */\n      tag_35\n      jump\t// in\n    tag_105:\n        /* \"#utility.yul\":3098:3169   */\n      tag_106\n        /* \"#utility.yul\":3162:3168   */\n      dup2\n        /* \"#utility.yul\":3157:3160   */\n      dup6\n        /* \"#utility.yul\":3098:3169   */\n      tag_45\n      jump\t// in\n    tag_106:\n        /* \"#utility.yul\":3091:3169   */\n      swap4\n      pop\n        /* \"#utility.yul\":3178:3243   */\n      tag_107\n        /* \"#utility.yul\":3236:3242   */\n      dup2\n        /* \"#utility.yul\":3231:3234   */\n      dup6\n        /* \"#utility.yul\":3224:3228   */\n      0x20\n        /* \"#utility.yul\":3217:3222   */\n      dup7\n        /* \"#utility.yul\":3213:3229   */\n      add\n        /* \"#utility.yul\":3178:3243   */\n      tag_37\n      jump\t// in\n    tag_107:\n        /* \"#utility.yul\":3268:3297   */\n      tag_108\n        /* \"#utility.yul\":3290:3296   */\n      dup2\n        /* \"#utility.yul\":3268:3297   */\n      tag_38\n      jump\t// in\n    tag_108:\n        /* \"#utility.yul\":3263:3266   */\n      dup5\n        /* \"#utility.yul\":3259:3298   */\n      add\n        /* \"#utility.yul\":3252:3298   */\n      swap2\n      pop\n        /* \"#utility.yul\":3019:3304   */\n      pop\n        /* \"#utility.yul\":2927:3304   */\n      swap3\n      swap2\n      pop\n      pop\n      jump\t// out\n        /* \"#utility.yul\":3310:3428   */\n    tag_47:\n        /* \"#utility.yul\":3397:3421   */\n      tag_110\n        /* \"#utility.yul\":3415:3420   */\n      dup2\n        /* \"#utility.yul\":3397:3421   */\n      tag_40\n      jump\t// in\n    tag_110:\n        /* \"#utility.yul\":3392:3395   */\n      dup3\n        /* \"#utility.yul\":3385:3422   */\n      mstore\n        /* \"#utility.yul\":3310:3428   */\n      pop\n      pop\n      jump\t// out\n        /* \"#utility.yul\":3434:3543   */\n    tag_48:\n        /* \"#utility.yul\":3515:3536   */\n      tag_112\n        /* \"#utility.yul\":3530:3535   */\n      dup2\n        /* \"#utility.yul\":3515:3536   */\n      tag_42\n      jump\t// in\n    tag_112:\n        /* \"#utility.yul\":3510:3513   */\n      dup3\n        /* \"#utility.yul\":3503:3537   */\n      mstore\n        /* \"#utility.yul\":3434:3543   */\n      pop\n      pop\n      jump\t// out\n        /* \"#utility.yul\":3549:4181   */\n    tag_13:\n        /* \"#utility.yul\":3740:3744   */\n      0x00\n        /* \"#utility.yul\":3778:3781   */\n      0x80\n        /* \"#utility.yul\":3767:3776   */\n      dup3\n        /* \"#utility.yul\":3763:3782   */\n      add\n        /* \"#utility.yul\":3755:3782   */\n      swap1\n      pop\n        /* \"#utility.yul\":3828:3837   */\n      dup2\n        /* \"#utility.yul\":3822:3826   */\n      dup2\n        /* \"#utility.yul\":3818:3838   */\n      sub\n        /* \"#utility.yul\":3814:3815   */\n      0x00\n        /* \"#utility.yul\":3803:3812   */\n      dup4\n        /* \"#utility.yul\":3799:3816   */\n      add\n        /* \"#utility.yul\":3792:3839   */\n      mstore\n        /* \"#utility.yul\":3856:3934   */\n      tag_114\n        /* \"#utility.yul\":3929:3933   */\n      dup2\n        /* \"#utility.yul\":3920:3926   */\n      dup8\n        /* \"#utility.yul\":3856:3934   */\n      tag_46\n      jump\t// in\n    tag_114:\n        /* \"#utility.yul\":3848:3934   */\n      swap1\n      pop\n        /* \"#utility.yul\":3944:4016   */\n      tag_115\n        /* \"#utility.yul\":4012:4014   */\n      0x20\n        /* \"#utility.yul\":4001:4010   */\n      dup4\n        /* \"#utility.yul\":3997:4015   */\n      add\n        /* \"#utility.yul\":3988:3994   */\n      dup7\n        /* \"#utility.yul\":3944:4016   */\n      tag_47\n      jump\t// in\n    tag_115:\n        /* \"#utility.yul\":4026:4098   */\n      tag_116\n        /* \"#utility.yul\":4094:4096   */\n      0x40\n        /* \"#utility.yul\":4083:4092   */\n      dup4\n        /* \"#utility.yul\":4079:4097   */\n      add\n        /* \"#utility.yul\":4070:4076   */\n      dup6\n        /* \"#utility.yul\":4026:4098   */\n      tag_47\n      jump\t// in\n    tag_116:\n        /* \"#utility.yul\":4108:4174   */\n      tag_117\n        /* \"#utility.yul\":4170:4172   */\n      0x60\n        /* \"#utility.yul\":4159:4168   */\n      dup4\n        /* \"#utility.yul\":4155:4173   */\n      add\n        /* \"#utility.yul\":4146:4152   */\n      dup5\n        /* \"#utility.yul\":4108:4174   */\n      tag_48\n      jump\t// in\n    tag_117:\n        /* \"#utility.yul\":3549:4181   */\n      swap6\n      swap5\n      pop\n      pop\n      pop\n      pop\n      pop\n      jump\t// out\n        /* \"#utility.yul\":4268:4385   */\n    tag_50:\n        /* \"#utility.yul\":4377:4378   */\n      0x00\n        /* \"#utility.yul\":4374:4375   */\n      dup1\n        /* \"#utility.yul\":4367:4379   */\n      revert\n        /* \"#utility.yul\":4391:4508   */\n    tag_51:\n        /* \"#utility.yul\":4500:4501   */\n      0x00\n        /* \"#utility.yul\":4497:4498   */\n      dup1\n        /* \"#utility.yul\":4490:4502   */\n      revert\n        /* \"#utility.yul\":4514:4631   */\n    tag_52:\n        /* \"#utility.yul\":4623:4624   */\n      0x00\n        /* \"#utility.yul\":4620:4621   */\n      dup1\n        /* \"#utility.yul\":4613:4625   */\n      revert\n        /* \"#utility.yul\":4637:4754   */\n    tag_53:\n        /* \"#utility.yul\":4746:4747   */\n      0x00\n        /* \"#utility.yul\":4743:4744   */\n      dup1\n        /* \"#utility.yul\":4736:4748   */\n      revert\n        /* \"#utility.yul\":4760:4877   */\n    tag_54:\n        /* \"#utility.yul\":4869:4870   */\n      0x00\n        /* \"#utility.yul\":4866:4867   */\n      dup1\n        /* \"#utility.yul\":4859:4871   */\n      revert\n        /* \"#utility.yul\":4897:5450   */\n    tag_55:\n        /* \"#utility.yul\":4955:4963   */\n      0x00\n        /* \"#utility.yul\":4965:4971   */\n      dup1\n        /* \"#utility.yul\":5015:5018   */\n      dup4\n        /* \"#utility.yul\":5008:5012   */\n      0x1f\n        /* \"#utility.yul\":5000:5006   */\n      dup5\n        /* \"#utility.yul\":4996:5013   */\n      add\n        /* \"#utility.yul\":4992:5019   */\n      slt\n        /* \"#utility.yul\":4982:5104   */\n      tag_125\n      jumpi\n        /* \"#utility.yul\":5023:5102   */\n      tag_126\n      tag_52\n      jump\t// in\n    tag_126:\n        /* \"#utility.yul\":4982:5104   */\n    tag_125:\n        /* \"#utility.yul\":5136:5142   */\n      dup3\n        /* \"#utility.yul\":5123:5143   */\n      calldataload\n        /* \"#utility.yul\":5113:5143   */\n      swap1\n      pop\n        /* \"#utility.yul\":5166:5184   */\n      0xffffffffffffffff\n        /* \"#utility.yul\":5158:5164   */\n      dup2\n        /* \"#utility.yul\":5155:5185   */\n      gt\n        /* \"#utility.yul\":5152:5269   */\n      iszero\n      tag_127\n      jumpi\n        /* \"#utility.yul\":5188:5267   */\n      tag_128\n      tag_53\n      jump\t// in\n    tag_128:\n        /* \"#utility.yul\":5152:5269   */\n    tag_127:\n        /* \"#utility.yul\":5302:5306   */\n      0x20\n        /* \"#utility.yul\":5294:5300   */\n      dup4\n        /* \"#utility.yul\":5290:5307   */\n      add\n        /* \"#utility.yul\":5278:5307   */\n      swap2\n      pop\n        /* \"#utility.yul\":5356:5359   */\n      dup4\n        /* \"#utility.yul\":5348:5352   */\n      0x01\n        /* \"#utility.yul\":5340:5346   */\n      dup3\n        /* \"#utility.yul\":5336:5353   */\n      mul\n        /* \"#utility.yul\":5326:5334   */\n      dup4\n        /* \"#utility.yul\":5322:5354   */\n      add\n        /* \"#utility.yul\":5319:5360   */\n      gt\n        /* \"#utility.yul\":5316:5444   */\n      iszero\n      tag_129\n      jumpi\n        /* \"#utility.yul\":5363:5442   */\n      tag_130\n      tag_54\n      jump\t// in\n    tag_130:\n        /* \"#utility.yul\":5316:5444   */\n    tag_129:\n        /* \"#utility.yul\":4897:5450   */\n      swap3\n      pop\n      swap3\n      swap1\n      pop\n      jump\t// out\n        /* \"#utility.yul\":5456:5578   */\n    tag_56:\n        /* \"#utility.yul\":5529:5553   */\n      tag_132\n        /* \"#utility.yul\":5547:5552   */\n      dup2\n        /* \"#utility.yul\":5529:5553   */\n      tag_40\n      jump\t// in\n    tag_132:\n        /* \"#utility.yul\":5522:5527   */\n      dup2\n        /* \"#utility.yul\":5519:5554   */\n      eq\n        /* \"#utility.yul\":5509:5572   */\n      tag_133\n      jumpi\n        /* \"#utility.yul\":5568:5569   */\n      0x00\n        /* \"#utility.yul\":5565:5566   */\n      dup1\n        /* \"#utility.yul\":5558:5570   */\n      revert\n        /* \"#utility.yul\":5509:5572   */\n    tag_133:\n        /* \"#utility.yul\":5456:5578   */\n      pop\n      jump\t// out\n        /* \"#utility.yul\":5584:5723   */\n    tag_57:\n        /* \"#utility.yul\":5630:5635   */\n      0x00\n        /* \"#utility.yul\":5668:5674   */\n      dup2\n        /* \"#utility.yul\":5655:5675   */\n      calldataload\n        /* \"#utility.yul\":5646:5675   */\n      swap1\n      pop\n        /* \"#utility.yul\":5684:5717   */\n      tag_135\n        /* \"#utility.yul\":5711:5716   */\n      dup2\n        /* \"#utility.yul\":5684:5717   */\n      tag_56\n      jump\t// in\n    tag_135:\n        /* \"#utility.yul\":5584:5723   */\n      swap3\n      swap2\n      pop\n      pop\n      jump\t// out\n        /* \"#utility.yul\":5729:5845   */\n    tag_58:\n        /* \"#utility.yul\":5799:5820   */\n      tag_137\n        /* \"#utility.yul\":5814:5819   */\n      dup2\n        /* \"#utility.yul\":5799:5820   */\n      tag_42\n      jump\t// in\n    tag_137:\n        /* \"#utility.yul\":5792:5797   */\n      dup2\n        /* \"#utility.yul\":5789:5821   */\n      eq\n        /* \"#utility.yul\":5779:5839   */\n      tag_138\n      jumpi\n        /* \"#utility.yul\":5835:5836   */\n      0x00\n        /* \"#utility.yul\":5832:5833   */\n      dup1\n        /* \"#utility.yul\":5825:5837   */\n      revert\n        /* \"#utility.yul\":5779:5839   */\n    tag_138:\n        /* \"#utility.yul\":5729:5845   */\n      pop\n      jump\t// out\n        /* \"#utility.yul\":5851:5984   */\n    tag_59:\n        /* \"#utility.yul\":5894:5899   */\n      0x00\n        /* \"#utility.yul\":5932:5938   */\n      dup2\n        /* \"#utility.yul\":5919:5939   */\n      calldataload\n        /* \"#utility.yul\":5910:5939   */\n      swap1\n      pop\n        /* \"#utility.yul\":5948:5978   */\n      tag_140\n        /* \"#utility.yul\":5972:5977   */\n      dup2\n        /* \"#utility.yul\":5948:5978   */\n      tag_58\n      jump\t// in\n    tag_140:\n        /* \"#utility.yul\":5851:5984   */\n      swap3\n      swap2\n      pop\n      pop\n      jump\t// out\n        /* \"#utility.yul\":5990:6949   */\n    tag_16:\n        /* \"#utility.yul\":6085:6091   */\n      0x00\n        /* \"#utility.yul\":6093:6099   */\n      dup1\n        /* \"#utility.yul\":6101:6107   */\n      0x00\n        /* \"#utility.yul\":6109:6115   */\n      dup1\n        /* \"#utility.yul\":6117:6123   */\n      0x00\n        /* \"#utility.yul\":6166:6169   */\n      0x80\n        /* \"#utility.yul\":6154:6163   */\n      dup7\n        /* \"#utility.yul\":6145:6152   */\n      dup9\n        /* \"#utility.yul\":6141:6164   */\n      sub\n        /* \"#utility.yul\":6137:6170   */\n      slt\n        /* \"#utility.yul\":6134:6254   */\n      iszero\n      tag_142\n      jumpi\n        /* \"#utility.yul\":6173:6252   */\n      tag_143\n      tag_50\n      jump\t// in\n    tag_143:\n        /* \"#utility.yul\":6134:6254   */\n    tag_142:\n        /* \"#utility.yul\":6321:6322   */\n      0x00\n        /* \"#utility.yul\":6310:6319   */\n      dup7\n        /* \"#utility.yul\":6306:6323   */\n      add\n        /* \"#utility.yul\":6293:6324   */\n      calldataload\n        /* \"#utility.yul\":6351:6369   */\n      0xffffffffffffffff\n        /* \"#utility.yul\":6343:6349   */\n      dup2\n        /* \"#utility.yul\":6340:6370   */\n      gt\n        /* \"#utility.yul\":6337:6454   */\n      iszero\n      tag_144\n      jumpi\n        /* \"#utility.yul\":6373:6452   */\n      tag_145\n      tag_51\n      jump\t// in\n    tag_145:\n        /* \"#utility.yul\":6337:6454   */\n    tag_144:\n        /* \"#utility.yul\":6486:6551   */\n      tag_146\n        /* \"#utility.yul\":6543:6550   */\n      dup9\n        /* \"#utility.yul\":6534:6540   */\n      dup3\n        /* \"#utility.yul\":6523:6532   */\n      dup10\n        /* \"#utility.yul\":6519:6541   */\n      add\n        /* \"#utility.yul\":6486:6551   */\n      tag_55\n      jump\t// in\n    tag_146:\n        /* \"#utility.yul\":6468:6551   */\n      swap6\n      pop\n      swap6\n      pop\n        /* \"#utility.yul\":6264:6561   */\n      pop\n        /* \"#utility.yul\":6600:6602   */\n      0x20\n        /* \"#utility.yul\":6626:6679   */\n      tag_147\n        /* \"#utility.yul\":6671:6678   */\n      dup9\n        /* \"#utility.yul\":6662:6668   */\n      dup3\n        /* \"#utility.yul\":6651:6660   */\n      dup10\n        /* \"#utility.yul\":6647:6669   */\n      add\n        /* \"#utility.yul\":6626:6679   */\n      tag_57\n      jump\t// in\n    tag_147:\n        /* \"#utility.yul\":6616:6679   */\n      swap4\n      pop\n        /* \"#utility.yul\":6571:6689   */\n      pop\n        /* \"#utility.yul\":6728:6730   */\n      0x40\n        /* \"#utility.yul\":6754:6807   */\n      tag_148\n        /* \"#utility.yul\":6799:6806   */\n      dup9\n        /* \"#utility.yul\":6790:6796   */\n      dup3\n        /* \"#utility.yul\":6779:6788   */\n      dup10\n        /* \"#utility.yul\":6775:6797   */\n      add\n        /* \"#utility.yul\":6754:6807   */\n      tag_57\n      jump\t// in\n    tag_148:\n        /* \"#utility.yul\":6744:6807   */\n      swap3\n      pop\n        /* \"#utility.yul\":6699:6817   */\n      pop\n        /* \"#utility.yul\":6856:6858   */\n      0x60\n        /* \"#utility.yul\":6882:6932   */\n      tag_149\n        /* \"#utility.yul\":6924:6931   */\n      dup9\n        /* \"#utility.yul\":6915:6921   */\n      dup3\n        /* \"#utility.yul\":6904:6913   */\n      dup10\n        /* \"#utility.yul\":6900:6922   */\n      add\n        /* \"#utility.yul\":6882:6932   */\n      tag_59\n      jump\t// in\n    tag_149:\n        /* \"#utility.yul\":6872:6932   */\n      swap2\n      pop\n        /* \"#utility.yul\":6827:6942   */\n      pop\n        /* \"#utility.yul\":5990:6949   */\n      swap3\n      swap6\n      pop\n      swap3\n      swap6\n      swap1\n      swap4\n      pop\n      jump\t// out\n        /* \"#utility.yul\":6955:7135   */\n    tag_60:\n        /* \"#utility.yul\":7003:7080   */\n      0x4e487b7100000000000000000000000000000000000000000000000000000000\n        /* \"#utility.yul\":7000:7001   */\n      0x00\n        /* \"#utility.yul\":6993:7081   */\n      mstore\n        /* \"#utility.yul\":7100:7104   */\n      0x22\n        /* \"#utility.yul\":7097:7098   */\n      0x04\n        /* \"#utility.yul\":7090:7105   */\n      mstore\n        /* \"#utility.yul\":7124:7128   */\n      0x24\n        /* \"#utility.yul\":7121:7122   */\n      0x00\n        /* \"#utility.yul\":7114:7129   */\n      revert\n        /* \"#utility.yul\":7141:7461   */\n    tag_22:\n        /* \"#utility.yul\":7185:7191   */\n      0x00\n        /* \"#utility.yul\":7222:7223   */\n      0x02\n        /* \"#utility.yul\":7216:7220   */\n      dup3\n        /* \"#utility.yul\":7212:7224   */\n      div\n        /* \"#utility.yul\":7202:7224   */\n      swap1\n      pop\n        /* \"#utility.yul\":7269:7270   */\n      0x01\n        /* \"#utility.yul\":7263:7267   */\n      dup3\n        /* \"#utility.yul\":7259:7271   */\n      and\n        /* \"#utility.yul\":7290:7308   */\n      dup1\n        /* \"#utility.yul\":7280:7361   */\n      tag_152\n      jumpi\n        /* \"#utility.yul\":7346:7350   */\n      0x7f\n        /* \"#utility.yul\":7338:7344   */\n      dup3\n        /* \"#utility.yul\":7334:7351   */\n      and\n        /* \"#utility.yul\":7324:7351   */\n      swap2\n      pop\n        /* \"#utility.yul\":7280:7361   */\n    tag_152:\n        /* \"#utility.yul\":7408:7410   */\n      0x20\n        /* \"#utility.yul\":7400:7406   */\n      dup3\n        /* \"#utility.yul\":7397:7411   */\n      lt\n        /* \"#utility.yul\":7377:7395   */\n      dup2\n        /* \"#utility.yul\":7374:7412   */\n      sub\n        /* \"#utility.yul\":7371:7455   */\n      tag_153\n      jumpi\n        /* \"#utility.yul\":7427:7445   */\n      tag_154\n      tag_60\n      jump\t// in\n    tag_154:\n        /* \"#utility.yul\":7371:7455   */\n    tag_153:\n        /* \"#utility.yul\":7192:7461   */\n      pop\n        /* \"#utility.yul\":7141:7461   */\n      swap2\n      swap1\n      pop\n      jump\t// out\n        /* \"#utility.yul\":7467:7647   */\n    tag_61:\n        /* \"#utility.yul\":7515:7592   */\n      0x4e487b7100000000000000000000000000000000000000000000000000000000\n        /* \"#utility.yul\":7512:7513   */\n      0x00\n        /* \"#utility.yul\":7505:7593   */\n      mstore\n        /* \"#utility.yul\":7612:7616   */\n      0x41\n        /* \"#utility.yul\":7609:7610   */\n      0x04\n        /* \"#utility.yul\":7602:7617   */\n      mstore\n        /* \"#utility.yul\":7636:7640   */\n      0x24\n        /* \"#utility.yul\":7633:7634   */\n      0x00\n        /* \"#utility.yul\":7626:7641   */\n      revert\n        /* \"#utility.yul\":7653:7794   */\n    tag_62:\n        /* \"#utility.yul\":7702:7706   */\n      0x00\n        /* \"#utility.yul\":7725:7728   */\n      dup2\n        /* \"#utility.yul\":7717:7728   */\n      swap1\n      pop\n        /* \"#utility.yul\":7748:7751   */\n      dup2\n        /* \"#utility.yul\":7745:7746   */\n      0x00\n        /* \"#utility.yul\":7738:7752   */\n      mstore\n        /* \"#utility.yul\":7782:7786   */\n      0x20\n        /* \"#utility.yul\":7779:7780   */\n      0x00\n        /* \"#utility.yul\":7769:7787   */\n      keccak256\n        /* \"#utility.yul\":7761:7787   */\n      swap1\n      pop\n        /* \"#utility.yul\":7653:7794   */\n      swap2\n      swap1\n      pop\n      jump\t// out\n        /* \"#utility.yul\":7800:7893   */\n    tag_63:\n        /* \"#utility.yul\":7837:7843   */\n      0x00\n        /* \"#utility.yul\":7884:7886   */\n      0x20\n        /* \"#utility.yul\":7879:7881   */\n      0x1f\n        /* \"#utility.yul\":7872:7877   */\n      dup4\n        /* \"#utility.yul\":7868:7882   */\n      add\n        /* \"#utility.yul\":7864:7887   */\n      div\n        /* \"#utility.yul\":7854:7887   */\n      swap1\n      pop\n        /* \"#utility.yul\":7800:7893   */\n      swap2\n      swap1\n      pop\n      jump\t// out\n        /* \"#utility.yul\":7899:8006   */\n    tag_64:\n        /* \"#utility.yul\":7943:7951   */\n      0x00\n        /* \"#utility.yul\":7993:7998   */\n      dup3\n        /* \"#utility.yul\":7987:7991   */\n      dup3\n        /* \"#utility.yul\":7983:7999   */\n      shl\n        /* \"#utility.yul\":7962:7999   */\n      swap1\n      pop\n        /* \"#utility.yul\":7899:8006   */\n      swap3\n      swap2\n      pop\n      pop\n      jump\t// out\n        /* \"#utility.yul\":8012:8405   */\n    tag_65:\n        /* \"#utility.yul\":8081:8087   */\n      0x00\n        /* \"#utility.yul\":8131:8132   */\n      0x08\n        /* \"#utility.yul\":8119:8129   */\n      dup4\n        /* \"#utility.yul\":8115:8133   */\n      mul\n        /* \"#utility.yul\":8154:8251   */\n      tag_160\n        /* \"#utility.yul\":8184:8250   */\n      0xffffffffffffffffffffffffffffffffffffffffffffffffffffffffffffffff\n        /* \"#utility.yul\":8173:8182   */\n      dup3\n        /* \"#utility.yul\":8154:8251   */\n      tag_64\n      jump\t// in\n    tag_160:\n        /* \"#utility.yul\":8272:8311   */\n      tag_161\n        /* \"#utility.yul\":8302:8310   */\n      dup7\n        /* \"#utility.yul\":8291:8300   */\n      dup4\n        /* \"#utility.yul\":8272:8311   */\n      tag_64\n      jump\t// in\n    tag_161:\n        /* \"#utility.yul\":8260:8311   */\n      swap6\n      pop\n        /* \"#utility.yul\":8344:8348   */\n      dup1\n        /* \"#utility.yul\":8340:8349   */\n      not\n        /* \"#utility.yul\":8333:8338   */\n      dup5\n        /* \"#utility.yul\":8329:8350   */\n      and\n        /* \"#utility.yul\":8320:8350   */\n      swap4\n      pop\n        /* \"#utility.yul\":8393:8397   */\n      dup1\n        /* \"#utility.yul\":8383:8391   */\n      dup7\n        /* \"#utility.yul\":8379:8398   */\n      and\n        /* \"#utility.yul\":8372:8377   */\n      dup5\n        /* \"#utility.yul\":8369:8399   */\n      or\n        /* \"#utility.yul\":8359:8399   */\n      swap3\n      pop\n        /* \"#utility.yul\":8088:8405   */\n      pop\n      pop\n        /* \"#utility.yul\":8012:8405   */\n      swap4\n      swap3\n      pop\n      pop\n      pop\n      jump\t// out\n        /* \"#utility.yul\":8411:8471   */\n    tag_66:\n        /* \"#utility.yul\":8439:8442   */\n      0x00\n        /* \"#utility.yul\":8460:8465   */\n      dup2\n        /* \"#utility.yul\":8453:8465   */\n      swap1\n      pop\n        /* \"#utility.yul\":8411:8471   */\n      swap2\n      swap1\n      pop\n      jump\t// out\n        /* \"#utility.yul\":8477:8619   */\n    tag_67:\n        /* \"#utility.yul\":8527:8536   */\n      0x00\n        /* \"#utility.yul\":8560:8613   */\n      tag_164\n        /* \"#utility.yul\":8578:8612   */\n      tag_165\n        /* \"#utility.yul\":8587:8611   */\n      tag_166\n        /* \"#utility.yul\":8605:8610   */\n      dup5\n        /* \"#utility.yul\":8587:8611   */\n      tag_40\n      jump\t// in\n    tag_166:\n        /* \"#utility.yul\":8578:8612   */\n      tag_66\n      jump\t// in\n    tag_165:\n        /* \"#utility.yul\":8560:8613   */\n      tag_40\n      jump\t// in\n    tag_164:\n        /* \"#utility.yul\":8547:8613   */\n      swap1\n      pop\n        /* \"#utility.yul\":8477:8619   */\n      swap2\n      swap1\n      pop\n      jump\t// out\n        /* \"#utility.yul\":8625:8700   */\n    tag_68:\n        /* \"#utility.yul\":8668:8671   */\n      0x00\n        /* \"#utility.yul\":8689:8694   */\n      dup2\n        /* \"#utility.yul\":8682:8694   */\n      swap1\n      pop\n        /* \"#utility.yul\":8625:8700   */\n      swap2\n      swap1\n      pop\n      jump\t// out\n        /* \"#utility.yul\":8706:8975   */\n    tag_69:\n        /* \"#utility.yul\":8816:8855   */\n      tag_169\n        /* \"#utility.yul\":8847:8854   */\n      dup4\n        /* \"#utility.yul\":8816:8855   */\n      tag_67\n      jump\t// in\n    tag_169:\n        /* \"#utility.yul\":8877:8968   */\n      tag_170\n        /* \"#utility.yul\":8926:8967   */\n      tag_171\n        /* \"#utility.yul\":8950:8966   */\n      dup3\n        /* \"#utility.yul\":8926:8967   */\n      tag_68\n      jump\t// in\n    tag_171:\n        /* \"#utility.yul\":8918:8924   */\n      dup5\n        /* \"#utility.yul\":8911:8915   */\n      dup5\n        /* \"#utility.yul\":8905:8916   */\n      sload\n        /* \"#utility.yul\":8877:8968   */\n      tag_65\n      jump\t// in\n    tag_170:\n        /* \"#utility.yul\":8871:8875   */\n      dup3\n        /* \"#utility.yul\":8864:8969   */\n      sstore\n        /* \"#utility.yul\":8782:8975   */\n      pop\n        /* \"#utility.yul\":8706:8975   */\n      pop\n      pop\n      pop\n      jump\t// out\n        /* \"#utility.yul\":8981:9054   */\n    tag_70:\n        /* \"#utility.yul\":9026:9029   */\n      0x00\n        /* \"#utility.yul\":8981:9054   */\n      swap1\n      jump\t// out\n        /* \"#utility.yul\":9060:9249   */\n    tag_71:\n        /* \"#utility.yul\":9137:9169   */\n      tag_174\n      tag_70\n      jump\t// in\n    tag_174:\n        /* \"#utility.yul\":9178:9243   */\n      tag_175\n        /* \"#utility.yul\":9236:9242   */\n      dup2\n        /* \"#utility.yul\":9228:9234   */\n      dup5\n        /* \"#utility.yul\":9222:9226   */\n      dup5\n        /* \"#utility.yul\":9178:9243   */\n      tag_69\n      jump\t// in\n    tag_175:\n        /* \"#utility.yul\":9113:9249   */\n      pop\n        /* \"#utility.yul\":9060:9249   */\n      pop\n      pop\n      jump\t// out\n        /* \"#utility.yul\":9255:9441   */\n    tag_72:\n        /* \"#utility.yul\":9315:9435   */\n    tag_177:\n        /* \"#utility.yul\":9332:9335   */\n      dup2\n        /* \"#utility.yul\":9325:9330   */\n      dup2\n        /* \"#utility.yul\":9322:9336   */\n      lt\n        /* \"#utility.yul\":9315:9435   */\n      iszero\n      tag_179\n      jumpi\n        /* \"#utility.yul\":9386:9425   */\n      tag_180\n        /* \"#utility.yul\":9423:9424   */\n      0x00\n        /* \"#utility.yul\":9416:9421   */\n      dup3\n        /* \"#utility.yul\":9386:9425   */\n      tag_71\n      jump\t// in\n    tag_180:\n        /* \"#utility.yul\":9359:9360   */\n      0x01\n        /* \"#utility.yul\":9352:9357   */\n      dup2\n        /* \"#utility.yul\":9348:9361   */\n      add\n        /* \"#utility.yul\":9339:9361   */\n      swap1\n      pop\n        /* \"#utility.yul\":9315:9435   */\n      jump(tag_177)\n    tag_179:\n        /* \"#utility.yul\":9255:9441   */\n      pop\n      pop\n      jump\t// out\n        /* \"#utility.yul\":9447:9990   */\n    tag_73:\n        /* \"#utility.yul\":9548:9550   */\n      0x1f\n        /* \"#utility.yul\":9543:9546   */\n      dup3\n        /* \"#utility.yul\":9540:9551   */\n      gt\n        /* \"#utility.yul\":9537:9983   */\n      iszero\n      tag_182\n      jumpi\n        /* \"#utility.yul\":9582:9620   */\n      tag_183\n        /* \"#utility.yul\":9614:9619   */\n      dup2\n        /* \"#utility.yul\":9582:9620   */\n      tag_62\n      jump\t// in\n    tag_183:\n        /* \"#utility.yul\":9666:9695   */\n      tag_184\n        /* \"#utility.yul\":9684:9694   */\n      dup5\n        /* \"#utility.yul\":9666:9695   */\n      tag_63\n      jump\t// in\n    tag_184:\n        /* \"#utility.yul\":9656:9664   */\n      dup2\n        /* \"#utility.yul\":9652:9696   */\n      add\n        /* \"#utility.yul\":9849:9851   */\n      0x20\n        /* \"#utility.yul\":9837:9847   */\n      dup6\n        /* \"#utility.yul\":9834:9852   */\n      lt\n        /* \"#utility.yul\":9831:9880   */\n      iszero\n      tag_185\n      jumpi\n        /* \"#utility.yul\":9870:9878   */\n      dup2\n        /* \"#utility.yul\":9855:9878   */\n      swap1\n      pop\n        /* \"#utility.yul\":9831:9880   */\n    tag_185:\n        /* \"#utility.yul\":9893:9973   */\n      tag_186\n        /* \"#utility.yul\":9949:9971   */\n      tag_187\n        /* \"#utility.yul\":9967:9970   */\n      dup6\n        /* \"#utility.yul\":9949:9971   */\n      tag_63\n      jump\t// in\n    tag_187:\n        /* \"#utility.yul\":9939:9947   */\n      dup4\n        /* \"#utility.yul\":9935:9972   */\n      add\n        /* \"#utility.yul\":9922:9933   */\n      dup3\n        /* \"#utility.yul\":9893:9973   */\n      tag_72\n      jump\t// in\n    tag_186:\n        /* \"#utility.yul\":9552:9983   */\n      pop\n      pop\n        /* \"#utility.yul\":9537:9983   */\n    tag_182:\n        /* \"#utility.yul\":9447:9990   */\n      pop\n      pop\n      pop\n      jump\t// out\n        /* \"#utility.yul\":9996:10113   */\n    tag_74:\n        /* \"#utility.yul\":10050:10058   */\n      0x00\n        /* \"#utility.yul\":10100:10105   */\n      dup3\n        /* \"#utility.yul\":10094:10098   */\n      dup3\n        /* \"#utility.yul\":10090:10106   */\n      shr\n        /* \"#utility.yul\":10069:10106   */\n      swap1\n      pop\n        /* \"#utility.yul\":9996:10113   */\n      swap3\n      swap2\n      pop\n      pop\n      jump\t// out\n        /* \"#utility.yul\":10119:10288   */\n    tag_75:\n        /* \"#utility.yul\":10163:10169   */\n      0x00\n        /* \"#utility.yul\":10196:10247   */\n      tag_190\n        /* \"#utility.yul\":10244:10245   */\n      0x00\n        /* \"#utility.yul\":10240:10246   */\n      not\n        /* \"#utility.yul\":10232:10237   */\n      dup5\n        /* \"#utility.yul\":10229:10230   */\n      0x08\n        /* \"#utility.yul\":10225:10238   */\n      mul\n        /* \"#utility.yul\":10196:10247   */\n      tag_74\n      jump\t// in\n    tag_190:\n        /* \"#utility.yul\":10192:10248   */\n      not\n        /* \"#utility.yul\":10277:10281   */\n      dup1\n        /* \"#utility.yul\":10271:10275   */\n      dup4\n        /* \"#utility.yul\":10267:10282   */\n      and\n        /* \"#utility.yul\":10257:10282   */\n      swap2\n      pop\n        /* \"#utility.yul\":10170:10288   */\n      pop\n        /* \"#utility.yul\":10119:10288   */\n      swap3\n      swap2\n      pop\n      pop\n      jump\t// out\n        /* \"#utility.yul\":10293:10588   */\n    tag_76:\n        /* \"#utility.yul\":10369:10373   */\n      0x00\n        /* \"#utility.yul\":10515:10544   */\n      tag_192\n        /* \"#utility.yul\":10540:10543   */\n      dup4\n        /* \"#utility.yul\":10534:10538   */\n      dup4\n        /* \"#utility.yul\":10515:10544   */\n      tag_75\n      jump\t// in\n    tag_192:\n        /* \"#utility.yul\":10507:10544   */\n      swap2\n      pop\n        /* \"#utility.yul\":10577:10580   */\n      dup3\n        /* \"#utility.yul\":10574:10575   */\n      0x02\n        /* \"#utility.yul\":10570:10581   */\n      mul\n        /* \"#utility.yul\":10564:10568   */\n      dup3\n        /* \"#utility.yul\":10561:10582   */\n      or\n        /* \"#utility.yul\":10553:10582   */\n      swap1\n      pop\n        /* \"#utility.yul\":10293:10588   */\n      swap3\n      swap2\n      pop\n      pop\n      jump\t// out\n        /* \"#utility.yul\":10593:11988   */\n    tag_34:\n        /* \"#utility.yul\":10710:10747   */\n      tag_194\n        /* \"#utility.yul\":10743:10746   */\n      dup3\n        /* \"#utility.yul\":10710:10747   */\n      tag_35\n      jump\t// in\n    tag_194:\n        /* \"#utility.yul\":10812:10830   */\n      0xffffffffffffffff\n        /* \"#utility.yul\":10804:10810   */\n      dup2\n        /* \"#utility.yul\":10801:10831   */\n      gt\n        /* \"#utility.yul\":10798:10854   */\n      iszero\n      tag_195\n      jumpi\n        /* \"#utility.yul\":10834:10852   */\n      tag_196\n      tag_61\n      jump\t// in\n    tag_196:\n        /* \"#utility.yul\":10798:10854   */\n    tag_195:\n        /* \"#utility.yul\":10878:10916   */\n      tag_197\n        /* \"#utility.yul\":10910:10914   */\n      dup3\n        /* \"#utility.yul\":10904:10915   */\n      sload\n        /* \"#utility.yul\":10878:10916   */\n      tag_22\n      jump\t// in\n    tag_197:\n        /* \"#utility.yul\":10963:11030   */\n      tag_198\n        /* \"#utility.yul\":11023:11029   */\n      dup3\n        /* \"#utility.yul\":11015:11021   */\n      dup3\n        /* \"#utility.yul\":11009:11013   */\n      dup6\n        /* \"#utility.yul\":10963:11030   */\n      tag_73\n      jump\t// in\n    tag_198:\n        /* \"#utility.yul\":11057:11058   */\n      0x00\n        /* \"#utility.yul\":11081:11085   */\n      0x20\n        /* \"#utility.yul\":11068:11085   */\n      swap1\n      pop\n        /* \"#utility.yul\":11113:11115   */\n      0x1f\n        /* \"#utility.yul\":11105:11111   */\n      dup4\n        /* \"#utility.yul\":11102:11116   */\n      gt\n        /* \"#utility.yul\":11130:11131   */\n      0x01\n        /* \"#utility.yul\":11125:11743   */\n      dup2\n      eq\n      tag_200\n      jumpi\n        /* \"#utility.yul\":11787:11788   */\n      0x00\n        /* \"#utility.yul\":11804:11810   */\n      dup5\n        /* \"#utility.yul\":11801:11878   */\n      iszero\n      tag_201\n      jumpi\n        /* \"#utility.yul\":11853:11862   */\n      dup3\n        /* \"#utility.yul\":11848:11851   */\n      dup8\n        /* \"#utility.yul\":11844:11863   */\n      add\n        /* \"#utility.yul\":11838:11864   */\n      mload\n        /* \"#utility.yul\":11829:11864   */\n      swap1\n      pop\n        /* \"#utility.yul\":11801:11878   */\n    tag_201:\n        /* \"#utility.yul\":11904:11971   */\n      tag_202\n        /* \"#utility.yul\":11964:11970   */\n      dup6\n        /* \"#utility.yul\":11957:11962   */\n      dup3\n        /* \"#utility.yul\":11904:11971   */\n      tag_76\n      jump\t// in\n    tag_202:\n        /* \"#utility.yul\":11898:11902   */\n      dup7\n        /* \"#utility.yul\":11891:11972   */\n      sstore\n        /* \"#utility.yul\":11760:11982   */\n      pop\n        /* \"#utility.yul\":11095:11982   */\n      jump(tag_199)\n        /* \"#utility.yul\":11125:11743   */\n    tag_200:\n        /* \"#utility.yul\":11177:11181   */\n      0x1f\n        /* \"#utility.yul\":11173:11182   */\n      not\n        /* \"#utility.yul\":11165:11171   */\n      dup5\n        /* \"#utility.yul\":11161:11183   */\n      and\n        /* \"#utility.yul\":11211:11248   */\n      tag_203\n        /* \"#utility.yul\":11243:11247   */\n      dup7\n        /* \"#utility.yul\":11211:11248   */\n      tag_62\n      jump\t// in\n    tag_203:\n        /* \"#utility.yul\":11270:11271   */\n      0x00\n        /* \"#utility.yul\":11284:11492   */\n    tag_204:\n        /* \"#utility.yul\":11298:11305   */\n      dup3\n        /* \"#utility.yul\":11295:11296   */\n      dup2\n        /* \"#utility.yul\":11292:11306   */\n      lt\n        /* \"#utility.yul\":11284:11492   */\n      iszero\n      tag_206\n      jumpi\n        /* \"#utility.yul\":11377:11386   */\n      dup5\n        /* \"#utility.yul\":11372:11375   */\n      dup10\n        /* \"#utility.yul\":11368:11387   */\n      add\n        /* \"#utility.yul\":11362:11388   */\n      mload\n        /* \"#utility.yul\":11354:11360   */\n      dup3\n        /* \"#utility.yul\":11347:11389   */\n      sstore\n        /* \"#utility.yul\":11428:11429   */\n      0x01\n        /* \"#utility.yul\":11420:11426   */\n      dup3\n        /* \"#utility.yul\":11416:11430   */\n      add\n        /* \"#utility.yul\":11406:11430   */\n      swap2\n      pop\n        /* \"#utility.yul\":11475:11477   */\n      0x20\n        /* \"#utility.yul\":11464:11473   */\n      dup6\n        /* \"#utility.yul\":11460:11478   */\n      add\n        /* \"#utility.yul\":11447:11478   */\n      swap5\n      pop\n        /* \"#utility.yul\":11321:11325   */\n      0x20\n        /* \"#utility.yul\":11318:11319   */\n      dup2\n        /* \"#utility.yul\":11314:11326   */\n      add\n        /* \"#utility.yul\":11309:11326   */\n      swap1\n      pop\n        /* \"#utility.yul\":11284:11492   */\n      jump(tag_204)\n    tag_206:\n        /* \"#utility.yul\":11520:11526   */\n      dup7\n        /* \"#utility.yul\":11511:11518   */\n      dup4\n        /* \"#utility.yul\":11508:11527   */\n      lt\n        /* \"#utility.yul\":11505:11684   */\n      iszero\n      tag_207\n      jumpi\n        /* \"#utility.yul\":11578:11587   */\n      dup5\n        /* \"#utility.yul\":11573:11576   */\n      dup10\n        /* \"#utility.yul\":11569:11588   */\n      add\n        /* \"#utility.yul\":11563:11589   */\n      mload\n        /* \"#utility.yul\":11621:11669   */\n      tag_208\n        /* \"#utility.yul\":11663:11667   */\n      0x1f\n        /* \"#utility.yul\":11655:11661   */\n      dup10\n        /* \"#utility.yul\":11651:11668   */\n      and\n        /* \"#utility.yul\":11640:11649   */\n      dup3\n        /* \"#utility.yul\":11621:11669   */\n      tag_75\n      jump\t// in\n    tag_208:\n        /* \"#utility.yul\":11613:11619   */\n      dup4\n        /* \"#utility.yul\":11606:11670   */\n      sstore\n        /* \"#utility.yul\":11528:11684   */\n      pop\n        /* \"#utility.yul\":11505:11684   */\n    tag_207:\n        /* \"#utility.yul\":11730:11731   */\n      0x01\n        /* \"#utility.yul\":11726:11727   */\n      0x02\n        /* \"#utility.yul\":11718:11724   */\n      dup9\n        /* \"#utility.yul\":11714:11728   */\n      mul\n        /* \"#utility.yul\":11710:11732   */\n      add\n        /* \"#utility.yul\":11704:11708   */\n      dup9\n        /* \"#utility.yul\":11697:11733   */\n      sstore\n        /* \"#utility.yul\":11132:11743   */\n      pop\n      pop\n      pop\n        /* \"#utility.yul\":11095:11982   */\n    tag_199:\n      pop\n        /* \"#utility.yul\":10685:11988   */\n      pop\n      pop\n      pop\n        /* \"#utility.yul\":10593:11988   */\n      pop\n      pop\n      jump\t// out\n\n    auxdata: 0xa2646970667358221220d81db4ea9a90f14a4ee3bae09c23fe2e2084c95a998de560a558c42c25b89da764736f6c63430008120033\n}\n",
				"bytecode": {
					"linkReferences": {},
					"object": "608060405234801561001057600080fd5b506109a4806100206000396000f3fe608060405234801561001057600080fd5b50600436106100415760003560e01c8063c22fd45e14610046578063db186add14610064578063e3282e1814610085575b600080fd5b61004e6100a1565b60405161005b919061043c565b60405180910390f35b61006c61017c565b60405161007c94939291906104c6565b60405180910390f35b61009f600480360381019061009a91906105d9565b61022f565b005b6100a96102eb565b60006040518060800160405290816000820180546100c690610690565b80601f01602080910402602001604051908101604052809291908181526020018280546100f290610690565b801561013f5780601f106101145761010080835404028352916020019161013f565b820191906000526020600020905b81548152906001019060200180831161012257829003601f168201915b5050505050815260200160018201548152602001600282015481526020016003820160009054906101000a900460ff161515151581525050905090565b600080600001805461018d90610690565b80601f01602080910402602001604051908101604052809291908181526020018280546101b990610690565b80156102065780601f106101db57610100808354040283529160200191610206565b820191906000526020600020905b8154815290600101906020018083116101e957829003601f168201915b5050505050908060010154908060020154908060030160009054906101000a900460ff16905084565b604051806080016040528086868080601f016020809104026020016040519081016040528093929190818152602001838380828437600081840152601f19601f8201169050808301925050505050505081526020018481526020018381526020018215158152506000808201518160000190816102ac919061089c565b50602082015181600101556040820151816002015560608201518160030160006101000a81548160ff0219169083151502179055509050505050505050565b60405180608001604052806060815260200160008152602001600081526020016000151581525090565b600081519050919050565b600082825260208201905092915050565b60005b8381101561034f578082015181840152602081019050610334565b60008484015250505050565b6000601f19601f8301169050919050565b600061037782610315565b6103818185610320565b9350610391818560208601610331565b61039a8161035b565b840191505092915050565b6000819050919050565b6103b8816103a5565b82525050565b60008115159050919050565b6103d3816103be565b82525050565b600060808301600083015184820360008601526103f6828261036c565b915050602083015161040b60208601826103af565b50604083015161041e60408601826103af565b50606083015161043160608601826103ca565b508091505092915050565b6000602082019050818103600083015261045681846103d9565b905092915050565b600082825260208201905092915050565b600061047a82610315565b610484818561045e565b9350610494818560208601610331565b61049d8161035b565b840191505092915050565b6104b1816103a5565b82525050565b6104c0816103be565b82525050565b600060808201905081810360008301526104e0818761046f565b90506104ef60208301866104a8565b6104fc60408301856104a8565b61050960608301846104b7565b95945050505050565b600080fd5b600080fd5b600080fd5b600080fd5b600080fd5b60008083601f8401126105415761054061051c565b5b8235905067ffffffffffffffff81111561055e5761055d610521565b5b60208301915083600182028301111561057a57610579610526565b5b9250929050565b61058a816103a5565b811461059557600080fd5b50565b6000813590506105a781610581565b92915050565b6105b6816103be565b81146105c157600080fd5b50565b6000813590506105d3816105ad565b92915050565b6000806000806000608086880312156105f5576105f4610512565b5b600086013567ffffffffffffffff81111561061357610612610517565b5b61061f8882890161052b565b9550955050602061063288828901610598565b935050604061064388828901610598565b9250506060610654888289016105c4565b9150509295509295909350565b7f4e487b7100000000000000000000000000000000000000000000000000000000600052602260045260246000fd5b600060028204905060018216806106a857607f821691505b6020821081036106bb576106ba610661565b5b50919050565b7f4e487b7100000000000000000000000000000000000000000000000000000000600052604160045260246000fd5b60008190508160005260206000209050919050565b60006020601f8301049050919050565b600082821b905092915050565b6000600883026107527fffffffffffffffffffffffffffffffffffffffffffffffffffffffffffffffff82610715565b61075c8683610715565b95508019841693508086168417925050509392505050565b6000819050919050565b600061079961079461078f846103a5565b610774565b6103a5565b9050919050565b6000819050919050565b6107b38361077e565b6107c76107bf826107a0565b848454610722565b825550505050565b600090565b6107dc6107cf565b6107e78184846107aa565b505050565b5b8181101561080b576108006000826107d4565b6001810190506107ed565b5050565b601f82111561085057610821816106f0565b61082a84610705565b81016020851015610839578190505b61084d61084585610705565b8301826107ec565b50505b505050565b600082821c905092915050565b600061087360001984600802610855565b1980831691505092915050565b600061088c8383610862565b9150826002028217905092915050565b6108a582610315565b67ffffffffffffffff8111156108be576108bd6106c1565b5b6108c88254610690565b6108d382828561080f565b600060209050601f83116001811461090657600084156108f4578287015190505b6108fe8582610880565b865550610966565b601f198416610914866106f0565b60005b8281101561093c57848901518255600182019150602085019450602081019050610917565b868310156109595784890151610955601f891682610862565b8355505b6001600288020188555050505b50505050505056fea2646970667358221220d81db4ea9a90f14a4ee3bae09c23fe2e2084c95a998de560a558c42c25b89da764736f6c63430008120033",
					"opcodes": "PUSH1 0x80 PUSH1 0x40 MSTORE CALLVALUE DUP1 ISZERO PUSH2 0x10 JUMPI PUSH1 0x0 DUP1 REVERT JUMPDEST POP PUSH2 0x9A4 DUP1 PUSH2 0x20 PUSH1 0x0 CODECOPY PUSH1 0x0 RETURN INVALID PUSH1 0x80 PUSH1 0x40 MSTORE CALLVALUE DUP1 ISZERO PUSH2 0x10 JUMPI PUSH1 0x0 DUP1 REVERT JUMPDEST POP PUSH1 0x4 CALLDATASIZE LT PUSH2 0x41 JUMPI PUSH1 0x0 CALLDATALOAD PUSH1 0xE0 SHR DUP1 PUSH4 0xC22FD45E EQ PUSH2 0x46 JUMPI DUP1 PUSH4 0xDB186ADD EQ PUSH2 0x64 JUMPI DUP1 PUSH4 0xE3282E18 EQ PUSH2 0x85 JUMPI JUMPDEST PUSH1 0x0 DUP1 REVERT JUMPDEST PUSH2 0x4E PUSH2 0xA1 JUMP JUMPDEST PUSH1 0x40 MLOAD PUSH2 0x5B SWAP2 SWAP1 PUSH2 0x43C JUMP JUMPDEST PUSH1 0x40 MLOAD DUP1 SWAP2 SUB SWAP1 RETURN JUMPDEST PUSH2 0x6C PUSH2 0x17C JUMP JUMPDEST PUSH1 0x40 MLOAD PUSH2 0x7C SWAP5 SWAP4 SWAP3 SWAP2 SWAP1 PUSH2 0x4C6 JUMP JUMPDEST PUSH1 0x40 MLOAD DUP1 SWAP2 SUB SWAP1 RETURN JUMPDEST PUSH2 0x9F PUSH1 0x4 DUP1 CALLDATASIZE SUB DUP2 ADD SWAP1 PUSH2 0x9A SWAP2 SWAP1 PUSH2 0x5D9 JUMP JUMPDEST PUSH2 0x22F JUMP JUMPDEST STOP JUMPDEST PUSH2 0xA9 PUSH2 0x2EB JUMP JUMPDEST PUSH1 0x0 PUSH1 0x40 MLOAD DUP1 PUSH1 0x80 ADD PUSH1 0x40 MSTORE SWAP1 DUP2 PUSH1 0x0 DUP3 ADD DUP1 SLOAD PUSH2 0xC6 SWAP1 PUSH2 0x690 JUMP JUMPDEST DUP1 PUSH1 0x1F ADD PUSH1 0x20 DUP1 SWAP2 DIV MUL PUSH1 0x20 ADD PUSH1 0x40 MLOAD SWAP1 DUP2 ADD PUSH1 0x40 MSTORE DUP1 SWAP3 SWAP2 SWAP1 DUP2 DUP2 MSTORE PUSH1 0x20 ADD DUP3 DUP1 SLOAD PUSH2 0xF2 SWAP1 PUSH2 0x690 JUMP JUMPDEST DUP1 ISZERO PUSH2 0x13F JUMPI DUP1 PUSH1 0x1F LT PUSH2 0x114 JUMPI PUSH2 0x100 DUP1 DUP4 SLOAD DIV MUL DUP4 MSTORE SWAP2 PUSH1 0x20 ADD SWAP2 PUSH2 0x13F JUMP JUMPDEST DUP3 ADD SWAP2 SWAP1 PUSH1 0x0 MSTORE PUSH1 0x20 PUSH1 0x0 KECCAK256 SWAP1 JUMPDEST DUP2 SLOAD DUP2 MSTORE SWAP1 PUSH1 0x1 ADD SWAP1 PUSH1 0x20 ADD DUP1 DUP4 GT PUSH2 0x122 JUMPI DUP3 SWAP1 SUB PUSH1 0x1F AND DUP3 ADD SWAP2 JUMPDEST POP POP POP POP POP DUP2 MSTORE PUSH1 0x20 ADD PUSH1 0x1 DUP3 ADD SLOAD DUP2 MSTORE PUSH1 0x20 ADD PUSH1 0x2 DUP3 ADD SLOAD DUP2 MSTORE PUSH1 0x20 ADD PUSH1 0x3 DUP3 ADD PUSH1 0x0 SWAP1 SLOAD SWAP1 PUSH2 0x100 EXP SWAP1 DIV PUSH1 0xFF AND ISZERO ISZERO ISZERO ISZERO DUP2 MSTORE POP POP SWAP1 POP SWAP1 JUMP JUMPDEST PUSH1 0x0 DUP1 PUSH1 0x0 ADD DUP1 SLOAD PUSH2 0x18D SWAP1 PUSH2 0x690 JUMP JUMPDEST DUP1 PUSH1 0x1F ADD PUSH1 0x20 DUP1 SWAP2 DIV MUL PUSH1 0x20 ADD PUSH1 0x40 MLOAD SWAP1 DUP2 ADD PUSH1 0x40 MSTORE DUP1 SWAP3 SWAP2 SWAP1 DUP2 DUP2 MSTORE PUSH1 0x20 ADD DUP3 DUP1 SLOAD PUSH2 0x1B9 SWAP1 PUSH2 0x690 JUMP JUMPDEST DUP1 ISZERO PUSH2 0x206 JUMPI DUP1 PUSH1 0x1F LT PUSH2 0x1DB JUMPI PUSH2 0x100 DUP1 DUP4 SLOAD DIV MUL DUP4 MSTORE SWAP2 PUSH1 0x20 ADD SWAP2 PUSH2 0x206 JUMP JUMPDEST DUP3 ADD SWAP2 SWAP1 PUSH1 0x0 MSTORE PUSH1 0x20 PUSH1 0x0 KECCAK256 SWAP1 JUMPDEST DUP2 SLOAD DUP2 MSTORE SWAP1 PUSH1 0x1 ADD SWAP1 PUSH1 0x20 ADD DUP1 DUP4 GT PUSH2 0x1E9 JUMPI DUP3 SWAP1 SUB PUSH1 0x1F AND DUP3 ADD SWAP2 JUMPDEST POP POP POP POP POP SWAP1 DUP1 PUSH1 0x1 ADD SLOAD SWAP1 DUP1 PUSH1 0x2 ADD SLOAD SWAP1 DUP1 PUSH1 0x3 ADD PUSH1 0x0 SWAP1 SLOAD SWAP1 PUSH2 0x100 EXP SWAP1 DIV PUSH1 0xFF AND SWAP1 POP DUP5 JUMP JUMPDEST PUSH1 0x40 MLOAD DUP1 PUSH1 0x80 ADD PUSH1 0x40 MSTORE DUP1 DUP7 DUP7 DUP1 DUP1 PUSH1 0x1F ADD PUSH1 0x20 DUP1 SWAP2 DIV MUL PUSH1 0x20 ADD PUSH1 0x40 MLOAD SWAP1 DUP2 ADD PUSH1 0x40 MSTORE DUP1 SWAP4 SWAP3 SWAP2 SWAP1 DUP2 DUP2 MSTORE PUSH1 0x20 ADD DUP4 DUP4 DUP1 DUP3 DUP5 CALLDATACOPY PUSH1 0x0 DUP2 DUP5 ADD MSTORE PUSH1 0x1F NOT PUSH1 0x1F DUP3 ADD AND SWAP1 POP DUP1 DUP4 ADD SWAP3 POP POP POP POP POP POP POP DUP2 MSTORE PUSH1 0x20 ADD DUP5 DUP2 MSTORE PUSH1 0x20 ADD DUP4 DUP2 MSTORE PUSH1 0x20 ADD DUP3 ISZERO ISZERO DUP2 MSTORE POP PUSH1 0x0 DUP1 DUP3 ADD MLOAD DUP2 PUSH1 0x0 ADD SWAP1 DUP2 PUSH2 0x2AC SWAP2 SWAP1 PUSH2 0x89C JUMP JUMPDEST POP PUSH1 0x20 DUP3 ADD MLOAD DUP2 PUSH1 0x1 ADD SSTORE PUSH1 0x40 DUP3 ADD MLOAD DUP2 PUSH1 0x2 ADD SSTORE PUSH1 0x60 DUP3 ADD MLOAD DUP2 PUSH1 0x3 ADD PUSH1 0x0 PUSH2 0x100 EXP DUP2 SLOAD DUP2 PUSH1 0xFF MUL NOT AND SWAP1 DUP4 ISZERO ISZERO MUL OR SWAP1 SSTORE POP SWAP1 POP POP POP POP POP POP POP JUMP JUMPDEST PUSH1 0x40 MLOAD DUP1 PUSH1 0x80 ADD PUSH1 0x40 MSTORE DUP1 PUSH1 0x60 DUP2 MSTORE PUSH1 0x20 ADD PUSH1 0x0 DUP2 MSTORE PUSH1 0x20 ADD PUSH1 0x0 DUP2 MSTORE PUSH1 0x20 ADD PUSH1 0x0 ISZERO ISZERO DUP2 MSTORE POP SWAP1 JUMP JUMPDEST PUSH1 0x0 DUP2 MLOAD SWAP1 POP SWAP2 SWAP1 POP JUMP JUMPDEST PUSH1 0x0 DUP3 DUP3 MSTORE PUSH1 0x20 DUP3 ADD SWAP1 POP SWAP3 SWAP2 POP POP JUMP JUMPDEST PUSH1 0x0 JUMPDEST DUP4 DUP2 LT ISZERO PUSH2 0x34F JUMPI DUP1 DUP3 ADD MLOAD DUP2 DUP5 ADD MSTORE PUSH1 0x20 DUP2 ADD SWAP1 POP PUSH2 0x334 JUMP JUMPDEST PUSH1 0x0 DUP5 DUP5 ADD MSTORE POP POP POP POP JUMP JUMPDEST PUSH1 0x0 PUSH1 0x1F NOT PUSH1 0x1F DUP4 ADD AND SWAP1 POP SWAP2 SWAP1 POP JUMP JUMPDEST PUSH1 0x0 PUSH2 0x377 DUP3 PUSH2 0x315 JUMP JUMPDEST PUSH2 0x381 DUP2 DUP6 PUSH2 0x320 JUMP JUMPDEST SWAP4 POP PUSH2 0x391 DUP2 DUP6 PUSH1 0x20 DUP7 ADD PUSH2 0x331 JUMP JUMPDEST PUSH2 0x39A DUP2 PUSH2 0x35B JUMP JUMPDEST DUP5 ADD SWAP2 POP POP SWAP3 SWAP2 POP POP JUMP JUMPDEST PUSH1 0x0 DUP2 SWAP1 POP SWAP2 SWAP1 POP JUMP JUMPDEST PUSH2 0x3B8 DUP2 PUSH2 0x3A5 JUMP JUMPDEST DUP3 MSTORE POP POP JUMP JUMPDEST PUSH1 0x0 DUP2 ISZERO ISZERO SWAP1 POP SWAP2 SWAP1 POP JUMP JUMPDEST PUSH2 0x3D3 DUP2 PUSH2 0x3BE JUMP JUMPDEST DUP3 MSTORE POP POP JUMP JUMPDEST PUSH1 0x0 PUSH1 0x80 DUP4 ADD PUSH1 0x0 DUP4 ADD MLOAD DUP5 DUP3 SUB PUSH1 0x0 DUP7 ADD MSTORE PUSH2 0x3F6 DUP3 DUP3 PUSH2 0x36C JUMP JUMPDEST SWAP2 POP POP PUSH1 0x20 DUP4 ADD MLOAD PUSH2 0x40B PUSH1 0x20 DUP7 ADD DUP3 PUSH2 0x3AF JUMP JUMPDEST POP PUSH1 0x40 DUP4 ADD MLOAD PUSH2 0x41E PUSH1 0x40 DUP7 ADD DUP3 PUSH2 0x3AF JUMP JUMPDEST POP PUSH1 0x60 DUP4 ADD MLOAD PUSH2 0x431 PUSH1 0x60 DUP7 ADD DUP3 PUSH2 0x3CA JUMP JUMPDEST POP DUP1 SWAP2 POP POP SWAP3 SWAP2 POP POP JUMP JUMPDEST PUSH1 0x0 PUSH1 0x20 DUP3 ADD SWAP1 POP DUP2 DUP2 SUB PUSH1 0x0 DUP4 ADD MSTORE PUSH2 0x456 DUP2 DUP5 PUSH2 0x3D9 JUMP JUMPDEST SWAP1 POP SWAP3 SWAP2 POP POP JUMP JUMPDEST PUSH1 0x0 DUP3 DUP3 MSTORE PUSH1 0x20 DUP3 ADD SWAP1 POP SWAP3 SWAP2 POP POP JUMP JUMPDEST PUSH1 0x0 PUSH2 0x47A DUP3 PUSH2 0x315 JUMP JUMPDEST PUSH2 0x484 DUP2 DUP6 PUSH2 0x45E JUMP JUMPDEST SWAP4 POP PUSH2 0x494 DUP2 DUP6 PUSH1 0x20 DUP7 ADD PUSH2 0x331 JUMP JUMPDEST PUSH2 0x49D DUP2 PUSH2 0x35B JUMP JUMPDEST DUP5 ADD SWAP2 POP POP SWAP3 SWAP2 POP POP JUMP JUMPDEST PUSH2 0x4B1 DUP2 PUSH2 0x3A5 JUMP JUMPDEST DUP3 MSTORE POP POP JUMP JUMPDEST PUSH2 0x4C0 DUP2 PUSH2 0x3BE JUMP JUMPDEST DUP3 MSTORE POP POP JUMP JUMPDEST PUSH1 0x0 PUSH1 0x80 DUP3 ADD SWAP1 POP DUP2 DUP2 SUB PUSH1 0x0 DUP4 ADD MSTORE PUSH2 0x4E0 DUP2 DUP8 PUSH2 0x46F JUMP JUMPDEST SWAP1 POP PUSH2 0x4EF PUSH1 0x20 DUP4 ADD DUP7 PUSH2 0x4A8 JUMP JUMPDEST PUSH2 0x4FC PUSH1 0x40 DUP4 ADD DUP6 PUSH2 0x4A8 JUMP JUMPDEST PUSH2 0x509 PUSH1 0x60 DUP4 ADD DUP5 PUSH2 0x4B7 JUMP JUMPDEST SWAP6 SWAP5 POP POP POP POP POP JUMP JUMPDEST PUSH1 0x0 DUP1 REVERT JUMPDEST PUSH1 0x0 DUP1 REVERT JUMPDEST PUSH1 0x0 DUP1 REVERT JUMPDEST PUSH1 0x0 DUP1 REVERT JUMPDEST PUSH1 0x0 DUP1 REVERT JUMPDEST PUSH1 0x0 DUP1 DUP4 PUSH1 0x1F DUP5 ADD SLT PUSH2 0x541 JUMPI PUSH2 0x540 PUSH2 0x51C JUMP JUMPDEST JUMPDEST DUP3 CALLDATALOAD SWAP1 POP PUSH8 0xFFFFFFFFFFFFFFFF DUP2 GT ISZERO PUSH2 0x55E JUMPI PUSH2 0x55D PUSH2 0x521 JUMP JUMPDEST JUMPDEST PUSH1 0x20 DUP4 ADD SWAP2 POP DUP4 PUSH1 0x1 DUP3 MUL DUP4 ADD GT ISZERO PUSH2 0x57A JUMPI PUSH2 0x579 PUSH2 0x526 JUMP JUMPDEST JUMPDEST SWAP3 POP SWAP3 SWAP1 POP JUMP JUMPDEST PUSH2 0x58A DUP2 PUSH2 0x3A5 JUMP JUMPDEST DUP2 EQ PUSH2 0x595 JUMPI PUSH1 0x0 DUP1 REVERT JUMPDEST POP JUMP JUMPDEST PUSH1 0x0 DUP2 CALLDATALOAD SWAP1 POP PUSH2 0x5A7 DUP2 PUSH2 0x581 JUMP JUMPDEST SWAP3 SWAP2 POP POP JUMP JUMPDEST PUSH2 0x5B6 DUP2 PUSH2 0x3BE JUMP JUMPDEST DUP2 EQ PUSH2 0x5C1 JUMPI PUSH1 0x0 DUP1 REVERT JUMPDEST POP JUMP JUMPDEST PUSH1 0x0 DUP2 CALLDATALOAD SWAP1 POP PUSH2 0x5D3 DUP2 PUSH2 0x5AD JUMP JUMPDEST SWAP3 SWAP2 POP POP JUMP JUMPDEST PUSH1 0x0 DUP1 PUSH1 0x0 DUP1 PUSH1 0x0 PUSH1 0x80 DUP7 DUP9 SUB SLT ISZERO PUSH2 0x5F5 JUMPI PUSH2 0x5F4 PUSH2 0x512 JUMP JUMPDEST JUMPDEST PUSH1 0x0 DUP7 ADD CALLDATALOAD PUSH8 0xFFFFFFFFFFFFFFFF DUP2 GT ISZERO PUSH2 0x613 JUMPI PUSH2 0x612 PUSH2 0x517 JUMP JUMPDEST JUMPDEST PUSH2 0x61F DUP9 DUP3 DUP10 ADD PUSH2 0x52B JUMP JUMPDEST SWAP6 POP SWAP6 POP POP PUSH1 0x20 PUSH2 0x632 DUP9 DUP3 DUP10 ADD PUSH2 0x598 JUMP JUMPDEST SWAP4 POP POP PUSH1 0x40 PUSH2 0x643 DUP9 DUP3 DUP10 ADD PUSH2 0x598 JUMP JUMPDEST SWAP3 POP POP PUSH1 0x60 PUSH2 0x654 DUP9 DUP3 DUP10 ADD PUSH2 0x5C4 JUMP JUMPDEST SWAP2 POP POP SWAP3 SWAP6 POP SWAP3 SWAP6 SWAP1 SWAP4 POP JUMP JUMPDEST PUSH32 0x4E487B7100000000000000000000000000000000000000000000000000000000 PUSH1 0x0 MSTORE PUSH1 0x22 PUSH1 0x4 MSTORE PUSH1 0x24 PUSH1 0x0 REVERT JUMPDEST PUSH1 0x0 PUSH1 0x2 DUP3 DIV SWAP1 POP PUSH1 0x1 DUP3 AND DUP1 PUSH2 0x6A8 JUMPI PUSH1 0x7F DUP3 AND SWAP2 POP JUMPDEST PUSH1 0x20 DUP3 LT DUP2 SUB PUSH2 0x6BB JUMPI PUSH2 0x6BA PUSH2 0x661 JUMP JUMPDEST JUMPDEST POP SWAP2 SWAP1 POP JUMP JUMPDEST PUSH32 0x4E487B7100000000000000000000000000000000000000000000000000000000 PUSH1 0x0 MSTORE PUSH1 0x41 PUSH1 0x4 MSTORE PUSH1 0x24 PUSH1 0x0 REVERT JUMPDEST PUSH1 0x0 DUP2 SWAP1 POP DUP2 PUSH1 0x0 MSTORE PUSH1 0x20 PUSH1 0x0 KECCAK256 SWAP1 POP SWAP2 SWAP1 POP JUMP JUMPDEST PUSH1 0x0 PUSH1 0x20 PUSH1 0x1F DUP4 ADD DIV SWAP1 POP SWAP2 SWAP1 POP JUMP JUMPDEST PUSH1 0x0 DUP3 DUP3 SHL SWAP1 POP SWAP3 SWAP2 POP POP JUMP JUMPDEST PUSH1 0x0 PUSH1 0x8 DUP4 MUL PUSH2 0x752 PUSH32 0xFFFFFFFFFFFFFFFFFFFFFFFFFFFFFFFFFFFFFFFFFFFFFFFFFFFFFFFFFFFFFFFF DUP3 PUSH2 0x715 JUMP JUMPDEST PUSH2 0x75C DUP7 DUP4 PUSH2 0x715 JUMP JUMPDEST SWAP6 POP DUP1 NOT DUP5 AND SWAP4 POP DUP1 DUP7 AND DUP5 OR SWAP3 POP POP POP SWAP4 SWAP3 POP POP POP JUMP JUMPDEST PUSH1 0x0 DUP2 SWAP1 POP SWAP2 SWAP1 POP JUMP JUMPDEST PUSH1 0x0 PUSH2 0x799 PUSH2 0x794 PUSH2 0x78F DUP5 PUSH2 0x3A5 JUMP JUMPDEST PUSH2 0x774 JUMP JUMPDEST PUSH2 0x3A5 JUMP JUMPDEST SWAP1 POP SWAP2 SWAP1 POP JUMP JUMPDEST PUSH1 0x0 DUP2 SWAP1 POP SWAP2 SWAP1 POP JUMP JUMPDEST PUSH2 0x7B3 DUP4 PUSH2 0x77E JUMP JUMPDEST PUSH2 0x7C7 PUSH2 0x7BF DUP3 PUSH2 0x7A0 JUMP JUMPDEST DUP5 DUP5 SLOAD PUSH2 0x722 JUMP JUMPDEST DUP3 SSTORE POP POP POP POP JUMP JUMPDEST PUSH1 0x0 SWAP1 JUMP JUMPDEST PUSH2 0x7DC PUSH2 0x7CF JUMP JUMPDEST PUSH2 0x7E7 DUP2 DUP5 DUP5 PUSH2 0x7AA JUMP JUMPDEST POP POP POP JUMP JUMPDEST JUMPDEST DUP2 DUP2 LT ISZERO PUSH2 0x80B JUMPI PUSH2 0x800 PUSH1 0x0 DUP3 PUSH2 0x7D4 JUMP JUMPDEST PUSH1 0x1 DUP2 ADD SWAP1 POP PUSH2 0x7ED JUMP JUMPDEST POP POP JUMP JUMPDEST PUSH1 0x1F DUP3 GT ISZERO PUSH2 0x850 JUMPI PUSH2 0x821 DUP2 PUSH2 0x6F0 JUMP JUMPDEST PUSH2 0x82A DUP5 PUSH2 0x705 JUMP JUMPDEST DUP2 ADD PUSH1 0x20 DUP6 LT ISZERO PUSH2 0x839 JUMPI DUP2 SWAP1 POP JUMPDEST PUSH2 0x84D PUSH2 0x845 DUP6 PUSH2 0x705 JUMP JUMPDEST DUP4 ADD DUP3 PUSH2 0x7EC JUMP JUMPDEST POP POP JUMPDEST POP POP POP JUMP JUMPDEST PUSH1 0x0 DUP3 DUP3 SHR SWAP1 POP SWAP3 SWAP2 POP POP JUMP JUMPDEST PUSH1 0x0 PUSH2 0x873 PUSH1 0x0 NOT DUP5 PUSH1 0x8 MUL PUSH2 0x855 JUMP JUMPDEST NOT DUP1 DUP4 AND SWAP2 POP POP SWAP3 SWAP2 POP POP JUMP JUMPDEST PUSH1 0x0 PUSH2 0x88C DUP4 DUP4 PUSH2 0x862 JUMP JUMPDEST SWAP2 POP DUP3 PUSH1 0x2 MUL DUP3 OR SWAP1 POP SWAP3 SWAP2 POP POP JUMP JUMPDEST PUSH2 0x8A5 DUP3 PUSH2 0x315 JUMP JUMPDEST PUSH8 0xFFFFFFFFFFFFFFFF DUP2 GT ISZERO PUSH2 0x8BE JUMPI PUSH2 0x8BD PUSH2 0x6C1 JUMP JUMPDEST JUMPDEST PUSH2 0x8C8 DUP3 SLOAD PUSH2 0x690 JUMP JUMPDEST PUSH2 0x8D3 DUP3 DUP3 DUP6 PUSH2 0x80F JUMP JUMPDEST PUSH1 0x0 PUSH1 0x20 SWAP1 POP PUSH1 0x1F DUP4 GT PUSH1 0x1 DUP2 EQ PUSH2 0x906 JUMPI PUSH1 0x0 DUP5 ISZERO PUSH2 0x8F4 JUMPI DUP3 DUP8 ADD MLOAD SWAP1 POP JUMPDEST PUSH2 0x8FE DUP6 DUP3 PUSH2 0x880 JUMP JUMPDEST DUP7 SSTORE POP PUSH2 0x966 JUMP JUMPDEST PUSH1 0x1F NOT DUP5 AND PUSH2 0x914 DUP7 PUSH2 0x6F0 JUMP JUMPDEST PUSH1 0x0 JUMPDEST DUP3 DUP2 LT ISZERO PUSH2 0x93C JUMPI DUP5 DUP10 ADD MLOAD DUP3 SSTORE PUSH1 0x1 DUP3 ADD SWAP2 POP PUSH1 0x20 DUP6 ADD SWAP5 POP PUSH1 0x20 DUP2 ADD SWAP1 POP PUSH2 0x917 JUMP JUMPDEST DUP7 DUP4 LT ISZERO PUSH2 0x959 JUMPI DUP5 DUP10 ADD MLOAD PUSH2 0x955 PUSH1 0x1F DUP10 AND DUP3 PUSH2 0x862 JUMP JUMPDEST DUP4 SSTORE POP JUMPDEST PUSH1 0x1 PUSH1 0x2 DUP9 MUL ADD DUP9 SSTORE POP POP POP JUMPDEST POP POP POP POP POP POP JUMP INVALID LOG2 PUSH5 0x6970667358 0x22 SLT KECCAK256 0xD8 SAR 0xB4 0xEA SWAP11 SWAP1 CALL 0x4A 0x4E 0xE3 0xBA 0xE0 SWAP13 0x23 INVALID 0x2E KECCAK256 DUP5 0xC9 GAS SWAP10 DUP14 0xE5 PUSH1 0xA5 PC 0xC4 0x2C 0x25 0xB8 SWAP14 0xA7 PUSH5 0x736F6C6343 STOP ADDMOD SLT STOP CALLER "
				},
				"gasEstimates": {
					"creation": {
						"codeDepositCost": "493600",
						"executionCost": "530",
						"totalCost": "494130"
					},
					"external": {
						"Audi()": "infinite",
						"returnStruct()": "infinite",
						"setValues(string,uint256,uint256,bool)": "infinite"
					}
				},
				"methodIdentifiers": {
					"Audi()": "db186add",
					"returnStruct()": "c22fd45e",
					"setValues(string,uint256,uint256,bool)": "e3282e18"
				}
			},
			"storageLayout": {
				"storage": [
					{
						"astId": 13,
						"contract": "struct.sol:Struct",
						"label": "Audi",
						"offset": 0,
						"slot": "0",
						"type": "t_struct(Car)10_storage"
					}
				],
				"types": {
					"t_bool": {
						"encoding": "inplace",
						"label": "bool",
						"numberOfBytes": "1"
					},
					"t_string_storage": {
						"encoding": "bytes",
						"label": "string",
						"numberOfBytes": "32"
					},
					"t_struct(Car)10_storage": {
						"encoding": "inplace",
						"label": "struct Struct.Car",
						"members": [
							{
								"astId": 3,
								"contract": "struct.sol:Struct",
								"label": "modelName",
								"offset": 0,
								"slot": "0",
								"type": "t_string_storage"
							},
							{
								"astId": 5,
								"contract": "struct.sol:Struct",
								"label": "year",
								"offset": 0,
								"slot": "1",
								"type": "t_uint256"
							},
							{
								"astId": 7,
								"contract": "struct.sol:Struct",
								"label": "price",
								"offset": 0,
								"slot": "2",
								"type": "t_uint256"
							},
							{
								"astId": 9,
								"contract": "struct.sol:Struct",
								"label": "preBooked",
								"offset": 0,
								"slot": "3",
								"type": "t_bool"
							}
						],
						"numberOfBytes": "128"
					},
					"t_uint256": {
						"encoding": "inplace",
						"label": "uint256",
						"numberOfBytes": "32"
					}
				}
			},
			"userdoc": {
				"kind": "user",
				"methods": {},
				"version": 1
			}
		}
	}
}