{
	"pallindrome.sol": {
		"Pallindrome": {
			"abi": [
				{
					"inputs": [
						{
							"internalType": "uint256",
							"name": "num",
							"type": "uint256"
						}
					],
					"name": "checkPallindrome",
					"outputs": [
						{
							"internalType": "string",
							"name": "",
							"type": "string"
						}
					],
					"stateMutability": "pure",
					"type": "function"
				}
			],
			"devdoc": {
				"kind": "dev",
				"methods": {},
				"version": 1
			},
			"evm": {
				"assembly": "    /* \"pallindrome.sol\":74:591  contract Pallindrome{... */\n  mstore(0x40, 0x80)\n  callvalue\n  dup1\n  iszero\n  tag_1\n  jumpi\n  0x00\n  dup1\n  revert\ntag_1:\n  pop\n  dataSize(sub_0)\n  dup1\n  dataOffset(sub_0)\n  0x00\n  codecopy\n  0x00\n  return\nstop\n\nsub_0: assembly {\n        /* \"pallindrome.sol\":74:591  contract Pallindrome{... */\n      mstore(0x40, 0x80)\n      callvalue\n      dup1\n      iszero\n      tag_1\n      jumpi\n      0x00\n      dup1\n      revert\n    tag_1:\n      pop\n      jumpi(tag_2, lt(calldatasize, 0x04))\n      shr(0xe0, calldataload(0x00))\n      dup1\n      0xbb1ff5a9\n      eq\n      tag_3\n      jumpi\n    tag_2:\n      0x00\n      dup1\n      revert\n        /* \"pallindrome.sol\":101:374  function checkPallindrome(uint num) public pure returns(string memory){... */\n    tag_3:\n      tag_4\n      0x04\n      dup1\n      calldatasize\n      sub\n      dup2\n      add\n      swap1\n      tag_5\n      swap2\n      swap1\n      tag_6\n      jump\t// in\n    tag_5:\n      tag_7\n      jump\t// in\n    tag_4:\n      mload(0x40)\n      tag_8\n      swap2\n      swap1\n      tag_9\n      jump\t// in\n    tag_8:\n      mload(0x40)\n      dup1\n      swap2\n      sub\n      swap1\n      return\n    tag_7:\n        /* \"pallindrome.sol\":157:170  string memory */\n      0x60\n        /* \"pallindrome.sol\":182:190  uint rev */\n      0x00\n        /* \"pallindrome.sol\":193:205  reverse(num) */\n      tag_11\n        /* \"pallindrome.sol\":201:204  num */\n      dup4\n        /* \"pallindrome.sol\":193:200  reverse */\n      tag_12\n        /* \"pallindrome.sol\":193:205  reverse(num) */\n      jump\t// in\n    tag_11:\n        /* \"pallindrome.sol\":182:205  uint rev = reverse(num) */\n      swap1\n      pop\n        /* \"pallindrome.sol\":227:230  rev */\n      dup1\n        /* \"pallindrome.sol\":220:223  num */\n      dup4\n        /* \"pallindrome.sol\":220:230  num == rev */\n      sub\n        /* \"pallindrome.sol\":216:367  if (num == rev){... */\n      tag_13\n      jumpi\n        /* \"pallindrome.sol\":246:278  return (\"Number is pallindrome\") */\n      mload(0x40)\n      dup1\n      0x40\n      add\n      0x40\n      mstore\n      dup1\n      0x15\n      dup2\n      mstore\n      0x20\n      add\n      0x4e756d6265722069732070616c6c696e64726f6d650000000000000000000000\n      dup2\n      mstore\n      pop\n      swap2\n      pop\n      pop\n      jump(tag_10)\n        /* \"pallindrome.sol\":216:367  if (num == rev){... */\n    tag_13:\n        /* \"pallindrome.sol\":319:355  return (\"Number is not pallindrome\") */\n      mload(0x40)\n      dup1\n      0x40\n      add\n      0x40\n      mstore\n      dup1\n      0x19\n      dup2\n      mstore\n      0x20\n      add\n      0x4e756d626572206973206e6f742070616c6c696e64726f6d6500000000000000\n      dup2\n      mstore\n      pop\n      swap2\n      pop\n      pop\n        /* \"pallindrome.sol\":101:374  function checkPallindrome(uint num) public pure returns(string memory){... */\n    tag_10:\n      swap2\n      swap1\n      pop\n      jump\t// out\n        /* \"pallindrome.sol\":380:588  function reverse(uint num) private pure returns(uint ){... */\n    tag_12:\n        /* \"pallindrome.sol\":428:432  uint */\n      0x00\n        /* \"pallindrome.sol\":445:454  uint temp */\n      dup1\n        /* \"pallindrome.sol\":465:559  while(num != 0){... */\n    tag_16:\n        /* \"pallindrome.sol\":478:479  0 */\n      0x00\n        /* \"pallindrome.sol\":471:474  num */\n      dup4\n        /* \"pallindrome.sol\":471:479  num != 0 */\n      eq\n        /* \"pallindrome.sol\":465:559  while(num != 0){... */\n      tag_17\n      jumpi\n        /* \"pallindrome.sol\":518:520  10 */\n      0x0a\n        /* \"pallindrome.sol\":514:517  num */\n      dup4\n        /* \"pallindrome.sol\":514:520  num%10 */\n      tag_18\n      swap2\n      swap1\n      tag_19\n      jump\t// in\n    tag_18:\n        /* \"pallindrome.sol\":506:510  temp */\n      dup2\n        /* \"pallindrome.sol\":503:505  10 */\n      0x0a\n        /* \"pallindrome.sol\":503:510  10*temp */\n      tag_20\n      swap2\n      swap1\n      tag_21\n      jump\t// in\n    tag_20:\n        /* \"pallindrome.sol\":502:520  (10*temp) + num%10 */\n      tag_22\n      swap2\n      swap1\n      tag_23\n      jump\t// in\n    tag_22:\n        /* \"pallindrome.sol\":495:520  temp = (10*temp) + num%10 */\n      swap1\n      pop\n        /* \"pallindrome.sol\":545:547  10 */\n      0x0a\n        /* \"pallindrome.sol\":541:544  num */\n      dup4\n        /* \"pallindrome.sol\":541:547  num/10 */\n      tag_24\n      swap2\n      swap1\n      tag_25\n      jump\t// in\n    tag_24:\n        /* \"pallindrome.sol\":535:547  num = num/10 */\n      swap3\n      pop\n        /* \"pallindrome.sol\":465:559  while(num != 0){... */\n      jump(tag_16)\n    tag_17:\n        /* \"pallindrome.sol\":576:580  temp */\n      dup1\n        /* \"pallindrome.sol\":569:580  return temp */\n      swap2\n      pop\n      pop\n        /* \"pallindrome.sol\":380:588  function reverse(uint num) private pure returns(uint ){... */\n      swap2\n      swap1\n      pop\n      jump\t// out\n        /* \"#utility.yul\":88:205   */\n    tag_27:\n        /* \"#utility.yul\":197:198   */\n      0x00\n        /* \"#utility.yul\":194:195   */\n      dup1\n        /* \"#utility.yul\":187:199   */\n      revert\n        /* \"#utility.yul\":334:411   */\n    tag_29:\n        /* \"#utility.yul\":371:378   */\n      0x00\n        /* \"#utility.yul\":400:405   */\n      dup2\n        /* \"#utility.yul\":389:405   */\n      swap1\n      pop\n        /* \"#utility.yul\":334:411   */\n      swap2\n      swap1\n      pop\n      jump\t// out\n        /* \"#utility.yul\":417:539   */\n    tag_30:\n        /* \"#utility.yul\":490:514   */\n      tag_45\n        /* \"#utility.yul\":508:513   */\n      dup2\n        /* \"#utility.yul\":490:514   */\n      tag_29\n      jump\t// in\n    tag_45:\n        /* \"#utility.yul\":483:488   */\n      dup2\n        /* \"#utility.yul\":480:515   */\n      eq\n        /* \"#utility.yul\":470:533   */\n      tag_46\n      jumpi\n        /* \"#utility.yul\":529:530   */\n      0x00\n        /* \"#utility.yul\":526:527   */\n      dup1\n        /* \"#utility.yul\":519:531   */\n      revert\n        /* \"#utility.yul\":470:533   */\n    tag_46:\n        /* \"#utility.yul\":417:539   */\n      pop\n      jump\t// out\n        /* \"#utility.yul\":545:684   */\n    tag_31:\n        /* \"#utility.yul\":591:596   */\n      0x00\n        /* \"#utility.yul\":629:635   */\n      dup2\n        /* \"#utility.yul\":616:636   */\n      calldataload\n        /* \"#utility.yul\":607:636   */\n      swap1\n      pop\n        /* \"#utility.yul\":645:678   */\n      tag_48\n        /* \"#utility.yul\":672:677   */\n      dup2\n        /* \"#utility.yul\":645:678   */\n      tag_30\n      jump\t// in\n    tag_48:\n        /* \"#utility.yul\":545:684   */\n      swap3\n      swap2\n      pop\n      pop\n      jump\t// out\n        /* \"#utility.yul\":690:1019   */\n    tag_6:\n        /* \"#utility.yul\":749:755   */\n      0x00\n        /* \"#utility.yul\":798:800   */\n      0x20\n        /* \"#utility.yul\":786:795   */\n      dup3\n        /* \"#utility.yul\":777:784   */\n      dup5\n        /* \"#utility.yul\":773:796   */\n      sub\n        /* \"#utility.yul\":769:801   */\n      slt\n        /* \"#utility.yul\":766:885   */\n      iszero\n      tag_50\n      jumpi\n        /* \"#utility.yul\":804:883   */\n      tag_51\n      tag_27\n      jump\t// in\n    tag_51:\n        /* \"#utility.yul\":766:885   */\n    tag_50:\n        /* \"#utility.yul\":924:925   */\n      0x00\n        /* \"#utility.yul\":949:1002   */\n      tag_52\n        /* \"#utility.yul\":994:1001   */\n      dup5\n        /* \"#utility.yul\":985:991   */\n      dup3\n        /* \"#utility.yul\":974:983   */\n      dup6\n        /* \"#utility.yul\":970:992   */\n      add\n        /* \"#utility.yul\":949:1002   */\n      tag_31\n      jump\t// in\n    tag_52:\n        /* \"#utility.yul\":939:1002   */\n      swap2\n      pop\n        /* \"#utility.yul\":895:1012   */\n      pop\n        /* \"#utility.yul\":690:1019   */\n      swap3\n      swap2\n      pop\n      pop\n      jump\t// out\n        /* \"#utility.yul\":1025:1124   */\n    tag_32:\n        /* \"#utility.yul\":1077:1083   */\n      0x00\n        /* \"#utility.yul\":1111:1116   */\n      dup2\n        /* \"#utility.yul\":1105:1117   */\n      mload\n        /* \"#utility.yul\":1095:1117   */\n      swap1\n      pop\n        /* \"#utility.yul\":1025:1124   */\n      swap2\n      swap1\n      pop\n      jump\t// out\n        /* \"#utility.yul\":1130:1299   */\n    tag_33:\n        /* \"#utility.yul\":1214:1225   */\n      0x00\n        /* \"#utility.yul\":1248:1254   */\n      dup3\n        /* \"#utility.yul\":1243:1246   */\n      dup3\n        /* \"#utility.yul\":1236:1255   */\n      mstore\n        /* \"#utility.yul\":1288:1292   */\n      0x20\n        /* \"#utility.yul\":1283:1286   */\n      dup3\n        /* \"#utility.yul\":1279:1293   */\n      add\n        /* \"#utility.yul\":1264:1293   */\n      swap1\n      pop\n        /* \"#utility.yul\":1130:1299   */\n      swap3\n      swap2\n      pop\n      pop\n      jump\t// out\n        /* \"#utility.yul\":1305:1551   */\n    tag_34:\n        /* \"#utility.yul\":1386:1387   */\n      0x00\n        /* \"#utility.yul\":1396:1509   */\n    tag_56:\n        /* \"#utility.yul\":1410:1416   */\n      dup4\n        /* \"#utility.yul\":1407:1408   */\n      dup2\n        /* \"#utility.yul\":1404:1417   */\n      lt\n        /* \"#utility.yul\":1396:1509   */\n      iszero\n      tag_58\n      jumpi\n        /* \"#utility.yul\":1495:1496   */\n      dup1\n        /* \"#utility.yul\":1490:1493   */\n      dup3\n        /* \"#utility.yul\":1486:1497   */\n      add\n        /* \"#utility.yul\":1480:1498   */\n      mload\n        /* \"#utility.yul\":1476:1477   */\n      dup2\n        /* \"#utility.yul\":1471:1474   */\n      dup5\n        /* \"#utility.yul\":1467:1478   */\n      add\n        /* \"#utility.yul\":1460:1499   */\n      mstore\n        /* \"#utility.yul\":1432:1434   */\n      0x20\n        /* \"#utility.yul\":1429:1430   */\n      dup2\n        /* \"#utility.yul\":1425:1435   */\n      add\n        /* \"#utility.yul\":1420:1435   */\n      swap1\n      pop\n        /* \"#utility.yul\":1396:1509   */\n      jump(tag_56)\n    tag_58:\n        /* \"#utility.yul\":1543:1544   */\n      0x00\n        /* \"#utility.yul\":1534:1540   */\n      dup5\n        /* \"#utility.yul\":1529:1532   */\n      dup5\n        /* \"#utility.yul\":1525:1541   */\n      add\n        /* \"#utility.yul\":1518:1545   */\n      mstore\n        /* \"#utility.yul\":1367:1551   */\n      pop\n        /* \"#utility.yul\":1305:1551   */\n      pop\n      pop\n      pop\n      jump\t// out\n        /* \"#utility.yul\":1557:1659   */\n    tag_35:\n        /* \"#utility.yul\":1598:1604   */\n      0x00\n        /* \"#utility.yul\":1649:1651   */\n      0x1f\n        /* \"#utility.yul\":1645:1652   */\n      not\n        /* \"#utility.yul\":1640:1642   */\n      0x1f\n        /* \"#utility.yul\":1633:1638   */\n      dup4\n        /* \"#utility.yul\":1629:1643   */\n      add\n        /* \"#utility.yul\":1625:1653   */\n      and\n        /* \"#utility.yul\":1615:1653   */\n      swap1\n      pop\n        /* \"#utility.yul\":1557:1659   */\n      swap2\n      swap1\n      pop\n      jump\t// out\n        /* \"#utility.yul\":1665:2042   */\n    tag_36:\n        /* \"#utility.yul\":1753:1756   */\n      0x00\n        /* \"#utility.yul\":1781:1820   */\n      tag_61\n        /* \"#utility.yul\":1814:1819   */\n      dup3\n        /* \"#utility.yul\":1781:1820   */\n      tag_32\n      jump\t// in\n    tag_61:\n        /* \"#utility.yul\":1836:1907   */\n      tag_62\n        /* \"#utility.yul\":1900:1906   */\n      dup2\n        /* \"#utility.yul\":1895:1898   */\n      dup6\n        /* \"#utility.yul\":1836:1907   */\n      tag_33\n      jump\t// in\n    tag_62:\n        /* \"#utility.yul\":1829:1907   */\n      swap4\n      pop\n        /* \"#utility.yul\":1916:1981   */\n      tag_63\n        /* \"#utility.yul\":1974:1980   */\n      dup2\n        /* \"#utility.yul\":1969:1972   */\n      dup6\n        /* \"#utility.yul\":1962:1966   */\n      0x20\n        /* \"#utility.yul\":1955:1960   */\n      dup7\n        /* \"#utility.yul\":1951:1967   */\n      add\n        /* \"#utility.yul\":1916:1981   */\n      tag_34\n      jump\t// in\n    tag_63:\n        /* \"#utility.yul\":2006:2035   */\n      tag_64\n        /* \"#utility.yul\":2028:2034   */\n      dup2\n        /* \"#utility.yul\":2006:2035   */\n      tag_35\n      jump\t// in\n    tag_64:\n        /* \"#utility.yul\":2001:2004   */\n      dup5\n        /* \"#utility.yul\":1997:2036   */\n      add\n        /* \"#utility.yul\":1990:2036   */\n      swap2\n      pop\n        /* \"#utility.yul\":1757:2042   */\n      pop\n        /* \"#utility.yul\":1665:2042   */\n      swap3\n      swap2\n      pop\n      pop\n      jump\t// out\n        /* \"#utility.yul\":2048:2361   */\n    tag_9:\n        /* \"#utility.yul\":2161:2165   */\n      0x00\n        /* \"#utility.yul\":2199:2201   */\n      0x20\n        /* \"#utility.yul\":2188:2197   */\n      dup3\n        /* \"#utility.yul\":2184:2202   */\n      add\n        /* \"#utility.yul\":2176:2202   */\n      swap1\n      pop\n        /* \"#utility.yul\":2248:2257   */\n      dup2\n        /* \"#utility.yul\":2242:2246   */\n      dup2\n        /* \"#utility.yul\":2238:2258   */\n      sub\n        /* \"#utility.yul\":2234:2235   */\n      0x00\n        /* \"#utility.yul\":2223:2232   */\n      dup4\n        /* \"#utility.yul\":2219:2236   */\n      add\n        /* \"#utility.yul\":2212:2259   */\n      mstore\n        /* \"#utility.yul\":2276:2354   */\n      tag_66\n        /* \"#utility.yul\":2349:2353   */\n      dup2\n        /* \"#utility.yul\":2340:2346   */\n      dup5\n        /* \"#utility.yul\":2276:2354   */\n      tag_36\n      jump\t// in\n    tag_66:\n        /* \"#utility.yul\":2268:2354   */\n      swap1\n      pop\n        /* \"#utility.yul\":2048:2361   */\n      swap3\n      swap2\n      pop\n      pop\n      jump\t// out\n        /* \"#utility.yul\":2367:2547   */\n    tag_37:\n        /* \"#utility.yul\":2415:2492   */\n      0x4e487b7100000000000000000000000000000000000000000000000000000000\n        /* \"#utility.yul\":2412:2413   */\n      0x00\n        /* \"#utility.yul\":2405:2493   */\n      mstore\n        /* \"#utility.yul\":2512:2516   */\n      0x12\n        /* \"#utility.yul\":2509:2510   */\n      0x04\n        /* \"#utility.yul\":2502:2517   */\n      mstore\n        /* \"#utility.yul\":2536:2540   */\n      0x24\n        /* \"#utility.yul\":2533:2534   */\n      0x00\n        /* \"#utility.yul\":2526:2541   */\n      revert\n        /* \"#utility.yul\":2553:2729   */\n    tag_19:\n        /* \"#utility.yul\":2585:2586   */\n      0x00\n        /* \"#utility.yul\":2602:2622   */\n      tag_69\n        /* \"#utility.yul\":2620:2621   */\n      dup3\n        /* \"#utility.yul\":2602:2622   */\n      tag_29\n      jump\t// in\n    tag_69:\n        /* \"#utility.yul\":2597:2622   */\n      swap2\n      pop\n        /* \"#utility.yul\":2636:2656   */\n      tag_70\n        /* \"#utility.yul\":2654:2655   */\n      dup4\n        /* \"#utility.yul\":2636:2656   */\n      tag_29\n      jump\t// in\n    tag_70:\n        /* \"#utility.yul\":2631:2656   */\n      swap3\n      pop\n        /* \"#utility.yul\":2675:2676   */\n      dup3\n        /* \"#utility.yul\":2665:2700   */\n      tag_71\n      jumpi\n        /* \"#utility.yul\":2680:2698   */\n      tag_72\n      tag_37\n      jump\t// in\n    tag_72:\n        /* \"#utility.yul\":2665:2700   */\n    tag_71:\n        /* \"#utility.yul\":2721:2722   */\n      dup3\n        /* \"#utility.yul\":2718:2719   */\n      dup3\n        /* \"#utility.yul\":2714:2723   */\n      mod\n        /* \"#utility.yul\":2709:2723   */\n      swap1\n      pop\n        /* \"#utility.yul\":2553:2729   */\n      swap3\n      swap2\n      pop\n      pop\n      jump\t// out\n        /* \"#utility.yul\":2735:2915   */\n    tag_38:\n        /* \"#utility.yul\":2783:2860   */\n      0x4e487b7100000000000000000000000000000000000000000000000000000000\n        /* \"#utility.yul\":2780:2781   */\n      0x00\n        /* \"#utility.yul\":2773:2861   */\n      mstore\n        /* \"#utility.yul\":2880:2884   */\n      0x11\n        /* \"#utility.yul\":2877:2878   */\n      0x04\n        /* \"#utility.yul\":2870:2885   */\n      mstore\n        /* \"#utility.yul\":2904:2908   */\n      0x24\n        /* \"#utility.yul\":2901:2902   */\n      0x00\n        /* \"#utility.yul\":2894:2909   */\n      revert\n        /* \"#utility.yul\":2921:3331   */\n    tag_21:\n        /* \"#utility.yul\":2961:2968   */\n      0x00\n        /* \"#utility.yul\":2984:3004   */\n      tag_75\n        /* \"#utility.yul\":3002:3003   */\n      dup3\n        /* \"#utility.yul\":2984:3004   */\n      tag_29\n      jump\t// in\n    tag_75:\n        /* \"#utility.yul\":2979:3004   */\n      swap2\n      pop\n        /* \"#utility.yul\":3018:3038   */\n      tag_76\n        /* \"#utility.yul\":3036:3037   */\n      dup4\n        /* \"#utility.yul\":3018:3038   */\n      tag_29\n      jump\t// in\n    tag_76:\n        /* \"#utility.yul\":3013:3038   */\n      swap3\n      pop\n        /* \"#utility.yul\":3073:3074   */\n      dup3\n        /* \"#utility.yul\":3070:3071   */\n      dup3\n        /* \"#utility.yul\":3066:3075   */\n      mul\n        /* \"#utility.yul\":3095:3125   */\n      tag_77\n        /* \"#utility.yul\":3113:3124   */\n      dup2\n        /* \"#utility.yul\":3095:3125   */\n      tag_29\n      jump\t// in\n    tag_77:\n        /* \"#utility.yul\":3084:3125   */\n      swap2\n      pop\n        /* \"#utility.yul\":3274:3275   */\n      dup3\n        /* \"#utility.yul\":3265:3272   */\n      dup3\n        /* \"#utility.yul\":3261:3276   */\n      div\n        /* \"#utility.yul\":3258:3259   */\n      dup5\n        /* \"#utility.yul\":3255:3277   */\n      eq\n        /* \"#utility.yul\":3235:3236   */\n      dup4\n        /* \"#utility.yul\":3228:3237   */\n      iszero\n        /* \"#utility.yul\":3208:3291   */\n      or\n        /* \"#utility.yul\":3185:3324   */\n      tag_78\n      jumpi\n        /* \"#utility.yul\":3304:3322   */\n      tag_79\n      tag_38\n      jump\t// in\n    tag_79:\n        /* \"#utility.yul\":3185:3324   */\n    tag_78:\n        /* \"#utility.yul\":2969:3331   */\n      pop\n        /* \"#utility.yul\":2921:3331   */\n      swap3\n      swap2\n      pop\n      pop\n      jump\t// out\n        /* \"#utility.yul\":3337:3528   */\n    tag_23:\n        /* \"#utility.yul\":3377:3380   */\n      0x00\n        /* \"#utility.yul\":3396:3416   */\n      tag_81\n        /* \"#utility.yul\":3414:3415   */\n      dup3\n        /* \"#utility.yul\":3396:3416   */\n      tag_29\n      jump\t// in\n    tag_81:\n        /* \"#utility.yul\":3391:3416   */\n      swap2\n      pop\n        /* \"#utility.yul\":3430:3450   */\n      tag_82\n        /* \"#utility.yul\":3448:3449   */\n      dup4\n        /* \"#utility.yul\":3430:3450   */\n      tag_29\n      jump\t// in\n    tag_82:\n        /* \"#utility.yul\":3425:3450   */\n      swap3\n      pop\n        /* \"#utility.yul\":3473:3474   */\n      dup3\n        /* \"#utility.yul\":3470:3471   */\n      dup3\n        /* \"#utility.yul\":3466:3475   */\n      add\n        /* \"#utility.yul\":3459:3475   */\n      swap1\n      pop\n        /* \"#utility.yul\":3494:3497   */\n      dup1\n        /* \"#utility.yul\":3491:3492   */\n      dup3\n        /* \"#utility.yul\":3488:3498   */\n      gt\n        /* \"#utility.yul\":3485:3521   */\n      iszero\n      tag_83\n      jumpi\n        /* \"#utility.yul\":3501:3519   */\n      tag_84\n      tag_38\n      jump\t// in\n    tag_84:\n        /* \"#utility.yul\":3485:3521   */\n    tag_83:\n        /* \"#utility.yul\":3337:3528   */\n      swap3\n      swap2\n      pop\n      pop\n      jump\t// out\n        /* \"#utility.yul\":3534:3719   */\n    tag_25:\n        /* \"#utility.yul\":3574:3575   */\n      0x00\n        /* \"#utility.yul\":3591:3611   */\n      tag_86\n        /* \"#utility.yul\":3609:3610   */\n      dup3\n        /* \"#utility.yul\":3591:3611   */\n      tag_29\n      jump\t// in\n    tag_86:\n        /* \"#utility.yul\":3586:3611   */\n      swap2\n      pop\n        /* \"#utility.yul\":3625:3645   */\n      tag_87\n        /* \"#utility.yul\":3643:3644   */\n      dup4\n        /* \"#utility.yul\":3625:3645   */\n      tag_29\n      jump\t// in\n    tag_87:\n        /* \"#utility.yul\":3620:3645   */\n      swap3\n      pop\n        /* \"#utility.yul\":3664:3665   */\n      dup3\n        /* \"#utility.yul\":3654:3689   */\n      tag_88\n      jumpi\n        /* \"#utility.yul\":3669:3687   */\n      tag_89\n      tag_37\n      jump\t// in\n    tag_89:\n        /* \"#utility.yul\":3654:3689   */\n    tag_88:\n        /* \"#utility.yul\":3711:3712   */\n      dup3\n        /* \"#utility.yul\":3708:3709   */\n      dup3\n        /* \"#utility.yul\":3704:3713   */\n      div\n        /* \"#utility.yul\":3699:3713   */\n      swap1\n      pop\n        /* \"#utility.yul\":3534:3719   */\n      swap3\n      swap2\n      pop\n      pop\n      jump\t// out\n\n    auxdata: 0xa2646970667358221220babc1d73699f8b169e3a58dc7b941328766b3779cbad57f79d3a18e22c05fc6764736f6c63430008120033\n}\n",
				"bytecode": {
					"linkReferences": {},
					"object": "608060405234801561001057600080fd5b506103c8806100206000396000f3fe608060405234801561001057600080fd5b506004361061002b5760003560e01c8063bb1ff5a914610030575b600080fd5b61004a6004803603810190610045919061017d565b610060565b604051610057919061023a565b60405180910390f35b6060600061006d836100f3565b90508083036100b4576040518060400160405280601581526020017f4e756d6265722069732070616c6c696e64726f6d6500000000000000000000008152509150506100ee565b6040518060400160405280601981526020017f4e756d626572206973206e6f742070616c6c696e64726f6d65000000000000008152509150505b919050565b6000805b6000831461013957600a8361010c919061028b565b81600a61011991906102eb565b610123919061032d565b9050600a836101329190610361565b92506100f7565b80915050919050565b600080fd5b6000819050919050565b61015a81610147565b811461016557600080fd5b50565b60008135905061017781610151565b92915050565b60006020828403121561019357610192610142565b5b60006101a184828501610168565b91505092915050565b600081519050919050565b600082825260208201905092915050565b60005b838110156101e45780820151818401526020810190506101c9565b60008484015250505050565b6000601f19601f8301169050919050565b600061020c826101aa565b61021681856101b5565b93506102268185602086016101c6565b61022f816101f0565b840191505092915050565b600060208201905081810360008301526102548184610201565b905092915050565b7f4e487b7100000000000000000000000000000000000000000000000000000000600052601260045260246000fd5b600061029682610147565b91506102a183610147565b9250826102b1576102b061025c565b5b828206905092915050565b7f4e487b7100000000000000000000000000000000000000000000000000000000600052601160045260246000fd5b60006102f682610147565b915061030183610147565b925082820261030f81610147565b91508282048414831517610326576103256102bc565b5b5092915050565b600061033882610147565b915061034383610147565b925082820190508082111561035b5761035a6102bc565b5b92915050565b600061036c82610147565b915061037783610147565b9250826103875761038661025c565b5b82820490509291505056fea2646970667358221220babc1d73699f8b169e3a58dc7b941328766b3779cbad57f79d3a18e22c05fc6764736f6c63430008120033",
					"opcodes": "PUSH1 0x80 PUSH1 0x40 MSTORE CALLVALUE DUP1 ISZERO PUSH2 0x10 JUMPI PUSH1 0x0 DUP1 REVERT JUMPDEST POP PUSH2 0x3C8 DUP1 PUSH2 0x20 PUSH1 0x0 CODECOPY PUSH1 0x0 RETURN INVALID PUSH1 0x80 PUSH1 0x40 MSTORE CALLVALUE DUP1 ISZERO PUSH2 0x10 JUMPI PUSH1 0x0 DUP1 REVERT JUMPDEST POP PUSH1 0x4 CALLDATASIZE LT PUSH2 0x2B JUMPI PUSH1 0x0 CALLDATALOAD PUSH1 0xE0 SHR DUP1 PUSH4 0xBB1FF5A9 EQ PUSH2 0x30 JUMPI JUMPDEST PUSH1 0x0 DUP1 REVERT JUMPDEST PUSH2 0x4A PUSH1 0x4 DUP1 CALLDATASIZE SUB DUP2 ADD SWAP1 PUSH2 0x45 SWAP2 SWAP1 PUSH2 0x17D JUMP JUMPDEST PUSH2 0x60 JUMP JUMPDEST PUSH1 0x40 MLOAD PUSH2 0x57 SWAP2 SWAP1 PUSH2 0x23A JUMP JUMPDEST PUSH1 0x40 MLOAD DUP1 SWAP2 SUB SWAP1 RETURN JUMPDEST PUSH1 0x60 PUSH1 0x0 PUSH2 0x6D DUP4 PUSH2 0xF3 JUMP JUMPDEST SWAP1 POP DUP1 DUP4 SUB PUSH2 0xB4 JUMPI PUSH1 0x40 MLOAD DUP1 PUSH1 0x40 ADD PUSH1 0x40 MSTORE DUP1 PUSH1 0x15 DUP2 MSTORE PUSH1 0x20 ADD PUSH32 0x4E756D6265722069732070616C6C696E64726F6D650000000000000000000000 DUP2 MSTORE POP SWAP2 POP POP PUSH2 0xEE JUMP JUMPDEST PUSH1 0x40 MLOAD DUP1 PUSH1 0x40 ADD PUSH1 0x40 MSTORE DUP1 PUSH1 0x19 DUP2 MSTORE PUSH1 0x20 ADD PUSH32 0x4E756D626572206973206E6F742070616C6C696E64726F6D6500000000000000 DUP2 MSTORE POP SWAP2 POP POP JUMPDEST SWAP2 SWAP1 POP JUMP JUMPDEST PUSH1 0x0 DUP1 JUMPDEST PUSH1 0x0 DUP4 EQ PUSH2 0x139 JUMPI PUSH1 0xA DUP4 PUSH2 0x10C SWAP2 SWAP1 PUSH2 0x28B JUMP JUMPDEST DUP2 PUSH1 0xA PUSH2 0x119 SWAP2 SWAP1 PUSH2 0x2EB JUMP JUMPDEST PUSH2 0x123 SWAP2 SWAP1 PUSH2 0x32D JUMP JUMPDEST SWAP1 POP PUSH1 0xA DUP4 PUSH2 0x132 SWAP2 SWAP1 PUSH2 0x361 JUMP JUMPDEST SWAP3 POP PUSH2 0xF7 JUMP JUMPDEST DUP1 SWAP2 POP POP SWAP2 SWAP1 POP JUMP JUMPDEST PUSH1 0x0 DUP1 REVERT JUMPDEST PUSH1 0x0 DUP2 SWAP1 POP SWAP2 SWAP1 POP JUMP JUMPDEST PUSH2 0x15A DUP2 PUSH2 0x147 JUMP JUMPDEST DUP2 EQ PUSH2 0x165 JUMPI PUSH1 0x0 DUP1 REVERT JUMPDEST POP JUMP JUMPDEST PUSH1 0x0 DUP2 CALLDATALOAD SWAP1 POP PUSH2 0x177 DUP2 PUSH2 0x151 JUMP JUMPDEST SWAP3 SWAP2 POP POP JUMP JUMPDEST PUSH1 0x0 PUSH1 0x20 DUP3 DUP5 SUB SLT ISZERO PUSH2 0x193 JUMPI PUSH2 0x192 PUSH2 0x142 JUMP JUMPDEST JUMPDEST PUSH1 0x0 PUSH2 0x1A1 DUP5 DUP3 DUP6 ADD PUSH2 0x168 JUMP JUMPDEST SWAP2 POP POP SWAP3 SWAP2 POP POP JUMP JUMPDEST PUSH1 0x0 DUP2 MLOAD SWAP1 POP SWAP2 SWAP1 POP JUMP JUMPDEST PUSH1 0x0 DUP3 DUP3 MSTORE PUSH1 0x20 DUP3 ADD SWAP1 POP SWAP3 SWAP2 POP POP JUMP JUMPDEST PUSH1 0x0 JUMPDEST DUP4 DUP2 LT ISZERO PUSH2 0x1E4 JUMPI DUP1 DUP3 ADD MLOAD DUP2 DUP5 ADD MSTORE PUSH1 0x20 DUP2 ADD SWAP1 POP PUSH2 0x1C9 JUMP JUMPDEST PUSH1 0x0 DUP5 DUP5 ADD MSTORE POP POP POP POP JUMP JUMPDEST PUSH1 0x0 PUSH1 0x1F NOT PUSH1 0x1F DUP4 ADD AND SWAP1 POP SWAP2 SWAP1 POP JUMP JUMPDEST PUSH1 0x0 PUSH2 0x20C DUP3 PUSH2 0x1AA JUMP JUMPDEST PUSH2 0x216 DUP2 DUP6 PUSH2 0x1B5 JUMP JUMPDEST SWAP4 POP PUSH2 0x226 DUP2 DUP6 PUSH1 0x20 DUP7 ADD PUSH2 0x1C6 JUMP JUMPDEST PUSH2 0x22F DUP2 PUSH2 0x1F0 JUMP JUMPDEST DUP5 ADD SWAP2 POP POP SWAP3 SWAP2 POP POP JUMP JUMPDEST PUSH1 0x0 PUSH1 0x20 DUP3 ADD SWAP1 POP DUP2 DUP2 SUB PUSH1 0x0 DUP4 ADD MSTORE PUSH2 0x254 DUP2 DUP5 PUSH2 0x201 JUMP JUMPDEST SWAP1 POP SWAP3 SWAP2 POP POP JUMP JUMPDEST PUSH32 0x4E487B7100000000000000000000000000000000000000000000000000000000 PUSH1 0x0 MSTORE PUSH1 0x12 PUSH1 0x4 MSTORE PUSH1 0x24 PUSH1 0x0 REVERT JUMPDEST PUSH1 0x0 PUSH2 0x296 DUP3 PUSH2 0x147 JUMP JUMPDEST SWAP2 POP PUSH2 0x2A1 DUP4 PUSH2 0x147 JUMP JUMPDEST SWAP3 POP DUP3 PUSH2 0x2B1 JUMPI PUSH2 0x2B0 PUSH2 0x25C JUMP JUMPDEST JUMPDEST DUP3 DUP3 MOD SWAP1 POP SWAP3 SWAP2 POP POP JUMP JUMPDEST PUSH32 0x4E487B7100000000000000000000000000000000000000000000000000000000 PUSH1 0x0 MSTORE PUSH1 0x11 PUSH1 0x4 MSTORE PUSH1 0x24 PUSH1 0x0 REVERT JUMPDEST PUSH1 0x0 PUSH2 0x2F6 DUP3 PUSH2 0x147 JUMP JUMPDEST SWAP2 POP PUSH2 0x301 DUP4 PUSH2 0x147 JUMP JUMPDEST SWAP3 POP DUP3 DUP3 MUL PUSH2 0x30F DUP2 PUSH2 0x147 JUMP JUMPDEST SWAP2 POP DUP3 DUP3 DIV DUP5 EQ DUP4 ISZERO OR PUSH2 0x326 JUMPI PUSH2 0x325 PUSH2 0x2BC JUMP JUMPDEST JUMPDEST POP SWAP3 SWAP2 POP POP JUMP JUMPDEST PUSH1 0x0 PUSH2 0x338 DUP3 PUSH2 0x147 JUMP JUMPDEST SWAP2 POP PUSH2 0x343 DUP4 PUSH2 0x147 JUMP JUMPDEST SWAP3 POP DUP3 DUP3 ADD SWAP1 POP DUP1 DUP3 GT ISZERO PUSH2 0x35B JUMPI PUSH2 0x35A PUSH2 0x2BC JUMP JUMPDEST JUMPDEST SWAP3 SWAP2 POP POP JUMP JUMPDEST PUSH1 0x0 PUSH2 0x36C DUP3 PUSH2 0x147 JUMP JUMPDEST SWAP2 POP PUSH2 0x377 DUP4 PUSH2 0x147 JUMP JUMPDEST SWAP3 POP DUP3 PUSH2 0x387 JUMPI PUSH2 0x386 PUSH2 0x25C JUMP JUMPDEST JUMPDEST DUP3 DUP3 DIV SWAP1 POP SWAP3 SWAP2 POP POP JUMP INVALID LOG2 PUSH5 0x6970667358 0x22 SLT KECCAK256 0xBA 0xBC SAR PUSH20 0x699F8B169E3A58DC7B941328766B3779CBAD57F7 SWAP14 GASPRICE XOR 0xE2 0x2C SDIV 0xFC PUSH8 0x64736F6C63430008 SLT STOP CALLER "
				},
				"gasEstimates": {
					"creation": {
						"codeDepositCost": "193600",
						"executionCost": "238",
						"totalCost": "193838"
					},
					"external": {
						"checkPallindrome(uint256)": "infinite"
					},
					"internal": {
						"reverse(uint256)": "infinite"
					}
				},
				"methodIdentifiers": {
					"checkPallindrome(uint256)": "bb1ff5a9"
				}
			},
			"storageLayout": {
				"storage": [],
				"types": null
			},
			"userdoc": {
				"kind": "user",
				"methods": {},
				"version": 1
			}
		}
	}
}