{
	"factorial.sol": {
		"Factorial": {
			"abi": [
				{
					"inputs": [
						{
							"internalType": "uint256",
							"name": "num",
							"type": "uint256"
						}
					],
					"name": "factotial",
					"outputs": [
						{
							"internalType": "uint256",
							"name": "",
							"type": "uint256"
						}
					],
					"stateMutability": "pure",
					"type": "function"
				}
			],
			"devdoc": {
				"kind": "dev",
				"methods": {},
				"version": 1
			},
			"evm": {
				"assembly": "    /* \"factorial.sol\":74:301  contract Factorial{... */\n  mstore(0x40, 0x80)\n  callvalue\n  dup1\n  iszero\n  tag_1\n  jumpi\n  0x00\n  dup1\n  revert\ntag_1:\n  pop\n  dataSize(sub_0)\n  dup1\n  dataOffset(sub_0)\n  0x00\n  codecopy\n  0x00\n  return\nstop\n\nsub_0: assembly {\n        /* \"factorial.sol\":74:301  contract Factorial{... */\n      mstore(0x40, 0x80)\n      callvalue\n      dup1\n      iszero\n      tag_1\n      jumpi\n      0x00\n      dup1\n      revert\n    tag_1:\n      pop\n      jumpi(tag_2, lt(calldatasize, 0x04))\n      shr(0xe0, calldataload(0x00))\n      dup1\n      0x3de5f833\n      eq\n      tag_3\n      jumpi\n    tag_2:\n      0x00\n      dup1\n      revert\n        /* \"factorial.sol\":99:298  function factotial(uint num) public pure returns(uint){... */\n    tag_3:\n      tag_4\n      0x04\n      dup1\n      calldatasize\n      sub\n      dup2\n      add\n      swap1\n      tag_5\n      swap2\n      swap1\n      tag_6\n      jump\t// in\n    tag_5:\n      tag_7\n      jump\t// in\n    tag_4:\n      mload(0x40)\n      tag_8\n      swap2\n      swap1\n      tag_9\n      jump\t// in\n    tag_8:\n      mload(0x40)\n      dup1\n      swap2\n      sub\n      swap1\n      return\n    tag_7:\n        /* \"factorial.sol\":148:152  uint */\n      0x00\n        /* \"factorial.sol\":173:174  0 */\n      dup1\n        /* \"factorial.sol\":167:170  num */\n      dup3\n        /* \"factorial.sol\":167:174  num ==0 */\n      eq\n        /* \"factorial.sol\":167:185  num ==0 || num ==1 */\n      dup1\n      tag_11\n      jumpi\n      pop\n        /* \"factorial.sol\":184:185  1 */\n      0x01\n        /* \"factorial.sol\":178:181  num */\n      dup3\n        /* \"factorial.sol\":178:185  num ==1 */\n      eq\n        /* \"factorial.sol\":167:185  num ==0 || num ==1 */\n    tag_11:\n        /* \"factorial.sol\":164:291  if(num ==0 || num ==1){... */\n      iszero\n      tag_12\n      jumpi\n        /* \"factorial.sol\":208:209  1 */\n      0x01\n        /* \"factorial.sol\":201:209  return 1 */\n      swap1\n      pop\n      jump(tag_10)\n        /* \"factorial.sol\":164:291  if(num ==0 || num ==1){... */\n    tag_12:\n        /* \"factorial.sol\":263:279  factotial(num-1) */\n      tag_14\n        /* \"factorial.sol\":277:278  1 */\n      0x01\n        /* \"factorial.sol\":273:276  num */\n      dup4\n        /* \"factorial.sol\":273:278  num-1 */\n      tag_15\n      swap2\n      swap1\n      tag_16\n      jump\t// in\n    tag_15:\n        /* \"factorial.sol\":263:272  factotial */\n      tag_7\n        /* \"factorial.sol\":263:279  factotial(num-1) */\n      jump\t// in\n    tag_14:\n        /* \"factorial.sol\":257:260  num */\n      dup3\n        /* \"factorial.sol\":257:279  num * factotial(num-1) */\n      tag_17\n      swap2\n      swap1\n      tag_18\n      jump\t// in\n    tag_17:\n        /* \"factorial.sol\":250:279  return num * factotial(num-1) */\n      swap1\n      pop\n        /* \"factorial.sol\":99:298  function factotial(uint num) public pure returns(uint){... */\n    tag_10:\n      swap2\n      swap1\n      pop\n      jump\t// out\n        /* \"#utility.yul\":88:205   */\n    tag_20:\n        /* \"#utility.yul\":197:198   */\n      0x00\n        /* \"#utility.yul\":194:195   */\n      dup1\n        /* \"#utility.yul\":187:199   */\n      revert\n        /* \"#utility.yul\":334:411   */\n    tag_22:\n        /* \"#utility.yul\":371:378   */\n      0x00\n        /* \"#utility.yul\":400:405   */\n      dup2\n        /* \"#utility.yul\":389:405   */\n      swap1\n      pop\n        /* \"#utility.yul\":334:411   */\n      swap2\n      swap1\n      pop\n      jump\t// out\n        /* \"#utility.yul\":417:539   */\n    tag_23:\n        /* \"#utility.yul\":490:514   */\n      tag_33\n        /* \"#utility.yul\":508:513   */\n      dup2\n        /* \"#utility.yul\":490:514   */\n      tag_22\n      jump\t// in\n    tag_33:\n        /* \"#utility.yul\":483:488   */\n      dup2\n        /* \"#utility.yul\":480:515   */\n      eq\n        /* \"#utility.yul\":470:533   */\n      tag_34\n      jumpi\n        /* \"#utility.yul\":529:530   */\n      0x00\n        /* \"#utility.yul\":526:527   */\n      dup1\n        /* \"#utility.yul\":519:531   */\n      revert\n        /* \"#utility.yul\":470:533   */\n    tag_34:\n        /* \"#utility.yul\":417:539   */\n      pop\n      jump\t// out\n        /* \"#utility.yul\":545:684   */\n    tag_24:\n        /* \"#utility.yul\":591:596   */\n      0x00\n        /* \"#utility.yul\":629:635   */\n      dup2\n        /* \"#utility.yul\":616:636   */\n      calldataload\n        /* \"#utility.yul\":607:636   */\n      swap1\n      pop\n        /* \"#utility.yul\":645:678   */\n      tag_36\n        /* \"#utility.yul\":672:677   */\n      dup2\n        /* \"#utility.yul\":645:678   */\n      tag_23\n      jump\t// in\n    tag_36:\n        /* \"#utility.yul\":545:684   */\n      swap3\n      swap2\n      pop\n      pop\n      jump\t// out\n        /* \"#utility.yul\":690:1019   */\n    tag_6:\n        /* \"#utility.yul\":749:755   */\n      0x00\n        /* \"#utility.yul\":798:800   */\n      0x20\n        /* \"#utility.yul\":786:795   */\n      dup3\n        /* \"#utility.yul\":777:784   */\n      dup5\n        /* \"#utility.yul\":773:796   */\n      sub\n        /* \"#utility.yul\":769:801   */\n      slt\n        /* \"#utility.yul\":766:885   */\n      iszero\n      tag_38\n      jumpi\n        /* \"#utility.yul\":804:883   */\n      tag_39\n      tag_20\n      jump\t// in\n    tag_39:\n        /* \"#utility.yul\":766:885   */\n    tag_38:\n        /* \"#utility.yul\":924:925   */\n      0x00\n        /* \"#utility.yul\":949:1002   */\n      tag_40\n        /* \"#utility.yul\":994:1001   */\n      dup5\n        /* \"#utility.yul\":985:991   */\n      dup3\n        /* \"#utility.yul\":974:983   */\n      dup6\n        /* \"#utility.yul\":970:992   */\n      add\n        /* \"#utility.yul\":949:1002   */\n      tag_24\n      jump\t// in\n    tag_40:\n        /* \"#utility.yul\":939:1002   */\n      swap2\n      pop\n        /* \"#utility.yul\":895:1012   */\n      pop\n        /* \"#utility.yul\":690:1019   */\n      swap3\n      swap2\n      pop\n      pop\n      jump\t// out\n        /* \"#utility.yul\":1025:1143   */\n    tag_25:\n        /* \"#utility.yul\":1112:1136   */\n      tag_42\n        /* \"#utility.yul\":1130:1135   */\n      dup2\n        /* \"#utility.yul\":1112:1136   */\n      tag_22\n      jump\t// in\n    tag_42:\n        /* \"#utility.yul\":1107:1110   */\n      dup3\n        /* \"#utility.yul\":1100:1137   */\n      mstore\n        /* \"#utility.yul\":1025:1143   */\n      pop\n      pop\n      jump\t// out\n        /* \"#utility.yul\":1149:1371   */\n    tag_9:\n        /* \"#utility.yul\":1242:1246   */\n      0x00\n        /* \"#utility.yul\":1280:1282   */\n      0x20\n        /* \"#utility.yul\":1269:1278   */\n      dup3\n        /* \"#utility.yul\":1265:1283   */\n      add\n        /* \"#utility.yul\":1257:1283   */\n      swap1\n      pop\n        /* \"#utility.yul\":1293:1364   */\n      tag_44\n        /* \"#utility.yul\":1361:1362   */\n      0x00\n        /* \"#utility.yul\":1350:1359   */\n      dup4\n        /* \"#utility.yul\":1346:1363   */\n      add\n        /* \"#utility.yul\":1337:1343   */\n      dup5\n        /* \"#utility.yul\":1293:1364   */\n      tag_25\n      jump\t// in\n    tag_44:\n        /* \"#utility.yul\":1149:1371   */\n      swap3\n      swap2\n      pop\n      pop\n      jump\t// out\n        /* \"#utility.yul\":1377:1557   */\n    tag_26:\n        /* \"#utility.yul\":1425:1502   */\n      0x4e487b7100000000000000000000000000000000000000000000000000000000\n        /* \"#utility.yul\":1422:1423   */\n      0x00\n        /* \"#utility.yul\":1415:1503   */\n      mstore\n        /* \"#utility.yul\":1522:1526   */\n      0x11\n        /* \"#utility.yul\":1519:1520   */\n      0x04\n        /* \"#utility.yul\":1512:1527   */\n      mstore\n        /* \"#utility.yul\":1546:1550   */\n      0x24\n        /* \"#utility.yul\":1543:1544   */\n      0x00\n        /* \"#utility.yul\":1536:1551   */\n      revert\n        /* \"#utility.yul\":1563:1757   */\n    tag_16:\n        /* \"#utility.yul\":1603:1607   */\n      0x00\n        /* \"#utility.yul\":1623:1643   */\n      tag_47\n        /* \"#utility.yul\":1641:1642   */\n      dup3\n        /* \"#utility.yul\":1623:1643   */\n      tag_22\n      jump\t// in\n    tag_47:\n        /* \"#utility.yul\":1618:1643   */\n      swap2\n      pop\n        /* \"#utility.yul\":1657:1677   */\n      tag_48\n        /* \"#utility.yul\":1675:1676   */\n      dup4\n        /* \"#utility.yul\":1657:1677   */\n      tag_22\n      jump\t// in\n    tag_48:\n        /* \"#utility.yul\":1652:1677   */\n      swap3\n      pop\n        /* \"#utility.yul\":1701:1702   */\n      dup3\n        /* \"#utility.yul\":1698:1699   */\n      dup3\n        /* \"#utility.yul\":1694:1703   */\n      sub\n        /* \"#utility.yul\":1686:1703   */\n      swap1\n      pop\n        /* \"#utility.yul\":1725:1726   */\n      dup2\n        /* \"#utility.yul\":1719:1723   */\n      dup2\n        /* \"#utility.yul\":1716:1727   */\n      gt\n        /* \"#utility.yul\":1713:1750   */\n      iszero\n      tag_49\n      jumpi\n        /* \"#utility.yul\":1730:1748   */\n      tag_50\n      tag_26\n      jump\t// in\n    tag_50:\n        /* \"#utility.yul\":1713:1750   */\n    tag_49:\n        /* \"#utility.yul\":1563:1757   */\n      swap3\n      swap2\n      pop\n      pop\n      jump\t// out\n        /* \"#utility.yul\":1763:2173   */\n    tag_18:\n        /* \"#utility.yul\":1803:1810   */\n      0x00\n        /* \"#utility.yul\":1826:1846   */\n      tag_52\n        /* \"#utility.yul\":1844:1845   */\n      dup3\n        /* \"#utility.yul\":1826:1846   */\n      tag_22\n      jump\t// in\n    tag_52:\n        /* \"#utility.yul\":1821:1846   */\n      swap2\n      pop\n        /* \"#utility.yul\":1860:1880   */\n      tag_53\n        /* \"#utility.yul\":1878:1879   */\n      dup4\n        /* \"#utility.yul\":1860:1880   */\n      tag_22\n      jump\t// in\n    tag_53:\n        /* \"#utility.yul\":1855:1880   */\n      swap3\n      pop\n        /* \"#utility.yul\":1915:1916   */\n      dup3\n        /* \"#utility.yul\":1912:1913   */\n      dup3\n        /* \"#utility.yul\":1908:1917   */\n      mul\n        /* \"#utility.yul\":1937:1967   */\n      tag_54\n        /* \"#utility.yul\":1955:1966   */\n      dup2\n        /* \"#utility.yul\":1937:1967   */\n      tag_22\n      jump\t// in\n    tag_54:\n        /* \"#utility.yul\":1926:1967   */\n      swap2\n      pop\n        /* \"#utility.yul\":2116:2117   */\n      dup3\n        /* \"#utility.yul\":2107:2114   */\n      dup3\n        /* \"#utility.yul\":2103:2118   */\n      div\n        /* \"#utility.yul\":2100:2101   */\n      dup5\n        /* \"#utility.yul\":2097:2119   */\n      eq\n        /* \"#utility.yul\":2077:2078   */\n      dup4\n        /* \"#utility.yul\":2070:2079   */\n      iszero\n        /* \"#utility.yul\":2050:2133   */\n      or\n        /* \"#utility.yul\":2027:2166   */\n      tag_55\n      jumpi\n        /* \"#utility.yul\":2146:2164   */\n      tag_56\n      tag_26\n      jump\t// in\n    tag_56:\n        /* \"#utility.yul\":2027:2166   */\n    tag_55:\n        /* \"#utility.yul\":1811:2173   */\n      pop\n        /* \"#utility.yul\":1763:2173   */\n      swap3\n      swap2\n      pop\n      pop\n      jump\t// out\n\n    auxdata: 0xa26469706673582212207aa9427e15ca0b1c24980b041e27e560ae8d2777bce5b320e289d638e013062664736f6c63430008120033\n}\n",
				"bytecode": {
					"linkReferences": {},
					"object": "608060405234801561001057600080fd5b50610213806100206000396000f3fe608060405234801561001057600080fd5b506004361061002b5760003560e01c80633de5f83314610030575b600080fd5b61004a600480360381019061004591906100e1565b610060565b604051610057919061011d565b60405180910390f35b6000808214806100705750600182145b1561007e57600190506100a1565b61009360018361008e9190610167565b610060565b8261009e919061019b565b90505b919050565b600080fd5b6000819050919050565b6100be816100ab565b81146100c957600080fd5b50565b6000813590506100db816100b5565b92915050565b6000602082840312156100f7576100f66100a6565b5b6000610105848285016100cc565b91505092915050565b610117816100ab565b82525050565b6000602082019050610132600083018461010e565b92915050565b7f4e487b7100000000000000000000000000000000000000000000000000000000600052601160045260246000fd5b6000610172826100ab565b915061017d836100ab565b925082820390508181111561019557610194610138565b5b92915050565b60006101a6826100ab565b91506101b1836100ab565b92508282026101bf816100ab565b915082820484148315176101d6576101d5610138565b5b509291505056fea26469706673582212207aa9427e15ca0b1c24980b041e27e560ae8d2777bce5b320e289d638e013062664736f6c63430008120033",
					"opcodes": "PUSH1 0x80 PUSH1 0x40 MSTORE CALLVALUE DUP1 ISZERO PUSH2 0x10 JUMPI PUSH1 0x0 DUP1 REVERT JUMPDEST POP PUSH2 0x213 DUP1 PUSH2 0x20 PUSH1 0x0 CODECOPY PUSH1 0x0 RETURN INVALID PUSH1 0x80 PUSH1 0x40 MSTORE CALLVALUE DUP1 ISZERO PUSH2 0x10 JUMPI PUSH1 0x0 DUP1 REVERT JUMPDEST POP PUSH1 0x4 CALLDATASIZE LT PUSH2 0x2B JUMPI PUSH1 0x0 CALLDATALOAD PUSH1 0xE0 SHR DUP1 PUSH4 0x3DE5F833 EQ PUSH2 0x30 JUMPI JUMPDEST PUSH1 0x0 DUP1 REVERT JUMPDEST PUSH2 0x4A PUSH1 0x4 DUP1 CALLDATASIZE SUB DUP2 ADD SWAP1 PUSH2 0x45 SWAP2 SWAP1 PUSH2 0xE1 JUMP JUMPDEST PUSH2 0x60 JUMP JUMPDEST PUSH1 0x40 MLOAD PUSH2 0x57 SWAP2 SWAP1 PUSH2 0x11D JUMP JUMPDEST PUSH1 0x40 MLOAD DUP1 SWAP2 SUB SWAP1 RETURN JUMPDEST PUSH1 0x0 DUP1 DUP3 EQ DUP1 PUSH2 0x70 JUMPI POP PUSH1 0x1 DUP3 EQ JUMPDEST ISZERO PUSH2 0x7E JUMPI PUSH1 0x1 SWAP1 POP PUSH2 0xA1 JUMP JUMPDEST PUSH2 0x93 PUSH1 0x1 DUP4 PUSH2 0x8E SWAP2 SWAP1 PUSH2 0x167 JUMP JUMPDEST PUSH2 0x60 JUMP JUMPDEST DUP3 PUSH2 0x9E SWAP2 SWAP1 PUSH2 0x19B JUMP JUMPDEST SWAP1 POP JUMPDEST SWAP2 SWAP1 POP JUMP JUMPDEST PUSH1 0x0 DUP1 REVERT JUMPDEST PUSH1 0x0 DUP2 SWAP1 POP SWAP2 SWAP1 POP JUMP JUMPDEST PUSH2 0xBE DUP2 PUSH2 0xAB JUMP JUMPDEST DUP2 EQ PUSH2 0xC9 JUMPI PUSH1 0x0 DUP1 REVERT JUMPDEST POP JUMP JUMPDEST PUSH1 0x0 DUP2 CALLDATALOAD SWAP1 POP PUSH2 0xDB DUP2 PUSH2 0xB5 JUMP JUMPDEST SWAP3 SWAP2 POP POP JUMP JUMPDEST PUSH1 0x0 PUSH1 0x20 DUP3 DUP5 SUB SLT ISZERO PUSH2 0xF7 JUMPI PUSH2 0xF6 PUSH2 0xA6 JUMP JUMPDEST JUMPDEST PUSH1 0x0 PUSH2 0x105 DUP5 DUP3 DUP6 ADD PUSH2 0xCC JUMP JUMPDEST SWAP2 POP POP SWAP3 SWAP2 POP POP JUMP JUMPDEST PUSH2 0x117 DUP2 PUSH2 0xAB JUMP JUMPDEST DUP3 MSTORE POP POP JUMP JUMPDEST PUSH1 0x0 PUSH1 0x20 DUP3 ADD SWAP1 POP PUSH2 0x132 PUSH1 0x0 DUP4 ADD DUP5 PUSH2 0x10E JUMP JUMPDEST SWAP3 SWAP2 POP POP JUMP JUMPDEST PUSH32 0x4E487B7100000000000000000000000000000000000000000000000000000000 PUSH1 0x0 MSTORE PUSH1 0x11 PUSH1 0x4 MSTORE PUSH1 0x24 PUSH1 0x0 REVERT JUMPDEST PUSH1 0x0 PUSH2 0x172 DUP3 PUSH2 0xAB JUMP JUMPDEST SWAP2 POP PUSH2 0x17D DUP4 PUSH2 0xAB JUMP JUMPDEST SWAP3 POP DUP3 DUP3 SUB SWAP1 POP DUP2 DUP2 GT ISZERO PUSH2 0x195 JUMPI PUSH2 0x194 PUSH2 0x138 JUMP JUMPDEST JUMPDEST SWAP3 SWAP2 POP POP JUMP JUMPDEST PUSH1 0x0 PUSH2 0x1A6 DUP3 PUSH2 0xAB JUMP JUMPDEST SWAP2 POP PUSH2 0x1B1 DUP4 PUSH2 0xAB JUMP JUMPDEST SWAP3 POP DUP3 DUP3 MUL PUSH2 0x1BF DUP2 PUSH2 0xAB JUMP JUMPDEST SWAP2 POP DUP3 DUP3 DIV DUP5 EQ DUP4 ISZERO OR PUSH2 0x1D6 JUMPI PUSH2 0x1D5 PUSH2 0x138 JUMP JUMPDEST JUMPDEST POP SWAP3 SWAP2 POP POP JUMP INVALID LOG2 PUSH5 0x6970667358 0x22 SLT KECCAK256 PUSH27 0xA9427E15CA0B1C24980B041E27E560AE8D2777BCE5B320E289D638 0xE0 SGT MOD 0x26 PUSH5 0x736F6C6343 STOP ADDMOD SLT STOP CALLER "
				},
				"gasEstimates": {
					"creation": {
						"codeDepositCost": "106200",
						"executionCost": "153",
						"totalCost": "106353"
					},
					"external": {
						"factotial(uint256)": "infinite"
					}
				},
				"methodIdentifiers": {
					"factotial(uint256)": "3de5f833"
				}
			},
			"storageLayout": {
				"storage": [],
				"types": null
			},
			"userdoc": {
				"kind": "user",
				"methods": {},
				"version": 1
			}
		}
	}
}