{
	"armstrong.sol": {
		"Armstrong": {
			"abi": [
				{
					"inputs": [
						{
							"internalType": "uint256",
							"name": "num",
							"type": "uint256"
						}
					],
					"name": "checkArmstrong",
					"outputs": [
						{
							"internalType": "string",
							"name": "",
							"type": "string"
						}
					],
					"stateMutability": "pure",
					"type": "function"
				}
			],
			"devdoc": {
				"kind": "dev",
				"methods": {},
				"version": 1
			},
			"evm": {
				"assembly": "    /* \"armstrong.sol\":75:1121  contract Armstrong{... */\n  mstore(0x40, 0x80)\n  callvalue\n  dup1\n  iszero\n  tag_1\n  jumpi\n  0x00\n  dup1\n  revert\ntag_1:\n  pop\n  dataSize(sub_0)\n  dup1\n  dataOffset(sub_0)\n  0x00\n  codecopy\n  0x00\n  return\nstop\n\nsub_0: assembly {\n        /* \"armstrong.sol\":75:1121  contract Armstrong{... */\n      mstore(0x40, 0x80)\n      callvalue\n      dup1\n      iszero\n      tag_1\n      jumpi\n      0x00\n      dup1\n      revert\n    tag_1:\n      pop\n      jumpi(tag_2, lt(calldatasize, 0x04))\n      shr(0xe0, calldataload(0x00))\n      dup1\n      0xb6e12936\n      eq\n      tag_3\n      jumpi\n    tag_2:\n      0x00\n      dup1\n      revert\n        /* \"armstrong.sol\":100:446  function checkArmstrong(uint num) public pure returns(string memory){... */\n    tag_3:\n      tag_4\n      0x04\n      dup1\n      calldatasize\n      sub\n      dup2\n      add\n      swap1\n      tag_5\n      swap2\n      swap1\n      tag_6\n      jump\t// in\n    tag_5:\n      tag_7\n      jump\t// in\n    tag_4:\n      mload(0x40)\n      tag_8\n      swap2\n      swap1\n      tag_9\n      jump\t// in\n    tag_8:\n      mload(0x40)\n      dup1\n      swap2\n      sub\n      swap1\n      return\n    tag_7:\n        /* \"armstrong.sol\":154:167  string memory */\n      0x60\n        /* \"armstrong.sol\":179:189  uint digit */\n      0x00\n        /* \"armstrong.sol\":192:211  digitCalculate(num) */\n      tag_11\n        /* \"armstrong.sol\":207:210  num */\n      dup4\n        /* \"armstrong.sol\":192:206  digitCalculate */\n      tag_12\n        /* \"armstrong.sol\":192:211  digitCalculate(num) */\n      jump\t// in\n    tag_11:\n        /* \"armstrong.sol\":179:211  uint digit = digitCalculate(num) */\n      swap1\n      pop\n        /* \"armstrong.sol\":222:242  uint armstrongNumber */\n      0x00\n        /* \"armstrong.sol\":245:269  calculateNum(num, digit) */\n      tag_13\n        /* \"armstrong.sol\":258:261  num */\n      dup5\n        /* \"armstrong.sol\":263:268  digit */\n      dup4\n        /* \"armstrong.sol\":245:257  calculateNum */\n      tag_14\n        /* \"armstrong.sol\":245:269  calculateNum(num, digit) */\n      jump\t// in\n    tag_13:\n        /* \"armstrong.sol\":222:269  uint armstrongNumber = calculateNum(num, digit) */\n      swap1\n      pop\n        /* \"armstrong.sol\":290:305  armstrongNumber */\n      dup1\n        /* \"armstrong.sol\":283:286  num */\n      dup5\n        /* \"armstrong.sol\":283:305  num == armstrongNumber */\n      sub\n        /* \"armstrong.sol\":280:439  if(num == armstrongNumber){... */\n      tag_15\n      jumpi\n        /* \"armstrong.sol\":321:351  return (\"Number is armstrong\") */\n      mload(0x40)\n      dup1\n      0x40\n      add\n      0x40\n      mstore\n      dup1\n      0x13\n      dup2\n      mstore\n      0x20\n      add\n      0x4e756d6265722069732061726d7374726f6e6700000000000000000000000000\n      dup2\n      mstore\n      pop\n      swap3\n      pop\n      pop\n      pop\n      jump(tag_10)\n        /* \"armstrong.sol\":280:439  if(num == armstrongNumber){... */\n    tag_15:\n        /* \"armstrong.sol\":392:427  return (\"Number is not arm-strong\") */\n      mload(0x40)\n      dup1\n      0x40\n      add\n      0x40\n      mstore\n      dup1\n      0x18\n      dup2\n      mstore\n      0x20\n      add\n      0x4e756d626572206973206e6f742061726d2d7374726f6e670000000000000000\n      dup2\n      mstore\n      pop\n      swap3\n      pop\n      pop\n      pop\n        /* \"armstrong.sol\":100:446  function checkArmstrong(uint num) public pure returns(string memory){... */\n    tag_10:\n      swap2\n      swap1\n      pop\n      jump\t// out\n        /* \"armstrong.sol\":452:662  function digitCalculate(uint number) private pure returns(uint){... */\n    tag_12:\n        /* \"armstrong.sol\":510:514  uint */\n      0x00\n        /* \"armstrong.sol\":526:536  uint digit */\n      dup1\n        /* \"armstrong.sol\":547:632  while(number != 0){... */\n    tag_18:\n        /* \"armstrong.sol\":563:564  0 */\n      0x00\n        /* \"armstrong.sol\":553:559  number */\n      dup4\n        /* \"armstrong.sol\":553:564  number != 0 */\n      eq\n        /* \"armstrong.sol\":547:632  while(number != 0){... */\n      tag_19\n      jumpi\n        /* \"armstrong.sol\":580:587  digit++ */\n      dup1\n      dup1\n      tag_20\n      swap1\n      tag_21\n      jump\t// in\n    tag_20:\n      swap2\n      pop\n      pop\n        /* \"armstrong.sol\":618:620  10 */\n      0x0a\n        /* \"armstrong.sol\":611:617  number */\n      dup4\n        /* \"armstrong.sol\":611:620  number/10 */\n      tag_22\n      swap2\n      swap1\n      tag_23\n      jump\t// in\n    tag_22:\n        /* \"armstrong.sol\":602:620  number = number/10 */\n      swap3\n      pop\n        /* \"armstrong.sol\":547:632  while(number != 0){... */\n      jump(tag_18)\n    tag_19:\n        /* \"armstrong.sol\":649:654  digit */\n      dup1\n        /* \"armstrong.sol\":642:654  return digit */\n      swap2\n      pop\n      pop\n        /* \"armstrong.sol\":452:662  function digitCalculate(uint number) private pure returns(uint){... */\n      swap2\n      swap1\n      pop\n      jump\t// out\n        /* \"armstrong.sol\":668:910  function calculateNum(uint Num, uint digit) private pure returns(uint){... */\n    tag_14:\n        /* \"armstrong.sol\":733:737  uint */\n      0x00\n        /* \"armstrong.sol\":749:758  uint temp */\n      dup1\n        /* \"armstrong.sol\":769:881  while(Num != 0){... */\n    tag_25:\n        /* \"armstrong.sol\":782:783  0 */\n      0x00\n        /* \"armstrong.sol\":775:778  Num */\n      dup5\n        /* \"armstrong.sol\":775:783  Num != 0 */\n      eq\n        /* \"armstrong.sol\":769:881  while(Num != 0){... */\n      tag_26\n      jumpi\n        /* \"armstrong.sol\":813:842  calculatepower(Num%10, digit) */\n      tag_27\n        /* \"armstrong.sol\":832:834  10 */\n      0x0a\n        /* \"armstrong.sol\":828:831  Num */\n      dup6\n        /* \"armstrong.sol\":828:834  Num%10 */\n      tag_28\n      swap2\n      swap1\n      tag_29\n      jump\t// in\n    tag_28:\n        /* \"armstrong.sol\":836:841  digit */\n      dup5\n        /* \"armstrong.sol\":813:827  calculatepower */\n      tag_30\n        /* \"armstrong.sol\":813:842  calculatepower(Num%10, digit) */\n      jump\t// in\n    tag_27:\n        /* \"armstrong.sol\":806:810  temp */\n      dup2\n        /* \"armstrong.sol\":806:842  temp + calculatepower(Num%10, digit) */\n      tag_31\n      swap2\n      swap1\n      tag_32\n      jump\t// in\n    tag_31:\n        /* \"armstrong.sol\":799:842  temp = temp + calculatepower(Num%10, digit) */\n      swap1\n      pop\n        /* \"armstrong.sol\":867:869  10 */\n      0x0a\n        /* \"armstrong.sol\":863:866  Num */\n      dup5\n        /* \"armstrong.sol\":863:869  Num/10 */\n      tag_33\n      swap2\n      swap1\n      tag_23\n      jump\t// in\n    tag_33:\n        /* \"armstrong.sol\":857:869  Num = Num/10 */\n      swap4\n      pop\n        /* \"armstrong.sol\":769:881  while(Num != 0){... */\n      jump(tag_25)\n    tag_26:\n        /* \"armstrong.sol\":898:902  temp */\n      dup1\n        /* \"armstrong.sol\":891:902  return temp */\n      swap2\n      pop\n      pop\n        /* \"armstrong.sol\":668:910  function calculateNum(uint Num, uint digit) private pure returns(uint){... */\n      swap3\n      swap2\n      pop\n      pop\n      jump\t// out\n        /* \"armstrong.sol\":916:1118  function calculatepower(uint a, uint power) private pure returns(uint){... */\n    tag_30:\n        /* \"armstrong.sol\":981:985  uint */\n      0x00\n        /* \"armstrong.sol\":997:1008  uint result */\n      dup1\n        /* \"armstrong.sol\":1010:1011  1 */\n      0x01\n        /* \"armstrong.sol\":997:1011  uint result =1 */\n      swap1\n      pop\n        /* \"armstrong.sol\":1026:1032  uint i */\n      0x00\n        /* \"armstrong.sol\":1022:1087  for(uint i=0; i<power; i++){... */\n    tag_35:\n        /* \"armstrong.sol\":1038:1043  power */\n      dup4\n        /* \"armstrong.sol\":1036:1037  i */\n      dup2\n        /* \"armstrong.sol\":1036:1043  i<power */\n      lt\n        /* \"armstrong.sol\":1022:1087  for(uint i=0; i<power; i++){... */\n      iszero\n      tag_36\n      jumpi\n        /* \"armstrong.sol\":1074:1075  a */\n      dup5\n        /* \"armstrong.sol\":1064:1075  result *= a */\n      dup3\n      tag_38\n      swap2\n      swap1\n      tag_39\n      jump\t// in\n    tag_38:\n      swap2\n      pop\n        /* \"armstrong.sol\":1045:1048  i++ */\n      dup1\n      dup1\n      tag_40\n      swap1\n      tag_21\n      jump\t// in\n    tag_40:\n      swap2\n      pop\n      pop\n        /* \"armstrong.sol\":1022:1087  for(uint i=0; i<power; i++){... */\n      jump(tag_35)\n    tag_36:\n      pop\n        /* \"armstrong.sol\":1104:1110  result */\n      dup1\n        /* \"armstrong.sol\":1097:1110  return result */\n      swap2\n      pop\n      pop\n        /* \"armstrong.sol\":916:1118  function calculatepower(uint a, uint power) private pure returns(uint){... */\n      swap3\n      swap2\n      pop\n      pop\n      jump\t// out\n        /* \"#utility.yul\":88:205   */\n    tag_42:\n        /* \"#utility.yul\":197:198   */\n      0x00\n        /* \"#utility.yul\":194:195   */\n      dup1\n        /* \"#utility.yul\":187:199   */\n      revert\n        /* \"#utility.yul\":334:411   */\n    tag_44:\n        /* \"#utility.yul\":371:378   */\n      0x00\n        /* \"#utility.yul\":400:405   */\n      dup2\n        /* \"#utility.yul\":389:405   */\n      swap1\n      pop\n        /* \"#utility.yul\":334:411   */\n      swap2\n      swap1\n      pop\n      jump\t// out\n        /* \"#utility.yul\":417:539   */\n    tag_45:\n        /* \"#utility.yul\":490:514   */\n      tag_60\n        /* \"#utility.yul\":508:513   */\n      dup2\n        /* \"#utility.yul\":490:514   */\n      tag_44\n      jump\t// in\n    tag_60:\n        /* \"#utility.yul\":483:488   */\n      dup2\n        /* \"#utility.yul\":480:515   */\n      eq\n        /* \"#utility.yul\":470:533   */\n      tag_61\n      jumpi\n        /* \"#utility.yul\":529:530   */\n      0x00\n        /* \"#utility.yul\":526:527   */\n      dup1\n        /* \"#utility.yul\":519:531   */\n      revert\n        /* \"#utility.yul\":470:533   */\n    tag_61:\n        /* \"#utility.yul\":417:539   */\n      pop\n      jump\t// out\n        /* \"#utility.yul\":545:684   */\n    tag_46:\n        /* \"#utility.yul\":591:596   */\n      0x00\n        /* \"#utility.yul\":629:635   */\n      dup2\n        /* \"#utility.yul\":616:636   */\n      calldataload\n        /* \"#utility.yul\":607:636   */\n      swap1\n      pop\n        /* \"#utility.yul\":645:678   */\n      tag_63\n        /* \"#utility.yul\":672:677   */\n      dup2\n        /* \"#utility.yul\":645:678   */\n      tag_45\n      jump\t// in\n    tag_63:\n        /* \"#utility.yul\":545:684   */\n      swap3\n      swap2\n      pop\n      pop\n      jump\t// out\n        /* \"#utility.yul\":690:1019   */\n    tag_6:\n        /* \"#utility.yul\":749:755   */\n      0x00\n        /* \"#utility.yul\":798:800   */\n      0x20\n        /* \"#utility.yul\":786:795   */\n      dup3\n        /* \"#utility.yul\":777:784   */\n      dup5\n        /* \"#utility.yul\":773:796   */\n      sub\n        /* \"#utility.yul\":769:801   */\n      slt\n        /* \"#utility.yul\":766:885   */\n      iszero\n      tag_65\n      jumpi\n        /* \"#utility.yul\":804:883   */\n      tag_66\n      tag_42\n      jump\t// in\n    tag_66:\n        /* \"#utility.yul\":766:885   */\n    tag_65:\n        /* \"#utility.yul\":924:925   */\n      0x00\n        /* \"#utility.yul\":949:1002   */\n      tag_67\n        /* \"#utility.yul\":994:1001   */\n      dup5\n        /* \"#utility.yul\":985:991   */\n      dup3\n        /* \"#utility.yul\":974:983   */\n      dup6\n        /* \"#utility.yul\":970:992   */\n      add\n        /* \"#utility.yul\":949:1002   */\n      tag_46\n      jump\t// in\n    tag_67:\n        /* \"#utility.yul\":939:1002   */\n      swap2\n      pop\n        /* \"#utility.yul\":895:1012   */\n      pop\n        /* \"#utility.yul\":690:1019   */\n      swap3\n      swap2\n      pop\n      pop\n      jump\t// out\n        /* \"#utility.yul\":1025:1124   */\n    tag_47:\n        /* \"#utility.yul\":1077:1083   */\n      0x00\n        /* \"#utility.yul\":1111:1116   */\n      dup2\n        /* \"#utility.yul\":1105:1117   */\n      mload\n        /* \"#utility.yul\":1095:1117   */\n      swap1\n      pop\n        /* \"#utility.yul\":1025:1124   */\n      swap2\n      swap1\n      pop\n      jump\t// out\n        /* \"#utility.yul\":1130:1299   */\n    tag_48:\n        /* \"#utility.yul\":1214:1225   */\n      0x00\n        /* \"#utility.yul\":1248:1254   */\n      dup3\n        /* \"#utility.yul\":1243:1246   */\n      dup3\n        /* \"#utility.yul\":1236:1255   */\n      mstore\n        /* \"#utility.yul\":1288:1292   */\n      0x20\n        /* \"#utility.yul\":1283:1286   */\n      dup3\n        /* \"#utility.yul\":1279:1293   */\n      add\n        /* \"#utility.yul\":1264:1293   */\n      swap1\n      pop\n        /* \"#utility.yul\":1130:1299   */\n      swap3\n      swap2\n      pop\n      pop\n      jump\t// out\n        /* \"#utility.yul\":1305:1551   */\n    tag_49:\n        /* \"#utility.yul\":1386:1387   */\n      0x00\n        /* \"#utility.yul\":1396:1509   */\n    tag_71:\n        /* \"#utility.yul\":1410:1416   */\n      dup4\n        /* \"#utility.yul\":1407:1408   */\n      dup2\n        /* \"#utility.yul\":1404:1417   */\n      lt\n        /* \"#utility.yul\":1396:1509   */\n      iszero\n      tag_73\n      jumpi\n        /* \"#utility.yul\":1495:1496   */\n      dup1\n        /* \"#utility.yul\":1490:1493   */\n      dup3\n        /* \"#utility.yul\":1486:1497   */\n      add\n        /* \"#utility.yul\":1480:1498   */\n      mload\n        /* \"#utility.yul\":1476:1477   */\n      dup2\n        /* \"#utility.yul\":1471:1474   */\n      dup5\n        /* \"#utility.yul\":1467:1478   */\n      add\n        /* \"#utility.yul\":1460:1499   */\n      mstore\n        /* \"#utility.yul\":1432:1434   */\n      0x20\n        /* \"#utility.yul\":1429:1430   */\n      dup2\n        /* \"#utility.yul\":1425:1435   */\n      add\n        /* \"#utility.yul\":1420:1435   */\n      swap1\n      pop\n        /* \"#utility.yul\":1396:1509   */\n      jump(tag_71)\n    tag_73:\n        /* \"#utility.yul\":1543:1544   */\n      0x00\n        /* \"#utility.yul\":1534:1540   */\n      dup5\n        /* \"#utility.yul\":1529:1532   */\n      dup5\n        /* \"#utility.yul\":1525:1541   */\n      add\n        /* \"#utility.yul\":1518:1545   */\n      mstore\n        /* \"#utility.yul\":1367:1551   */\n      pop\n        /* \"#utility.yul\":1305:1551   */\n      pop\n      pop\n      pop\n      jump\t// out\n        /* \"#utility.yul\":1557:1659   */\n    tag_50:\n        /* \"#utility.yul\":1598:1604   */\n      0x00\n        /* \"#utility.yul\":1649:1651   */\n      0x1f\n        /* \"#utility.yul\":1645:1652   */\n      not\n        /* \"#utility.yul\":1640:1642   */\n      0x1f\n        /* \"#utility.yul\":1633:1638   */\n      dup4\n        /* \"#utility.yul\":1629:1643   */\n      add\n        /* \"#utility.yul\":1625:1653   */\n      and\n        /* \"#utility.yul\":1615:1653   */\n      swap1\n      pop\n        /* \"#utility.yul\":1557:1659   */\n      swap2\n      swap1\n      pop\n      jump\t// out\n        /* \"#utility.yul\":1665:2042   */\n    tag_51:\n        /* \"#utility.yul\":1753:1756   */\n      0x00\n        /* \"#utility.yul\":1781:1820   */\n      tag_76\n        /* \"#utility.yul\":1814:1819   */\n      dup3\n        /* \"#utility.yul\":1781:1820   */\n      tag_47\n      jump\t// in\n    tag_76:\n        /* \"#utility.yul\":1836:1907   */\n      tag_77\n        /* \"#utility.yul\":1900:1906   */\n      dup2\n        /* \"#utility.yul\":1895:1898   */\n      dup6\n        /* \"#utility.yul\":1836:1907   */\n      tag_48\n      jump\t// in\n    tag_77:\n        /* \"#utility.yul\":1829:1907   */\n      swap4\n      pop\n        /* \"#utility.yul\":1916:1981   */\n      tag_78\n        /* \"#utility.yul\":1974:1980   */\n      dup2\n        /* \"#utility.yul\":1969:1972   */\n      dup6\n        /* \"#utility.yul\":1962:1966   */\n      0x20\n        /* \"#utility.yul\":1955:1960   */\n      dup7\n        /* \"#utility.yul\":1951:1967   */\n      add\n        /* \"#utility.yul\":1916:1981   */\n      tag_49\n      jump\t// in\n    tag_78:\n        /* \"#utility.yul\":2006:2035   */\n      tag_79\n        /* \"#utility.yul\":2028:2034   */\n      dup2\n        /* \"#utility.yul\":2006:2035   */\n      tag_50\n      jump\t// in\n    tag_79:\n        /* \"#utility.yul\":2001:2004   */\n      dup5\n        /* \"#utility.yul\":1997:2036   */\n      add\n        /* \"#utility.yul\":1990:2036   */\n      swap2\n      pop\n        /* \"#utility.yul\":1757:2042   */\n      pop\n        /* \"#utility.yul\":1665:2042   */\n      swap3\n      swap2\n      pop\n      pop\n      jump\t// out\n        /* \"#utility.yul\":2048:2361   */\n    tag_9:\n        /* \"#utility.yul\":2161:2165   */\n      0x00\n        /* \"#utility.yul\":2199:2201   */\n      0x20\n        /* \"#utility.yul\":2188:2197   */\n      dup3\n        /* \"#utility.yul\":2184:2202   */\n      add\n        /* \"#utility.yul\":2176:2202   */\n      swap1\n      pop\n        /* \"#utility.yul\":2248:2257   */\n      dup2\n        /* \"#utility.yul\":2242:2246   */\n      dup2\n        /* \"#utility.yul\":2238:2258   */\n      sub\n        /* \"#utility.yul\":2234:2235   */\n      0x00\n        /* \"#utility.yul\":2223:2232   */\n      dup4\n        /* \"#utility.yul\":2219:2236   */\n      add\n        /* \"#utility.yul\":2212:2259   */\n      mstore\n        /* \"#utility.yul\":2276:2354   */\n      tag_81\n        /* \"#utility.yul\":2349:2353   */\n      dup2\n        /* \"#utility.yul\":2340:2346   */\n      dup5\n        /* \"#utility.yul\":2276:2354   */\n      tag_51\n      jump\t// in\n    tag_81:\n        /* \"#utility.yul\":2268:2354   */\n      swap1\n      pop\n        /* \"#utility.yul\":2048:2361   */\n      swap3\n      swap2\n      pop\n      pop\n      jump\t// out\n        /* \"#utility.yul\":2367:2547   */\n    tag_52:\n        /* \"#utility.yul\":2415:2492   */\n      0x4e487b7100000000000000000000000000000000000000000000000000000000\n        /* \"#utility.yul\":2412:2413   */\n      0x00\n        /* \"#utility.yul\":2405:2493   */\n      mstore\n        /* \"#utility.yul\":2512:2516   */\n      0x11\n        /* \"#utility.yul\":2509:2510   */\n      0x04\n        /* \"#utility.yul\":2502:2517   */\n      mstore\n        /* \"#utility.yul\":2536:2540   */\n      0x24\n        /* \"#utility.yul\":2533:2534   */\n      0x00\n        /* \"#utility.yul\":2526:2541   */\n      revert\n        /* \"#utility.yul\":2553:2786   */\n    tag_21:\n        /* \"#utility.yul\":2592:2595   */\n      0x00\n        /* \"#utility.yul\":2615:2639   */\n      tag_84\n        /* \"#utility.yul\":2633:2638   */\n      dup3\n        /* \"#utility.yul\":2615:2639   */\n      tag_44\n      jump\t// in\n    tag_84:\n        /* \"#utility.yul\":2606:2639   */\n      swap2\n      pop\n        /* \"#utility.yul\":2661:2727   */\n      0xffffffffffffffffffffffffffffffffffffffffffffffffffffffffffffffff\n        /* \"#utility.yul\":2654:2659   */\n      dup3\n        /* \"#utility.yul\":2651:2728   */\n      sub\n        /* \"#utility.yul\":2648:2751   */\n      tag_85\n      jumpi\n        /* \"#utility.yul\":2731:2749   */\n      tag_86\n      tag_52\n      jump\t// in\n    tag_86:\n        /* \"#utility.yul\":2648:2751   */\n    tag_85:\n        /* \"#utility.yul\":2778:2779   */\n      0x01\n        /* \"#utility.yul\":2771:2776   */\n      dup3\n        /* \"#utility.yul\":2767:2780   */\n      add\n        /* \"#utility.yul\":2760:2780   */\n      swap1\n      pop\n        /* \"#utility.yul\":2553:2786   */\n      swap2\n      swap1\n      pop\n      jump\t// out\n        /* \"#utility.yul\":2792:2972   */\n    tag_53:\n        /* \"#utility.yul\":2840:2917   */\n      0x4e487b7100000000000000000000000000000000000000000000000000000000\n        /* \"#utility.yul\":2837:2838   */\n      0x00\n        /* \"#utility.yul\":2830:2918   */\n      mstore\n        /* \"#utility.yul\":2937:2941   */\n      0x12\n        /* \"#utility.yul\":2934:2935   */\n      0x04\n        /* \"#utility.yul\":2927:2942   */\n      mstore\n        /* \"#utility.yul\":2961:2965   */\n      0x24\n        /* \"#utility.yul\":2958:2959   */\n      0x00\n        /* \"#utility.yul\":2951:2966   */\n      revert\n        /* \"#utility.yul\":2978:3163   */\n    tag_23:\n        /* \"#utility.yul\":3018:3019   */\n      0x00\n        /* \"#utility.yul\":3035:3055   */\n      tag_89\n        /* \"#utility.yul\":3053:3054   */\n      dup3\n        /* \"#utility.yul\":3035:3055   */\n      tag_44\n      jump\t// in\n    tag_89:\n        /* \"#utility.yul\":3030:3055   */\n      swap2\n      pop\n        /* \"#utility.yul\":3069:3089   */\n      tag_90\n        /* \"#utility.yul\":3087:3088   */\n      dup4\n        /* \"#utility.yul\":3069:3089   */\n      tag_44\n      jump\t// in\n    tag_90:\n        /* \"#utility.yul\":3064:3089   */\n      swap3\n      pop\n        /* \"#utility.yul\":3108:3109   */\n      dup3\n        /* \"#utility.yul\":3098:3133   */\n      tag_91\n      jumpi\n        /* \"#utility.yul\":3113:3131   */\n      tag_92\n      tag_53\n      jump\t// in\n    tag_92:\n        /* \"#utility.yul\":3098:3133   */\n    tag_91:\n        /* \"#utility.yul\":3155:3156   */\n      dup3\n        /* \"#utility.yul\":3152:3153   */\n      dup3\n        /* \"#utility.yul\":3148:3157   */\n      div\n        /* \"#utility.yul\":3143:3157   */\n      swap1\n      pop\n        /* \"#utility.yul\":2978:3163   */\n      swap3\n      swap2\n      pop\n      pop\n      jump\t// out\n        /* \"#utility.yul\":3169:3345   */\n    tag_29:\n        /* \"#utility.yul\":3201:3202   */\n      0x00\n        /* \"#utility.yul\":3218:3238   */\n      tag_94\n        /* \"#utility.yul\":3236:3237   */\n      dup3\n        /* \"#utility.yul\":3218:3238   */\n      tag_44\n      jump\t// in\n    tag_94:\n        /* \"#utility.yul\":3213:3238   */\n      swap2\n      pop\n        /* \"#utility.yul\":3252:3272   */\n      tag_95\n        /* \"#utility.yul\":3270:3271   */\n      dup4\n        /* \"#utility.yul\":3252:3272   */\n      tag_44\n      jump\t// in\n    tag_95:\n        /* \"#utility.yul\":3247:3272   */\n      swap3\n      pop\n        /* \"#utility.yul\":3291:3292   */\n      dup3\n        /* \"#utility.yul\":3281:3316   */\n      tag_96\n      jumpi\n        /* \"#utility.yul\":3296:3314   */\n      tag_97\n      tag_53\n      jump\t// in\n    tag_97:\n        /* \"#utility.yul\":3281:3316   */\n    tag_96:\n        /* \"#utility.yul\":3337:3338   */\n      dup3\n        /* \"#utility.yul\":3334:3335   */\n      dup3\n        /* \"#utility.yul\":3330:3339   */\n      mod\n        /* \"#utility.yul\":3325:3339   */\n      swap1\n      pop\n        /* \"#utility.yul\":3169:3345   */\n      swap3\n      swap2\n      pop\n      pop\n      jump\t// out\n        /* \"#utility.yul\":3351:3542   */\n    tag_32:\n        /* \"#utility.yul\":3391:3394   */\n      0x00\n        /* \"#utility.yul\":3410:3430   */\n      tag_99\n        /* \"#utility.yul\":3428:3429   */\n      dup3\n        /* \"#utility.yul\":3410:3430   */\n      tag_44\n      jump\t// in\n    tag_99:\n        /* \"#utility.yul\":3405:3430   */\n      swap2\n      pop\n        /* \"#utility.yul\":3444:3464   */\n      tag_100\n        /* \"#utility.yul\":3462:3463   */\n      dup4\n        /* \"#utility.yul\":3444:3464   */\n      tag_44\n      jump\t// in\n    tag_100:\n        /* \"#utility.yul\":3439:3464   */\n      swap3\n      pop\n        /* \"#utility.yul\":3487:3488   */\n      dup3\n        /* \"#utility.yul\":3484:3485   */\n      dup3\n        /* \"#utility.yul\":3480:3489   */\n      add\n        /* \"#utility.yul\":3473:3489   */\n      swap1\n      pop\n        /* \"#utility.yul\":3508:3511   */\n      dup1\n        /* \"#utility.yul\":3505:3506   */\n      dup3\n        /* \"#utility.yul\":3502:3512   */\n      gt\n        /* \"#utility.yul\":3499:3535   */\n      iszero\n      tag_101\n      jumpi\n        /* \"#utility.yul\":3515:3533   */\n      tag_102\n      tag_52\n      jump\t// in\n    tag_102:\n        /* \"#utility.yul\":3499:3535   */\n    tag_101:\n        /* \"#utility.yul\":3351:3542   */\n      swap3\n      swap2\n      pop\n      pop\n      jump\t// out\n        /* \"#utility.yul\":3548:3958   */\n    tag_39:\n        /* \"#utility.yul\":3588:3595   */\n      0x00\n        /* \"#utility.yul\":3611:3631   */\n      tag_104\n        /* \"#utility.yul\":3629:3630   */\n      dup3\n        /* \"#utility.yul\":3611:3631   */\n      tag_44\n      jump\t// in\n    tag_104:\n        /* \"#utility.yul\":3606:3631   */\n      swap2\n      pop\n        /* \"#utility.yul\":3645:3665   */\n      tag_105\n        /* \"#utility.yul\":3663:3664   */\n      dup4\n        /* \"#utility.yul\":3645:3665   */\n      tag_44\n      jump\t// in\n    tag_105:\n        /* \"#utility.yul\":3640:3665   */\n      swap3\n      pop\n        /* \"#utility.yul\":3700:3701   */\n      dup3\n        /* \"#utility.yul\":3697:3698   */\n      dup3\n        /* \"#utility.yul\":3693:3702   */\n      mul\n        /* \"#utility.yul\":3722:3752   */\n      tag_106\n        /* \"#utility.yul\":3740:3751   */\n      dup2\n        /* \"#utility.yul\":3722:3752   */\n      tag_44\n      jump\t// in\n    tag_106:\n        /* \"#utility.yul\":3711:3752   */\n      swap2\n      pop\n        /* \"#utility.yul\":3901:3902   */\n      dup3\n        /* \"#utility.yul\":3892:3899   */\n      dup3\n        /* \"#utility.yul\":3888:3903   */\n      div\n        /* \"#utility.yul\":3885:3886   */\n      dup5\n        /* \"#utility.yul\":3882:3904   */\n      eq\n        /* \"#utility.yul\":3862:3863   */\n      dup4\n        /* \"#utility.yul\":3855:3864   */\n      iszero\n        /* \"#utility.yul\":3835:3918   */\n      or\n        /* \"#utility.yul\":3812:3951   */\n      tag_107\n      jumpi\n        /* \"#utility.yul\":3931:3949   */\n      tag_108\n      tag_52\n      jump\t// in\n    tag_108:\n        /* \"#utility.yul\":3812:3951   */\n    tag_107:\n        /* \"#utility.yul\":3596:3958   */\n      pop\n        /* \"#utility.yul\":3548:3958   */\n      swap3\n      swap2\n      pop\n      pop\n      jump\t// out\n\n    auxdata: 0xa2646970667358221220cccb4df30ec8a16696495c997e06e838c1e2749780bc6f12b6b44a5162b5881164736f6c63430008120033\n}\n",
				"bytecode": {
					"linkReferences": {},
					"object": "608060405234801561001057600080fd5b50610493806100206000396000f3fe608060405234801561001057600080fd5b506004361061002b5760003560e01c8063b6e1293614610030575b600080fd5b61004a60048036038101906100459190610200565b610060565b60405161005791906102bd565b60405180910390f35b6060600061006d83610103565b9050600061007b848361013a565b90508084036100c3576040518060400160405280601381526020017f4e756d6265722069732061726d7374726f6e6700000000000000000000000000815250925050506100fe565b6040518060400160405280601881526020017f4e756d626572206973206e6f742061726d2d7374726f6e670000000000000000815250925050505b919050565b6000805b6000831461013157808061011a9061030e565b915050600a8361012a9190610385565b9250610107565b80915050919050565b6000805b6000841461017d5761015c600a8561015691906103b6565b84610187565b8161016791906103e7565b9050600a846101769190610385565b935061013e565b8091505092915050565b6000806001905060005b838110156101ba5784826101a5919061041b565b915080806101b29061030e565b915050610191565b508091505092915050565b600080fd5b6000819050919050565b6101dd816101ca565b81146101e857600080fd5b50565b6000813590506101fa816101d4565b92915050565b600060208284031215610216576102156101c5565b5b6000610224848285016101eb565b91505092915050565b600081519050919050565b600082825260208201905092915050565b60005b8381101561026757808201518184015260208101905061024c565b60008484015250505050565b6000601f19601f8301169050919050565b600061028f8261022d565b6102998185610238565b93506102a9818560208601610249565b6102b281610273565b840191505092915050565b600060208201905081810360008301526102d78184610284565b905092915050565b7f4e487b7100000000000000000000000000000000000000000000000000000000600052601160045260246000fd5b6000610319826101ca565b91507fffffffffffffffffffffffffffffffffffffffffffffffffffffffffffffffff820361034b5761034a6102df565b5b600182019050919050565b7f4e487b7100000000000000000000000000000000000000000000000000000000600052601260045260246000fd5b6000610390826101ca565b915061039b836101ca565b9250826103ab576103aa610356565b5b828204905092915050565b60006103c1826101ca565b91506103cc836101ca565b9250826103dc576103db610356565b5b828206905092915050565b60006103f2826101ca565b91506103fd836101ca565b9250828201905080821115610415576104146102df565b5b92915050565b6000610426826101ca565b9150610431836101ca565b925082820261043f816101ca565b91508282048414831517610456576104556102df565b5b509291505056fea2646970667358221220cccb4df30ec8a16696495c997e06e838c1e2749780bc6f12b6b44a5162b5881164736f6c63430008120033",
					"opcodes": "PUSH1 0x80 PUSH1 0x40 MSTORE CALLVALUE DUP1 ISZERO PUSH2 0x10 JUMPI PUSH1 0x0 DUP1 REVERT JUMPDEST POP PUSH2 0x493 DUP1 PUSH2 0x20 PUSH1 0x0 CODECOPY PUSH1 0x0 RETURN INVALID PUSH1 0x80 PUSH1 0x40 MSTORE CALLVALUE DUP1 ISZERO PUSH2 0x10 JUMPI PUSH1 0x0 DUP1 REVERT JUMPDEST POP PUSH1 0x4 CALLDATASIZE LT PUSH2 0x2B JUMPI PUSH1 0x0 CALLDATALOAD PUSH1 0xE0 SHR DUP1 PUSH4 0xB6E12936 EQ PUSH2 0x30 JUMPI JUMPDEST PUSH1 0x0 DUP1 REVERT JUMPDEST PUSH2 0x4A PUSH1 0x4 DUP1 CALLDATASIZE SUB DUP2 ADD SWAP1 PUSH2 0x45 SWAP2 SWAP1 PUSH2 0x200 JUMP JUMPDEST PUSH2 0x60 JUMP JUMPDEST PUSH1 0x40 MLOAD PUSH2 0x57 SWAP2 SWAP1 PUSH2 0x2BD JUMP JUMPDEST PUSH1 0x40 MLOAD DUP1 SWAP2 SUB SWAP1 RETURN JUMPDEST PUSH1 0x60 PUSH1 0x0 PUSH2 0x6D DUP4 PUSH2 0x103 JUMP JUMPDEST SWAP1 POP PUSH1 0x0 PUSH2 0x7B DUP5 DUP4 PUSH2 0x13A JUMP JUMPDEST SWAP1 POP DUP1 DUP5 SUB PUSH2 0xC3 JUMPI PUSH1 0x40 MLOAD DUP1 PUSH1 0x40 ADD PUSH1 0x40 MSTORE DUP1 PUSH1 0x13 DUP2 MSTORE PUSH1 0x20 ADD PUSH32 0x4E756D6265722069732061726D7374726F6E6700000000000000000000000000 DUP2 MSTORE POP SWAP3 POP POP POP PUSH2 0xFE JUMP JUMPDEST PUSH1 0x40 MLOAD DUP1 PUSH1 0x40 ADD PUSH1 0x40 MSTORE DUP1 PUSH1 0x18 DUP2 MSTORE PUSH1 0x20 ADD PUSH32 0x4E756D626572206973206E6F742061726D2D7374726F6E670000000000000000 DUP2 MSTORE POP SWAP3 POP POP POP JUMPDEST SWAP2 SWAP1 POP JUMP JUMPDEST PUSH1 0x0 DUP1 JUMPDEST PUSH1 0x0 DUP4 EQ PUSH2 0x131 JUMPI DUP1 DUP1 PUSH2 0x11A SWAP1 PUSH2 0x30E JUMP JUMPDEST SWAP2 POP POP PUSH1 0xA DUP4 PUSH2 0x12A SWAP2 SWAP1 PUSH2 0x385 JUMP JUMPDEST SWAP3 POP PUSH2 0x107 JUMP JUMPDEST DUP1 SWAP2 POP POP SWAP2 SWAP1 POP JUMP JUMPDEST PUSH1 0x0 DUP1 JUMPDEST PUSH1 0x0 DUP5 EQ PUSH2 0x17D JUMPI PUSH2 0x15C PUSH1 0xA DUP6 PUSH2 0x156 SWAP2 SWAP1 PUSH2 0x3B6 JUMP JUMPDEST DUP5 PUSH2 0x187 JUMP JUMPDEST DUP2 PUSH2 0x167 SWAP2 SWAP1 PUSH2 0x3E7 JUMP JUMPDEST SWAP1 POP PUSH1 0xA DUP5 PUSH2 0x176 SWAP2 SWAP1 PUSH2 0x385 JUMP JUMPDEST SWAP4 POP PUSH2 0x13E JUMP JUMPDEST DUP1 SWAP2 POP POP SWAP3 SWAP2 POP POP JUMP JUMPDEST PUSH1 0x0 DUP1 PUSH1 0x1 SWAP1 POP PUSH1 0x0 JUMPDEST DUP4 DUP2 LT ISZERO PUSH2 0x1BA JUMPI DUP5 DUP3 PUSH2 0x1A5 SWAP2 SWAP1 PUSH2 0x41B JUMP JUMPDEST SWAP2 POP DUP1 DUP1 PUSH2 0x1B2 SWAP1 PUSH2 0x30E JUMP JUMPDEST SWAP2 POP POP PUSH2 0x191 JUMP JUMPDEST POP DUP1 SWAP2 POP POP SWAP3 SWAP2 POP POP JUMP JUMPDEST PUSH1 0x0 DUP1 REVERT JUMPDEST PUSH1 0x0 DUP2 SWAP1 POP SWAP2 SWAP1 POP JUMP JUMPDEST PUSH2 0x1DD DUP2 PUSH2 0x1CA JUMP JUMPDEST DUP2 EQ PUSH2 0x1E8 JUMPI PUSH1 0x0 DUP1 REVERT JUMPDEST POP JUMP JUMPDEST PUSH1 0x0 DUP2 CALLDATALOAD SWAP1 POP PUSH2 0x1FA DUP2 PUSH2 0x1D4 JUMP JUMPDEST SWAP3 SWAP2 POP POP JUMP JUMPDEST PUSH1 0x0 PUSH1 0x20 DUP3 DUP5 SUB SLT ISZERO PUSH2 0x216 JUMPI PUSH2 0x215 PUSH2 0x1C5 JUMP JUMPDEST JUMPDEST PUSH1 0x0 PUSH2 0x224 DUP5 DUP3 DUP6 ADD PUSH2 0x1EB JUMP JUMPDEST SWAP2 POP POP SWAP3 SWAP2 POP POP JUMP JUMPDEST PUSH1 0x0 DUP2 MLOAD SWAP1 POP SWAP2 SWAP1 POP JUMP JUMPDEST PUSH1 0x0 DUP3 DUP3 MSTORE PUSH1 0x20 DUP3 ADD SWAP1 POP SWAP3 SWAP2 POP POP JUMP JUMPDEST PUSH1 0x0 JUMPDEST DUP4 DUP2 LT ISZERO PUSH2 0x267 JUMPI DUP1 DUP3 ADD MLOAD DUP2 DUP5 ADD MSTORE PUSH1 0x20 DUP2 ADD SWAP1 POP PUSH2 0x24C JUMP JUMPDEST PUSH1 0x0 DUP5 DUP5 ADD MSTORE POP POP POP POP JUMP JUMPDEST PUSH1 0x0 PUSH1 0x1F NOT PUSH1 0x1F DUP4 ADD AND SWAP1 POP SWAP2 SWAP1 POP JUMP JUMPDEST PUSH1 0x0 PUSH2 0x28F DUP3 PUSH2 0x22D JUMP JUMPDEST PUSH2 0x299 DUP2 DUP6 PUSH2 0x238 JUMP JUMPDEST SWAP4 POP PUSH2 0x2A9 DUP2 DUP6 PUSH1 0x20 DUP7 ADD PUSH2 0x249 JUMP JUMPDEST PUSH2 0x2B2 DUP2 PUSH2 0x273 JUMP JUMPDEST DUP5 ADD SWAP2 POP POP SWAP3 SWAP2 POP POP JUMP JUMPDEST PUSH1 0x0 PUSH1 0x20 DUP3 ADD SWAP1 POP DUP2 DUP2 SUB PUSH1 0x0 DUP4 ADD MSTORE PUSH2 0x2D7 DUP2 DUP5 PUSH2 0x284 JUMP JUMPDEST SWAP1 POP SWAP3 SWAP2 POP POP JUMP JUMPDEST PUSH32 0x4E487B7100000000000000000000000000000000000000000000000000000000 PUSH1 0x0 MSTORE PUSH1 0x11 PUSH1 0x4 MSTORE PUSH1 0x24 PUSH1 0x0 REVERT JUMPDEST PUSH1 0x0 PUSH2 0x319 DUP3 PUSH2 0x1CA JUMP JUMPDEST SWAP2 POP PUSH32 0xFFFFFFFFFFFFFFFFFFFFFFFFFFFFFFFFFFFFFFFFFFFFFFFFFFFFFFFFFFFFFFFF DUP3 SUB PUSH2 0x34B JUMPI PUSH2 0x34A PUSH2 0x2DF JUMP JUMPDEST JUMPDEST PUSH1 0x1 DUP3 ADD SWAP1 POP SWAP2 SWAP1 POP JUMP JUMPDEST PUSH32 0x4E487B7100000000000000000000000000000000000000000000000000000000 PUSH1 0x0 MSTORE PUSH1 0x12 PUSH1 0x4 MSTORE PUSH1 0x24 PUSH1 0x0 REVERT JUMPDEST PUSH1 0x0 PUSH2 0x390 DUP3 PUSH2 0x1CA JUMP JUMPDEST SWAP2 POP PUSH2 0x39B DUP4 PUSH2 0x1CA JUMP JUMPDEST SWAP3 POP DUP3 PUSH2 0x3AB JUMPI PUSH2 0x3AA PUSH2 0x356 JUMP JUMPDEST JUMPDEST DUP3 DUP3 DIV SWAP1 POP SWAP3 SWAP2 POP POP JUMP JUMPDEST PUSH1 0x0 PUSH2 0x3C1 DUP3 PUSH2 0x1CA JUMP JUMPDEST SWAP2 POP PUSH2 0x3CC DUP4 PUSH2 0x1CA JUMP JUMPDEST SWAP3 POP DUP3 PUSH2 0x3DC JUMPI PUSH2 0x3DB PUSH2 0x356 JUMP JUMPDEST JUMPDEST DUP3 DUP3 MOD SWAP1 POP SWAP3 SWAP2 POP POP JUMP JUMPDEST PUSH1 0x0 PUSH2 0x3F2 DUP3 PUSH2 0x1CA JUMP JUMPDEST SWAP2 POP PUSH2 0x3FD DUP4 PUSH2 0x1CA JUMP JUMPDEST SWAP3 POP DUP3 DUP3 ADD SWAP1 POP DUP1 DUP3 GT ISZERO PUSH2 0x415 JUMPI PUSH2 0x414 PUSH2 0x2DF JUMP JUMPDEST JUMPDEST SWAP3 SWAP2 POP POP JUMP JUMPDEST PUSH1 0x0 PUSH2 0x426 DUP3 PUSH2 0x1CA JUMP JUMPDEST SWAP2 POP PUSH2 0x431 DUP4 PUSH2 0x1CA JUMP JUMPDEST SWAP3 POP DUP3 DUP3 MUL PUSH2 0x43F DUP2 PUSH2 0x1CA JUMP JUMPDEST SWAP2 POP DUP3 DUP3 DIV DUP5 EQ DUP4 ISZERO OR PUSH2 0x456 JUMPI PUSH2 0x455 PUSH2 0x2DF JUMP JUMPDEST JUMPDEST POP SWAP3 SWAP2 POP POP JUMP INVALID LOG2 PUSH5 0x6970667358 0x22 SLT KECCAK256 0xCC 0xCB 0x4D RETURN 0xE 0xC8 LOG1 PUSH7 0x96495C997E06E8 CODESIZE 0xC1 0xE2 PUSH21 0x9780BC6F12B6B44A5162B5881164736F6C63430008 SLT STOP CALLER "
				},
				"gasEstimates": {
					"creation": {
						"codeDepositCost": "234200",
						"executionCost": "275",
						"totalCost": "234475"
					},
					"external": {
						"checkArmstrong(uint256)": "infinite"
					},
					"internal": {
						"calculateNum(uint256,uint256)": "infinite",
						"calculatepower(uint256,uint256)": "infinite",
						"digitCalculate(uint256)": "infinite"
					}
				},
				"methodIdentifiers": {
					"checkArmstrong(uint256)": "b6e12936"
				}
			},
			"storageLayout": {
				"storage": [],
				"types": null
			},
			"userdoc": {
				"kind": "user",
				"methods": {},
				"version": 1
			}
		}
	}
}