{
  "contractName": "VotingContract",
  "abi": [
    {
      "inputs": [],
      "stateMutability": "nonpayable",
      "type": "constructor"
    },
    {
      "inputs": [
        {
          "internalType": "uint256",
          "name": "",
          "type": "uint256"
        }
      ],
      "name": "CandidateDetails",
      "outputs": [
        {
          "internalType": "string",
          "name": "name",
          "type": "string"
        },
        {
          "internalType": "uint256",
          "name": "age",
          "type": "uint256"
        },
        {
          "internalType": "string",
          "name": "party",
          "type": "string"
        },
        {
          "internalType": "uint256",
          "name": "candidateID",
          "type": "uint256"
        },
        {
          "internalType": "string",
          "name": "gender",
          "type": "string"
        },
        {
          "internalType": "address",
          "name": "candidateAddress",
          "type": "address"
        },
        {
          "internalType": "uint256",
          "name": "votes",
          "type": "uint256"
        }
      ],
      "stateMutability": "view",
      "type": "function",
      "constant": true
    },
    {
      "inputs": [
        {
          "internalType": "uint256",
          "name": "",
          "type": "uint256"
        }
      ],
      "name": "VoterDetails",
      "outputs": [
        {
          "internalType": "string",
          "name": "name",
          "type": "string"
        },
        {
          "internalType": "uint256",
          "name": "age",
          "type": "uint256"
        },
        {
          "internalType": "uint256",
          "name": "voterID",
          "type": "uint256"
        },
        {
          "internalType": "string",
          "name": "gender",
          "type": "string"
        },
        {
          "internalType": "uint256",
          "name": "voteCandidateID",
          "type": "uint256"
        },
        {
          "internalType": "address",
          "name": "voterAddress",
          "type": "address"
        }
      ],
      "stateMutability": "view",
      "type": "function",
      "constant": true
    },
    {
      "inputs": [],
      "name": "winner",
      "outputs": [
        {
          "internalType": "address",
          "name": "",
          "type": "address"
        }
      ],
      "stateMutability": "view",
      "type": "function",
      "constant": true
    },
    {
      "inputs": [
        {
          "internalType": "string",
          "name": "_name",
          "type": "string"
        },
        {
          "internalType": "uint256",
          "name": "_age",
          "type": "uint256"
        },
        {
          "internalType": "string",
          "name": "_party",
          "type": "string"
        },
        {
          "internalType": "string",
          "name": "_gender",
          "type": "string"
        }
      ],
      "name": "candidateRegister",
      "outputs": [],
      "stateMutability": "nonpayable",
      "type": "function"
    },
    {
      "inputs": [
        {
          "internalType": "uint256",
          "name": "_registrationStart",
          "type": "uint256"
        },
        {
          "internalType": "uint256",
          "name": "_registrationStop",
          "type": "uint256"
        }
      ],
      "name": "candidateRegistrationSet",
      "outputs": [],
      "stateMutability": "nonpayable",
      "type": "function"
    },
    {
      "inputs": [
        {
          "internalType": "string",
          "name": "_name",
          "type": "string"
        },
        {
          "internalType": "uint256",
          "name": "_age",
          "type": "uint256"
        },
        {
          "internalType": "string",
          "name": "_gender",
          "type": "string"
        }
      ],
      "name": "voterRegistration",
      "outputs": [],
      "stateMutability": "nonpayable",
      "type": "function"
    },
    {
      "inputs": [
        {
          "internalType": "uint256",
          "name": "_registrationStart",
          "type": "uint256"
        },
        {
          "internalType": "uint256",
          "name": "_registrationStop",
          "type": "uint256"
        }
      ],
      "name": "voterRegistrationSet",
      "outputs": [],
      "stateMutability": "nonpayable",
      "type": "function"
    },
    {
      "inputs": [
        {
          "internalType": "uint256",
          "name": "_startTime",
          "type": "uint256"
        },
        {
          "internalType": "uint256",
          "name": "_endTime",
          "type": "uint256"
        }
      ],
      "name": "votingPeriodSet",
      "outputs": [],
      "stateMutability": "nonpayable",
      "type": "function"
    },
    {
      "inputs": [],
      "name": "voterList",
      "outputs": [
        {
          "components": [
            {
              "internalType": "string",
              "name": "name",
              "type": "string"
            },
            {
              "internalType": "uint256",
              "name": "age",
              "type": "uint256"
            },
            {
              "internalType": "uint256",
              "name": "voterID",
              "type": "uint256"
            },
            {
              "internalType": "string",
              "name": "gender",
              "type": "string"
            },
            {
              "internalType": "uint256",
              "name": "voteCandidateID",
              "type": "uint256"
            },
            {
              "internalType": "address",
              "name": "voterAddress",
              "type": "address"
            }
          ],
          "internalType": "struct VotingContract.Voter[]",
          "name": "",
          "type": "tuple[]"
        }
      ],
      "stateMutability": "view",
      "type": "function",
      "constant": true
    },
    {
      "inputs": [],
      "name": "candidateList",
      "outputs": [
        {
          "components": [
            {
              "internalType": "string",
              "name": "name",
              "type": "string"
            },
            {
              "internalType": "uint256",
              "name": "age",
              "type": "uint256"
            },
            {
              "internalType": "string",
              "name": "party",
              "type": "string"
            },
            {
              "internalType": "uint256",
              "name": "candidateID",
              "type": "uint256"
            },
            {
              "internalType": "string",
              "name": "gender",
              "type": "string"
            },
            {
              "internalType": "address",
              "name": "candidateAddress",
              "type": "address"
            },
            {
              "internalType": "uint256",
              "name": "votes",
              "type": "uint256"
            }
          ],
          "internalType": "struct VotingContract.Candidate[]",
          "name": "",
          "type": "tuple[]"
        }
      ],
      "stateMutability": "view",
      "type": "function",
      "constant": true
    },
    {
      "inputs": [
        {
          "internalType": "uint256",
          "name": "_voterID",
          "type": "uint256"
        },
        {
          "internalType": "uint256",
          "name": "_ID",
          "type": "uint256"
        }
      ],
      "name": "vote",
      "outputs": [],
      "stateMutability": "nonpayable",
      "type": "function"
    },
    {
      "inputs": [],
      "name": "selectWinner",
      "outputs": [
        {
          "internalType": "address",
          "name": "",
          "type": "address"
        }
      ],
      "stateMutability": "nonpayable",
      "type": "function"
    }
  ],
  "bytecode": "0x60806040526000600260006101000a81548160ff0219169083151502179055506000600560006101000a81548160ff0219169083151502179055506000600860006101000a81548160ff0219169083151502179055506001600d556001600e556000600f60006101000a81548160ff0219169083151502179055503480156200008757600080fd5b5033600b60006101000a81548173ffffffffffffffffffffffffffffffffffffffff021916908373ffffffffffffffffffffffffffffffffffffffff1602179055506040518060c001604052806040518060400160405280600281526020017f4543000000000000000000000000000000000000000000000000000000000000815250815260200160148152602001600d5481526020016040518060400160405280600481526020017f4d616c6500000000000000000000000000000000000000000000000000000000815250815260200160008152602001600b60009054906101000a900473ffffffffffffffffffffffffffffffffffffffff1673ffffffffffffffffffffffffffffffffffffffff16815250600a6000600d5481526020019081526020016000206000820151816000019080519060200190620001cf92919062000277565b50602082015181600101556040820151816002015560608201518160030190805190602001906200020292919062000277565b506080820151816004015560a08201518160050160006101000a81548173ffffffffffffffffffffffffffffffffffffffff021916908373ffffffffffffffffffffffffffffffffffffffff160217905550905050600d60008154809291906200026c9062000360565b919050555062000411565b8280546200028590620003dc565b90600052602060002090601f016020900481019282620002a95760008555620002f5565b82601f10620002c457805160ff1916838001178555620002f5565b82800160010185558215620002f5579182015b82811115620002f4578251825591602001919060010190620002d7565b5b50905062000304919062000308565b5090565b5b808211156200032357600081600090555060010162000309565b5090565b7f4e487b7100000000000000000000000000000000000000000000000000000000600052601160045260246000fd5b6000819050919050565b60006200036d8262000356565b91507fffffffffffffffffffffffffffffffffffffffffffffffffffffffffffffffff8203620003a257620003a162000327565b5b600182019050919050565b7f4e487b7100000000000000000000000000000000000000000000000000000000600052602260045260246000fd5b60006002820490506001821680620003f557607f821691505b6020821081036200040b576200040a620003ad565b5b50919050565b6130b480620004216000396000f3fe608060405234801561001057600080fd5b50600436106100b45760003560e01c80636d2bc1eb116100715780636d2bc1eb146101675780637da0e15e1461019d578063b384abef146101d2578063c0636b91146101ee578063dfbf53ae1461020a578063f83f40db14610228576100b4565b806324089918146100b957806333a99e04146100d7578063498ea441146100f55780635042746c146101135780635d74b0231461012f57806369042bec1461014b575b600080fd5b6100c1610244565b6040516100ce919061202b565b60405180910390f35b6100df6104b8565b6040516100ec919061205c565b60405180910390f35b6100fd6106ee565b60405161010a91906121e3565b60405180910390f35b61012d60048036038101906101289190612245565b6109f4565b005b610149600480360381019061014491906123ba565b610b1f565b005b610165600480360381019061016091906124a5565b610d80565b005b610181600480360381019061017c9190612565565b611233565b60405161019497969594939291906125eb565b60405180910390f35b6101b760048036038101906101b29190612565565b61142d565b6040516101c99695949392919061266f565b60405180910390f35b6101ec60048036038101906101e79190612245565b611599565b005b61020860048036038101906102039190612245565b6117c1565b005b610212611908565b60405161021f919061205c565b60405180910390f35b610242600480360381019061023d9190612245565b61192e565b005b606060006001600d54610257919061270d565b67ffffffffffffffff8111156102705761026f61228f565b5b6040519080825280602002602001820160405280156102a957816020015b610296611ca4565b81526020019060019003908161028e5790505b5090506000600190505b600d548110156104b057600a60008281526020019081526020016000206040518060c00160405290816000820180546102eb90612770565b80601f016020809104026020016040519081016040528092919081815260200182805461031790612770565b80156103645780601f1061033957610100808354040283529160200191610364565b820191906000526020600020905b81548152906001019060200180831161034757829003601f168201915b50505050508152602001600182015481526020016002820154815260200160038201805461039190612770565b80601f01602080910402602001604051908101604052809291908181526020018280546103bd90612770565b801561040a5780601f106103df5761010080835404028352916020019161040a565b820191906000526020600020905b8154815290600101906020018083116103ed57829003601f168201915b50505050508152602001600482015481526020016005820160009054906101000a900473ffffffffffffffffffffffffffffffffffffffff1673ffffffffffffffffffffffffffffffffffffffff1673ffffffffffffffffffffffffffffffffffffffff168152505082600183610481919061270d565b81518110610492576104916127a1565b5b602002602001018190525080806104a8906127d0565b9150506102b3565b508091505090565b6000600b60009054906101000a900473ffffffffffffffffffffffffffffffffffffffff1673ffffffffffffffffffffffffffffffffffffffff163373ffffffffffffffffffffffffffffffffffffffff161461054a576040517f08c379a00000000000000000000000000000000000000000000000000000000081526004016105419061288a565b60405180910390fd5b6001544211801561055e5750600060015414155b61059d576040517f08c379a00000000000000000000000000000000000000000000000000000000081526004016105949061291c565b60405180910390fd5b600754421180156105b15750600060075414155b6105f0576040517f08c379a00000000000000000000000000000000000000000000000000000000081526004016105e7906129ae565b60405180910390fd5b600080600190505b600e548110156106c45781600960008381526020019081526020016000206006015411156106b157600960008281526020019081526020016000206006015491506009600082815260200190815260200160002060050160009054906101000a900473ffffffffffffffffffffffffffffffffffffffff16600c60006101000a81548173ffffffffffffffffffffffffffffffffffffffff021916908373ffffffffffffffffffffffffffffffffffffffff1602179055505b80806106bc906127d0565b9150506105f8565b50600c60009054906101000a900473ffffffffffffffffffffffffffffffffffffffff1691505090565b606060006001600e54610701919061270d565b67ffffffffffffffff81111561071a5761071961228f565b5b60405190808252806020026020018201604052801561075357816020015b610740611cf0565b8152602001906001900390816107385790505b5090506000600190505b600e548110156109ec57600960008281526020019081526020016000206040518060e001604052908160008201805461079590612770565b80601f01602080910402602001604051908101604052809291908181526020018280546107c190612770565b801561080e5780601f106107e35761010080835404028352916020019161080e565b820191906000526020600020905b8154815290600101906020018083116107f157829003601f168201915b505050505081526020016001820154815260200160028201805461083190612770565b80601f016020809104026020016040519081016040528092919081815260200182805461085d90612770565b80156108aa5780601f1061087f576101008083540402835291602001916108aa565b820191906000526020600020905b81548152906001019060200180831161088d57829003601f168201915b50505050508152602001600382015481526020016004820180546108cd90612770565b80601f01602080910402602001604051908101604052809291908181526020018280546108f990612770565b80156109465780601f1061091b57610100808354040283529160200191610946565b820191906000526020600020905b81548152906001019060200180831161092957829003601f168201915b505050505081526020016005820160009054906101000a900473ffffffffffffffffffffffffffffffffffffffff1673ffffffffffffffffffffffffffffffffffffffff1673ffffffffffffffffffffffffffffffffffffffff168152602001600682015481525050826001836109bd919061270d565b815181106109ce576109cd6127a1565b5b602002602001018190525080806109e4906127d0565b91505061075d565b508091505090565b600b60009054906101000a900473ffffffffffffffffffffffffffffffffffffffff1673ffffffffffffffffffffffffffffffffffffffff163373ffffffffffffffffffffffffffffffffffffffff1614610a84576040517f08c379a0000000000000000000000000000000000000000000000000000000008152600401610a7b9061288a565b60405180910390fd5b60001515600860009054906101000a900460ff16151514610ada576040517f08c379a0000000000000000000000000000000000000000000000000000000008152600401610ad190612a1a565b60405180910390fd5b6001600560006101000a81548160ff0219169083151502179055508142610b019190612a3a565b60038190555080600354610b159190612a3a565b6004819055505050565b610b27611a59565b60011515600560009054906101000a900460ff16151514610b7d576040517f08c379a0000000000000000000000000000000000000000000000000000000008152600401610b7490612adc565b60405180910390fd5b60001515600860009054906101000a900460ff16151514610bd3576040517f08c379a0000000000000000000000000000000000000000000000000000000008152600401610bca90612a1a565b60405180910390fd5b6012821015610c17576040517f08c379a0000000000000000000000000000000000000000000000000000000008152600401610c0e90612b48565b60405180910390fd5b60011515610c2433611a81565b151514610c66576040517f08c379a0000000000000000000000000000000000000000000000000000000008152600401610c5d90612bb4565b60405180910390fd5b6040518060c00160405280848152602001838152602001600d548152602001828152602001600081526020013373ffffffffffffffffffffffffffffffffffffffff16815250600a6000600d5481526020019081526020016000206000820151816000019080519060200190610cdd929190611d43565b5060208201518160010155604082015181600201556060820151816003019080519060200190610d0e929190611d43565b506080820151816004015560a08201518160050160006101000a81548173ffffffffffffffffffffffffffffffffffffffff021916908373ffffffffffffffffffffffffffffffffffffffff160217905550905050600d6000815480929190610d76906127d0565b9190505550505050565b610d88611bd9565b60011515600260009054906101000a900460ff16151514610dde576040517f08c379a0000000000000000000000000000000000000000000000000000000008152600401610dd590612c20565b60405180910390fd5b60001515600860009054906101000a900460ff16151514610e34576040517f08c379a0000000000000000000000000000000000000000000000000000000008152600401610e2b90612a1a565b60405180910390fd5b600b60009054906101000a900473ffffffffffffffffffffffffffffffffffffffff1673ffffffffffffffffffffffffffffffffffffffff163373ffffffffffffffffffffffffffffffffffffffff1603610ec4576040517f08c379a0000000000000000000000000000000000000000000000000000000008152600401610ebb90612c8c565b60405180910390fd5b6012831015610f08576040517f08c379a0000000000000000000000000000000000000000000000000000000008152600401610eff90612b48565b60405180910390fd5b60011515610f1533611c01565b151514610f57576040517f08c379a0000000000000000000000000000000000000000000000000000000008152600401610f4e90612bb4565b60405180910390fd5b6040518060e0016040528086868080601f016020809104026020016040519081016040528093929190818152602001838380828437600081840152601f19601f820116905080830192505050505050508152602001848152602001838152602001600e5481526020018281526020013373ffffffffffffffffffffffffffffffffffffffff168152602001600081525060096000600e5481526020019081526020016000206000820151816000019080519060200190611018929190611d43565b5060208201518160010155604082015181600201908051906020019061103f929190611d43565b50606082015181600301556080820151816004019080519060200190611066929190611d43565b5060a08201518160050160006101000a81548173ffffffffffffffffffffffffffffffffffffffff021916908373ffffffffffffffffffffffffffffffffffffffff16021790555060c08201518160060155905050600e60008154809291906110ce906127d0565b91905055506040518060c0016040528086868080601f016020809104026020016040519081016040528093929190818152602001838380828437600081840152601f19601f820116905080830192505050505050508152602001848152602001600d548152602001828152602001600081526020013373ffffffffffffffffffffffffffffffffffffffff16815250600a6000600d548152602001908152602001600020600082015181600001908051906020019061118e929190611d43565b50602082015181600101556040820151816002015560608201518160030190805190602001906111bf929190611d43565b506080820151816004015560a08201518160050160006101000a81548173ffffffffffffffffffffffffffffffffffffffff021916908373ffffffffffffffffffffffffffffffffffffffff160217905550905050600d6000815480929190611227906127d0565b91905055505050505050565b600960205280600052604060002060009150905080600001805461125690612770565b80601f016020809104026020016040519081016040528092919081815260200182805461128290612770565b80156112cf5780601f106112a4576101008083540402835291602001916112cf565b820191906000526020600020905b8154815290600101906020018083116112b257829003601f168201915b5050505050908060010154908060020180546112ea90612770565b80601f016020809104026020016040519081016040528092919081815260200182805461131690612770565b80156113635780601f1061133857610100808354040283529160200191611363565b820191906000526020600020905b81548152906001019060200180831161134657829003601f168201915b50505050509080600301549080600401805461137e90612770565b80601f01602080910402602001604051908101604052809291908181526020018280546113aa90612770565b80156113f75780601f106113cc576101008083540402835291602001916113f7565b820191906000526020600020905b8154815290600101906020018083116113da57829003601f168201915b5050505050908060050160009054906101000a900473ffffffffffffffffffffffffffffffffffffffff16908060060154905087565b600a60205280600052604060002060009150905080600001805461145090612770565b80601f016020809104026020016040519081016040528092919081815260200182805461147c90612770565b80156114c95780601f1061149e576101008083540402835291602001916114c9565b820191906000526020600020905b8154815290600101906020018083116114ac57829003601f168201915b5050505050908060010154908060020154908060030180546114ea90612770565b80601f016020809104026020016040519081016040528092919081815260200182805461151690612770565b80156115635780601f1061153857610100808354040283529160200191611563565b820191906000526020600020905b81548152906001019060200180831161154657829003601f168201915b5050505050908060040154908060050160009054906101000a900473ffffffffffffffffffffffffffffffffffffffff16905086565b6000600a600084815260200190815260200160002060040154146115f2576040517f08c379a00000000000000000000000000000000000000000000000000000000081526004016115e990612cf8565b60405180910390fd5b3373ffffffffffffffffffffffffffffffffffffffff16600a600084815260200190815260200160002060050160009054906101000a900473ffffffffffffffffffffffffffffffffffffffff1673ffffffffffffffffffffffffffffffffffffffff1614611696576040517f08c379a000000000000000000000000000000000000000000000000000000000815260040161168d90612d64565b60405180910390fd5b6003600e5410156116dc576040517f08c379a00000000000000000000000000000000000000000000000000000000081526004016116d390612df6565b60405180910390fd5b600060065403611721576040517f08c379a000000000000000000000000000000000000000000000000000000000815260040161171890612e62565b60405180910390fd5b600e548110611765576040517f08c379a000000000000000000000000000000000000000000000000000000000815260040161175c90612ece565b60405180910390fd5b80600a600084815260200190815260200160002060040181905550600160096000838152602001908152602001600020600601546117a39190612a3a565b60096000838152602001908152602001600020600601819055505050565b6117c9611bd9565b6117d1611a59565b6003600e541015611817576040517f08c379a000000000000000000000000000000000000000000000000000000000815260040161180e90612f60565b60405180910390fd5b60001515600260009054906101000a900460ff1615151461186d576040517f08c379a000000000000000000000000000000000000000000000000000000000815260040161186490612ff2565b60405180910390fd5b60001515600560009054906101000a900460ff161515146118c3576040517f08c379a00000000000000000000000000000000000000000000000000000000081526004016118ba9061305e565b60405180910390fd5b6001600860006101000a81548160ff02191690831515021790555081426118ea9190612a3a565b600681905550806006546118fe9190612a3a565b6007819055505050565b600c60009054906101000a900473ffffffffffffffffffffffffffffffffffffffff1681565b600b60009054906101000a900473ffffffffffffffffffffffffffffffffffffffff1673ffffffffffffffffffffffffffffffffffffffff163373ffffffffffffffffffffffffffffffffffffffff16146119be576040517f08c379a00000000000000000000000000000000000000000000000000000000081526004016119b59061288a565b60405180910390fd5b60001515600860009054906101000a900460ff16151514611a14576040517f08c379a0000000000000000000000000000000000000000000000000000000008152600401611a0b90612a1a565b60405180910390fd5b6001600260006101000a81548160ff0219169083151502179055508142611a3b9190612a3a565b60008190555080600054611a4f9190612a3a565b6001819055505050565b426004541015611a7f576000600560006101000a81548160ff0219169083151502179055505b565b6000611a8b611a59565b60011515600560009054906101000a900460ff16151514611ae1576040517f08c379a0000000000000000000000000000000000000000000000000000000008152600401611ad890612adc565b60405180910390fd5b60001515600860009054906101000a900460ff16151514611b37576040517f08c379a0000000000000000000000000000000000000000000000000000000008152600401611b2e90612a1a565b60405180910390fd5b6000600190505b600d54811015611bce578273ffffffffffffffffffffffffffffffffffffffff16600a600083815260200190815260200160002060050160009054906101000a900473ffffffffffffffffffffffffffffffffffffffff1673ffffffffffffffffffffffffffffffffffffffff1603611bbb576000915050611bd4565b8080611bc6906127d0565b915050611b3e565b50600190505b919050565b426001541015611bff576000600260006101000a81548160ff0219169083151502179055505b565b600080600190505b600e54811015611c99578273ffffffffffffffffffffffffffffffffffffffff166009600083815260200190815260200160002060050160009054906101000a900473ffffffffffffffffffffffffffffffffffffffff1673ffffffffffffffffffffffffffffffffffffffff1603611c86576000915050611c9f565b8080611c91906127d0565b915050611c09565b50600190505b919050565b6040518060c001604052806060815260200160008152602001600081526020016060815260200160008152602001600073ffffffffffffffffffffffffffffffffffffffff1681525090565b6040518060e001604052806060815260200160008152602001606081526020016000815260200160608152602001600073ffffffffffffffffffffffffffffffffffffffff168152602001600081525090565b828054611d4f90612770565b90600052602060002090601f016020900481019282611d715760008555611db8565b82601f10611d8a57805160ff1916838001178555611db8565b82800160010185558215611db8579182015b82811115611db7578251825591602001919060010190611d9c565b5b509050611dc59190611dc9565b5090565b5b80821115611de2576000816000905550600101611dca565b5090565b600081519050919050565b600082825260208201905092915050565b6000819050602082019050919050565b600081519050919050565b600082825260208201905092915050565b60005b83811015611e4c578082015181840152602081019050611e31565b83811115611e5b576000848401525b50505050565b6000601f19601f8301169050919050565b6000611e7d82611e12565b611e878185611e1d565b9350611e97818560208601611e2e565b611ea081611e61565b840191505092915050565b6000819050919050565b611ebe81611eab565b82525050565b600073ffffffffffffffffffffffffffffffffffffffff82169050919050565b6000611eef82611ec4565b9050919050565b611eff81611ee4565b82525050565b600060c0830160008301518482036000860152611f228282611e72565b9150506020830151611f376020860182611eb5565b506040830151611f4a6040860182611eb5565b5060608301518482036060860152611f628282611e72565b9150506080830151611f776080860182611eb5565b5060a0830151611f8a60a0860182611ef6565b508091505092915050565b6000611fa18383611f05565b905092915050565b6000602082019050919050565b6000611fc182611de6565b611fcb8185611df1565b935083602082028501611fdd85611e02565b8060005b858110156120195784840389528151611ffa8582611f95565b945061200583611fa9565b925060208a01995050600181019050611fe1565b50829750879550505050505092915050565b600060208201905081810360008301526120458184611fb6565b905092915050565b61205681611ee4565b82525050565b6000602082019050612071600083018461204d565b92915050565b600081519050919050565b600082825260208201905092915050565b6000819050602082019050919050565b600060e08301600083015184820360008601526120c08282611e72565b91505060208301516120d56020860182611eb5565b50604083015184820360408601526120ed8282611e72565b91505060608301516121026060860182611eb5565b506080830151848203608086015261211a8282611e72565b91505060a083015161212f60a0860182611ef6565b5060c083015161214260c0860182611eb5565b508091505092915050565b600061215983836120a3565b905092915050565b6000602082019050919050565b600061217982612077565b6121838185612082565b93508360208202850161219585612093565b8060005b858110156121d157848403895281516121b2858261214d565b94506121bd83612161565b925060208a01995050600181019050612199565b50829750879550505050505092915050565b600060208201905081810360008301526121fd818461216e565b905092915050565b6000604051905090565b600080fd5b600080fd5b61222281611eab565b811461222d57600080fd5b50565b60008135905061223f81612219565b92915050565b6000806040838503121561225c5761225b61220f565b5b600061226a85828601612230565b925050602061227b85828601612230565b9150509250929050565b600080fd5b600080fd5b7f4e487b7100000000000000000000000000000000000000000000000000000000600052604160045260246000fd5b6122c782611e61565b810181811067ffffffffffffffff821117156122e6576122e561228f565b5b80604052505050565b60006122f9612205565b905061230582826122be565b919050565b600067ffffffffffffffff8211156123255761232461228f565b5b61232e82611e61565b9050602081019050919050565b82818337600083830152505050565b600061235d6123588461230a565b6122ef565b9050828152602081018484840111156123795761237861228a565b5b61238484828561233b565b509392505050565b600082601f8301126123a1576123a0612285565b5b81356123b184826020860161234a565b91505092915050565b6000806000606084860312156123d3576123d261220f565b5b600084013567ffffffffffffffff8111156123f1576123f0612214565b5b6123fd8682870161238c565b935050602061240e86828701612230565b925050604084013567ffffffffffffffff81111561242f5761242e612214565b5b61243b8682870161238c565b9150509250925092565b600080fd5b600080fd5b60008083601f84011261246557612464612285565b5b8235905067ffffffffffffffff81111561248257612481612445565b5b60208301915083600182028301111561249e5761249d61244a565b5b9250929050565b6000806000806000608086880312156124c1576124c061220f565b5b600086013567ffffffffffffffff8111156124df576124de612214565b5b6124eb8882890161244f565b955095505060206124fe88828901612230565b935050604086013567ffffffffffffffff81111561251f5761251e612214565b5b61252b8882890161238c565b925050606086013567ffffffffffffffff81111561254c5761254b612214565b5b6125588882890161238c565b9150509295509295909350565b60006020828403121561257b5761257a61220f565b5b600061258984828501612230565b91505092915050565b600082825260208201905092915050565b60006125ae82611e12565b6125b88185612592565b93506125c8818560208601611e2e565b6125d181611e61565b840191505092915050565b6125e581611eab565b82525050565b600060e0820190508181036000830152612605818a6125a3565b905061261460208301896125dc565b818103604083015261262681886125a3565b905061263560608301876125dc565b818103608083015261264781866125a3565b905061265660a083018561204d565b61266360c08301846125dc565b98975050505050505050565b600060c082019050818103600083015261268981896125a3565b905061269860208301886125dc565b6126a560408301876125dc565b81810360608301526126b781866125a3565b90506126c660808301856125dc565b6126d360a083018461204d565b979650505050505050565b7f4e487b7100000000000000000000000000000000000000000000000000000000600052601160045260246000fd5b600061271882611eab565b915061272383611eab565b925082821015612736576127356126de565b5b828203905092915050565b7f4e487b7100000000000000000000000000000000000000000000000000000000600052602260045260246000fd5b6000600282049050600182168061278857607f821691505b60208210810361279b5761279a612741565b5b50919050565b7f4e487b7100000000000000000000000000000000000000000000000000000000600052603260045260246000fd5b60006127db82611eab565b91507fffffffffffffffffffffffffffffffffffffffffffffffffffffffffffffffff820361280d5761280c6126de565b5b600182019050919050565b7f596f7520617265206e6f742066726f6d20656c656374696f6e20636f6d69737360008201527f696f6e0000000000000000000000000000000000000000000000000000000000602082015250565b6000612874602383612592565b915061287f82612818565b604082019050919050565b600060208201905081810360008301526128a381612867565b9050919050565b7f43616e64696461746520726567697374726174696f6e2070686173652069732060008201527f6e6f7420636c6f73656400000000000000000000000000000000000000000000602082015250565b6000612906602a83612592565b9150612911826128aa565b604082019050919050565b60006020820190508181036000830152612935816128f9565b9050919050565b7f566f74696e6720697320696e20636f6e64756374696f6e20706861736520697360008201527f206e6f7420636c6f736564000000000000000000000000000000000000000000602082015250565b6000612998602b83612592565b91506129a38261293c565b604082019050919050565b600060208201905081810360008301526129c78161298b565b9050919050565b7f566f74696e67206973206f6e676f696e67000000000000000000000000000000600082015250565b6000612a04601183612592565b9150612a0f826129ce565b602082019050919050565b60006020820190508181036000830152612a33816129f7565b9050919050565b6000612a4582611eab565b9150612a5083611eab565b9250827fffffffffffffffffffffffffffffffffffffffffffffffffffffffffffffffff03821115612a8557612a846126de565b5b828201905092915050565b7f566f74657220726567697374726174696f6e20697320636c6f73656400000000600082015250565b6000612ac6601c83612592565b9150612ad182612a90565b602082019050919050565b60006020820190508181036000830152612af581612ab9565b9050919050565b7f596f75612061726520756e646572206167650000000000000000000000000000600082015250565b6000612b32601283612592565b9150612b3d82612afc565b602082019050919050565b60006020820190508181036000830152612b6181612b25565b9050919050565b7f416c726561647920726567697374657264000000000000000000000000000000600082015250565b6000612b9e601183612592565b9150612ba982612b68565b602082019050919050565b60006020820190508181036000830152612bcd81612b91565b9050919050565b7f43616e64696461746520526567697374726174696f6e20697320636c6f736564600082015250565b6000612c0a602083612592565b9150612c1582612bd4565b602082019050919050565b60006020820190508181036000830152612c3981612bfd565b9050919050565b7f596f75206172652066726f6d20656c656374696f6e20636f6d697373696f6e00600082015250565b6000612c76601f83612592565b9150612c8182612c40565b602082019050919050565b60006020820190508181036000830152612ca581612c69565b9050919050565b7f596f75206861766520766f746564000000000000000000000000000000000000600082015250565b6000612ce2600e83612592565b9150612ced82612cac565b602082019050919050565b60006020820190508181036000830152612d1181612cd5565b9050919050565b7f596f752063616e7420766f74652066726f6d206f746865727320626568616c66600082015250565b6000612d4e602083612592565b9150612d5982612d18565b602082019050919050565b60006020820190508181036000830152612d7d81612d41565b9050919050565b7f43616e6469646174657320617265206e6f74207265676973746572656420636f60008201527f6d706c6574656c79000000000000000000000000000000000000000000000000602082015250565b6000612de0602883612592565b9150612deb82612d84565b604082019050919050565b60006020820190508181036000830152612e0f81612dd3565b9050919050565b7f566f74696e67206973206e6f7420737461727465640000000000000000000000600082015250565b6000612e4c601583612592565b9150612e5782612e16565b602082019050919050565b60006020820190508181036000830152612e7b81612e3f565b9050919050565b7f43616e64696461746520646f6573206e6f742065786973740000000000000000600082015250565b6000612eb8601883612592565b9150612ec382612e82565b602082019050919050565b60006020820190508181036000830152612ee781612eab565b9050919050565b7f52657175697265642063616e646964617465732061726520696e73756666696360008201527f69656e7400000000000000000000000000000000000000000000000000000000602082015250565b6000612f4a602483612592565b9150612f5582612eee565b604082019050919050565b60006020820190508181036000830152612f7981612f3d565b9050919050565b7f43616e64696461746520726567697374726174696f6e20697320676f696e672060008201527f6f6e000000000000000000000000000000000000000000000000000000000000602082015250565b6000612fdc602283612592565b9150612fe782612f80565b604082019050919050565b6000602082019050818103600083015261300b81612fcf565b9050919050565b7f766f74657220726567697374726174696f6e20697320676f696e67206f6e0000600082015250565b6000613048601e83612592565b915061305382613012565b602082019050919050565b600060208201905081810360008301526130778161303b565b905091905056fea26469706673582212207e673ef7ed6e8007f0239c28edf8da0a4130a6cd404c6631de03a460efabb90064736f6c634300080d0033",
  "immutableReferences": {},
  "source": "//SPDX-License-Identifier: UNLICENSED\r\npragma solidity >=0.7.0 < 0.9.0;\r\ncontract VotingContract{\r\n    struct Voter{\r\n        string name;\r\n        uint age;\r\n        uint voterID;\r\n        string gender;\r\n        uint voteCandidateID;\r\n        address voterAddress;\r\n    }\r\n\r\n    struct Candidate{\r\n        string name;\r\n        uint age;\r\n        string party;\r\n        uint candidateID;\r\n        string gender;\r\n        address candidateAddress;\r\n        uint votes; \r\n    }\r\n\r\n    // Candidate registration variables\r\n    uint candidate_Registraion_Start;\r\n    uint candidate_Registraion_End;\r\n    bool candidate_Registration_Time = false;\r\n    \r\n    // Voter registration variable\r\n    uint voter_Registraion_Start;\r\n    uint voter_Registraion_End;\r\n    bool voter_Registration_Time = false;\r\n    \r\n    uint voting_Conduction_Start;\r\n    uint voting_Conduction_End;\r\n    bool votingConductionTime = false;\r\n\r\n    // Important mappings\r\n    mapping(uint=>Candidate) public CandidateDetails;\r\n    mapping(uint=>Voter) public VoterDetails;\r\n\r\n    // Election Commsission \r\n    address ElectionComission;\r\n\r\n    // Winner\r\n    address public winner;\r\n\r\n    // Voter ID's\r\n    uint nextVoterID = 1;\r\n\r\n    // Candidate regestration ID's\r\n    uint nextCandidateID = 1;\r\n\r\n    // Emergency voting stop\r\n    bool stopVoting = false;\r\n\r\n    constructor(){\r\n        ElectionComission = msg.sender;\r\n        VoterDetails[nextVoterID] = Voter(\"EC\", 20, nextVoterID, \"Male\", 0, ElectionComission);\r\n        nextVoterID++;\r\n    }\r\n\r\n    modifier onlyElectionComission() {\r\n        require(msg.sender == ElectionComission, \"You are not from election comission\");\r\n        _;\r\n    }\r\n    modifier candidateRegistrationPhase() {\r\n        candidateRegistrationPhaseStatus();\r\n        require(candidate_Registration_Time == true, \"Candidate Registration is closed\");\r\n        require(votingConductionTime==false, \"Voting is ongoing\");\r\n        _;\r\n    }\r\n    modifier  voterRegistrationPhase() {\r\n        voterRegistrationPhaseStatus();\r\n        require(voter_Registration_Time == true, \"Voter registration is closed\");\r\n        require(votingConductionTime==false, \"Voting is ongoing\");\r\n        _;\r\n    }\r\n\r\n    modifier votingConductionPhase(){\r\n        votingPhaseStatus();\r\n        require(votingConductionTime == true, \"voting  is closed\");\r\n        _;\r\n    }\r\n    \r\n    // Candidate Panal\r\n\r\n    // Candidate Register\r\n\r\n    function candidateRegister(\r\n        string calldata _name,\r\n        uint _age,\r\n        string memory _party,\r\n        string memory _gender\r\n    ) public candidateRegistrationPhase() {\r\n        require(msg.sender != ElectionComission, \"You are from election comission\");\r\n        require(_age >= 18, \"Youa are under age\");\r\n        require(candidateVerification(msg.sender) == true, \"Already registerd\");\r\n        CandidateDetails[nextCandidateID] = Candidate(_name, \r\n        _age, \r\n        _party, \r\n        nextCandidateID, \r\n        _gender,\r\n        msg.sender,\r\n        0 );\r\n        nextCandidateID++;\r\n        VoterDetails[nextVoterID] = Voter(_name, _age, nextVoterID, _gender, 0, msg.sender);\r\n        nextVoterID++;\r\n    }\r\n\r\n    // Candidate Verification function\r\n\r\n    function candidateVerification(address _person) internal view returns(bool){\r\n        for(uint i=1; i<nextCandidateID; i++){\r\n           if(CandidateDetails[i].candidateAddress == _person){\r\n               return false;\r\n           }           \r\n        }\r\n        return true;\r\n    }\r\n\r\n    // Setting Candidate time for registering \r\n\r\n    function candidateRegistrationSet(uint _registrationStart, uint _registrationStop) public onlyElectionComission() {\r\n        require(votingConductionTime==false, \"Voting is ongoing\");\r\n        candidate_Registration_Time = true;\r\n        candidate_Registraion_Start = block.timestamp + _registrationStart;\r\n        candidate_Registraion_End = candidate_Registraion_Start + _registrationStop;\r\n    }\r\n\r\n    // Registration Phase status\r\n\r\n    function candidateRegistrationPhaseStatus() private {\r\n        if(candidate_Registraion_End < block.timestamp) {\r\n            candidate_Registration_Time = false;\r\n        }\r\n\r\n    }\r\n\r\n    // Voter Pannel\r\n\r\n    // Voter Registration\r\n\r\n    function voterRegistration(\r\n        string memory _name,\r\n        uint _age,\r\n        string memory _gender\r\n    ) public voterRegistrationPhase() {\r\n        require(_age >= 18, \"Youa are under age\");\r\n        require(voterVerification(msg.sender) == true, \"Already registerd\"); \r\n        VoterDetails[nextVoterID] = Voter(_name, _age, nextVoterID, _gender, 0, msg.sender);\r\n        nextVoterID++;\r\n    }\r\n\r\n    function voterVerification(address _person) internal  voterRegistrationPhase() returns(bool){\r\n        for(uint i=1; i<nextVoterID; i++){\r\n            if(VoterDetails[i].voterAddress == _person){\r\n                return false;\r\n            }\r\n        }\r\n        return true;\r\n    }\r\n\r\n    function voterRegistrationSet(uint _registrationStart, uint _registrationStop) public onlyElectionComission() {\r\n        require(votingConductionTime==false, \"Voting is ongoing\");\r\n        voter_Registration_Time = true;\r\n        voter_Registraion_Start = block.timestamp + _registrationStart;\r\n        voter_Registraion_End = voter_Registraion_Start + _registrationStop;\r\n    }\r\n\r\n    function voterRegistrationPhaseStatus() private {\r\n        if(voter_Registraion_End < block.timestamp) {\r\n            voter_Registration_Time = false;\r\n        }\r\n    }\r\n\r\n    function votingPeriodSet(uint _startTime, uint _endTime) public {\r\n        candidateRegistrationPhaseStatus();\r\n        voterRegistrationPhaseStatus();\r\n        require(nextCandidateID>=3,\"Required candidates are insufficient\");\r\n        require(candidate_Registration_Time == false, \"Candidate registration is going on\");\r\n        require(voter_Registration_Time == false, \"voter registration is going on\");\r\n        votingConductionTime = true;\r\n        voting_Conduction_Start = block.timestamp + _startTime;\r\n        voting_Conduction_End = voting_Conduction_Start + _endTime;\r\n    }\r\n\r\n\r\n    function votingPhaseStatus() private {\r\n        if(voting_Conduction_End < block.timestamp) {\r\n            votingConductionTime = false;\r\n        }\r\n    }\r\n\r\n\r\n    function voterList() public view returns(Voter[] memory){\r\n        Voter[] memory votersList = new Voter[](nextVoterID-1);\r\n        for(uint i=1; i<nextVoterID; i++){\r\n            votersList[i-1] = VoterDetails[i];\r\n        }\r\n        return votersList;\r\n    }\r\n\r\n    function candidateList() public view returns(Candidate[] memory){\r\n        Candidate[] memory candidatesList = new Candidate[](nextCandidateID-1);\r\n        for(uint i=1; i<nextCandidateID; i++){\r\n            candidatesList[i-1] = CandidateDetails[i];\r\n        }\r\n        return candidatesList;\r\n    }\r\n\r\n     function vote(uint _voterID, uint _ID) external {\r\n        require(VoterDetails[_voterID].voteCandidateID ==0, \"You have voted\");\r\n        require(VoterDetails[_voterID].voterAddress == msg.sender, \"You cant vote from others behalf\");\r\n        require(nextCandidateID >= 3, \"Candidates are not registered completely\");\r\n        require(voting_Conduction_Start!=0, \"Voting is not started\");\r\n        require(_ID < nextCandidateID, \"Candidate does not exist\");\r\n        VoterDetails[_voterID].voteCandidateID = _ID;\r\n        CandidateDetails[_ID].votes = CandidateDetails[_ID].votes + 1;\r\n    }\r\n\r\n    function selectWinner() public onlyElectionComission() returns(address){\r\n        require(block.timestamp>candidate_Registraion_End && candidate_Registraion_End !=0,\r\n         \"Candidate registration phase is not closed\");\r\n         require(block.timestamp>voting_Conduction_End && voting_Conduction_End !=0,\r\n         \"Voting is in conduction phase is not closed\");\r\n        uint max =0;\r\n        for(uint i=1; i< nextCandidateID; i++){\r\n            if(CandidateDetails[i].votes > max){\r\n                max = CandidateDetails[i].votes;\r\n                winner = CandidateDetails[i].candidateAddress;\r\n            }\r\n        }\r\n        return winner;\r\n    }\r\n}",
  "sourcePath": "D:\\programing\\Blockchain\\code\\solidity advance\\Voting Contract\\contracts\\myVoting.sol",
  "compiler": {
    "name": "solc",
    "version": "0.8.13+commit.abaa5c0e.Emscripten.clang"
  },
  "schemaVersion": "3.4.15",
  "updatedAt": "2023-09-09T14:39:23.376Z",
  "networkType": "ethereum",
  "devdoc": {
    "kind": "dev",
    "methods": {},
    "version": 1
  },
  "userdoc": {
    "kind": "user",
    "methods": {},
    "version": 1
  }
}