{
  "contractName": "Voting_Contract",
  "abi": [
    {
      "inputs": [],
      "stateMutability": "nonpayable",
      "type": "constructor"
    },
    {
      "inputs": [],
      "name": "winner",
      "outputs": [
        {
          "internalType": "address",
          "name": "",
          "type": "address"
        }
      ],
      "stateMutability": "view",
      "type": "function",
      "constant": true
    },
    {
      "inputs": [
        {
          "internalType": "string",
          "name": "_name",
          "type": "string"
        },
        {
          "internalType": "uint256",
          "name": "_age",
          "type": "uint256"
        },
        {
          "internalType": "string",
          "name": "_party",
          "type": "string"
        },
        {
          "internalType": "string",
          "name": "_gender",
          "type": "string"
        }
      ],
      "name": "candidateRegister",
      "outputs": [],
      "stateMutability": "nonpayable",
      "type": "function"
    },
    {
      "inputs": [],
      "name": "candidateList",
      "outputs": [
        {
          "components": [
            {
              "internalType": "string",
              "name": "name",
              "type": "string"
            },
            {
              "internalType": "uint256",
              "name": "age",
              "type": "uint256"
            },
            {
              "internalType": "string",
              "name": "party",
              "type": "string"
            },
            {
              "internalType": "uint256",
              "name": "candidateID",
              "type": "uint256"
            },
            {
              "internalType": "string",
              "name": "gender",
              "type": "string"
            },
            {
              "internalType": "address",
              "name": "candidateAddress",
              "type": "address"
            },
            {
              "internalType": "uint256",
              "name": "votes",
              "type": "uint256"
            }
          ],
          "internalType": "struct Voting_Contract.candidate[]",
          "name": "",
          "type": "tuple[]"
        }
      ],
      "stateMutability": "view",
      "type": "function",
      "constant": true
    },
    {
      "inputs": [
        {
          "internalType": "string",
          "name": "_name",
          "type": "string"
        },
        {
          "internalType": "uint256",
          "name": "_age",
          "type": "uint256"
        },
        {
          "internalType": "string",
          "name": "_gender",
          "type": "string"
        }
      ],
      "name": "voterRegister",
      "outputs": [],
      "stateMutability": "nonpayable",
      "type": "function"
    },
    {
      "inputs": [],
      "name": "voterList",
      "outputs": [
        {
          "components": [
            {
              "internalType": "string",
              "name": "name",
              "type": "string"
            },
            {
              "internalType": "uint256",
              "name": "age",
              "type": "uint256"
            },
            {
              "internalType": "uint256",
              "name": "voterID",
              "type": "uint256"
            },
            {
              "internalType": "string",
              "name": "gender",
              "type": "string"
            },
            {
              "internalType": "uint256",
              "name": "voteCandidateID",
              "type": "uint256"
            },
            {
              "internalType": "address",
              "name": "voterAddress",
              "type": "address"
            }
          ],
          "internalType": "struct Voting_Contract.voter[]",
          "name": "",
          "type": "tuple[]"
        }
      ],
      "stateMutability": "view",
      "type": "function",
      "constant": true
    },
    {
      "inputs": [
        {
          "internalType": "uint256",
          "name": "_voterID",
          "type": "uint256"
        },
        {
          "internalType": "uint256",
          "name": "_ID",
          "type": "uint256"
        }
      ],
      "name": "vote",
      "outputs": [],
      "stateMutability": "nonpayable",
      "type": "function"
    },
    {
      "inputs": [
        {
          "internalType": "uint256",
          "name": "_startTime",
          "type": "uint256"
        },
        {
          "internalType": "uint256",
          "name": "_endTime",
          "type": "uint256"
        }
      ],
      "name": "votingTimeImmediate",
      "outputs": [],
      "stateMutability": "nonpayable",
      "type": "function"
    },
    {
      "inputs": [],
      "name": "votingStatus",
      "outputs": [
        {
          "internalType": "string",
          "name": "",
          "type": "string"
        },
        {
          "internalType": "bool",
          "name": "",
          "type": "bool"
        }
      ],
      "stateMutability": "view",
      "type": "function",
      "constant": true
    },
    {
      "inputs": [],
      "name": "WinnerDeclaration",
      "outputs": [
        {
          "internalType": "address",
          "name": "",
          "type": "address"
        }
      ],
      "stateMutability": "nonpayable",
      "type": "function"
    }
  ],
  "bytecode": "0x6080604052600160045560016005556000600660006101000a81548160ff02191690831515021790555034801561003557600080fd5b50336000806101000a81548173ffffffffffffffffffffffffffffffffffffffff021916908373ffffffffffffffffffffffffffffffffffffffff160217905550612248806100856000396000f3fe608060405234801561001057600080fd5b50600436106100935760003560e01c806369042bec1161006657806369042bec1461010f57806393e5fed21461012b578063b1fbcd0814610147578063b384abef14610165578063dfbf53ae1461018157610093565b80631436311f1461009857806319f41a40146100b457806324089918146100d3578063498ea441146100f1575b600080fd5b6100b260048036038101906100ad91906114b6565b61019f565b005b6100bc610255565b6040516100ca9291906115aa565b60405180910390f35b6100db610351565b6040516100e891906117c6565b60405180910390f35b6100f96105c5565b6040516101069190611954565b60405180910390f35b610129600480360381019061012491906119db565b6108cb565b005b61014560048036038101906101409190611aa4565b610bf2565b005b61014f610e22565b60405161015c9190611b48565b60405180910390f35b61017f600480360381019061017a91906114b6565b610fb1565b005b6101896111c8565b6040516101969190611b48565b60405180910390f35b60008054906101000a900473ffffffffffffffffffffffffffffffffffffffff1673ffffffffffffffffffffffffffffffffffffffff163373ffffffffffffffffffffffffffffffffffffffff161461022d576040517f08c379a000000000000000000000000000000000000000000000000000000000815260040161022490611bd5565b60405180910390fd5b42826102399190611c24565b600781905550818161024b9190611c24565b6008819055505050565b6060600080600754036102a45760006040518060400160405280601581526020017f566f74696e67206973206e6f7420737461727465640000000000000000000000815250909150915061034d565b426008541180156102c8575060001515600660009054906101000a900460ff161515145b1561030f5760016040518060400160405280601581526020017f566f74696e6720697320696e2070726f67726573730000000000000000000000815250909150915061034d565b60006040518060400160405280600e81526020017f566f74696e67206973206f76657200000000000000000000000000000000000081525090915091505b9091565b6060600060016005546103649190611c7a565b67ffffffffffffffff81111561037d5761037c611cae565b5b6040519080825280602002602001820160405280156103b657816020015b6103a3611334565b81526020019060019003908161039b5790505b5090506000600190505b6005548110156105bd57600360008281526020019081526020016000206040518060c00160405290816000820180546103f890611d0c565b80601f016020809104026020016040519081016040528092919081815260200182805461042490611d0c565b80156104715780601f1061044657610100808354040283529160200191610471565b820191906000526020600020905b81548152906001019060200180831161045457829003601f168201915b50505050508152602001600182015481526020016002820154815260200160038201805461049e90611d0c565b80601f01602080910402602001604051908101604052809291908181526020018280546104ca90611d0c565b80156105175780601f106104ec57610100808354040283529160200191610517565b820191906000526020600020905b8154815290600101906020018083116104fa57829003601f168201915b50505050508152602001600482015481526020016005820160009054906101000a900473ffffffffffffffffffffffffffffffffffffffff1673ffffffffffffffffffffffffffffffffffffffff1673ffffffffffffffffffffffffffffffffffffffff16815250508260018361058e9190611c7a565b8151811061059f5761059e611d3d565b5b602002602001018190525080806105b590611d6c565b9150506103c0565b508091505090565b6060600060016004546105d89190611c7a565b67ffffffffffffffff8111156105f1576105f0611cae565b5b60405190808252806020026020018201604052801561062a57816020015b610617611380565b81526020019060019003908161060f5790505b5090506000600190505b6004548110156108c357600260008281526020019081526020016000206040518060e001604052908160008201805461066c90611d0c565b80601f016020809104026020016040519081016040528092919081815260200182805461069890611d0c565b80156106e55780601f106106ba576101008083540402835291602001916106e5565b820191906000526020600020905b8154815290600101906020018083116106c857829003601f168201915b505050505081526020016001820154815260200160028201805461070890611d0c565b80601f016020809104026020016040519081016040528092919081815260200182805461073490611d0c565b80156107815780601f1061075657610100808354040283529160200191610781565b820191906000526020600020905b81548152906001019060200180831161076457829003601f168201915b50505050508152602001600382015481526020016004820180546107a490611d0c565b80601f01602080910402602001604051908101604052809291908181526020018280546107d090611d0c565b801561081d5780601f106107f25761010080835404028352916020019161081d565b820191906000526020600020905b81548152906001019060200180831161080057829003601f168201915b505050505081526020016005820160009054906101000a900473ffffffffffffffffffffffffffffffffffffffff1673ffffffffffffffffffffffffffffffffffffffff1673ffffffffffffffffffffffffffffffffffffffff168152602001600682015481525050826001836108949190611c7a565b815181106108a5576108a4611d3d565b5b602002602001018190525080806108bb90611d6c565b915050610634565b508091505090565b60008054906101000a900473ffffffffffffffffffffffffffffffffffffffff1673ffffffffffffffffffffffffffffffffffffffff163373ffffffffffffffffffffffffffffffffffffffff1603610959576040517f08c379a000000000000000000000000000000000000000000000000000000000815260040161095090611e00565b60405180910390fd5b610962336111ee565b6109a1576040517f08c379a000000000000000000000000000000000000000000000000000000000815260040161099890611e6c565b60405180910390fd5b60128510156109e5576040517f08c379a00000000000000000000000000000000000000000000000000000000081526004016109dc90611ed8565b60405180910390fd5b6040518060e0016040528088888080601f016020809104026020016040519081016040528093929190818152602001838380828437600081840152601f19601f82011690508083019250505050505050815260200186815260200185858080601f016020809104026020016040519081016040528093929190818152602001838380828437600081840152601f19601f820116905080830192505050505050508152602001600454815260200183838080601f016020809104026020016040519081016040528093929190818152602001838380828437600081840152601f19601f8201169050808301925050505050505081526020013373ffffffffffffffffffffffffffffffffffffffff16815260200160008152506002600060045481526020019081526020016000206000820151816000019080519060200190610b2e9291906113d3565b50602082015181600101556040820151816002019080519060200190610b559291906113d3565b50606082015181600301556080820151816004019080519060200190610b7c9291906113d3565b5060a08201518160050160006101000a81548173ffffffffffffffffffffffffffffffffffffffff021916908373ffffffffffffffffffffffffffffffffffffffff16021790555060c0820151816006015590505060046000815480929190610be490611d6c565b919050555050505050505050565b6012831015610c36576040517f08c379a0000000000000000000000000000000000000000000000000000000008152600401610c2d90611f44565b60405180910390fd5b610c3f33611291565b610c7e576040517f08c379a0000000000000000000000000000000000000000000000000000000008152600401610c7590611fb0565b60405180910390fd5b6040518060c0016040528086868080601f016020809104026020016040519081016040528093929190818152602001838380828437600081840152601f19601f820116905080830192505050505050508152602001848152602001600554815260200183838080601f016020809104026020016040519081016040528093929190818152602001838380828437600081840152601f19601f820116905080830192505050505050508152602001600081526020013373ffffffffffffffffffffffffffffffffffffffff168152506003600060055481526020019081526020016000206000820151816000019080519060200190610d7d9291906113d3565b5060208201518160010155604082015181600201556060820151816003019080519060200190610dae9291906113d3565b506080820151816004015560a08201518160050160006101000a81548173ffffffffffffffffffffffffffffffffffffffff021916908373ffffffffffffffffffffffffffffffffffffffff16021790555090505060056000815480929190610e1690611d6c565b91905055505050505050565b60008060009054906101000a900473ffffffffffffffffffffffffffffffffffffffff1673ffffffffffffffffffffffffffffffffffffffff163373ffffffffffffffffffffffffffffffffffffffff1614610eb3576040517f08c379a0000000000000000000000000000000000000000000000000000000008152600401610eaa90611bd5565b60405180910390fd5b600080600190505b600454811015610f87578160026000838152602001908152602001600020600601541115610f7457600260008281526020019081526020016000206006015491506002600082815260200190815260200160002060050160009054906101000a900473ffffffffffffffffffffffffffffffffffffffff16600160006101000a81548173ffffffffffffffffffffffffffffffffffffffff021916908373ffffffffffffffffffffffffffffffffffffffff1602179055505b8080610f7f90611d6c565b915050610ebb565b50600160009054906101000a900473ffffffffffffffffffffffffffffffffffffffff1691505090565b600060036000848152602001908152602001600020600401541461100a576040517f08c379a00000000000000000000000000000000000000000000000000000000081526004016110019061201c565b60405180910390fd5b3373ffffffffffffffffffffffffffffffffffffffff166003600084815260200190815260200160002060050160009054906101000a900473ffffffffffffffffffffffffffffffffffffffff1673ffffffffffffffffffffffffffffffffffffffff16146110ae576040517f08c379a00000000000000000000000000000000000000000000000000000000081526004016110a590612088565b60405180910390fd5b600360045410156110f4576040517f08c379a00000000000000000000000000000000000000000000000000000000081526004016110eb9061211a565b60405180910390fd5b600060075403611139576040517f08c379a000000000000000000000000000000000000000000000000000000000815260040161113090612186565b60405180910390fd5b600454811061117d576040517f08c379a0000000000000000000000000000000000000000000000000000000008152600401611174906121f2565b60405180910390fd5b8060036000848152602001908152602001600020600401819055506002600082815260200190815260200160002060060160008154809291906111bf90611d6c565b91905055505050565b600160009054906101000a900473ffffffffffffffffffffffffffffffffffffffff1681565b600080600190505b600454811015611286578273ffffffffffffffffffffffffffffffffffffffff166002600083815260200190815260200160002060050160009054906101000a900473ffffffffffffffffffffffffffffffffffffffff1673ffffffffffffffffffffffffffffffffffffffff160361127357600091505061128c565b808061127e90611d6c565b9150506111f6565b50600190505b919050565b600080600190505b600554811015611329578273ffffffffffffffffffffffffffffffffffffffff166003600083815260200190815260200160002060050160009054906101000a900473ffffffffffffffffffffffffffffffffffffffff1673ffffffffffffffffffffffffffffffffffffffff160361131657600091505061132f565b808061132190611d6c565b915050611299565b50600190505b919050565b6040518060c001604052806060815260200160008152602001600081526020016060815260200160008152602001600073ffffffffffffffffffffffffffffffffffffffff1681525090565b6040518060e001604052806060815260200160008152602001606081526020016000815260200160608152602001600073ffffffffffffffffffffffffffffffffffffffff168152602001600081525090565b8280546113df90611d0c565b90600052602060002090601f0160209004810192826114015760008555611448565b82601f1061141a57805160ff1916838001178555611448565b82800160010185558215611448579182015b8281111561144757825182559160200191906001019061142c565b5b5090506114559190611459565b5090565b5b8082111561147257600081600090555060010161145a565b5090565b600080fd5b600080fd5b6000819050919050565b61149381611480565b811461149e57600080fd5b50565b6000813590506114b08161148a565b92915050565b600080604083850312156114cd576114cc611476565b5b60006114db858286016114a1565b92505060206114ec858286016114a1565b9150509250929050565b600081519050919050565b600082825260208201905092915050565b60005b83811015611530578082015181840152602081019050611515565b8381111561153f576000848401525b50505050565b6000601f19601f8301169050919050565b6000611561826114f6565b61156b8185611501565b935061157b818560208601611512565b61158481611545565b840191505092915050565b60008115159050919050565b6115a48161158f565b82525050565b600060408201905081810360008301526115c48185611556565b90506115d3602083018461159b565b9392505050565b600081519050919050565b600082825260208201905092915050565b6000819050602082019050919050565b600082825260208201905092915050565b6000611622826114f6565b61162c8185611606565b935061163c818560208601611512565b61164581611545565b840191505092915050565b61165981611480565b82525050565b600073ffffffffffffffffffffffffffffffffffffffff82169050919050565b600061168a8261165f565b9050919050565b61169a8161167f565b82525050565b600060c08301600083015184820360008601526116bd8282611617565b91505060208301516116d26020860182611650565b5060408301516116e56040860182611650565b50606083015184820360608601526116fd8282611617565b91505060808301516117126080860182611650565b5060a083015161172560a0860182611691565b508091505092915050565b600061173c83836116a0565b905092915050565b6000602082019050919050565b600061175c826115da565b61176681856115e5565b935083602082028501611778856115f6565b8060005b858110156117b457848403895281516117958582611730565b94506117a083611744565b925060208a0199505060018101905061177c565b50829750879550505050505092915050565b600060208201905081810360008301526117e08184611751565b905092915050565b600081519050919050565b600082825260208201905092915050565b6000819050602082019050919050565b600060e08301600083015184820360008601526118318282611617565b91505060208301516118466020860182611650565b506040830151848203604086015261185e8282611617565b91505060608301516118736060860182611650565b506080830151848203608086015261188b8282611617565b91505060a08301516118a060a0860182611691565b5060c08301516118b360c0860182611650565b508091505092915050565b60006118ca8383611814565b905092915050565b6000602082019050919050565b60006118ea826117e8565b6118f481856117f3565b93508360208202850161190685611804565b8060005b85811015611942578484038952815161192385826118be565b945061192e836118d2565b925060208a0199505060018101905061190a565b50829750879550505050505092915050565b6000602082019050818103600083015261196e81846118df565b905092915050565b600080fd5b600080fd5b600080fd5b60008083601f84011261199b5761199a611976565b5b8235905067ffffffffffffffff8111156119b8576119b761197b565b5b6020830191508360018202830111156119d4576119d3611980565b5b9250929050565b60008060008060008060006080888a0312156119fa576119f9611476565b5b600088013567ffffffffffffffff811115611a1857611a1761147b565b5b611a248a828b01611985565b97509750506020611a378a828b016114a1565b955050604088013567ffffffffffffffff811115611a5857611a5761147b565b5b611a648a828b01611985565b9450945050606088013567ffffffffffffffff811115611a8757611a8661147b565b5b611a938a828b01611985565b925092505092959891949750929550565b600080600080600060608688031215611ac057611abf611476565b5b600086013567ffffffffffffffff811115611ade57611add61147b565b5b611aea88828901611985565b95509550506020611afd888289016114a1565b935050604086013567ffffffffffffffff811115611b1e57611b1d61147b565b5b611b2a88828901611985565b92509250509295509295909350565b611b428161167f565b82525050565b6000602082019050611b5d6000830184611b39565b92915050565b7f596f7520617265206e6f742066726f6d20656c656374696f6e20636f6d69737360008201527f696f6e0000000000000000000000000000000000000000000000000000000000602082015250565b6000611bbf602383611501565b9150611bca82611b63565b604082019050919050565b60006020820190508181036000830152611bee81611bb2565b9050919050565b7f4e487b7100000000000000000000000000000000000000000000000000000000600052601160045260246000fd5b6000611c2f82611480565b9150611c3a83611480565b9250827fffffffffffffffffffffffffffffffffffffffffffffffffffffffffffffffff03821115611c6f57611c6e611bf5565b5b828201905092915050565b6000611c8582611480565b9150611c9083611480565b925082821015611ca357611ca2611bf5565b5b828203905092915050565b7f4e487b7100000000000000000000000000000000000000000000000000000000600052604160045260246000fd5b7f4e487b7100000000000000000000000000000000000000000000000000000000600052602260045260246000fd5b60006002820490506001821680611d2457607f821691505b602082108103611d3757611d36611cdd565b5b50919050565b7f4e487b7100000000000000000000000000000000000000000000000000000000600052603260045260246000fd5b6000611d7782611480565b91507fffffffffffffffffffffffffffffffffffffffffffffffffffffffffffffffff8203611da957611da8611bf5565b5b600182019050919050565b7f596f75206172652066726f6d20656c656374696f6e20636f6d697373696f6e00600082015250565b6000611dea601f83611501565b9150611df582611db4565b602082019050919050565b60006020820190508181036000830152611e1981611ddd565b9050919050565b7f596f752063616e206e6f74207265676973746572207477696365000000000000600082015250565b6000611e56601a83611501565b9150611e6182611e20565b602082019050919050565b60006020820190508181036000830152611e8581611e49565b9050919050565b7f596f7520617265206e6f7420656c696769626c65000000000000000000000000600082015250565b6000611ec2601483611501565b9150611ecd82611e8c565b602082019050919050565b60006020820190508181036000830152611ef181611eb5565b9050919050565b7f596f752061726520756e64657220616765000000000000000000000000000000600082015250565b6000611f2e601183611501565b9150611f3982611ef8565b602082019050919050565b60006020820190508181036000830152611f5d81611f21565b9050919050565b7f596f75206861766520616c726561647920726567697374657265640000000000600082015250565b6000611f9a601b83611501565b9150611fa582611f64565b602082019050919050565b60006020820190508181036000830152611fc981611f8d565b9050919050565b7f596f75206861766520766f746564000000000000000000000000000000000000600082015250565b6000612006600e83611501565b915061201182611fd0565b602082019050919050565b6000602082019050818103600083015261203581611ff9565b9050919050565b7f596f752063616e7420766f74652066726f6d206f746865727320626568616c66600082015250565b6000612072602083611501565b915061207d8261203c565b602082019050919050565b600060208201905081810360008301526120a181612065565b9050919050565b7f43616e6469646174657320617265206e6f74207265676973746572656420636f60008201527f6d706c6574656c79000000000000000000000000000000000000000000000000602082015250565b6000612104602883611501565b915061210f826120a8565b604082019050919050565b60006020820190508181036000830152612133816120f7565b9050919050565b7f566f74696e67206973206e6f7420737461727465640000000000000000000000600082015250565b6000612170601583611501565b915061217b8261213a565b602082019050919050565b6000602082019050818103600083015261219f81612163565b9050919050565b7f43616e64696461746520646f6573206e6f742065786973740000000000000000600082015250565b60006121dc601883611501565b91506121e7826121a6565b602082019050919050565b6000602082019050818103600083015261220b816121cf565b905091905056fea2646970667358221220895d978130a8ecd4e1d842aa0661f6673f9a8271636d8597556ca38d9eedaa7964736f6c634300080d0033",
  "immutableReferences": {},
  "source": "//SPDX-License-Identifier: UNLICENSED\r\npragma solidity >=0.7.0 < 0.9.0;\r\n\r\n\r\n\r\ncontract Voting_Contract{\r\n\r\n    struct voter{\r\n        string name;\r\n        uint age;\r\n        uint voterID;\r\n        string gender;\r\n        uint voteCandidateID;\r\n        address voterAddress;\r\n    }\r\n\r\n    struct candidate{\r\n        string name;\r\n        uint age;\r\n        string party;\r\n        uint candidateID;\r\n        string gender;\r\n        address candidateAddress;\r\n        uint votes; \r\n    }\r\n    address electionComission;\r\n    address public winner;\r\n\r\n    mapping(uint=>candidate) candidatesDetails;\r\n    mapping(uint=>voter) voterDetails;\r\n\r\n    uint nextCandidateID = 1;\r\n    uint nextVoterID = 1;\r\n\r\n    bool stopVoting = false;\r\n\r\n    uint startTime;\r\n    uint endTime;\r\n\r\n    constructor(){\r\n        electionComission = msg.sender;\r\n    }\r\n\r\n    modifier onlyElectionComission() {\r\n        require(msg.sender == electionComission, \"You are not from election comission\");\r\n        _;\r\n    }\r\n\r\n    modifier isVotingOver() {\r\n        require(block.timestamp > endTime || stopVoting == true, \"Voting is over\");\r\n        _;\r\n    }\r\n\r\n    function candidateRegister(\r\n        string calldata _name,\r\n        uint _age,\r\n        string calldata _party,\r\n        string calldata _gender\r\n    ) external {\r\n        require(msg.sender != electionComission, \"You are from election comission\");\r\n        require(candidateVerification(msg.sender), \"You can not register twice\");\r\n        require(_age >=18, \"You are not eligible\");\r\n        candidatesDetails[nextCandidateID] = candidate(\r\n            _name,\r\n            _age,\r\n            _party,\r\n            nextCandidateID,\r\n            _gender,\r\n            msg.sender,\r\n            0\r\n        );\r\n        nextCandidateID++;\r\n    }\r\n\r\n    function candidateVerification(address _person) internal view returns(bool) {\r\n        for(uint i=1; i<nextCandidateID; i++){\r\n            if(candidatesDetails[i].candidateAddress == _person){\r\n                return false;\r\n            }\r\n            \r\n        }\r\n        return true;\r\n    }\r\n\r\n    function candidateList() public view returns(candidate[] memory){\r\n        candidate[] memory CandidatesList = new candidate[](nextCandidateID - 1);\r\n        for(uint i=1; i<nextCandidateID; i++){\r\n            CandidatesList[i-1] = candidatesDetails[i];\r\n        }\r\n        return CandidatesList;\r\n    }\r\n\r\n    function voterRegister(\r\n        string calldata _name,\r\n        uint _age,\r\n        string calldata _gender\r\n    ) public {\r\n        require(_age >=18, \"You are under age\");\r\n        require(voterVerification(msg.sender), \"You have already registered\");\r\n        voterDetails[nextVoterID] = voter(_name, \r\n        _age, \r\n        nextVoterID, \r\n        _gender, \r\n        0, \r\n        msg.sender);\r\n        nextVoterID++;\r\n    }\r\n\r\n    function voterVerification(address _person) internal view returns(bool){\r\n         for(uint i=1; i<nextVoterID; i++){\r\n            if(voterDetails[i].voterAddress == _person){\r\n                return false;\r\n            }\r\n            \r\n        }\r\n        return true;\r\n    }\r\n    \r\n    function voterList() public view returns(voter[] memory){\r\n        voter[] memory VoterList = new voter[](nextVoterID-1);\r\n        for(uint i=1; i<nextVoterID; i++){\r\n            VoterList[i-1] = voterDetails[i];\r\n        }\r\n        return VoterList;\r\n    }\r\n\r\n    function vote(uint _voterID, uint _ID) external {\r\n        require(voterDetails[_voterID].voteCandidateID ==0, \"You have voted\");\r\n        require(voterDetails[_voterID].voterAddress == msg.sender, \"You cant vote from others behalf\");\r\n        require(nextCandidateID >= 3, \"Candidates are not registered completely\");\r\n        require(startTime!=0, \"Voting is not started\");\r\n        require(_ID < nextCandidateID, \"Candidate does not exist\");\r\n        voterDetails[_voterID].voteCandidateID = _ID;\r\n        candidatesDetails[_ID].votes++;\r\n    }\r\n\r\n    // function votingTimeScheduling(uint _startTime, uint _endTime) external onlyElectionComission()  {\r\n    //     startTime = _startTime;\r\n    //     endTime = _endTime;\r\n    // }\r\n    function votingTimeImmediate(uint _startTime, uint _endTime) external onlyElectionComission() {\r\n        startTime = _startTime + block.timestamp;\r\n        endTime = _endTime + _startTime;\r\n    }\r\n    function votingStatus() public view returns(string memory, bool){\r\n        if(startTime ==0){\r\n            return (\"Voting is not started\", false);\r\n        } else if(endTime > block.timestamp && stopVoting == false){\r\n            return (\"Voting is in progress\", true);\r\n        } else{\r\n            return (\"Voting is over\", false);\r\n        }\r\n    }\r\n    function WinnerDeclaration() public onlyElectionComission()  returns(address) {\r\n        uint max =0;\r\n        for(uint i=1; i< nextCandidateID; i++){\r\n            if(candidatesDetails[i].votes > max){\r\n                max = candidatesDetails[i].votes;\r\n                winner = candidatesDetails[i].candidateAddress;\r\n            }\r\n        }\r\n        return winner;\r\n    }\r\n}",
  "sourcePath": "D:\\programing\\Blockchain\\code\\solidity advance\\Voting Contract\\contracts\\voting.sol",
  "compiler": {
    "name": "solc",
    "version": "0.8.13+commit.abaa5c0e.Emscripten.clang"
  },
  "schemaVersion": "3.4.15",
  "updatedAt": "2023-09-09T14:39:23.642Z",
  "networkType": "ethereum",
  "devdoc": {
    "kind": "dev",
    "methods": {},
    "version": 1
  },
  "userdoc": {
    "kind": "user",
    "methods": {},
    "version": 1
  }
}