{
	"Voting Contract/myVoting.sol": {
		"VotingContract": {
			"abi": [
				{
					"inputs": [],
					"stateMutability": "nonpayable",
					"type": "constructor"
				},
				{
					"inputs": [
						{
							"internalType": "uint256",
							"name": "",
							"type": "uint256"
						}
					],
					"name": "CandidateDetails",
					"outputs": [
						{
							"internalType": "string",
							"name": "name",
							"type": "string"
						},
						{
							"internalType": "uint256",
							"name": "age",
							"type": "uint256"
						},
						{
							"internalType": "string",
							"name": "party",
							"type": "string"
						},
						{
							"internalType": "uint256",
							"name": "candidateID",
							"type": "uint256"
						},
						{
							"internalType": "string",
							"name": "gender",
							"type": "string"
						},
						{
							"internalType": "address",
							"name": "candidateAddress",
							"type": "address"
						},
						{
							"internalType": "uint256",
							"name": "votes",
							"type": "uint256"
						}
					],
					"stateMutability": "view",
					"type": "function"
				},
				{
					"inputs": [
						{
							"internalType": "uint256",
							"name": "",
							"type": "uint256"
						}
					],
					"name": "VoterDetails",
					"outputs": [
						{
							"internalType": "string",
							"name": "name",
							"type": "string"
						},
						{
							"internalType": "uint256",
							"name": "age",
							"type": "uint256"
						},
						{
							"internalType": "uint256",
							"name": "voterID",
							"type": "uint256"
						},
						{
							"internalType": "string",
							"name": "gender",
							"type": "string"
						},
						{
							"internalType": "uint256",
							"name": "voteCandidateID",
							"type": "uint256"
						},
						{
							"internalType": "address",
							"name": "voterAddress",
							"type": "address"
						}
					],
					"stateMutability": "view",
					"type": "function"
				},
				{
					"inputs": [],
					"name": "candidateList",
					"outputs": [
						{
							"components": [
								{
									"internalType": "string",
									"name": "name",
									"type": "string"
								},
								{
									"internalType": "uint256",
									"name": "age",
									"type": "uint256"
								},
								{
									"internalType": "string",
									"name": "party",
									"type": "string"
								},
								{
									"internalType": "uint256",
									"name": "candidateID",
									"type": "uint256"
								},
								{
									"internalType": "string",
									"name": "gender",
									"type": "string"
								},
								{
									"internalType": "address",
									"name": "candidateAddress",
									"type": "address"
								},
								{
									"internalType": "uint256",
									"name": "votes",
									"type": "uint256"
								}
							],
							"internalType": "struct VotingContract.Candidate[]",
							"name": "",
							"type": "tuple[]"
						}
					],
					"stateMutability": "view",
					"type": "function"
				},
				{
					"inputs": [
						{
							"internalType": "string",
							"name": "_name",
							"type": "string"
						},
						{
							"internalType": "uint256",
							"name": "_age",
							"type": "uint256"
						},
						{
							"internalType": "string",
							"name": "_party",
							"type": "string"
						},
						{
							"internalType": "string",
							"name": "_gender",
							"type": "string"
						}
					],
					"name": "candidateRegister",
					"outputs": [],
					"stateMutability": "nonpayable",
					"type": "function"
				},
				{
					"inputs": [
						{
							"internalType": "uint256",
							"name": "_registrationStart",
							"type": "uint256"
						},
						{
							"internalType": "uint256",
							"name": "_registrationStop",
							"type": "uint256"
						}
					],
					"name": "candidateRegistrationSet",
					"outputs": [],
					"stateMutability": "nonpayable",
					"type": "function"
				},
				{
					"inputs": [],
					"name": "selectWinner",
					"outputs": [
						{
							"internalType": "address",
							"name": "",
							"type": "address"
						}
					],
					"stateMutability": "nonpayable",
					"type": "function"
				},
				{
					"inputs": [
						{
							"internalType": "uint256",
							"name": "_voterID",
							"type": "uint256"
						},
						{
							"internalType": "uint256",
							"name": "_ID",
							"type": "uint256"
						}
					],
					"name": "vote",
					"outputs": [],
					"stateMutability": "nonpayable",
					"type": "function"
				},
				{
					"inputs": [],
					"name": "voterList",
					"outputs": [
						{
							"components": [
								{
									"internalType": "string",
									"name": "name",
									"type": "string"
								},
								{
									"internalType": "uint256",
									"name": "age",
									"type": "uint256"
								},
								{
									"internalType": "uint256",
									"name": "voterID",
									"type": "uint256"
								},
								{
									"internalType": "string",
									"name": "gender",
									"type": "string"
								},
								{
									"internalType": "uint256",
									"name": "voteCandidateID",
									"type": "uint256"
								},
								{
									"internalType": "address",
									"name": "voterAddress",
									"type": "address"
								}
							],
							"internalType": "struct VotingContract.Voter[]",
							"name": "",
							"type": "tuple[]"
						}
					],
					"stateMutability": "view",
					"type": "function"
				},
				{
					"inputs": [
						{
							"internalType": "string",
							"name": "_name",
							"type": "string"
						},
						{
							"internalType": "uint256",
							"name": "_age",
							"type": "uint256"
						},
						{
							"internalType": "string",
							"name": "_gender",
							"type": "string"
						}
					],
					"name": "voterRegistration",
					"outputs": [],
					"stateMutability": "nonpayable",
					"type": "function"
				},
				{
					"inputs": [
						{
							"internalType": "uint256",
							"name": "_registrationStart",
							"type": "uint256"
						},
						{
							"internalType": "uint256",
							"name": "_registrationStop",
							"type": "uint256"
						}
					],
					"name": "voterRegistrationSet",
					"outputs": [],
					"stateMutability": "nonpayable",
					"type": "function"
				},
				{
					"inputs": [],
					"name": "winner",
					"outputs": [
						{
							"internalType": "address",
							"name": "",
							"type": "address"
						}
					],
					"stateMutability": "view",
					"type": "function"
				}
			],
			"devdoc": {
				"kind": "dev",
				"methods": {},
				"version": 1
			},
			"evm": {
				"assembly": "    /* \"Voting Contract/myVoting.sol\":73:6694  contract VotingContract{... */\n  mstore(0x40, 0x80)\n    /* \"Voting Contract/myVoting.sol\":637:642  false */\n  0x00\n    /* \"Voting Contract/myVoting.sol\":602:642  bool candidate_Registration_Time = false */\n  0x02\n  exp(0x0100, 0x00)\n  dup2\n  sload\n  dup2\n  0xff\n  mul\n  not\n  and\n  swap1\n  dup4\n  iszero\n  iszero\n  mul\n  or\n  swap1\n  sstore\n  pop\n    /* \"Voting Contract/myVoting.sol\":800:805  false */\n  0x00\n    /* \"Voting Contract/myVoting.sol\":772:805  bool votingConductionTime = false */\n  0x05\n  exp(0x0100, 0x00)\n  dup2\n  sload\n  dup2\n  0xff\n  mul\n  not\n  and\n  swap1\n  dup4\n  iszero\n  iszero\n  mul\n  or\n  swap1\n  sstore\n  pop\n    /* \"Voting Contract/myVoting.sol\":1092:1093  1 */\n  0x01\n    /* \"Voting Contract/myVoting.sol\":1073:1093  uint nextVoterID = 1 */\n  0x0a\n  sstore\n    /* \"Voting Contract/myVoting.sol\":1161:1162  1 */\n  0x01\n    /* \"Voting Contract/myVoting.sol\":1138:1162  uint nextCandidateID = 1 */\n  0x0b\n  sstore\n    /* \"Voting Contract/myVoting.sol\":1219:1224  false */\n  0x00\n    /* \"Voting Contract/myVoting.sol\":1201:1224  bool stopVoting = false */\n  0x0c\n  exp(0x0100, 0x00)\n  dup2\n  sload\n  dup2\n  0xff\n  mul\n  not\n  and\n  swap1\n  dup4\n  iszero\n  iszero\n  mul\n  or\n  swap1\n  sstore\n  pop\n    /* \"Voting Contract/myVoting.sol\":1233:1295  constructor(){... */\n  callvalue\n  dup1\n  iszero\n  tag_1\n  jumpi\n  0x00\n  dup1\n  revert\ntag_1:\n  pop\n    /* \"Voting Contract/myVoting.sol\":1277:1287  msg.sender */\n  caller\n    /* \"Voting Contract/myVoting.sol\":1257:1274  ElectionComission */\n  0x08\n  0x00\n    /* \"Voting Contract/myVoting.sol\":1257:1287  ElectionComission = msg.sender */\n  0x0100\n  exp\n  dup2\n  sload\n  dup2\n  0xffffffffffffffffffffffffffffffffffffffff\n  mul\n  not\n  and\n  swap1\n  dup4\n  0xffffffffffffffffffffffffffffffffffffffff\n  and\n  mul\n  or\n  swap1\n  sstore\n  pop\n    /* \"Voting Contract/myVoting.sol\":73:6694  contract VotingContract{... */\n  dataSize(sub_0)\n  dup1\n  dataOffset(sub_0)\n  0x00\n  codecopy\n  0x00\n  return\nstop\n\nsub_0: assembly {\n        /* \"Voting Contract/myVoting.sol\":73:6694  contract VotingContract{... */\n      mstore(0x40, 0x80)\n      callvalue\n      dup1\n      iszero\n      tag_1\n      jumpi\n      0x00\n      dup1\n      revert\n    tag_1:\n      pop\n      jumpi(tag_2, lt(calldatasize, 0x04))\n      shr(0xe0, calldataload(0x00))\n      dup1\n      0x69042bec\n      gt\n      tag_14\n      jumpi\n      dup1\n      0x69042bec\n      eq\n      tag_8\n      jumpi\n      dup1\n      0x6d2bc1eb\n      eq\n      tag_9\n      jumpi\n      dup1\n      0x7da0e15e\n      eq\n      tag_10\n      jumpi\n      dup1\n      0xb384abef\n      eq\n      tag_11\n      jumpi\n      dup1\n      0xdfbf53ae\n      eq\n      tag_12\n      jumpi\n      dup1\n      0xf83f40db\n      eq\n      tag_13\n      jumpi\n      jump(tag_2)\n    tag_14:\n      dup1\n      0x24089918\n      eq\n      tag_3\n      jumpi\n      dup1\n      0x33a99e04\n      eq\n      tag_4\n      jumpi\n      dup1\n      0x498ea441\n      eq\n      tag_5\n      jumpi\n      dup1\n      0x5042746c\n      eq\n      tag_6\n      jumpi\n      dup1\n      0x5d74b023\n      eq\n      tag_7\n      jumpi\n    tag_2:\n      0x00\n      dup1\n      revert\n        /* \"Voting Contract/myVoting.sol\":4856:5116  function voterList() public view returns(Voter[] memory){... */\n    tag_3:\n      tag_15\n      tag_16\n      jump\t// in\n    tag_15:\n      mload(0x40)\n      tag_17\n      swap2\n      swap1\n      tag_18\n      jump\t// in\n    tag_17:\n      mload(0x40)\n      dup1\n      swap2\n      sub\n      swap1\n      return\n        /* \"Voting Contract/myVoting.sol\":6033:6691  function selectWinner() public onlyElectionComission() returns(address){... */\n    tag_4:\n      tag_19\n      tag_20\n      jump\t// in\n    tag_19:\n      mload(0x40)\n      tag_21\n      swap2\n      swap1\n      tag_22\n      jump\t// in\n    tag_21:\n      mload(0x40)\n      dup1\n      swap2\n      sub\n      swap1\n      return\n        /* \"Voting Contract/myVoting.sol\":5124:5424  function candidateList() public view returns(Candidate[] memory){... */\n    tag_5:\n      tag_23\n      tag_24\n      jump\t// in\n    tag_23:\n      mload(0x40)\n      tag_25\n      swap2\n      swap1\n      tag_26\n      jump\t// in\n    tag_25:\n      mload(0x40)\n      dup1\n      swap2\n      sub\n      swap1\n      return\n        /* \"Voting Contract/myVoting.sol\":4364:4675  function voterRegistrationSet(uint _registrationStart, uint _registrationStop) public onlyElectionComission() {... */\n    tag_6:\n      tag_27\n      0x04\n      dup1\n      calldatasize\n      sub\n      dup2\n      add\n      swap1\n      tag_28\n      swap2\n      swap1\n      tag_29\n      jump\t// in\n    tag_28:\n      tag_30\n      jump\t// in\n    tag_27:\n      stop\n        /* \"Voting Contract/myVoting.sol\":3662:4067  function voterRegistration(... */\n    tag_7:\n      tag_31\n      0x04\n      dup1\n      calldatasize\n      sub\n      dup2\n      add\n      swap1\n      tag_32\n      swap2\n      swap1\n      tag_33\n      jump\t// in\n    tag_32:\n      tag_34\n      jump\t// in\n    tag_31:\n      stop\n        /* \"Voting Contract/myVoting.sol\":1895:2631  function candidateRegister(... */\n    tag_8:\n      tag_35\n      0x04\n      dup1\n      calldatasize\n      sub\n      dup2\n      add\n      swap1\n      tag_36\n      swap2\n      swap1\n      tag_37\n      jump\t// in\n    tag_36:\n      tag_38\n      jump\t// in\n    tag_35:\n      stop\n        /* \"Voting Contract/myVoting.sol\":841:889  mapping(uint=>Candidate) public CandidateDetails */\n    tag_9:\n      tag_39\n      0x04\n      dup1\n      calldatasize\n      sub\n      dup2\n      add\n      swap1\n      tag_40\n      swap2\n      swap1\n      tag_41\n      jump\t// in\n    tag_40:\n      tag_42\n      jump\t// in\n    tag_39:\n      mload(0x40)\n      tag_43\n      swap8\n      swap7\n      swap6\n      swap5\n      swap4\n      swap3\n      swap2\n      swap1\n      tag_44\n      jump\t// in\n    tag_43:\n      mload(0x40)\n      dup1\n      swap2\n      sub\n      swap1\n      return\n        /* \"Voting Contract/myVoting.sol\":896:936  mapping(uint=>Voter) public VoterDetails */\n    tag_10:\n      tag_45\n      0x04\n      dup1\n      calldatasize\n      sub\n      dup2\n      add\n      swap1\n      tag_46\n      swap2\n      swap1\n      tag_41\n      jump\t// in\n    tag_46:\n      tag_47\n      jump\t// in\n    tag_45:\n      mload(0x40)\n      tag_48\n      swap7\n      swap6\n      swap5\n      swap4\n      swap3\n      swap2\n      swap1\n      tag_49\n      jump\t// in\n    tag_48:\n      mload(0x40)\n      dup1\n      swap2\n      sub\n      swap1\n      return\n        /* \"Voting Contract/myVoting.sol\":5433:6025  function vote(uint _voterID, uint _ID) external {... */\n    tag_11:\n      tag_50\n      0x04\n      dup1\n      calldatasize\n      sub\n      dup2\n      add\n      swap1\n      tag_51\n      swap2\n      swap1\n      tag_29\n      jump\t// in\n    tag_51:\n      tag_52\n      jump\t// in\n    tag_50:\n      stop\n        /* \"Voting Contract/myVoting.sol\":1024:1045  address public winner */\n    tag_12:\n      tag_53\n      tag_54\n      jump\t// in\n    tag_53:\n      mload(0x40)\n      tag_55\n      swap2\n      swap1\n      tag_22\n      jump\t// in\n    tag_55:\n      mload(0x40)\n      dup1\n      swap2\n      sub\n      swap1\n      return\n        /* \"Voting Contract/myVoting.sol\":3048:3378  function candidateRegistrationSet(uint _registrationStart, uint _registrationStop) public onlyElectionComission() {... */\n    tag_13:\n      tag_56\n      0x04\n      dup1\n      calldatasize\n      sub\n      dup2\n      add\n      swap1\n      tag_57\n      swap2\n      swap1\n      tag_29\n      jump\t// in\n    tag_57:\n      tag_58\n      jump\t// in\n    tag_56:\n      stop\n        /* \"Voting Contract/myVoting.sol\":4856:5116  function voterList() public view returns(Voter[] memory){... */\n    tag_16:\n        /* \"Voting Contract/myVoting.sol\":4897:4911  Voter[] memory */\n      0x60\n        /* \"Voting Contract/myVoting.sol\":4923:4948  Voter[] memory votersList */\n      0x00\n        /* \"Voting Contract/myVoting.sol\":4975:4976  1 */\n      0x01\n        /* \"Voting Contract/myVoting.sol\":4963:4974  nextVoterID */\n      sload(0x0a)\n        /* \"Voting Contract/myVoting.sol\":4963:4976  nextVoterID-1 */\n      tag_60\n      swap2\n      swap1\n      tag_61\n      jump\t// in\n    tag_60:\n        /* \"Voting Contract/myVoting.sol\":4951:4977  new Voter[](nextVoterID-1) */\n      0xffffffffffffffff\n      dup2\n      gt\n      iszero\n      tag_62\n      jumpi\n      tag_63\n      tag_64\n      jump\t// in\n    tag_63:\n    tag_62:\n      mload(0x40)\n      swap1\n      dup1\n      dup3\n      mstore\n      dup1\n      0x20\n      mul\n      0x20\n      add\n      dup3\n      add\n      0x40\n      mstore\n      dup1\n      iszero\n      tag_65\n      jumpi\n      dup2\n      0x20\n      add\n    tag_66:\n      tag_67\n      tag_68\n      jump\t// in\n    tag_67:\n      dup2\n      mstore\n      0x20\n      add\n      swap1\n      0x01\n      swap1\n      sub\n      swap1\n      dup2\n      tag_66\n      jumpi\n      swap1\n      pop\n    tag_65:\n      pop\n        /* \"Voting Contract/myVoting.sol\":4923:4977  Voter[] memory votersList = new Voter[](nextVoterID-1) */\n      swap1\n      pop\n        /* \"Voting Contract/myVoting.sol\":4992:4998  uint i */\n      0x00\n        /* \"Voting Contract/myVoting.sol\":4999:5000  1 */\n      0x01\n        /* \"Voting Contract/myVoting.sol\":4992:5000  uint i=1 */\n      swap1\n      pop\n        /* \"Voting Contract/myVoting.sol\":4988:5081  for(uint i=1; i<nextVoterID; i++){... */\n    tag_69:\n        /* \"Voting Contract/myVoting.sol\":5004:5015  nextVoterID */\n      sload(0x0a)\n        /* \"Voting Contract/myVoting.sol\":5002:5003  i */\n      dup2\n        /* \"Voting Contract/myVoting.sol\":5002:5015  i<nextVoterID */\n      lt\n        /* \"Voting Contract/myVoting.sol\":4988:5081  for(uint i=1; i<nextVoterID; i++){... */\n      iszero\n      tag_70\n      jumpi\n        /* \"Voting Contract/myVoting.sol\":5054:5066  VoterDetails */\n      0x07\n        /* \"Voting Contract/myVoting.sol\":5054:5069  VoterDetails[i] */\n      0x00\n        /* \"Voting Contract/myVoting.sol\":5067:5068  i */\n      dup3\n        /* \"Voting Contract/myVoting.sol\":5054:5069  VoterDetails[i] */\n      dup2\n      mstore\n      0x20\n      add\n      swap1\n      dup2\n      mstore\n      0x20\n      add\n      0x00\n      keccak256\n        /* \"Voting Contract/myVoting.sol\":5036:5069  votersList[i-1] = VoterDetails[i] */\n      mload(0x40)\n      dup1\n      0xc0\n      add\n      0x40\n      mstore\n      swap1\n      dup2\n      0x00\n      dup3\n      add\n      dup1\n      sload\n      tag_72\n      swap1\n      tag_73\n      jump\t// in\n    tag_72:\n      dup1\n      0x1f\n      add\n      0x20\n      dup1\n      swap2\n      div\n      mul\n      0x20\n      add\n      mload(0x40)\n      swap1\n      dup2\n      add\n      0x40\n      mstore\n      dup1\n      swap3\n      swap2\n      swap1\n      dup2\n      dup2\n      mstore\n      0x20\n      add\n      dup3\n      dup1\n      sload\n      tag_74\n      swap1\n      tag_73\n      jump\t// in\n    tag_74:\n      dup1\n      iszero\n      tag_75\n      jumpi\n      dup1\n      0x1f\n      lt\n      tag_76\n      jumpi\n      0x0100\n      dup1\n      dup4\n      sload\n      div\n      mul\n      dup4\n      mstore\n      swap2\n      0x20\n      add\n      swap2\n      jump(tag_75)\n    tag_76:\n      dup3\n      add\n      swap2\n      swap1\n      0x00\n      mstore\n      keccak256(0x00, 0x20)\n      swap1\n    tag_77:\n      dup2\n      sload\n      dup2\n      mstore\n      swap1\n      0x01\n      add\n      swap1\n      0x20\n      add\n      dup1\n      dup4\n      gt\n      tag_77\n      jumpi\n      dup3\n      swap1\n      sub\n      0x1f\n      and\n      dup3\n      add\n      swap2\n    tag_75:\n      pop\n      pop\n      pop\n      pop\n      pop\n      dup2\n      mstore\n      0x20\n      add\n      0x01\n      dup3\n      add\n      sload\n      dup2\n      mstore\n      0x20\n      add\n      0x02\n      dup3\n      add\n      sload\n      dup2\n      mstore\n      0x20\n      add\n      0x03\n      dup3\n      add\n      dup1\n      sload\n      tag_78\n      swap1\n      tag_73\n      jump\t// in\n    tag_78:\n      dup1\n      0x1f\n      add\n      0x20\n      dup1\n      swap2\n      div\n      mul\n      0x20\n      add\n      mload(0x40)\n      swap1\n      dup2\n      add\n      0x40\n      mstore\n      dup1\n      swap3\n      swap2\n      swap1\n      dup2\n      dup2\n      mstore\n      0x20\n      add\n      dup3\n      dup1\n      sload\n      tag_79\n      swap1\n      tag_73\n      jump\t// in\n    tag_79:\n      dup1\n      iszero\n      tag_80\n      jumpi\n      dup1\n      0x1f\n      lt\n      tag_81\n      jumpi\n      0x0100\n      dup1\n      dup4\n      sload\n      div\n      mul\n      dup4\n      mstore\n      swap2\n      0x20\n      add\n      swap2\n      jump(tag_80)\n    tag_81:\n      dup3\n      add\n      swap2\n      swap1\n      0x00\n      mstore\n      keccak256(0x00, 0x20)\n      swap1\n    tag_82:\n      dup2\n      sload\n      dup2\n      mstore\n      swap1\n      0x01\n      add\n      swap1\n      0x20\n      add\n      dup1\n      dup4\n      gt\n      tag_82\n      jumpi\n      dup3\n      swap1\n      sub\n      0x1f\n      and\n      dup3\n      add\n      swap2\n    tag_80:\n      pop\n      pop\n      pop\n      pop\n      pop\n      dup2\n      mstore\n      0x20\n      add\n      0x04\n      dup3\n      add\n      sload\n      dup2\n      mstore\n      0x20\n      add\n      0x05\n      dup3\n      add\n      0x00\n      swap1\n      sload\n      swap1\n      0x0100\n      exp\n      swap1\n      div\n      0xffffffffffffffffffffffffffffffffffffffff\n      and\n      0xffffffffffffffffffffffffffffffffffffffff\n      and\n      0xffffffffffffffffffffffffffffffffffffffff\n      and\n      dup2\n      mstore\n      pop\n      pop\n        /* \"Voting Contract/myVoting.sol\":5036:5046  votersList */\n      dup3\n        /* \"Voting Contract/myVoting.sol\":5049:5050  1 */\n      0x01\n        /* \"Voting Contract/myVoting.sol\":5047:5048  i */\n      dup4\n        /* \"Voting Contract/myVoting.sol\":5047:5050  i-1 */\n      tag_83\n      swap2\n      swap1\n      tag_61\n      jump\t// in\n    tag_83:\n        /* \"Voting Contract/myVoting.sol\":5036:5051  votersList[i-1] */\n      dup2\n      mload\n      dup2\n      lt\n      tag_84\n      jumpi\n      tag_85\n      tag_86\n      jump\t// in\n    tag_85:\n    tag_84:\n      0x20\n      mul\n      0x20\n      add\n      add\n        /* \"Voting Contract/myVoting.sol\":5036:5069  votersList[i-1] = VoterDetails[i] */\n      dup2\n      swap1\n      mstore\n      pop\n        /* \"Voting Contract/myVoting.sol\":5017:5020  i++ */\n      dup1\n      dup1\n      tag_87\n      swap1\n      tag_88\n      jump\t// in\n    tag_87:\n      swap2\n      pop\n      pop\n        /* \"Voting Contract/myVoting.sol\":4988:5081  for(uint i=1; i<nextVoterID; i++){... */\n      jump(tag_69)\n    tag_70:\n      pop\n        /* \"Voting Contract/myVoting.sol\":5098:5108  votersList */\n      dup1\n        /* \"Voting Contract/myVoting.sol\":5091:5108  return votersList */\n      swap2\n      pop\n      pop\n        /* \"Voting Contract/myVoting.sol\":4856:5116  function voterList() public view returns(Voter[] memory){... */\n      swap1\n      jump\t// out\n        /* \"Voting Contract/myVoting.sol\":6033:6691  function selectWinner() public onlyElectionComission() returns(address){... */\n    tag_20:\n        /* \"Voting Contract/myVoting.sol\":6096:6103  address */\n      0x00\n        /* \"Voting Contract/myVoting.sol\":1369:1386  ElectionComission */\n      0x08\n      0x00\n      swap1\n      sload\n      swap1\n      0x0100\n      exp\n      swap1\n      div\n      0xffffffffffffffffffffffffffffffffffffffff\n      and\n        /* \"Voting Contract/myVoting.sol\":1355:1386  msg.sender == ElectionComission */\n      0xffffffffffffffffffffffffffffffffffffffff\n      and\n        /* \"Voting Contract/myVoting.sol\":1355:1365  msg.sender */\n      caller\n        /* \"Voting Contract/myVoting.sol\":1355:1386  msg.sender == ElectionComission */\n      0xffffffffffffffffffffffffffffffffffffffff\n      and\n      eq\n        /* \"Voting Contract/myVoting.sol\":1347:1426  require(msg.sender == ElectionComission, \"You are not from election comission\") */\n      tag_90\n      jumpi\n      mload(0x40)\n      0x08c379a000000000000000000000000000000000000000000000000000000000\n      dup2\n      mstore\n      0x04\n      add\n      tag_91\n      swap1\n      tag_92\n      jump\t// in\n    tag_91:\n      mload(0x40)\n      dup1\n      swap2\n      sub\n      swap1\n      revert\n    tag_90:\n        /* \"Voting Contract/myVoting.sol\":6139:6164  candidate_Registraion_End */\n      sload(0x01)\n        /* \"Voting Contract/myVoting.sol\":6123:6138  block.timestamp */\n      timestamp\n        /* \"Voting Contract/myVoting.sol\":6123:6164  block.timestamp>candidate_Registraion_End */\n      gt\n        /* \"Voting Contract/myVoting.sol\":6123:6197  block.timestamp>candidate_Registraion_End && candidate_Registraion_End !=0 */\n      dup1\n      iszero\n      tag_94\n      jumpi\n      pop\n        /* \"Voting Contract/myVoting.sol\":6196:6197  0 */\n      0x00\n        /* \"Voting Contract/myVoting.sol\":6168:6193  candidate_Registraion_End */\n      sload(0x01)\n        /* \"Voting Contract/myVoting.sol\":6168:6197  candidate_Registraion_End !=0 */\n      eq\n      iszero\n        /* \"Voting Contract/myVoting.sol\":6123:6197  block.timestamp>candidate_Registraion_End && candidate_Registraion_End !=0 */\n    tag_94:\n        /* \"Voting Contract/myVoting.sol\":6115:6254  require(block.timestamp>candidate_Registraion_End && candidate_Registraion_End !=0,... */\n      tag_95\n      jumpi\n      mload(0x40)\n      0x08c379a000000000000000000000000000000000000000000000000000000000\n      dup2\n      mstore\n      0x04\n      add\n      tag_96\n      swap1\n      tag_97\n      jump\t// in\n    tag_96:\n      mload(0x40)\n      dup1\n      swap2\n      sub\n      swap1\n      revert\n    tag_95:\n        /* \"Voting Contract/myVoting.sol\":6290:6311  voting_Conduction_End */\n      sload(0x04)\n        /* \"Voting Contract/myVoting.sol\":6274:6289  block.timestamp */\n      timestamp\n        /* \"Voting Contract/myVoting.sol\":6274:6311  block.timestamp>voting_Conduction_End */\n      gt\n        /* \"Voting Contract/myVoting.sol\":6274:6340  block.timestamp>voting_Conduction_End && voting_Conduction_End !=0 */\n      dup1\n      iszero\n      tag_98\n      jumpi\n      pop\n        /* \"Voting Contract/myVoting.sol\":6339:6340  0 */\n      0x00\n        /* \"Voting Contract/myVoting.sol\":6315:6336  voting_Conduction_End */\n      sload(0x04)\n        /* \"Voting Contract/myVoting.sol\":6315:6340  voting_Conduction_End !=0 */\n      eq\n      iszero\n        /* \"Voting Contract/myVoting.sol\":6274:6340  block.timestamp>voting_Conduction_End && voting_Conduction_End !=0 */\n    tag_98:\n        /* \"Voting Contract/myVoting.sol\":6266:6398  require(block.timestamp>voting_Conduction_End && voting_Conduction_End !=0,... */\n      tag_99\n      jumpi\n      mload(0x40)\n      0x08c379a000000000000000000000000000000000000000000000000000000000\n      dup2\n      mstore\n      0x04\n      add\n      tag_100\n      swap1\n      tag_101\n      jump\t// in\n    tag_100:\n      mload(0x40)\n      dup1\n      swap2\n      sub\n      swap1\n      revert\n    tag_99:\n        /* \"Voting Contract/myVoting.sol\":6409:6417  uint max */\n      0x00\n        /* \"Voting Contract/myVoting.sol\":6435:6441  uint i */\n      dup1\n        /* \"Voting Contract/myVoting.sol\":6442:6443  1 */\n      0x01\n        /* \"Voting Contract/myVoting.sol\":6435:6443  uint i=1 */\n      swap1\n      pop\n        /* \"Voting Contract/myVoting.sol\":6431:6660  for(uint i=1; i< nextCandidateID; i++){... */\n    tag_102:\n        /* \"Voting Contract/myVoting.sol\":6448:6463  nextCandidateID */\n      sload(0x0b)\n        /* \"Voting Contract/myVoting.sol\":6445:6446  i */\n      dup2\n        /* \"Voting Contract/myVoting.sol\":6445:6463  i< nextCandidateID */\n      lt\n        /* \"Voting Contract/myVoting.sol\":6431:6660  for(uint i=1; i< nextCandidateID; i++){... */\n      iszero\n      tag_103\n      jumpi\n        /* \"Voting Contract/myVoting.sol\":6515:6518  max */\n      dup2\n        /* \"Voting Contract/myVoting.sol\":6487:6503  CandidateDetails */\n      0x06\n        /* \"Voting Contract/myVoting.sol\":6487:6506  CandidateDetails[i] */\n      0x00\n        /* \"Voting Contract/myVoting.sol\":6504:6505  i */\n      dup4\n        /* \"Voting Contract/myVoting.sol\":6487:6506  CandidateDetails[i] */\n      dup2\n      mstore\n      0x20\n      add\n      swap1\n      dup2\n      mstore\n      0x20\n      add\n      0x00\n      keccak256\n        /* \"Voting Contract/myVoting.sol\":6487:6512  CandidateDetails[i].votes */\n      0x06\n      add\n      sload\n        /* \"Voting Contract/myVoting.sol\":6487:6518  CandidateDetails[i].votes > max */\n      gt\n        /* \"Voting Contract/myVoting.sol\":6484:6649  if(CandidateDetails[i].votes > max){... */\n      iszero\n      tag_105\n      jumpi\n        /* \"Voting Contract/myVoting.sol\":6544:6560  CandidateDetails */\n      0x06\n        /* \"Voting Contract/myVoting.sol\":6544:6563  CandidateDetails[i] */\n      0x00\n        /* \"Voting Contract/myVoting.sol\":6561:6562  i */\n      dup3\n        /* \"Voting Contract/myVoting.sol\":6544:6563  CandidateDetails[i] */\n      dup2\n      mstore\n      0x20\n      add\n      swap1\n      dup2\n      mstore\n      0x20\n      add\n      0x00\n      keccak256\n        /* \"Voting Contract/myVoting.sol\":6544:6569  CandidateDetails[i].votes */\n      0x06\n      add\n      sload\n        /* \"Voting Contract/myVoting.sol\":6538:6569  max = CandidateDetails[i].votes */\n      swap2\n      pop\n        /* \"Voting Contract/myVoting.sol\":6597:6613  CandidateDetails */\n      0x06\n        /* \"Voting Contract/myVoting.sol\":6597:6616  CandidateDetails[i] */\n      0x00\n        /* \"Voting Contract/myVoting.sol\":6614:6615  i */\n      dup3\n        /* \"Voting Contract/myVoting.sol\":6597:6616  CandidateDetails[i] */\n      dup2\n      mstore\n      0x20\n      add\n      swap1\n      dup2\n      mstore\n      0x20\n      add\n      0x00\n      keccak256\n        /* \"Voting Contract/myVoting.sol\":6597:6633  CandidateDetails[i].candidateAddress */\n      0x05\n      add\n      0x00\n      swap1\n      sload\n      swap1\n      0x0100\n      exp\n      swap1\n      div\n      0xffffffffffffffffffffffffffffffffffffffff\n      and\n        /* \"Voting Contract/myVoting.sol\":6588:6594  winner */\n      0x09\n      0x00\n        /* \"Voting Contract/myVoting.sol\":6588:6633  winner = CandidateDetails[i].candidateAddress */\n      0x0100\n      exp\n      dup2\n      sload\n      dup2\n      0xffffffffffffffffffffffffffffffffffffffff\n      mul\n      not\n      and\n      swap1\n      dup4\n      0xffffffffffffffffffffffffffffffffffffffff\n      and\n      mul\n      or\n      swap1\n      sstore\n      pop\n        /* \"Voting Contract/myVoting.sol\":6484:6649  if(CandidateDetails[i].votes > max){... */\n    tag_105:\n        /* \"Voting Contract/myVoting.sol\":6465:6468  i++ */\n      dup1\n      dup1\n      tag_106\n      swap1\n      tag_88\n      jump\t// in\n    tag_106:\n      swap2\n      pop\n      pop\n        /* \"Voting Contract/myVoting.sol\":6431:6660  for(uint i=1; i< nextCandidateID; i++){... */\n      jump(tag_102)\n    tag_103:\n      pop\n        /* \"Voting Contract/myVoting.sol\":6677:6683  winner */\n      0x09\n      0x00\n      swap1\n      sload\n      swap1\n      0x0100\n      exp\n      swap1\n      div\n      0xffffffffffffffffffffffffffffffffffffffff\n      and\n        /* \"Voting Contract/myVoting.sol\":6670:6683  return winner */\n      swap2\n      pop\n      pop\n        /* \"Voting Contract/myVoting.sol\":6033:6691  function selectWinner() public onlyElectionComission() returns(address){... */\n      swap1\n      jump\t// out\n        /* \"Voting Contract/myVoting.sol\":5124:5424  function candidateList() public view returns(Candidate[] memory){... */\n    tag_24:\n        /* \"Voting Contract/myVoting.sol\":5169:5187  Candidate[] memory */\n      0x60\n        /* \"Voting Contract/myVoting.sol\":5199:5232  Candidate[] memory candidatesList */\n      0x00\n        /* \"Voting Contract/myVoting.sol\":5267:5268  1 */\n      0x01\n        /* \"Voting Contract/myVoting.sol\":5251:5266  nextCandidateID */\n      sload(0x0b)\n        /* \"Voting Contract/myVoting.sol\":5251:5268  nextCandidateID-1 */\n      tag_108\n      swap2\n      swap1\n      tag_61\n      jump\t// in\n    tag_108:\n        /* \"Voting Contract/myVoting.sol\":5235:5269  new Candidate[](nextCandidateID-1) */\n      0xffffffffffffffff\n      dup2\n      gt\n      iszero\n      tag_109\n      jumpi\n      tag_110\n      tag_64\n      jump\t// in\n    tag_110:\n    tag_109:\n      mload(0x40)\n      swap1\n      dup1\n      dup3\n      mstore\n      dup1\n      0x20\n      mul\n      0x20\n      add\n      dup3\n      add\n      0x40\n      mstore\n      dup1\n      iszero\n      tag_111\n      jumpi\n      dup2\n      0x20\n      add\n    tag_112:\n      tag_113\n      tag_114\n      jump\t// in\n    tag_113:\n      dup2\n      mstore\n      0x20\n      add\n      swap1\n      0x01\n      swap1\n      sub\n      swap1\n      dup2\n      tag_112\n      jumpi\n      swap1\n      pop\n    tag_111:\n      pop\n        /* \"Voting Contract/myVoting.sol\":5199:5269  Candidate[] memory candidatesList = new Candidate[](nextCandidateID-1) */\n      swap1\n      pop\n        /* \"Voting Contract/myVoting.sol\":5284:5290  uint i */\n      0x00\n        /* \"Voting Contract/myVoting.sol\":5291:5292  1 */\n      0x01\n        /* \"Voting Contract/myVoting.sol\":5284:5292  uint i=1 */\n      swap1\n      pop\n        /* \"Voting Contract/myVoting.sol\":5280:5385  for(uint i=1; i<nextCandidateID; i++){... */\n    tag_115:\n        /* \"Voting Contract/myVoting.sol\":5296:5311  nextCandidateID */\n      sload(0x0b)\n        /* \"Voting Contract/myVoting.sol\":5294:5295  i */\n      dup2\n        /* \"Voting Contract/myVoting.sol\":5294:5311  i<nextCandidateID */\n      lt\n        /* \"Voting Contract/myVoting.sol\":5280:5385  for(uint i=1; i<nextCandidateID; i++){... */\n      iszero\n      tag_116\n      jumpi\n        /* \"Voting Contract/myVoting.sol\":5354:5370  CandidateDetails */\n      0x06\n        /* \"Voting Contract/myVoting.sol\":5354:5373  CandidateDetails[i] */\n      0x00\n        /* \"Voting Contract/myVoting.sol\":5371:5372  i */\n      dup3\n        /* \"Voting Contract/myVoting.sol\":5354:5373  CandidateDetails[i] */\n      dup2\n      mstore\n      0x20\n      add\n      swap1\n      dup2\n      mstore\n      0x20\n      add\n      0x00\n      keccak256\n        /* \"Voting Contract/myVoting.sol\":5332:5373  candidatesList[i-1] = CandidateDetails[i] */\n      mload(0x40)\n      dup1\n      0xe0\n      add\n      0x40\n      mstore\n      swap1\n      dup2\n      0x00\n      dup3\n      add\n      dup1\n      sload\n      tag_118\n      swap1\n      tag_73\n      jump\t// in\n    tag_118:\n      dup1\n      0x1f\n      add\n      0x20\n      dup1\n      swap2\n      div\n      mul\n      0x20\n      add\n      mload(0x40)\n      swap1\n      dup2\n      add\n      0x40\n      mstore\n      dup1\n      swap3\n      swap2\n      swap1\n      dup2\n      dup2\n      mstore\n      0x20\n      add\n      dup3\n      dup1\n      sload\n      tag_119\n      swap1\n      tag_73\n      jump\t// in\n    tag_119:\n      dup1\n      iszero\n      tag_120\n      jumpi\n      dup1\n      0x1f\n      lt\n      tag_121\n      jumpi\n      0x0100\n      dup1\n      dup4\n      sload\n      div\n      mul\n      dup4\n      mstore\n      swap2\n      0x20\n      add\n      swap2\n      jump(tag_120)\n    tag_121:\n      dup3\n      add\n      swap2\n      swap1\n      0x00\n      mstore\n      keccak256(0x00, 0x20)\n      swap1\n    tag_122:\n      dup2\n      sload\n      dup2\n      mstore\n      swap1\n      0x01\n      add\n      swap1\n      0x20\n      add\n      dup1\n      dup4\n      gt\n      tag_122\n      jumpi\n      dup3\n      swap1\n      sub\n      0x1f\n      and\n      dup3\n      add\n      swap2\n    tag_120:\n      pop\n      pop\n      pop\n      pop\n      pop\n      dup2\n      mstore\n      0x20\n      add\n      0x01\n      dup3\n      add\n      sload\n      dup2\n      mstore\n      0x20\n      add\n      0x02\n      dup3\n      add\n      dup1\n      sload\n      tag_123\n      swap1\n      tag_73\n      jump\t// in\n    tag_123:\n      dup1\n      0x1f\n      add\n      0x20\n      dup1\n      swap2\n      div\n      mul\n      0x20\n      add\n      mload(0x40)\n      swap1\n      dup2\n      add\n      0x40\n      mstore\n      dup1\n      swap3\n      swap2\n      swap1\n      dup2\n      dup2\n      mstore\n      0x20\n      add\n      dup3\n      dup1\n      sload\n      tag_124\n      swap1\n      tag_73\n      jump\t// in\n    tag_124:\n      dup1\n      iszero\n      tag_125\n      jumpi\n      dup1\n      0x1f\n      lt\n      tag_126\n      jumpi\n      0x0100\n      dup1\n      dup4\n      sload\n      div\n      mul\n      dup4\n      mstore\n      swap2\n      0x20\n      add\n      swap2\n      jump(tag_125)\n    tag_126:\n      dup3\n      add\n      swap2\n      swap1\n      0x00\n      mstore\n      keccak256(0x00, 0x20)\n      swap1\n    tag_127:\n      dup2\n      sload\n      dup2\n      mstore\n      swap1\n      0x01\n      add\n      swap1\n      0x20\n      add\n      dup1\n      dup4\n      gt\n      tag_127\n      jumpi\n      dup3\n      swap1\n      sub\n      0x1f\n      and\n      dup3\n      add\n      swap2\n    tag_125:\n      pop\n      pop\n      pop\n      pop\n      pop\n      dup2\n      mstore\n      0x20\n      add\n      0x03\n      dup3\n      add\n      sload\n      dup2\n      mstore\n      0x20\n      add\n      0x04\n      dup3\n      add\n      dup1\n      sload\n      tag_128\n      swap1\n      tag_73\n      jump\t// in\n    tag_128:\n      dup1\n      0x1f\n      add\n      0x20\n      dup1\n      swap2\n      div\n      mul\n      0x20\n      add\n      mload(0x40)\n      swap1\n      dup2\n      add\n      0x40\n      mstore\n      dup1\n      swap3\n      swap2\n      swap1\n      dup2\n      dup2\n      mstore\n      0x20\n      add\n      dup3\n      dup1\n      sload\n      tag_129\n      swap1\n      tag_73\n      jump\t// in\n    tag_129:\n      dup1\n      iszero\n      tag_130\n      jumpi\n      dup1\n      0x1f\n      lt\n      tag_131\n      jumpi\n      0x0100\n      dup1\n      dup4\n      sload\n      div\n      mul\n      dup4\n      mstore\n      swap2\n      0x20\n      add\n      swap2\n      jump(tag_130)\n    tag_131:\n      dup3\n      add\n      swap2\n      swap1\n      0x00\n      mstore\n      keccak256(0x00, 0x20)\n      swap1\n    tag_132:\n      dup2\n      sload\n      dup2\n      mstore\n      swap1\n      0x01\n      add\n      swap1\n      0x20\n      add\n      dup1\n      dup4\n      gt\n      tag_132\n      jumpi\n      dup3\n      swap1\n      sub\n      0x1f\n      and\n      dup3\n      add\n      swap2\n    tag_130:\n      pop\n      pop\n      pop\n      pop\n      pop\n      dup2\n      mstore\n      0x20\n      add\n      0x05\n      dup3\n      add\n      0x00\n      swap1\n      sload\n      swap1\n      0x0100\n      exp\n      swap1\n      div\n      0xffffffffffffffffffffffffffffffffffffffff\n      and\n      0xffffffffffffffffffffffffffffffffffffffff\n      and\n      0xffffffffffffffffffffffffffffffffffffffff\n      and\n      dup2\n      mstore\n      0x20\n      add\n      0x06\n      dup3\n      add\n      sload\n      dup2\n      mstore\n      pop\n      pop\n        /* \"Voting Contract/myVoting.sol\":5332:5346  candidatesList */\n      dup3\n        /* \"Voting Contract/myVoting.sol\":5349:5350  1 */\n      0x01\n        /* \"Voting Contract/myVoting.sol\":5347:5348  i */\n      dup4\n        /* \"Voting Contract/myVoting.sol\":5347:5350  i-1 */\n      tag_133\n      swap2\n      swap1\n      tag_61\n      jump\t// in\n    tag_133:\n        /* \"Voting Contract/myVoting.sol\":5332:5351  candidatesList[i-1] */\n      dup2\n      mload\n      dup2\n      lt\n      tag_134\n      jumpi\n      tag_135\n      tag_86\n      jump\t// in\n    tag_135:\n    tag_134:\n      0x20\n      mul\n      0x20\n      add\n      add\n        /* \"Voting Contract/myVoting.sol\":5332:5373  candidatesList[i-1] = CandidateDetails[i] */\n      dup2\n      swap1\n      mstore\n      pop\n        /* \"Voting Contract/myVoting.sol\":5313:5316  i++ */\n      dup1\n      dup1\n      tag_136\n      swap1\n      tag_88\n      jump\t// in\n    tag_136:\n      swap2\n      pop\n      pop\n        /* \"Voting Contract/myVoting.sol\":5280:5385  for(uint i=1; i<nextCandidateID; i++){... */\n      jump(tag_115)\n    tag_116:\n      pop\n        /* \"Voting Contract/myVoting.sol\":5402:5416  candidatesList */\n      dup1\n        /* \"Voting Contract/myVoting.sol\":5395:5416  return candidatesList */\n      swap2\n      pop\n      pop\n        /* \"Voting Contract/myVoting.sol\":5124:5424  function candidateList() public view returns(Candidate[] memory){... */\n      swap1\n      jump\t// out\n        /* \"Voting Contract/myVoting.sol\":4364:4675  function voterRegistrationSet(uint _registrationStart, uint _registrationStop) public onlyElectionComission() {... */\n    tag_30:\n        /* \"Voting Contract/myVoting.sol\":1369:1386  ElectionComission */\n      0x08\n      0x00\n      swap1\n      sload\n      swap1\n      0x0100\n      exp\n      swap1\n      div\n      0xffffffffffffffffffffffffffffffffffffffff\n      and\n        /* \"Voting Contract/myVoting.sol\":1355:1386  msg.sender == ElectionComission */\n      0xffffffffffffffffffffffffffffffffffffffff\n      and\n        /* \"Voting Contract/myVoting.sol\":1355:1365  msg.sender */\n      caller\n        /* \"Voting Contract/myVoting.sol\":1355:1386  msg.sender == ElectionComission */\n      0xffffffffffffffffffffffffffffffffffffffff\n      and\n      eq\n        /* \"Voting Contract/myVoting.sol\":1347:1426  require(msg.sender == ElectionComission, \"You are not from election comission\") */\n      tag_138\n      jumpi\n      mload(0x40)\n      0x08c379a000000000000000000000000000000000000000000000000000000000\n      dup2\n      mstore\n      0x04\n      add\n      tag_139\n      swap1\n      tag_92\n      jump\t// in\n    tag_139:\n      mload(0x40)\n      dup1\n      swap2\n      sub\n      swap1\n      revert\n    tag_138:\n        /* \"Voting Contract/myVoting.sol\":4508:4512  true */\n      0x01\n        /* \"Voting Contract/myVoting.sol\":4485:4505  votingConductionTime */\n      0x05\n      0x00\n        /* \"Voting Contract/myVoting.sol\":4485:4512  votingConductionTime = true */\n      0x0100\n      exp\n      dup2\n      sload\n      dup2\n      0xff\n      mul\n      not\n      and\n      swap1\n      dup4\n      iszero\n      iszero\n      mul\n      or\n      swap1\n      sstore\n      pop\n        /* \"Voting Contract/myVoting.sol\":4567:4585  _registrationStart */\n      dup2\n        /* \"Voting Contract/myVoting.sol\":4549:4564  block.timestamp */\n      timestamp\n        /* \"Voting Contract/myVoting.sol\":4549:4585  block.timestamp + _registrationStart */\n      tag_141\n      swap2\n      swap1\n      tag_142\n      jump\t// in\n    tag_141:\n        /* \"Voting Contract/myVoting.sol\":4523:4546  voting_Conduction_Start */\n      0x03\n        /* \"Voting Contract/myVoting.sol\":4523:4585  voting_Conduction_Start = block.timestamp + _registrationStart */\n      dup2\n      swap1\n      sstore\n      pop\n        /* \"Voting Contract/myVoting.sol\":4650:4667  _registrationStop */\n      dup1\n        /* \"Voting Contract/myVoting.sol\":4620:4647  candidate_Registraion_Start */\n      sload(0x00)\n        /* \"Voting Contract/myVoting.sol\":4620:4667  candidate_Registraion_Start + _registrationStop */\n      tag_143\n      swap2\n      swap1\n      tag_142\n      jump\t// in\n    tag_143:\n        /* \"Voting Contract/myVoting.sol\":4596:4617  voting_Conduction_End */\n      0x04\n        /* \"Voting Contract/myVoting.sol\":4596:4667  voting_Conduction_End = candidate_Registraion_Start + _registrationStop */\n      dup2\n      swap1\n      sstore\n      pop\n        /* \"Voting Contract/myVoting.sol\":4364:4675  function voterRegistrationSet(uint _registrationStart, uint _registrationStop) public onlyElectionComission() {... */\n      pop\n      pop\n      jump\t// out\n        /* \"Voting Contract/myVoting.sol\":3662:4067  function voterRegistration(... */\n    tag_34:\n        /* \"Voting Contract/myVoting.sol\":1698:1728  voterRegistrationPhaseStatus() */\n      tag_145\n        /* \"Voting Contract/myVoting.sol\":1698:1726  voterRegistrationPhaseStatus */\n      tag_146\n        /* \"Voting Contract/myVoting.sol\":1698:1728  voterRegistrationPhaseStatus() */\n      jump\t// in\n    tag_145:\n        /* \"Voting Contract/myVoting.sol\":1771:1775  true */\n      0x01\n        /* \"Voting Contract/myVoting.sol\":1747:1775  votingConductionTime == true */\n      iszero\n      iszero\n        /* \"Voting Contract/myVoting.sol\":1747:1767  votingConductionTime */\n      0x05\n      0x00\n      swap1\n      sload\n      swap1\n      0x0100\n      exp\n      swap1\n      div\n      0xff\n      and\n        /* \"Voting Contract/myVoting.sol\":1747:1775  votingConductionTime == true */\n      iszero\n      iszero\n      eq\n        /* \"Voting Contract/myVoting.sol\":1739:1808  require(votingConductionTime == true, \"Voter registration is closed\") */\n      tag_147\n      jumpi\n      mload(0x40)\n      0x08c379a000000000000000000000000000000000000000000000000000000000\n      dup2\n      mstore\n      0x04\n      add\n      tag_148\n      swap1\n      tag_149\n      jump\t// in\n    tag_148:\n      mload(0x40)\n      dup1\n      swap2\n      sub\n      swap1\n      revert\n    tag_147:\n        /* \"Voting Contract/myVoting.sol\":3837:3839  18 */\n      0x12\n        /* \"Voting Contract/myVoting.sol\":3829:3833  _age */\n      dup3\n        /* \"Voting Contract/myVoting.sol\":3829:3839  _age >= 18 */\n      lt\n      iszero\n        /* \"Voting Contract/myVoting.sol\":3821:3862  require(_age >= 18, \"Youa are under age\") */\n      tag_151\n      jumpi\n      mload(0x40)\n      0x08c379a000000000000000000000000000000000000000000000000000000000\n      dup2\n      mstore\n      0x04\n      add\n      tag_152\n      swap1\n      tag_153\n      jump\t// in\n    tag_152:\n      mload(0x40)\n      dup1\n      swap2\n      sub\n      swap1\n      revert\n    tag_151:\n        /* \"Voting Contract/myVoting.sol\":3914:3918  true */\n      0x01\n        /* \"Voting Contract/myVoting.sol\":3881:3918  voterVerification(msg.sender) == true */\n      iszero\n      iszero\n        /* \"Voting Contract/myVoting.sol\":3881:3910  voterVerification(msg.sender) */\n      tag_154\n        /* \"Voting Contract/myVoting.sol\":3899:3909  msg.sender */\n      caller\n        /* \"Voting Contract/myVoting.sol\":3881:3898  voterVerification */\n      tag_155\n        /* \"Voting Contract/myVoting.sol\":3881:3910  voterVerification(msg.sender) */\n      jump\t// in\n    tag_154:\n        /* \"Voting Contract/myVoting.sol\":3881:3918  voterVerification(msg.sender) == true */\n      iszero\n      iszero\n      eq\n        /* \"Voting Contract/myVoting.sol\":3873:3940  require(voterVerification(msg.sender) == true, \"Already registerd\") */\n      tag_156\n      jumpi\n      mload(0x40)\n      0x08c379a000000000000000000000000000000000000000000000000000000000\n      dup2\n      mstore\n      0x04\n      add\n      tag_157\n      swap1\n      tag_158\n      jump\t// in\n    tag_157:\n      mload(0x40)\n      dup1\n      swap2\n      sub\n      swap1\n      revert\n    tag_156:\n        /* \"Voting Contract/myVoting.sol\":3980:4035  Voter(_name, _age, nextVoterID, _gender, 0, msg.sender) */\n      mload(0x40)\n      dup1\n      0xc0\n      add\n      0x40\n      mstore\n      dup1\n        /* \"Voting Contract/myVoting.sol\":3986:3991  _name */\n      dup5\n        /* \"Voting Contract/myVoting.sol\":3980:4035  Voter(_name, _age, nextVoterID, _gender, 0, msg.sender) */\n      dup2\n      mstore\n      0x20\n      add\n        /* \"Voting Contract/myVoting.sol\":3993:3997  _age */\n      dup4\n        /* \"Voting Contract/myVoting.sol\":3980:4035  Voter(_name, _age, nextVoterID, _gender, 0, msg.sender) */\n      dup2\n      mstore\n      0x20\n      add\n        /* \"Voting Contract/myVoting.sol\":3999:4010  nextVoterID */\n      sload(0x0a)\n        /* \"Voting Contract/myVoting.sol\":3980:4035  Voter(_name, _age, nextVoterID, _gender, 0, msg.sender) */\n      dup2\n      mstore\n      0x20\n      add\n        /* \"Voting Contract/myVoting.sol\":4012:4019  _gender */\n      dup3\n        /* \"Voting Contract/myVoting.sol\":3980:4035  Voter(_name, _age, nextVoterID, _gender, 0, msg.sender) */\n      dup2\n      mstore\n      0x20\n      add\n        /* \"Voting Contract/myVoting.sol\":4021:4022  0 */\n      0x00\n        /* \"Voting Contract/myVoting.sol\":3980:4035  Voter(_name, _age, nextVoterID, _gender, 0, msg.sender) */\n      dup2\n      mstore\n      0x20\n      add\n        /* \"Voting Contract/myVoting.sol\":4024:4034  msg.sender */\n      caller\n        /* \"Voting Contract/myVoting.sol\":3980:4035  Voter(_name, _age, nextVoterID, _gender, 0, msg.sender) */\n      0xffffffffffffffffffffffffffffffffffffffff\n      and\n      dup2\n      mstore\n      pop\n        /* \"Voting Contract/myVoting.sol\":3952:3964  VoterDetails */\n      0x07\n        /* \"Voting Contract/myVoting.sol\":3952:3977  VoterDetails[nextVoterID] */\n      0x00\n        /* \"Voting Contract/myVoting.sol\":3965:3976  nextVoterID */\n      sload(0x0a)\n        /* \"Voting Contract/myVoting.sol\":3952:3977  VoterDetails[nextVoterID] */\n      dup2\n      mstore\n      0x20\n      add\n      swap1\n      dup2\n      mstore\n      0x20\n      add\n      0x00\n      keccak256\n        /* \"Voting Contract/myVoting.sol\":3952:4035  VoterDetails[nextVoterID] = Voter(_name, _age, nextVoterID, _gender, 0, msg.sender) */\n      0x00\n      dup3\n      add\n      mload\n      dup2\n      0x00\n      add\n      swap1\n      dup2\n      tag_159\n      swap2\n      swap1\n      tag_160\n      jump\t// in\n    tag_159:\n      pop\n      0x20\n      dup3\n      add\n      mload\n      dup2\n      0x01\n      add\n      sstore\n      0x40\n      dup3\n      add\n      mload\n      dup2\n      0x02\n      add\n      sstore\n      0x60\n      dup3\n      add\n      mload\n      dup2\n      0x03\n      add\n      swap1\n      dup2\n      tag_161\n      swap2\n      swap1\n      tag_160\n      jump\t// in\n    tag_161:\n      pop\n      0x80\n      dup3\n      add\n      mload\n      dup2\n      0x04\n      add\n      sstore\n      0xa0\n      dup3\n      add\n      mload\n      dup2\n      0x05\n      add\n      exp(0x0100, 0x00)\n      dup2\n      sload\n      dup2\n      0xffffffffffffffffffffffffffffffffffffffff\n      mul\n      not\n      and\n      swap1\n      dup4\n      0xffffffffffffffffffffffffffffffffffffffff\n      and\n      mul\n      or\n      swap1\n      sstore\n      pop\n      swap1\n      pop\n      pop\n        /* \"Voting Contract/myVoting.sol\":4046:4057  nextVoterID */\n      0x0a\n      0x00\n        /* \"Voting Contract/myVoting.sol\":4046:4059  nextVoterID++ */\n      dup2\n      sload\n      dup1\n      swap3\n      swap2\n      swap1\n      tag_162\n      swap1\n      tag_88\n      jump\t// in\n    tag_162:\n      swap2\n      swap1\n      pop\n      sstore\n      pop\n        /* \"Voting Contract/myVoting.sol\":3662:4067  function voterRegistration(... */\n      pop\n      pop\n      pop\n      jump\t// out\n        /* \"Voting Contract/myVoting.sol\":1895:2631  function candidateRegister(... */\n    tag_38:\n        /* \"Voting Contract/myVoting.sol\":1501:1535  candidateRegistrationPhaseStatus() */\n      tag_164\n        /* \"Voting Contract/myVoting.sol\":1501:1533  candidateRegistrationPhaseStatus */\n      tag_165\n        /* \"Voting Contract/myVoting.sol\":1501:1535  candidateRegistrationPhaseStatus() */\n      jump\t// in\n    tag_164:\n        /* \"Voting Contract/myVoting.sol\":1585:1589  true */\n      0x01\n        /* \"Voting Contract/myVoting.sol\":1554:1589  candidate_Registration_Time == true */\n      iszero\n      iszero\n        /* \"Voting Contract/myVoting.sol\":1554:1581  candidate_Registration_Time */\n      0x02\n      0x00\n      swap1\n      sload\n      swap1\n      0x0100\n      exp\n      swap1\n      div\n      0xff\n      and\n        /* \"Voting Contract/myVoting.sol\":1554:1589  candidate_Registration_Time == true */\n      iszero\n      iszero\n      eq\n        /* \"Voting Contract/myVoting.sol\":1546:1626  require(candidate_Registration_Time == true, \"Candidate Registration is closed\") */\n      tag_166\n      jumpi\n      mload(0x40)\n      0x08c379a000000000000000000000000000000000000000000000000000000000\n      dup2\n      mstore\n      0x04\n      add\n      tag_167\n      swap1\n      tag_168\n      jump\t// in\n    tag_167:\n      mload(0x40)\n      dup1\n      swap2\n      sub\n      swap1\n      revert\n    tag_166:\n        /* \"Voting Contract/myVoting.sol\":2113:2130  ElectionComission */\n      0x08\n      0x00\n      swap1\n      sload\n      swap1\n      0x0100\n      exp\n      swap1\n      div\n      0xffffffffffffffffffffffffffffffffffffffff\n      and\n        /* \"Voting Contract/myVoting.sol\":2099:2130  msg.sender != ElectionComission */\n      0xffffffffffffffffffffffffffffffffffffffff\n      and\n        /* \"Voting Contract/myVoting.sol\":2099:2109  msg.sender */\n      caller\n        /* \"Voting Contract/myVoting.sol\":2099:2130  msg.sender != ElectionComission */\n      0xffffffffffffffffffffffffffffffffffffffff\n      and\n      sub\n        /* \"Voting Contract/myVoting.sol\":2091:2166  require(msg.sender != ElectionComission, \"You are from election comission\") */\n      tag_170\n      jumpi\n      mload(0x40)\n      0x08c379a000000000000000000000000000000000000000000000000000000000\n      dup2\n      mstore\n      0x04\n      add\n      tag_171\n      swap1\n      tag_172\n      jump\t// in\n    tag_171:\n      mload(0x40)\n      dup1\n      swap2\n      sub\n      swap1\n      revert\n    tag_170:\n        /* \"Voting Contract/myVoting.sol\":2193:2195  18 */\n      0x12\n        /* \"Voting Contract/myVoting.sol\":2185:2189  _age */\n      dup4\n        /* \"Voting Contract/myVoting.sol\":2185:2195  _age >= 18 */\n      lt\n      iszero\n        /* \"Voting Contract/myVoting.sol\":2177:2218  require(_age >= 18, \"Youa are under age\") */\n      tag_173\n      jumpi\n      mload(0x40)\n      0x08c379a000000000000000000000000000000000000000000000000000000000\n      dup2\n      mstore\n      0x04\n      add\n      tag_174\n      swap1\n      tag_153\n      jump\t// in\n    tag_174:\n      mload(0x40)\n      dup1\n      swap2\n      sub\n      swap1\n      revert\n    tag_173:\n        /* \"Voting Contract/myVoting.sol\":2274:2278  true */\n      0x01\n        /* \"Voting Contract/myVoting.sol\":2237:2278  candidateVerification(msg.sender) == true */\n      iszero\n      iszero\n        /* \"Voting Contract/myVoting.sol\":2237:2270  candidateVerification(msg.sender) */\n      tag_175\n        /* \"Voting Contract/myVoting.sol\":2259:2269  msg.sender */\n      caller\n        /* \"Voting Contract/myVoting.sol\":2237:2258  candidateVerification */\n      tag_176\n        /* \"Voting Contract/myVoting.sol\":2237:2270  candidateVerification(msg.sender) */\n      jump\t// in\n    tag_175:\n        /* \"Voting Contract/myVoting.sol\":2237:2278  candidateVerification(msg.sender) == true */\n      iszero\n      iszero\n      eq\n        /* \"Voting Contract/myVoting.sol\":2229:2300  require(candidateVerification(msg.sender) == true, \"Already registerd\") */\n      tag_177\n      jumpi\n      mload(0x40)\n      0x08c379a000000000000000000000000000000000000000000000000000000000\n      dup2\n      mstore\n      0x04\n      add\n      tag_178\n      swap1\n      tag_158\n      jump\t// in\n    tag_178:\n      mload(0x40)\n      dup1\n      swap2\n      sub\n      swap1\n      revert\n    tag_177:\n        /* \"Voting Contract/myVoting.sol\":2347:2477  Candidate(_name, ... */\n      mload(0x40)\n      dup1\n      0xe0\n      add\n      0x40\n      mstore\n      dup1\n        /* \"Voting Contract/myVoting.sol\":2357:2362  _name */\n      dup7\n      dup7\n        /* \"Voting Contract/myVoting.sol\":2347:2477  Candidate(_name, ... */\n      dup1\n      dup1\n      0x1f\n      add\n      0x20\n      dup1\n      swap2\n      div\n      mul\n      0x20\n      add\n      mload(0x40)\n      swap1\n      dup2\n      add\n      0x40\n      mstore\n      dup1\n      swap4\n      swap3\n      swap2\n      swap1\n      dup2\n      dup2\n      mstore\n      0x20\n      add\n      dup4\n      dup4\n      dup1\n      dup3\n      dup5\n      calldatacopy\n      0x00\n      dup2\n      dup5\n      add\n      mstore\n      not(0x1f)\n      0x1f\n      dup3\n      add\n      and\n      swap1\n      pop\n      dup1\n      dup4\n      add\n      swap3\n      pop\n      pop\n      pop\n      pop\n      pop\n      pop\n      pop\n      dup2\n      mstore\n      0x20\n      add\n        /* \"Voting Contract/myVoting.sol\":2374:2378  _age */\n      dup5\n        /* \"Voting Contract/myVoting.sol\":2347:2477  Candidate(_name, ... */\n      dup2\n      mstore\n      0x20\n      add\n        /* \"Voting Contract/myVoting.sol\":2390:2396  _party */\n      dup4\n        /* \"Voting Contract/myVoting.sol\":2347:2477  Candidate(_name, ... */\n      dup2\n      mstore\n      0x20\n      add\n        /* \"Voting Contract/myVoting.sol\":2408:2423  nextCandidateID */\n      sload(0x0b)\n        /* \"Voting Contract/myVoting.sol\":2347:2477  Candidate(_name, ... */\n      dup2\n      mstore\n      0x20\n      add\n        /* \"Voting Contract/myVoting.sol\":2435:2442  _gender */\n      dup3\n        /* \"Voting Contract/myVoting.sol\":2347:2477  Candidate(_name, ... */\n      dup2\n      mstore\n      0x20\n      add\n        /* \"Voting Contract/myVoting.sol\":2453:2463  msg.sender */\n      caller\n        /* \"Voting Contract/myVoting.sol\":2347:2477  Candidate(_name, ... */\n      0xffffffffffffffffffffffffffffffffffffffff\n      and\n      dup2\n      mstore\n      0x20\n      add\n        /* \"Voting Contract/myVoting.sol\":2474:2475  0 */\n      0x00\n        /* \"Voting Contract/myVoting.sol\":2347:2477  Candidate(_name, ... */\n      dup2\n      mstore\n      pop\n        /* \"Voting Contract/myVoting.sol\":2311:2327  CandidateDetails */\n      0x06\n        /* \"Voting Contract/myVoting.sol\":2311:2344  CandidateDetails[nextCandidateID] */\n      0x00\n        /* \"Voting Contract/myVoting.sol\":2328:2343  nextCandidateID */\n      sload(0x0b)\n        /* \"Voting Contract/myVoting.sol\":2311:2344  CandidateDetails[nextCandidateID] */\n      dup2\n      mstore\n      0x20\n      add\n      swap1\n      dup2\n      mstore\n      0x20\n      add\n      0x00\n      keccak256\n        /* \"Voting Contract/myVoting.sol\":2311:2477  CandidateDetails[nextCandidateID] = Candidate(_name, ... */\n      0x00\n      dup3\n      add\n      mload\n      dup2\n      0x00\n      add\n      swap1\n      dup2\n      tag_179\n      swap2\n      swap1\n      tag_160\n      jump\t// in\n    tag_179:\n      pop\n      0x20\n      dup3\n      add\n      mload\n      dup2\n      0x01\n      add\n      sstore\n      0x40\n      dup3\n      add\n      mload\n      dup2\n      0x02\n      add\n      swap1\n      dup2\n      tag_180\n      swap2\n      swap1\n      tag_160\n      jump\t// in\n    tag_180:\n      pop\n      0x60\n      dup3\n      add\n      mload\n      dup2\n      0x03\n      add\n      sstore\n      0x80\n      dup3\n      add\n      mload\n      dup2\n      0x04\n      add\n      swap1\n      dup2\n      tag_181\n      swap2\n      swap1\n      tag_160\n      jump\t// in\n    tag_181:\n      pop\n      0xa0\n      dup3\n      add\n      mload\n      dup2\n      0x05\n      add\n      exp(0x0100, 0x00)\n      dup2\n      sload\n      dup2\n      0xffffffffffffffffffffffffffffffffffffffff\n      mul\n      not\n      and\n      swap1\n      dup4\n      0xffffffffffffffffffffffffffffffffffffffff\n      and\n      mul\n      or\n      swap1\n      sstore\n      pop\n      0xc0\n      dup3\n      add\n      mload\n      dup2\n      0x06\n      add\n      sstore\n      swap1\n      pop\n      pop\n        /* \"Voting Contract/myVoting.sol\":2488:2503  nextCandidateID */\n      0x0b\n      0x00\n        /* \"Voting Contract/myVoting.sol\":2488:2505  nextCandidateID++ */\n      dup2\n      sload\n      dup1\n      swap3\n      swap2\n      swap1\n      tag_182\n      swap1\n      tag_88\n      jump\t// in\n    tag_182:\n      swap2\n      swap1\n      pop\n      sstore\n      pop\n        /* \"Voting Contract/myVoting.sol\":2544:2599  Voter(_name, _age, nextVoterID, _gender, 0, msg.sender) */\n      mload(0x40)\n      dup1\n      0xc0\n      add\n      0x40\n      mstore\n      dup1\n        /* \"Voting Contract/myVoting.sol\":2550:2555  _name */\n      dup7\n      dup7\n        /* \"Voting Contract/myVoting.sol\":2544:2599  Voter(_name, _age, nextVoterID, _gender, 0, msg.sender) */\n      dup1\n      dup1\n      0x1f\n      add\n      0x20\n      dup1\n      swap2\n      div\n      mul\n      0x20\n      add\n      mload(0x40)\n      swap1\n      dup2\n      add\n      0x40\n      mstore\n      dup1\n      swap4\n      swap3\n      swap2\n      swap1\n      dup2\n      dup2\n      mstore\n      0x20\n      add\n      dup4\n      dup4\n      dup1\n      dup3\n      dup5\n      calldatacopy\n      0x00\n      dup2\n      dup5\n      add\n      mstore\n      not(0x1f)\n      0x1f\n      dup3\n      add\n      and\n      swap1\n      pop\n      dup1\n      dup4\n      add\n      swap3\n      pop\n      pop\n      pop\n      pop\n      pop\n      pop\n      pop\n      dup2\n      mstore\n      0x20\n      add\n        /* \"Voting Contract/myVoting.sol\":2557:2561  _age */\n      dup5\n        /* \"Voting Contract/myVoting.sol\":2544:2599  Voter(_name, _age, nextVoterID, _gender, 0, msg.sender) */\n      dup2\n      mstore\n      0x20\n      add\n        /* \"Voting Contract/myVoting.sol\":2563:2574  nextVoterID */\n      sload(0x0a)\n        /* \"Voting Contract/myVoting.sol\":2544:2599  Voter(_name, _age, nextVoterID, _gender, 0, msg.sender) */\n      dup2\n      mstore\n      0x20\n      add\n        /* \"Voting Contract/myVoting.sol\":2576:2583  _gender */\n      dup3\n        /* \"Voting Contract/myVoting.sol\":2544:2599  Voter(_name, _age, nextVoterID, _gender, 0, msg.sender) */\n      dup2\n      mstore\n      0x20\n      add\n        /* \"Voting Contract/myVoting.sol\":2585:2586  0 */\n      0x00\n        /* \"Voting Contract/myVoting.sol\":2544:2599  Voter(_name, _age, nextVoterID, _gender, 0, msg.sender) */\n      dup2\n      mstore\n      0x20\n      add\n        /* \"Voting Contract/myVoting.sol\":2588:2598  msg.sender */\n      caller\n        /* \"Voting Contract/myVoting.sol\":2544:2599  Voter(_name, _age, nextVoterID, _gender, 0, msg.sender) */\n      0xffffffffffffffffffffffffffffffffffffffff\n      and\n      dup2\n      mstore\n      pop\n        /* \"Voting Contract/myVoting.sol\":2516:2528  VoterDetails */\n      0x07\n        /* \"Voting Contract/myVoting.sol\":2516:2541  VoterDetails[nextVoterID] */\n      0x00\n        /* \"Voting Contract/myVoting.sol\":2529:2540  nextVoterID */\n      sload(0x0a)\n        /* \"Voting Contract/myVoting.sol\":2516:2541  VoterDetails[nextVoterID] */\n      dup2\n      mstore\n      0x20\n      add\n      swap1\n      dup2\n      mstore\n      0x20\n      add\n      0x00\n      keccak256\n        /* \"Voting Contract/myVoting.sol\":2516:2599  VoterDetails[nextVoterID] = Voter(_name, _age, nextVoterID, _gender, 0, msg.sender) */\n      0x00\n      dup3\n      add\n      mload\n      dup2\n      0x00\n      add\n      swap1\n      dup2\n      tag_183\n      swap2\n      swap1\n      tag_160\n      jump\t// in\n    tag_183:\n      pop\n      0x20\n      dup3\n      add\n      mload\n      dup2\n      0x01\n      add\n      sstore\n      0x40\n      dup3\n      add\n      mload\n      dup2\n      0x02\n      add\n      sstore\n      0x60\n      dup3\n      add\n      mload\n      dup2\n      0x03\n      add\n      swap1\n      dup2\n      tag_184\n      swap2\n      swap1\n      tag_160\n      jump\t// in\n    tag_184:\n      pop\n      0x80\n      dup3\n      add\n      mload\n      dup2\n      0x04\n      add\n      sstore\n      0xa0\n      dup3\n      add\n      mload\n      dup2\n      0x05\n      add\n      exp(0x0100, 0x00)\n      dup2\n      sload\n      dup2\n      0xffffffffffffffffffffffffffffffffffffffff\n      mul\n      not\n      and\n      swap1\n      dup4\n      0xffffffffffffffffffffffffffffffffffffffff\n      and\n      mul\n      or\n      swap1\n      sstore\n      pop\n      swap1\n      pop\n      pop\n        /* \"Voting Contract/myVoting.sol\":2610:2621  nextVoterID */\n      0x0a\n      0x00\n        /* \"Voting Contract/myVoting.sol\":2610:2623  nextVoterID++ */\n      dup2\n      sload\n      dup1\n      swap3\n      swap2\n      swap1\n      tag_185\n      swap1\n      tag_88\n      jump\t// in\n    tag_185:\n      swap2\n      swap1\n      pop\n      sstore\n      pop\n        /* \"Voting Contract/myVoting.sol\":1895:2631  function candidateRegister(... */\n      pop\n      pop\n      pop\n      pop\n      pop\n      jump\t// out\n        /* \"Voting Contract/myVoting.sol\":841:889  mapping(uint=>Candidate) public CandidateDetails */\n    tag_42:\n      mstore(0x20, 0x06)\n      dup1\n      0x00\n      mstore\n      keccak256(0x00, 0x40)\n      0x00\n      swap2\n      pop\n      swap1\n      pop\n      dup1\n      0x00\n      add\n      dup1\n      sload\n      tag_186\n      swap1\n      tag_73\n      jump\t// in\n    tag_186:\n      dup1\n      0x1f\n      add\n      0x20\n      dup1\n      swap2\n      div\n      mul\n      0x20\n      add\n      mload(0x40)\n      swap1\n      dup2\n      add\n      0x40\n      mstore\n      dup1\n      swap3\n      swap2\n      swap1\n      dup2\n      dup2\n      mstore\n      0x20\n      add\n      dup3\n      dup1\n      sload\n      tag_187\n      swap1\n      tag_73\n      jump\t// in\n    tag_187:\n      dup1\n      iszero\n      tag_188\n      jumpi\n      dup1\n      0x1f\n      lt\n      tag_189\n      jumpi\n      0x0100\n      dup1\n      dup4\n      sload\n      div\n      mul\n      dup4\n      mstore\n      swap2\n      0x20\n      add\n      swap2\n      jump(tag_188)\n    tag_189:\n      dup3\n      add\n      swap2\n      swap1\n      0x00\n      mstore\n      keccak256(0x00, 0x20)\n      swap1\n    tag_190:\n      dup2\n      sload\n      dup2\n      mstore\n      swap1\n      0x01\n      add\n      swap1\n      0x20\n      add\n      dup1\n      dup4\n      gt\n      tag_190\n      jumpi\n      dup3\n      swap1\n      sub\n      0x1f\n      and\n      dup3\n      add\n      swap2\n    tag_188:\n      pop\n      pop\n      pop\n      pop\n      pop\n      swap1\n      dup1\n      0x01\n      add\n      sload\n      swap1\n      dup1\n      0x02\n      add\n      dup1\n      sload\n      tag_191\n      swap1\n      tag_73\n      jump\t// in\n    tag_191:\n      dup1\n      0x1f\n      add\n      0x20\n      dup1\n      swap2\n      div\n      mul\n      0x20\n      add\n      mload(0x40)\n      swap1\n      dup2\n      add\n      0x40\n      mstore\n      dup1\n      swap3\n      swap2\n      swap1\n      dup2\n      dup2\n      mstore\n      0x20\n      add\n      dup3\n      dup1\n      sload\n      tag_192\n      swap1\n      tag_73\n      jump\t// in\n    tag_192:\n      dup1\n      iszero\n      tag_193\n      jumpi\n      dup1\n      0x1f\n      lt\n      tag_194\n      jumpi\n      0x0100\n      dup1\n      dup4\n      sload\n      div\n      mul\n      dup4\n      mstore\n      swap2\n      0x20\n      add\n      swap2\n      jump(tag_193)\n    tag_194:\n      dup3\n      add\n      swap2\n      swap1\n      0x00\n      mstore\n      keccak256(0x00, 0x20)\n      swap1\n    tag_195:\n      dup2\n      sload\n      dup2\n      mstore\n      swap1\n      0x01\n      add\n      swap1\n      0x20\n      add\n      dup1\n      dup4\n      gt\n      tag_195\n      jumpi\n      dup3\n      swap1\n      sub\n      0x1f\n      and\n      dup3\n      add\n      swap2\n    tag_193:\n      pop\n      pop\n      pop\n      pop\n      pop\n      swap1\n      dup1\n      0x03\n      add\n      sload\n      swap1\n      dup1\n      0x04\n      add\n      dup1\n      sload\n      tag_196\n      swap1\n      tag_73\n      jump\t// in\n    tag_196:\n      dup1\n      0x1f\n      add\n      0x20\n      dup1\n      swap2\n      div\n      mul\n      0x20\n      add\n      mload(0x40)\n      swap1\n      dup2\n      add\n      0x40\n      mstore\n      dup1\n      swap3\n      swap2\n      swap1\n      dup2\n      dup2\n      mstore\n      0x20\n      add\n      dup3\n      dup1\n      sload\n      tag_197\n      swap1\n      tag_73\n      jump\t// in\n    tag_197:\n      dup1\n      iszero\n      tag_198\n      jumpi\n      dup1\n      0x1f\n      lt\n      tag_199\n      jumpi\n      0x0100\n      dup1\n      dup4\n      sload\n      div\n      mul\n      dup4\n      mstore\n      swap2\n      0x20\n      add\n      swap2\n      jump(tag_198)\n    tag_199:\n      dup3\n      add\n      swap2\n      swap1\n      0x00\n      mstore\n      keccak256(0x00, 0x20)\n      swap1\n    tag_200:\n      dup2\n      sload\n      dup2\n      mstore\n      swap1\n      0x01\n      add\n      swap1\n      0x20\n      add\n      dup1\n      dup4\n      gt\n      tag_200\n      jumpi\n      dup3\n      swap1\n      sub\n      0x1f\n      and\n      dup3\n      add\n      swap2\n    tag_198:\n      pop\n      pop\n      pop\n      pop\n      pop\n      swap1\n      dup1\n      0x05\n      add\n      0x00\n      swap1\n      sload\n      swap1\n      0x0100\n      exp\n      swap1\n      div\n      0xffffffffffffffffffffffffffffffffffffffff\n      and\n      swap1\n      dup1\n      0x06\n      add\n      sload\n      swap1\n      pop\n      dup8\n      jump\t// out\n        /* \"Voting Contract/myVoting.sol\":896:936  mapping(uint=>Voter) public VoterDetails */\n    tag_47:\n      mstore(0x20, 0x07)\n      dup1\n      0x00\n      mstore\n      keccak256(0x00, 0x40)\n      0x00\n      swap2\n      pop\n      swap1\n      pop\n      dup1\n      0x00\n      add\n      dup1\n      sload\n      tag_201\n      swap1\n      tag_73\n      jump\t// in\n    tag_201:\n      dup1\n      0x1f\n      add\n      0x20\n      dup1\n      swap2\n      div\n      mul\n      0x20\n      add\n      mload(0x40)\n      swap1\n      dup2\n      add\n      0x40\n      mstore\n      dup1\n      swap3\n      swap2\n      swap1\n      dup2\n      dup2\n      mstore\n      0x20\n      add\n      dup3\n      dup1\n      sload\n      tag_202\n      swap1\n      tag_73\n      jump\t// in\n    tag_202:\n      dup1\n      iszero\n      tag_203\n      jumpi\n      dup1\n      0x1f\n      lt\n      tag_204\n      jumpi\n      0x0100\n      dup1\n      dup4\n      sload\n      div\n      mul\n      dup4\n      mstore\n      swap2\n      0x20\n      add\n      swap2\n      jump(tag_203)\n    tag_204:\n      dup3\n      add\n      swap2\n      swap1\n      0x00\n      mstore\n      keccak256(0x00, 0x20)\n      swap1\n    tag_205:\n      dup2\n      sload\n      dup2\n      mstore\n      swap1\n      0x01\n      add\n      swap1\n      0x20\n      add\n      dup1\n      dup4\n      gt\n      tag_205\n      jumpi\n      dup3\n      swap1\n      sub\n      0x1f\n      and\n      dup3\n      add\n      swap2\n    tag_203:\n      pop\n      pop\n      pop\n      pop\n      pop\n      swap1\n      dup1\n      0x01\n      add\n      sload\n      swap1\n      dup1\n      0x02\n      add\n      sload\n      swap1\n      dup1\n      0x03\n      add\n      dup1\n      sload\n      tag_206\n      swap1\n      tag_73\n      jump\t// in\n    tag_206:\n      dup1\n      0x1f\n      add\n      0x20\n      dup1\n      swap2\n      div\n      mul\n      0x20\n      add\n      mload(0x40)\n      swap1\n      dup2\n      add\n      0x40\n      mstore\n      dup1\n      swap3\n      swap2\n      swap1\n      dup2\n      dup2\n      mstore\n      0x20\n      add\n      dup3\n      dup1\n      sload\n      tag_207\n      swap1\n      tag_73\n      jump\t// in\n    tag_207:\n      dup1\n      iszero\n      tag_208\n      jumpi\n      dup1\n      0x1f\n      lt\n      tag_209\n      jumpi\n      0x0100\n      dup1\n      dup4\n      sload\n      div\n      mul\n      dup4\n      mstore\n      swap2\n      0x20\n      add\n      swap2\n      jump(tag_208)\n    tag_209:\n      dup3\n      add\n      swap2\n      swap1\n      0x00\n      mstore\n      keccak256(0x00, 0x20)\n      swap1\n    tag_210:\n      dup2\n      sload\n      dup2\n      mstore\n      swap1\n      0x01\n      add\n      swap1\n      0x20\n      add\n      dup1\n      dup4\n      gt\n      tag_210\n      jumpi\n      dup3\n      swap1\n      sub\n      0x1f\n      and\n      dup3\n      add\n      swap2\n    tag_208:\n      pop\n      pop\n      pop\n      pop\n      pop\n      swap1\n      dup1\n      0x04\n      add\n      sload\n      swap1\n      dup1\n      0x05\n      add\n      0x00\n      swap1\n      sload\n      swap1\n      0x0100\n      exp\n      swap1\n      div\n      0xffffffffffffffffffffffffffffffffffffffff\n      and\n      swap1\n      pop\n      dup7\n      jump\t// out\n        /* \"Voting Contract/myVoting.sol\":5433:6025  function vote(uint _voterID, uint _ID) external {... */\n    tag_52:\n        /* \"Voting Contract/myVoting.sol\":5541:5542  0 */\n      0x00\n        /* \"Voting Contract/myVoting.sol\":5500:5512  VoterDetails */\n      0x07\n        /* \"Voting Contract/myVoting.sol\":5500:5522  VoterDetails[_voterID] */\n      0x00\n        /* \"Voting Contract/myVoting.sol\":5513:5521  _voterID */\n      dup5\n        /* \"Voting Contract/myVoting.sol\":5500:5522  VoterDetails[_voterID] */\n      dup2\n      mstore\n      0x20\n      add\n      swap1\n      dup2\n      mstore\n      0x20\n      add\n      0x00\n      keccak256\n        /* \"Voting Contract/myVoting.sol\":5500:5538  VoterDetails[_voterID].voteCandidateID */\n      0x04\n      add\n      sload\n        /* \"Voting Contract/myVoting.sol\":5500:5542  VoterDetails[_voterID].voteCandidateID ==0 */\n      eq\n        /* \"Voting Contract/myVoting.sol\":5492:5561  require(VoterDetails[_voterID].voteCandidateID ==0, \"You have voted\") */\n      tag_212\n      jumpi\n      mload(0x40)\n      0x08c379a000000000000000000000000000000000000000000000000000000000\n      dup2\n      mstore\n      0x04\n      add\n      tag_213\n      swap1\n      tag_214\n      jump\t// in\n    tag_213:\n      mload(0x40)\n      dup1\n      swap2\n      sub\n      swap1\n      revert\n    tag_212:\n        /* \"Voting Contract/myVoting.sol\":5619:5629  msg.sender */\n      caller\n        /* \"Voting Contract/myVoting.sol\":5580:5629  VoterDetails[_voterID].voterAddress == msg.sender */\n      0xffffffffffffffffffffffffffffffffffffffff\n      and\n        /* \"Voting Contract/myVoting.sol\":5580:5592  VoterDetails */\n      0x07\n        /* \"Voting Contract/myVoting.sol\":5580:5602  VoterDetails[_voterID] */\n      0x00\n        /* \"Voting Contract/myVoting.sol\":5593:5601  _voterID */\n      dup5\n        /* \"Voting Contract/myVoting.sol\":5580:5602  VoterDetails[_voterID] */\n      dup2\n      mstore\n      0x20\n      add\n      swap1\n      dup2\n      mstore\n      0x20\n      add\n      0x00\n      keccak256\n        /* \"Voting Contract/myVoting.sol\":5580:5615  VoterDetails[_voterID].voterAddress */\n      0x05\n      add\n      0x00\n      swap1\n      sload\n      swap1\n      0x0100\n      exp\n      swap1\n      div\n      0xffffffffffffffffffffffffffffffffffffffff\n      and\n        /* \"Voting Contract/myVoting.sol\":5580:5629  VoterDetails[_voterID].voterAddress == msg.sender */\n      0xffffffffffffffffffffffffffffffffffffffff\n      and\n      eq\n        /* \"Voting Contract/myVoting.sol\":5572:5666  require(VoterDetails[_voterID].voterAddress == msg.sender, \"You cant vote from others behalf\") */\n      tag_215\n      jumpi\n      mload(0x40)\n      0x08c379a000000000000000000000000000000000000000000000000000000000\n      dup2\n      mstore\n      0x04\n      add\n      tag_216\n      swap1\n      tag_217\n      jump\t// in\n    tag_216:\n      mload(0x40)\n      dup1\n      swap2\n      sub\n      swap1\n      revert\n    tag_215:\n        /* \"Voting Contract/myVoting.sol\":5704:5705  3 */\n      0x03\n        /* \"Voting Contract/myVoting.sol\":5685:5700  nextCandidateID */\n      sload(0x0b)\n        /* \"Voting Contract/myVoting.sol\":5685:5705  nextCandidateID >= 3 */\n      lt\n      iszero\n        /* \"Voting Contract/myVoting.sol\":5677:5750  require(nextCandidateID >= 3, \"Candidates are not registered completely\") */\n      tag_218\n      jumpi\n      mload(0x40)\n      0x08c379a000000000000000000000000000000000000000000000000000000000\n      dup2\n      mstore\n      0x04\n      add\n      tag_219\n      swap1\n      tag_220\n      jump\t// in\n    tag_219:\n      mload(0x40)\n      dup1\n      swap2\n      sub\n      swap1\n      revert\n    tag_218:\n        /* \"Voting Contract/myVoting.sol\":5794:5795  0 */\n      0x00\n        /* \"Voting Contract/myVoting.sol\":5769:5792  voting_Conduction_Start */\n      sload(0x03)\n        /* \"Voting Contract/myVoting.sol\":5769:5795  voting_Conduction_Start!=0 */\n      sub\n        /* \"Voting Contract/myVoting.sol\":5761:5821  require(voting_Conduction_Start!=0, \"Voting is not started\") */\n      tag_221\n      jumpi\n      mload(0x40)\n      0x08c379a000000000000000000000000000000000000000000000000000000000\n      dup2\n      mstore\n      0x04\n      add\n      tag_222\n      swap1\n      tag_223\n      jump\t// in\n    tag_222:\n      mload(0x40)\n      dup1\n      swap2\n      sub\n      swap1\n      revert\n    tag_221:\n        /* \"Voting Contract/myVoting.sol\":5846:5861  nextCandidateID */\n      sload(0x0b)\n        /* \"Voting Contract/myVoting.sol\":5840:5843  _ID */\n      dup2\n        /* \"Voting Contract/myVoting.sol\":5840:5861  _ID < nextCandidateID */\n      lt\n        /* \"Voting Contract/myVoting.sol\":5832:5890  require(_ID < nextCandidateID, \"Candidate does not exist\") */\n      tag_224\n      jumpi\n      mload(0x40)\n      0x08c379a000000000000000000000000000000000000000000000000000000000\n      dup2\n      mstore\n      0x04\n      add\n      tag_225\n      swap1\n      tag_226\n      jump\t// in\n    tag_225:\n      mload(0x40)\n      dup1\n      swap2\n      sub\n      swap1\n      revert\n    tag_224:\n        /* \"Voting Contract/myVoting.sol\":5942:5945  _ID */\n      dup1\n        /* \"Voting Contract/myVoting.sol\":5901:5913  VoterDetails */\n      0x07\n        /* \"Voting Contract/myVoting.sol\":5901:5923  VoterDetails[_voterID] */\n      0x00\n        /* \"Voting Contract/myVoting.sol\":5914:5922  _voterID */\n      dup5\n        /* \"Voting Contract/myVoting.sol\":5901:5923  VoterDetails[_voterID] */\n      dup2\n      mstore\n      0x20\n      add\n      swap1\n      dup2\n      mstore\n      0x20\n      add\n      0x00\n      keccak256\n        /* \"Voting Contract/myVoting.sol\":5901:5939  VoterDetails[_voterID].voteCandidateID */\n      0x04\n      add\n        /* \"Voting Contract/myVoting.sol\":5901:5945  VoterDetails[_voterID].voteCandidateID = _ID */\n      dup2\n      swap1\n      sstore\n      pop\n        /* \"Voting Contract/myVoting.sol\":6016:6017  1 */\n      0x01\n        /* \"Voting Contract/myVoting.sol\":5986:6002  CandidateDetails */\n      0x06\n        /* \"Voting Contract/myVoting.sol\":5986:6007  CandidateDetails[_ID] */\n      0x00\n        /* \"Voting Contract/myVoting.sol\":6003:6006  _ID */\n      dup4\n        /* \"Voting Contract/myVoting.sol\":5986:6007  CandidateDetails[_ID] */\n      dup2\n      mstore\n      0x20\n      add\n      swap1\n      dup2\n      mstore\n      0x20\n      add\n      0x00\n      keccak256\n        /* \"Voting Contract/myVoting.sol\":5986:6013  CandidateDetails[_ID].votes */\n      0x06\n      add\n      sload\n        /* \"Voting Contract/myVoting.sol\":5986:6017  CandidateDetails[_ID].votes + 1 */\n      tag_227\n      swap2\n      swap1\n      tag_142\n      jump\t// in\n    tag_227:\n        /* \"Voting Contract/myVoting.sol\":5956:5972  CandidateDetails */\n      0x06\n        /* \"Voting Contract/myVoting.sol\":5956:5977  CandidateDetails[_ID] */\n      0x00\n        /* \"Voting Contract/myVoting.sol\":5973:5976  _ID */\n      dup4\n        /* \"Voting Contract/myVoting.sol\":5956:5977  CandidateDetails[_ID] */\n      dup2\n      mstore\n      0x20\n      add\n      swap1\n      dup2\n      mstore\n      0x20\n      add\n      0x00\n      keccak256\n        /* \"Voting Contract/myVoting.sol\":5956:5983  CandidateDetails[_ID].votes */\n      0x06\n      add\n        /* \"Voting Contract/myVoting.sol\":5956:6017  CandidateDetails[_ID].votes = CandidateDetails[_ID].votes + 1 */\n      dup2\n      swap1\n      sstore\n      pop\n        /* \"Voting Contract/myVoting.sol\":5433:6025  function vote(uint _voterID, uint _ID) external {... */\n      pop\n      pop\n      jump\t// out\n        /* \"Voting Contract/myVoting.sol\":1024:1045  address public winner */\n    tag_54:\n      0x09\n      0x00\n      swap1\n      sload\n      swap1\n      0x0100\n      exp\n      swap1\n      div\n      0xffffffffffffffffffffffffffffffffffffffff\n      and\n      dup2\n      jump\t// out\n        /* \"Voting Contract/myVoting.sol\":3048:3378  function candidateRegistrationSet(uint _registrationStart, uint _registrationStop) public onlyElectionComission() {... */\n    tag_58:\n        /* \"Voting Contract/myVoting.sol\":1369:1386  ElectionComission */\n      0x08\n      0x00\n      swap1\n      sload\n      swap1\n      0x0100\n      exp\n      swap1\n      div\n      0xffffffffffffffffffffffffffffffffffffffff\n      and\n        /* \"Voting Contract/myVoting.sol\":1355:1386  msg.sender == ElectionComission */\n      0xffffffffffffffffffffffffffffffffffffffff\n      and\n        /* \"Voting Contract/myVoting.sol\":1355:1365  msg.sender */\n      caller\n        /* \"Voting Contract/myVoting.sol\":1355:1386  msg.sender == ElectionComission */\n      0xffffffffffffffffffffffffffffffffffffffff\n      and\n      eq\n        /* \"Voting Contract/myVoting.sol\":1347:1426  require(msg.sender == ElectionComission, \"You are not from election comission\") */\n      tag_229\n      jumpi\n      mload(0x40)\n      0x08c379a000000000000000000000000000000000000000000000000000000000\n      dup2\n      mstore\n      0x04\n      add\n      tag_230\n      swap1\n      tag_92\n      jump\t// in\n    tag_230:\n      mload(0x40)\n      dup1\n      swap2\n      sub\n      swap1\n      revert\n    tag_229:\n        /* \"Voting Contract/myVoting.sol\":3203:3207  true */\n      0x01\n        /* \"Voting Contract/myVoting.sol\":3173:3200  candidate_Registration_Time */\n      0x02\n      0x00\n        /* \"Voting Contract/myVoting.sol\":3173:3207  candidate_Registration_Time = true */\n      0x0100\n      exp\n      dup2\n      sload\n      dup2\n      0xff\n      mul\n      not\n      and\n      swap1\n      dup4\n      iszero\n      iszero\n      mul\n      or\n      swap1\n      sstore\n      pop\n        /* \"Voting Contract/myVoting.sol\":3266:3284  _registrationStart */\n      dup2\n        /* \"Voting Contract/myVoting.sol\":3248:3263  block.timestamp */\n      timestamp\n        /* \"Voting Contract/myVoting.sol\":3248:3284  block.timestamp + _registrationStart */\n      tag_232\n      swap2\n      swap1\n      tag_142\n      jump\t// in\n    tag_232:\n        /* \"Voting Contract/myVoting.sol\":3218:3245  candidate_Registraion_Start */\n      0x00\n        /* \"Voting Contract/myVoting.sol\":3218:3284  candidate_Registraion_Start = block.timestamp + _registrationStart */\n      dup2\n      swap1\n      sstore\n      pop\n        /* \"Voting Contract/myVoting.sol\":3353:3370  _registrationStop */\n      dup1\n        /* \"Voting Contract/myVoting.sol\":3323:3350  candidate_Registraion_Start */\n      sload(0x00)\n        /* \"Voting Contract/myVoting.sol\":3323:3370  candidate_Registraion_Start + _registrationStop */\n      tag_233\n      swap2\n      swap1\n      tag_142\n      jump\t// in\n    tag_233:\n        /* \"Voting Contract/myVoting.sol\":3295:3320  candidate_Registraion_End */\n      0x01\n        /* \"Voting Contract/myVoting.sol\":3295:3370  candidate_Registraion_End = candidate_Registraion_Start + _registrationStop */\n      dup2\n      swap1\n      sstore\n      pop\n        /* \"Voting Contract/myVoting.sol\":3048:3378  function candidateRegistrationSet(uint _registrationStart, uint _registrationStop) public onlyElectionComission() {... */\n      pop\n      pop\n      jump\t// out\n        /* \"Voting Contract/myVoting.sol\":4683:4848  function voterRegistrationPhaseStatus() private {... */\n    tag_146:\n        /* \"Voting Contract/myVoting.sol\":4769:4784  block.timestamp */\n      timestamp\n        /* \"Voting Contract/myVoting.sol\":4745:4766  voting_Conduction_End */\n      sload(0x04)\n        /* \"Voting Contract/myVoting.sol\":4745:4784  voting_Conduction_End < block.timestamp */\n      lt\n        /* \"Voting Contract/myVoting.sol\":4742:4841  if(voting_Conduction_End < block.timestamp) {... */\n      iszero\n      tag_235\n      jumpi\n        /* \"Voting Contract/myVoting.sol\":4824:4829  false */\n      0x00\n        /* \"Voting Contract/myVoting.sol\":4801:4821  votingConductionTime */\n      0x05\n      0x00\n        /* \"Voting Contract/myVoting.sol\":4801:4829  votingConductionTime = false */\n      0x0100\n      exp\n      dup2\n      sload\n      dup2\n      0xff\n      mul\n      not\n      and\n      swap1\n      dup4\n      iszero\n      iszero\n      mul\n      or\n      swap1\n      sstore\n      pop\n        /* \"Voting Contract/myVoting.sol\":4742:4841  if(voting_Conduction_End < block.timestamp) {... */\n    tag_235:\n        /* \"Voting Contract/myVoting.sol\":4683:4848  function voterRegistrationPhaseStatus() private {... */\n      jump\t// out\n        /* \"Voting Contract/myVoting.sol\":4075:4356  function voterVerification(address _person) internal  voterRegistrationPhase() returns(bool){... */\n    tag_155:\n        /* \"Voting Contract/myVoting.sol\":4162:4166  bool */\n      0x00\n        /* \"Voting Contract/myVoting.sol\":1698:1728  voterRegistrationPhaseStatus() */\n      tag_237\n        /* \"Voting Contract/myVoting.sol\":1698:1726  voterRegistrationPhaseStatus */\n      tag_146\n        /* \"Voting Contract/myVoting.sol\":1698:1728  voterRegistrationPhaseStatus() */\n      jump\t// in\n    tag_237:\n        /* \"Voting Contract/myVoting.sol\":1771:1775  true */\n      0x01\n        /* \"Voting Contract/myVoting.sol\":1747:1775  votingConductionTime == true */\n      iszero\n      iszero\n        /* \"Voting Contract/myVoting.sol\":1747:1767  votingConductionTime */\n      0x05\n      0x00\n      swap1\n      sload\n      swap1\n      0x0100\n      exp\n      swap1\n      div\n      0xff\n      and\n        /* \"Voting Contract/myVoting.sol\":1747:1775  votingConductionTime == true */\n      iszero\n      iszero\n      eq\n        /* \"Voting Contract/myVoting.sol\":1739:1808  require(votingConductionTime == true, \"Voter registration is closed\") */\n      tag_238\n      jumpi\n      mload(0x40)\n      0x08c379a000000000000000000000000000000000000000000000000000000000\n      dup2\n      mstore\n      0x04\n      add\n      tag_239\n      swap1\n      tag_149\n      jump\t// in\n    tag_239:\n      mload(0x40)\n      dup1\n      swap2\n      sub\n      swap1\n      revert\n    tag_238:\n        /* \"Voting Contract/myVoting.sol\":4182:4188  uint i */\n      0x00\n        /* \"Voting Contract/myVoting.sol\":4189:4190  1 */\n      0x01\n        /* \"Voting Contract/myVoting.sol\":4182:4190  uint i=1 */\n      swap1\n      pop\n        /* \"Voting Contract/myVoting.sol\":4178:4327  for(uint i=1; i<nextVoterID; i++){... */\n    tag_241:\n        /* \"Voting Contract/myVoting.sol\":4194:4205  nextVoterID */\n      sload(0x0a)\n        /* \"Voting Contract/myVoting.sol\":4192:4193  i */\n      dup2\n        /* \"Voting Contract/myVoting.sol\":4192:4205  i<nextVoterID */\n      lt\n        /* \"Voting Contract/myVoting.sol\":4178:4327  for(uint i=1; i<nextVoterID; i++){... */\n      iszero\n      tag_242\n      jumpi\n        /* \"Voting Contract/myVoting.sol\":4261:4268  _person */\n      dup3\n        /* \"Voting Contract/myVoting.sol\":4229:4268  VoterDetails[i].voterAddress == _person */\n      0xffffffffffffffffffffffffffffffffffffffff\n      and\n        /* \"Voting Contract/myVoting.sol\":4229:4241  VoterDetails */\n      0x07\n        /* \"Voting Contract/myVoting.sol\":4229:4244  VoterDetails[i] */\n      0x00\n        /* \"Voting Contract/myVoting.sol\":4242:4243  i */\n      dup4\n        /* \"Voting Contract/myVoting.sol\":4229:4244  VoterDetails[i] */\n      dup2\n      mstore\n      0x20\n      add\n      swap1\n      dup2\n      mstore\n      0x20\n      add\n      0x00\n      keccak256\n        /* \"Voting Contract/myVoting.sol\":4229:4257  VoterDetails[i].voterAddress */\n      0x05\n      add\n      0x00\n      swap1\n      sload\n      swap1\n      0x0100\n      exp\n      swap1\n      div\n      0xffffffffffffffffffffffffffffffffffffffff\n      and\n        /* \"Voting Contract/myVoting.sol\":4229:4268  VoterDetails[i].voterAddress == _person */\n      0xffffffffffffffffffffffffffffffffffffffff\n      and\n      sub\n        /* \"Voting Contract/myVoting.sol\":4226:4316  if(VoterDetails[i].voterAddress == _person){... */\n      tag_244\n      jumpi\n        /* \"Voting Contract/myVoting.sol\":4295:4300  false */\n      0x00\n        /* \"Voting Contract/myVoting.sol\":4288:4300  return false */\n      swap2\n      pop\n      pop\n      jump(tag_240)\n        /* \"Voting Contract/myVoting.sol\":4226:4316  if(VoterDetails[i].voterAddress == _person){... */\n    tag_244:\n        /* \"Voting Contract/myVoting.sol\":4207:4210  i++ */\n      dup1\n      dup1\n      tag_245\n      swap1\n      tag_88\n      jump\t// in\n    tag_245:\n      swap2\n      pop\n      pop\n        /* \"Voting Contract/myVoting.sol\":4178:4327  for(uint i=1; i<nextVoterID; i++){... */\n      jump(tag_241)\n    tag_242:\n      pop\n        /* \"Voting Contract/myVoting.sol\":4344:4348  true */\n      0x01\n        /* \"Voting Contract/myVoting.sol\":4337:4348  return true */\n      swap1\n      pop\n        /* \"Voting Contract/myVoting.sol\":1819:1820  _ */\n    tag_240:\n        /* \"Voting Contract/myVoting.sol\":4075:4356  function voterVerification(address _person) internal  voterRegistrationPhase() returns(bool){... */\n      swap2\n      swap1\n      pop\n      jump\t// out\n        /* \"Voting Contract/myVoting.sol\":3422:3602  function candidateRegistrationPhaseStatus() private {... */\n    tag_165:\n        /* \"Voting Contract/myVoting.sol\":3516:3531  block.timestamp */\n      timestamp\n        /* \"Voting Contract/myVoting.sol\":3488:3513  candidate_Registraion_End */\n      sload(0x01)\n        /* \"Voting Contract/myVoting.sol\":3488:3531  candidate_Registraion_End < block.timestamp */\n      lt\n        /* \"Voting Contract/myVoting.sol\":3485:3595  if(candidate_Registraion_End < block.timestamp) {... */\n      iszero\n      tag_247\n      jumpi\n        /* \"Voting Contract/myVoting.sol\":3578:3583  false */\n      0x00\n        /* \"Voting Contract/myVoting.sol\":3548:3575  candidate_Registration_Time */\n      0x02\n      0x00\n        /* \"Voting Contract/myVoting.sol\":3548:3583  candidate_Registration_Time = false */\n      0x0100\n      exp\n      dup2\n      sload\n      dup2\n      0xff\n      mul\n      not\n      and\n      swap1\n      dup4\n      iszero\n      iszero\n      mul\n      or\n      swap1\n      sstore\n      pop\n        /* \"Voting Contract/myVoting.sol\":3485:3595  if(candidate_Registraion_End < block.timestamp) {... */\n    tag_247:\n        /* \"Voting Contract/myVoting.sol\":3422:3602  function candidateRegistrationPhaseStatus() private {... */\n      jump\t// out\n        /* \"Voting Contract/myVoting.sol\":2681:2990  function candidateVerification(address _person) internal  candidateRegistrationPhase() returns(bool){... */\n    tag_176:\n        /* \"Voting Contract/myVoting.sol\":2776:2780  bool */\n      0x00\n        /* \"Voting Contract/myVoting.sol\":1501:1535  candidateRegistrationPhaseStatus() */\n      tag_249\n        /* \"Voting Contract/myVoting.sol\":1501:1533  candidateRegistrationPhaseStatus */\n      tag_165\n        /* \"Voting Contract/myVoting.sol\":1501:1535  candidateRegistrationPhaseStatus() */\n      jump\t// in\n    tag_249:\n        /* \"Voting Contract/myVoting.sol\":1585:1589  true */\n      0x01\n        /* \"Voting Contract/myVoting.sol\":1554:1589  candidate_Registration_Time == true */\n      iszero\n      iszero\n        /* \"Voting Contract/myVoting.sol\":1554:1581  candidate_Registration_Time */\n      0x02\n      0x00\n      swap1\n      sload\n      swap1\n      0x0100\n      exp\n      swap1\n      div\n      0xff\n      and\n        /* \"Voting Contract/myVoting.sol\":1554:1589  candidate_Registration_Time == true */\n      iszero\n      iszero\n      eq\n        /* \"Voting Contract/myVoting.sol\":1546:1626  require(candidate_Registration_Time == true, \"Candidate Registration is closed\") */\n      tag_250\n      jumpi\n      mload(0x40)\n      0x08c379a000000000000000000000000000000000000000000000000000000000\n      dup2\n      mstore\n      0x04\n      add\n      tag_251\n      swap1\n      tag_168\n      jump\t// in\n    tag_251:\n      mload(0x40)\n      dup1\n      swap2\n      sub\n      swap1\n      revert\n    tag_250:\n        /* \"Voting Contract/myVoting.sol\":2796:2802  uint i */\n      0x00\n        /* \"Voting Contract/myVoting.sol\":2803:2804  1 */\n      0x01\n        /* \"Voting Contract/myVoting.sol\":2796:2804  uint i=1 */\n      swap1\n      pop\n        /* \"Voting Contract/myVoting.sol\":2792:2961  for(uint i=1; i<nextCandidateID; i++){... */\n    tag_253:\n        /* \"Voting Contract/myVoting.sol\":2808:2823  nextCandidateID */\n      sload(0x0b)\n        /* \"Voting Contract/myVoting.sol\":2806:2807  i */\n      dup2\n        /* \"Voting Contract/myVoting.sol\":2806:2823  i<nextCandidateID */\n      lt\n        /* \"Voting Contract/myVoting.sol\":2792:2961  for(uint i=1; i<nextCandidateID; i++){... */\n      iszero\n      tag_254\n      jumpi\n        /* \"Voting Contract/myVoting.sol\":2886:2893  _person */\n      dup3\n        /* \"Voting Contract/myVoting.sol\":2846:2893  CandidateDetails[i].candidateAddress == _person */\n      0xffffffffffffffffffffffffffffffffffffffff\n      and\n        /* \"Voting Contract/myVoting.sol\":2846:2862  CandidateDetails */\n      0x06\n        /* \"Voting Contract/myVoting.sol\":2846:2865  CandidateDetails[i] */\n      0x00\n        /* \"Voting Contract/myVoting.sol\":2863:2864  i */\n      dup4\n        /* \"Voting Contract/myVoting.sol\":2846:2865  CandidateDetails[i] */\n      dup2\n      mstore\n      0x20\n      add\n      swap1\n      dup2\n      mstore\n      0x20\n      add\n      0x00\n      keccak256\n        /* \"Voting Contract/myVoting.sol\":2846:2882  CandidateDetails[i].candidateAddress */\n      0x05\n      add\n      0x00\n      swap1\n      sload\n      swap1\n      0x0100\n      exp\n      swap1\n      div\n      0xffffffffffffffffffffffffffffffffffffffff\n      and\n        /* \"Voting Contract/myVoting.sol\":2846:2893  CandidateDetails[i].candidateAddress == _person */\n      0xffffffffffffffffffffffffffffffffffffffff\n      and\n      sub\n        /* \"Voting Contract/myVoting.sol\":2843:2939  if(CandidateDetails[i].candidateAddress == _person){... */\n      tag_256\n      jumpi\n        /* \"Voting Contract/myVoting.sol\":2919:2924  false */\n      0x00\n        /* \"Voting Contract/myVoting.sol\":2912:2924  return false */\n      swap2\n      pop\n      pop\n      jump(tag_252)\n        /* \"Voting Contract/myVoting.sol\":2843:2939  if(CandidateDetails[i].candidateAddress == _person){... */\n    tag_256:\n        /* \"Voting Contract/myVoting.sol\":2825:2828  i++ */\n      dup1\n      dup1\n      tag_257\n      swap1\n      tag_88\n      jump\t// in\n    tag_257:\n      swap2\n      pop\n      pop\n        /* \"Voting Contract/myVoting.sol\":2792:2961  for(uint i=1; i<nextCandidateID; i++){... */\n      jump(tag_253)\n    tag_254:\n      pop\n        /* \"Voting Contract/myVoting.sol\":2978:2982  true */\n      0x01\n        /* \"Voting Contract/myVoting.sol\":2971:2982  return true */\n      swap1\n      pop\n        /* \"Voting Contract/myVoting.sol\":1637:1638  _ */\n    tag_252:\n        /* \"Voting Contract/myVoting.sol\":2681:2990  function candidateVerification(address _person) internal  candidateRegistrationPhase() returns(bool){... */\n      swap2\n      swap1\n      pop\n      jump\t// out\n    tag_68:\n      mload(0x40)\n      dup1\n      0xc0\n      add\n      0x40\n      mstore\n      dup1\n      0x60\n      dup2\n      mstore\n      0x20\n      add\n      0x00\n      dup2\n      mstore\n      0x20\n      add\n      0x00\n      dup2\n      mstore\n      0x20\n      add\n      0x60\n      dup2\n      mstore\n      0x20\n      add\n      0x00\n      dup2\n      mstore\n      0x20\n      add\n      and(0xffffffffffffffffffffffffffffffffffffffff, 0x00)\n      dup2\n      mstore\n      pop\n      swap1\n      jump\t// out\n    tag_114:\n      mload(0x40)\n      dup1\n      0xe0\n      add\n      0x40\n      mstore\n      dup1\n      0x60\n      dup2\n      mstore\n      0x20\n      add\n      0x00\n      dup2\n      mstore\n      0x20\n      add\n      0x60\n      dup2\n      mstore\n      0x20\n      add\n      0x00\n      dup2\n      mstore\n      0x20\n      add\n      0x60\n      dup2\n      mstore\n      0x20\n      add\n      and(0xffffffffffffffffffffffffffffffffffffffff, 0x00)\n      dup2\n      mstore\n      0x20\n      add\n      0x00\n      dup2\n      mstore\n      pop\n      swap1\n      jump\t// out\n        /* \"#utility.yul\":7:142   */\n    tag_258:\n        /* \"#utility.yul\":95:101   */\n      0x00\n        /* \"#utility.yul\":129:134   */\n      dup2\n        /* \"#utility.yul\":123:135   */\n      mload\n        /* \"#utility.yul\":113:135   */\n      swap1\n      pop\n        /* \"#utility.yul\":7:142   */\n      swap2\n      swap1\n      pop\n      jump\t// out\n        /* \"#utility.yul\":148:353   */\n    tag_259:\n        /* \"#utility.yul\":268:279   */\n      0x00\n        /* \"#utility.yul\":302:308   */\n      dup3\n        /* \"#utility.yul\":297:300   */\n      dup3\n        /* \"#utility.yul\":290:309   */\n      mstore\n        /* \"#utility.yul\":342:346   */\n      0x20\n        /* \"#utility.yul\":337:340   */\n      dup3\n        /* \"#utility.yul\":333:347   */\n      add\n        /* \"#utility.yul\":318:347   */\n      swap1\n      pop\n        /* \"#utility.yul\":148:353   */\n      swap3\n      swap2\n      pop\n      pop\n      jump\t// out\n        /* \"#utility.yul\":359:512   */\n    tag_260:\n        /* \"#utility.yul\":447:451   */\n      0x00\n        /* \"#utility.yul\":470:473   */\n      dup2\n        /* \"#utility.yul\":462:473   */\n      swap1\n      pop\n        /* \"#utility.yul\":500:504   */\n      0x20\n        /* \"#utility.yul\":495:498   */\n      dup3\n        /* \"#utility.yul\":491:505   */\n      add\n        /* \"#utility.yul\":483:505   */\n      swap1\n      pop\n        /* \"#utility.yul\":359:512   */\n      swap2\n      swap1\n      pop\n      jump\t// out\n        /* \"#utility.yul\":518:617   */\n    tag_261:\n        /* \"#utility.yul\":570:576   */\n      0x00\n        /* \"#utility.yul\":604:609   */\n      dup2\n        /* \"#utility.yul\":598:610   */\n      mload\n        /* \"#utility.yul\":588:610   */\n      swap1\n      pop\n        /* \"#utility.yul\":518:617   */\n      swap2\n      swap1\n      pop\n      jump\t// out\n        /* \"#utility.yul\":623:782   */\n    tag_262:\n        /* \"#utility.yul\":697:708   */\n      0x00\n        /* \"#utility.yul\":731:737   */\n      dup3\n        /* \"#utility.yul\":726:729   */\n      dup3\n        /* \"#utility.yul\":719:738   */\n      mstore\n        /* \"#utility.yul\":771:775   */\n      0x20\n        /* \"#utility.yul\":766:769   */\n      dup3\n        /* \"#utility.yul\":762:776   */\n      add\n        /* \"#utility.yul\":747:776   */\n      swap1\n      pop\n        /* \"#utility.yul\":623:782   */\n      swap3\n      swap2\n      pop\n      pop\n      jump\t// out\n        /* \"#utility.yul\":788:1034   */\n    tag_263:\n        /* \"#utility.yul\":869:870   */\n      0x00\n        /* \"#utility.yul\":879:992   */\n    tag_352:\n        /* \"#utility.yul\":893:899   */\n      dup4\n        /* \"#utility.yul\":890:891   */\n      dup2\n        /* \"#utility.yul\":887:900   */\n      lt\n        /* \"#utility.yul\":879:992   */\n      iszero\n      tag_354\n      jumpi\n        /* \"#utility.yul\":978:979   */\n      dup1\n        /* \"#utility.yul\":973:976   */\n      dup3\n        /* \"#utility.yul\":969:980   */\n      add\n        /* \"#utility.yul\":963:981   */\n      mload\n        /* \"#utility.yul\":959:960   */\n      dup2\n        /* \"#utility.yul\":954:957   */\n      dup5\n        /* \"#utility.yul\":950:961   */\n      add\n        /* \"#utility.yul\":943:982   */\n      mstore\n        /* \"#utility.yul\":915:917   */\n      0x20\n        /* \"#utility.yul\":912:913   */\n      dup2\n        /* \"#utility.yul\":908:918   */\n      add\n        /* \"#utility.yul\":903:918   */\n      swap1\n      pop\n        /* \"#utility.yul\":879:992   */\n      jump(tag_352)\n    tag_354:\n        /* \"#utility.yul\":1026:1027   */\n      0x00\n        /* \"#utility.yul\":1017:1023   */\n      dup5\n        /* \"#utility.yul\":1012:1015   */\n      dup5\n        /* \"#utility.yul\":1008:1024   */\n      add\n        /* \"#utility.yul\":1001:1028   */\n      mstore\n        /* \"#utility.yul\":850:1034   */\n      pop\n        /* \"#utility.yul\":788:1034   */\n      pop\n      pop\n      pop\n      jump\t// out\n        /* \"#utility.yul\":1040:1142   */\n    tag_264:\n        /* \"#utility.yul\":1081:1087   */\n      0x00\n        /* \"#utility.yul\":1132:1134   */\n      0x1f\n        /* \"#utility.yul\":1128:1135   */\n      not\n        /* \"#utility.yul\":1123:1125   */\n      0x1f\n        /* \"#utility.yul\":1116:1121   */\n      dup4\n        /* \"#utility.yul\":1112:1126   */\n      add\n        /* \"#utility.yul\":1108:1136   */\n      and\n        /* \"#utility.yul\":1098:1136   */\n      swap1\n      pop\n        /* \"#utility.yul\":1040:1142   */\n      swap2\n      swap1\n      pop\n      jump\t// out\n        /* \"#utility.yul\":1148:1505   */\n    tag_265:\n        /* \"#utility.yul\":1226:1229   */\n      0x00\n        /* \"#utility.yul\":1254:1293   */\n      tag_357\n        /* \"#utility.yul\":1287:1292   */\n      dup3\n        /* \"#utility.yul\":1254:1293   */\n      tag_261\n      jump\t// in\n    tag_357:\n        /* \"#utility.yul\":1309:1370   */\n      tag_358\n        /* \"#utility.yul\":1363:1369   */\n      dup2\n        /* \"#utility.yul\":1358:1361   */\n      dup6\n        /* \"#utility.yul\":1309:1370   */\n      tag_262\n      jump\t// in\n    tag_358:\n        /* \"#utility.yul\":1302:1370   */\n      swap4\n      pop\n        /* \"#utility.yul\":1379:1444   */\n      tag_359\n        /* \"#utility.yul\":1437:1443   */\n      dup2\n        /* \"#utility.yul\":1432:1435   */\n      dup6\n        /* \"#utility.yul\":1425:1429   */\n      0x20\n        /* \"#utility.yul\":1418:1423   */\n      dup7\n        /* \"#utility.yul\":1414:1430   */\n      add\n        /* \"#utility.yul\":1379:1444   */\n      tag_263\n      jump\t// in\n    tag_359:\n        /* \"#utility.yul\":1469:1498   */\n      tag_360\n        /* \"#utility.yul\":1491:1497   */\n      dup2\n        /* \"#utility.yul\":1469:1498   */\n      tag_264\n      jump\t// in\n    tag_360:\n        /* \"#utility.yul\":1464:1467   */\n      dup5\n        /* \"#utility.yul\":1460:1499   */\n      add\n        /* \"#utility.yul\":1453:1499   */\n      swap2\n      pop\n        /* \"#utility.yul\":1230:1505   */\n      pop\n        /* \"#utility.yul\":1148:1505   */\n      swap3\n      swap2\n      pop\n      pop\n      jump\t// out\n        /* \"#utility.yul\":1511:1588   */\n    tag_266:\n        /* \"#utility.yul\":1548:1555   */\n      0x00\n        /* \"#utility.yul\":1577:1582   */\n      dup2\n        /* \"#utility.yul\":1566:1582   */\n      swap1\n      pop\n        /* \"#utility.yul\":1511:1588   */\n      swap2\n      swap1\n      pop\n      jump\t// out\n        /* \"#utility.yul\":1594:1702   */\n    tag_267:\n        /* \"#utility.yul\":1671:1695   */\n      tag_363\n        /* \"#utility.yul\":1689:1694   */\n      dup2\n        /* \"#utility.yul\":1671:1695   */\n      tag_266\n      jump\t// in\n    tag_363:\n        /* \"#utility.yul\":1666:1669   */\n      dup3\n        /* \"#utility.yul\":1659:1696   */\n      mstore\n        /* \"#utility.yul\":1594:1702   */\n      pop\n      pop\n      jump\t// out\n        /* \"#utility.yul\":1708:1834   */\n    tag_268:\n        /* \"#utility.yul\":1745:1752   */\n      0x00\n        /* \"#utility.yul\":1785:1827   */\n      0xffffffffffffffffffffffffffffffffffffffff\n        /* \"#utility.yul\":1778:1783   */\n      dup3\n        /* \"#utility.yul\":1774:1828   */\n      and\n        /* \"#utility.yul\":1763:1828   */\n      swap1\n      pop\n        /* \"#utility.yul\":1708:1834   */\n      swap2\n      swap1\n      pop\n      jump\t// out\n        /* \"#utility.yul\":1840:1936   */\n    tag_269:\n        /* \"#utility.yul\":1877:1884   */\n      0x00\n        /* \"#utility.yul\":1906:1930   */\n      tag_366\n        /* \"#utility.yul\":1924:1929   */\n      dup3\n        /* \"#utility.yul\":1906:1930   */\n      tag_268\n      jump\t// in\n    tag_366:\n        /* \"#utility.yul\":1895:1930   */\n      swap1\n      pop\n        /* \"#utility.yul\":1840:1936   */\n      swap2\n      swap1\n      pop\n      jump\t// out\n        /* \"#utility.yul\":1942:2050   */\n    tag_270:\n        /* \"#utility.yul\":2019:2043   */\n      tag_368\n        /* \"#utility.yul\":2037:2042   */\n      dup2\n        /* \"#utility.yul\":2019:2043   */\n      tag_269\n      jump\t// in\n    tag_368:\n        /* \"#utility.yul\":2014:2017   */\n      dup3\n        /* \"#utility.yul\":2007:2044   */\n      mstore\n        /* \"#utility.yul\":1942:2050   */\n      pop\n      pop\n      jump\t// out\n        /* \"#utility.yul\":2122:3500   */\n    tag_271:\n        /* \"#utility.yul\":2223:2226   */\n      0x00\n        /* \"#utility.yul\":2259:2263   */\n      0xc0\n        /* \"#utility.yul\":2254:2257   */\n      dup4\n        /* \"#utility.yul\":2250:2264   */\n      add\n        /* \"#utility.yul\":2346:2350   */\n      0x00\n        /* \"#utility.yul\":2339:2344   */\n      dup4\n        /* \"#utility.yul\":2335:2351   */\n      add\n        /* \"#utility.yul\":2329:2352   */\n      mload\n        /* \"#utility.yul\":2399:2402   */\n      dup5\n        /* \"#utility.yul\":2393:2397   */\n      dup3\n        /* \"#utility.yul\":2389:2403   */\n      sub\n        /* \"#utility.yul\":2382:2386   */\n      0x00\n        /* \"#utility.yul\":2377:2380   */\n      dup7\n        /* \"#utility.yul\":2373:2387   */\n      add\n        /* \"#utility.yul\":2366:2404   */\n      mstore\n        /* \"#utility.yul\":2425:2498   */\n      tag_370\n        /* \"#utility.yul\":2493:2497   */\n      dup3\n        /* \"#utility.yul\":2479:2491   */\n      dup3\n        /* \"#utility.yul\":2425:2498   */\n      tag_265\n      jump\t// in\n    tag_370:\n        /* \"#utility.yul\":2417:2498   */\n      swap2\n      pop\n        /* \"#utility.yul\":2274:2509   */\n      pop\n        /* \"#utility.yul\":2590:2594   */\n      0x20\n        /* \"#utility.yul\":2583:2588   */\n      dup4\n        /* \"#utility.yul\":2579:2595   */\n      add\n        /* \"#utility.yul\":2573:2596   */\n      mload\n        /* \"#utility.yul\":2609:2672   */\n      tag_371\n        /* \"#utility.yul\":2666:2670   */\n      0x20\n        /* \"#utility.yul\":2661:2664   */\n      dup7\n        /* \"#utility.yul\":2657:2671   */\n      add\n        /* \"#utility.yul\":2643:2655   */\n      dup3\n        /* \"#utility.yul\":2609:2672   */\n      tag_267\n      jump\t// in\n    tag_371:\n        /* \"#utility.yul\":2519:2682   */\n      pop\n        /* \"#utility.yul\":2767:2771   */\n      0x40\n        /* \"#utility.yul\":2760:2765   */\n      dup4\n        /* \"#utility.yul\":2756:2772   */\n      add\n        /* \"#utility.yul\":2750:2773   */\n      mload\n        /* \"#utility.yul\":2786:2849   */\n      tag_372\n        /* \"#utility.yul\":2843:2847   */\n      0x40\n        /* \"#utility.yul\":2838:2841   */\n      dup7\n        /* \"#utility.yul\":2834:2848   */\n      add\n        /* \"#utility.yul\":2820:2832   */\n      dup3\n        /* \"#utility.yul\":2786:2849   */\n      tag_267\n      jump\t// in\n    tag_372:\n        /* \"#utility.yul\":2692:2859   */\n      pop\n        /* \"#utility.yul\":2943:2947   */\n      0x60\n        /* \"#utility.yul\":2936:2941   */\n      dup4\n        /* \"#utility.yul\":2932:2948   */\n      add\n        /* \"#utility.yul\":2926:2949   */\n      mload\n        /* \"#utility.yul\":2996:2999   */\n      dup5\n        /* \"#utility.yul\":2990:2994   */\n      dup3\n        /* \"#utility.yul\":2986:3000   */\n      sub\n        /* \"#utility.yul\":2979:2983   */\n      0x60\n        /* \"#utility.yul\":2974:2977   */\n      dup7\n        /* \"#utility.yul\":2970:2984   */\n      add\n        /* \"#utility.yul\":2963:3001   */\n      mstore\n        /* \"#utility.yul\":3022:3095   */\n      tag_373\n        /* \"#utility.yul\":3090:3094   */\n      dup3\n        /* \"#utility.yul\":3076:3088   */\n      dup3\n        /* \"#utility.yul\":3022:3095   */\n      tag_265\n      jump\t// in\n    tag_373:\n        /* \"#utility.yul\":3014:3095   */\n      swap2\n      pop\n        /* \"#utility.yul\":2869:3106   */\n      pop\n        /* \"#utility.yul\":3199:3203   */\n      0x80\n        /* \"#utility.yul\":3192:3197   */\n      dup4\n        /* \"#utility.yul\":3188:3204   */\n      add\n        /* \"#utility.yul\":3182:3205   */\n      mload\n        /* \"#utility.yul\":3218:3281   */\n      tag_374\n        /* \"#utility.yul\":3275:3279   */\n      0x80\n        /* \"#utility.yul\":3270:3273   */\n      dup7\n        /* \"#utility.yul\":3266:3280   */\n      add\n        /* \"#utility.yul\":3252:3264   */\n      dup3\n        /* \"#utility.yul\":3218:3281   */\n      tag_267\n      jump\t// in\n    tag_374:\n        /* \"#utility.yul\":3116:3291   */\n      pop\n        /* \"#utility.yul\":3381:3385   */\n      0xa0\n        /* \"#utility.yul\":3374:3379   */\n      dup4\n        /* \"#utility.yul\":3370:3386   */\n      add\n        /* \"#utility.yul\":3364:3387   */\n      mload\n        /* \"#utility.yul\":3400:3463   */\n      tag_375\n        /* \"#utility.yul\":3457:3461   */\n      0xa0\n        /* \"#utility.yul\":3452:3455   */\n      dup7\n        /* \"#utility.yul\":3448:3462   */\n      add\n        /* \"#utility.yul\":3434:3446   */\n      dup3\n        /* \"#utility.yul\":3400:3463   */\n      tag_270\n      jump\t// in\n    tag_375:\n        /* \"#utility.yul\":3301:3473   */\n      pop\n        /* \"#utility.yul\":3490:3494   */\n      dup1\n        /* \"#utility.yul\":3483:3494   */\n      swap2\n      pop\n        /* \"#utility.yul\":2228:3500   */\n      pop\n        /* \"#utility.yul\":2122:3500   */\n      swap3\n      swap2\n      pop\n      pop\n      jump\t// out\n        /* \"#utility.yul\":3506:3746   */\n    tag_272:\n        /* \"#utility.yul\":3617:3627   */\n      0x00\n        /* \"#utility.yul\":3652:3740   */\n      tag_377\n        /* \"#utility.yul\":3736:3739   */\n      dup4\n        /* \"#utility.yul\":3728:3734   */\n      dup4\n        /* \"#utility.yul\":3652:3740   */\n      tag_271\n      jump\t// in\n    tag_377:\n        /* \"#utility.yul\":3638:3740   */\n      swap1\n      pop\n        /* \"#utility.yul\":3506:3746   */\n      swap3\n      swap2\n      pop\n      pop\n      jump\t// out\n        /* \"#utility.yul\":3752:3886   */\n    tag_273:\n        /* \"#utility.yul\":3843:3847   */\n      0x00\n        /* \"#utility.yul\":3875:3879   */\n      0x20\n        /* \"#utility.yul\":3870:3873   */\n      dup3\n        /* \"#utility.yul\":3866:3880   */\n      add\n        /* \"#utility.yul\":3858:3880   */\n      swap1\n      pop\n        /* \"#utility.yul\":3752:3886   */\n      swap2\n      swap1\n      pop\n      jump\t// out\n        /* \"#utility.yul\":3962:5041   */\n    tag_274:\n        /* \"#utility.yul\":4123:4126   */\n      0x00\n        /* \"#utility.yul\":4152:4227   */\n      tag_380\n        /* \"#utility.yul\":4221:4226   */\n      dup3\n        /* \"#utility.yul\":4152:4227   */\n      tag_258\n      jump\t// in\n    tag_380:\n        /* \"#utility.yul\":4243:4350   */\n      tag_381\n        /* \"#utility.yul\":4343:4349   */\n      dup2\n        /* \"#utility.yul\":4338:4341   */\n      dup6\n        /* \"#utility.yul\":4243:4350   */\n      tag_259\n      jump\t// in\n    tag_381:\n        /* \"#utility.yul\":4236:4350   */\n      swap4\n      pop\n        /* \"#utility.yul\":4376:4379   */\n      dup4\n        /* \"#utility.yul\":4421:4425   */\n      0x20\n        /* \"#utility.yul\":4413:4419   */\n      dup3\n        /* \"#utility.yul\":4409:4426   */\n      mul\n        /* \"#utility.yul\":4404:4407   */\n      dup6\n        /* \"#utility.yul\":4400:4427   */\n      add\n        /* \"#utility.yul\":4451:4528   */\n      tag_382\n        /* \"#utility.yul\":4522:4527   */\n      dup6\n        /* \"#utility.yul\":4451:4528   */\n      tag_260\n      jump\t// in\n    tag_382:\n        /* \"#utility.yul\":4551:4558   */\n      dup1\n        /* \"#utility.yul\":4582:4583   */\n      0x00\n        /* \"#utility.yul\":4567:4996   */\n    tag_383:\n        /* \"#utility.yul\":4592:4598   */\n      dup6\n        /* \"#utility.yul\":4589:4590   */\n      dup2\n        /* \"#utility.yul\":4586:4599   */\n      lt\n        /* \"#utility.yul\":4567:4996   */\n      iszero\n      tag_385\n      jumpi\n        /* \"#utility.yul\":4663:4672   */\n      dup5\n        /* \"#utility.yul\":4657:4661   */\n      dup5\n        /* \"#utility.yul\":4653:4673   */\n      sub\n        /* \"#utility.yul\":4648:4651   */\n      dup10\n        /* \"#utility.yul\":4641:4674   */\n      mstore\n        /* \"#utility.yul\":4714:4720   */\n      dup2\n        /* \"#utility.yul\":4708:4721   */\n      mload\n        /* \"#utility.yul\":4742:4848   */\n      tag_386\n        /* \"#utility.yul\":4843:4847   */\n      dup6\n        /* \"#utility.yul\":4828:4841   */\n      dup3\n        /* \"#utility.yul\":4742:4848   */\n      tag_272\n      jump\t// in\n    tag_386:\n        /* \"#utility.yul\":4734:4848   */\n      swap5\n      pop\n        /* \"#utility.yul\":4871:4952   */\n      tag_387\n        /* \"#utility.yul\":4945:4951   */\n      dup4\n        /* \"#utility.yul\":4871:4952   */\n      tag_273\n      jump\t// in\n    tag_387:\n        /* \"#utility.yul\":4861:4952   */\n      swap3\n      pop\n        /* \"#utility.yul\":4981:4985   */\n      0x20\n        /* \"#utility.yul\":4976:4979   */\n      dup11\n        /* \"#utility.yul\":4972:4986   */\n      add\n        /* \"#utility.yul\":4965:4986   */\n      swap10\n      pop\n        /* \"#utility.yul\":4627:4996   */\n      pop\n        /* \"#utility.yul\":4614:4615   */\n      0x01\n        /* \"#utility.yul\":4611:4612   */\n      dup2\n        /* \"#utility.yul\":4607:4616   */\n      add\n        /* \"#utility.yul\":4602:4616   */\n      swap1\n      pop\n        /* \"#utility.yul\":4567:4996   */\n      jump(tag_383)\n    tag_385:\n        /* \"#utility.yul\":4571:4585   */\n      pop\n        /* \"#utility.yul\":5012:5016   */\n      dup3\n        /* \"#utility.yul\":5005:5016   */\n      swap8\n      pop\n        /* \"#utility.yul\":5032:5035   */\n      dup8\n        /* \"#utility.yul\":5025:5035   */\n      swap6\n      pop\n        /* \"#utility.yul\":4128:5041   */\n      pop\n      pop\n      pop\n      pop\n      pop\n        /* \"#utility.yul\":3962:5041   */\n      swap3\n      swap2\n      pop\n      pop\n      jump\t// out\n        /* \"#utility.yul\":5047:5504   */\n    tag_18:\n        /* \"#utility.yul\":5232:5236   */\n      0x00\n        /* \"#utility.yul\":5270:5272   */\n      0x20\n        /* \"#utility.yul\":5259:5268   */\n      dup3\n        /* \"#utility.yul\":5255:5273   */\n      add\n        /* \"#utility.yul\":5247:5273   */\n      swap1\n      pop\n        /* \"#utility.yul\":5319:5328   */\n      dup2\n        /* \"#utility.yul\":5313:5317   */\n      dup2\n        /* \"#utility.yul\":5309:5329   */\n      sub\n        /* \"#utility.yul\":5305:5306   */\n      0x00\n        /* \"#utility.yul\":5294:5303   */\n      dup4\n        /* \"#utility.yul\":5290:5307   */\n      add\n        /* \"#utility.yul\":5283:5330   */\n      mstore\n        /* \"#utility.yul\":5347:5497   */\n      tag_389\n        /* \"#utility.yul\":5492:5496   */\n      dup2\n        /* \"#utility.yul\":5483:5489   */\n      dup5\n        /* \"#utility.yul\":5347:5497   */\n      tag_274\n      jump\t// in\n    tag_389:\n        /* \"#utility.yul\":5339:5497   */\n      swap1\n      pop\n        /* \"#utility.yul\":5047:5504   */\n      swap3\n      swap2\n      pop\n      pop\n      jump\t// out\n        /* \"#utility.yul\":5510:5628   */\n    tag_275:\n        /* \"#utility.yul\":5597:5621   */\n      tag_391\n        /* \"#utility.yul\":5615:5620   */\n      dup2\n        /* \"#utility.yul\":5597:5621   */\n      tag_269\n      jump\t// in\n    tag_391:\n        /* \"#utility.yul\":5592:5595   */\n      dup3\n        /* \"#utility.yul\":5585:5622   */\n      mstore\n        /* \"#utility.yul\":5510:5628   */\n      pop\n      pop\n      jump\t// out\n        /* \"#utility.yul\":5634:5856   */\n    tag_22:\n        /* \"#utility.yul\":5727:5731   */\n      0x00\n        /* \"#utility.yul\":5765:5767   */\n      0x20\n        /* \"#utility.yul\":5754:5763   */\n      dup3\n        /* \"#utility.yul\":5750:5768   */\n      add\n        /* \"#utility.yul\":5742:5768   */\n      swap1\n      pop\n        /* \"#utility.yul\":5778:5849   */\n      tag_393\n        /* \"#utility.yul\":5846:5847   */\n      0x00\n        /* \"#utility.yul\":5835:5844   */\n      dup4\n        /* \"#utility.yul\":5831:5848   */\n      add\n        /* \"#utility.yul\":5822:5828   */\n      dup5\n        /* \"#utility.yul\":5778:5849   */\n      tag_275\n      jump\t// in\n    tag_393:\n        /* \"#utility.yul\":5634:5856   */\n      swap3\n      swap2\n      pop\n      pop\n      jump\t// out\n        /* \"#utility.yul\":5862:6001   */\n    tag_276:\n        /* \"#utility.yul\":5954:5960   */\n      0x00\n        /* \"#utility.yul\":5988:5993   */\n      dup2\n        /* \"#utility.yul\":5982:5994   */\n      mload\n        /* \"#utility.yul\":5972:5994   */\n      swap1\n      pop\n        /* \"#utility.yul\":5862:6001   */\n      swap2\n      swap1\n      pop\n      jump\t// out\n        /* \"#utility.yul\":6007:6216   */\n    tag_277:\n        /* \"#utility.yul\":6131:6142   */\n      0x00\n        /* \"#utility.yul\":6165:6171   */\n      dup3\n        /* \"#utility.yul\":6160:6163   */\n      dup3\n        /* \"#utility.yul\":6153:6172   */\n      mstore\n        /* \"#utility.yul\":6205:6209   */\n      0x20\n        /* \"#utility.yul\":6200:6203   */\n      dup3\n        /* \"#utility.yul\":6196:6210   */\n      add\n        /* \"#utility.yul\":6181:6210   */\n      swap1\n      pop\n        /* \"#utility.yul\":6007:6216   */\n      swap3\n      swap2\n      pop\n      pop\n      jump\t// out\n        /* \"#utility.yul\":6222:6379   */\n    tag_278:\n        /* \"#utility.yul\":6314:6318   */\n      0x00\n        /* \"#utility.yul\":6337:6340   */\n      dup2\n        /* \"#utility.yul\":6329:6340   */\n      swap1\n      pop\n        /* \"#utility.yul\":6367:6371   */\n      0x20\n        /* \"#utility.yul\":6362:6365   */\n      dup3\n        /* \"#utility.yul\":6358:6372   */\n      add\n        /* \"#utility.yul\":6350:6372   */\n      swap1\n      pop\n        /* \"#utility.yul\":6222:6379   */\n      swap2\n      swap1\n      pop\n      jump\t// out\n        /* \"#utility.yul\":6459:8089   */\n    tag_279:\n        /* \"#utility.yul\":6568:6571   */\n      0x00\n        /* \"#utility.yul\":6604:6608   */\n      0xe0\n        /* \"#utility.yul\":6599:6602   */\n      dup4\n        /* \"#utility.yul\":6595:6609   */\n      add\n        /* \"#utility.yul\":6691:6695   */\n      0x00\n        /* \"#utility.yul\":6684:6689   */\n      dup4\n        /* \"#utility.yul\":6680:6696   */\n      add\n        /* \"#utility.yul\":6674:6697   */\n      mload\n        /* \"#utility.yul\":6744:6747   */\n      dup5\n        /* \"#utility.yul\":6738:6742   */\n      dup3\n        /* \"#utility.yul\":6734:6748   */\n      sub\n        /* \"#utility.yul\":6727:6731   */\n      0x00\n        /* \"#utility.yul\":6722:6725   */\n      dup7\n        /* \"#utility.yul\":6718:6732   */\n      add\n        /* \"#utility.yul\":6711:6749   */\n      mstore\n        /* \"#utility.yul\":6770:6843   */\n      tag_398\n        /* \"#utility.yul\":6838:6842   */\n      dup3\n        /* \"#utility.yul\":6824:6836   */\n      dup3\n        /* \"#utility.yul\":6770:6843   */\n      tag_265\n      jump\t// in\n    tag_398:\n        /* \"#utility.yul\":6762:6843   */\n      swap2\n      pop\n        /* \"#utility.yul\":6619:6854   */\n      pop\n        /* \"#utility.yul\":6935:6939   */\n      0x20\n        /* \"#utility.yul\":6928:6933   */\n      dup4\n        /* \"#utility.yul\":6924:6940   */\n      add\n        /* \"#utility.yul\":6918:6941   */\n      mload\n        /* \"#utility.yul\":6954:7017   */\n      tag_399\n        /* \"#utility.yul\":7011:7015   */\n      0x20\n        /* \"#utility.yul\":7006:7009   */\n      dup7\n        /* \"#utility.yul\":7002:7016   */\n      add\n        /* \"#utility.yul\":6988:7000   */\n      dup3\n        /* \"#utility.yul\":6954:7017   */\n      tag_267\n      jump\t// in\n    tag_399:\n        /* \"#utility.yul\":6864:7027   */\n      pop\n        /* \"#utility.yul\":7110:7114   */\n      0x40\n        /* \"#utility.yul\":7103:7108   */\n      dup4\n        /* \"#utility.yul\":7099:7115   */\n      add\n        /* \"#utility.yul\":7093:7116   */\n      mload\n        /* \"#utility.yul\":7163:7166   */\n      dup5\n        /* \"#utility.yul\":7157:7161   */\n      dup3\n        /* \"#utility.yul\":7153:7167   */\n      sub\n        /* \"#utility.yul\":7146:7150   */\n      0x40\n        /* \"#utility.yul\":7141:7144   */\n      dup7\n        /* \"#utility.yul\":7137:7151   */\n      add\n        /* \"#utility.yul\":7130:7168   */\n      mstore\n        /* \"#utility.yul\":7189:7262   */\n      tag_400\n        /* \"#utility.yul\":7257:7261   */\n      dup3\n        /* \"#utility.yul\":7243:7255   */\n      dup3\n        /* \"#utility.yul\":7189:7262   */\n      tag_265\n      jump\t// in\n    tag_400:\n        /* \"#utility.yul\":7181:7262   */\n      swap2\n      pop\n        /* \"#utility.yul\":7037:7273   */\n      pop\n        /* \"#utility.yul\":7362:7366   */\n      0x60\n        /* \"#utility.yul\":7355:7360   */\n      dup4\n        /* \"#utility.yul\":7351:7367   */\n      add\n        /* \"#utility.yul\":7345:7368   */\n      mload\n        /* \"#utility.yul\":7381:7444   */\n      tag_401\n        /* \"#utility.yul\":7438:7442   */\n      0x60\n        /* \"#utility.yul\":7433:7436   */\n      dup7\n        /* \"#utility.yul\":7429:7443   */\n      add\n        /* \"#utility.yul\":7415:7427   */\n      dup3\n        /* \"#utility.yul\":7381:7444   */\n      tag_267\n      jump\t// in\n    tag_401:\n        /* \"#utility.yul\":7283:7454   */\n      pop\n        /* \"#utility.yul\":7538:7542   */\n      0x80\n        /* \"#utility.yul\":7531:7536   */\n      dup4\n        /* \"#utility.yul\":7527:7543   */\n      add\n        /* \"#utility.yul\":7521:7544   */\n      mload\n        /* \"#utility.yul\":7591:7594   */\n      dup5\n        /* \"#utility.yul\":7585:7589   */\n      dup3\n        /* \"#utility.yul\":7581:7595   */\n      sub\n        /* \"#utility.yul\":7574:7578   */\n      0x80\n        /* \"#utility.yul\":7569:7572   */\n      dup7\n        /* \"#utility.yul\":7565:7579   */\n      add\n        /* \"#utility.yul\":7558:7596   */\n      mstore\n        /* \"#utility.yul\":7617:7690   */\n      tag_402\n        /* \"#utility.yul\":7685:7689   */\n      dup3\n        /* \"#utility.yul\":7671:7683   */\n      dup3\n        /* \"#utility.yul\":7617:7690   */\n      tag_265\n      jump\t// in\n    tag_402:\n        /* \"#utility.yul\":7609:7690   */\n      swap2\n      pop\n        /* \"#utility.yul\":7464:7701   */\n      pop\n        /* \"#utility.yul\":7795:7799   */\n      0xa0\n        /* \"#utility.yul\":7788:7793   */\n      dup4\n        /* \"#utility.yul\":7784:7800   */\n      add\n        /* \"#utility.yul\":7778:7801   */\n      mload\n        /* \"#utility.yul\":7814:7877   */\n      tag_403\n        /* \"#utility.yul\":7871:7875   */\n      0xa0\n        /* \"#utility.yul\":7866:7869   */\n      dup7\n        /* \"#utility.yul\":7862:7876   */\n      add\n        /* \"#utility.yul\":7848:7860   */\n      dup3\n        /* \"#utility.yul\":7814:7877   */\n      tag_270\n      jump\t// in\n    tag_403:\n        /* \"#utility.yul\":7711:7887   */\n      pop\n        /* \"#utility.yul\":7970:7974   */\n      0xc0\n        /* \"#utility.yul\":7963:7968   */\n      dup4\n        /* \"#utility.yul\":7959:7975   */\n      add\n        /* \"#utility.yul\":7953:7976   */\n      mload\n        /* \"#utility.yul\":7989:8052   */\n      tag_404\n        /* \"#utility.yul\":8046:8050   */\n      0xc0\n        /* \"#utility.yul\":8041:8044   */\n      dup7\n        /* \"#utility.yul\":8037:8051   */\n      add\n        /* \"#utility.yul\":8023:8035   */\n      dup3\n        /* \"#utility.yul\":7989:8052   */\n      tag_267\n      jump\t// in\n    tag_404:\n        /* \"#utility.yul\":7897:8062   */\n      pop\n        /* \"#utility.yul\":8079:8083   */\n      dup1\n        /* \"#utility.yul\":8072:8083   */\n      swap2\n      pop\n        /* \"#utility.yul\":6573:8089   */\n      pop\n        /* \"#utility.yul\":6459:8089   */\n      swap3\n      swap2\n      pop\n      pop\n      jump\t// out\n        /* \"#utility.yul\":8095:8351   */\n    tag_280:\n        /* \"#utility.yul\":8214:8224   */\n      0x00\n        /* \"#utility.yul\":8249:8345   */\n      tag_406\n        /* \"#utility.yul\":8341:8344   */\n      dup4\n        /* \"#utility.yul\":8333:8339   */\n      dup4\n        /* \"#utility.yul\":8249:8345   */\n      tag_279\n      jump\t// in\n    tag_406:\n        /* \"#utility.yul\":8235:8345   */\n      swap1\n      pop\n        /* \"#utility.yul\":8095:8351   */\n      swap3\n      swap2\n      pop\n      pop\n      jump\t// out\n        /* \"#utility.yul\":8357:8495   */\n    tag_281:\n        /* \"#utility.yul\":8452:8456   */\n      0x00\n        /* \"#utility.yul\":8484:8488   */\n      0x20\n        /* \"#utility.yul\":8479:8482   */\n      dup3\n        /* \"#utility.yul\":8475:8489   */\n      add\n        /* \"#utility.yul\":8467:8489   */\n      swap1\n      pop\n        /* \"#utility.yul\":8357:8495   */\n      swap2\n      swap1\n      pop\n      jump\t// out\n        /* \"#utility.yul\":8579:9690   */\n    tag_282:\n        /* \"#utility.yul\":8748:8751   */\n      0x00\n        /* \"#utility.yul\":8777:8856   */\n      tag_409\n        /* \"#utility.yul\":8850:8855   */\n      dup3\n        /* \"#utility.yul\":8777:8856   */\n      tag_276\n      jump\t// in\n    tag_409:\n        /* \"#utility.yul\":8872:8983   */\n      tag_410\n        /* \"#utility.yul\":8976:8982   */\n      dup2\n        /* \"#utility.yul\":8971:8974   */\n      dup6\n        /* \"#utility.yul\":8872:8983   */\n      tag_277\n      jump\t// in\n    tag_410:\n        /* \"#utility.yul\":8865:8983   */\n      swap4\n      pop\n        /* \"#utility.yul\":9009:9012   */\n      dup4\n        /* \"#utility.yul\":9054:9058   */\n      0x20\n        /* \"#utility.yul\":9046:9052   */\n      dup3\n        /* \"#utility.yul\":9042:9059   */\n      mul\n        /* \"#utility.yul\":9037:9040   */\n      dup6\n        /* \"#utility.yul\":9033:9060   */\n      add\n        /* \"#utility.yul\":9084:9165   */\n      tag_411\n        /* \"#utility.yul\":9159:9164   */\n      dup6\n        /* \"#utility.yul\":9084:9165   */\n      tag_278\n      jump\t// in\n    tag_411:\n        /* \"#utility.yul\":9188:9195   */\n      dup1\n        /* \"#utility.yul\":9219:9220   */\n      0x00\n        /* \"#utility.yul\":9204:9645   */\n    tag_412:\n        /* \"#utility.yul\":9229:9235   */\n      dup6\n        /* \"#utility.yul\":9226:9227   */\n      dup2\n        /* \"#utility.yul\":9223:9236   */\n      lt\n        /* \"#utility.yul\":9204:9645   */\n      iszero\n      tag_414\n      jumpi\n        /* \"#utility.yul\":9300:9309   */\n      dup5\n        /* \"#utility.yul\":9294:9298   */\n      dup5\n        /* \"#utility.yul\":9290:9310   */\n      sub\n        /* \"#utility.yul\":9285:9288   */\n      dup10\n        /* \"#utility.yul\":9278:9311   */\n      mstore\n        /* \"#utility.yul\":9351:9357   */\n      dup2\n        /* \"#utility.yul\":9345:9358   */\n      mload\n        /* \"#utility.yul\":9379:9493   */\n      tag_415\n        /* \"#utility.yul\":9488:9492   */\n      dup6\n        /* \"#utility.yul\":9473:9486   */\n      dup3\n        /* \"#utility.yul\":9379:9493   */\n      tag_280\n      jump\t// in\n    tag_415:\n        /* \"#utility.yul\":9371:9493   */\n      swap5\n      pop\n        /* \"#utility.yul\":9516:9601   */\n      tag_416\n        /* \"#utility.yul\":9594:9600   */\n      dup4\n        /* \"#utility.yul\":9516:9601   */\n      tag_281\n      jump\t// in\n    tag_416:\n        /* \"#utility.yul\":9506:9601   */\n      swap3\n      pop\n        /* \"#utility.yul\":9630:9634   */\n      0x20\n        /* \"#utility.yul\":9625:9628   */\n      dup11\n        /* \"#utility.yul\":9621:9635   */\n      add\n        /* \"#utility.yul\":9614:9635   */\n      swap10\n      pop\n        /* \"#utility.yul\":9264:9645   */\n      pop\n        /* \"#utility.yul\":9251:9252   */\n      0x01\n        /* \"#utility.yul\":9248:9249   */\n      dup2\n        /* \"#utility.yul\":9244:9253   */\n      add\n        /* \"#utility.yul\":9239:9253   */\n      swap1\n      pop\n        /* \"#utility.yul\":9204:9645   */\n      jump(tag_412)\n    tag_414:\n        /* \"#utility.yul\":9208:9222   */\n      pop\n        /* \"#utility.yul\":9661:9665   */\n      dup3\n        /* \"#utility.yul\":9654:9665   */\n      swap8\n      pop\n        /* \"#utility.yul\":9681:9684   */\n      dup8\n        /* \"#utility.yul\":9674:9684   */\n      swap6\n      pop\n        /* \"#utility.yul\":8753:9690   */\n      pop\n      pop\n      pop\n      pop\n      pop\n        /* \"#utility.yul\":8579:9690   */\n      swap3\n      swap2\n      pop\n      pop\n      jump\t// out\n        /* \"#utility.yul\":9696:10169   */\n    tag_26:\n        /* \"#utility.yul\":9889:9893   */\n      0x00\n        /* \"#utility.yul\":9927:9929   */\n      0x20\n        /* \"#utility.yul\":9916:9925   */\n      dup3\n        /* \"#utility.yul\":9912:9930   */\n      add\n        /* \"#utility.yul\":9904:9930   */\n      swap1\n      pop\n        /* \"#utility.yul\":9976:9985   */\n      dup2\n        /* \"#utility.yul\":9970:9974   */\n      dup2\n        /* \"#utility.yul\":9966:9986   */\n      sub\n        /* \"#utility.yul\":9962:9963   */\n      0x00\n        /* \"#utility.yul\":9951:9960   */\n      dup4\n        /* \"#utility.yul\":9947:9964   */\n      add\n        /* \"#utility.yul\":9940:9987   */\n      mstore\n        /* \"#utility.yul\":10004:10162   */\n      tag_418\n        /* \"#utility.yul\":10157:10161   */\n      dup2\n        /* \"#utility.yul\":10148:10154   */\n      dup5\n        /* \"#utility.yul\":10004:10162   */\n      tag_282\n      jump\t// in\n    tag_418:\n        /* \"#utility.yul\":9996:10162   */\n      swap1\n      pop\n        /* \"#utility.yul\":9696:10169   */\n      swap3\n      swap2\n      pop\n      pop\n      jump\t// out\n        /* \"#utility.yul\":10175:10250   */\n    tag_283:\n        /* \"#utility.yul\":10208:10214   */\n      0x00\n        /* \"#utility.yul\":10241:10243   */\n      0x40\n        /* \"#utility.yul\":10235:10244   */\n      mload\n        /* \"#utility.yul\":10225:10244   */\n      swap1\n      pop\n        /* \"#utility.yul\":10175:10250   */\n      swap1\n      jump\t// out\n        /* \"#utility.yul\":10256:10373   */\n    tag_284:\n        /* \"#utility.yul\":10365:10366   */\n      0x00\n        /* \"#utility.yul\":10362:10363   */\n      dup1\n        /* \"#utility.yul\":10355:10367   */\n      revert\n        /* \"#utility.yul\":10379:10496   */\n    tag_285:\n        /* \"#utility.yul\":10488:10489   */\n      0x00\n        /* \"#utility.yul\":10485:10486   */\n      dup1\n        /* \"#utility.yul\":10478:10490   */\n      revert\n        /* \"#utility.yul\":10502:10624   */\n    tag_286:\n        /* \"#utility.yul\":10575:10599   */\n      tag_423\n        /* \"#utility.yul\":10593:10598   */\n      dup2\n        /* \"#utility.yul\":10575:10599   */\n      tag_266\n      jump\t// in\n    tag_423:\n        /* \"#utility.yul\":10568:10573   */\n      dup2\n        /* \"#utility.yul\":10565:10600   */\n      eq\n        /* \"#utility.yul\":10555:10618   */\n      tag_424\n      jumpi\n        /* \"#utility.yul\":10614:10615   */\n      0x00\n        /* \"#utility.yul\":10611:10612   */\n      dup1\n        /* \"#utility.yul\":10604:10616   */\n      revert\n        /* \"#utility.yul\":10555:10618   */\n    tag_424:\n        /* \"#utility.yul\":10502:10624   */\n      pop\n      jump\t// out\n        /* \"#utility.yul\":10630:10769   */\n    tag_287:\n        /* \"#utility.yul\":10676:10681   */\n      0x00\n        /* \"#utility.yul\":10714:10720   */\n      dup2\n        /* \"#utility.yul\":10701:10721   */\n      calldataload\n        /* \"#utility.yul\":10692:10721   */\n      swap1\n      pop\n        /* \"#utility.yul\":10730:10763   */\n      tag_426\n        /* \"#utility.yul\":10757:10762   */\n      dup2\n        /* \"#utility.yul\":10730:10763   */\n      tag_286\n      jump\t// in\n    tag_426:\n        /* \"#utility.yul\":10630:10769   */\n      swap3\n      swap2\n      pop\n      pop\n      jump\t// out\n        /* \"#utility.yul\":10775:11249   */\n    tag_29:\n        /* \"#utility.yul\":10843:10849   */\n      0x00\n        /* \"#utility.yul\":10851:10857   */\n      dup1\n        /* \"#utility.yul\":10900:10902   */\n      0x40\n        /* \"#utility.yul\":10888:10897   */\n      dup4\n        /* \"#utility.yul\":10879:10886   */\n      dup6\n        /* \"#utility.yul\":10875:10898   */\n      sub\n        /* \"#utility.yul\":10871:10903   */\n      slt\n        /* \"#utility.yul\":10868:10987   */\n      iszero\n      tag_428\n      jumpi\n        /* \"#utility.yul\":10906:10985   */\n      tag_429\n      tag_284\n      jump\t// in\n    tag_429:\n        /* \"#utility.yul\":10868:10987   */\n    tag_428:\n        /* \"#utility.yul\":11026:11027   */\n      0x00\n        /* \"#utility.yul\":11051:11104   */\n      tag_430\n        /* \"#utility.yul\":11096:11103   */\n      dup6\n        /* \"#utility.yul\":11087:11093   */\n      dup3\n        /* \"#utility.yul\":11076:11085   */\n      dup7\n        /* \"#utility.yul\":11072:11094   */\n      add\n        /* \"#utility.yul\":11051:11104   */\n      tag_287\n      jump\t// in\n    tag_430:\n        /* \"#utility.yul\":11041:11104   */\n      swap3\n      pop\n        /* \"#utility.yul\":10997:11114   */\n      pop\n        /* \"#utility.yul\":11153:11155   */\n      0x20\n        /* \"#utility.yul\":11179:11232   */\n      tag_431\n        /* \"#utility.yul\":11224:11231   */\n      dup6\n        /* \"#utility.yul\":11215:11221   */\n      dup3\n        /* \"#utility.yul\":11204:11213   */\n      dup7\n        /* \"#utility.yul\":11200:11222   */\n      add\n        /* \"#utility.yul\":11179:11232   */\n      tag_287\n      jump\t// in\n    tag_431:\n        /* \"#utility.yul\":11169:11232   */\n      swap2\n      pop\n        /* \"#utility.yul\":11124:11242   */\n      pop\n        /* \"#utility.yul\":10775:11249   */\n      swap3\n      pop\n      swap3\n      swap1\n      pop\n      jump\t// out\n        /* \"#utility.yul\":11255:11372   */\n    tag_288:\n        /* \"#utility.yul\":11364:11365   */\n      0x00\n        /* \"#utility.yul\":11361:11362   */\n      dup1\n        /* \"#utility.yul\":11354:11366   */\n      revert\n        /* \"#utility.yul\":11378:11495   */\n    tag_289:\n        /* \"#utility.yul\":11487:11488   */\n      0x00\n        /* \"#utility.yul\":11484:11485   */\n      dup1\n        /* \"#utility.yul\":11477:11489   */\n      revert\n        /* \"#utility.yul\":11501:11681   */\n    tag_64:\n        /* \"#utility.yul\":11549:11626   */\n      0x4e487b7100000000000000000000000000000000000000000000000000000000\n        /* \"#utility.yul\":11546:11547   */\n      0x00\n        /* \"#utility.yul\":11539:11627   */\n      mstore\n        /* \"#utility.yul\":11646:11650   */\n      0x41\n        /* \"#utility.yul\":11643:11644   */\n      0x04\n        /* \"#utility.yul\":11636:11651   */\n      mstore\n        /* \"#utility.yul\":11670:11674   */\n      0x24\n        /* \"#utility.yul\":11667:11668   */\n      0x00\n        /* \"#utility.yul\":11660:11675   */\n      revert\n        /* \"#utility.yul\":11687:11968   */\n    tag_290:\n        /* \"#utility.yul\":11770:11797   */\n      tag_436\n        /* \"#utility.yul\":11792:11796   */\n      dup3\n        /* \"#utility.yul\":11770:11797   */\n      tag_264\n      jump\t// in\n    tag_436:\n        /* \"#utility.yul\":11762:11768   */\n      dup2\n        /* \"#utility.yul\":11758:11798   */\n      add\n        /* \"#utility.yul\":11900:11906   */\n      dup2\n        /* \"#utility.yul\":11888:11898   */\n      dup2\n        /* \"#utility.yul\":11885:11907   */\n      lt\n        /* \"#utility.yul\":11864:11882   */\n      0xffffffffffffffff\n        /* \"#utility.yul\":11852:11862   */\n      dup3\n        /* \"#utility.yul\":11849:11883   */\n      gt\n        /* \"#utility.yul\":11846:11908   */\n      or\n        /* \"#utility.yul\":11843:11931   */\n      iszero\n      tag_437\n      jumpi\n        /* \"#utility.yul\":11911:11929   */\n      tag_438\n      tag_64\n      jump\t// in\n    tag_438:\n        /* \"#utility.yul\":11843:11931   */\n    tag_437:\n        /* \"#utility.yul\":11951:11961   */\n      dup1\n        /* \"#utility.yul\":11947:11949   */\n      0x40\n        /* \"#utility.yul\":11940:11962   */\n      mstore\n        /* \"#utility.yul\":11730:11968   */\n      pop\n        /* \"#utility.yul\":11687:11968   */\n      pop\n      pop\n      jump\t// out\n        /* \"#utility.yul\":11974:12103   */\n    tag_291:\n        /* \"#utility.yul\":12008:12014   */\n      0x00\n        /* \"#utility.yul\":12035:12055   */\n      tag_440\n      tag_283\n      jump\t// in\n    tag_440:\n        /* \"#utility.yul\":12025:12055   */\n      swap1\n      pop\n        /* \"#utility.yul\":12064:12097   */\n      tag_441\n        /* \"#utility.yul\":12092:12096   */\n      dup3\n        /* \"#utility.yul\":12084:12090   */\n      dup3\n        /* \"#utility.yul\":12064:12097   */\n      tag_290\n      jump\t// in\n    tag_441:\n        /* \"#utility.yul\":11974:12103   */\n      swap2\n      swap1\n      pop\n      jump\t// out\n        /* \"#utility.yul\":12109:12417   */\n    tag_292:\n        /* \"#utility.yul\":12171:12175   */\n      0x00\n        /* \"#utility.yul\":12261:12279   */\n      0xffffffffffffffff\n        /* \"#utility.yul\":12253:12259   */\n      dup3\n        /* \"#utility.yul\":12250:12280   */\n      gt\n        /* \"#utility.yul\":12247:12303   */\n      iszero\n      tag_443\n      jumpi\n        /* \"#utility.yul\":12283:12301   */\n      tag_444\n      tag_64\n      jump\t// in\n    tag_444:\n        /* \"#utility.yul\":12247:12303   */\n    tag_443:\n        /* \"#utility.yul\":12321:12350   */\n      tag_445\n        /* \"#utility.yul\":12343:12349   */\n      dup3\n        /* \"#utility.yul\":12321:12350   */\n      tag_264\n      jump\t// in\n    tag_445:\n        /* \"#utility.yul\":12313:12350   */\n      swap1\n      pop\n        /* \"#utility.yul\":12405:12409   */\n      0x20\n        /* \"#utility.yul\":12399:12403   */\n      dup2\n        /* \"#utility.yul\":12395:12410   */\n      add\n        /* \"#utility.yul\":12387:12410   */\n      swap1\n      pop\n        /* \"#utility.yul\":12109:12417   */\n      swap2\n      swap1\n      pop\n      jump\t// out\n        /* \"#utility.yul\":12423:12569   */\n    tag_293:\n        /* \"#utility.yul\":12520:12526   */\n      dup3\n        /* \"#utility.yul\":12515:12518   */\n      dup2\n        /* \"#utility.yul\":12510:12513   */\n      dup4\n        /* \"#utility.yul\":12497:12527   */\n      calldatacopy\n        /* \"#utility.yul\":12561:12562   */\n      0x00\n        /* \"#utility.yul\":12552:12558   */\n      dup4\n        /* \"#utility.yul\":12547:12550   */\n      dup4\n        /* \"#utility.yul\":12543:12559   */\n      add\n        /* \"#utility.yul\":12536:12563   */\n      mstore\n        /* \"#utility.yul\":12423:12569   */\n      pop\n      pop\n      pop\n      jump\t// out\n        /* \"#utility.yul\":12575:13000   */\n    tag_294:\n        /* \"#utility.yul\":12653:12658   */\n      0x00\n        /* \"#utility.yul\":12678:12744   */\n      tag_448\n        /* \"#utility.yul\":12694:12743   */\n      tag_449\n        /* \"#utility.yul\":12736:12742   */\n      dup5\n        /* \"#utility.yul\":12694:12743   */\n      tag_292\n      jump\t// in\n    tag_449:\n        /* \"#utility.yul\":12678:12744   */\n      tag_291\n      jump\t// in\n    tag_448:\n        /* \"#utility.yul\":12669:12744   */\n      swap1\n      pop\n        /* \"#utility.yul\":12767:12773   */\n      dup3\n        /* \"#utility.yul\":12760:12765   */\n      dup2\n        /* \"#utility.yul\":12753:12774   */\n      mstore\n        /* \"#utility.yul\":12805:12809   */\n      0x20\n        /* \"#utility.yul\":12798:12803   */\n      dup2\n        /* \"#utility.yul\":12794:12810   */\n      add\n        /* \"#utility.yul\":12843:12846   */\n      dup5\n        /* \"#utility.yul\":12834:12840   */\n      dup5\n        /* \"#utility.yul\":12829:12832   */\n      dup5\n        /* \"#utility.yul\":12825:12841   */\n      add\n        /* \"#utility.yul\":12822:12847   */\n      gt\n        /* \"#utility.yul\":12819:12931   */\n      iszero\n      tag_450\n      jumpi\n        /* \"#utility.yul\":12850:12929   */\n      tag_451\n      tag_289\n      jump\t// in\n    tag_451:\n        /* \"#utility.yul\":12819:12931   */\n    tag_450:\n        /* \"#utility.yul\":12940:12994   */\n      tag_452\n        /* \"#utility.yul\":12987:12993   */\n      dup5\n        /* \"#utility.yul\":12982:12985   */\n      dup3\n        /* \"#utility.yul\":12977:12980   */\n      dup6\n        /* \"#utility.yul\":12940:12994   */\n      tag_293\n      jump\t// in\n    tag_452:\n        /* \"#utility.yul\":12659:13000   */\n      pop\n        /* \"#utility.yul\":12575:13000   */\n      swap4\n      swap3\n      pop\n      pop\n      pop\n      jump\t// out\n        /* \"#utility.yul\":13020:13360   */\n    tag_295:\n        /* \"#utility.yul\":13076:13081   */\n      0x00\n        /* \"#utility.yul\":13125:13128   */\n      dup3\n        /* \"#utility.yul\":13118:13122   */\n      0x1f\n        /* \"#utility.yul\":13110:13116   */\n      dup4\n        /* \"#utility.yul\":13106:13123   */\n      add\n        /* \"#utility.yul\":13102:13129   */\n      slt\n        /* \"#utility.yul\":13092:13214   */\n      tag_454\n      jumpi\n        /* \"#utility.yul\":13133:13212   */\n      tag_455\n      tag_288\n      jump\t// in\n    tag_455:\n        /* \"#utility.yul\":13092:13214   */\n    tag_454:\n        /* \"#utility.yul\":13250:13256   */\n      dup2\n        /* \"#utility.yul\":13237:13257   */\n      calldataload\n        /* \"#utility.yul\":13275:13354   */\n      tag_456\n        /* \"#utility.yul\":13350:13353   */\n      dup5\n        /* \"#utility.yul\":13342:13348   */\n      dup3\n        /* \"#utility.yul\":13335:13339   */\n      0x20\n        /* \"#utility.yul\":13327:13333   */\n      dup7\n        /* \"#utility.yul\":13323:13340   */\n      add\n        /* \"#utility.yul\":13275:13354   */\n      tag_294\n      jump\t// in\n    tag_456:\n        /* \"#utility.yul\":13266:13354   */\n      swap2\n      pop\n        /* \"#utility.yul\":13082:13360   */\n      pop\n        /* \"#utility.yul\":13020:13360   */\n      swap3\n      swap2\n      pop\n      pop\n      jump\t// out\n        /* \"#utility.yul\":13366:14345   */\n    tag_33:\n        /* \"#utility.yul\":13463:13469   */\n      0x00\n        /* \"#utility.yul\":13471:13477   */\n      dup1\n        /* \"#utility.yul\":13479:13485   */\n      0x00\n        /* \"#utility.yul\":13528:13530   */\n      0x60\n        /* \"#utility.yul\":13516:13525   */\n      dup5\n        /* \"#utility.yul\":13507:13514   */\n      dup7\n        /* \"#utility.yul\":13503:13526   */\n      sub\n        /* \"#utility.yul\":13499:13531   */\n      slt\n        /* \"#utility.yul\":13496:13615   */\n      iszero\n      tag_458\n      jumpi\n        /* \"#utility.yul\":13534:13613   */\n      tag_459\n      tag_284\n      jump\t// in\n    tag_459:\n        /* \"#utility.yul\":13496:13615   */\n    tag_458:\n        /* \"#utility.yul\":13682:13683   */\n      0x00\n        /* \"#utility.yul\":13671:13680   */\n      dup5\n        /* \"#utility.yul\":13667:13684   */\n      add\n        /* \"#utility.yul\":13654:13685   */\n      calldataload\n        /* \"#utility.yul\":13712:13730   */\n      0xffffffffffffffff\n        /* \"#utility.yul\":13704:13710   */\n      dup2\n        /* \"#utility.yul\":13701:13731   */\n      gt\n        /* \"#utility.yul\":13698:13815   */\n      iszero\n      tag_460\n      jumpi\n        /* \"#utility.yul\":13734:13813   */\n      tag_461\n      tag_285\n      jump\t// in\n    tag_461:\n        /* \"#utility.yul\":13698:13815   */\n    tag_460:\n        /* \"#utility.yul\":13839:13902   */\n      tag_462\n        /* \"#utility.yul\":13894:13901   */\n      dup7\n        /* \"#utility.yul\":13885:13891   */\n      dup3\n        /* \"#utility.yul\":13874:13883   */\n      dup8\n        /* \"#utility.yul\":13870:13892   */\n      add\n        /* \"#utility.yul\":13839:13902   */\n      tag_295\n      jump\t// in\n    tag_462:\n        /* \"#utility.yul\":13829:13902   */\n      swap4\n      pop\n        /* \"#utility.yul\":13625:13912   */\n      pop\n        /* \"#utility.yul\":13951:13953   */\n      0x20\n        /* \"#utility.yul\":13977:14030   */\n      tag_463\n        /* \"#utility.yul\":14022:14029   */\n      dup7\n        /* \"#utility.yul\":14013:14019   */\n      dup3\n        /* \"#utility.yul\":14002:14011   */\n      dup8\n        /* \"#utility.yul\":13998:14020   */\n      add\n        /* \"#utility.yul\":13977:14030   */\n      tag_287\n      jump\t// in\n    tag_463:\n        /* \"#utility.yul\":13967:14030   */\n      swap3\n      pop\n        /* \"#utility.yul\":13922:14040   */\n      pop\n        /* \"#utility.yul\":14107:14109   */\n      0x40\n        /* \"#utility.yul\":14096:14105   */\n      dup5\n        /* \"#utility.yul\":14092:14110   */\n      add\n        /* \"#utility.yul\":14079:14111   */\n      calldataload\n        /* \"#utility.yul\":14138:14156   */\n      0xffffffffffffffff\n        /* \"#utility.yul\":14130:14136   */\n      dup2\n        /* \"#utility.yul\":14127:14157   */\n      gt\n        /* \"#utility.yul\":14124:14241   */\n      iszero\n      tag_464\n      jumpi\n        /* \"#utility.yul\":14160:14239   */\n      tag_465\n      tag_285\n      jump\t// in\n    tag_465:\n        /* \"#utility.yul\":14124:14241   */\n    tag_464:\n        /* \"#utility.yul\":14265:14328   */\n      tag_466\n        /* \"#utility.yul\":14320:14327   */\n      dup7\n        /* \"#utility.yul\":14311:14317   */\n      dup3\n        /* \"#utility.yul\":14300:14309   */\n      dup8\n        /* \"#utility.yul\":14296:14318   */\n      add\n        /* \"#utility.yul\":14265:14328   */\n      tag_295\n      jump\t// in\n    tag_466:\n        /* \"#utility.yul\":14255:14328   */\n      swap2\n      pop\n        /* \"#utility.yul\":14050:14338   */\n      pop\n        /* \"#utility.yul\":13366:14345   */\n      swap3\n      pop\n      swap3\n      pop\n      swap3\n      jump\t// out\n        /* \"#utility.yul\":14351:14468   */\n    tag_296:\n        /* \"#utility.yul\":14460:14461   */\n      0x00\n        /* \"#utility.yul\":14457:14458   */\n      dup1\n        /* \"#utility.yul\":14450:14462   */\n      revert\n        /* \"#utility.yul\":14474:14591   */\n    tag_297:\n        /* \"#utility.yul\":14583:14584   */\n      0x00\n        /* \"#utility.yul\":14580:14581   */\n      dup1\n        /* \"#utility.yul\":14573:14585   */\n      revert\n        /* \"#utility.yul\":14611:15164   */\n    tag_298:\n        /* \"#utility.yul\":14669:14677   */\n      0x00\n        /* \"#utility.yul\":14679:14685   */\n      dup1\n        /* \"#utility.yul\":14729:14732   */\n      dup4\n        /* \"#utility.yul\":14722:14726   */\n      0x1f\n        /* \"#utility.yul\":14714:14720   */\n      dup5\n        /* \"#utility.yul\":14710:14727   */\n      add\n        /* \"#utility.yul\":14706:14733   */\n      slt\n        /* \"#utility.yul\":14696:14818   */\n      tag_470\n      jumpi\n        /* \"#utility.yul\":14737:14816   */\n      tag_471\n      tag_288\n      jump\t// in\n    tag_471:\n        /* \"#utility.yul\":14696:14818   */\n    tag_470:\n        /* \"#utility.yul\":14850:14856   */\n      dup3\n        /* \"#utility.yul\":14837:14857   */\n      calldataload\n        /* \"#utility.yul\":14827:14857   */\n      swap1\n      pop\n        /* \"#utility.yul\":14880:14898   */\n      0xffffffffffffffff\n        /* \"#utility.yul\":14872:14878   */\n      dup2\n        /* \"#utility.yul\":14869:14899   */\n      gt\n        /* \"#utility.yul\":14866:14983   */\n      iszero\n      tag_472\n      jumpi\n        /* \"#utility.yul\":14902:14981   */\n      tag_473\n      tag_296\n      jump\t// in\n    tag_473:\n        /* \"#utility.yul\":14866:14983   */\n    tag_472:\n        /* \"#utility.yul\":15016:15020   */\n      0x20\n        /* \"#utility.yul\":15008:15014   */\n      dup4\n        /* \"#utility.yul\":15004:15021   */\n      add\n        /* \"#utility.yul\":14992:15021   */\n      swap2\n      pop\n        /* \"#utility.yul\":15070:15073   */\n      dup4\n        /* \"#utility.yul\":15062:15066   */\n      0x01\n        /* \"#utility.yul\":15054:15060   */\n      dup3\n        /* \"#utility.yul\":15050:15067   */\n      mul\n        /* \"#utility.yul\":15040:15048   */\n      dup4\n        /* \"#utility.yul\":15036:15068   */\n      add\n        /* \"#utility.yul\":15033:15074   */\n      gt\n        /* \"#utility.yul\":15030:15158   */\n      iszero\n      tag_474\n      jumpi\n        /* \"#utility.yul\":15077:15156   */\n      tag_475\n      tag_297\n      jump\t// in\n    tag_475:\n        /* \"#utility.yul\":15030:15158   */\n    tag_474:\n        /* \"#utility.yul\":14611:15164   */\n      swap3\n      pop\n      swap3\n      swap1\n      pop\n      jump\t// out\n        /* \"#utility.yul\":15170:16495   */\n    tag_37:\n        /* \"#utility.yul\":15288:15294   */\n      0x00\n        /* \"#utility.yul\":15296:15302   */\n      dup1\n        /* \"#utility.yul\":15304:15310   */\n      0x00\n        /* \"#utility.yul\":15312:15318   */\n      dup1\n        /* \"#utility.yul\":15320:15326   */\n      0x00\n        /* \"#utility.yul\":15369:15372   */\n      0x80\n        /* \"#utility.yul\":15357:15366   */\n      dup7\n        /* \"#utility.yul\":15348:15355   */\n      dup9\n        /* \"#utility.yul\":15344:15367   */\n      sub\n        /* \"#utility.yul\":15340:15373   */\n      slt\n        /* \"#utility.yul\":15337:15457   */\n      iszero\n      tag_477\n      jumpi\n        /* \"#utility.yul\":15376:15455   */\n      tag_478\n      tag_284\n      jump\t// in\n    tag_478:\n        /* \"#utility.yul\":15337:15457   */\n    tag_477:\n        /* \"#utility.yul\":15524:15525   */\n      0x00\n        /* \"#utility.yul\":15513:15522   */\n      dup7\n        /* \"#utility.yul\":15509:15526   */\n      add\n        /* \"#utility.yul\":15496:15527   */\n      calldataload\n        /* \"#utility.yul\":15554:15572   */\n      0xffffffffffffffff\n        /* \"#utility.yul\":15546:15552   */\n      dup2\n        /* \"#utility.yul\":15543:15573   */\n      gt\n        /* \"#utility.yul\":15540:15657   */\n      iszero\n      tag_479\n      jumpi\n        /* \"#utility.yul\":15576:15655   */\n      tag_480\n      tag_285\n      jump\t// in\n    tag_480:\n        /* \"#utility.yul\":15540:15657   */\n    tag_479:\n        /* \"#utility.yul\":15689:15754   */\n      tag_481\n        /* \"#utility.yul\":15746:15753   */\n      dup9\n        /* \"#utility.yul\":15737:15743   */\n      dup3\n        /* \"#utility.yul\":15726:15735   */\n      dup10\n        /* \"#utility.yul\":15722:15744   */\n      add\n        /* \"#utility.yul\":15689:15754   */\n      tag_298\n      jump\t// in\n    tag_481:\n        /* \"#utility.yul\":15671:15754   */\n      swap6\n      pop\n      swap6\n      pop\n        /* \"#utility.yul\":15467:15764   */\n      pop\n        /* \"#utility.yul\":15803:15805   */\n      0x20\n        /* \"#utility.yul\":15829:15882   */\n      tag_482\n        /* \"#utility.yul\":15874:15881   */\n      dup9\n        /* \"#utility.yul\":15865:15871   */\n      dup3\n        /* \"#utility.yul\":15854:15863   */\n      dup10\n        /* \"#utility.yul\":15850:15872   */\n      add\n        /* \"#utility.yul\":15829:15882   */\n      tag_287\n      jump\t// in\n    tag_482:\n        /* \"#utility.yul\":15819:15882   */\n      swap4\n      pop\n        /* \"#utility.yul\":15774:15892   */\n      pop\n        /* \"#utility.yul\":15959:15961   */\n      0x40\n        /* \"#utility.yul\":15948:15957   */\n      dup7\n        /* \"#utility.yul\":15944:15962   */\n      add\n        /* \"#utility.yul\":15931:15963   */\n      calldataload\n        /* \"#utility.yul\":15990:16008   */\n      0xffffffffffffffff\n        /* \"#utility.yul\":15982:15988   */\n      dup2\n        /* \"#utility.yul\":15979:16009   */\n      gt\n        /* \"#utility.yul\":15976:16093   */\n      iszero\n      tag_483\n      jumpi\n        /* \"#utility.yul\":16012:16091   */\n      tag_484\n      tag_285\n      jump\t// in\n    tag_484:\n        /* \"#utility.yul\":15976:16093   */\n    tag_483:\n        /* \"#utility.yul\":16117:16180   */\n      tag_485\n        /* \"#utility.yul\":16172:16179   */\n      dup9\n        /* \"#utility.yul\":16163:16169   */\n      dup3\n        /* \"#utility.yul\":16152:16161   */\n      dup10\n        /* \"#utility.yul\":16148:16170   */\n      add\n        /* \"#utility.yul\":16117:16180   */\n      tag_295\n      jump\t// in\n    tag_485:\n        /* \"#utility.yul\":16107:16180   */\n      swap3\n      pop\n        /* \"#utility.yul\":15902:16190   */\n      pop\n        /* \"#utility.yul\":16257:16259   */\n      0x60\n        /* \"#utility.yul\":16246:16255   */\n      dup7\n        /* \"#utility.yul\":16242:16260   */\n      add\n        /* \"#utility.yul\":16229:16261   */\n      calldataload\n        /* \"#utility.yul\":16288:16306   */\n      0xffffffffffffffff\n        /* \"#utility.yul\":16280:16286   */\n      dup2\n        /* \"#utility.yul\":16277:16307   */\n      gt\n        /* \"#utility.yul\":16274:16391   */\n      iszero\n      tag_486\n      jumpi\n        /* \"#utility.yul\":16310:16389   */\n      tag_487\n      tag_285\n      jump\t// in\n    tag_487:\n        /* \"#utility.yul\":16274:16391   */\n    tag_486:\n        /* \"#utility.yul\":16415:16478   */\n      tag_488\n        /* \"#utility.yul\":16470:16477   */\n      dup9\n        /* \"#utility.yul\":16461:16467   */\n      dup3\n        /* \"#utility.yul\":16450:16459   */\n      dup10\n        /* \"#utility.yul\":16446:16468   */\n      add\n        /* \"#utility.yul\":16415:16478   */\n      tag_295\n      jump\t// in\n    tag_488:\n        /* \"#utility.yul\":16405:16478   */\n      swap2\n      pop\n        /* \"#utility.yul\":16200:16488   */\n      pop\n        /* \"#utility.yul\":15170:16495   */\n      swap3\n      swap6\n      pop\n      swap3\n      swap6\n      swap1\n      swap4\n      pop\n      jump\t// out\n        /* \"#utility.yul\":16501:16830   */\n    tag_41:\n        /* \"#utility.yul\":16560:16566   */\n      0x00\n        /* \"#utility.yul\":16609:16611   */\n      0x20\n        /* \"#utility.yul\":16597:16606   */\n      dup3\n        /* \"#utility.yul\":16588:16595   */\n      dup5\n        /* \"#utility.yul\":16584:16607   */\n      sub\n        /* \"#utility.yul\":16580:16612   */\n      slt\n        /* \"#utility.yul\":16577:16696   */\n      iszero\n      tag_490\n      jumpi\n        /* \"#utility.yul\":16615:16694   */\n      tag_491\n      tag_284\n      jump\t// in\n    tag_491:\n        /* \"#utility.yul\":16577:16696   */\n    tag_490:\n        /* \"#utility.yul\":16735:16736   */\n      0x00\n        /* \"#utility.yul\":16760:16813   */\n      tag_492\n        /* \"#utility.yul\":16805:16812   */\n      dup5\n        /* \"#utility.yul\":16796:16802   */\n      dup3\n        /* \"#utility.yul\":16785:16794   */\n      dup6\n        /* \"#utility.yul\":16781:16803   */\n      add\n        /* \"#utility.yul\":16760:16813   */\n      tag_287\n      jump\t// in\n    tag_492:\n        /* \"#utility.yul\":16750:16813   */\n      swap2\n      pop\n        /* \"#utility.yul\":16706:16823   */\n      pop\n        /* \"#utility.yul\":16501:16830   */\n      swap3\n      swap2\n      pop\n      pop\n      jump\t// out\n        /* \"#utility.yul\":16836:17005   */\n    tag_299:\n        /* \"#utility.yul\":16920:16931   */\n      0x00\n        /* \"#utility.yul\":16954:16960   */\n      dup3\n        /* \"#utility.yul\":16949:16952   */\n      dup3\n        /* \"#utility.yul\":16942:16961   */\n      mstore\n        /* \"#utility.yul\":16994:16998   */\n      0x20\n        /* \"#utility.yul\":16989:16992   */\n      dup3\n        /* \"#utility.yul\":16985:16999   */\n      add\n        /* \"#utility.yul\":16970:16999   */\n      swap1\n      pop\n        /* \"#utility.yul\":16836:17005   */\n      swap3\n      swap2\n      pop\n      pop\n      jump\t// out\n        /* \"#utility.yul\":17011:17388   */\n    tag_300:\n        /* \"#utility.yul\":17099:17102   */\n      0x00\n        /* \"#utility.yul\":17127:17166   */\n      tag_495\n        /* \"#utility.yul\":17160:17165   */\n      dup3\n        /* \"#utility.yul\":17127:17166   */\n      tag_261\n      jump\t// in\n    tag_495:\n        /* \"#utility.yul\":17182:17253   */\n      tag_496\n        /* \"#utility.yul\":17246:17252   */\n      dup2\n        /* \"#utility.yul\":17241:17244   */\n      dup6\n        /* \"#utility.yul\":17182:17253   */\n      tag_299\n      jump\t// in\n    tag_496:\n        /* \"#utility.yul\":17175:17253   */\n      swap4\n      pop\n        /* \"#utility.yul\":17262:17327   */\n      tag_497\n        /* \"#utility.yul\":17320:17326   */\n      dup2\n        /* \"#utility.yul\":17315:17318   */\n      dup6\n        /* \"#utility.yul\":17308:17312   */\n      0x20\n        /* \"#utility.yul\":17301:17306   */\n      dup7\n        /* \"#utility.yul\":17297:17313   */\n      add\n        /* \"#utility.yul\":17262:17327   */\n      tag_263\n      jump\t// in\n    tag_497:\n        /* \"#utility.yul\":17352:17381   */\n      tag_498\n        /* \"#utility.yul\":17374:17380   */\n      dup2\n        /* \"#utility.yul\":17352:17381   */\n      tag_264\n      jump\t// in\n    tag_498:\n        /* \"#utility.yul\":17347:17350   */\n      dup5\n        /* \"#utility.yul\":17343:17382   */\n      add\n        /* \"#utility.yul\":17336:17382   */\n      swap2\n      pop\n        /* \"#utility.yul\":17103:17388   */\n      pop\n        /* \"#utility.yul\":17011:17388   */\n      swap3\n      swap2\n      pop\n      pop\n      jump\t// out\n        /* \"#utility.yul\":17394:17512   */\n    tag_301:\n        /* \"#utility.yul\":17481:17505   */\n      tag_500\n        /* \"#utility.yul\":17499:17504   */\n      dup2\n        /* \"#utility.yul\":17481:17505   */\n      tag_266\n      jump\t// in\n    tag_500:\n        /* \"#utility.yul\":17476:17479   */\n      dup3\n        /* \"#utility.yul\":17469:17506   */\n      mstore\n        /* \"#utility.yul\":17394:17512   */\n      pop\n      pop\n      jump\t// out\n        /* \"#utility.yul\":17518:18677   */\n    tag_44:\n        /* \"#utility.yul\":17839:17843   */\n      0x00\n        /* \"#utility.yul\":17877:17880   */\n      0xe0\n        /* \"#utility.yul\":17866:17875   */\n      dup3\n        /* \"#utility.yul\":17862:17881   */\n      add\n        /* \"#utility.yul\":17854:17881   */\n      swap1\n      pop\n        /* \"#utility.yul\":17927:17936   */\n      dup2\n        /* \"#utility.yul\":17921:17925   */\n      dup2\n        /* \"#utility.yul\":17917:17937   */\n      sub\n        /* \"#utility.yul\":17913:17914   */\n      0x00\n        /* \"#utility.yul\":17902:17911   */\n      dup4\n        /* \"#utility.yul\":17898:17915   */\n      add\n        /* \"#utility.yul\":17891:17938   */\n      mstore\n        /* \"#utility.yul\":17955:18033   */\n      tag_502\n        /* \"#utility.yul\":18028:18032   */\n      dup2\n        /* \"#utility.yul\":18019:18025   */\n      dup11\n        /* \"#utility.yul\":17955:18033   */\n      tag_300\n      jump\t// in\n    tag_502:\n        /* \"#utility.yul\":17947:18033   */\n      swap1\n      pop\n        /* \"#utility.yul\":18043:18115   */\n      tag_503\n        /* \"#utility.yul\":18111:18113   */\n      0x20\n        /* \"#utility.yul\":18100:18109   */\n      dup4\n        /* \"#utility.yul\":18096:18114   */\n      add\n        /* \"#utility.yul\":18087:18093   */\n      dup10\n        /* \"#utility.yul\":18043:18115   */\n      tag_301\n      jump\t// in\n    tag_503:\n        /* \"#utility.yul\":18162:18171   */\n      dup2\n        /* \"#utility.yul\":18156:18160   */\n      dup2\n        /* \"#utility.yul\":18152:18172   */\n      sub\n        /* \"#utility.yul\":18147:18149   */\n      0x40\n        /* \"#utility.yul\":18136:18145   */\n      dup4\n        /* \"#utility.yul\":18132:18150   */\n      add\n        /* \"#utility.yul\":18125:18173   */\n      mstore\n        /* \"#utility.yul\":18190:18268   */\n      tag_504\n        /* \"#utility.yul\":18263:18267   */\n      dup2\n        /* \"#utility.yul\":18254:18260   */\n      dup9\n        /* \"#utility.yul\":18190:18268   */\n      tag_300\n      jump\t// in\n    tag_504:\n        /* \"#utility.yul\":18182:18268   */\n      swap1\n      pop\n        /* \"#utility.yul\":18278:18350   */\n      tag_505\n        /* \"#utility.yul\":18346:18348   */\n      0x60\n        /* \"#utility.yul\":18335:18344   */\n      dup4\n        /* \"#utility.yul\":18331:18349   */\n      add\n        /* \"#utility.yul\":18322:18328   */\n      dup8\n        /* \"#utility.yul\":18278:18350   */\n      tag_301\n      jump\t// in\n    tag_505:\n        /* \"#utility.yul\":18398:18407   */\n      dup2\n        /* \"#utility.yul\":18392:18396   */\n      dup2\n        /* \"#utility.yul\":18388:18408   */\n      sub\n        /* \"#utility.yul\":18382:18385   */\n      0x80\n        /* \"#utility.yul\":18371:18380   */\n      dup4\n        /* \"#utility.yul\":18367:18386   */\n      add\n        /* \"#utility.yul\":18360:18409   */\n      mstore\n        /* \"#utility.yul\":18426:18504   */\n      tag_506\n        /* \"#utility.yul\":18499:18503   */\n      dup2\n        /* \"#utility.yul\":18490:18496   */\n      dup7\n        /* \"#utility.yul\":18426:18504   */\n      tag_300\n      jump\t// in\n    tag_506:\n        /* \"#utility.yul\":18418:18504   */\n      swap1\n      pop\n        /* \"#utility.yul\":18514:18587   */\n      tag_507\n        /* \"#utility.yul\":18582:18585   */\n      0xa0\n        /* \"#utility.yul\":18571:18580   */\n      dup4\n        /* \"#utility.yul\":18567:18586   */\n      add\n        /* \"#utility.yul\":18558:18564   */\n      dup6\n        /* \"#utility.yul\":18514:18587   */\n      tag_275\n      jump\t// in\n    tag_507:\n        /* \"#utility.yul\":18597:18670   */\n      tag_508\n        /* \"#utility.yul\":18665:18668   */\n      0xc0\n        /* \"#utility.yul\":18654:18663   */\n      dup4\n        /* \"#utility.yul\":18650:18669   */\n      add\n        /* \"#utility.yul\":18641:18647   */\n      dup5\n        /* \"#utility.yul\":18597:18670   */\n      tag_301\n      jump\t// in\n    tag_508:\n        /* \"#utility.yul\":17518:18677   */\n      swap9\n      swap8\n      pop\n      pop\n      pop\n      pop\n      pop\n      pop\n      pop\n      pop\n      jump\t// out\n        /* \"#utility.yul\":18683:19640   */\n    tag_49:\n        /* \"#utility.yul\":18956:18960   */\n      0x00\n        /* \"#utility.yul\":18994:18997   */\n      0xc0\n        /* \"#utility.yul\":18983:18992   */\n      dup3\n        /* \"#utility.yul\":18979:18998   */\n      add\n        /* \"#utility.yul\":18971:18998   */\n      swap1\n      pop\n        /* \"#utility.yul\":19044:19053   */\n      dup2\n        /* \"#utility.yul\":19038:19042   */\n      dup2\n        /* \"#utility.yul\":19034:19054   */\n      sub\n        /* \"#utility.yul\":19030:19031   */\n      0x00\n        /* \"#utility.yul\":19019:19028   */\n      dup4\n        /* \"#utility.yul\":19015:19032   */\n      add\n        /* \"#utility.yul\":19008:19055   */\n      mstore\n        /* \"#utility.yul\":19072:19150   */\n      tag_510\n        /* \"#utility.yul\":19145:19149   */\n      dup2\n        /* \"#utility.yul\":19136:19142   */\n      dup10\n        /* \"#utility.yul\":19072:19150   */\n      tag_300\n      jump\t// in\n    tag_510:\n        /* \"#utility.yul\":19064:19150   */\n      swap1\n      pop\n        /* \"#utility.yul\":19160:19232   */\n      tag_511\n        /* \"#utility.yul\":19228:19230   */\n      0x20\n        /* \"#utility.yul\":19217:19226   */\n      dup4\n        /* \"#utility.yul\":19213:19231   */\n      add\n        /* \"#utility.yul\":19204:19210   */\n      dup9\n        /* \"#utility.yul\":19160:19232   */\n      tag_301\n      jump\t// in\n    tag_511:\n        /* \"#utility.yul\":19242:19314   */\n      tag_512\n        /* \"#utility.yul\":19310:19312   */\n      0x40\n        /* \"#utility.yul\":19299:19308   */\n      dup4\n        /* \"#utility.yul\":19295:19313   */\n      add\n        /* \"#utility.yul\":19286:19292   */\n      dup8\n        /* \"#utility.yul\":19242:19314   */\n      tag_301\n      jump\t// in\n    tag_512:\n        /* \"#utility.yul\":19361:19370   */\n      dup2\n        /* \"#utility.yul\":19355:19359   */\n      dup2\n        /* \"#utility.yul\":19351:19371   */\n      sub\n        /* \"#utility.yul\":19346:19348   */\n      0x60\n        /* \"#utility.yul\":19335:19344   */\n      dup4\n        /* \"#utility.yul\":19331:19349   */\n      add\n        /* \"#utility.yul\":19324:19372   */\n      mstore\n        /* \"#utility.yul\":19389:19467   */\n      tag_513\n        /* \"#utility.yul\":19462:19466   */\n      dup2\n        /* \"#utility.yul\":19453:19459   */\n      dup7\n        /* \"#utility.yul\":19389:19467   */\n      tag_300\n      jump\t// in\n    tag_513:\n        /* \"#utility.yul\":19381:19467   */\n      swap1\n      pop\n        /* \"#utility.yul\":19477:19550   */\n      tag_514\n        /* \"#utility.yul\":19545:19548   */\n      0x80\n        /* \"#utility.yul\":19534:19543   */\n      dup4\n        /* \"#utility.yul\":19530:19549   */\n      add\n        /* \"#utility.yul\":19521:19527   */\n      dup6\n        /* \"#utility.yul\":19477:19550   */\n      tag_301\n      jump\t// in\n    tag_514:\n        /* \"#utility.yul\":19560:19633   */\n      tag_515\n        /* \"#utility.yul\":19628:19631   */\n      0xa0\n        /* \"#utility.yul\":19617:19626   */\n      dup4\n        /* \"#utility.yul\":19613:19632   */\n      add\n        /* \"#utility.yul\":19604:19610   */\n      dup5\n        /* \"#utility.yul\":19560:19633   */\n      tag_275\n      jump\t// in\n    tag_515:\n        /* \"#utility.yul\":18683:19640   */\n      swap8\n      swap7\n      pop\n      pop\n      pop\n      pop\n      pop\n      pop\n      pop\n      jump\t// out\n        /* \"#utility.yul\":19646:19826   */\n    tag_302:\n        /* \"#utility.yul\":19694:19771   */\n      0x4e487b7100000000000000000000000000000000000000000000000000000000\n        /* \"#utility.yul\":19691:19692   */\n      0x00\n        /* \"#utility.yul\":19684:19772   */\n      mstore\n        /* \"#utility.yul\":19791:19795   */\n      0x11\n        /* \"#utility.yul\":19788:19789   */\n      0x04\n        /* \"#utility.yul\":19781:19796   */\n      mstore\n        /* \"#utility.yul\":19815:19819   */\n      0x24\n        /* \"#utility.yul\":19812:19813   */\n      0x00\n        /* \"#utility.yul\":19805:19820   */\n      revert\n        /* \"#utility.yul\":19832:20026   */\n    tag_61:\n        /* \"#utility.yul\":19872:19876   */\n      0x00\n        /* \"#utility.yul\":19892:19912   */\n      tag_518\n        /* \"#utility.yul\":19910:19911   */\n      dup3\n        /* \"#utility.yul\":19892:19912   */\n      tag_266\n      jump\t// in\n    tag_518:\n        /* \"#utility.yul\":19887:19912   */\n      swap2\n      pop\n        /* \"#utility.yul\":19926:19946   */\n      tag_519\n        /* \"#utility.yul\":19944:19945   */\n      dup4\n        /* \"#utility.yul\":19926:19946   */\n      tag_266\n      jump\t// in\n    tag_519:\n        /* \"#utility.yul\":19921:19946   */\n      swap3\n      pop\n        /* \"#utility.yul\":19970:19971   */\n      dup3\n        /* \"#utility.yul\":19967:19968   */\n      dup3\n        /* \"#utility.yul\":19963:19972   */\n      sub\n        /* \"#utility.yul\":19955:19972   */\n      swap1\n      pop\n        /* \"#utility.yul\":19994:19995   */\n      dup2\n        /* \"#utility.yul\":19988:19992   */\n      dup2\n        /* \"#utility.yul\":19985:19996   */\n      gt\n        /* \"#utility.yul\":19982:20019   */\n      iszero\n      tag_520\n      jumpi\n        /* \"#utility.yul\":19999:20017   */\n      tag_521\n      tag_302\n      jump\t// in\n    tag_521:\n        /* \"#utility.yul\":19982:20019   */\n    tag_520:\n        /* \"#utility.yul\":19832:20026   */\n      swap3\n      swap2\n      pop\n      pop\n      jump\t// out\n        /* \"#utility.yul\":20032:20212   */\n    tag_303:\n        /* \"#utility.yul\":20080:20157   */\n      0x4e487b7100000000000000000000000000000000000000000000000000000000\n        /* \"#utility.yul\":20077:20078   */\n      0x00\n        /* \"#utility.yul\":20070:20158   */\n      mstore\n        /* \"#utility.yul\":20177:20181   */\n      0x22\n        /* \"#utility.yul\":20174:20175   */\n      0x04\n        /* \"#utility.yul\":20167:20182   */\n      mstore\n        /* \"#utility.yul\":20201:20205   */\n      0x24\n        /* \"#utility.yul\":20198:20199   */\n      0x00\n        /* \"#utility.yul\":20191:20206   */\n      revert\n        /* \"#utility.yul\":20218:20538   */\n    tag_73:\n        /* \"#utility.yul\":20262:20268   */\n      0x00\n        /* \"#utility.yul\":20299:20300   */\n      0x02\n        /* \"#utility.yul\":20293:20297   */\n      dup3\n        /* \"#utility.yul\":20289:20301   */\n      div\n        /* \"#utility.yul\":20279:20301   */\n      swap1\n      pop\n        /* \"#utility.yul\":20346:20347   */\n      0x01\n        /* \"#utility.yul\":20340:20344   */\n      dup3\n        /* \"#utility.yul\":20336:20348   */\n      and\n        /* \"#utility.yul\":20367:20385   */\n      dup1\n        /* \"#utility.yul\":20357:20438   */\n      tag_524\n      jumpi\n        /* \"#utility.yul\":20423:20427   */\n      0x7f\n        /* \"#utility.yul\":20415:20421   */\n      dup3\n        /* \"#utility.yul\":20411:20428   */\n      and\n        /* \"#utility.yul\":20401:20428   */\n      swap2\n      pop\n        /* \"#utility.yul\":20357:20438   */\n    tag_524:\n        /* \"#utility.yul\":20485:20487   */\n      0x20\n        /* \"#utility.yul\":20477:20483   */\n      dup3\n        /* \"#utility.yul\":20474:20488   */\n      lt\n        /* \"#utility.yul\":20454:20472   */\n      dup2\n        /* \"#utility.yul\":20451:20489   */\n      sub\n        /* \"#utility.yul\":20448:20532   */\n      tag_525\n      jumpi\n        /* \"#utility.yul\":20504:20522   */\n      tag_526\n      tag_303\n      jump\t// in\n    tag_526:\n        /* \"#utility.yul\":20448:20532   */\n    tag_525:\n        /* \"#utility.yul\":20269:20538   */\n      pop\n        /* \"#utility.yul\":20218:20538   */\n      swap2\n      swap1\n      pop\n      jump\t// out\n        /* \"#utility.yul\":20544:20724   */\n    tag_86:\n        /* \"#utility.yul\":20592:20669   */\n      0x4e487b7100000000000000000000000000000000000000000000000000000000\n        /* \"#utility.yul\":20589:20590   */\n      0x00\n        /* \"#utility.yul\":20582:20670   */\n      mstore\n        /* \"#utility.yul\":20689:20693   */\n      0x32\n        /* \"#utility.yul\":20686:20687   */\n      0x04\n        /* \"#utility.yul\":20679:20694   */\n      mstore\n        /* \"#utility.yul\":20713:20717   */\n      0x24\n        /* \"#utility.yul\":20710:20711   */\n      0x00\n        /* \"#utility.yul\":20703:20718   */\n      revert\n        /* \"#utility.yul\":20730:20963   */\n    tag_88:\n        /* \"#utility.yul\":20769:20772   */\n      0x00\n        /* \"#utility.yul\":20792:20816   */\n      tag_529\n        /* \"#utility.yul\":20810:20815   */\n      dup3\n        /* \"#utility.yul\":20792:20816   */\n      tag_266\n      jump\t// in\n    tag_529:\n        /* \"#utility.yul\":20783:20816   */\n      swap2\n      pop\n        /* \"#utility.yul\":20838:20904   */\n      0xffffffffffffffffffffffffffffffffffffffffffffffffffffffffffffffff\n        /* \"#utility.yul\":20831:20836   */\n      dup3\n        /* \"#utility.yul\":20828:20905   */\n      sub\n        /* \"#utility.yul\":20825:20928   */\n      tag_530\n      jumpi\n        /* \"#utility.yul\":20908:20926   */\n      tag_531\n      tag_302\n      jump\t// in\n    tag_531:\n        /* \"#utility.yul\":20825:20928   */\n    tag_530:\n        /* \"#utility.yul\":20955:20956   */\n      0x01\n        /* \"#utility.yul\":20948:20953   */\n      dup3\n        /* \"#utility.yul\":20944:20957   */\n      add\n        /* \"#utility.yul\":20937:20957   */\n      swap1\n      pop\n        /* \"#utility.yul\":20730:20963   */\n      swap2\n      swap1\n      pop\n      jump\t// out\n        /* \"#utility.yul\":20969:21191   */\n    tag_304:\n        /* \"#utility.yul\":21109:21143   */\n      0x596f7520617265206e6f742066726f6d20656c656374696f6e20636f6d697373\n        /* \"#utility.yul\":21105:21106   */\n      0x00\n        /* \"#utility.yul\":21097:21103   */\n      dup3\n        /* \"#utility.yul\":21093:21107   */\n      add\n        /* \"#utility.yul\":21086:21144   */\n      mstore\n        /* \"#utility.yul\":21178:21183   */\n      0x696f6e0000000000000000000000000000000000000000000000000000000000\n        /* \"#utility.yul\":21173:21175   */\n      0x20\n        /* \"#utility.yul\":21165:21171   */\n      dup3\n        /* \"#utility.yul\":21161:21176   */\n      add\n        /* \"#utility.yul\":21154:21184   */\n      mstore\n        /* \"#utility.yul\":20969:21191   */\n      pop\n      jump\t// out\n        /* \"#utility.yul\":21197:21563   */\n    tag_305:\n        /* \"#utility.yul\":21339:21342   */\n      0x00\n        /* \"#utility.yul\":21360:21427   */\n      tag_534\n        /* \"#utility.yul\":21424:21426   */\n      0x23\n        /* \"#utility.yul\":21419:21422   */\n      dup4\n        /* \"#utility.yul\":21360:21427   */\n      tag_299\n      jump\t// in\n    tag_534:\n        /* \"#utility.yul\":21353:21427   */\n      swap2\n      pop\n        /* \"#utility.yul\":21436:21529   */\n      tag_535\n        /* \"#utility.yul\":21525:21528   */\n      dup3\n        /* \"#utility.yul\":21436:21529   */\n      tag_304\n      jump\t// in\n    tag_535:\n        /* \"#utility.yul\":21554:21556   */\n      0x40\n        /* \"#utility.yul\":21549:21552   */\n      dup3\n        /* \"#utility.yul\":21545:21557   */\n      add\n        /* \"#utility.yul\":21538:21557   */\n      swap1\n      pop\n        /* \"#utility.yul\":21197:21563   */\n      swap2\n      swap1\n      pop\n      jump\t// out\n        /* \"#utility.yul\":21569:21988   */\n    tag_92:\n        /* \"#utility.yul\":21735:21739   */\n      0x00\n        /* \"#utility.yul\":21773:21775   */\n      0x20\n        /* \"#utility.yul\":21762:21771   */\n      dup3\n        /* \"#utility.yul\":21758:21776   */\n      add\n        /* \"#utility.yul\":21750:21776   */\n      swap1\n      pop\n        /* \"#utility.yul\":21822:21831   */\n      dup2\n        /* \"#utility.yul\":21816:21820   */\n      dup2\n        /* \"#utility.yul\":21812:21832   */\n      sub\n        /* \"#utility.yul\":21808:21809   */\n      0x00\n        /* \"#utility.yul\":21797:21806   */\n      dup4\n        /* \"#utility.yul\":21793:21810   */\n      add\n        /* \"#utility.yul\":21786:21833   */\n      mstore\n        /* \"#utility.yul\":21850:21981   */\n      tag_537\n        /* \"#utility.yul\":21976:21980   */\n      dup2\n        /* \"#utility.yul\":21850:21981   */\n      tag_305\n      jump\t// in\n    tag_537:\n        /* \"#utility.yul\":21842:21981   */\n      swap1\n      pop\n        /* \"#utility.yul\":21569:21988   */\n      swap2\n      swap1\n      pop\n      jump\t// out\n        /* \"#utility.yul\":21994:22223   */\n    tag_306:\n        /* \"#utility.yul\":22134:22168   */\n      0x43616e64696461746520726567697374726174696f6e20706861736520697320\n        /* \"#utility.yul\":22130:22131   */\n      0x00\n        /* \"#utility.yul\":22122:22128   */\n      dup3\n        /* \"#utility.yul\":22118:22132   */\n      add\n        /* \"#utility.yul\":22111:22169   */\n      mstore\n        /* \"#utility.yul\":22203:22215   */\n      0x6e6f7420636c6f73656400000000000000000000000000000000000000000000\n        /* \"#utility.yul\":22198:22200   */\n      0x20\n        /* \"#utility.yul\":22190:22196   */\n      dup3\n        /* \"#utility.yul\":22186:22201   */\n      add\n        /* \"#utility.yul\":22179:22216   */\n      mstore\n        /* \"#utility.yul\":21994:22223   */\n      pop\n      jump\t// out\n        /* \"#utility.yul\":22229:22595   */\n    tag_307:\n        /* \"#utility.yul\":22371:22374   */\n      0x00\n        /* \"#utility.yul\":22392:22459   */\n      tag_540\n        /* \"#utility.yul\":22456:22458   */\n      0x2a\n        /* \"#utility.yul\":22451:22454   */\n      dup4\n        /* \"#utility.yul\":22392:22459   */\n      tag_299\n      jump\t// in\n    tag_540:\n        /* \"#utility.yul\":22385:22459   */\n      swap2\n      pop\n        /* \"#utility.yul\":22468:22561   */\n      tag_541\n        /* \"#utility.yul\":22557:22560   */\n      dup3\n        /* \"#utility.yul\":22468:22561   */\n      tag_306\n      jump\t// in\n    tag_541:\n        /* \"#utility.yul\":22586:22588   */\n      0x40\n        /* \"#utility.yul\":22581:22584   */\n      dup3\n        /* \"#utility.yul\":22577:22589   */\n      add\n        /* \"#utility.yul\":22570:22589   */\n      swap1\n      pop\n        /* \"#utility.yul\":22229:22595   */\n      swap2\n      swap1\n      pop\n      jump\t// out\n        /* \"#utility.yul\":22601:23020   */\n    tag_97:\n        /* \"#utility.yul\":22767:22771   */\n      0x00\n        /* \"#utility.yul\":22805:22807   */\n      0x20\n        /* \"#utility.yul\":22794:22803   */\n      dup3\n        /* \"#utility.yul\":22790:22808   */\n      add\n        /* \"#utility.yul\":22782:22808   */\n      swap1\n      pop\n        /* \"#utility.yul\":22854:22863   */\n      dup2\n        /* \"#utility.yul\":22848:22852   */\n      dup2\n        /* \"#utility.yul\":22844:22864   */\n      sub\n        /* \"#utility.yul\":22840:22841   */\n      0x00\n        /* \"#utility.yul\":22829:22838   */\n      dup4\n        /* \"#utility.yul\":22825:22842   */\n      add\n        /* \"#utility.yul\":22818:22865   */\n      mstore\n        /* \"#utility.yul\":22882:23013   */\n      tag_543\n        /* \"#utility.yul\":23008:23012   */\n      dup2\n        /* \"#utility.yul\":22882:23013   */\n      tag_307\n      jump\t// in\n    tag_543:\n        /* \"#utility.yul\":22874:23013   */\n      swap1\n      pop\n        /* \"#utility.yul\":22601:23020   */\n      swap2\n      swap1\n      pop\n      jump\t// out\n        /* \"#utility.yul\":23026:23256   */\n    tag_308:\n        /* \"#utility.yul\":23166:23200   */\n      0x566f74696e6720697320696e20636f6e64756374696f6e207068617365206973\n        /* \"#utility.yul\":23162:23163   */\n      0x00\n        /* \"#utility.yul\":23154:23160   */\n      dup3\n        /* \"#utility.yul\":23150:23164   */\n      add\n        /* \"#utility.yul\":23143:23201   */\n      mstore\n        /* \"#utility.yul\":23235:23248   */\n      0x206e6f7420636c6f736564000000000000000000000000000000000000000000\n        /* \"#utility.yul\":23230:23232   */\n      0x20\n        /* \"#utility.yul\":23222:23228   */\n      dup3\n        /* \"#utility.yul\":23218:23233   */\n      add\n        /* \"#utility.yul\":23211:23249   */\n      mstore\n        /* \"#utility.yul\":23026:23256   */\n      pop\n      jump\t// out\n        /* \"#utility.yul\":23262:23628   */\n    tag_309:\n        /* \"#utility.yul\":23404:23407   */\n      0x00\n        /* \"#utility.yul\":23425:23492   */\n      tag_546\n        /* \"#utility.yul\":23489:23491   */\n      0x2b\n        /* \"#utility.yul\":23484:23487   */\n      dup4\n        /* \"#utility.yul\":23425:23492   */\n      tag_299\n      jump\t// in\n    tag_546:\n        /* \"#utility.yul\":23418:23492   */\n      swap2\n      pop\n        /* \"#utility.yul\":23501:23594   */\n      tag_547\n        /* \"#utility.yul\":23590:23593   */\n      dup3\n        /* \"#utility.yul\":23501:23594   */\n      tag_308\n      jump\t// in\n    tag_547:\n        /* \"#utility.yul\":23619:23621   */\n      0x40\n        /* \"#utility.yul\":23614:23617   */\n      dup3\n        /* \"#utility.yul\":23610:23622   */\n      add\n        /* \"#utility.yul\":23603:23622   */\n      swap1\n      pop\n        /* \"#utility.yul\":23262:23628   */\n      swap2\n      swap1\n      pop\n      jump\t// out\n        /* \"#utility.yul\":23634:24053   */\n    tag_101:\n        /* \"#utility.yul\":23800:23804   */\n      0x00\n        /* \"#utility.yul\":23838:23840   */\n      0x20\n        /* \"#utility.yul\":23827:23836   */\n      dup3\n        /* \"#utility.yul\":23823:23841   */\n      add\n        /* \"#utility.yul\":23815:23841   */\n      swap1\n      pop\n        /* \"#utility.yul\":23887:23896   */\n      dup2\n        /* \"#utility.yul\":23881:23885   */\n      dup2\n        /* \"#utility.yul\":23877:23897   */\n      sub\n        /* \"#utility.yul\":23873:23874   */\n      0x00\n        /* \"#utility.yul\":23862:23871   */\n      dup4\n        /* \"#utility.yul\":23858:23875   */\n      add\n        /* \"#utility.yul\":23851:23898   */\n      mstore\n        /* \"#utility.yul\":23915:24046   */\n      tag_549\n        /* \"#utility.yul\":24041:24045   */\n      dup2\n        /* \"#utility.yul\":23915:24046   */\n      tag_309\n      jump\t// in\n    tag_549:\n        /* \"#utility.yul\":23907:24046   */\n      swap1\n      pop\n        /* \"#utility.yul\":23634:24053   */\n      swap2\n      swap1\n      pop\n      jump\t// out\n        /* \"#utility.yul\":24059:24250   */\n    tag_142:\n        /* \"#utility.yul\":24099:24102   */\n      0x00\n        /* \"#utility.yul\":24118:24138   */\n      tag_551\n        /* \"#utility.yul\":24136:24137   */\n      dup3\n        /* \"#utility.yul\":24118:24138   */\n      tag_266\n      jump\t// in\n    tag_551:\n        /* \"#utility.yul\":24113:24138   */\n      swap2\n      pop\n        /* \"#utility.yul\":24152:24172   */\n      tag_552\n        /* \"#utility.yul\":24170:24171   */\n      dup4\n        /* \"#utility.yul\":24152:24172   */\n      tag_266\n      jump\t// in\n    tag_552:\n        /* \"#utility.yul\":24147:24172   */\n      swap3\n      pop\n        /* \"#utility.yul\":24195:24196   */\n      dup3\n        /* \"#utility.yul\":24192:24193   */\n      dup3\n        /* \"#utility.yul\":24188:24197   */\n      add\n        /* \"#utility.yul\":24181:24197   */\n      swap1\n      pop\n        /* \"#utility.yul\":24216:24219   */\n      dup1\n        /* \"#utility.yul\":24213:24214   */\n      dup3\n        /* \"#utility.yul\":24210:24220   */\n      gt\n        /* \"#utility.yul\":24207:24243   */\n      iszero\n      tag_553\n      jumpi\n        /* \"#utility.yul\":24223:24241   */\n      tag_554\n      tag_302\n      jump\t// in\n    tag_554:\n        /* \"#utility.yul\":24207:24243   */\n    tag_553:\n        /* \"#utility.yul\":24059:24250   */\n      swap3\n      swap2\n      pop\n      pop\n      jump\t// out\n        /* \"#utility.yul\":24256:24434   */\n    tag_310:\n        /* \"#utility.yul\":24396:24426   */\n      0x566f74657220726567697374726174696f6e20697320636c6f73656400000000\n        /* \"#utility.yul\":24392:24393   */\n      0x00\n        /* \"#utility.yul\":24384:24390   */\n      dup3\n        /* \"#utility.yul\":24380:24394   */\n      add\n        /* \"#utility.yul\":24373:24427   */\n      mstore\n        /* \"#utility.yul\":24256:24434   */\n      pop\n      jump\t// out\n        /* \"#utility.yul\":24440:24806   */\n    tag_311:\n        /* \"#utility.yul\":24582:24585   */\n      0x00\n        /* \"#utility.yul\":24603:24670   */\n      tag_557\n        /* \"#utility.yul\":24667:24669   */\n      0x1c\n        /* \"#utility.yul\":24662:24665   */\n      dup4\n        /* \"#utility.yul\":24603:24670   */\n      tag_299\n      jump\t// in\n    tag_557:\n        /* \"#utility.yul\":24596:24670   */\n      swap2\n      pop\n        /* \"#utility.yul\":24679:24772   */\n      tag_558\n        /* \"#utility.yul\":24768:24771   */\n      dup3\n        /* \"#utility.yul\":24679:24772   */\n      tag_310\n      jump\t// in\n    tag_558:\n        /* \"#utility.yul\":24797:24799   */\n      0x20\n        /* \"#utility.yul\":24792:24795   */\n      dup3\n        /* \"#utility.yul\":24788:24800   */\n      add\n        /* \"#utility.yul\":24781:24800   */\n      swap1\n      pop\n        /* \"#utility.yul\":24440:24806   */\n      swap2\n      swap1\n      pop\n      jump\t// out\n        /* \"#utility.yul\":24812:25231   */\n    tag_149:\n        /* \"#utility.yul\":24978:24982   */\n      0x00\n        /* \"#utility.yul\":25016:25018   */\n      0x20\n        /* \"#utility.yul\":25005:25014   */\n      dup3\n        /* \"#utility.yul\":25001:25019   */\n      add\n        /* \"#utility.yul\":24993:25019   */\n      swap1\n      pop\n        /* \"#utility.yul\":25065:25074   */\n      dup2\n        /* \"#utility.yul\":25059:25063   */\n      dup2\n        /* \"#utility.yul\":25055:25075   */\n      sub\n        /* \"#utility.yul\":25051:25052   */\n      0x00\n        /* \"#utility.yul\":25040:25049   */\n      dup4\n        /* \"#utility.yul\":25036:25053   */\n      add\n        /* \"#utility.yul\":25029:25076   */\n      mstore\n        /* \"#utility.yul\":25093:25224   */\n      tag_560\n        /* \"#utility.yul\":25219:25223   */\n      dup2\n        /* \"#utility.yul\":25093:25224   */\n      tag_311\n      jump\t// in\n    tag_560:\n        /* \"#utility.yul\":25085:25224   */\n      swap1\n      pop\n        /* \"#utility.yul\":24812:25231   */\n      swap2\n      swap1\n      pop\n      jump\t// out\n        /* \"#utility.yul\":25237:25405   */\n    tag_312:\n        /* \"#utility.yul\":25377:25397   */\n      0x596f75612061726520756e646572206167650000000000000000000000000000\n        /* \"#utility.yul\":25373:25374   */\n      0x00\n        /* \"#utility.yul\":25365:25371   */\n      dup3\n        /* \"#utility.yul\":25361:25375   */\n      add\n        /* \"#utility.yul\":25354:25398   */\n      mstore\n        /* \"#utility.yul\":25237:25405   */\n      pop\n      jump\t// out\n        /* \"#utility.yul\":25411:25777   */\n    tag_313:\n        /* \"#utility.yul\":25553:25556   */\n      0x00\n        /* \"#utility.yul\":25574:25641   */\n      tag_563\n        /* \"#utility.yul\":25638:25640   */\n      0x12\n        /* \"#utility.yul\":25633:25636   */\n      dup4\n        /* \"#utility.yul\":25574:25641   */\n      tag_299\n      jump\t// in\n    tag_563:\n        /* \"#utility.yul\":25567:25641   */\n      swap2\n      pop\n        /* \"#utility.yul\":25650:25743   */\n      tag_564\n        /* \"#utility.yul\":25739:25742   */\n      dup3\n        /* \"#utility.yul\":25650:25743   */\n      tag_312\n      jump\t// in\n    tag_564:\n        /* \"#utility.yul\":25768:25770   */\n      0x20\n        /* \"#utility.yul\":25763:25766   */\n      dup3\n        /* \"#utility.yul\":25759:25771   */\n      add\n        /* \"#utility.yul\":25752:25771   */\n      swap1\n      pop\n        /* \"#utility.yul\":25411:25777   */\n      swap2\n      swap1\n      pop\n      jump\t// out\n        /* \"#utility.yul\":25783:26202   */\n    tag_153:\n        /* \"#utility.yul\":25949:25953   */\n      0x00\n        /* \"#utility.yul\":25987:25989   */\n      0x20\n        /* \"#utility.yul\":25976:25985   */\n      dup3\n        /* \"#utility.yul\":25972:25990   */\n      add\n        /* \"#utility.yul\":25964:25990   */\n      swap1\n      pop\n        /* \"#utility.yul\":26036:26045   */\n      dup2\n        /* \"#utility.yul\":26030:26034   */\n      dup2\n        /* \"#utility.yul\":26026:26046   */\n      sub\n        /* \"#utility.yul\":26022:26023   */\n      0x00\n        /* \"#utility.yul\":26011:26020   */\n      dup4\n        /* \"#utility.yul\":26007:26024   */\n      add\n        /* \"#utility.yul\":26000:26047   */\n      mstore\n        /* \"#utility.yul\":26064:26195   */\n      tag_566\n        /* \"#utility.yul\":26190:26194   */\n      dup2\n        /* \"#utility.yul\":26064:26195   */\n      tag_313\n      jump\t// in\n    tag_566:\n        /* \"#utility.yul\":26056:26195   */\n      swap1\n      pop\n        /* \"#utility.yul\":25783:26202   */\n      swap2\n      swap1\n      pop\n      jump\t// out\n        /* \"#utility.yul\":26208:26375   */\n    tag_314:\n        /* \"#utility.yul\":26348:26367   */\n      0x416c726561647920726567697374657264000000000000000000000000000000\n        /* \"#utility.yul\":26344:26345   */\n      0x00\n        /* \"#utility.yul\":26336:26342   */\n      dup3\n        /* \"#utility.yul\":26332:26346   */\n      add\n        /* \"#utility.yul\":26325:26368   */\n      mstore\n        /* \"#utility.yul\":26208:26375   */\n      pop\n      jump\t// out\n        /* \"#utility.yul\":26381:26747   */\n    tag_315:\n        /* \"#utility.yul\":26523:26526   */\n      0x00\n        /* \"#utility.yul\":26544:26611   */\n      tag_569\n        /* \"#utility.yul\":26608:26610   */\n      0x11\n        /* \"#utility.yul\":26603:26606   */\n      dup4\n        /* \"#utility.yul\":26544:26611   */\n      tag_299\n      jump\t// in\n    tag_569:\n        /* \"#utility.yul\":26537:26611   */\n      swap2\n      pop\n        /* \"#utility.yul\":26620:26713   */\n      tag_570\n        /* \"#utility.yul\":26709:26712   */\n      dup3\n        /* \"#utility.yul\":26620:26713   */\n      tag_314\n      jump\t// in\n    tag_570:\n        /* \"#utility.yul\":26738:26740   */\n      0x20\n        /* \"#utility.yul\":26733:26736   */\n      dup3\n        /* \"#utility.yul\":26729:26741   */\n      add\n        /* \"#utility.yul\":26722:26741   */\n      swap1\n      pop\n        /* \"#utility.yul\":26381:26747   */\n      swap2\n      swap1\n      pop\n      jump\t// out\n        /* \"#utility.yul\":26753:27172   */\n    tag_158:\n        /* \"#utility.yul\":26919:26923   */\n      0x00\n        /* \"#utility.yul\":26957:26959   */\n      0x20\n        /* \"#utility.yul\":26946:26955   */\n      dup3\n        /* \"#utility.yul\":26942:26960   */\n      add\n        /* \"#utility.yul\":26934:26960   */\n      swap1\n      pop\n        /* \"#utility.yul\":27006:27015   */\n      dup2\n        /* \"#utility.yul\":27000:27004   */\n      dup2\n        /* \"#utility.yul\":26996:27016   */\n      sub\n        /* \"#utility.yul\":26992:26993   */\n      0x00\n        /* \"#utility.yul\":26981:26990   */\n      dup4\n        /* \"#utility.yul\":26977:26994   */\n      add\n        /* \"#utility.yul\":26970:27017   */\n      mstore\n        /* \"#utility.yul\":27034:27165   */\n      tag_572\n        /* \"#utility.yul\":27160:27164   */\n      dup2\n        /* \"#utility.yul\":27034:27165   */\n      tag_315\n      jump\t// in\n    tag_572:\n        /* \"#utility.yul\":27026:27165   */\n      swap1\n      pop\n        /* \"#utility.yul\":26753:27172   */\n      swap2\n      swap1\n      pop\n      jump\t// out\n        /* \"#utility.yul\":27178:27319   */\n    tag_316:\n        /* \"#utility.yul\":27227:27231   */\n      0x00\n        /* \"#utility.yul\":27250:27253   */\n      dup2\n        /* \"#utility.yul\":27242:27253   */\n      swap1\n      pop\n        /* \"#utility.yul\":27273:27276   */\n      dup2\n        /* \"#utility.yul\":27270:27271   */\n      0x00\n        /* \"#utility.yul\":27263:27277   */\n      mstore\n        /* \"#utility.yul\":27307:27311   */\n      0x20\n        /* \"#utility.yul\":27304:27305   */\n      0x00\n        /* \"#utility.yul\":27294:27312   */\n      keccak256\n        /* \"#utility.yul\":27286:27312   */\n      swap1\n      pop\n        /* \"#utility.yul\":27178:27319   */\n      swap2\n      swap1\n      pop\n      jump\t// out\n        /* \"#utility.yul\":27325:27418   */\n    tag_317:\n        /* \"#utility.yul\":27362:27368   */\n      0x00\n        /* \"#utility.yul\":27409:27411   */\n      0x20\n        /* \"#utility.yul\":27404:27406   */\n      0x1f\n        /* \"#utility.yul\":27397:27402   */\n      dup4\n        /* \"#utility.yul\":27393:27407   */\n      add\n        /* \"#utility.yul\":27389:27412   */\n      div\n        /* \"#utility.yul\":27379:27412   */\n      swap1\n      pop\n        /* \"#utility.yul\":27325:27418   */\n      swap2\n      swap1\n      pop\n      jump\t// out\n        /* \"#utility.yul\":27424:27531   */\n    tag_318:\n        /* \"#utility.yul\":27468:27476   */\n      0x00\n        /* \"#utility.yul\":27518:27523   */\n      dup3\n        /* \"#utility.yul\":27512:27516   */\n      dup3\n        /* \"#utility.yul\":27508:27524   */\n      shl\n        /* \"#utility.yul\":27487:27524   */\n      swap1\n      pop\n        /* \"#utility.yul\":27424:27531   */\n      swap3\n      swap2\n      pop\n      pop\n      jump\t// out\n        /* \"#utility.yul\":27537:27930   */\n    tag_319:\n        /* \"#utility.yul\":27606:27612   */\n      0x00\n        /* \"#utility.yul\":27656:27657   */\n      0x08\n        /* \"#utility.yul\":27644:27654   */\n      dup4\n        /* \"#utility.yul\":27640:27658   */\n      mul\n        /* \"#utility.yul\":27679:27776   */\n      tag_577\n        /* \"#utility.yul\":27709:27775   */\n      0xffffffffffffffffffffffffffffffffffffffffffffffffffffffffffffffff\n        /* \"#utility.yul\":27698:27707   */\n      dup3\n        /* \"#utility.yul\":27679:27776   */\n      tag_318\n      jump\t// in\n    tag_577:\n        /* \"#utility.yul\":27797:27836   */\n      tag_578\n        /* \"#utility.yul\":27827:27835   */\n      dup7\n        /* \"#utility.yul\":27816:27825   */\n      dup4\n        /* \"#utility.yul\":27797:27836   */\n      tag_318\n      jump\t// in\n    tag_578:\n        /* \"#utility.yul\":27785:27836   */\n      swap6\n      pop\n        /* \"#utility.yul\":27869:27873   */\n      dup1\n        /* \"#utility.yul\":27865:27874   */\n      not\n        /* \"#utility.yul\":27858:27863   */\n      dup5\n        /* \"#utility.yul\":27854:27875   */\n      and\n        /* \"#utility.yul\":27845:27875   */\n      swap4\n      pop\n        /* \"#utility.yul\":27918:27922   */\n      dup1\n        /* \"#utility.yul\":27908:27916   */\n      dup7\n        /* \"#utility.yul\":27904:27923   */\n      and\n        /* \"#utility.yul\":27897:27902   */\n      dup5\n        /* \"#utility.yul\":27894:27924   */\n      or\n        /* \"#utility.yul\":27884:27924   */\n      swap3\n      pop\n        /* \"#utility.yul\":27613:27930   */\n      pop\n      pop\n        /* \"#utility.yul\":27537:27930   */\n      swap4\n      swap3\n      pop\n      pop\n      pop\n      jump\t// out\n        /* \"#utility.yul\":27936:27996   */\n    tag_320:\n        /* \"#utility.yul\":27964:27967   */\n      0x00\n        /* \"#utility.yul\":27985:27990   */\n      dup2\n        /* \"#utility.yul\":27978:27990   */\n      swap1\n      pop\n        /* \"#utility.yul\":27936:27996   */\n      swap2\n      swap1\n      pop\n      jump\t// out\n        /* \"#utility.yul\":28002:28144   */\n    tag_321:\n        /* \"#utility.yul\":28052:28061   */\n      0x00\n        /* \"#utility.yul\":28085:28138   */\n      tag_581\n        /* \"#utility.yul\":28103:28137   */\n      tag_582\n        /* \"#utility.yul\":28112:28136   */\n      tag_583\n        /* \"#utility.yul\":28130:28135   */\n      dup5\n        /* \"#utility.yul\":28112:28136   */\n      tag_266\n      jump\t// in\n    tag_583:\n        /* \"#utility.yul\":28103:28137   */\n      tag_320\n      jump\t// in\n    tag_582:\n        /* \"#utility.yul\":28085:28138   */\n      tag_266\n      jump\t// in\n    tag_581:\n        /* \"#utility.yul\":28072:28138   */\n      swap1\n      pop\n        /* \"#utility.yul\":28002:28144   */\n      swap2\n      swap1\n      pop\n      jump\t// out\n        /* \"#utility.yul\":28150:28225   */\n    tag_322:\n        /* \"#utility.yul\":28193:28196   */\n      0x00\n        /* \"#utility.yul\":28214:28219   */\n      dup2\n        /* \"#utility.yul\":28207:28219   */\n      swap1\n      pop\n        /* \"#utility.yul\":28150:28225   */\n      swap2\n      swap1\n      pop\n      jump\t// out\n        /* \"#utility.yul\":28231:28500   */\n    tag_323:\n        /* \"#utility.yul\":28341:28380   */\n      tag_586\n        /* \"#utility.yul\":28372:28379   */\n      dup4\n        /* \"#utility.yul\":28341:28380   */\n      tag_321\n      jump\t// in\n    tag_586:\n        /* \"#utility.yul\":28402:28493   */\n      tag_587\n        /* \"#utility.yul\":28451:28492   */\n      tag_588\n        /* \"#utility.yul\":28475:28491   */\n      dup3\n        /* \"#utility.yul\":28451:28492   */\n      tag_322\n      jump\t// in\n    tag_588:\n        /* \"#utility.yul\":28443:28449   */\n      dup5\n        /* \"#utility.yul\":28436:28440   */\n      dup5\n        /* \"#utility.yul\":28430:28441   */\n      sload\n        /* \"#utility.yul\":28402:28493   */\n      tag_319\n      jump\t// in\n    tag_587:\n        /* \"#utility.yul\":28396:28400   */\n      dup3\n        /* \"#utility.yul\":28389:28494   */\n      sstore\n        /* \"#utility.yul\":28307:28500   */\n      pop\n        /* \"#utility.yul\":28231:28500   */\n      pop\n      pop\n      pop\n      jump\t// out\n        /* \"#utility.yul\":28506:28579   */\n    tag_324:\n        /* \"#utility.yul\":28551:28554   */\n      0x00\n        /* \"#utility.yul\":28506:28579   */\n      swap1\n      jump\t// out\n        /* \"#utility.yul\":28585:28774   */\n    tag_325:\n        /* \"#utility.yul\":28662:28694   */\n      tag_591\n      tag_324\n      jump\t// in\n    tag_591:\n        /* \"#utility.yul\":28703:28768   */\n      tag_592\n        /* \"#utility.yul\":28761:28767   */\n      dup2\n        /* \"#utility.yul\":28753:28759   */\n      dup5\n        /* \"#utility.yul\":28747:28751   */\n      dup5\n        /* \"#utility.yul\":28703:28768   */\n      tag_323\n      jump\t// in\n    tag_592:\n        /* \"#utility.yul\":28638:28774   */\n      pop\n        /* \"#utility.yul\":28585:28774   */\n      pop\n      pop\n      jump\t// out\n        /* \"#utility.yul\":28780:28966   */\n    tag_326:\n        /* \"#utility.yul\":28840:28960   */\n    tag_594:\n        /* \"#utility.yul\":28857:28860   */\n      dup2\n        /* \"#utility.yul\":28850:28855   */\n      dup2\n        /* \"#utility.yul\":28847:28861   */\n      lt\n        /* \"#utility.yul\":28840:28960   */\n      iszero\n      tag_596\n      jumpi\n        /* \"#utility.yul\":28911:28950   */\n      tag_597\n        /* \"#utility.yul\":28948:28949   */\n      0x00\n        /* \"#utility.yul\":28941:28946   */\n      dup3\n        /* \"#utility.yul\":28911:28950   */\n      tag_325\n      jump\t// in\n    tag_597:\n        /* \"#utility.yul\":28884:28885   */\n      0x01\n        /* \"#utility.yul\":28877:28882   */\n      dup2\n        /* \"#utility.yul\":28873:28886   */\n      add\n        /* \"#utility.yul\":28864:28886   */\n      swap1\n      pop\n        /* \"#utility.yul\":28840:28960   */\n      jump(tag_594)\n    tag_596:\n        /* \"#utility.yul\":28780:28966   */\n      pop\n      pop\n      jump\t// out\n        /* \"#utility.yul\":28972:29515   */\n    tag_327:\n        /* \"#utility.yul\":29073:29075   */\n      0x1f\n        /* \"#utility.yul\":29068:29071   */\n      dup3\n        /* \"#utility.yul\":29065:29076   */\n      gt\n        /* \"#utility.yul\":29062:29508   */\n      iszero\n      tag_599\n      jumpi\n        /* \"#utility.yul\":29107:29145   */\n      tag_600\n        /* \"#utility.yul\":29139:29144   */\n      dup2\n        /* \"#utility.yul\":29107:29145   */\n      tag_316\n      jump\t// in\n    tag_600:\n        /* \"#utility.yul\":29191:29220   */\n      tag_601\n        /* \"#utility.yul\":29209:29219   */\n      dup5\n        /* \"#utility.yul\":29191:29220   */\n      tag_317\n      jump\t// in\n    tag_601:\n        /* \"#utility.yul\":29181:29189   */\n      dup2\n        /* \"#utility.yul\":29177:29221   */\n      add\n        /* \"#utility.yul\":29374:29376   */\n      0x20\n        /* \"#utility.yul\":29362:29372   */\n      dup6\n        /* \"#utility.yul\":29359:29377   */\n      lt\n        /* \"#utility.yul\":29356:29405   */\n      iszero\n      tag_602\n      jumpi\n        /* \"#utility.yul\":29395:29403   */\n      dup2\n        /* \"#utility.yul\":29380:29403   */\n      swap1\n      pop\n        /* \"#utility.yul\":29356:29405   */\n    tag_602:\n        /* \"#utility.yul\":29418:29498   */\n      tag_603\n        /* \"#utility.yul\":29474:29496   */\n      tag_604\n        /* \"#utility.yul\":29492:29495   */\n      dup6\n        /* \"#utility.yul\":29474:29496   */\n      tag_317\n      jump\t// in\n    tag_604:\n        /* \"#utility.yul\":29464:29472   */\n      dup4\n        /* \"#utility.yul\":29460:29497   */\n      add\n        /* \"#utility.yul\":29447:29458   */\n      dup3\n        /* \"#utility.yul\":29418:29498   */\n      tag_326\n      jump\t// in\n    tag_603:\n        /* \"#utility.yul\":29077:29508   */\n      pop\n      pop\n        /* \"#utility.yul\":29062:29508   */\n    tag_599:\n        /* \"#utility.yul\":28972:29515   */\n      pop\n      pop\n      pop\n      jump\t// out\n        /* \"#utility.yul\":29521:29638   */\n    tag_328:\n        /* \"#utility.yul\":29575:29583   */\n      0x00\n        /* \"#utility.yul\":29625:29630   */\n      dup3\n        /* \"#utility.yul\":29619:29623   */\n      dup3\n        /* \"#utility.yul\":29615:29631   */\n      shr\n        /* \"#utility.yul\":29594:29631   */\n      swap1\n      pop\n        /* \"#utility.yul\":29521:29638   */\n      swap3\n      swap2\n      pop\n      pop\n      jump\t// out\n        /* \"#utility.yul\":29644:29813   */\n    tag_329:\n        /* \"#utility.yul\":29688:29694   */\n      0x00\n        /* \"#utility.yul\":29721:29772   */\n      tag_607\n        /* \"#utility.yul\":29769:29770   */\n      0x00\n        /* \"#utility.yul\":29765:29771   */\n      not\n        /* \"#utility.yul\":29757:29762   */\n      dup5\n        /* \"#utility.yul\":29754:29755   */\n      0x08\n        /* \"#utility.yul\":29750:29763   */\n      mul\n        /* \"#utility.yul\":29721:29772   */\n      tag_328\n      jump\t// in\n    tag_607:\n        /* \"#utility.yul\":29717:29773   */\n      not\n        /* \"#utility.yul\":29802:29806   */\n      dup1\n        /* \"#utility.yul\":29796:29800   */\n      dup4\n        /* \"#utility.yul\":29792:29807   */\n      and\n        /* \"#utility.yul\":29782:29807   */\n      swap2\n      pop\n        /* \"#utility.yul\":29695:29813   */\n      pop\n        /* \"#utility.yul\":29644:29813   */\n      swap3\n      swap2\n      pop\n      pop\n      jump\t// out\n        /* \"#utility.yul\":29818:30113   */\n    tag_330:\n        /* \"#utility.yul\":29894:29898   */\n      0x00\n        /* \"#utility.yul\":30040:30069   */\n      tag_609\n        /* \"#utility.yul\":30065:30068   */\n      dup4\n        /* \"#utility.yul\":30059:30063   */\n      dup4\n        /* \"#utility.yul\":30040:30069   */\n      tag_329\n      jump\t// in\n    tag_609:\n        /* \"#utility.yul\":30032:30069   */\n      swap2\n      pop\n        /* \"#utility.yul\":30102:30105   */\n      dup3\n        /* \"#utility.yul\":30099:30100   */\n      0x02\n        /* \"#utility.yul\":30095:30106   */\n      mul\n        /* \"#utility.yul\":30089:30093   */\n      dup3\n        /* \"#utility.yul\":30086:30107   */\n      or\n        /* \"#utility.yul\":30078:30107   */\n      swap1\n      pop\n        /* \"#utility.yul\":29818:30113   */\n      swap3\n      swap2\n      pop\n      pop\n      jump\t// out\n        /* \"#utility.yul\":30118:31513   */\n    tag_160:\n        /* \"#utility.yul\":30235:30272   */\n      tag_611\n        /* \"#utility.yul\":30268:30271   */\n      dup3\n        /* \"#utility.yul\":30235:30272   */\n      tag_261\n      jump\t// in\n    tag_611:\n        /* \"#utility.yul\":30337:30355   */\n      0xffffffffffffffff\n        /* \"#utility.yul\":30329:30335   */\n      dup2\n        /* \"#utility.yul\":30326:30356   */\n      gt\n        /* \"#utility.yul\":30323:30379   */\n      iszero\n      tag_612\n      jumpi\n        /* \"#utility.yul\":30359:30377   */\n      tag_613\n      tag_64\n      jump\t// in\n    tag_613:\n        /* \"#utility.yul\":30323:30379   */\n    tag_612:\n        /* \"#utility.yul\":30403:30441   */\n      tag_614\n        /* \"#utility.yul\":30435:30439   */\n      dup3\n        /* \"#utility.yul\":30429:30440   */\n      sload\n        /* \"#utility.yul\":30403:30441   */\n      tag_73\n      jump\t// in\n    tag_614:\n        /* \"#utility.yul\":30488:30555   */\n      tag_615\n        /* \"#utility.yul\":30548:30554   */\n      dup3\n        /* \"#utility.yul\":30540:30546   */\n      dup3\n        /* \"#utility.yul\":30534:30538   */\n      dup6\n        /* \"#utility.yul\":30488:30555   */\n      tag_327\n      jump\t// in\n    tag_615:\n        /* \"#utility.yul\":30582:30583   */\n      0x00\n        /* \"#utility.yul\":30606:30610   */\n      0x20\n        /* \"#utility.yul\":30593:30610   */\n      swap1\n      pop\n        /* \"#utility.yul\":30638:30640   */\n      0x1f\n        /* \"#utility.yul\":30630:30636   */\n      dup4\n        /* \"#utility.yul\":30627:30641   */\n      gt\n        /* \"#utility.yul\":30655:30656   */\n      0x01\n        /* \"#utility.yul\":30650:31268   */\n      dup2\n      eq\n      tag_617\n      jumpi\n        /* \"#utility.yul\":31312:31313   */\n      0x00\n        /* \"#utility.yul\":31329:31335   */\n      dup5\n        /* \"#utility.yul\":31326:31403   */\n      iszero\n      tag_618\n      jumpi\n        /* \"#utility.yul\":31378:31387   */\n      dup3\n        /* \"#utility.yul\":31373:31376   */\n      dup8\n        /* \"#utility.yul\":31369:31388   */\n      add\n        /* \"#utility.yul\":31363:31389   */\n      mload\n        /* \"#utility.yul\":31354:31389   */\n      swap1\n      pop\n        /* \"#utility.yul\":31326:31403   */\n    tag_618:\n        /* \"#utility.yul\":31429:31496   */\n      tag_619\n        /* \"#utility.yul\":31489:31495   */\n      dup6\n        /* \"#utility.yul\":31482:31487   */\n      dup3\n        /* \"#utility.yul\":31429:31496   */\n      tag_330\n      jump\t// in\n    tag_619:\n        /* \"#utility.yul\":31423:31427   */\n      dup7\n        /* \"#utility.yul\":31416:31497   */\n      sstore\n        /* \"#utility.yul\":31285:31507   */\n      pop\n        /* \"#utility.yul\":30620:31507   */\n      jump(tag_616)\n        /* \"#utility.yul\":30650:31268   */\n    tag_617:\n        /* \"#utility.yul\":30702:30706   */\n      0x1f\n        /* \"#utility.yul\":30698:30707   */\n      not\n        /* \"#utility.yul\":30690:30696   */\n      dup5\n        /* \"#utility.yul\":30686:30708   */\n      and\n        /* \"#utility.yul\":30736:30773   */\n      tag_620\n        /* \"#utility.yul\":30768:30772   */\n      dup7\n        /* \"#utility.yul\":30736:30773   */\n      tag_316\n      jump\t// in\n    tag_620:\n        /* \"#utility.yul\":30795:30796   */\n      0x00\n        /* \"#utility.yul\":30809:31017   */\n    tag_621:\n        /* \"#utility.yul\":30823:30830   */\n      dup3\n        /* \"#utility.yul\":30820:30821   */\n      dup2\n        /* \"#utility.yul\":30817:30831   */\n      lt\n        /* \"#utility.yul\":30809:31017   */\n      iszero\n      tag_623\n      jumpi\n        /* \"#utility.yul\":30902:30911   */\n      dup5\n        /* \"#utility.yul\":30897:30900   */\n      dup10\n        /* \"#utility.yul\":30893:30912   */\n      add\n        /* \"#utility.yul\":30887:30913   */\n      mload\n        /* \"#utility.yul\":30879:30885   */\n      dup3\n        /* \"#utility.yul\":30872:30914   */\n      sstore\n        /* \"#utility.yul\":30953:30954   */\n      0x01\n        /* \"#utility.yul\":30945:30951   */\n      dup3\n        /* \"#utility.yul\":30941:30955   */\n      add\n        /* \"#utility.yul\":30931:30955   */\n      swap2\n      pop\n        /* \"#utility.yul\":31000:31002   */\n      0x20\n        /* \"#utility.yul\":30989:30998   */\n      dup6\n        /* \"#utility.yul\":30985:31003   */\n      add\n        /* \"#utility.yul\":30972:31003   */\n      swap5\n      pop\n        /* \"#utility.yul\":30846:30850   */\n      0x20\n        /* \"#utility.yul\":30843:30844   */\n      dup2\n        /* \"#utility.yul\":30839:30851   */\n      add\n        /* \"#utility.yul\":30834:30851   */\n      swap1\n      pop\n        /* \"#utility.yul\":30809:31017   */\n      jump(tag_621)\n    tag_623:\n        /* \"#utility.yul\":31045:31051   */\n      dup7\n        /* \"#utility.yul\":31036:31043   */\n      dup4\n        /* \"#utility.yul\":31033:31052   */\n      lt\n        /* \"#utility.yul\":31030:31209   */\n      iszero\n      tag_624\n      jumpi\n        /* \"#utility.yul\":31103:31112   */\n      dup5\n        /* \"#utility.yul\":31098:31101   */\n      dup10\n        /* \"#utility.yul\":31094:31113   */\n      add\n        /* \"#utility.yul\":31088:31114   */\n      mload\n        /* \"#utility.yul\":31146:31194   */\n      tag_625\n        /* \"#utility.yul\":31188:31192   */\n      0x1f\n        /* \"#utility.yul\":31180:31186   */\n      dup10\n        /* \"#utility.yul\":31176:31193   */\n      and\n        /* \"#utility.yul\":31165:31174   */\n      dup3\n        /* \"#utility.yul\":31146:31194   */\n      tag_329\n      jump\t// in\n    tag_625:\n        /* \"#utility.yul\":31138:31144   */\n      dup4\n        /* \"#utility.yul\":31131:31195   */\n      sstore\n        /* \"#utility.yul\":31053:31209   */\n      pop\n        /* \"#utility.yul\":31030:31209   */\n    tag_624:\n        /* \"#utility.yul\":31255:31256   */\n      0x01\n        /* \"#utility.yul\":31251:31252   */\n      0x02\n        /* \"#utility.yul\":31243:31249   */\n      dup9\n        /* \"#utility.yul\":31239:31253   */\n      mul\n        /* \"#utility.yul\":31235:31257   */\n      add\n        /* \"#utility.yul\":31229:31233   */\n      dup9\n        /* \"#utility.yul\":31222:31258   */\n      sstore\n        /* \"#utility.yul\":30657:31268   */\n      pop\n      pop\n      pop\n        /* \"#utility.yul\":30620:31507   */\n    tag_616:\n      pop\n        /* \"#utility.yul\":30210:31513   */\n      pop\n      pop\n      pop\n        /* \"#utility.yul\":30118:31513   */\n      pop\n      pop\n      jump\t// out\n        /* \"#utility.yul\":31519:31701   */\n    tag_331:\n        /* \"#utility.yul\":31659:31693   */\n      0x43616e64696461746520526567697374726174696f6e20697320636c6f736564\n        /* \"#utility.yul\":31655:31656   */\n      0x00\n        /* \"#utility.yul\":31647:31653   */\n      dup3\n        /* \"#utility.yul\":31643:31657   */\n      add\n        /* \"#utility.yul\":31636:31694   */\n      mstore\n        /* \"#utility.yul\":31519:31701   */\n      pop\n      jump\t// out\n        /* \"#utility.yul\":31707:32073   */\n    tag_332:\n        /* \"#utility.yul\":31849:31852   */\n      0x00\n        /* \"#utility.yul\":31870:31937   */\n      tag_628\n        /* \"#utility.yul\":31934:31936   */\n      0x20\n        /* \"#utility.yul\":31929:31932   */\n      dup4\n        /* \"#utility.yul\":31870:31937   */\n      tag_299\n      jump\t// in\n    tag_628:\n        /* \"#utility.yul\":31863:31937   */\n      swap2\n      pop\n        /* \"#utility.yul\":31946:32039   */\n      tag_629\n        /* \"#utility.yul\":32035:32038   */\n      dup3\n        /* \"#utility.yul\":31946:32039   */\n      tag_331\n      jump\t// in\n    tag_629:\n        /* \"#utility.yul\":32064:32066   */\n      0x20\n        /* \"#utility.yul\":32059:32062   */\n      dup3\n        /* \"#utility.yul\":32055:32067   */\n      add\n        /* \"#utility.yul\":32048:32067   */\n      swap1\n      pop\n        /* \"#utility.yul\":31707:32073   */\n      swap2\n      swap1\n      pop\n      jump\t// out\n        /* \"#utility.yul\":32079:32498   */\n    tag_168:\n        /* \"#utility.yul\":32245:32249   */\n      0x00\n        /* \"#utility.yul\":32283:32285   */\n      0x20\n        /* \"#utility.yul\":32272:32281   */\n      dup3\n        /* \"#utility.yul\":32268:32286   */\n      add\n        /* \"#utility.yul\":32260:32286   */\n      swap1\n      pop\n        /* \"#utility.yul\":32332:32341   */\n      dup2\n        /* \"#utility.yul\":32326:32330   */\n      dup2\n        /* \"#utility.yul\":32322:32342   */\n      sub\n        /* \"#utility.yul\":32318:32319   */\n      0x00\n        /* \"#utility.yul\":32307:32316   */\n      dup4\n        /* \"#utility.yul\":32303:32320   */\n      add\n        /* \"#utility.yul\":32296:32343   */\n      mstore\n        /* \"#utility.yul\":32360:32491   */\n      tag_631\n        /* \"#utility.yul\":32486:32490   */\n      dup2\n        /* \"#utility.yul\":32360:32491   */\n      tag_332\n      jump\t// in\n    tag_631:\n        /* \"#utility.yul\":32352:32491   */\n      swap1\n      pop\n        /* \"#utility.yul\":32079:32498   */\n      swap2\n      swap1\n      pop\n      jump\t// out\n        /* \"#utility.yul\":32504:32685   */\n    tag_333:\n        /* \"#utility.yul\":32644:32677   */\n      0x596f75206172652066726f6d20656c656374696f6e20636f6d697373696f6e00\n        /* \"#utility.yul\":32640:32641   */\n      0x00\n        /* \"#utility.yul\":32632:32638   */\n      dup3\n        /* \"#utility.yul\":32628:32642   */\n      add\n        /* \"#utility.yul\":32621:32678   */\n      mstore\n        /* \"#utility.yul\":32504:32685   */\n      pop\n      jump\t// out\n        /* \"#utility.yul\":32691:33057   */\n    tag_334:\n        /* \"#utility.yul\":32833:32836   */\n      0x00\n        /* \"#utility.yul\":32854:32921   */\n      tag_634\n        /* \"#utility.yul\":32918:32920   */\n      0x1f\n        /* \"#utility.yul\":32913:32916   */\n      dup4\n        /* \"#utility.yul\":32854:32921   */\n      tag_299\n      jump\t// in\n    tag_634:\n        /* \"#utility.yul\":32847:32921   */\n      swap2\n      pop\n        /* \"#utility.yul\":32930:33023   */\n      tag_635\n        /* \"#utility.yul\":33019:33022   */\n      dup3\n        /* \"#utility.yul\":32930:33023   */\n      tag_333\n      jump\t// in\n    tag_635:\n        /* \"#utility.yul\":33048:33050   */\n      0x20\n        /* \"#utility.yul\":33043:33046   */\n      dup3\n        /* \"#utility.yul\":33039:33051   */\n      add\n        /* \"#utility.yul\":33032:33051   */\n      swap1\n      pop\n        /* \"#utility.yul\":32691:33057   */\n      swap2\n      swap1\n      pop\n      jump\t// out\n        /* \"#utility.yul\":33063:33482   */\n    tag_172:\n        /* \"#utility.yul\":33229:33233   */\n      0x00\n        /* \"#utility.yul\":33267:33269   */\n      0x20\n        /* \"#utility.yul\":33256:33265   */\n      dup3\n        /* \"#utility.yul\":33252:33270   */\n      add\n        /* \"#utility.yul\":33244:33270   */\n      swap1\n      pop\n        /* \"#utility.yul\":33316:33325   */\n      dup2\n        /* \"#utility.yul\":33310:33314   */\n      dup2\n        /* \"#utility.yul\":33306:33326   */\n      sub\n        /* \"#utility.yul\":33302:33303   */\n      0x00\n        /* \"#utility.yul\":33291:33300   */\n      dup4\n        /* \"#utility.yul\":33287:33304   */\n      add\n        /* \"#utility.yul\":33280:33327   */\n      mstore\n        /* \"#utility.yul\":33344:33475   */\n      tag_637\n        /* \"#utility.yul\":33470:33474   */\n      dup2\n        /* \"#utility.yul\":33344:33475   */\n      tag_334\n      jump\t// in\n    tag_637:\n        /* \"#utility.yul\":33336:33475   */\n      swap1\n      pop\n        /* \"#utility.yul\":33063:33482   */\n      swap2\n      swap1\n      pop\n      jump\t// out\n        /* \"#utility.yul\":33488:33652   */\n    tag_335:\n        /* \"#utility.yul\":33628:33644   */\n      0x596f75206861766520766f746564000000000000000000000000000000000000\n        /* \"#utility.yul\":33624:33625   */\n      0x00\n        /* \"#utility.yul\":33616:33622   */\n      dup3\n        /* \"#utility.yul\":33612:33626   */\n      add\n        /* \"#utility.yul\":33605:33645   */\n      mstore\n        /* \"#utility.yul\":33488:33652   */\n      pop\n      jump\t// out\n        /* \"#utility.yul\":33658:34024   */\n    tag_336:\n        /* \"#utility.yul\":33800:33803   */\n      0x00\n        /* \"#utility.yul\":33821:33888   */\n      tag_640\n        /* \"#utility.yul\":33885:33887   */\n      0x0e\n        /* \"#utility.yul\":33880:33883   */\n      dup4\n        /* \"#utility.yul\":33821:33888   */\n      tag_299\n      jump\t// in\n    tag_640:\n        /* \"#utility.yul\":33814:33888   */\n      swap2\n      pop\n        /* \"#utility.yul\":33897:33990   */\n      tag_641\n        /* \"#utility.yul\":33986:33989   */\n      dup3\n        /* \"#utility.yul\":33897:33990   */\n      tag_335\n      jump\t// in\n    tag_641:\n        /* \"#utility.yul\":34015:34017   */\n      0x20\n        /* \"#utility.yul\":34010:34013   */\n      dup3\n        /* \"#utility.yul\":34006:34018   */\n      add\n        /* \"#utility.yul\":33999:34018   */\n      swap1\n      pop\n        /* \"#utility.yul\":33658:34024   */\n      swap2\n      swap1\n      pop\n      jump\t// out\n        /* \"#utility.yul\":34030:34449   */\n    tag_214:\n        /* \"#utility.yul\":34196:34200   */\n      0x00\n        /* \"#utility.yul\":34234:34236   */\n      0x20\n        /* \"#utility.yul\":34223:34232   */\n      dup3\n        /* \"#utility.yul\":34219:34237   */\n      add\n        /* \"#utility.yul\":34211:34237   */\n      swap1\n      pop\n        /* \"#utility.yul\":34283:34292   */\n      dup2\n        /* \"#utility.yul\":34277:34281   */\n      dup2\n        /* \"#utility.yul\":34273:34293   */\n      sub\n        /* \"#utility.yul\":34269:34270   */\n      0x00\n        /* \"#utility.yul\":34258:34267   */\n      dup4\n        /* \"#utility.yul\":34254:34271   */\n      add\n        /* \"#utility.yul\":34247:34294   */\n      mstore\n        /* \"#utility.yul\":34311:34442   */\n      tag_643\n        /* \"#utility.yul\":34437:34441   */\n      dup2\n        /* \"#utility.yul\":34311:34442   */\n      tag_336\n      jump\t// in\n    tag_643:\n        /* \"#utility.yul\":34303:34442   */\n      swap1\n      pop\n        /* \"#utility.yul\":34030:34449   */\n      swap2\n      swap1\n      pop\n      jump\t// out\n        /* \"#utility.yul\":34455:34637   */\n    tag_337:\n        /* \"#utility.yul\":34595:34629   */\n      0x596f752063616e7420766f74652066726f6d206f746865727320626568616c66\n        /* \"#utility.yul\":34591:34592   */\n      0x00\n        /* \"#utility.yul\":34583:34589   */\n      dup3\n        /* \"#utility.yul\":34579:34593   */\n      add\n        /* \"#utility.yul\":34572:34630   */\n      mstore\n        /* \"#utility.yul\":34455:34637   */\n      pop\n      jump\t// out\n        /* \"#utility.yul\":34643:35009   */\n    tag_338:\n        /* \"#utility.yul\":34785:34788   */\n      0x00\n        /* \"#utility.yul\":34806:34873   */\n      tag_646\n        /* \"#utility.yul\":34870:34872   */\n      0x20\n        /* \"#utility.yul\":34865:34868   */\n      dup4\n        /* \"#utility.yul\":34806:34873   */\n      tag_299\n      jump\t// in\n    tag_646:\n        /* \"#utility.yul\":34799:34873   */\n      swap2\n      pop\n        /* \"#utility.yul\":34882:34975   */\n      tag_647\n        /* \"#utility.yul\":34971:34974   */\n      dup3\n        /* \"#utility.yul\":34882:34975   */\n      tag_337\n      jump\t// in\n    tag_647:\n        /* \"#utility.yul\":35000:35002   */\n      0x20\n        /* \"#utility.yul\":34995:34998   */\n      dup3\n        /* \"#utility.yul\":34991:35003   */\n      add\n        /* \"#utility.yul\":34984:35003   */\n      swap1\n      pop\n        /* \"#utility.yul\":34643:35009   */\n      swap2\n      swap1\n      pop\n      jump\t// out\n        /* \"#utility.yul\":35015:35434   */\n    tag_217:\n        /* \"#utility.yul\":35181:35185   */\n      0x00\n        /* \"#utility.yul\":35219:35221   */\n      0x20\n        /* \"#utility.yul\":35208:35217   */\n      dup3\n        /* \"#utility.yul\":35204:35222   */\n      add\n        /* \"#utility.yul\":35196:35222   */\n      swap1\n      pop\n        /* \"#utility.yul\":35268:35277   */\n      dup2\n        /* \"#utility.yul\":35262:35266   */\n      dup2\n        /* \"#utility.yul\":35258:35278   */\n      sub\n        /* \"#utility.yul\":35254:35255   */\n      0x00\n        /* \"#utility.yul\":35243:35252   */\n      dup4\n        /* \"#utility.yul\":35239:35256   */\n      add\n        /* \"#utility.yul\":35232:35279   */\n      mstore\n        /* \"#utility.yul\":35296:35427   */\n      tag_649\n        /* \"#utility.yul\":35422:35426   */\n      dup2\n        /* \"#utility.yul\":35296:35427   */\n      tag_338\n      jump\t// in\n    tag_649:\n        /* \"#utility.yul\":35288:35427   */\n      swap1\n      pop\n        /* \"#utility.yul\":35015:35434   */\n      swap2\n      swap1\n      pop\n      jump\t// out\n        /* \"#utility.yul\":35440:35667   */\n    tag_339:\n        /* \"#utility.yul\":35580:35614   */\n      0x43616e6469646174657320617265206e6f74207265676973746572656420636f\n        /* \"#utility.yul\":35576:35577   */\n      0x00\n        /* \"#utility.yul\":35568:35574   */\n      dup3\n        /* \"#utility.yul\":35564:35578   */\n      add\n        /* \"#utility.yul\":35557:35615   */\n      mstore\n        /* \"#utility.yul\":35649:35659   */\n      0x6d706c6574656c79000000000000000000000000000000000000000000000000\n        /* \"#utility.yul\":35644:35646   */\n      0x20\n        /* \"#utility.yul\":35636:35642   */\n      dup3\n        /* \"#utility.yul\":35632:35647   */\n      add\n        /* \"#utility.yul\":35625:35660   */\n      mstore\n        /* \"#utility.yul\":35440:35667   */\n      pop\n      jump\t// out\n        /* \"#utility.yul\":35673:36039   */\n    tag_340:\n        /* \"#utility.yul\":35815:35818   */\n      0x00\n        /* \"#utility.yul\":35836:35903   */\n      tag_652\n        /* \"#utility.yul\":35900:35902   */\n      0x28\n        /* \"#utility.yul\":35895:35898   */\n      dup4\n        /* \"#utility.yul\":35836:35903   */\n      tag_299\n      jump\t// in\n    tag_652:\n        /* \"#utility.yul\":35829:35903   */\n      swap2\n      pop\n        /* \"#utility.yul\":35912:36005   */\n      tag_653\n        /* \"#utility.yul\":36001:36004   */\n      dup3\n        /* \"#utility.yul\":35912:36005   */\n      tag_339\n      jump\t// in\n    tag_653:\n        /* \"#utility.yul\":36030:36032   */\n      0x40\n        /* \"#utility.yul\":36025:36028   */\n      dup3\n        /* \"#utility.yul\":36021:36033   */\n      add\n        /* \"#utility.yul\":36014:36033   */\n      swap1\n      pop\n        /* \"#utility.yul\":35673:36039   */\n      swap2\n      swap1\n      pop\n      jump\t// out\n        /* \"#utility.yul\":36045:36464   */\n    tag_220:\n        /* \"#utility.yul\":36211:36215   */\n      0x00\n        /* \"#utility.yul\":36249:36251   */\n      0x20\n        /* \"#utility.yul\":36238:36247   */\n      dup3\n        /* \"#utility.yul\":36234:36252   */\n      add\n        /* \"#utility.yul\":36226:36252   */\n      swap1\n      pop\n        /* \"#utility.yul\":36298:36307   */\n      dup2\n        /* \"#utility.yul\":36292:36296   */\n      dup2\n        /* \"#utility.yul\":36288:36308   */\n      sub\n        /* \"#utility.yul\":36284:36285   */\n      0x00\n        /* \"#utility.yul\":36273:36282   */\n      dup4\n        /* \"#utility.yul\":36269:36286   */\n      add\n        /* \"#utility.yul\":36262:36309   */\n      mstore\n        /* \"#utility.yul\":36326:36457   */\n      tag_655\n        /* \"#utility.yul\":36452:36456   */\n      dup2\n        /* \"#utility.yul\":36326:36457   */\n      tag_340\n      jump\t// in\n    tag_655:\n        /* \"#utility.yul\":36318:36457   */\n      swap1\n      pop\n        /* \"#utility.yul\":36045:36464   */\n      swap2\n      swap1\n      pop\n      jump\t// out\n        /* \"#utility.yul\":36470:36641   */\n    tag_341:\n        /* \"#utility.yul\":36610:36633   */\n      0x566f74696e67206973206e6f7420737461727465640000000000000000000000\n        /* \"#utility.yul\":36606:36607   */\n      0x00\n        /* \"#utility.yul\":36598:36604   */\n      dup3\n        /* \"#utility.yul\":36594:36608   */\n      add\n        /* \"#utility.yul\":36587:36634   */\n      mstore\n        /* \"#utility.yul\":36470:36641   */\n      pop\n      jump\t// out\n        /* \"#utility.yul\":36647:37013   */\n    tag_342:\n        /* \"#utility.yul\":36789:36792   */\n      0x00\n        /* \"#utility.yul\":36810:36877   */\n      tag_658\n        /* \"#utility.yul\":36874:36876   */\n      0x15\n        /* \"#utility.yul\":36869:36872   */\n      dup4\n        /* \"#utility.yul\":36810:36877   */\n      tag_299\n      jump\t// in\n    tag_658:\n        /* \"#utility.yul\":36803:36877   */\n      swap2\n      pop\n        /* \"#utility.yul\":36886:36979   */\n      tag_659\n        /* \"#utility.yul\":36975:36978   */\n      dup3\n        /* \"#utility.yul\":36886:36979   */\n      tag_341\n      jump\t// in\n    tag_659:\n        /* \"#utility.yul\":37004:37006   */\n      0x20\n        /* \"#utility.yul\":36999:37002   */\n      dup3\n        /* \"#utility.yul\":36995:37007   */\n      add\n        /* \"#utility.yul\":36988:37007   */\n      swap1\n      pop\n        /* \"#utility.yul\":36647:37013   */\n      swap2\n      swap1\n      pop\n      jump\t// out\n        /* \"#utility.yul\":37019:37438   */\n    tag_223:\n        /* \"#utility.yul\":37185:37189   */\n      0x00\n        /* \"#utility.yul\":37223:37225   */\n      0x20\n        /* \"#utility.yul\":37212:37221   */\n      dup3\n        /* \"#utility.yul\":37208:37226   */\n      add\n        /* \"#utility.yul\":37200:37226   */\n      swap1\n      pop\n        /* \"#utility.yul\":37272:37281   */\n      dup2\n        /* \"#utility.yul\":37266:37270   */\n      dup2\n        /* \"#utility.yul\":37262:37282   */\n      sub\n        /* \"#utility.yul\":37258:37259   */\n      0x00\n        /* \"#utility.yul\":37247:37256   */\n      dup4\n        /* \"#utility.yul\":37243:37260   */\n      add\n        /* \"#utility.yul\":37236:37283   */\n      mstore\n        /* \"#utility.yul\":37300:37431   */\n      tag_661\n        /* \"#utility.yul\":37426:37430   */\n      dup2\n        /* \"#utility.yul\":37300:37431   */\n      tag_342\n      jump\t// in\n    tag_661:\n        /* \"#utility.yul\":37292:37431   */\n      swap1\n      pop\n        /* \"#utility.yul\":37019:37438   */\n      swap2\n      swap1\n      pop\n      jump\t// out\n        /* \"#utility.yul\":37444:37618   */\n    tag_343:\n        /* \"#utility.yul\":37584:37610   */\n      0x43616e64696461746520646f6573206e6f742065786973740000000000000000\n        /* \"#utility.yul\":37580:37581   */\n      0x00\n        /* \"#utility.yul\":37572:37578   */\n      dup3\n        /* \"#utility.yul\":37568:37582   */\n      add\n        /* \"#utility.yul\":37561:37611   */\n      mstore\n        /* \"#utility.yul\":37444:37618   */\n      pop\n      jump\t// out\n        /* \"#utility.yul\":37624:37990   */\n    tag_344:\n        /* \"#utility.yul\":37766:37769   */\n      0x00\n        /* \"#utility.yul\":37787:37854   */\n      tag_664\n        /* \"#utility.yul\":37851:37853   */\n      0x18\n        /* \"#utility.yul\":37846:37849   */\n      dup4\n        /* \"#utility.yul\":37787:37854   */\n      tag_299\n      jump\t// in\n    tag_664:\n        /* \"#utility.yul\":37780:37854   */\n      swap2\n      pop\n        /* \"#utility.yul\":37863:37956   */\n      tag_665\n        /* \"#utility.yul\":37952:37955   */\n      dup3\n        /* \"#utility.yul\":37863:37956   */\n      tag_343\n      jump\t// in\n    tag_665:\n        /* \"#utility.yul\":37981:37983   */\n      0x20\n        /* \"#utility.yul\":37976:37979   */\n      dup3\n        /* \"#utility.yul\":37972:37984   */\n      add\n        /* \"#utility.yul\":37965:37984   */\n      swap1\n      pop\n        /* \"#utility.yul\":37624:37990   */\n      swap2\n      swap1\n      pop\n      jump\t// out\n        /* \"#utility.yul\":37996:38415   */\n    tag_226:\n        /* \"#utility.yul\":38162:38166   */\n      0x00\n        /* \"#utility.yul\":38200:38202   */\n      0x20\n        /* \"#utility.yul\":38189:38198   */\n      dup3\n        /* \"#utility.yul\":38185:38203   */\n      add\n        /* \"#utility.yul\":38177:38203   */\n      swap1\n      pop\n        /* \"#utility.yul\":38249:38258   */\n      dup2\n        /* \"#utility.yul\":38243:38247   */\n      dup2\n        /* \"#utility.yul\":38239:38259   */\n      sub\n        /* \"#utility.yul\":38235:38236   */\n      0x00\n        /* \"#utility.yul\":38224:38233   */\n      dup4\n        /* \"#utility.yul\":38220:38237   */\n      add\n        /* \"#utility.yul\":38213:38260   */\n      mstore\n        /* \"#utility.yul\":38277:38408   */\n      tag_667\n        /* \"#utility.yul\":38403:38407   */\n      dup2\n        /* \"#utility.yul\":38277:38408   */\n      tag_344\n      jump\t// in\n    tag_667:\n        /* \"#utility.yul\":38269:38408   */\n      swap1\n      pop\n        /* \"#utility.yul\":37996:38415   */\n      swap2\n      swap1\n      pop\n      jump\t// out\n\n    auxdata: 0xa26469706673582212203572f7631ea440857b941e847b977a87b6469fa27a0f67e38c951a0a9548c12464736f6c63430008120033\n}\n",
				"bytecode": {
					"linkReferences": {},
					"object": "60806040526000600260006101000a81548160ff0219169083151502179055506000600560006101000a81548160ff0219169083151502179055506001600a556001600b556000600c60006101000a81548160ff02191690831515021790555034801561006b57600080fd5b5033600860006101000a81548173ffffffffffffffffffffffffffffffffffffffff021916908373ffffffffffffffffffffffffffffffffffffffff160217905550612d7a806100bc6000396000f3fe608060405234801561001057600080fd5b50600436106100a95760003560e01c806369042bec1161007157806369042bec146101405780636d2bc1eb1461015c5780637da0e15e14610192578063b384abef146101c7578063dfbf53ae146101e3578063f83f40db14610201576100a9565b806324089918146100ae57806333a99e04146100cc578063498ea441146100ea5780635042746c146101085780635d74b02314610124575b600080fd5b6100b661021d565b6040516100c39190611c91565b60405180910390f35b6100d4610491565b6040516100e19190611cc2565b60405180910390f35b6100f26106c7565b6040516100ff9190611e49565b60405180910390f35b610122600480360381019061011d9190611eab565b6109cd565b005b61013e60048036038101906101399190612020565b610aa2565b005b61015a6004803603810190610155919061210b565b610c9f565b005b610176600480360381019061017191906121cb565b6110d9565b6040516101899796959493929190612251565b60405180910390f35b6101ac60048036038101906101a791906121cb565b6112d3565b6040516101be969594939291906122d5565b60405180910390f35b6101e160048036038101906101dc9190611eab565b61143f565b005b6101eb611667565b6040516101f89190611cc2565b60405180910390f35b61021b60048036038101906102169190611eab565b61168d565b005b606060006001600a546102309190612373565b67ffffffffffffffff81111561024957610248611ef5565b5b60405190808252806020026020018201604052801561028257816020015b61026f6119b6565b8152602001906001900390816102675790505b5090506000600190505b600a5481101561048957600760008281526020019081526020016000206040518060c00160405290816000820180546102c4906123d6565b80601f01602080910402602001604051908101604052809291908181526020018280546102f0906123d6565b801561033d5780601f106103125761010080835404028352916020019161033d565b820191906000526020600020905b81548152906001019060200180831161032057829003601f168201915b50505050508152602001600182015481526020016002820154815260200160038201805461036a906123d6565b80601f0160208091040260200160405190810160405280929190818152602001828054610396906123d6565b80156103e35780601f106103b8576101008083540402835291602001916103e3565b820191906000526020600020905b8154815290600101906020018083116103c657829003601f168201915b50505050508152602001600482015481526020016005820160009054906101000a900473ffffffffffffffffffffffffffffffffffffffff1673ffffffffffffffffffffffffffffffffffffffff1673ffffffffffffffffffffffffffffffffffffffff16815250508260018361045a9190612373565b8151811061046b5761046a612407565b5b6020026020010181905250808061048190612436565b91505061028c565b508091505090565b6000600860009054906101000a900473ffffffffffffffffffffffffffffffffffffffff1673ffffffffffffffffffffffffffffffffffffffff163373ffffffffffffffffffffffffffffffffffffffff1614610523576040517f08c379a000000000000000000000000000000000000000000000000000000000815260040161051a906124f0565b60405180910390fd5b600154421180156105375750600060015414155b610576576040517f08c379a000000000000000000000000000000000000000000000000000000000815260040161056d90612582565b60405180910390fd5b6004544211801561058a5750600060045414155b6105c9576040517f08c379a00000000000000000000000000000000000000000000000000000000081526004016105c090612614565b60405180910390fd5b600080600190505b600b5481101561069d57816006600083815260200190815260200160002060060154111561068a57600660008281526020019081526020016000206006015491506006600082815260200190815260200160002060050160009054906101000a900473ffffffffffffffffffffffffffffffffffffffff16600960006101000a81548173ffffffffffffffffffffffffffffffffffffffff021916908373ffffffffffffffffffffffffffffffffffffffff1602179055505b808061069590612436565b9150506105d1565b50600960009054906101000a900473ffffffffffffffffffffffffffffffffffffffff1691505090565b606060006001600b546106da9190612373565b67ffffffffffffffff8111156106f3576106f2611ef5565b5b60405190808252806020026020018201604052801561072c57816020015b610719611a02565b8152602001906001900390816107115790505b5090506000600190505b600b548110156109c557600660008281526020019081526020016000206040518060e001604052908160008201805461076e906123d6565b80601f016020809104026020016040519081016040528092919081815260200182805461079a906123d6565b80156107e75780601f106107bc576101008083540402835291602001916107e7565b820191906000526020600020905b8154815290600101906020018083116107ca57829003601f168201915b505050505081526020016001820154815260200160028201805461080a906123d6565b80601f0160208091040260200160405190810160405280929190818152602001828054610836906123d6565b80156108835780601f1061085857610100808354040283529160200191610883565b820191906000526020600020905b81548152906001019060200180831161086657829003601f168201915b50505050508152602001600382015481526020016004820180546108a6906123d6565b80601f01602080910402602001604051908101604052809291908181526020018280546108d2906123d6565b801561091f5780601f106108f45761010080835404028352916020019161091f565b820191906000526020600020905b81548152906001019060200180831161090257829003601f168201915b505050505081526020016005820160009054906101000a900473ffffffffffffffffffffffffffffffffffffffff1673ffffffffffffffffffffffffffffffffffffffff1673ffffffffffffffffffffffffffffffffffffffff168152602001600682015481525050826001836109969190612373565b815181106109a7576109a6612407565b5b602002602001018190525080806109bd90612436565b915050610736565b508091505090565b600860009054906101000a900473ffffffffffffffffffffffffffffffffffffffff1673ffffffffffffffffffffffffffffffffffffffff163373ffffffffffffffffffffffffffffffffffffffff1614610a5d576040517f08c379a0000000000000000000000000000000000000000000000000000000008152600401610a54906124f0565b60405180910390fd5b6001600560006101000a81548160ff0219169083151502179055508142610a849190612634565b60038190555080600054610a989190612634565b6004819055505050565b610aaa611762565b60011515600560009054906101000a900460ff16151514610b00576040517f08c379a0000000000000000000000000000000000000000000000000000000008152600401610af7906126b4565b60405180910390fd5b6012821015610b44576040517f08c379a0000000000000000000000000000000000000000000000000000000008152600401610b3b90612720565b60405180910390fd5b60011515610b513361178a565b151514610b93576040517f08c379a0000000000000000000000000000000000000000000000000000000008152600401610b8a9061278c565b60405180910390fd5b6040518060c00160405280848152602001838152602001600a548152602001828152602001600081526020013373ffffffffffffffffffffffffffffffffffffffff1681525060076000600a5481526020019081526020016000206000820151816000019081610c039190612958565b5060208201518160010155604082015181600201556060820151816003019081610c2d9190612958565b506080820151816004015560a08201518160050160006101000a81548173ffffffffffffffffffffffffffffffffffffffff021916908373ffffffffffffffffffffffffffffffffffffffff160217905550905050600a6000815480929190610c9590612436565b9190505550505050565b610ca761188c565b60011515600260009054906101000a900460ff16151514610cfd576040517f08c379a0000000000000000000000000000000000000000000000000000000008152600401610cf490612a76565b60405180910390fd5b600860009054906101000a900473ffffffffffffffffffffffffffffffffffffffff1673ffffffffffffffffffffffffffffffffffffffff163373ffffffffffffffffffffffffffffffffffffffff1603610d8d576040517f08c379a0000000000000000000000000000000000000000000000000000000008152600401610d8490612ae2565b60405180910390fd5b6012831015610dd1576040517f08c379a0000000000000000000000000000000000000000000000000000000008152600401610dc890612720565b60405180910390fd5b60011515610dde336118b4565b151514610e20576040517f08c379a0000000000000000000000000000000000000000000000000000000008152600401610e179061278c565b60405180910390fd5b6040518060e0016040528086868080601f016020809104026020016040519081016040528093929190818152602001838380828437600081840152601f19601f820116905080830192505050505050508152602001848152602001838152602001600b5481526020018281526020013373ffffffffffffffffffffffffffffffffffffffff168152602001600081525060066000600b5481526020019081526020016000206000820151816000019081610eda9190612958565b50602082015181600101556040820151816002019081610efa9190612958565b50606082015181600301556080820151816004019081610f1a9190612958565b5060a08201518160050160006101000a81548173ffffffffffffffffffffffffffffffffffffffff021916908373ffffffffffffffffffffffffffffffffffffffff16021790555060c08201518160060155905050600b6000815480929190610f8290612436565b91905055506040518060c0016040528086868080601f016020809104026020016040519081016040528093929190818152602001838380828437600081840152601f19601f820116905080830192505050505050508152602001848152602001600a548152602001828152602001600081526020013373ffffffffffffffffffffffffffffffffffffffff1681525060076000600a548152602001908152602001600020600082015181600001908161103b9190612958565b50602082015181600101556040820151816002015560608201518160030190816110659190612958565b506080820151816004015560a08201518160050160006101000a81548173ffffffffffffffffffffffffffffffffffffffff021916908373ffffffffffffffffffffffffffffffffffffffff160217905550905050600a60008154809291906110cd90612436565b91905055505050505050565b60066020528060005260406000206000915090508060000180546110fc906123d6565b80601f0160208091040260200160405190810160405280929190818152602001828054611128906123d6565b80156111755780601f1061114a57610100808354040283529160200191611175565b820191906000526020600020905b81548152906001019060200180831161115857829003601f168201915b505050505090806001015490806002018054611190906123d6565b80601f01602080910402602001604051908101604052809291908181526020018280546111bc906123d6565b80156112095780601f106111de57610100808354040283529160200191611209565b820191906000526020600020905b8154815290600101906020018083116111ec57829003601f168201915b505050505090806003015490806004018054611224906123d6565b80601f0160208091040260200160405190810160405280929190818152602001828054611250906123d6565b801561129d5780601f106112725761010080835404028352916020019161129d565b820191906000526020600020905b81548152906001019060200180831161128057829003601f168201915b5050505050908060050160009054906101000a900473ffffffffffffffffffffffffffffffffffffffff16908060060154905087565b60076020528060005260406000206000915090508060000180546112f6906123d6565b80601f0160208091040260200160405190810160405280929190818152602001828054611322906123d6565b801561136f5780601f106113445761010080835404028352916020019161136f565b820191906000526020600020905b81548152906001019060200180831161135257829003601f168201915b505050505090806001015490806002015490806003018054611390906123d6565b80601f01602080910402602001604051908101604052809291908181526020018280546113bc906123d6565b80156114095780601f106113de57610100808354040283529160200191611409565b820191906000526020600020905b8154815290600101906020018083116113ec57829003601f168201915b5050505050908060040154908060050160009054906101000a900473ffffffffffffffffffffffffffffffffffffffff16905086565b6000600760008481526020019081526020016000206004015414611498576040517f08c379a000000000000000000000000000000000000000000000000000000000815260040161148f90612b4e565b60405180910390fd5b3373ffffffffffffffffffffffffffffffffffffffff166007600084815260200190815260200160002060050160009054906101000a900473ffffffffffffffffffffffffffffffffffffffff1673ffffffffffffffffffffffffffffffffffffffff161461153c576040517f08c379a000000000000000000000000000000000000000000000000000000000815260040161153390612bba565b60405180910390fd5b6003600b541015611582576040517f08c379a000000000000000000000000000000000000000000000000000000000815260040161157990612c4c565b60405180910390fd5b6000600354036115c7576040517f08c379a00000000000000000000000000000000000000000000000000000000081526004016115be90612cb8565b60405180910390fd5b600b54811061160b576040517f08c379a000000000000000000000000000000000000000000000000000000000815260040161160290612d24565b60405180910390fd5b806007600084815260200190815260200160002060040181905550600160066000838152602001908152602001600020600601546116499190612634565b60066000838152602001908152602001600020600601819055505050565b600960009054906101000a900473ffffffffffffffffffffffffffffffffffffffff1681565b600860009054906101000a900473ffffffffffffffffffffffffffffffffffffffff1673ffffffffffffffffffffffffffffffffffffffff163373ffffffffffffffffffffffffffffffffffffffff161461171d576040517f08c379a0000000000000000000000000000000000000000000000000000000008152600401611714906124f0565b60405180910390fd5b6001600260006101000a81548160ff02191690831515021790555081426117449190612634565b600081905550806000546117589190612634565b6001819055505050565b426004541015611788576000600560006101000a81548160ff0219169083151502179055505b565b6000611794611762565b60011515600560009054906101000a900460ff161515146117ea576040517f08c379a00000000000000000000000000000000000000000000000000000000081526004016117e1906126b4565b60405180910390fd5b6000600190505b600a54811015611881578273ffffffffffffffffffffffffffffffffffffffff166007600083815260200190815260200160002060050160009054906101000a900473ffffffffffffffffffffffffffffffffffffffff1673ffffffffffffffffffffffffffffffffffffffff160361186e576000915050611887565b808061187990612436565b9150506117f1565b50600190505b919050565b4260015410156118b2576000600260006101000a81548160ff0219169083151502179055505b565b60006118be61188c565b60011515600260009054906101000a900460ff16151514611914576040517f08c379a000000000000000000000000000000000000000000000000000000000815260040161190b90612a76565b60405180910390fd5b6000600190505b600b548110156119ab578273ffffffffffffffffffffffffffffffffffffffff166006600083815260200190815260200160002060050160009054906101000a900473ffffffffffffffffffffffffffffffffffffffff1673ffffffffffffffffffffffffffffffffffffffff16036119985760009150506119b1565b80806119a390612436565b91505061191b565b50600190505b919050565b6040518060c001604052806060815260200160008152602001600081526020016060815260200160008152602001600073ffffffffffffffffffffffffffffffffffffffff1681525090565b6040518060e001604052806060815260200160008152602001606081526020016000815260200160608152602001600073ffffffffffffffffffffffffffffffffffffffff168152602001600081525090565b600081519050919050565b600082825260208201905092915050565b6000819050602082019050919050565b600081519050919050565b600082825260208201905092915050565b60005b83811015611abb578082015181840152602081019050611aa0565b60008484015250505050565b6000601f19601f8301169050919050565b6000611ae382611a81565b611aed8185611a8c565b9350611afd818560208601611a9d565b611b0681611ac7565b840191505092915050565b6000819050919050565b611b2481611b11565b82525050565b600073ffffffffffffffffffffffffffffffffffffffff82169050919050565b6000611b5582611b2a565b9050919050565b611b6581611b4a565b82525050565b600060c0830160008301518482036000860152611b888282611ad8565b9150506020830151611b9d6020860182611b1b565b506040830151611bb06040860182611b1b565b5060608301518482036060860152611bc88282611ad8565b9150506080830151611bdd6080860182611b1b565b5060a0830151611bf060a0860182611b5c565b508091505092915050565b6000611c078383611b6b565b905092915050565b6000602082019050919050565b6000611c2782611a55565b611c318185611a60565b935083602082028501611c4385611a71565b8060005b85811015611c7f5784840389528151611c608582611bfb565b9450611c6b83611c0f565b925060208a01995050600181019050611c47565b50829750879550505050505092915050565b60006020820190508181036000830152611cab8184611c1c565b905092915050565b611cbc81611b4a565b82525050565b6000602082019050611cd76000830184611cb3565b92915050565b600081519050919050565b600082825260208201905092915050565b6000819050602082019050919050565b600060e0830160008301518482036000860152611d268282611ad8565b9150506020830151611d3b6020860182611b1b565b5060408301518482036040860152611d538282611ad8565b9150506060830151611d686060860182611b1b565b5060808301518482036080860152611d808282611ad8565b91505060a0830151611d9560a0860182611b5c565b5060c0830151611da860c0860182611b1b565b508091505092915050565b6000611dbf8383611d09565b905092915050565b6000602082019050919050565b6000611ddf82611cdd565b611de98185611ce8565b935083602082028501611dfb85611cf9565b8060005b85811015611e375784840389528151611e188582611db3565b9450611e2383611dc7565b925060208a01995050600181019050611dff565b50829750879550505050505092915050565b60006020820190508181036000830152611e638184611dd4565b905092915050565b6000604051905090565b600080fd5b600080fd5b611e8881611b11565b8114611e9357600080fd5b50565b600081359050611ea581611e7f565b92915050565b60008060408385031215611ec257611ec1611e75565b5b6000611ed085828601611e96565b9250506020611ee185828601611e96565b9150509250929050565b600080fd5b600080fd5b7f4e487b7100000000000000000000000000000000000000000000000000000000600052604160045260246000fd5b611f2d82611ac7565b810181811067ffffffffffffffff82111715611f4c57611f4b611ef5565b5b80604052505050565b6000611f5f611e6b565b9050611f6b8282611f24565b919050565b600067ffffffffffffffff821115611f8b57611f8a611ef5565b5b611f9482611ac7565b9050602081019050919050565b82818337600083830152505050565b6000611fc3611fbe84611f70565b611f55565b905082815260208101848484011115611fdf57611fde611ef0565b5b611fea848285611fa1565b509392505050565b600082601f83011261200757612006611eeb565b5b8135612017848260208601611fb0565b91505092915050565b60008060006060848603121561203957612038611e75565b5b600084013567ffffffffffffffff81111561205757612056611e7a565b5b61206386828701611ff2565b935050602061207486828701611e96565b925050604084013567ffffffffffffffff81111561209557612094611e7a565b5b6120a186828701611ff2565b9150509250925092565b600080fd5b600080fd5b60008083601f8401126120cb576120ca611eeb565b5b8235905067ffffffffffffffff8111156120e8576120e76120ab565b5b602083019150836001820283011115612104576121036120b0565b5b9250929050565b60008060008060006080868803121561212757612126611e75565b5b600086013567ffffffffffffffff81111561214557612144611e7a565b5b612151888289016120b5565b9550955050602061216488828901611e96565b935050604086013567ffffffffffffffff81111561218557612184611e7a565b5b61219188828901611ff2565b925050606086013567ffffffffffffffff8111156121b2576121b1611e7a565b5b6121be88828901611ff2565b9150509295509295909350565b6000602082840312156121e1576121e0611e75565b5b60006121ef84828501611e96565b91505092915050565b600082825260208201905092915050565b600061221482611a81565b61221e81856121f8565b935061222e818560208601611a9d565b61223781611ac7565b840191505092915050565b61224b81611b11565b82525050565b600060e082019050818103600083015261226b818a612209565b905061227a6020830189612242565b818103604083015261228c8188612209565b905061229b6060830187612242565b81810360808301526122ad8186612209565b90506122bc60a0830185611cb3565b6122c960c0830184612242565b98975050505050505050565b600060c08201905081810360008301526122ef8189612209565b90506122fe6020830188612242565b61230b6040830187612242565b818103606083015261231d8186612209565b905061232c6080830185612242565b61233960a0830184611cb3565b979650505050505050565b7f4e487b7100000000000000000000000000000000000000000000000000000000600052601160045260246000fd5b600061237e82611b11565b915061238983611b11565b92508282039050818111156123a1576123a0612344565b5b92915050565b7f4e487b7100000000000000000000000000000000000000000000000000000000600052602260045260246000fd5b600060028204905060018216806123ee57607f821691505b602082108103612401576124006123a7565b5b50919050565b7f4e487b7100000000000000000000000000000000000000000000000000000000600052603260045260246000fd5b600061244182611b11565b91507fffffffffffffffffffffffffffffffffffffffffffffffffffffffffffffffff820361247357612472612344565b5b600182019050919050565b7f596f7520617265206e6f742066726f6d20656c656374696f6e20636f6d69737360008201527f696f6e0000000000000000000000000000000000000000000000000000000000602082015250565b60006124da6023836121f8565b91506124e58261247e565b604082019050919050565b60006020820190508181036000830152612509816124cd565b9050919050565b7f43616e64696461746520726567697374726174696f6e2070686173652069732060008201527f6e6f7420636c6f73656400000000000000000000000000000000000000000000602082015250565b600061256c602a836121f8565b915061257782612510565b604082019050919050565b6000602082019050818103600083015261259b8161255f565b9050919050565b7f566f74696e6720697320696e20636f6e64756374696f6e20706861736520697360008201527f206e6f7420636c6f736564000000000000000000000000000000000000000000602082015250565b60006125fe602b836121f8565b9150612609826125a2565b604082019050919050565b6000602082019050818103600083015261262d816125f1565b9050919050565b600061263f82611b11565b915061264a83611b11565b925082820190508082111561266257612661612344565b5b92915050565b7f566f74657220726567697374726174696f6e20697320636c6f73656400000000600082015250565b600061269e601c836121f8565b91506126a982612668565b602082019050919050565b600060208201905081810360008301526126cd81612691565b9050919050565b7f596f75612061726520756e646572206167650000000000000000000000000000600082015250565b600061270a6012836121f8565b9150612715826126d4565b602082019050919050565b60006020820190508181036000830152612739816126fd565b9050919050565b7f416c726561647920726567697374657264000000000000000000000000000000600082015250565b60006127766011836121f8565b915061278182612740565b602082019050919050565b600060208201905081810360008301526127a581612769565b9050919050565b60008190508160005260206000209050919050565b60006020601f8301049050919050565b600082821b905092915050565b60006008830261280e7fffffffffffffffffffffffffffffffffffffffffffffffffffffffffffffffff826127d1565b61281886836127d1565b95508019841693508086168417925050509392505050565b6000819050919050565b600061285561285061284b84611b11565b612830565b611b11565b9050919050565b6000819050919050565b61286f8361283a565b61288361287b8261285c565b8484546127de565b825550505050565b600090565b61289861288b565b6128a3818484612866565b505050565b5b818110156128c7576128bc600082612890565b6001810190506128a9565b5050565b601f82111561290c576128dd816127ac565b6128e6846127c1565b810160208510156128f5578190505b612909612901856127c1565b8301826128a8565b50505b505050565b600082821c905092915050565b600061292f60001984600802612911565b1980831691505092915050565b6000612948838361291e565b9150826002028217905092915050565b61296182611a81565b67ffffffffffffffff81111561297a57612979611ef5565b5b61298482546123d6565b61298f8282856128cb565b600060209050601f8311600181146129c257600084156129b0578287015190505b6129ba858261293c565b865550612a22565b601f1984166129d0866127ac565b60005b828110156129f8578489015182556001820191506020850194506020810190506129d3565b86831015612a155784890151612a11601f89168261291e565b8355505b6001600288020188555050505b505050505050565b7f43616e64696461746520526567697374726174696f6e20697320636c6f736564600082015250565b6000612a606020836121f8565b9150612a6b82612a2a565b602082019050919050565b60006020820190508181036000830152612a8f81612a53565b9050919050565b7f596f75206172652066726f6d20656c656374696f6e20636f6d697373696f6e00600082015250565b6000612acc601f836121f8565b9150612ad782612a96565b602082019050919050565b60006020820190508181036000830152612afb81612abf565b9050919050565b7f596f75206861766520766f746564000000000000000000000000000000000000600082015250565b6000612b38600e836121f8565b9150612b4382612b02565b602082019050919050565b60006020820190508181036000830152612b6781612b2b565b9050919050565b7f596f752063616e7420766f74652066726f6d206f746865727320626568616c66600082015250565b6000612ba46020836121f8565b9150612baf82612b6e565b602082019050919050565b60006020820190508181036000830152612bd381612b97565b9050919050565b7f43616e6469646174657320617265206e6f74207265676973746572656420636f60008201527f6d706c6574656c79000000000000000000000000000000000000000000000000602082015250565b6000612c366028836121f8565b9150612c4182612bda565b604082019050919050565b60006020820190508181036000830152612c6581612c29565b9050919050565b7f566f74696e67206973206e6f7420737461727465640000000000000000000000600082015250565b6000612ca26015836121f8565b9150612cad82612c6c565b602082019050919050565b60006020820190508181036000830152612cd181612c95565b9050919050565b7f43616e64696461746520646f6573206e6f742065786973740000000000000000600082015250565b6000612d0e6018836121f8565b9150612d1982612cd8565b602082019050919050565b60006020820190508181036000830152612d3d81612d01565b905091905056fea26469706673582212203572f7631ea440857b941e847b977a87b6469fa27a0f67e38c951a0a9548c12464736f6c63430008120033",
					"opcodes": "PUSH1 0x80 PUSH1 0x40 MSTORE PUSH1 0x0 PUSH1 0x2 PUSH1 0x0 PUSH2 0x100 EXP DUP2 SLOAD DUP2 PUSH1 0xFF MUL NOT AND SWAP1 DUP4 ISZERO ISZERO MUL OR SWAP1 SSTORE POP PUSH1 0x0 PUSH1 0x5 PUSH1 0x0 PUSH2 0x100 EXP DUP2 SLOAD DUP2 PUSH1 0xFF MUL NOT AND SWAP1 DUP4 ISZERO ISZERO MUL OR SWAP1 SSTORE POP PUSH1 0x1 PUSH1 0xA SSTORE PUSH1 0x1 PUSH1 0xB SSTORE PUSH1 0x0 PUSH1 0xC PUSH1 0x0 PUSH2 0x100 EXP DUP2 SLOAD DUP2 PUSH1 0xFF MUL NOT AND SWAP1 DUP4 ISZERO ISZERO MUL OR SWAP1 SSTORE POP CALLVALUE DUP1 ISZERO PUSH2 0x6B JUMPI PUSH1 0x0 DUP1 REVERT JUMPDEST POP CALLER PUSH1 0x8 PUSH1 0x0 PUSH2 0x100 EXP DUP2 SLOAD DUP2 PUSH20 0xFFFFFFFFFFFFFFFFFFFFFFFFFFFFFFFFFFFFFFFF MUL NOT AND SWAP1 DUP4 PUSH20 0xFFFFFFFFFFFFFFFFFFFFFFFFFFFFFFFFFFFFFFFF AND MUL OR SWAP1 SSTORE POP PUSH2 0x2D7A DUP1 PUSH2 0xBC PUSH1 0x0 CODECOPY PUSH1 0x0 RETURN INVALID PUSH1 0x80 PUSH1 0x40 MSTORE CALLVALUE DUP1 ISZERO PUSH2 0x10 JUMPI PUSH1 0x0 DUP1 REVERT JUMPDEST POP PUSH1 0x4 CALLDATASIZE LT PUSH2 0xA9 JUMPI PUSH1 0x0 CALLDATALOAD PUSH1 0xE0 SHR DUP1 PUSH4 0x69042BEC GT PUSH2 0x71 JUMPI DUP1 PUSH4 0x69042BEC EQ PUSH2 0x140 JUMPI DUP1 PUSH4 0x6D2BC1EB EQ PUSH2 0x15C JUMPI DUP1 PUSH4 0x7DA0E15E EQ PUSH2 0x192 JUMPI DUP1 PUSH4 0xB384ABEF EQ PUSH2 0x1C7 JUMPI DUP1 PUSH4 0xDFBF53AE EQ PUSH2 0x1E3 JUMPI DUP1 PUSH4 0xF83F40DB EQ PUSH2 0x201 JUMPI PUSH2 0xA9 JUMP JUMPDEST DUP1 PUSH4 0x24089918 EQ PUSH2 0xAE JUMPI DUP1 PUSH4 0x33A99E04 EQ PUSH2 0xCC JUMPI DUP1 PUSH4 0x498EA441 EQ PUSH2 0xEA JUMPI DUP1 PUSH4 0x5042746C EQ PUSH2 0x108 JUMPI DUP1 PUSH4 0x5D74B023 EQ PUSH2 0x124 JUMPI JUMPDEST PUSH1 0x0 DUP1 REVERT JUMPDEST PUSH2 0xB6 PUSH2 0x21D JUMP JUMPDEST PUSH1 0x40 MLOAD PUSH2 0xC3 SWAP2 SWAP1 PUSH2 0x1C91 JUMP JUMPDEST PUSH1 0x40 MLOAD DUP1 SWAP2 SUB SWAP1 RETURN JUMPDEST PUSH2 0xD4 PUSH2 0x491 JUMP JUMPDEST PUSH1 0x40 MLOAD PUSH2 0xE1 SWAP2 SWAP1 PUSH2 0x1CC2 JUMP JUMPDEST PUSH1 0x40 MLOAD DUP1 SWAP2 SUB SWAP1 RETURN JUMPDEST PUSH2 0xF2 PUSH2 0x6C7 JUMP JUMPDEST PUSH1 0x40 MLOAD PUSH2 0xFF SWAP2 SWAP1 PUSH2 0x1E49 JUMP JUMPDEST PUSH1 0x40 MLOAD DUP1 SWAP2 SUB SWAP1 RETURN JUMPDEST PUSH2 0x122 PUSH1 0x4 DUP1 CALLDATASIZE SUB DUP2 ADD SWAP1 PUSH2 0x11D SWAP2 SWAP1 PUSH2 0x1EAB JUMP JUMPDEST PUSH2 0x9CD JUMP JUMPDEST STOP JUMPDEST PUSH2 0x13E PUSH1 0x4 DUP1 CALLDATASIZE SUB DUP2 ADD SWAP1 PUSH2 0x139 SWAP2 SWAP1 PUSH2 0x2020 JUMP JUMPDEST PUSH2 0xAA2 JUMP JUMPDEST STOP JUMPDEST PUSH2 0x15A PUSH1 0x4 DUP1 CALLDATASIZE SUB DUP2 ADD SWAP1 PUSH2 0x155 SWAP2 SWAP1 PUSH2 0x210B JUMP JUMPDEST PUSH2 0xC9F JUMP JUMPDEST STOP JUMPDEST PUSH2 0x176 PUSH1 0x4 DUP1 CALLDATASIZE SUB DUP2 ADD SWAP1 PUSH2 0x171 SWAP2 SWAP1 PUSH2 0x21CB JUMP JUMPDEST PUSH2 0x10D9 JUMP JUMPDEST PUSH1 0x40 MLOAD PUSH2 0x189 SWAP8 SWAP7 SWAP6 SWAP5 SWAP4 SWAP3 SWAP2 SWAP1 PUSH2 0x2251 JUMP JUMPDEST PUSH1 0x40 MLOAD DUP1 SWAP2 SUB SWAP1 RETURN JUMPDEST PUSH2 0x1AC PUSH1 0x4 DUP1 CALLDATASIZE SUB DUP2 ADD SWAP1 PUSH2 0x1A7 SWAP2 SWAP1 PUSH2 0x21CB JUMP JUMPDEST PUSH2 0x12D3 JUMP JUMPDEST PUSH1 0x40 MLOAD PUSH2 0x1BE SWAP7 SWAP6 SWAP5 SWAP4 SWAP3 SWAP2 SWAP1 PUSH2 0x22D5 JUMP JUMPDEST PUSH1 0x40 MLOAD DUP1 SWAP2 SUB SWAP1 RETURN JUMPDEST PUSH2 0x1E1 PUSH1 0x4 DUP1 CALLDATASIZE SUB DUP2 ADD SWAP1 PUSH2 0x1DC SWAP2 SWAP1 PUSH2 0x1EAB JUMP JUMPDEST PUSH2 0x143F JUMP JUMPDEST STOP JUMPDEST PUSH2 0x1EB PUSH2 0x1667 JUMP JUMPDEST PUSH1 0x40 MLOAD PUSH2 0x1F8 SWAP2 SWAP1 PUSH2 0x1CC2 JUMP JUMPDEST PUSH1 0x40 MLOAD DUP1 SWAP2 SUB SWAP1 RETURN JUMPDEST PUSH2 0x21B PUSH1 0x4 DUP1 CALLDATASIZE SUB DUP2 ADD SWAP1 PUSH2 0x216 SWAP2 SWAP1 PUSH2 0x1EAB JUMP JUMPDEST PUSH2 0x168D JUMP JUMPDEST STOP JUMPDEST PUSH1 0x60 PUSH1 0x0 PUSH1 0x1 PUSH1 0xA SLOAD PUSH2 0x230 SWAP2 SWAP1 PUSH2 0x2373 JUMP JUMPDEST PUSH8 0xFFFFFFFFFFFFFFFF DUP2 GT ISZERO PUSH2 0x249 JUMPI PUSH2 0x248 PUSH2 0x1EF5 JUMP JUMPDEST JUMPDEST PUSH1 0x40 MLOAD SWAP1 DUP1 DUP3 MSTORE DUP1 PUSH1 0x20 MUL PUSH1 0x20 ADD DUP3 ADD PUSH1 0x40 MSTORE DUP1 ISZERO PUSH2 0x282 JUMPI DUP2 PUSH1 0x20 ADD JUMPDEST PUSH2 0x26F PUSH2 0x19B6 JUMP JUMPDEST DUP2 MSTORE PUSH1 0x20 ADD SWAP1 PUSH1 0x1 SWAP1 SUB SWAP1 DUP2 PUSH2 0x267 JUMPI SWAP1 POP JUMPDEST POP SWAP1 POP PUSH1 0x0 PUSH1 0x1 SWAP1 POP JUMPDEST PUSH1 0xA SLOAD DUP2 LT ISZERO PUSH2 0x489 JUMPI PUSH1 0x7 PUSH1 0x0 DUP3 DUP2 MSTORE PUSH1 0x20 ADD SWAP1 DUP2 MSTORE PUSH1 0x20 ADD PUSH1 0x0 KECCAK256 PUSH1 0x40 MLOAD DUP1 PUSH1 0xC0 ADD PUSH1 0x40 MSTORE SWAP1 DUP2 PUSH1 0x0 DUP3 ADD DUP1 SLOAD PUSH2 0x2C4 SWAP1 PUSH2 0x23D6 JUMP JUMPDEST DUP1 PUSH1 0x1F ADD PUSH1 0x20 DUP1 SWAP2 DIV MUL PUSH1 0x20 ADD PUSH1 0x40 MLOAD SWAP1 DUP2 ADD PUSH1 0x40 MSTORE DUP1 SWAP3 SWAP2 SWAP1 DUP2 DUP2 MSTORE PUSH1 0x20 ADD DUP3 DUP1 SLOAD PUSH2 0x2F0 SWAP1 PUSH2 0x23D6 JUMP JUMPDEST DUP1 ISZERO PUSH2 0x33D JUMPI DUP1 PUSH1 0x1F LT PUSH2 0x312 JUMPI PUSH2 0x100 DUP1 DUP4 SLOAD DIV MUL DUP4 MSTORE SWAP2 PUSH1 0x20 ADD SWAP2 PUSH2 0x33D JUMP JUMPDEST DUP3 ADD SWAP2 SWAP1 PUSH1 0x0 MSTORE PUSH1 0x20 PUSH1 0x0 KECCAK256 SWAP1 JUMPDEST DUP2 SLOAD DUP2 MSTORE SWAP1 PUSH1 0x1 ADD SWAP1 PUSH1 0x20 ADD DUP1 DUP4 GT PUSH2 0x320 JUMPI DUP3 SWAP1 SUB PUSH1 0x1F AND DUP3 ADD SWAP2 JUMPDEST POP POP POP POP POP DUP2 MSTORE PUSH1 0x20 ADD PUSH1 0x1 DUP3 ADD SLOAD DUP2 MSTORE PUSH1 0x20 ADD PUSH1 0x2 DUP3 ADD SLOAD DUP2 MSTORE PUSH1 0x20 ADD PUSH1 0x3 DUP3 ADD DUP1 SLOAD PUSH2 0x36A SWAP1 PUSH2 0x23D6 JUMP JUMPDEST DUP1 PUSH1 0x1F ADD PUSH1 0x20 DUP1 SWAP2 DIV MUL PUSH1 0x20 ADD PUSH1 0x40 MLOAD SWAP1 DUP2 ADD PUSH1 0x40 MSTORE DUP1 SWAP3 SWAP2 SWAP1 DUP2 DUP2 MSTORE PUSH1 0x20 ADD DUP3 DUP1 SLOAD PUSH2 0x396 SWAP1 PUSH2 0x23D6 JUMP JUMPDEST DUP1 ISZERO PUSH2 0x3E3 JUMPI DUP1 PUSH1 0x1F LT PUSH2 0x3B8 JUMPI PUSH2 0x100 DUP1 DUP4 SLOAD DIV MUL DUP4 MSTORE SWAP2 PUSH1 0x20 ADD SWAP2 PUSH2 0x3E3 JUMP JUMPDEST DUP3 ADD SWAP2 SWAP1 PUSH1 0x0 MSTORE PUSH1 0x20 PUSH1 0x0 KECCAK256 SWAP1 JUMPDEST DUP2 SLOAD DUP2 MSTORE SWAP1 PUSH1 0x1 ADD SWAP1 PUSH1 0x20 ADD DUP1 DUP4 GT PUSH2 0x3C6 JUMPI DUP3 SWAP1 SUB PUSH1 0x1F AND DUP3 ADD SWAP2 JUMPDEST POP POP POP POP POP DUP2 MSTORE PUSH1 0x20 ADD PUSH1 0x4 DUP3 ADD SLOAD DUP2 MSTORE PUSH1 0x20 ADD PUSH1 0x5 DUP3 ADD PUSH1 0x0 SWAP1 SLOAD SWAP1 PUSH2 0x100 EXP SWAP1 DIV PUSH20 0xFFFFFFFFFFFFFFFFFFFFFFFFFFFFFFFFFFFFFFFF AND PUSH20 0xFFFFFFFFFFFFFFFFFFFFFFFFFFFFFFFFFFFFFFFF AND PUSH20 0xFFFFFFFFFFFFFFFFFFFFFFFFFFFFFFFFFFFFFFFF AND DUP2 MSTORE POP POP DUP3 PUSH1 0x1 DUP4 PUSH2 0x45A SWAP2 SWAP1 PUSH2 0x2373 JUMP JUMPDEST DUP2 MLOAD DUP2 LT PUSH2 0x46B JUMPI PUSH2 0x46A PUSH2 0x2407 JUMP JUMPDEST JUMPDEST PUSH1 0x20 MUL PUSH1 0x20 ADD ADD DUP2 SWAP1 MSTORE POP DUP1 DUP1 PUSH2 0x481 SWAP1 PUSH2 0x2436 JUMP JUMPDEST SWAP2 POP POP PUSH2 0x28C JUMP JUMPDEST POP DUP1 SWAP2 POP POP SWAP1 JUMP JUMPDEST PUSH1 0x0 PUSH1 0x8 PUSH1 0x0 SWAP1 SLOAD SWAP1 PUSH2 0x100 EXP SWAP1 DIV PUSH20 0xFFFFFFFFFFFFFFFFFFFFFFFFFFFFFFFFFFFFFFFF AND PUSH20 0xFFFFFFFFFFFFFFFFFFFFFFFFFFFFFFFFFFFFFFFF AND CALLER PUSH20 0xFFFFFFFFFFFFFFFFFFFFFFFFFFFFFFFFFFFFFFFF AND EQ PUSH2 0x523 JUMPI PUSH1 0x40 MLOAD PUSH32 0x8C379A000000000000000000000000000000000000000000000000000000000 DUP2 MSTORE PUSH1 0x4 ADD PUSH2 0x51A SWAP1 PUSH2 0x24F0 JUMP JUMPDEST PUSH1 0x40 MLOAD DUP1 SWAP2 SUB SWAP1 REVERT JUMPDEST PUSH1 0x1 SLOAD TIMESTAMP GT DUP1 ISZERO PUSH2 0x537 JUMPI POP PUSH1 0x0 PUSH1 0x1 SLOAD EQ ISZERO JUMPDEST PUSH2 0x576 JUMPI PUSH1 0x40 MLOAD PUSH32 0x8C379A000000000000000000000000000000000000000000000000000000000 DUP2 MSTORE PUSH1 0x4 ADD PUSH2 0x56D SWAP1 PUSH2 0x2582 JUMP JUMPDEST PUSH1 0x40 MLOAD DUP1 SWAP2 SUB SWAP1 REVERT JUMPDEST PUSH1 0x4 SLOAD TIMESTAMP GT DUP1 ISZERO PUSH2 0x58A JUMPI POP PUSH1 0x0 PUSH1 0x4 SLOAD EQ ISZERO JUMPDEST PUSH2 0x5C9 JUMPI PUSH1 0x40 MLOAD PUSH32 0x8C379A000000000000000000000000000000000000000000000000000000000 DUP2 MSTORE PUSH1 0x4 ADD PUSH2 0x5C0 SWAP1 PUSH2 0x2614 JUMP JUMPDEST PUSH1 0x40 MLOAD DUP1 SWAP2 SUB SWAP1 REVERT JUMPDEST PUSH1 0x0 DUP1 PUSH1 0x1 SWAP1 POP JUMPDEST PUSH1 0xB SLOAD DUP2 LT ISZERO PUSH2 0x69D JUMPI DUP2 PUSH1 0x6 PUSH1 0x0 DUP4 DUP2 MSTORE PUSH1 0x20 ADD SWAP1 DUP2 MSTORE PUSH1 0x20 ADD PUSH1 0x0 KECCAK256 PUSH1 0x6 ADD SLOAD GT ISZERO PUSH2 0x68A JUMPI PUSH1 0x6 PUSH1 0x0 DUP3 DUP2 MSTORE PUSH1 0x20 ADD SWAP1 DUP2 MSTORE PUSH1 0x20 ADD PUSH1 0x0 KECCAK256 PUSH1 0x6 ADD SLOAD SWAP2 POP PUSH1 0x6 PUSH1 0x0 DUP3 DUP2 MSTORE PUSH1 0x20 ADD SWAP1 DUP2 MSTORE PUSH1 0x20 ADD PUSH1 0x0 KECCAK256 PUSH1 0x5 ADD PUSH1 0x0 SWAP1 SLOAD SWAP1 PUSH2 0x100 EXP SWAP1 DIV PUSH20 0xFFFFFFFFFFFFFFFFFFFFFFFFFFFFFFFFFFFFFFFF AND PUSH1 0x9 PUSH1 0x0 PUSH2 0x100 EXP DUP2 SLOAD DUP2 PUSH20 0xFFFFFFFFFFFFFFFFFFFFFFFFFFFFFFFFFFFFFFFF MUL NOT AND SWAP1 DUP4 PUSH20 0xFFFFFFFFFFFFFFFFFFFFFFFFFFFFFFFFFFFFFFFF AND MUL OR SWAP1 SSTORE POP JUMPDEST DUP1 DUP1 PUSH2 0x695 SWAP1 PUSH2 0x2436 JUMP JUMPDEST SWAP2 POP POP PUSH2 0x5D1 JUMP JUMPDEST POP PUSH1 0x9 PUSH1 0x0 SWAP1 SLOAD SWAP1 PUSH2 0x100 EXP SWAP1 DIV PUSH20 0xFFFFFFFFFFFFFFFFFFFFFFFFFFFFFFFFFFFFFFFF AND SWAP2 POP POP SWAP1 JUMP JUMPDEST PUSH1 0x60 PUSH1 0x0 PUSH1 0x1 PUSH1 0xB SLOAD PUSH2 0x6DA SWAP2 SWAP1 PUSH2 0x2373 JUMP JUMPDEST PUSH8 0xFFFFFFFFFFFFFFFF DUP2 GT ISZERO PUSH2 0x6F3 JUMPI PUSH2 0x6F2 PUSH2 0x1EF5 JUMP JUMPDEST JUMPDEST PUSH1 0x40 MLOAD SWAP1 DUP1 DUP3 MSTORE DUP1 PUSH1 0x20 MUL PUSH1 0x20 ADD DUP3 ADD PUSH1 0x40 MSTORE DUP1 ISZERO PUSH2 0x72C JUMPI DUP2 PUSH1 0x20 ADD JUMPDEST PUSH2 0x719 PUSH2 0x1A02 JUMP JUMPDEST DUP2 MSTORE PUSH1 0x20 ADD SWAP1 PUSH1 0x1 SWAP1 SUB SWAP1 DUP2 PUSH2 0x711 JUMPI SWAP1 POP JUMPDEST POP SWAP1 POP PUSH1 0x0 PUSH1 0x1 SWAP1 POP JUMPDEST PUSH1 0xB SLOAD DUP2 LT ISZERO PUSH2 0x9C5 JUMPI PUSH1 0x6 PUSH1 0x0 DUP3 DUP2 MSTORE PUSH1 0x20 ADD SWAP1 DUP2 MSTORE PUSH1 0x20 ADD PUSH1 0x0 KECCAK256 PUSH1 0x40 MLOAD DUP1 PUSH1 0xE0 ADD PUSH1 0x40 MSTORE SWAP1 DUP2 PUSH1 0x0 DUP3 ADD DUP1 SLOAD PUSH2 0x76E SWAP1 PUSH2 0x23D6 JUMP JUMPDEST DUP1 PUSH1 0x1F ADD PUSH1 0x20 DUP1 SWAP2 DIV MUL PUSH1 0x20 ADD PUSH1 0x40 MLOAD SWAP1 DUP2 ADD PUSH1 0x40 MSTORE DUP1 SWAP3 SWAP2 SWAP1 DUP2 DUP2 MSTORE PUSH1 0x20 ADD DUP3 DUP1 SLOAD PUSH2 0x79A SWAP1 PUSH2 0x23D6 JUMP JUMPDEST DUP1 ISZERO PUSH2 0x7E7 JUMPI DUP1 PUSH1 0x1F LT PUSH2 0x7BC JUMPI PUSH2 0x100 DUP1 DUP4 SLOAD DIV MUL DUP4 MSTORE SWAP2 PUSH1 0x20 ADD SWAP2 PUSH2 0x7E7 JUMP JUMPDEST DUP3 ADD SWAP2 SWAP1 PUSH1 0x0 MSTORE PUSH1 0x20 PUSH1 0x0 KECCAK256 SWAP1 JUMPDEST DUP2 SLOAD DUP2 MSTORE SWAP1 PUSH1 0x1 ADD SWAP1 PUSH1 0x20 ADD DUP1 DUP4 GT PUSH2 0x7CA JUMPI DUP3 SWAP1 SUB PUSH1 0x1F AND DUP3 ADD SWAP2 JUMPDEST POP POP POP POP POP DUP2 MSTORE PUSH1 0x20 ADD PUSH1 0x1 DUP3 ADD SLOAD DUP2 MSTORE PUSH1 0x20 ADD PUSH1 0x2 DUP3 ADD DUP1 SLOAD PUSH2 0x80A SWAP1 PUSH2 0x23D6 JUMP JUMPDEST DUP1 PUSH1 0x1F ADD PUSH1 0x20 DUP1 SWAP2 DIV MUL PUSH1 0x20 ADD PUSH1 0x40 MLOAD SWAP1 DUP2 ADD PUSH1 0x40 MSTORE DUP1 SWAP3 SWAP2 SWAP1 DUP2 DUP2 MSTORE PUSH1 0x20 ADD DUP3 DUP1 SLOAD PUSH2 0x836 SWAP1 PUSH2 0x23D6 JUMP JUMPDEST DUP1 ISZERO PUSH2 0x883 JUMPI DUP1 PUSH1 0x1F LT PUSH2 0x858 JUMPI PUSH2 0x100 DUP1 DUP4 SLOAD DIV MUL DUP4 MSTORE SWAP2 PUSH1 0x20 ADD SWAP2 PUSH2 0x883 JUMP JUMPDEST DUP3 ADD SWAP2 SWAP1 PUSH1 0x0 MSTORE PUSH1 0x20 PUSH1 0x0 KECCAK256 SWAP1 JUMPDEST DUP2 SLOAD DUP2 MSTORE SWAP1 PUSH1 0x1 ADD SWAP1 PUSH1 0x20 ADD DUP1 DUP4 GT PUSH2 0x866 JUMPI DUP3 SWAP1 SUB PUSH1 0x1F AND DUP3 ADD SWAP2 JUMPDEST POP POP POP POP POP DUP2 MSTORE PUSH1 0x20 ADD PUSH1 0x3 DUP3 ADD SLOAD DUP2 MSTORE PUSH1 0x20 ADD PUSH1 0x4 DUP3 ADD DUP1 SLOAD PUSH2 0x8A6 SWAP1 PUSH2 0x23D6 JUMP JUMPDEST DUP1 PUSH1 0x1F ADD PUSH1 0x20 DUP1 SWAP2 DIV MUL PUSH1 0x20 ADD PUSH1 0x40 MLOAD SWAP1 DUP2 ADD PUSH1 0x40 MSTORE DUP1 SWAP3 SWAP2 SWAP1 DUP2 DUP2 MSTORE PUSH1 0x20 ADD DUP3 DUP1 SLOAD PUSH2 0x8D2 SWAP1 PUSH2 0x23D6 JUMP JUMPDEST DUP1 ISZERO PUSH2 0x91F JUMPI DUP1 PUSH1 0x1F LT PUSH2 0x8F4 JUMPI PUSH2 0x100 DUP1 DUP4 SLOAD DIV MUL DUP4 MSTORE SWAP2 PUSH1 0x20 ADD SWAP2 PUSH2 0x91F JUMP JUMPDEST DUP3 ADD SWAP2 SWAP1 PUSH1 0x0 MSTORE PUSH1 0x20 PUSH1 0x0 KECCAK256 SWAP1 JUMPDEST DUP2 SLOAD DUP2 MSTORE SWAP1 PUSH1 0x1 ADD SWAP1 PUSH1 0x20 ADD DUP1 DUP4 GT PUSH2 0x902 JUMPI DUP3 SWAP1 SUB PUSH1 0x1F AND DUP3 ADD SWAP2 JUMPDEST POP POP POP POP POP DUP2 MSTORE PUSH1 0x20 ADD PUSH1 0x5 DUP3 ADD PUSH1 0x0 SWAP1 SLOAD SWAP1 PUSH2 0x100 EXP SWAP1 DIV PUSH20 0xFFFFFFFFFFFFFFFFFFFFFFFFFFFFFFFFFFFFFFFF AND PUSH20 0xFFFFFFFFFFFFFFFFFFFFFFFFFFFFFFFFFFFFFFFF AND PUSH20 0xFFFFFFFFFFFFFFFFFFFFFFFFFFFFFFFFFFFFFFFF AND DUP2 MSTORE PUSH1 0x20 ADD PUSH1 0x6 DUP3 ADD SLOAD DUP2 MSTORE POP POP DUP3 PUSH1 0x1 DUP4 PUSH2 0x996 SWAP2 SWAP1 PUSH2 0x2373 JUMP JUMPDEST DUP2 MLOAD DUP2 LT PUSH2 0x9A7 JUMPI PUSH2 0x9A6 PUSH2 0x2407 JUMP JUMPDEST JUMPDEST PUSH1 0x20 MUL PUSH1 0x20 ADD ADD DUP2 SWAP1 MSTORE POP DUP1 DUP1 PUSH2 0x9BD SWAP1 PUSH2 0x2436 JUMP JUMPDEST SWAP2 POP POP PUSH2 0x736 JUMP JUMPDEST POP DUP1 SWAP2 POP POP SWAP1 JUMP JUMPDEST PUSH1 0x8 PUSH1 0x0 SWAP1 SLOAD SWAP1 PUSH2 0x100 EXP SWAP1 DIV PUSH20 0xFFFFFFFFFFFFFFFFFFFFFFFFFFFFFFFFFFFFFFFF AND PUSH20 0xFFFFFFFFFFFFFFFFFFFFFFFFFFFFFFFFFFFFFFFF AND CALLER PUSH20 0xFFFFFFFFFFFFFFFFFFFFFFFFFFFFFFFFFFFFFFFF AND EQ PUSH2 0xA5D JUMPI PUSH1 0x40 MLOAD PUSH32 0x8C379A000000000000000000000000000000000000000000000000000000000 DUP2 MSTORE PUSH1 0x4 ADD PUSH2 0xA54 SWAP1 PUSH2 0x24F0 JUMP JUMPDEST PUSH1 0x40 MLOAD DUP1 SWAP2 SUB SWAP1 REVERT JUMPDEST PUSH1 0x1 PUSH1 0x5 PUSH1 0x0 PUSH2 0x100 EXP DUP2 SLOAD DUP2 PUSH1 0xFF MUL NOT AND SWAP1 DUP4 ISZERO ISZERO MUL OR SWAP1 SSTORE POP DUP2 TIMESTAMP PUSH2 0xA84 SWAP2 SWAP1 PUSH2 0x2634 JUMP JUMPDEST PUSH1 0x3 DUP2 SWAP1 SSTORE POP DUP1 PUSH1 0x0 SLOAD PUSH2 0xA98 SWAP2 SWAP1 PUSH2 0x2634 JUMP JUMPDEST PUSH1 0x4 DUP2 SWAP1 SSTORE POP POP POP JUMP JUMPDEST PUSH2 0xAAA PUSH2 0x1762 JUMP JUMPDEST PUSH1 0x1 ISZERO ISZERO PUSH1 0x5 PUSH1 0x0 SWAP1 SLOAD SWAP1 PUSH2 0x100 EXP SWAP1 DIV PUSH1 0xFF AND ISZERO ISZERO EQ PUSH2 0xB00 JUMPI PUSH1 0x40 MLOAD PUSH32 0x8C379A000000000000000000000000000000000000000000000000000000000 DUP2 MSTORE PUSH1 0x4 ADD PUSH2 0xAF7 SWAP1 PUSH2 0x26B4 JUMP JUMPDEST PUSH1 0x40 MLOAD DUP1 SWAP2 SUB SWAP1 REVERT JUMPDEST PUSH1 0x12 DUP3 LT ISZERO PUSH2 0xB44 JUMPI PUSH1 0x40 MLOAD PUSH32 0x8C379A000000000000000000000000000000000000000000000000000000000 DUP2 MSTORE PUSH1 0x4 ADD PUSH2 0xB3B SWAP1 PUSH2 0x2720 JUMP JUMPDEST PUSH1 0x40 MLOAD DUP1 SWAP2 SUB SWAP1 REVERT JUMPDEST PUSH1 0x1 ISZERO ISZERO PUSH2 0xB51 CALLER PUSH2 0x178A JUMP JUMPDEST ISZERO ISZERO EQ PUSH2 0xB93 JUMPI PUSH1 0x40 MLOAD PUSH32 0x8C379A000000000000000000000000000000000000000000000000000000000 DUP2 MSTORE PUSH1 0x4 ADD PUSH2 0xB8A SWAP1 PUSH2 0x278C JUMP JUMPDEST PUSH1 0x40 MLOAD DUP1 SWAP2 SUB SWAP1 REVERT JUMPDEST PUSH1 0x40 MLOAD DUP1 PUSH1 0xC0 ADD PUSH1 0x40 MSTORE DUP1 DUP5 DUP2 MSTORE PUSH1 0x20 ADD DUP4 DUP2 MSTORE PUSH1 0x20 ADD PUSH1 0xA SLOAD DUP2 MSTORE PUSH1 0x20 ADD DUP3 DUP2 MSTORE PUSH1 0x20 ADD PUSH1 0x0 DUP2 MSTORE PUSH1 0x20 ADD CALLER PUSH20 0xFFFFFFFFFFFFFFFFFFFFFFFFFFFFFFFFFFFFFFFF AND DUP2 MSTORE POP PUSH1 0x7 PUSH1 0x0 PUSH1 0xA SLOAD DUP2 MSTORE PUSH1 0x20 ADD SWAP1 DUP2 MSTORE PUSH1 0x20 ADD PUSH1 0x0 KECCAK256 PUSH1 0x0 DUP3 ADD MLOAD DUP2 PUSH1 0x0 ADD SWAP1 DUP2 PUSH2 0xC03 SWAP2 SWAP1 PUSH2 0x2958 JUMP JUMPDEST POP PUSH1 0x20 DUP3 ADD MLOAD DUP2 PUSH1 0x1 ADD SSTORE PUSH1 0x40 DUP3 ADD MLOAD DUP2 PUSH1 0x2 ADD SSTORE PUSH1 0x60 DUP3 ADD MLOAD DUP2 PUSH1 0x3 ADD SWAP1 DUP2 PUSH2 0xC2D SWAP2 SWAP1 PUSH2 0x2958 JUMP JUMPDEST POP PUSH1 0x80 DUP3 ADD MLOAD DUP2 PUSH1 0x4 ADD SSTORE PUSH1 0xA0 DUP3 ADD MLOAD DUP2 PUSH1 0x5 ADD PUSH1 0x0 PUSH2 0x100 EXP DUP2 SLOAD DUP2 PUSH20 0xFFFFFFFFFFFFFFFFFFFFFFFFFFFFFFFFFFFFFFFF MUL NOT AND SWAP1 DUP4 PUSH20 0xFFFFFFFFFFFFFFFFFFFFFFFFFFFFFFFFFFFFFFFF AND MUL OR SWAP1 SSTORE POP SWAP1 POP POP PUSH1 0xA PUSH1 0x0 DUP2 SLOAD DUP1 SWAP3 SWAP2 SWAP1 PUSH2 0xC95 SWAP1 PUSH2 0x2436 JUMP JUMPDEST SWAP2 SWAP1 POP SSTORE POP POP POP POP JUMP JUMPDEST PUSH2 0xCA7 PUSH2 0x188C JUMP JUMPDEST PUSH1 0x1 ISZERO ISZERO PUSH1 0x2 PUSH1 0x0 SWAP1 SLOAD SWAP1 PUSH2 0x100 EXP SWAP1 DIV PUSH1 0xFF AND ISZERO ISZERO EQ PUSH2 0xCFD JUMPI PUSH1 0x40 MLOAD PUSH32 0x8C379A000000000000000000000000000000000000000000000000000000000 DUP2 MSTORE PUSH1 0x4 ADD PUSH2 0xCF4 SWAP1 PUSH2 0x2A76 JUMP JUMPDEST PUSH1 0x40 MLOAD DUP1 SWAP2 SUB SWAP1 REVERT JUMPDEST PUSH1 0x8 PUSH1 0x0 SWAP1 SLOAD SWAP1 PUSH2 0x100 EXP SWAP1 DIV PUSH20 0xFFFFFFFFFFFFFFFFFFFFFFFFFFFFFFFFFFFFFFFF AND PUSH20 0xFFFFFFFFFFFFFFFFFFFFFFFFFFFFFFFFFFFFFFFF AND CALLER PUSH20 0xFFFFFFFFFFFFFFFFFFFFFFFFFFFFFFFFFFFFFFFF AND SUB PUSH2 0xD8D JUMPI PUSH1 0x40 MLOAD PUSH32 0x8C379A000000000000000000000000000000000000000000000000000000000 DUP2 MSTORE PUSH1 0x4 ADD PUSH2 0xD84 SWAP1 PUSH2 0x2AE2 JUMP JUMPDEST PUSH1 0x40 MLOAD DUP1 SWAP2 SUB SWAP1 REVERT JUMPDEST PUSH1 0x12 DUP4 LT ISZERO PUSH2 0xDD1 JUMPI PUSH1 0x40 MLOAD PUSH32 0x8C379A000000000000000000000000000000000000000000000000000000000 DUP2 MSTORE PUSH1 0x4 ADD PUSH2 0xDC8 SWAP1 PUSH2 0x2720 JUMP JUMPDEST PUSH1 0x40 MLOAD DUP1 SWAP2 SUB SWAP1 REVERT JUMPDEST PUSH1 0x1 ISZERO ISZERO PUSH2 0xDDE CALLER PUSH2 0x18B4 JUMP JUMPDEST ISZERO ISZERO EQ PUSH2 0xE20 JUMPI PUSH1 0x40 MLOAD PUSH32 0x8C379A000000000000000000000000000000000000000000000000000000000 DUP2 MSTORE PUSH1 0x4 ADD PUSH2 0xE17 SWAP1 PUSH2 0x278C JUMP JUMPDEST PUSH1 0x40 MLOAD DUP1 SWAP2 SUB SWAP1 REVERT JUMPDEST PUSH1 0x40 MLOAD DUP1 PUSH1 0xE0 ADD PUSH1 0x40 MSTORE DUP1 DUP7 DUP7 DUP1 DUP1 PUSH1 0x1F ADD PUSH1 0x20 DUP1 SWAP2 DIV MUL PUSH1 0x20 ADD PUSH1 0x40 MLOAD SWAP1 DUP2 ADD PUSH1 0x40 MSTORE DUP1 SWAP4 SWAP3 SWAP2 SWAP1 DUP2 DUP2 MSTORE PUSH1 0x20 ADD DUP4 DUP4 DUP1 DUP3 DUP5 CALLDATACOPY PUSH1 0x0 DUP2 DUP5 ADD MSTORE PUSH1 0x1F NOT PUSH1 0x1F DUP3 ADD AND SWAP1 POP DUP1 DUP4 ADD SWAP3 POP POP POP POP POP POP POP DUP2 MSTORE PUSH1 0x20 ADD DUP5 DUP2 MSTORE PUSH1 0x20 ADD DUP4 DUP2 MSTORE PUSH1 0x20 ADD PUSH1 0xB SLOAD DUP2 MSTORE PUSH1 0x20 ADD DUP3 DUP2 MSTORE PUSH1 0x20 ADD CALLER PUSH20 0xFFFFFFFFFFFFFFFFFFFFFFFFFFFFFFFFFFFFFFFF AND DUP2 MSTORE PUSH1 0x20 ADD PUSH1 0x0 DUP2 MSTORE POP PUSH1 0x6 PUSH1 0x0 PUSH1 0xB SLOAD DUP2 MSTORE PUSH1 0x20 ADD SWAP1 DUP2 MSTORE PUSH1 0x20 ADD PUSH1 0x0 KECCAK256 PUSH1 0x0 DUP3 ADD MLOAD DUP2 PUSH1 0x0 ADD SWAP1 DUP2 PUSH2 0xEDA SWAP2 SWAP1 PUSH2 0x2958 JUMP JUMPDEST POP PUSH1 0x20 DUP3 ADD MLOAD DUP2 PUSH1 0x1 ADD SSTORE PUSH1 0x40 DUP3 ADD MLOAD DUP2 PUSH1 0x2 ADD SWAP1 DUP2 PUSH2 0xEFA SWAP2 SWAP1 PUSH2 0x2958 JUMP JUMPDEST POP PUSH1 0x60 DUP3 ADD MLOAD DUP2 PUSH1 0x3 ADD SSTORE PUSH1 0x80 DUP3 ADD MLOAD DUP2 PUSH1 0x4 ADD SWAP1 DUP2 PUSH2 0xF1A SWAP2 SWAP1 PUSH2 0x2958 JUMP JUMPDEST POP PUSH1 0xA0 DUP3 ADD MLOAD DUP2 PUSH1 0x5 ADD PUSH1 0x0 PUSH2 0x100 EXP DUP2 SLOAD DUP2 PUSH20 0xFFFFFFFFFFFFFFFFFFFFFFFFFFFFFFFFFFFFFFFF MUL NOT AND SWAP1 DUP4 PUSH20 0xFFFFFFFFFFFFFFFFFFFFFFFFFFFFFFFFFFFFFFFF AND MUL OR SWAP1 SSTORE POP PUSH1 0xC0 DUP3 ADD MLOAD DUP2 PUSH1 0x6 ADD SSTORE SWAP1 POP POP PUSH1 0xB PUSH1 0x0 DUP2 SLOAD DUP1 SWAP3 SWAP2 SWAP1 PUSH2 0xF82 SWAP1 PUSH2 0x2436 JUMP JUMPDEST SWAP2 SWAP1 POP SSTORE POP PUSH1 0x40 MLOAD DUP1 PUSH1 0xC0 ADD PUSH1 0x40 MSTORE DUP1 DUP7 DUP7 DUP1 DUP1 PUSH1 0x1F ADD PUSH1 0x20 DUP1 SWAP2 DIV MUL PUSH1 0x20 ADD PUSH1 0x40 MLOAD SWAP1 DUP2 ADD PUSH1 0x40 MSTORE DUP1 SWAP4 SWAP3 SWAP2 SWAP1 DUP2 DUP2 MSTORE PUSH1 0x20 ADD DUP4 DUP4 DUP1 DUP3 DUP5 CALLDATACOPY PUSH1 0x0 DUP2 DUP5 ADD MSTORE PUSH1 0x1F NOT PUSH1 0x1F DUP3 ADD AND SWAP1 POP DUP1 DUP4 ADD SWAP3 POP POP POP POP POP POP POP DUP2 MSTORE PUSH1 0x20 ADD DUP5 DUP2 MSTORE PUSH1 0x20 ADD PUSH1 0xA SLOAD DUP2 MSTORE PUSH1 0x20 ADD DUP3 DUP2 MSTORE PUSH1 0x20 ADD PUSH1 0x0 DUP2 MSTORE PUSH1 0x20 ADD CALLER PUSH20 0xFFFFFFFFFFFFFFFFFFFFFFFFFFFFFFFFFFFFFFFF AND DUP2 MSTORE POP PUSH1 0x7 PUSH1 0x0 PUSH1 0xA SLOAD DUP2 MSTORE PUSH1 0x20 ADD SWAP1 DUP2 MSTORE PUSH1 0x20 ADD PUSH1 0x0 KECCAK256 PUSH1 0x0 DUP3 ADD MLOAD DUP2 PUSH1 0x0 ADD SWAP1 DUP2 PUSH2 0x103B SWAP2 SWAP1 PUSH2 0x2958 JUMP JUMPDEST POP PUSH1 0x20 DUP3 ADD MLOAD DUP2 PUSH1 0x1 ADD SSTORE PUSH1 0x40 DUP3 ADD MLOAD DUP2 PUSH1 0x2 ADD SSTORE PUSH1 0x60 DUP3 ADD MLOAD DUP2 PUSH1 0x3 ADD SWAP1 DUP2 PUSH2 0x1065 SWAP2 SWAP1 PUSH2 0x2958 JUMP JUMPDEST POP PUSH1 0x80 DUP3 ADD MLOAD DUP2 PUSH1 0x4 ADD SSTORE PUSH1 0xA0 DUP3 ADD MLOAD DUP2 PUSH1 0x5 ADD PUSH1 0x0 PUSH2 0x100 EXP DUP2 SLOAD DUP2 PUSH20 0xFFFFFFFFFFFFFFFFFFFFFFFFFFFFFFFFFFFFFFFF MUL NOT AND SWAP1 DUP4 PUSH20 0xFFFFFFFFFFFFFFFFFFFFFFFFFFFFFFFFFFFFFFFF AND MUL OR SWAP1 SSTORE POP SWAP1 POP POP PUSH1 0xA PUSH1 0x0 DUP2 SLOAD DUP1 SWAP3 SWAP2 SWAP1 PUSH2 0x10CD SWAP1 PUSH2 0x2436 JUMP JUMPDEST SWAP2 SWAP1 POP SSTORE POP POP POP POP POP POP JUMP JUMPDEST PUSH1 0x6 PUSH1 0x20 MSTORE DUP1 PUSH1 0x0 MSTORE PUSH1 0x40 PUSH1 0x0 KECCAK256 PUSH1 0x0 SWAP2 POP SWAP1 POP DUP1 PUSH1 0x0 ADD DUP1 SLOAD PUSH2 0x10FC SWAP1 PUSH2 0x23D6 JUMP JUMPDEST DUP1 PUSH1 0x1F ADD PUSH1 0x20 DUP1 SWAP2 DIV MUL PUSH1 0x20 ADD PUSH1 0x40 MLOAD SWAP1 DUP2 ADD PUSH1 0x40 MSTORE DUP1 SWAP3 SWAP2 SWAP1 DUP2 DUP2 MSTORE PUSH1 0x20 ADD DUP3 DUP1 SLOAD PUSH2 0x1128 SWAP1 PUSH2 0x23D6 JUMP JUMPDEST DUP1 ISZERO PUSH2 0x1175 JUMPI DUP1 PUSH1 0x1F LT PUSH2 0x114A JUMPI PUSH2 0x100 DUP1 DUP4 SLOAD DIV MUL DUP4 MSTORE SWAP2 PUSH1 0x20 ADD SWAP2 PUSH2 0x1175 JUMP JUMPDEST DUP3 ADD SWAP2 SWAP1 PUSH1 0x0 MSTORE PUSH1 0x20 PUSH1 0x0 KECCAK256 SWAP1 JUMPDEST DUP2 SLOAD DUP2 MSTORE SWAP1 PUSH1 0x1 ADD SWAP1 PUSH1 0x20 ADD DUP1 DUP4 GT PUSH2 0x1158 JUMPI DUP3 SWAP1 SUB PUSH1 0x1F AND DUP3 ADD SWAP2 JUMPDEST POP POP POP POP POP SWAP1 DUP1 PUSH1 0x1 ADD SLOAD SWAP1 DUP1 PUSH1 0x2 ADD DUP1 SLOAD PUSH2 0x1190 SWAP1 PUSH2 0x23D6 JUMP JUMPDEST DUP1 PUSH1 0x1F ADD PUSH1 0x20 DUP1 SWAP2 DIV MUL PUSH1 0x20 ADD PUSH1 0x40 MLOAD SWAP1 DUP2 ADD PUSH1 0x40 MSTORE DUP1 SWAP3 SWAP2 SWAP1 DUP2 DUP2 MSTORE PUSH1 0x20 ADD DUP3 DUP1 SLOAD PUSH2 0x11BC SWAP1 PUSH2 0x23D6 JUMP JUMPDEST DUP1 ISZERO PUSH2 0x1209 JUMPI DUP1 PUSH1 0x1F LT PUSH2 0x11DE JUMPI PUSH2 0x100 DUP1 DUP4 SLOAD DIV MUL DUP4 MSTORE SWAP2 PUSH1 0x20 ADD SWAP2 PUSH2 0x1209 JUMP JUMPDEST DUP3 ADD SWAP2 SWAP1 PUSH1 0x0 MSTORE PUSH1 0x20 PUSH1 0x0 KECCAK256 SWAP1 JUMPDEST DUP2 SLOAD DUP2 MSTORE SWAP1 PUSH1 0x1 ADD SWAP1 PUSH1 0x20 ADD DUP1 DUP4 GT PUSH2 0x11EC JUMPI DUP3 SWAP1 SUB PUSH1 0x1F AND DUP3 ADD SWAP2 JUMPDEST POP POP POP POP POP SWAP1 DUP1 PUSH1 0x3 ADD SLOAD SWAP1 DUP1 PUSH1 0x4 ADD DUP1 SLOAD PUSH2 0x1224 SWAP1 PUSH2 0x23D6 JUMP JUMPDEST DUP1 PUSH1 0x1F ADD PUSH1 0x20 DUP1 SWAP2 DIV MUL PUSH1 0x20 ADD PUSH1 0x40 MLOAD SWAP1 DUP2 ADD PUSH1 0x40 MSTORE DUP1 SWAP3 SWAP2 SWAP1 DUP2 DUP2 MSTORE PUSH1 0x20 ADD DUP3 DUP1 SLOAD PUSH2 0x1250 SWAP1 PUSH2 0x23D6 JUMP JUMPDEST DUP1 ISZERO PUSH2 0x129D JUMPI DUP1 PUSH1 0x1F LT PUSH2 0x1272 JUMPI PUSH2 0x100 DUP1 DUP4 SLOAD DIV MUL DUP4 MSTORE SWAP2 PUSH1 0x20 ADD SWAP2 PUSH2 0x129D JUMP JUMPDEST DUP3 ADD SWAP2 SWAP1 PUSH1 0x0 MSTORE PUSH1 0x20 PUSH1 0x0 KECCAK256 SWAP1 JUMPDEST DUP2 SLOAD DUP2 MSTORE SWAP1 PUSH1 0x1 ADD SWAP1 PUSH1 0x20 ADD DUP1 DUP4 GT PUSH2 0x1280 JUMPI DUP3 SWAP1 SUB PUSH1 0x1F AND DUP3 ADD SWAP2 JUMPDEST POP POP POP POP POP SWAP1 DUP1 PUSH1 0x5 ADD PUSH1 0x0 SWAP1 SLOAD SWAP1 PUSH2 0x100 EXP SWAP1 DIV PUSH20 0xFFFFFFFFFFFFFFFFFFFFFFFFFFFFFFFFFFFFFFFF AND SWAP1 DUP1 PUSH1 0x6 ADD SLOAD SWAP1 POP DUP8 JUMP JUMPDEST PUSH1 0x7 PUSH1 0x20 MSTORE DUP1 PUSH1 0x0 MSTORE PUSH1 0x40 PUSH1 0x0 KECCAK256 PUSH1 0x0 SWAP2 POP SWAP1 POP DUP1 PUSH1 0x0 ADD DUP1 SLOAD PUSH2 0x12F6 SWAP1 PUSH2 0x23D6 JUMP JUMPDEST DUP1 PUSH1 0x1F ADD PUSH1 0x20 DUP1 SWAP2 DIV MUL PUSH1 0x20 ADD PUSH1 0x40 MLOAD SWAP1 DUP2 ADD PUSH1 0x40 MSTORE DUP1 SWAP3 SWAP2 SWAP1 DUP2 DUP2 MSTORE PUSH1 0x20 ADD DUP3 DUP1 SLOAD PUSH2 0x1322 SWAP1 PUSH2 0x23D6 JUMP JUMPDEST DUP1 ISZERO PUSH2 0x136F JUMPI DUP1 PUSH1 0x1F LT PUSH2 0x1344 JUMPI PUSH2 0x100 DUP1 DUP4 SLOAD DIV MUL DUP4 MSTORE SWAP2 PUSH1 0x20 ADD SWAP2 PUSH2 0x136F JUMP JUMPDEST DUP3 ADD SWAP2 SWAP1 PUSH1 0x0 MSTORE PUSH1 0x20 PUSH1 0x0 KECCAK256 SWAP1 JUMPDEST DUP2 SLOAD DUP2 MSTORE SWAP1 PUSH1 0x1 ADD SWAP1 PUSH1 0x20 ADD DUP1 DUP4 GT PUSH2 0x1352 JUMPI DUP3 SWAP1 SUB PUSH1 0x1F AND DUP3 ADD SWAP2 JUMPDEST POP POP POP POP POP SWAP1 DUP1 PUSH1 0x1 ADD SLOAD SWAP1 DUP1 PUSH1 0x2 ADD SLOAD SWAP1 DUP1 PUSH1 0x3 ADD DUP1 SLOAD PUSH2 0x1390 SWAP1 PUSH2 0x23D6 JUMP JUMPDEST DUP1 PUSH1 0x1F ADD PUSH1 0x20 DUP1 SWAP2 DIV MUL PUSH1 0x20 ADD PUSH1 0x40 MLOAD SWAP1 DUP2 ADD PUSH1 0x40 MSTORE DUP1 SWAP3 SWAP2 SWAP1 DUP2 DUP2 MSTORE PUSH1 0x20 ADD DUP3 DUP1 SLOAD PUSH2 0x13BC SWAP1 PUSH2 0x23D6 JUMP JUMPDEST DUP1 ISZERO PUSH2 0x1409 JUMPI DUP1 PUSH1 0x1F LT PUSH2 0x13DE JUMPI PUSH2 0x100 DUP1 DUP4 SLOAD DIV MUL DUP4 MSTORE SWAP2 PUSH1 0x20 ADD SWAP2 PUSH2 0x1409 JUMP JUMPDEST DUP3 ADD SWAP2 SWAP1 PUSH1 0x0 MSTORE PUSH1 0x20 PUSH1 0x0 KECCAK256 SWAP1 JUMPDEST DUP2 SLOAD DUP2 MSTORE SWAP1 PUSH1 0x1 ADD SWAP1 PUSH1 0x20 ADD DUP1 DUP4 GT PUSH2 0x13EC JUMPI DUP3 SWAP1 SUB PUSH1 0x1F AND DUP3 ADD SWAP2 JUMPDEST POP POP POP POP POP SWAP1 DUP1 PUSH1 0x4 ADD SLOAD SWAP1 DUP1 PUSH1 0x5 ADD PUSH1 0x0 SWAP1 SLOAD SWAP1 PUSH2 0x100 EXP SWAP1 DIV PUSH20 0xFFFFFFFFFFFFFFFFFFFFFFFFFFFFFFFFFFFFFFFF AND SWAP1 POP DUP7 JUMP JUMPDEST PUSH1 0x0 PUSH1 0x7 PUSH1 0x0 DUP5 DUP2 MSTORE PUSH1 0x20 ADD SWAP1 DUP2 MSTORE PUSH1 0x20 ADD PUSH1 0x0 KECCAK256 PUSH1 0x4 ADD SLOAD EQ PUSH2 0x1498 JUMPI PUSH1 0x40 MLOAD PUSH32 0x8C379A000000000000000000000000000000000000000000000000000000000 DUP2 MSTORE PUSH1 0x4 ADD PUSH2 0x148F SWAP1 PUSH2 0x2B4E JUMP JUMPDEST PUSH1 0x40 MLOAD DUP1 SWAP2 SUB SWAP1 REVERT JUMPDEST CALLER PUSH20 0xFFFFFFFFFFFFFFFFFFFFFFFFFFFFFFFFFFFFFFFF AND PUSH1 0x7 PUSH1 0x0 DUP5 DUP2 MSTORE PUSH1 0x20 ADD SWAP1 DUP2 MSTORE PUSH1 0x20 ADD PUSH1 0x0 KECCAK256 PUSH1 0x5 ADD PUSH1 0x0 SWAP1 SLOAD SWAP1 PUSH2 0x100 EXP SWAP1 DIV PUSH20 0xFFFFFFFFFFFFFFFFFFFFFFFFFFFFFFFFFFFFFFFF AND PUSH20 0xFFFFFFFFFFFFFFFFFFFFFFFFFFFFFFFFFFFFFFFF AND EQ PUSH2 0x153C JUMPI PUSH1 0x40 MLOAD PUSH32 0x8C379A000000000000000000000000000000000000000000000000000000000 DUP2 MSTORE PUSH1 0x4 ADD PUSH2 0x1533 SWAP1 PUSH2 0x2BBA JUMP JUMPDEST PUSH1 0x40 MLOAD DUP1 SWAP2 SUB SWAP1 REVERT JUMPDEST PUSH1 0x3 PUSH1 0xB SLOAD LT ISZERO PUSH2 0x1582 JUMPI PUSH1 0x40 MLOAD PUSH32 0x8C379A000000000000000000000000000000000000000000000000000000000 DUP2 MSTORE PUSH1 0x4 ADD PUSH2 0x1579 SWAP1 PUSH2 0x2C4C JUMP JUMPDEST PUSH1 0x40 MLOAD DUP1 SWAP2 SUB SWAP1 REVERT JUMPDEST PUSH1 0x0 PUSH1 0x3 SLOAD SUB PUSH2 0x15C7 JUMPI PUSH1 0x40 MLOAD PUSH32 0x8C379A000000000000000000000000000000000000000000000000000000000 DUP2 MSTORE PUSH1 0x4 ADD PUSH2 0x15BE SWAP1 PUSH2 0x2CB8 JUMP JUMPDEST PUSH1 0x40 MLOAD DUP1 SWAP2 SUB SWAP1 REVERT JUMPDEST PUSH1 0xB SLOAD DUP2 LT PUSH2 0x160B JUMPI PUSH1 0x40 MLOAD PUSH32 0x8C379A000000000000000000000000000000000000000000000000000000000 DUP2 MSTORE PUSH1 0x4 ADD PUSH2 0x1602 SWAP1 PUSH2 0x2D24 JUMP JUMPDEST PUSH1 0x40 MLOAD DUP1 SWAP2 SUB SWAP1 REVERT JUMPDEST DUP1 PUSH1 0x7 PUSH1 0x0 DUP5 DUP2 MSTORE PUSH1 0x20 ADD SWAP1 DUP2 MSTORE PUSH1 0x20 ADD PUSH1 0x0 KECCAK256 PUSH1 0x4 ADD DUP2 SWAP1 SSTORE POP PUSH1 0x1 PUSH1 0x6 PUSH1 0x0 DUP4 DUP2 MSTORE PUSH1 0x20 ADD SWAP1 DUP2 MSTORE PUSH1 0x20 ADD PUSH1 0x0 KECCAK256 PUSH1 0x6 ADD SLOAD PUSH2 0x1649 SWAP2 SWAP1 PUSH2 0x2634 JUMP JUMPDEST PUSH1 0x6 PUSH1 0x0 DUP4 DUP2 MSTORE PUSH1 0x20 ADD SWAP1 DUP2 MSTORE PUSH1 0x20 ADD PUSH1 0x0 KECCAK256 PUSH1 0x6 ADD DUP2 SWAP1 SSTORE POP POP POP JUMP JUMPDEST PUSH1 0x9 PUSH1 0x0 SWAP1 SLOAD SWAP1 PUSH2 0x100 EXP SWAP1 DIV PUSH20 0xFFFFFFFFFFFFFFFFFFFFFFFFFFFFFFFFFFFFFFFF AND DUP2 JUMP JUMPDEST PUSH1 0x8 PUSH1 0x0 SWAP1 SLOAD SWAP1 PUSH2 0x100 EXP SWAP1 DIV PUSH20 0xFFFFFFFFFFFFFFFFFFFFFFFFFFFFFFFFFFFFFFFF AND PUSH20 0xFFFFFFFFFFFFFFFFFFFFFFFFFFFFFFFFFFFFFFFF AND CALLER PUSH20 0xFFFFFFFFFFFFFFFFFFFFFFFFFFFFFFFFFFFFFFFF AND EQ PUSH2 0x171D JUMPI PUSH1 0x40 MLOAD PUSH32 0x8C379A000000000000000000000000000000000000000000000000000000000 DUP2 MSTORE PUSH1 0x4 ADD PUSH2 0x1714 SWAP1 PUSH2 0x24F0 JUMP JUMPDEST PUSH1 0x40 MLOAD DUP1 SWAP2 SUB SWAP1 REVERT JUMPDEST PUSH1 0x1 PUSH1 0x2 PUSH1 0x0 PUSH2 0x100 EXP DUP2 SLOAD DUP2 PUSH1 0xFF MUL NOT AND SWAP1 DUP4 ISZERO ISZERO MUL OR SWAP1 SSTORE POP DUP2 TIMESTAMP PUSH2 0x1744 SWAP2 SWAP1 PUSH2 0x2634 JUMP JUMPDEST PUSH1 0x0 DUP2 SWAP1 SSTORE POP DUP1 PUSH1 0x0 SLOAD PUSH2 0x1758 SWAP2 SWAP1 PUSH2 0x2634 JUMP JUMPDEST PUSH1 0x1 DUP2 SWAP1 SSTORE POP POP POP JUMP JUMPDEST TIMESTAMP PUSH1 0x4 SLOAD LT ISZERO PUSH2 0x1788 JUMPI PUSH1 0x0 PUSH1 0x5 PUSH1 0x0 PUSH2 0x100 EXP DUP2 SLOAD DUP2 PUSH1 0xFF MUL NOT AND SWAP1 DUP4 ISZERO ISZERO MUL OR SWAP1 SSTORE POP JUMPDEST JUMP JUMPDEST PUSH1 0x0 PUSH2 0x1794 PUSH2 0x1762 JUMP JUMPDEST PUSH1 0x1 ISZERO ISZERO PUSH1 0x5 PUSH1 0x0 SWAP1 SLOAD SWAP1 PUSH2 0x100 EXP SWAP1 DIV PUSH1 0xFF AND ISZERO ISZERO EQ PUSH2 0x17EA JUMPI PUSH1 0x40 MLOAD PUSH32 0x8C379A000000000000000000000000000000000000000000000000000000000 DUP2 MSTORE PUSH1 0x4 ADD PUSH2 0x17E1 SWAP1 PUSH2 0x26B4 JUMP JUMPDEST PUSH1 0x40 MLOAD DUP1 SWAP2 SUB SWAP1 REVERT JUMPDEST PUSH1 0x0 PUSH1 0x1 SWAP1 POP JUMPDEST PUSH1 0xA SLOAD DUP2 LT ISZERO PUSH2 0x1881 JUMPI DUP3 PUSH20 0xFFFFFFFFFFFFFFFFFFFFFFFFFFFFFFFFFFFFFFFF AND PUSH1 0x7 PUSH1 0x0 DUP4 DUP2 MSTORE PUSH1 0x20 ADD SWAP1 DUP2 MSTORE PUSH1 0x20 ADD PUSH1 0x0 KECCAK256 PUSH1 0x5 ADD PUSH1 0x0 SWAP1 SLOAD SWAP1 PUSH2 0x100 EXP SWAP1 DIV PUSH20 0xFFFFFFFFFFFFFFFFFFFFFFFFFFFFFFFFFFFFFFFF AND PUSH20 0xFFFFFFFFFFFFFFFFFFFFFFFFFFFFFFFFFFFFFFFF AND SUB PUSH2 0x186E JUMPI PUSH1 0x0 SWAP2 POP POP PUSH2 0x1887 JUMP JUMPDEST DUP1 DUP1 PUSH2 0x1879 SWAP1 PUSH2 0x2436 JUMP JUMPDEST SWAP2 POP POP PUSH2 0x17F1 JUMP JUMPDEST POP PUSH1 0x1 SWAP1 POP JUMPDEST SWAP2 SWAP1 POP JUMP JUMPDEST TIMESTAMP PUSH1 0x1 SLOAD LT ISZERO PUSH2 0x18B2 JUMPI PUSH1 0x0 PUSH1 0x2 PUSH1 0x0 PUSH2 0x100 EXP DUP2 SLOAD DUP2 PUSH1 0xFF MUL NOT AND SWAP1 DUP4 ISZERO ISZERO MUL OR SWAP1 SSTORE POP JUMPDEST JUMP JUMPDEST PUSH1 0x0 PUSH2 0x18BE PUSH2 0x188C JUMP JUMPDEST PUSH1 0x1 ISZERO ISZERO PUSH1 0x2 PUSH1 0x0 SWAP1 SLOAD SWAP1 PUSH2 0x100 EXP SWAP1 DIV PUSH1 0xFF AND ISZERO ISZERO EQ PUSH2 0x1914 JUMPI PUSH1 0x40 MLOAD PUSH32 0x8C379A000000000000000000000000000000000000000000000000000000000 DUP2 MSTORE PUSH1 0x4 ADD PUSH2 0x190B SWAP1 PUSH2 0x2A76 JUMP JUMPDEST PUSH1 0x40 MLOAD DUP1 SWAP2 SUB SWAP1 REVERT JUMPDEST PUSH1 0x0 PUSH1 0x1 SWAP1 POP JUMPDEST PUSH1 0xB SLOAD DUP2 LT ISZERO PUSH2 0x19AB JUMPI DUP3 PUSH20 0xFFFFFFFFFFFFFFFFFFFFFFFFFFFFFFFFFFFFFFFF AND PUSH1 0x6 PUSH1 0x0 DUP4 DUP2 MSTORE PUSH1 0x20 ADD SWAP1 DUP2 MSTORE PUSH1 0x20 ADD PUSH1 0x0 KECCAK256 PUSH1 0x5 ADD PUSH1 0x0 SWAP1 SLOAD SWAP1 PUSH2 0x100 EXP SWAP1 DIV PUSH20 0xFFFFFFFFFFFFFFFFFFFFFFFFFFFFFFFFFFFFFFFF AND PUSH20 0xFFFFFFFFFFFFFFFFFFFFFFFFFFFFFFFFFFFFFFFF AND SUB PUSH2 0x1998 JUMPI PUSH1 0x0 SWAP2 POP POP PUSH2 0x19B1 JUMP JUMPDEST DUP1 DUP1 PUSH2 0x19A3 SWAP1 PUSH2 0x2436 JUMP JUMPDEST SWAP2 POP POP PUSH2 0x191B JUMP JUMPDEST POP PUSH1 0x1 SWAP1 POP JUMPDEST SWAP2 SWAP1 POP JUMP JUMPDEST PUSH1 0x40 MLOAD DUP1 PUSH1 0xC0 ADD PUSH1 0x40 MSTORE DUP1 PUSH1 0x60 DUP2 MSTORE PUSH1 0x20 ADD PUSH1 0x0 DUP2 MSTORE PUSH1 0x20 ADD PUSH1 0x0 DUP2 MSTORE PUSH1 0x20 ADD PUSH1 0x60 DUP2 MSTORE PUSH1 0x20 ADD PUSH1 0x0 DUP2 MSTORE PUSH1 0x20 ADD PUSH1 0x0 PUSH20 0xFFFFFFFFFFFFFFFFFFFFFFFFFFFFFFFFFFFFFFFF AND DUP2 MSTORE POP SWAP1 JUMP JUMPDEST PUSH1 0x40 MLOAD DUP1 PUSH1 0xE0 ADD PUSH1 0x40 MSTORE DUP1 PUSH1 0x60 DUP2 MSTORE PUSH1 0x20 ADD PUSH1 0x0 DUP2 MSTORE PUSH1 0x20 ADD PUSH1 0x60 DUP2 MSTORE PUSH1 0x20 ADD PUSH1 0x0 DUP2 MSTORE PUSH1 0x20 ADD PUSH1 0x60 DUP2 MSTORE PUSH1 0x20 ADD PUSH1 0x0 PUSH20 0xFFFFFFFFFFFFFFFFFFFFFFFFFFFFFFFFFFFFFFFF AND DUP2 MSTORE PUSH1 0x20 ADD PUSH1 0x0 DUP2 MSTORE POP SWAP1 JUMP JUMPDEST PUSH1 0x0 DUP2 MLOAD SWAP1 POP SWAP2 SWAP1 POP JUMP JUMPDEST PUSH1 0x0 DUP3 DUP3 MSTORE PUSH1 0x20 DUP3 ADD SWAP1 POP SWAP3 SWAP2 POP POP JUMP JUMPDEST PUSH1 0x0 DUP2 SWAP1 POP PUSH1 0x20 DUP3 ADD SWAP1 POP SWAP2 SWAP1 POP JUMP JUMPDEST PUSH1 0x0 DUP2 MLOAD SWAP1 POP SWAP2 SWAP1 POP JUMP JUMPDEST PUSH1 0x0 DUP3 DUP3 MSTORE PUSH1 0x20 DUP3 ADD SWAP1 POP SWAP3 SWAP2 POP POP JUMP JUMPDEST PUSH1 0x0 JUMPDEST DUP4 DUP2 LT ISZERO PUSH2 0x1ABB JUMPI DUP1 DUP3 ADD MLOAD DUP2 DUP5 ADD MSTORE PUSH1 0x20 DUP2 ADD SWAP1 POP PUSH2 0x1AA0 JUMP JUMPDEST PUSH1 0x0 DUP5 DUP5 ADD MSTORE POP POP POP POP JUMP JUMPDEST PUSH1 0x0 PUSH1 0x1F NOT PUSH1 0x1F DUP4 ADD AND SWAP1 POP SWAP2 SWAP1 POP JUMP JUMPDEST PUSH1 0x0 PUSH2 0x1AE3 DUP3 PUSH2 0x1A81 JUMP JUMPDEST PUSH2 0x1AED DUP2 DUP6 PUSH2 0x1A8C JUMP JUMPDEST SWAP4 POP PUSH2 0x1AFD DUP2 DUP6 PUSH1 0x20 DUP7 ADD PUSH2 0x1A9D JUMP JUMPDEST PUSH2 0x1B06 DUP2 PUSH2 0x1AC7 JUMP JUMPDEST DUP5 ADD SWAP2 POP POP SWAP3 SWAP2 POP POP JUMP JUMPDEST PUSH1 0x0 DUP2 SWAP1 POP SWAP2 SWAP1 POP JUMP JUMPDEST PUSH2 0x1B24 DUP2 PUSH2 0x1B11 JUMP JUMPDEST DUP3 MSTORE POP POP JUMP JUMPDEST PUSH1 0x0 PUSH20 0xFFFFFFFFFFFFFFFFFFFFFFFFFFFFFFFFFFFFFFFF DUP3 AND SWAP1 POP SWAP2 SWAP1 POP JUMP JUMPDEST PUSH1 0x0 PUSH2 0x1B55 DUP3 PUSH2 0x1B2A JUMP JUMPDEST SWAP1 POP SWAP2 SWAP1 POP JUMP JUMPDEST PUSH2 0x1B65 DUP2 PUSH2 0x1B4A JUMP JUMPDEST DUP3 MSTORE POP POP JUMP JUMPDEST PUSH1 0x0 PUSH1 0xC0 DUP4 ADD PUSH1 0x0 DUP4 ADD MLOAD DUP5 DUP3 SUB PUSH1 0x0 DUP7 ADD MSTORE PUSH2 0x1B88 DUP3 DUP3 PUSH2 0x1AD8 JUMP JUMPDEST SWAP2 POP POP PUSH1 0x20 DUP4 ADD MLOAD PUSH2 0x1B9D PUSH1 0x20 DUP7 ADD DUP3 PUSH2 0x1B1B JUMP JUMPDEST POP PUSH1 0x40 DUP4 ADD MLOAD PUSH2 0x1BB0 PUSH1 0x40 DUP7 ADD DUP3 PUSH2 0x1B1B JUMP JUMPDEST POP PUSH1 0x60 DUP4 ADD MLOAD DUP5 DUP3 SUB PUSH1 0x60 DUP7 ADD MSTORE PUSH2 0x1BC8 DUP3 DUP3 PUSH2 0x1AD8 JUMP JUMPDEST SWAP2 POP POP PUSH1 0x80 DUP4 ADD MLOAD PUSH2 0x1BDD PUSH1 0x80 DUP7 ADD DUP3 PUSH2 0x1B1B JUMP JUMPDEST POP PUSH1 0xA0 DUP4 ADD MLOAD PUSH2 0x1BF0 PUSH1 0xA0 DUP7 ADD DUP3 PUSH2 0x1B5C JUMP JUMPDEST POP DUP1 SWAP2 POP POP SWAP3 SWAP2 POP POP JUMP JUMPDEST PUSH1 0x0 PUSH2 0x1C07 DUP4 DUP4 PUSH2 0x1B6B JUMP JUMPDEST SWAP1 POP SWAP3 SWAP2 POP POP JUMP JUMPDEST PUSH1 0x0 PUSH1 0x20 DUP3 ADD SWAP1 POP SWAP2 SWAP1 POP JUMP JUMPDEST PUSH1 0x0 PUSH2 0x1C27 DUP3 PUSH2 0x1A55 JUMP JUMPDEST PUSH2 0x1C31 DUP2 DUP6 PUSH2 0x1A60 JUMP JUMPDEST SWAP4 POP DUP4 PUSH1 0x20 DUP3 MUL DUP6 ADD PUSH2 0x1C43 DUP6 PUSH2 0x1A71 JUMP JUMPDEST DUP1 PUSH1 0x0 JUMPDEST DUP6 DUP2 LT ISZERO PUSH2 0x1C7F JUMPI DUP5 DUP5 SUB DUP10 MSTORE DUP2 MLOAD PUSH2 0x1C60 DUP6 DUP3 PUSH2 0x1BFB JUMP JUMPDEST SWAP5 POP PUSH2 0x1C6B DUP4 PUSH2 0x1C0F JUMP JUMPDEST SWAP3 POP PUSH1 0x20 DUP11 ADD SWAP10 POP POP PUSH1 0x1 DUP2 ADD SWAP1 POP PUSH2 0x1C47 JUMP JUMPDEST POP DUP3 SWAP8 POP DUP8 SWAP6 POP POP POP POP POP POP SWAP3 SWAP2 POP POP JUMP JUMPDEST PUSH1 0x0 PUSH1 0x20 DUP3 ADD SWAP1 POP DUP2 DUP2 SUB PUSH1 0x0 DUP4 ADD MSTORE PUSH2 0x1CAB DUP2 DUP5 PUSH2 0x1C1C JUMP JUMPDEST SWAP1 POP SWAP3 SWAP2 POP POP JUMP JUMPDEST PUSH2 0x1CBC DUP2 PUSH2 0x1B4A JUMP JUMPDEST DUP3 MSTORE POP POP JUMP JUMPDEST PUSH1 0x0 PUSH1 0x20 DUP3 ADD SWAP1 POP PUSH2 0x1CD7 PUSH1 0x0 DUP4 ADD DUP5 PUSH2 0x1CB3 JUMP JUMPDEST SWAP3 SWAP2 POP POP JUMP JUMPDEST PUSH1 0x0 DUP2 MLOAD SWAP1 POP SWAP2 SWAP1 POP JUMP JUMPDEST PUSH1 0x0 DUP3 DUP3 MSTORE PUSH1 0x20 DUP3 ADD SWAP1 POP SWAP3 SWAP2 POP POP JUMP JUMPDEST PUSH1 0x0 DUP2 SWAP1 POP PUSH1 0x20 DUP3 ADD SWAP1 POP SWAP2 SWAP1 POP JUMP JUMPDEST PUSH1 0x0 PUSH1 0xE0 DUP4 ADD PUSH1 0x0 DUP4 ADD MLOAD DUP5 DUP3 SUB PUSH1 0x0 DUP7 ADD MSTORE PUSH2 0x1D26 DUP3 DUP3 PUSH2 0x1AD8 JUMP JUMPDEST SWAP2 POP POP PUSH1 0x20 DUP4 ADD MLOAD PUSH2 0x1D3B PUSH1 0x20 DUP7 ADD DUP3 PUSH2 0x1B1B JUMP JUMPDEST POP PUSH1 0x40 DUP4 ADD MLOAD DUP5 DUP3 SUB PUSH1 0x40 DUP7 ADD MSTORE PUSH2 0x1D53 DUP3 DUP3 PUSH2 0x1AD8 JUMP JUMPDEST SWAP2 POP POP PUSH1 0x60 DUP4 ADD MLOAD PUSH2 0x1D68 PUSH1 0x60 DUP7 ADD DUP3 PUSH2 0x1B1B JUMP JUMPDEST POP PUSH1 0x80 DUP4 ADD MLOAD DUP5 DUP3 SUB PUSH1 0x80 DUP7 ADD MSTORE PUSH2 0x1D80 DUP3 DUP3 PUSH2 0x1AD8 JUMP JUMPDEST SWAP2 POP POP PUSH1 0xA0 DUP4 ADD MLOAD PUSH2 0x1D95 PUSH1 0xA0 DUP7 ADD DUP3 PUSH2 0x1B5C JUMP JUMPDEST POP PUSH1 0xC0 DUP4 ADD MLOAD PUSH2 0x1DA8 PUSH1 0xC0 DUP7 ADD DUP3 PUSH2 0x1B1B JUMP JUMPDEST POP DUP1 SWAP2 POP POP SWAP3 SWAP2 POP POP JUMP JUMPDEST PUSH1 0x0 PUSH2 0x1DBF DUP4 DUP4 PUSH2 0x1D09 JUMP JUMPDEST SWAP1 POP SWAP3 SWAP2 POP POP JUMP JUMPDEST PUSH1 0x0 PUSH1 0x20 DUP3 ADD SWAP1 POP SWAP2 SWAP1 POP JUMP JUMPDEST PUSH1 0x0 PUSH2 0x1DDF DUP3 PUSH2 0x1CDD JUMP JUMPDEST PUSH2 0x1DE9 DUP2 DUP6 PUSH2 0x1CE8 JUMP JUMPDEST SWAP4 POP DUP4 PUSH1 0x20 DUP3 MUL DUP6 ADD PUSH2 0x1DFB DUP6 PUSH2 0x1CF9 JUMP JUMPDEST DUP1 PUSH1 0x0 JUMPDEST DUP6 DUP2 LT ISZERO PUSH2 0x1E37 JUMPI DUP5 DUP5 SUB DUP10 MSTORE DUP2 MLOAD PUSH2 0x1E18 DUP6 DUP3 PUSH2 0x1DB3 JUMP JUMPDEST SWAP5 POP PUSH2 0x1E23 DUP4 PUSH2 0x1DC7 JUMP JUMPDEST SWAP3 POP PUSH1 0x20 DUP11 ADD SWAP10 POP POP PUSH1 0x1 DUP2 ADD SWAP1 POP PUSH2 0x1DFF JUMP JUMPDEST POP DUP3 SWAP8 POP DUP8 SWAP6 POP POP POP POP POP POP SWAP3 SWAP2 POP POP JUMP JUMPDEST PUSH1 0x0 PUSH1 0x20 DUP3 ADD SWAP1 POP DUP2 DUP2 SUB PUSH1 0x0 DUP4 ADD MSTORE PUSH2 0x1E63 DUP2 DUP5 PUSH2 0x1DD4 JUMP JUMPDEST SWAP1 POP SWAP3 SWAP2 POP POP JUMP JUMPDEST PUSH1 0x0 PUSH1 0x40 MLOAD SWAP1 POP SWAP1 JUMP JUMPDEST PUSH1 0x0 DUP1 REVERT JUMPDEST PUSH1 0x0 DUP1 REVERT JUMPDEST PUSH2 0x1E88 DUP2 PUSH2 0x1B11 JUMP JUMPDEST DUP2 EQ PUSH2 0x1E93 JUMPI PUSH1 0x0 DUP1 REVERT JUMPDEST POP JUMP JUMPDEST PUSH1 0x0 DUP2 CALLDATALOAD SWAP1 POP PUSH2 0x1EA5 DUP2 PUSH2 0x1E7F JUMP JUMPDEST SWAP3 SWAP2 POP POP JUMP JUMPDEST PUSH1 0x0 DUP1 PUSH1 0x40 DUP4 DUP6 SUB SLT ISZERO PUSH2 0x1EC2 JUMPI PUSH2 0x1EC1 PUSH2 0x1E75 JUMP JUMPDEST JUMPDEST PUSH1 0x0 PUSH2 0x1ED0 DUP6 DUP3 DUP7 ADD PUSH2 0x1E96 JUMP JUMPDEST SWAP3 POP POP PUSH1 0x20 PUSH2 0x1EE1 DUP6 DUP3 DUP7 ADD PUSH2 0x1E96 JUMP JUMPDEST SWAP2 POP POP SWAP3 POP SWAP3 SWAP1 POP JUMP JUMPDEST PUSH1 0x0 DUP1 REVERT JUMPDEST PUSH1 0x0 DUP1 REVERT JUMPDEST PUSH32 0x4E487B7100000000000000000000000000000000000000000000000000000000 PUSH1 0x0 MSTORE PUSH1 0x41 PUSH1 0x4 MSTORE PUSH1 0x24 PUSH1 0x0 REVERT JUMPDEST PUSH2 0x1F2D DUP3 PUSH2 0x1AC7 JUMP JUMPDEST DUP2 ADD DUP2 DUP2 LT PUSH8 0xFFFFFFFFFFFFFFFF DUP3 GT OR ISZERO PUSH2 0x1F4C JUMPI PUSH2 0x1F4B PUSH2 0x1EF5 JUMP JUMPDEST JUMPDEST DUP1 PUSH1 0x40 MSTORE POP POP POP JUMP JUMPDEST PUSH1 0x0 PUSH2 0x1F5F PUSH2 0x1E6B JUMP JUMPDEST SWAP1 POP PUSH2 0x1F6B DUP3 DUP3 PUSH2 0x1F24 JUMP JUMPDEST SWAP2 SWAP1 POP JUMP JUMPDEST PUSH1 0x0 PUSH8 0xFFFFFFFFFFFFFFFF DUP3 GT ISZERO PUSH2 0x1F8B JUMPI PUSH2 0x1F8A PUSH2 0x1EF5 JUMP JUMPDEST JUMPDEST PUSH2 0x1F94 DUP3 PUSH2 0x1AC7 JUMP JUMPDEST SWAP1 POP PUSH1 0x20 DUP2 ADD SWAP1 POP SWAP2 SWAP1 POP JUMP JUMPDEST DUP3 DUP2 DUP4 CALLDATACOPY PUSH1 0x0 DUP4 DUP4 ADD MSTORE POP POP POP JUMP JUMPDEST PUSH1 0x0 PUSH2 0x1FC3 PUSH2 0x1FBE DUP5 PUSH2 0x1F70 JUMP JUMPDEST PUSH2 0x1F55 JUMP JUMPDEST SWAP1 POP DUP3 DUP2 MSTORE PUSH1 0x20 DUP2 ADD DUP5 DUP5 DUP5 ADD GT ISZERO PUSH2 0x1FDF JUMPI PUSH2 0x1FDE PUSH2 0x1EF0 JUMP JUMPDEST JUMPDEST PUSH2 0x1FEA DUP5 DUP3 DUP6 PUSH2 0x1FA1 JUMP JUMPDEST POP SWAP4 SWAP3 POP POP POP JUMP JUMPDEST PUSH1 0x0 DUP3 PUSH1 0x1F DUP4 ADD SLT PUSH2 0x2007 JUMPI PUSH2 0x2006 PUSH2 0x1EEB JUMP JUMPDEST JUMPDEST DUP2 CALLDATALOAD PUSH2 0x2017 DUP5 DUP3 PUSH1 0x20 DUP7 ADD PUSH2 0x1FB0 JUMP JUMPDEST SWAP2 POP POP SWAP3 SWAP2 POP POP JUMP JUMPDEST PUSH1 0x0 DUP1 PUSH1 0x0 PUSH1 0x60 DUP5 DUP7 SUB SLT ISZERO PUSH2 0x2039 JUMPI PUSH2 0x2038 PUSH2 0x1E75 JUMP JUMPDEST JUMPDEST PUSH1 0x0 DUP5 ADD CALLDATALOAD PUSH8 0xFFFFFFFFFFFFFFFF DUP2 GT ISZERO PUSH2 0x2057 JUMPI PUSH2 0x2056 PUSH2 0x1E7A JUMP JUMPDEST JUMPDEST PUSH2 0x2063 DUP7 DUP3 DUP8 ADD PUSH2 0x1FF2 JUMP JUMPDEST SWAP4 POP POP PUSH1 0x20 PUSH2 0x2074 DUP7 DUP3 DUP8 ADD PUSH2 0x1E96 JUMP JUMPDEST SWAP3 POP POP PUSH1 0x40 DUP5 ADD CALLDATALOAD PUSH8 0xFFFFFFFFFFFFFFFF DUP2 GT ISZERO PUSH2 0x2095 JUMPI PUSH2 0x2094 PUSH2 0x1E7A JUMP JUMPDEST JUMPDEST PUSH2 0x20A1 DUP7 DUP3 DUP8 ADD PUSH2 0x1FF2 JUMP JUMPDEST SWAP2 POP POP SWAP3 POP SWAP3 POP SWAP3 JUMP JUMPDEST PUSH1 0x0 DUP1 REVERT JUMPDEST PUSH1 0x0 DUP1 REVERT JUMPDEST PUSH1 0x0 DUP1 DUP4 PUSH1 0x1F DUP5 ADD SLT PUSH2 0x20CB JUMPI PUSH2 0x20CA PUSH2 0x1EEB JUMP JUMPDEST JUMPDEST DUP3 CALLDATALOAD SWAP1 POP PUSH8 0xFFFFFFFFFFFFFFFF DUP2 GT ISZERO PUSH2 0x20E8 JUMPI PUSH2 0x20E7 PUSH2 0x20AB JUMP JUMPDEST JUMPDEST PUSH1 0x20 DUP4 ADD SWAP2 POP DUP4 PUSH1 0x1 DUP3 MUL DUP4 ADD GT ISZERO PUSH2 0x2104 JUMPI PUSH2 0x2103 PUSH2 0x20B0 JUMP JUMPDEST JUMPDEST SWAP3 POP SWAP3 SWAP1 POP JUMP JUMPDEST PUSH1 0x0 DUP1 PUSH1 0x0 DUP1 PUSH1 0x0 PUSH1 0x80 DUP7 DUP9 SUB SLT ISZERO PUSH2 0x2127 JUMPI PUSH2 0x2126 PUSH2 0x1E75 JUMP JUMPDEST JUMPDEST PUSH1 0x0 DUP7 ADD CALLDATALOAD PUSH8 0xFFFFFFFFFFFFFFFF DUP2 GT ISZERO PUSH2 0x2145 JUMPI PUSH2 0x2144 PUSH2 0x1E7A JUMP JUMPDEST JUMPDEST PUSH2 0x2151 DUP9 DUP3 DUP10 ADD PUSH2 0x20B5 JUMP JUMPDEST SWAP6 POP SWAP6 POP POP PUSH1 0x20 PUSH2 0x2164 DUP9 DUP3 DUP10 ADD PUSH2 0x1E96 JUMP JUMPDEST SWAP4 POP POP PUSH1 0x40 DUP7 ADD CALLDATALOAD PUSH8 0xFFFFFFFFFFFFFFFF DUP2 GT ISZERO PUSH2 0x2185 JUMPI PUSH2 0x2184 PUSH2 0x1E7A JUMP JUMPDEST JUMPDEST PUSH2 0x2191 DUP9 DUP3 DUP10 ADD PUSH2 0x1FF2 JUMP JUMPDEST SWAP3 POP POP PUSH1 0x60 DUP7 ADD CALLDATALOAD PUSH8 0xFFFFFFFFFFFFFFFF DUP2 GT ISZERO PUSH2 0x21B2 JUMPI PUSH2 0x21B1 PUSH2 0x1E7A JUMP JUMPDEST JUMPDEST PUSH2 0x21BE DUP9 DUP3 DUP10 ADD PUSH2 0x1FF2 JUMP JUMPDEST SWAP2 POP POP SWAP3 SWAP6 POP SWAP3 SWAP6 SWAP1 SWAP4 POP JUMP JUMPDEST PUSH1 0x0 PUSH1 0x20 DUP3 DUP5 SUB SLT ISZERO PUSH2 0x21E1 JUMPI PUSH2 0x21E0 PUSH2 0x1E75 JUMP JUMPDEST JUMPDEST PUSH1 0x0 PUSH2 0x21EF DUP5 DUP3 DUP6 ADD PUSH2 0x1E96 JUMP JUMPDEST SWAP2 POP POP SWAP3 SWAP2 POP POP JUMP JUMPDEST PUSH1 0x0 DUP3 DUP3 MSTORE PUSH1 0x20 DUP3 ADD SWAP1 POP SWAP3 SWAP2 POP POP JUMP JUMPDEST PUSH1 0x0 PUSH2 0x2214 DUP3 PUSH2 0x1A81 JUMP JUMPDEST PUSH2 0x221E DUP2 DUP6 PUSH2 0x21F8 JUMP JUMPDEST SWAP4 POP PUSH2 0x222E DUP2 DUP6 PUSH1 0x20 DUP7 ADD PUSH2 0x1A9D JUMP JUMPDEST PUSH2 0x2237 DUP2 PUSH2 0x1AC7 JUMP JUMPDEST DUP5 ADD SWAP2 POP POP SWAP3 SWAP2 POP POP JUMP JUMPDEST PUSH2 0x224B DUP2 PUSH2 0x1B11 JUMP JUMPDEST DUP3 MSTORE POP POP JUMP JUMPDEST PUSH1 0x0 PUSH1 0xE0 DUP3 ADD SWAP1 POP DUP2 DUP2 SUB PUSH1 0x0 DUP4 ADD MSTORE PUSH2 0x226B DUP2 DUP11 PUSH2 0x2209 JUMP JUMPDEST SWAP1 POP PUSH2 0x227A PUSH1 0x20 DUP4 ADD DUP10 PUSH2 0x2242 JUMP JUMPDEST DUP2 DUP2 SUB PUSH1 0x40 DUP4 ADD MSTORE PUSH2 0x228C DUP2 DUP9 PUSH2 0x2209 JUMP JUMPDEST SWAP1 POP PUSH2 0x229B PUSH1 0x60 DUP4 ADD DUP8 PUSH2 0x2242 JUMP JUMPDEST DUP2 DUP2 SUB PUSH1 0x80 DUP4 ADD MSTORE PUSH2 0x22AD DUP2 DUP7 PUSH2 0x2209 JUMP JUMPDEST SWAP1 POP PUSH2 0x22BC PUSH1 0xA0 DUP4 ADD DUP6 PUSH2 0x1CB3 JUMP JUMPDEST PUSH2 0x22C9 PUSH1 0xC0 DUP4 ADD DUP5 PUSH2 0x2242 JUMP JUMPDEST SWAP9 SWAP8 POP POP POP POP POP POP POP POP JUMP JUMPDEST PUSH1 0x0 PUSH1 0xC0 DUP3 ADD SWAP1 POP DUP2 DUP2 SUB PUSH1 0x0 DUP4 ADD MSTORE PUSH2 0x22EF DUP2 DUP10 PUSH2 0x2209 JUMP JUMPDEST SWAP1 POP PUSH2 0x22FE PUSH1 0x20 DUP4 ADD DUP9 PUSH2 0x2242 JUMP JUMPDEST PUSH2 0x230B PUSH1 0x40 DUP4 ADD DUP8 PUSH2 0x2242 JUMP JUMPDEST DUP2 DUP2 SUB PUSH1 0x60 DUP4 ADD MSTORE PUSH2 0x231D DUP2 DUP7 PUSH2 0x2209 JUMP JUMPDEST SWAP1 POP PUSH2 0x232C PUSH1 0x80 DUP4 ADD DUP6 PUSH2 0x2242 JUMP JUMPDEST PUSH2 0x2339 PUSH1 0xA0 DUP4 ADD DUP5 PUSH2 0x1CB3 JUMP JUMPDEST SWAP8 SWAP7 POP POP POP POP POP POP POP JUMP JUMPDEST PUSH32 0x4E487B7100000000000000000000000000000000000000000000000000000000 PUSH1 0x0 MSTORE PUSH1 0x11 PUSH1 0x4 MSTORE PUSH1 0x24 PUSH1 0x0 REVERT JUMPDEST PUSH1 0x0 PUSH2 0x237E DUP3 PUSH2 0x1B11 JUMP JUMPDEST SWAP2 POP PUSH2 0x2389 DUP4 PUSH2 0x1B11 JUMP JUMPDEST SWAP3 POP DUP3 DUP3 SUB SWAP1 POP DUP2 DUP2 GT ISZERO PUSH2 0x23A1 JUMPI PUSH2 0x23A0 PUSH2 0x2344 JUMP JUMPDEST JUMPDEST SWAP3 SWAP2 POP POP JUMP JUMPDEST PUSH32 0x4E487B7100000000000000000000000000000000000000000000000000000000 PUSH1 0x0 MSTORE PUSH1 0x22 PUSH1 0x4 MSTORE PUSH1 0x24 PUSH1 0x0 REVERT JUMPDEST PUSH1 0x0 PUSH1 0x2 DUP3 DIV SWAP1 POP PUSH1 0x1 DUP3 AND DUP1 PUSH2 0x23EE JUMPI PUSH1 0x7F DUP3 AND SWAP2 POP JUMPDEST PUSH1 0x20 DUP3 LT DUP2 SUB PUSH2 0x2401 JUMPI PUSH2 0x2400 PUSH2 0x23A7 JUMP JUMPDEST JUMPDEST POP SWAP2 SWAP1 POP JUMP JUMPDEST PUSH32 0x4E487B7100000000000000000000000000000000000000000000000000000000 PUSH1 0x0 MSTORE PUSH1 0x32 PUSH1 0x4 MSTORE PUSH1 0x24 PUSH1 0x0 REVERT JUMPDEST PUSH1 0x0 PUSH2 0x2441 DUP3 PUSH2 0x1B11 JUMP JUMPDEST SWAP2 POP PUSH32 0xFFFFFFFFFFFFFFFFFFFFFFFFFFFFFFFFFFFFFFFFFFFFFFFFFFFFFFFFFFFFFFFF DUP3 SUB PUSH2 0x2473 JUMPI PUSH2 0x2472 PUSH2 0x2344 JUMP JUMPDEST JUMPDEST PUSH1 0x1 DUP3 ADD SWAP1 POP SWAP2 SWAP1 POP JUMP JUMPDEST PUSH32 0x596F7520617265206E6F742066726F6D20656C656374696F6E20636F6D697373 PUSH1 0x0 DUP3 ADD MSTORE PUSH32 0x696F6E0000000000000000000000000000000000000000000000000000000000 PUSH1 0x20 DUP3 ADD MSTORE POP JUMP JUMPDEST PUSH1 0x0 PUSH2 0x24DA PUSH1 0x23 DUP4 PUSH2 0x21F8 JUMP JUMPDEST SWAP2 POP PUSH2 0x24E5 DUP3 PUSH2 0x247E JUMP JUMPDEST PUSH1 0x40 DUP3 ADD SWAP1 POP SWAP2 SWAP1 POP JUMP JUMPDEST PUSH1 0x0 PUSH1 0x20 DUP3 ADD SWAP1 POP DUP2 DUP2 SUB PUSH1 0x0 DUP4 ADD MSTORE PUSH2 0x2509 DUP2 PUSH2 0x24CD JUMP JUMPDEST SWAP1 POP SWAP2 SWAP1 POP JUMP JUMPDEST PUSH32 0x43616E64696461746520726567697374726174696F6E20706861736520697320 PUSH1 0x0 DUP3 ADD MSTORE PUSH32 0x6E6F7420636C6F73656400000000000000000000000000000000000000000000 PUSH1 0x20 DUP3 ADD MSTORE POP JUMP JUMPDEST PUSH1 0x0 PUSH2 0x256C PUSH1 0x2A DUP4 PUSH2 0x21F8 JUMP JUMPDEST SWAP2 POP PUSH2 0x2577 DUP3 PUSH2 0x2510 JUMP JUMPDEST PUSH1 0x40 DUP3 ADD SWAP1 POP SWAP2 SWAP1 POP JUMP JUMPDEST PUSH1 0x0 PUSH1 0x20 DUP3 ADD SWAP1 POP DUP2 DUP2 SUB PUSH1 0x0 DUP4 ADD MSTORE PUSH2 0x259B DUP2 PUSH2 0x255F JUMP JUMPDEST SWAP1 POP SWAP2 SWAP1 POP JUMP JUMPDEST PUSH32 0x566F74696E6720697320696E20636F6E64756374696F6E207068617365206973 PUSH1 0x0 DUP3 ADD MSTORE PUSH32 0x206E6F7420636C6F736564000000000000000000000000000000000000000000 PUSH1 0x20 DUP3 ADD MSTORE POP JUMP JUMPDEST PUSH1 0x0 PUSH2 0x25FE PUSH1 0x2B DUP4 PUSH2 0x21F8 JUMP JUMPDEST SWAP2 POP PUSH2 0x2609 DUP3 PUSH2 0x25A2 JUMP JUMPDEST PUSH1 0x40 DUP3 ADD SWAP1 POP SWAP2 SWAP1 POP JUMP JUMPDEST PUSH1 0x0 PUSH1 0x20 DUP3 ADD SWAP1 POP DUP2 DUP2 SUB PUSH1 0x0 DUP4 ADD MSTORE PUSH2 0x262D DUP2 PUSH2 0x25F1 JUMP JUMPDEST SWAP1 POP SWAP2 SWAP1 POP JUMP JUMPDEST PUSH1 0x0 PUSH2 0x263F DUP3 PUSH2 0x1B11 JUMP JUMPDEST SWAP2 POP PUSH2 0x264A DUP4 PUSH2 0x1B11 JUMP JUMPDEST SWAP3 POP DUP3 DUP3 ADD SWAP1 POP DUP1 DUP3 GT ISZERO PUSH2 0x2662 JUMPI PUSH2 0x2661 PUSH2 0x2344 JUMP JUMPDEST JUMPDEST SWAP3 SWAP2 POP POP JUMP JUMPDEST PUSH32 0x566F74657220726567697374726174696F6E20697320636C6F73656400000000 PUSH1 0x0 DUP3 ADD MSTORE POP JUMP JUMPDEST PUSH1 0x0 PUSH2 0x269E PUSH1 0x1C DUP4 PUSH2 0x21F8 JUMP JUMPDEST SWAP2 POP PUSH2 0x26A9 DUP3 PUSH2 0x2668 JUMP JUMPDEST PUSH1 0x20 DUP3 ADD SWAP1 POP SWAP2 SWAP1 POP JUMP JUMPDEST PUSH1 0x0 PUSH1 0x20 DUP3 ADD SWAP1 POP DUP2 DUP2 SUB PUSH1 0x0 DUP4 ADD MSTORE PUSH2 0x26CD DUP2 PUSH2 0x2691 JUMP JUMPDEST SWAP1 POP SWAP2 SWAP1 POP JUMP JUMPDEST PUSH32 0x596F75612061726520756E646572206167650000000000000000000000000000 PUSH1 0x0 DUP3 ADD MSTORE POP JUMP JUMPDEST PUSH1 0x0 PUSH2 0x270A PUSH1 0x12 DUP4 PUSH2 0x21F8 JUMP JUMPDEST SWAP2 POP PUSH2 0x2715 DUP3 PUSH2 0x26D4 JUMP JUMPDEST PUSH1 0x20 DUP3 ADD SWAP1 POP SWAP2 SWAP1 POP JUMP JUMPDEST PUSH1 0x0 PUSH1 0x20 DUP3 ADD SWAP1 POP DUP2 DUP2 SUB PUSH1 0x0 DUP4 ADD MSTORE PUSH2 0x2739 DUP2 PUSH2 0x26FD JUMP JUMPDEST SWAP1 POP SWAP2 SWAP1 POP JUMP JUMPDEST PUSH32 0x416C726561647920726567697374657264000000000000000000000000000000 PUSH1 0x0 DUP3 ADD MSTORE POP JUMP JUMPDEST PUSH1 0x0 PUSH2 0x2776 PUSH1 0x11 DUP4 PUSH2 0x21F8 JUMP JUMPDEST SWAP2 POP PUSH2 0x2781 DUP3 PUSH2 0x2740 JUMP JUMPDEST PUSH1 0x20 DUP3 ADD SWAP1 POP SWAP2 SWAP1 POP JUMP JUMPDEST PUSH1 0x0 PUSH1 0x20 DUP3 ADD SWAP1 POP DUP2 DUP2 SUB PUSH1 0x0 DUP4 ADD MSTORE PUSH2 0x27A5 DUP2 PUSH2 0x2769 JUMP JUMPDEST SWAP1 POP SWAP2 SWAP1 POP JUMP JUMPDEST PUSH1 0x0 DUP2 SWAP1 POP DUP2 PUSH1 0x0 MSTORE PUSH1 0x20 PUSH1 0x0 KECCAK256 SWAP1 POP SWAP2 SWAP1 POP JUMP JUMPDEST PUSH1 0x0 PUSH1 0x20 PUSH1 0x1F DUP4 ADD DIV SWAP1 POP SWAP2 SWAP1 POP JUMP JUMPDEST PUSH1 0x0 DUP3 DUP3 SHL SWAP1 POP SWAP3 SWAP2 POP POP JUMP JUMPDEST PUSH1 0x0 PUSH1 0x8 DUP4 MUL PUSH2 0x280E PUSH32 0xFFFFFFFFFFFFFFFFFFFFFFFFFFFFFFFFFFFFFFFFFFFFFFFFFFFFFFFFFFFFFFFF DUP3 PUSH2 0x27D1 JUMP JUMPDEST PUSH2 0x2818 DUP7 DUP4 PUSH2 0x27D1 JUMP JUMPDEST SWAP6 POP DUP1 NOT DUP5 AND SWAP4 POP DUP1 DUP7 AND DUP5 OR SWAP3 POP POP POP SWAP4 SWAP3 POP POP POP JUMP JUMPDEST PUSH1 0x0 DUP2 SWAP1 POP SWAP2 SWAP1 POP JUMP JUMPDEST PUSH1 0x0 PUSH2 0x2855 PUSH2 0x2850 PUSH2 0x284B DUP5 PUSH2 0x1B11 JUMP JUMPDEST PUSH2 0x2830 JUMP JUMPDEST PUSH2 0x1B11 JUMP JUMPDEST SWAP1 POP SWAP2 SWAP1 POP JUMP JUMPDEST PUSH1 0x0 DUP2 SWAP1 POP SWAP2 SWAP1 POP JUMP JUMPDEST PUSH2 0x286F DUP4 PUSH2 0x283A JUMP JUMPDEST PUSH2 0x2883 PUSH2 0x287B DUP3 PUSH2 0x285C JUMP JUMPDEST DUP5 DUP5 SLOAD PUSH2 0x27DE JUMP JUMPDEST DUP3 SSTORE POP POP POP POP JUMP JUMPDEST PUSH1 0x0 SWAP1 JUMP JUMPDEST PUSH2 0x2898 PUSH2 0x288B JUMP JUMPDEST PUSH2 0x28A3 DUP2 DUP5 DUP5 PUSH2 0x2866 JUMP JUMPDEST POP POP POP JUMP JUMPDEST JUMPDEST DUP2 DUP2 LT ISZERO PUSH2 0x28C7 JUMPI PUSH2 0x28BC PUSH1 0x0 DUP3 PUSH2 0x2890 JUMP JUMPDEST PUSH1 0x1 DUP2 ADD SWAP1 POP PUSH2 0x28A9 JUMP JUMPDEST POP POP JUMP JUMPDEST PUSH1 0x1F DUP3 GT ISZERO PUSH2 0x290C JUMPI PUSH2 0x28DD DUP2 PUSH2 0x27AC JUMP JUMPDEST PUSH2 0x28E6 DUP5 PUSH2 0x27C1 JUMP JUMPDEST DUP2 ADD PUSH1 0x20 DUP6 LT ISZERO PUSH2 0x28F5 JUMPI DUP2 SWAP1 POP JUMPDEST PUSH2 0x2909 PUSH2 0x2901 DUP6 PUSH2 0x27C1 JUMP JUMPDEST DUP4 ADD DUP3 PUSH2 0x28A8 JUMP JUMPDEST POP POP JUMPDEST POP POP POP JUMP JUMPDEST PUSH1 0x0 DUP3 DUP3 SHR SWAP1 POP SWAP3 SWAP2 POP POP JUMP JUMPDEST PUSH1 0x0 PUSH2 0x292F PUSH1 0x0 NOT DUP5 PUSH1 0x8 MUL PUSH2 0x2911 JUMP JUMPDEST NOT DUP1 DUP4 AND SWAP2 POP POP SWAP3 SWAP2 POP POP JUMP JUMPDEST PUSH1 0x0 PUSH2 0x2948 DUP4 DUP4 PUSH2 0x291E JUMP JUMPDEST SWAP2 POP DUP3 PUSH1 0x2 MUL DUP3 OR SWAP1 POP SWAP3 SWAP2 POP POP JUMP JUMPDEST PUSH2 0x2961 DUP3 PUSH2 0x1A81 JUMP JUMPDEST PUSH8 0xFFFFFFFFFFFFFFFF DUP2 GT ISZERO PUSH2 0x297A JUMPI PUSH2 0x2979 PUSH2 0x1EF5 JUMP JUMPDEST JUMPDEST PUSH2 0x2984 DUP3 SLOAD PUSH2 0x23D6 JUMP JUMPDEST PUSH2 0x298F DUP3 DUP3 DUP6 PUSH2 0x28CB JUMP JUMPDEST PUSH1 0x0 PUSH1 0x20 SWAP1 POP PUSH1 0x1F DUP4 GT PUSH1 0x1 DUP2 EQ PUSH2 0x29C2 JUMPI PUSH1 0x0 DUP5 ISZERO PUSH2 0x29B0 JUMPI DUP3 DUP8 ADD MLOAD SWAP1 POP JUMPDEST PUSH2 0x29BA DUP6 DUP3 PUSH2 0x293C JUMP JUMPDEST DUP7 SSTORE POP PUSH2 0x2A22 JUMP JUMPDEST PUSH1 0x1F NOT DUP5 AND PUSH2 0x29D0 DUP7 PUSH2 0x27AC JUMP JUMPDEST PUSH1 0x0 JUMPDEST DUP3 DUP2 LT ISZERO PUSH2 0x29F8 JUMPI DUP5 DUP10 ADD MLOAD DUP3 SSTORE PUSH1 0x1 DUP3 ADD SWAP2 POP PUSH1 0x20 DUP6 ADD SWAP5 POP PUSH1 0x20 DUP2 ADD SWAP1 POP PUSH2 0x29D3 JUMP JUMPDEST DUP7 DUP4 LT ISZERO PUSH2 0x2A15 JUMPI DUP5 DUP10 ADD MLOAD PUSH2 0x2A11 PUSH1 0x1F DUP10 AND DUP3 PUSH2 0x291E JUMP JUMPDEST DUP4 SSTORE POP JUMPDEST PUSH1 0x1 PUSH1 0x2 DUP9 MUL ADD DUP9 SSTORE POP POP POP JUMPDEST POP POP POP POP POP POP JUMP JUMPDEST PUSH32 0x43616E64696461746520526567697374726174696F6E20697320636C6F736564 PUSH1 0x0 DUP3 ADD MSTORE POP JUMP JUMPDEST PUSH1 0x0 PUSH2 0x2A60 PUSH1 0x20 DUP4 PUSH2 0x21F8 JUMP JUMPDEST SWAP2 POP PUSH2 0x2A6B DUP3 PUSH2 0x2A2A JUMP JUMPDEST PUSH1 0x20 DUP3 ADD SWAP1 POP SWAP2 SWAP1 POP JUMP JUMPDEST PUSH1 0x0 PUSH1 0x20 DUP3 ADD SWAP1 POP DUP2 DUP2 SUB PUSH1 0x0 DUP4 ADD MSTORE PUSH2 0x2A8F DUP2 PUSH2 0x2A53 JUMP JUMPDEST SWAP1 POP SWAP2 SWAP1 POP JUMP JUMPDEST PUSH32 0x596F75206172652066726F6D20656C656374696F6E20636F6D697373696F6E00 PUSH1 0x0 DUP3 ADD MSTORE POP JUMP JUMPDEST PUSH1 0x0 PUSH2 0x2ACC PUSH1 0x1F DUP4 PUSH2 0x21F8 JUMP JUMPDEST SWAP2 POP PUSH2 0x2AD7 DUP3 PUSH2 0x2A96 JUMP JUMPDEST PUSH1 0x20 DUP3 ADD SWAP1 POP SWAP2 SWAP1 POP JUMP JUMPDEST PUSH1 0x0 PUSH1 0x20 DUP3 ADD SWAP1 POP DUP2 DUP2 SUB PUSH1 0x0 DUP4 ADD MSTORE PUSH2 0x2AFB DUP2 PUSH2 0x2ABF JUMP JUMPDEST SWAP1 POP SWAP2 SWAP1 POP JUMP JUMPDEST PUSH32 0x596F75206861766520766F746564000000000000000000000000000000000000 PUSH1 0x0 DUP3 ADD MSTORE POP JUMP JUMPDEST PUSH1 0x0 PUSH2 0x2B38 PUSH1 0xE DUP4 PUSH2 0x21F8 JUMP JUMPDEST SWAP2 POP PUSH2 0x2B43 DUP3 PUSH2 0x2B02 JUMP JUMPDEST PUSH1 0x20 DUP3 ADD SWAP1 POP SWAP2 SWAP1 POP JUMP JUMPDEST PUSH1 0x0 PUSH1 0x20 DUP3 ADD SWAP1 POP DUP2 DUP2 SUB PUSH1 0x0 DUP4 ADD MSTORE PUSH2 0x2B67 DUP2 PUSH2 0x2B2B JUMP JUMPDEST SWAP1 POP SWAP2 SWAP1 POP JUMP JUMPDEST PUSH32 0x596F752063616E7420766F74652066726F6D206F746865727320626568616C66 PUSH1 0x0 DUP3 ADD MSTORE POP JUMP JUMPDEST PUSH1 0x0 PUSH2 0x2BA4 PUSH1 0x20 DUP4 PUSH2 0x21F8 JUMP JUMPDEST SWAP2 POP PUSH2 0x2BAF DUP3 PUSH2 0x2B6E JUMP JUMPDEST PUSH1 0x20 DUP3 ADD SWAP1 POP SWAP2 SWAP1 POP JUMP JUMPDEST PUSH1 0x0 PUSH1 0x20 DUP3 ADD SWAP1 POP DUP2 DUP2 SUB PUSH1 0x0 DUP4 ADD MSTORE PUSH2 0x2BD3 DUP2 PUSH2 0x2B97 JUMP JUMPDEST SWAP1 POP SWAP2 SWAP1 POP JUMP JUMPDEST PUSH32 0x43616E6469646174657320617265206E6F74207265676973746572656420636F PUSH1 0x0 DUP3 ADD MSTORE PUSH32 0x6D706C6574656C79000000000000000000000000000000000000000000000000 PUSH1 0x20 DUP3 ADD MSTORE POP JUMP JUMPDEST PUSH1 0x0 PUSH2 0x2C36 PUSH1 0x28 DUP4 PUSH2 0x21F8 JUMP JUMPDEST SWAP2 POP PUSH2 0x2C41 DUP3 PUSH2 0x2BDA JUMP JUMPDEST PUSH1 0x40 DUP3 ADD SWAP1 POP SWAP2 SWAP1 POP JUMP JUMPDEST PUSH1 0x0 PUSH1 0x20 DUP3 ADD SWAP1 POP DUP2 DUP2 SUB PUSH1 0x0 DUP4 ADD MSTORE PUSH2 0x2C65 DUP2 PUSH2 0x2C29 JUMP JUMPDEST SWAP1 POP SWAP2 SWAP1 POP JUMP JUMPDEST PUSH32 0x566F74696E67206973206E6F7420737461727465640000000000000000000000 PUSH1 0x0 DUP3 ADD MSTORE POP JUMP JUMPDEST PUSH1 0x0 PUSH2 0x2CA2 PUSH1 0x15 DUP4 PUSH2 0x21F8 JUMP JUMPDEST SWAP2 POP PUSH2 0x2CAD DUP3 PUSH2 0x2C6C JUMP JUMPDEST PUSH1 0x20 DUP3 ADD SWAP1 POP SWAP2 SWAP1 POP JUMP JUMPDEST PUSH1 0x0 PUSH1 0x20 DUP3 ADD SWAP1 POP DUP2 DUP2 SUB PUSH1 0x0 DUP4 ADD MSTORE PUSH2 0x2CD1 DUP2 PUSH2 0x2C95 JUMP JUMPDEST SWAP1 POP SWAP2 SWAP1 POP JUMP JUMPDEST PUSH32 0x43616E64696461746520646F6573206E6F742065786973740000000000000000 PUSH1 0x0 DUP3 ADD MSTORE POP JUMP JUMPDEST PUSH1 0x0 PUSH2 0x2D0E PUSH1 0x18 DUP4 PUSH2 0x21F8 JUMP JUMPDEST SWAP2 POP PUSH2 0x2D19 DUP3 PUSH2 0x2CD8 JUMP JUMPDEST PUSH1 0x20 DUP3 ADD SWAP1 POP SWAP2 SWAP1 POP JUMP JUMPDEST PUSH1 0x0 PUSH1 0x20 DUP3 ADD SWAP1 POP DUP2 DUP2 SUB PUSH1 0x0 DUP4 ADD MSTORE PUSH2 0x2D3D DUP2 PUSH2 0x2D01 JUMP JUMPDEST SWAP1 POP SWAP2 SWAP1 POP JUMP INVALID LOG2 PUSH5 0x6970667358 0x22 SLT KECCAK256 CALLDATALOAD PUSH19 0xF7631EA440857B941E847B977A87B6469FA27A 0xF PUSH8 0xE38C951A0A9548C1 0x24 PUSH5 0x736F6C6343 STOP ADDMOD SLT STOP CALLER "
				},
				"gasEstimates": {
					"creation": {
						"codeDepositCost": "2328400",
						"executionCost": "143772",
						"totalCost": "2472172"
					},
					"external": {
						"CandidateDetails(uint256)": "infinite",
						"VoterDetails(uint256)": "infinite",
						"candidateList()": "infinite",
						"candidateRegister(string,uint256,string,string)": "infinite",
						"candidateRegistrationSet(uint256,uint256)": "infinite",
						"selectWinner()": "infinite",
						"vote(uint256,uint256)": "infinite",
						"voterList()": "infinite",
						"voterRegistration(string,uint256,string)": "infinite",
						"voterRegistrationSet(uint256,uint256)": "infinite",
						"winner()": "2602"
					},
					"internal": {
						"candidateRegistrationPhaseStatus()": "26401",
						"candidateVerification(address)": "infinite",
						"voterRegistrationPhaseStatus()": "26401",
						"voterVerification(address)": "infinite"
					}
				},
				"methodIdentifiers": {
					"CandidateDetails(uint256)": "6d2bc1eb",
					"VoterDetails(uint256)": "7da0e15e",
					"candidateList()": "498ea441",
					"candidateRegister(string,uint256,string,string)": "69042bec",
					"candidateRegistrationSet(uint256,uint256)": "f83f40db",
					"selectWinner()": "33a99e04",
					"vote(uint256,uint256)": "b384abef",
					"voterList()": "24089918",
					"voterRegistration(string,uint256,string)": "5d74b023",
					"voterRegistrationSet(uint256,uint256)": "5042746c",
					"winner()": "dfbf53ae"
				}
			},
			"storageLayout": {
				"storage": [
					{
						"astId": 31,
						"contract": "Voting Contract/myVoting.sol:VotingContract",
						"label": "candidate_Registraion_Start",
						"offset": 0,
						"slot": "0",
						"type": "t_uint256"
					},
					{
						"astId": 33,
						"contract": "Voting Contract/myVoting.sol:VotingContract",
						"label": "candidate_Registraion_End",
						"offset": 0,
						"slot": "1",
						"type": "t_uint256"
					},
					{
						"astId": 36,
						"contract": "Voting Contract/myVoting.sol:VotingContract",
						"label": "candidate_Registration_Time",
						"offset": 0,
						"slot": "2",
						"type": "t_bool"
					},
					{
						"astId": 38,
						"contract": "Voting Contract/myVoting.sol:VotingContract",
						"label": "voting_Conduction_Start",
						"offset": 0,
						"slot": "3",
						"type": "t_uint256"
					},
					{
						"astId": 40,
						"contract": "Voting Contract/myVoting.sol:VotingContract",
						"label": "voting_Conduction_End",
						"offset": 0,
						"slot": "4",
						"type": "t_uint256"
					},
					{
						"astId": 43,
						"contract": "Voting Contract/myVoting.sol:VotingContract",
						"label": "votingConductionTime",
						"offset": 0,
						"slot": "5",
						"type": "t_bool"
					},
					{
						"astId": 48,
						"contract": "Voting Contract/myVoting.sol:VotingContract",
						"label": "CandidateDetails",
						"offset": 0,
						"slot": "6",
						"type": "t_mapping(t_uint256,t_struct(Candidate)29_storage)"
					},
					{
						"astId": 53,
						"contract": "Voting Contract/myVoting.sol:VotingContract",
						"label": "VoterDetails",
						"offset": 0,
						"slot": "7",
						"type": "t_mapping(t_uint256,t_struct(Voter)14_storage)"
					},
					{
						"astId": 55,
						"contract": "Voting Contract/myVoting.sol:VotingContract",
						"label": "ElectionComission",
						"offset": 0,
						"slot": "8",
						"type": "t_address"
					},
					{
						"astId": 57,
						"contract": "Voting Contract/myVoting.sol:VotingContract",
						"label": "winner",
						"offset": 0,
						"slot": "9",
						"type": "t_address"
					},
					{
						"astId": 60,
						"contract": "Voting Contract/myVoting.sol:VotingContract",
						"label": "nextVoterID",
						"offset": 0,
						"slot": "10",
						"type": "t_uint256"
					},
					{
						"astId": 63,
						"contract": "Voting Contract/myVoting.sol:VotingContract",
						"label": "nextCandidateID",
						"offset": 0,
						"slot": "11",
						"type": "t_uint256"
					},
					{
						"astId": 66,
						"contract": "Voting Contract/myVoting.sol:VotingContract",
						"label": "stopVoting",
						"offset": 0,
						"slot": "12",
						"type": "t_bool"
					}
				],
				"types": {
					"t_address": {
						"encoding": "inplace",
						"label": "address",
						"numberOfBytes": "20"
					},
					"t_bool": {
						"encoding": "inplace",
						"label": "bool",
						"numberOfBytes": "1"
					},
					"t_mapping(t_uint256,t_struct(Candidate)29_storage)": {
						"encoding": "mapping",
						"key": "t_uint256",
						"label": "mapping(uint256 => struct VotingContract.Candidate)",
						"numberOfBytes": "32",
						"value": "t_struct(Candidate)29_storage"
					},
					"t_mapping(t_uint256,t_struct(Voter)14_storage)": {
						"encoding": "mapping",
						"key": "t_uint256",
						"label": "mapping(uint256 => struct VotingContract.Voter)",
						"numberOfBytes": "32",
						"value": "t_struct(Voter)14_storage"
					},
					"t_string_storage": {
						"encoding": "bytes",
						"label": "string",
						"numberOfBytes": "32"
					},
					"t_struct(Candidate)29_storage": {
						"encoding": "inplace",
						"label": "struct VotingContract.Candidate",
						"members": [
							{
								"astId": 16,
								"contract": "Voting Contract/myVoting.sol:VotingContract",
								"label": "name",
								"offset": 0,
								"slot": "0",
								"type": "t_string_storage"
							},
							{
								"astId": 18,
								"contract": "Voting Contract/myVoting.sol:VotingContract",
								"label": "age",
								"offset": 0,
								"slot": "1",
								"type": "t_uint256"
							},
							{
								"astId": 20,
								"contract": "Voting Contract/myVoting.sol:VotingContract",
								"label": "party",
								"offset": 0,
								"slot": "2",
								"type": "t_string_storage"
							},
							{
								"astId": 22,
								"contract": "Voting Contract/myVoting.sol:VotingContract",
								"label": "candidateID",
								"offset": 0,
								"slot": "3",
								"type": "t_uint256"
							},
							{
								"astId": 24,
								"contract": "Voting Contract/myVoting.sol:VotingContract",
								"label": "gender",
								"offset": 0,
								"slot": "4",
								"type": "t_string_storage"
							},
							{
								"astId": 26,
								"contract": "Voting Contract/myVoting.sol:VotingContract",
								"label": "candidateAddress",
								"offset": 0,
								"slot": "5",
								"type": "t_address"
							},
							{
								"astId": 28,
								"contract": "Voting Contract/myVoting.sol:VotingContract",
								"label": "votes",
								"offset": 0,
								"slot": "6",
								"type": "t_uint256"
							}
						],
						"numberOfBytes": "224"
					},
					"t_struct(Voter)14_storage": {
						"encoding": "inplace",
						"label": "struct VotingContract.Voter",
						"members": [
							{
								"astId": 3,
								"contract": "Voting Contract/myVoting.sol:VotingContract",
								"label": "name",
								"offset": 0,
								"slot": "0",
								"type": "t_string_storage"
							},
							{
								"astId": 5,
								"contract": "Voting Contract/myVoting.sol:VotingContract",
								"label": "age",
								"offset": 0,
								"slot": "1",
								"type": "t_uint256"
							},
							{
								"astId": 7,
								"contract": "Voting Contract/myVoting.sol:VotingContract",
								"label": "voterID",
								"offset": 0,
								"slot": "2",
								"type": "t_uint256"
							},
							{
								"astId": 9,
								"contract": "Voting Contract/myVoting.sol:VotingContract",
								"label": "gender",
								"offset": 0,
								"slot": "3",
								"type": "t_string_storage"
							},
							{
								"astId": 11,
								"contract": "Voting Contract/myVoting.sol:VotingContract",
								"label": "voteCandidateID",
								"offset": 0,
								"slot": "4",
								"type": "t_uint256"
							},
							{
								"astId": 13,
								"contract": "Voting Contract/myVoting.sol:VotingContract",
								"label": "voterAddress",
								"offset": 0,
								"slot": "5",
								"type": "t_address"
							}
						],
						"numberOfBytes": "192"
					},
					"t_uint256": {
						"encoding": "inplace",
						"label": "uint256",
						"numberOfBytes": "32"
					}
				}
			},
			"userdoc": {
				"kind": "user",
				"methods": {},
				"version": 1
			}
		}
	}
}