{
	"Voting Contract/voting.sol": {
		"Voting_Contract": {
			"abi": [
				{
					"inputs": [],
					"stateMutability": "nonpayable",
					"type": "constructor"
				},
				{
					"inputs": [],
					"name": "WinnerDeclaration",
					"outputs": [
						{
							"internalType": "address",
							"name": "",
							"type": "address"
						}
					],
					"stateMutability": "nonpayable",
					"type": "function"
				},
				{
					"inputs": [],
					"name": "candidateList",
					"outputs": [
						{
							"components": [
								{
									"internalType": "string",
									"name": "name",
									"type": "string"
								},
								{
									"internalType": "uint256",
									"name": "age",
									"type": "uint256"
								},
								{
									"internalType": "string",
									"name": "party",
									"type": "string"
								},
								{
									"internalType": "uint256",
									"name": "candidateID",
									"type": "uint256"
								},
								{
									"internalType": "string",
									"name": "gender",
									"type": "string"
								},
								{
									"internalType": "address",
									"name": "candidateAddress",
									"type": "address"
								},
								{
									"internalType": "uint256",
									"name": "votes",
									"type": "uint256"
								}
							],
							"internalType": "struct Voting_Contract.candidate[]",
							"name": "",
							"type": "tuple[]"
						}
					],
					"stateMutability": "view",
					"type": "function"
				},
				{
					"inputs": [
						{
							"internalType": "string",
							"name": "_name",
							"type": "string"
						},
						{
							"internalType": "uint256",
							"name": "_age",
							"type": "uint256"
						},
						{
							"internalType": "string",
							"name": "_party",
							"type": "string"
						},
						{
							"internalType": "string",
							"name": "_gender",
							"type": "string"
						}
					],
					"name": "candidateRegister",
					"outputs": [],
					"stateMutability": "nonpayable",
					"type": "function"
				},
				{
					"inputs": [
						{
							"internalType": "uint256",
							"name": "_voterID",
							"type": "uint256"
						},
						{
							"internalType": "uint256",
							"name": "_ID",
							"type": "uint256"
						}
					],
					"name": "vote",
					"outputs": [],
					"stateMutability": "nonpayable",
					"type": "function"
				},
				{
					"inputs": [],
					"name": "voterList",
					"outputs": [
						{
							"components": [
								{
									"internalType": "string",
									"name": "name",
									"type": "string"
								},
								{
									"internalType": "uint256",
									"name": "age",
									"type": "uint256"
								},
								{
									"internalType": "uint256",
									"name": "voterID",
									"type": "uint256"
								},
								{
									"internalType": "string",
									"name": "gender",
									"type": "string"
								},
								{
									"internalType": "uint256",
									"name": "voteCandidateID",
									"type": "uint256"
								},
								{
									"internalType": "address",
									"name": "voterAddress",
									"type": "address"
								}
							],
							"internalType": "struct Voting_Contract.voter[]",
							"name": "",
							"type": "tuple[]"
						}
					],
					"stateMutability": "view",
					"type": "function"
				},
				{
					"inputs": [
						{
							"internalType": "string",
							"name": "_name",
							"type": "string"
						},
						{
							"internalType": "uint256",
							"name": "_age",
							"type": "uint256"
						},
						{
							"internalType": "string",
							"name": "_gender",
							"type": "string"
						}
					],
					"name": "voterRegister",
					"outputs": [],
					"stateMutability": "nonpayable",
					"type": "function"
				},
				{
					"inputs": [],
					"name": "votingStatus",
					"outputs": [
						{
							"internalType": "string",
							"name": "",
							"type": "string"
						},
						{
							"internalType": "bool",
							"name": "",
							"type": "bool"
						}
					],
					"stateMutability": "view",
					"type": "function"
				},
				{
					"inputs": [
						{
							"internalType": "uint256",
							"name": "_startTime",
							"type": "uint256"
						},
						{
							"internalType": "uint256",
							"name": "_endTime",
							"type": "uint256"
						}
					],
					"name": "votingTimeImmediate",
					"outputs": [],
					"stateMutability": "nonpayable",
					"type": "function"
				},
				{
					"inputs": [],
					"name": "winner",
					"outputs": [
						{
							"internalType": "address",
							"name": "",
							"type": "address"
						}
					],
					"stateMutability": "view",
					"type": "function"
				}
			],
			"devdoc": {
				"kind": "dev",
				"methods": {},
				"version": 1
			},
			"evm": {
				"assembly": "    /* \"Voting Contract/voting.sol\":79:5061  contract Voting_Contract{... */\n  mstore(0x40, 0x80)\n    /* \"Voting Contract/voting.sol\":668:669  1 */\n  0x01\n    /* \"Voting Contract/voting.sol\":645:669  uint nextCandidateID = 1 */\n  0x04\n  sstore\n    /* \"Voting Contract/voting.sol\":695:696  1 */\n  0x01\n    /* \"Voting Contract/voting.sol\":676:696  uint nextVoterID = 1 */\n  0x05\n  sstore\n    /* \"Voting Contract/voting.sol\":723:728  false */\n  0x00\n    /* \"Voting Contract/voting.sol\":705:728  bool stopVoting = false */\n  0x06\n  exp(0x0100, 0x00)\n  dup2\n  sload\n  dup2\n  0xff\n  mul\n  not\n  and\n  swap1\n  dup4\n  iszero\n  iszero\n  mul\n  or\n  swap1\n  sstore\n  pop\n    /* \"Voting Contract/voting.sol\":779:841  constructor(){... */\n  callvalue\n  dup1\n  iszero\n  tag_1\n  jumpi\n  0x00\n  dup1\n  revert\ntag_1:\n  pop\n    /* \"Voting Contract/voting.sol\":823:833  msg.sender */\n  caller\n    /* \"Voting Contract/voting.sol\":803:820  electionComission */\n  0x00\n  dup1\n    /* \"Voting Contract/voting.sol\":803:833  electionComission = msg.sender */\n  0x0100\n  exp\n  dup2\n  sload\n  dup2\n  0xffffffffffffffffffffffffffffffffffffffff\n  mul\n  not\n  and\n  swap1\n  dup4\n  0xffffffffffffffffffffffffffffffffffffffff\n  and\n  mul\n  or\n  swap1\n  sstore\n  pop\n    /* \"Voting Contract/voting.sol\":79:5061  contract Voting_Contract{... */\n  dataSize(sub_0)\n  dup1\n  dataOffset(sub_0)\n  0x00\n  codecopy\n  0x00\n  return\nstop\n\nsub_0: assembly {\n        /* \"Voting Contract/voting.sol\":79:5061  contract Voting_Contract{... */\n      mstore(0x40, 0x80)\n      callvalue\n      dup1\n      iszero\n      tag_1\n      jumpi\n      0x00\n      dup1\n      revert\n    tag_1:\n      pop\n      jumpi(tag_2, lt(calldatasize, 0x04))\n      shr(0xe0, calldataload(0x00))\n      dup1\n      0x69042bec\n      gt\n      tag_12\n      jumpi\n      dup1\n      0x69042bec\n      eq\n      tag_7\n      jumpi\n      dup1\n      0x93e5fed2\n      eq\n      tag_8\n      jumpi\n      dup1\n      0xb1fbcd08\n      eq\n      tag_9\n      jumpi\n      dup1\n      0xb384abef\n      eq\n      tag_10\n      jumpi\n      dup1\n      0xdfbf53ae\n      eq\n      tag_11\n      jumpi\n      jump(tag_2)\n    tag_12:\n      dup1\n      0x1436311f\n      eq\n      tag_3\n      jumpi\n      dup1\n      0x19f41a40\n      eq\n      tag_4\n      jumpi\n      dup1\n      0x24089918\n      eq\n      tag_5\n      jumpi\n      dup1\n      0x498ea441\n      eq\n      tag_6\n      jumpi\n    tag_2:\n      0x00\n      dup1\n      revert\n        /* \"Voting Contract/voting.sol\":4125:4320  function votingTimeImmediate(uint _startTime, uint _endTime) external onlyElectionComission() {... */\n    tag_3:\n      tag_13\n      0x04\n      dup1\n      calldatasize\n      sub\n      dup2\n      add\n      swap1\n      tag_14\n      swap2\n      swap1\n      tag_15\n      jump\t// in\n    tag_14:\n      tag_16\n      jump\t// in\n    tag_13:\n      stop\n        /* \"Voting Contract/voting.sol\":4326:4678  function votingStatus() public view returns(string memory, bool){... */\n    tag_4:\n      tag_17\n      tag_18\n      jump\t// in\n    tag_17:\n      mload(0x40)\n      tag_19\n      swap3\n      swap2\n      swap1\n      tag_20\n      jump\t// in\n    tag_19:\n      mload(0x40)\n      dup1\n      swap2\n      sub\n      swap1\n      return\n        /* \"Voting Contract/voting.sol\":3121:3378  function voterList() public view returns(voter[] memory){... */\n    tag_5:\n      tag_21\n      tag_22\n      jump\t// in\n    tag_21:\n      mload(0x40)\n      tag_23\n      swap2\n      swap1\n      tag_24\n      jump\t// in\n    tag_23:\n      mload(0x40)\n      dup1\n      swap2\n      sub\n      swap1\n      return\n        /* \"Voting Contract/voting.sol\":2086:2389  function candidateList() public view returns(candidate[] memory){... */\n    tag_6:\n      tag_25\n      tag_26\n      jump\t// in\n    tag_25:\n      mload(0x40)\n      tag_27\n      swap2\n      swap1\n      tag_28\n      jump\t// in\n    tag_27:\n      mload(0x40)\n      dup1\n      swap2\n      sub\n      swap1\n      return\n        /* \"Voting Contract/voting.sol\":1137:1778  function candidateRegister(... */\n    tag_7:\n      tag_29\n      0x04\n      dup1\n      calldatasize\n      sub\n      dup2\n      add\n      swap1\n      tag_30\n      swap2\n      swap1\n      tag_31\n      jump\t// in\n    tag_30:\n      tag_32\n      jump\t// in\n    tag_29:\n      stop\n        /* \"Voting Contract/voting.sol\":2397:2826  function voterRegister(... */\n    tag_8:\n      tag_33\n      0x04\n      dup1\n      calldatasize\n      sub\n      dup2\n      add\n      swap1\n      tag_34\n      swap2\n      swap1\n      tag_35\n      jump\t// in\n    tag_34:\n      tag_36\n      jump\t// in\n    tag_33:\n      stop\n        /* \"Voting Contract/voting.sol\":4684:5058  function WinnerDeclaration() public onlyElectionComission()  returns(address) {... */\n    tag_9:\n      tag_37\n      tag_38\n      jump\t// in\n    tag_37:\n      mload(0x40)\n      tag_39\n      swap2\n      swap1\n      tag_40\n      jump\t// in\n    tag_39:\n      mload(0x40)\n      dup1\n      swap2\n      sub\n      swap1\n      return\n        /* \"Voting Contract/voting.sol\":3386:3933  function vote(uint _voterID, uint _ID) external {... */\n    tag_10:\n      tag_41\n      0x04\n      dup1\n      calldatasize\n      sub\n      dup2\n      add\n      swap1\n      tag_42\n      swap2\n      swap1\n      tag_15\n      jump\t// in\n    tag_42:\n      tag_43\n      jump\t// in\n    tag_41:\n      stop\n        /* \"Voting Contract/voting.sol\":524:545  address public winner */\n    tag_11:\n      tag_44\n      tag_45\n      jump\t// in\n    tag_44:\n      mload(0x40)\n      tag_46\n      swap2\n      swap1\n      tag_40\n      jump\t// in\n    tag_46:\n      mload(0x40)\n      dup1\n      swap2\n      sub\n      swap1\n      return\n        /* \"Voting Contract/voting.sol\":4125:4320  function votingTimeImmediate(uint _startTime, uint _endTime) external onlyElectionComission() {... */\n    tag_16:\n        /* \"Voting Contract/voting.sol\":915:932  electionComission */\n      0x00\n      dup1\n      sload\n      swap1\n      0x0100\n      exp\n      swap1\n      div\n      0xffffffffffffffffffffffffffffffffffffffff\n      and\n        /* \"Voting Contract/voting.sol\":901:932  msg.sender == electionComission */\n      0xffffffffffffffffffffffffffffffffffffffff\n      and\n        /* \"Voting Contract/voting.sol\":901:911  msg.sender */\n      caller\n        /* \"Voting Contract/voting.sol\":901:932  msg.sender == electionComission */\n      0xffffffffffffffffffffffffffffffffffffffff\n      and\n      eq\n        /* \"Voting Contract/voting.sol\":893:972  require(msg.sender == electionComission, \"You are not from election comission\") */\n      tag_48\n      jumpi\n      mload(0x40)\n      0x08c379a000000000000000000000000000000000000000000000000000000000\n      dup2\n      mstore\n      0x04\n      add\n      tag_49\n      swap1\n      tag_50\n      jump\t// in\n    tag_49:\n      mload(0x40)\n      dup1\n      swap2\n      sub\n      swap1\n      revert\n    tag_48:\n        /* \"Voting Contract/voting.sol\":4255:4270  block.timestamp */\n      timestamp\n        /* \"Voting Contract/voting.sol\":4242:4252  _startTime */\n      dup3\n        /* \"Voting Contract/voting.sol\":4242:4270  _startTime + block.timestamp */\n      tag_52\n      swap2\n      swap1\n      tag_53\n      jump\t// in\n    tag_52:\n        /* \"Voting Contract/voting.sol\":4230:4239  startTime */\n      0x07\n        /* \"Voting Contract/voting.sol\":4230:4270  startTime = _startTime + block.timestamp */\n      dup2\n      swap1\n      sstore\n      pop\n        /* \"Voting Contract/voting.sol\":4302:4312  _startTime */\n      dup2\n        /* \"Voting Contract/voting.sol\":4291:4299  _endTime */\n      dup2\n        /* \"Voting Contract/voting.sol\":4291:4312  _endTime + _startTime */\n      tag_54\n      swap2\n      swap1\n      tag_53\n      jump\t// in\n    tag_54:\n        /* \"Voting Contract/voting.sol\":4281:4288  endTime */\n      0x08\n        /* \"Voting Contract/voting.sol\":4281:4312  endTime = _endTime + _startTime */\n      dup2\n      swap1\n      sstore\n      pop\n        /* \"Voting Contract/voting.sol\":4125:4320  function votingTimeImmediate(uint _startTime, uint _endTime) external onlyElectionComission() {... */\n      pop\n      pop\n      jump\t// out\n        /* \"Voting Contract/voting.sol\":4326:4678  function votingStatus() public view returns(string memory, bool){... */\n    tag_18:\n        /* \"Voting Contract/voting.sol\":4370:4383  string memory */\n      0x60\n        /* \"Voting Contract/voting.sol\":4385:4389  bool */\n      0x00\n        /* \"Voting Contract/voting.sol\":4416:4417  0 */\n      dup1\n        /* \"Voting Contract/voting.sol\":4404:4413  startTime */\n      sload(0x07)\n        /* \"Voting Contract/voting.sol\":4404:4417  startTime ==0 */\n      sub\n        /* \"Voting Contract/voting.sol\":4401:4671  if(startTime ==0){... */\n      tag_56\n      jumpi\n        /* \"Voting Contract/voting.sol\":4466:4471  false */\n      0x00\n        /* \"Voting Contract/voting.sol\":4433:4472  return (\"Voting is not started\", false) */\n      mload(0x40)\n      dup1\n      0x40\n      add\n      0x40\n      mstore\n      dup1\n      0x15\n      dup2\n      mstore\n      0x20\n      add\n      0x566f74696e67206973206e6f7420737461727465640000000000000000000000\n      dup2\n      mstore\n      pop\n      swap1\n      swap2\n      pop\n      swap2\n      pop\n      jump(tag_55)\n        /* \"Voting Contract/voting.sol\":4401:4671  if(startTime ==0){... */\n    tag_56:\n        /* \"Voting Contract/voting.sol\":4503:4518  block.timestamp */\n      timestamp\n        /* \"Voting Contract/voting.sol\":4493:4500  endTime */\n      sload(0x08)\n        /* \"Voting Contract/voting.sol\":4493:4518  endTime > block.timestamp */\n      gt\n        /* \"Voting Contract/voting.sol\":4493:4541  endTime > block.timestamp && stopVoting == false */\n      dup1\n      iszero\n      tag_58\n      jumpi\n      pop\n        /* \"Voting Contract/voting.sol\":4536:4541  false */\n      0x00\n        /* \"Voting Contract/voting.sol\":4522:4541  stopVoting == false */\n      iszero\n      iszero\n        /* \"Voting Contract/voting.sol\":4522:4532  stopVoting */\n      0x06\n      0x00\n      swap1\n      sload\n      swap1\n      0x0100\n      exp\n      swap1\n      div\n      0xff\n      and\n        /* \"Voting Contract/voting.sol\":4522:4541  stopVoting == false */\n      iszero\n      iszero\n      eq\n        /* \"Voting Contract/voting.sol\":4493:4541  endTime > block.timestamp && stopVoting == false */\n    tag_58:\n        /* \"Voting Contract/voting.sol\":4490:4671  if(endTime > block.timestamp && stopVoting == false){... */\n      iszero\n      tag_59\n      jumpi\n        /* \"Voting Contract/voting.sol\":4590:4594  true */\n      0x01\n        /* \"Voting Contract/voting.sol\":4557:4595  return (\"Voting is in progress\", true) */\n      mload(0x40)\n      dup1\n      0x40\n      add\n      0x40\n      mstore\n      dup1\n      0x15\n      dup2\n      mstore\n      0x20\n      add\n      0x566f74696e6720697320696e2070726f67726573730000000000000000000000\n      dup2\n      mstore\n      pop\n      swap1\n      swap2\n      pop\n      swap2\n      pop\n      jump(tag_55)\n        /* \"Voting Contract/voting.sol\":4490:4671  if(endTime > block.timestamp && stopVoting == false){... */\n    tag_59:\n        /* \"Voting Contract/voting.sol\":4653:4658  false */\n      0x00\n        /* \"Voting Contract/voting.sol\":4627:4659  return (\"Voting is over\", false) */\n      mload(0x40)\n      dup1\n      0x40\n      add\n      0x40\n      mstore\n      dup1\n      0x0e\n      dup2\n      mstore\n      0x20\n      add\n      0x566f74696e67206973206f766572000000000000000000000000000000000000\n      dup2\n      mstore\n      pop\n      swap1\n      swap2\n      pop\n      swap2\n      pop\n        /* \"Voting Contract/voting.sol\":4326:4678  function votingStatus() public view returns(string memory, bool){... */\n    tag_55:\n      swap1\n      swap2\n      jump\t// out\n        /* \"Voting Contract/voting.sol\":3121:3378  function voterList() public view returns(voter[] memory){... */\n    tag_22:\n        /* \"Voting Contract/voting.sol\":3162:3176  voter[] memory */\n      0x60\n        /* \"Voting Contract/voting.sol\":3188:3212  voter[] memory VoterList */\n      0x00\n        /* \"Voting Contract/voting.sol\":3239:3240  1 */\n      0x01\n        /* \"Voting Contract/voting.sol\":3227:3238  nextVoterID */\n      sload(0x05)\n        /* \"Voting Contract/voting.sol\":3227:3240  nextVoterID-1 */\n      tag_62\n      swap2\n      swap1\n      tag_63\n      jump\t// in\n    tag_62:\n        /* \"Voting Contract/voting.sol\":3215:3241  new voter[](nextVoterID-1) */\n      0xffffffffffffffff\n      dup2\n      gt\n      iszero\n      tag_64\n      jumpi\n      tag_65\n      tag_66\n      jump\t// in\n    tag_65:\n    tag_64:\n      mload(0x40)\n      swap1\n      dup1\n      dup3\n      mstore\n      dup1\n      0x20\n      mul\n      0x20\n      add\n      dup3\n      add\n      0x40\n      mstore\n      dup1\n      iszero\n      tag_67\n      jumpi\n      dup2\n      0x20\n      add\n    tag_68:\n      tag_69\n      tag_70\n      jump\t// in\n    tag_69:\n      dup2\n      mstore\n      0x20\n      add\n      swap1\n      0x01\n      swap1\n      sub\n      swap1\n      dup2\n      tag_68\n      jumpi\n      swap1\n      pop\n    tag_67:\n      pop\n        /* \"Voting Contract/voting.sol\":3188:3241  voter[] memory VoterList = new voter[](nextVoterID-1) */\n      swap1\n      pop\n        /* \"Voting Contract/voting.sol\":3256:3262  uint i */\n      0x00\n        /* \"Voting Contract/voting.sol\":3263:3264  1 */\n      0x01\n        /* \"Voting Contract/voting.sol\":3256:3264  uint i=1 */\n      swap1\n      pop\n        /* \"Voting Contract/voting.sol\":3252:3344  for(uint i=1; i<nextVoterID; i++){... */\n    tag_71:\n        /* \"Voting Contract/voting.sol\":3268:3279  nextVoterID */\n      sload(0x05)\n        /* \"Voting Contract/voting.sol\":3266:3267  i */\n      dup2\n        /* \"Voting Contract/voting.sol\":3266:3279  i<nextVoterID */\n      lt\n        /* \"Voting Contract/voting.sol\":3252:3344  for(uint i=1; i<nextVoterID; i++){... */\n      iszero\n      tag_72\n      jumpi\n        /* \"Voting Contract/voting.sol\":3317:3329  voterDetails */\n      0x03\n        /* \"Voting Contract/voting.sol\":3317:3332  voterDetails[i] */\n      0x00\n        /* \"Voting Contract/voting.sol\":3330:3331  i */\n      dup3\n        /* \"Voting Contract/voting.sol\":3317:3332  voterDetails[i] */\n      dup2\n      mstore\n      0x20\n      add\n      swap1\n      dup2\n      mstore\n      0x20\n      add\n      0x00\n      keccak256\n        /* \"Voting Contract/voting.sol\":3300:3332  VoterList[i-1] = voterDetails[i] */\n      mload(0x40)\n      dup1\n      0xc0\n      add\n      0x40\n      mstore\n      swap1\n      dup2\n      0x00\n      dup3\n      add\n      dup1\n      sload\n      tag_74\n      swap1\n      tag_75\n      jump\t// in\n    tag_74:\n      dup1\n      0x1f\n      add\n      0x20\n      dup1\n      swap2\n      div\n      mul\n      0x20\n      add\n      mload(0x40)\n      swap1\n      dup2\n      add\n      0x40\n      mstore\n      dup1\n      swap3\n      swap2\n      swap1\n      dup2\n      dup2\n      mstore\n      0x20\n      add\n      dup3\n      dup1\n      sload\n      tag_76\n      swap1\n      tag_75\n      jump\t// in\n    tag_76:\n      dup1\n      iszero\n      tag_77\n      jumpi\n      dup1\n      0x1f\n      lt\n      tag_78\n      jumpi\n      0x0100\n      dup1\n      dup4\n      sload\n      div\n      mul\n      dup4\n      mstore\n      swap2\n      0x20\n      add\n      swap2\n      jump(tag_77)\n    tag_78:\n      dup3\n      add\n      swap2\n      swap1\n      0x00\n      mstore\n      keccak256(0x00, 0x20)\n      swap1\n    tag_79:\n      dup2\n      sload\n      dup2\n      mstore\n      swap1\n      0x01\n      add\n      swap1\n      0x20\n      add\n      dup1\n      dup4\n      gt\n      tag_79\n      jumpi\n      dup3\n      swap1\n      sub\n      0x1f\n      and\n      dup3\n      add\n      swap2\n    tag_77:\n      pop\n      pop\n      pop\n      pop\n      pop\n      dup2\n      mstore\n      0x20\n      add\n      0x01\n      dup3\n      add\n      sload\n      dup2\n      mstore\n      0x20\n      add\n      0x02\n      dup3\n      add\n      sload\n      dup2\n      mstore\n      0x20\n      add\n      0x03\n      dup3\n      add\n      dup1\n      sload\n      tag_80\n      swap1\n      tag_75\n      jump\t// in\n    tag_80:\n      dup1\n      0x1f\n      add\n      0x20\n      dup1\n      swap2\n      div\n      mul\n      0x20\n      add\n      mload(0x40)\n      swap1\n      dup2\n      add\n      0x40\n      mstore\n      dup1\n      swap3\n      swap2\n      swap1\n      dup2\n      dup2\n      mstore\n      0x20\n      add\n      dup3\n      dup1\n      sload\n      tag_81\n      swap1\n      tag_75\n      jump\t// in\n    tag_81:\n      dup1\n      iszero\n      tag_82\n      jumpi\n      dup1\n      0x1f\n      lt\n      tag_83\n      jumpi\n      0x0100\n      dup1\n      dup4\n      sload\n      div\n      mul\n      dup4\n      mstore\n      swap2\n      0x20\n      add\n      swap2\n      jump(tag_82)\n    tag_83:\n      dup3\n      add\n      swap2\n      swap1\n      0x00\n      mstore\n      keccak256(0x00, 0x20)\n      swap1\n    tag_84:\n      dup2\n      sload\n      dup2\n      mstore\n      swap1\n      0x01\n      add\n      swap1\n      0x20\n      add\n      dup1\n      dup4\n      gt\n      tag_84\n      jumpi\n      dup3\n      swap1\n      sub\n      0x1f\n      and\n      dup3\n      add\n      swap2\n    tag_82:\n      pop\n      pop\n      pop\n      pop\n      pop\n      dup2\n      mstore\n      0x20\n      add\n      0x04\n      dup3\n      add\n      sload\n      dup2\n      mstore\n      0x20\n      add\n      0x05\n      dup3\n      add\n      0x00\n      swap1\n      sload\n      swap1\n      0x0100\n      exp\n      swap1\n      div\n      0xffffffffffffffffffffffffffffffffffffffff\n      and\n      0xffffffffffffffffffffffffffffffffffffffff\n      and\n      0xffffffffffffffffffffffffffffffffffffffff\n      and\n      dup2\n      mstore\n      pop\n      pop\n        /* \"Voting Contract/voting.sol\":3300:3309  VoterList */\n      dup3\n        /* \"Voting Contract/voting.sol\":3312:3313  1 */\n      0x01\n        /* \"Voting Contract/voting.sol\":3310:3311  i */\n      dup4\n        /* \"Voting Contract/voting.sol\":3310:3313  i-1 */\n      tag_85\n      swap2\n      swap1\n      tag_63\n      jump\t// in\n    tag_85:\n        /* \"Voting Contract/voting.sol\":3300:3314  VoterList[i-1] */\n      dup2\n      mload\n      dup2\n      lt\n      tag_86\n      jumpi\n      tag_87\n      tag_88\n      jump\t// in\n    tag_87:\n    tag_86:\n      0x20\n      mul\n      0x20\n      add\n      add\n        /* \"Voting Contract/voting.sol\":3300:3332  VoterList[i-1] = voterDetails[i] */\n      dup2\n      swap1\n      mstore\n      pop\n        /* \"Voting Contract/voting.sol\":3281:3284  i++ */\n      dup1\n      dup1\n      tag_89\n      swap1\n      tag_90\n      jump\t// in\n    tag_89:\n      swap2\n      pop\n      pop\n        /* \"Voting Contract/voting.sol\":3252:3344  for(uint i=1; i<nextVoterID; i++){... */\n      jump(tag_71)\n    tag_72:\n      pop\n        /* \"Voting Contract/voting.sol\":3361:3370  VoterList */\n      dup1\n        /* \"Voting Contract/voting.sol\":3354:3370  return VoterList */\n      swap2\n      pop\n      pop\n        /* \"Voting Contract/voting.sol\":3121:3378  function voterList() public view returns(voter[] memory){... */\n      swap1\n      jump\t// out\n        /* \"Voting Contract/voting.sol\":2086:2389  function candidateList() public view returns(candidate[] memory){... */\n    tag_26:\n        /* \"Voting Contract/voting.sol\":2131:2149  candidate[] memory */\n      0x60\n        /* \"Voting Contract/voting.sol\":2161:2194  candidate[] memory CandidatesList */\n      0x00\n        /* \"Voting Contract/voting.sol\":2231:2232  1 */\n      0x01\n        /* \"Voting Contract/voting.sol\":2213:2228  nextCandidateID */\n      sload(0x04)\n        /* \"Voting Contract/voting.sol\":2213:2232  nextCandidateID - 1 */\n      tag_92\n      swap2\n      swap1\n      tag_63\n      jump\t// in\n    tag_92:\n        /* \"Voting Contract/voting.sol\":2197:2233  new candidate[](nextCandidateID - 1) */\n      0xffffffffffffffff\n      dup2\n      gt\n      iszero\n      tag_93\n      jumpi\n      tag_94\n      tag_66\n      jump\t// in\n    tag_94:\n    tag_93:\n      mload(0x40)\n      swap1\n      dup1\n      dup3\n      mstore\n      dup1\n      0x20\n      mul\n      0x20\n      add\n      dup3\n      add\n      0x40\n      mstore\n      dup1\n      iszero\n      tag_95\n      jumpi\n      dup2\n      0x20\n      add\n    tag_96:\n      tag_97\n      tag_98\n      jump\t// in\n    tag_97:\n      dup2\n      mstore\n      0x20\n      add\n      swap1\n      0x01\n      swap1\n      sub\n      swap1\n      dup2\n      tag_96\n      jumpi\n      swap1\n      pop\n    tag_95:\n      pop\n        /* \"Voting Contract/voting.sol\":2161:2233  candidate[] memory CandidatesList = new candidate[](nextCandidateID - 1) */\n      swap1\n      pop\n        /* \"Voting Contract/voting.sol\":2248:2254  uint i */\n      0x00\n        /* \"Voting Contract/voting.sol\":2255:2256  1 */\n      0x01\n        /* \"Voting Contract/voting.sol\":2248:2256  uint i=1 */\n      swap1\n      pop\n        /* \"Voting Contract/voting.sol\":2244:2350  for(uint i=1; i<nextCandidateID; i++){... */\n    tag_99:\n        /* \"Voting Contract/voting.sol\":2260:2275  nextCandidateID */\n      sload(0x04)\n        /* \"Voting Contract/voting.sol\":2258:2259  i */\n      dup2\n        /* \"Voting Contract/voting.sol\":2258:2275  i<nextCandidateID */\n      lt\n        /* \"Voting Contract/voting.sol\":2244:2350  for(uint i=1; i<nextCandidateID; i++){... */\n      iszero\n      tag_100\n      jumpi\n        /* \"Voting Contract/voting.sol\":2318:2335  candidatesDetails */\n      0x02\n        /* \"Voting Contract/voting.sol\":2318:2338  candidatesDetails[i] */\n      0x00\n        /* \"Voting Contract/voting.sol\":2336:2337  i */\n      dup3\n        /* \"Voting Contract/voting.sol\":2318:2338  candidatesDetails[i] */\n      dup2\n      mstore\n      0x20\n      add\n      swap1\n      dup2\n      mstore\n      0x20\n      add\n      0x00\n      keccak256\n        /* \"Voting Contract/voting.sol\":2296:2338  CandidatesList[i-1] = candidatesDetails[i] */\n      mload(0x40)\n      dup1\n      0xe0\n      add\n      0x40\n      mstore\n      swap1\n      dup2\n      0x00\n      dup3\n      add\n      dup1\n      sload\n      tag_102\n      swap1\n      tag_75\n      jump\t// in\n    tag_102:\n      dup1\n      0x1f\n      add\n      0x20\n      dup1\n      swap2\n      div\n      mul\n      0x20\n      add\n      mload(0x40)\n      swap1\n      dup2\n      add\n      0x40\n      mstore\n      dup1\n      swap3\n      swap2\n      swap1\n      dup2\n      dup2\n      mstore\n      0x20\n      add\n      dup3\n      dup1\n      sload\n      tag_103\n      swap1\n      tag_75\n      jump\t// in\n    tag_103:\n      dup1\n      iszero\n      tag_104\n      jumpi\n      dup1\n      0x1f\n      lt\n      tag_105\n      jumpi\n      0x0100\n      dup1\n      dup4\n      sload\n      div\n      mul\n      dup4\n      mstore\n      swap2\n      0x20\n      add\n      swap2\n      jump(tag_104)\n    tag_105:\n      dup3\n      add\n      swap2\n      swap1\n      0x00\n      mstore\n      keccak256(0x00, 0x20)\n      swap1\n    tag_106:\n      dup2\n      sload\n      dup2\n      mstore\n      swap1\n      0x01\n      add\n      swap1\n      0x20\n      add\n      dup1\n      dup4\n      gt\n      tag_106\n      jumpi\n      dup3\n      swap1\n      sub\n      0x1f\n      and\n      dup3\n      add\n      swap2\n    tag_104:\n      pop\n      pop\n      pop\n      pop\n      pop\n      dup2\n      mstore\n      0x20\n      add\n      0x01\n      dup3\n      add\n      sload\n      dup2\n      mstore\n      0x20\n      add\n      0x02\n      dup3\n      add\n      dup1\n      sload\n      tag_107\n      swap1\n      tag_75\n      jump\t// in\n    tag_107:\n      dup1\n      0x1f\n      add\n      0x20\n      dup1\n      swap2\n      div\n      mul\n      0x20\n      add\n      mload(0x40)\n      swap1\n      dup2\n      add\n      0x40\n      mstore\n      dup1\n      swap3\n      swap2\n      swap1\n      dup2\n      dup2\n      mstore\n      0x20\n      add\n      dup3\n      dup1\n      sload\n      tag_108\n      swap1\n      tag_75\n      jump\t// in\n    tag_108:\n      dup1\n      iszero\n      tag_109\n      jumpi\n      dup1\n      0x1f\n      lt\n      tag_110\n      jumpi\n      0x0100\n      dup1\n      dup4\n      sload\n      div\n      mul\n      dup4\n      mstore\n      swap2\n      0x20\n      add\n      swap2\n      jump(tag_109)\n    tag_110:\n      dup3\n      add\n      swap2\n      swap1\n      0x00\n      mstore\n      keccak256(0x00, 0x20)\n      swap1\n    tag_111:\n      dup2\n      sload\n      dup2\n      mstore\n      swap1\n      0x01\n      add\n      swap1\n      0x20\n      add\n      dup1\n      dup4\n      gt\n      tag_111\n      jumpi\n      dup3\n      swap1\n      sub\n      0x1f\n      and\n      dup3\n      add\n      swap2\n    tag_109:\n      pop\n      pop\n      pop\n      pop\n      pop\n      dup2\n      mstore\n      0x20\n      add\n      0x03\n      dup3\n      add\n      sload\n      dup2\n      mstore\n      0x20\n      add\n      0x04\n      dup3\n      add\n      dup1\n      sload\n      tag_112\n      swap1\n      tag_75\n      jump\t// in\n    tag_112:\n      dup1\n      0x1f\n      add\n      0x20\n      dup1\n      swap2\n      div\n      mul\n      0x20\n      add\n      mload(0x40)\n      swap1\n      dup2\n      add\n      0x40\n      mstore\n      dup1\n      swap3\n      swap2\n      swap1\n      dup2\n      dup2\n      mstore\n      0x20\n      add\n      dup3\n      dup1\n      sload\n      tag_113\n      swap1\n      tag_75\n      jump\t// in\n    tag_113:\n      dup1\n      iszero\n      tag_114\n      jumpi\n      dup1\n      0x1f\n      lt\n      tag_115\n      jumpi\n      0x0100\n      dup1\n      dup4\n      sload\n      div\n      mul\n      dup4\n      mstore\n      swap2\n      0x20\n      add\n      swap2\n      jump(tag_114)\n    tag_115:\n      dup3\n      add\n      swap2\n      swap1\n      0x00\n      mstore\n      keccak256(0x00, 0x20)\n      swap1\n    tag_116:\n      dup2\n      sload\n      dup2\n      mstore\n      swap1\n      0x01\n      add\n      swap1\n      0x20\n      add\n      dup1\n      dup4\n      gt\n      tag_116\n      jumpi\n      dup3\n      swap1\n      sub\n      0x1f\n      and\n      dup3\n      add\n      swap2\n    tag_114:\n      pop\n      pop\n      pop\n      pop\n      pop\n      dup2\n      mstore\n      0x20\n      add\n      0x05\n      dup3\n      add\n      0x00\n      swap1\n      sload\n      swap1\n      0x0100\n      exp\n      swap1\n      div\n      0xffffffffffffffffffffffffffffffffffffffff\n      and\n      0xffffffffffffffffffffffffffffffffffffffff\n      and\n      0xffffffffffffffffffffffffffffffffffffffff\n      and\n      dup2\n      mstore\n      0x20\n      add\n      0x06\n      dup3\n      add\n      sload\n      dup2\n      mstore\n      pop\n      pop\n        /* \"Voting Contract/voting.sol\":2296:2310  CandidatesList */\n      dup3\n        /* \"Voting Contract/voting.sol\":2313:2314  1 */\n      0x01\n        /* \"Voting Contract/voting.sol\":2311:2312  i */\n      dup4\n        /* \"Voting Contract/voting.sol\":2311:2314  i-1 */\n      tag_117\n      swap2\n      swap1\n      tag_63\n      jump\t// in\n    tag_117:\n        /* \"Voting Contract/voting.sol\":2296:2315  CandidatesList[i-1] */\n      dup2\n      mload\n      dup2\n      lt\n      tag_118\n      jumpi\n      tag_119\n      tag_88\n      jump\t// in\n    tag_119:\n    tag_118:\n      0x20\n      mul\n      0x20\n      add\n      add\n        /* \"Voting Contract/voting.sol\":2296:2338  CandidatesList[i-1] = candidatesDetails[i] */\n      dup2\n      swap1\n      mstore\n      pop\n        /* \"Voting Contract/voting.sol\":2277:2280  i++ */\n      dup1\n      dup1\n      tag_120\n      swap1\n      tag_90\n      jump\t// in\n    tag_120:\n      swap2\n      pop\n      pop\n        /* \"Voting Contract/voting.sol\":2244:2350  for(uint i=1; i<nextCandidateID; i++){... */\n      jump(tag_99)\n    tag_100:\n      pop\n        /* \"Voting Contract/voting.sol\":2367:2381  CandidatesList */\n      dup1\n        /* \"Voting Contract/voting.sol\":2360:2381  return CandidatesList */\n      swap2\n      pop\n      pop\n        /* \"Voting Contract/voting.sol\":2086:2389  function candidateList() public view returns(candidate[] memory){... */\n      swap1\n      jump\t// out\n        /* \"Voting Contract/voting.sol\":1137:1778  function candidateRegister(... */\n    tag_32:\n        /* \"Voting Contract/voting.sol\":1332:1349  electionComission */\n      0x00\n      dup1\n      sload\n      swap1\n      0x0100\n      exp\n      swap1\n      div\n      0xffffffffffffffffffffffffffffffffffffffff\n      and\n        /* \"Voting Contract/voting.sol\":1318:1349  msg.sender != electionComission */\n      0xffffffffffffffffffffffffffffffffffffffff\n      and\n        /* \"Voting Contract/voting.sol\":1318:1328  msg.sender */\n      caller\n        /* \"Voting Contract/voting.sol\":1318:1349  msg.sender != electionComission */\n      0xffffffffffffffffffffffffffffffffffffffff\n      and\n      sub\n        /* \"Voting Contract/voting.sol\":1310:1385  require(msg.sender != electionComission, \"You are from election comission\") */\n      tag_122\n      jumpi\n      mload(0x40)\n      0x08c379a000000000000000000000000000000000000000000000000000000000\n      dup2\n      mstore\n      0x04\n      add\n      tag_123\n      swap1\n      tag_124\n      jump\t// in\n    tag_123:\n      mload(0x40)\n      dup1\n      swap2\n      sub\n      swap1\n      revert\n    tag_122:\n        /* \"Voting Contract/voting.sol\":1404:1437  candidateVerification(msg.sender) */\n      tag_125\n        /* \"Voting Contract/voting.sol\":1426:1436  msg.sender */\n      caller\n        /* \"Voting Contract/voting.sol\":1404:1425  candidateVerification */\n      tag_126\n        /* \"Voting Contract/voting.sol\":1404:1437  candidateVerification(msg.sender) */\n      jump\t// in\n    tag_125:\n        /* \"Voting Contract/voting.sol\":1396:1468  require(candidateVerification(msg.sender), \"You can not register twice\") */\n      tag_127\n      jumpi\n      mload(0x40)\n      0x08c379a000000000000000000000000000000000000000000000000000000000\n      dup2\n      mstore\n      0x04\n      add\n      tag_128\n      swap1\n      tag_129\n      jump\t// in\n    tag_128:\n      mload(0x40)\n      dup1\n      swap2\n      sub\n      swap1\n      revert\n    tag_127:\n        /* \"Voting Contract/voting.sol\":1494:1496  18 */\n      0x12\n        /* \"Voting Contract/voting.sol\":1487:1491  _age */\n      dup6\n        /* \"Voting Contract/voting.sol\":1487:1496  _age >=18 */\n      lt\n      iszero\n        /* \"Voting Contract/voting.sol\":1479:1521  require(_age >=18, \"You are not eligible\") */\n      tag_130\n      jumpi\n      mload(0x40)\n      0x08c379a000000000000000000000000000000000000000000000000000000000\n      dup2\n      mstore\n      0x04\n      add\n      tag_131\n      swap1\n      tag_132\n      jump\t// in\n    tag_131:\n      mload(0x40)\n      dup1\n      swap2\n      sub\n      swap1\n      revert\n    tag_130:\n        /* \"Voting Contract/voting.sol\":1569:1742  candidate(... */\n      mload(0x40)\n      dup1\n      0xe0\n      add\n      0x40\n      mstore\n      dup1\n        /* \"Voting Contract/voting.sol\":1593:1598  _name */\n      dup9\n      dup9\n        /* \"Voting Contract/voting.sol\":1569:1742  candidate(... */\n      dup1\n      dup1\n      0x1f\n      add\n      0x20\n      dup1\n      swap2\n      div\n      mul\n      0x20\n      add\n      mload(0x40)\n      swap1\n      dup2\n      add\n      0x40\n      mstore\n      dup1\n      swap4\n      swap3\n      swap2\n      swap1\n      dup2\n      dup2\n      mstore\n      0x20\n      add\n      dup4\n      dup4\n      dup1\n      dup3\n      dup5\n      calldatacopy\n      0x00\n      dup2\n      dup5\n      add\n      mstore\n      not(0x1f)\n      0x1f\n      dup3\n      add\n      and\n      swap1\n      pop\n      dup1\n      dup4\n      add\n      swap3\n      pop\n      pop\n      pop\n      pop\n      pop\n      pop\n      pop\n      dup2\n      mstore\n      0x20\n      add\n        /* \"Voting Contract/voting.sol\":1613:1617  _age */\n      dup7\n        /* \"Voting Contract/voting.sol\":1569:1742  candidate(... */\n      dup2\n      mstore\n      0x20\n      add\n        /* \"Voting Contract/voting.sol\":1632:1638  _party */\n      dup6\n      dup6\n        /* \"Voting Contract/voting.sol\":1569:1742  candidate(... */\n      dup1\n      dup1\n      0x1f\n      add\n      0x20\n      dup1\n      swap2\n      div\n      mul\n      0x20\n      add\n      mload(0x40)\n      swap1\n      dup2\n      add\n      0x40\n      mstore\n      dup1\n      swap4\n      swap3\n      swap2\n      swap1\n      dup2\n      dup2\n      mstore\n      0x20\n      add\n      dup4\n      dup4\n      dup1\n      dup3\n      dup5\n      calldatacopy\n      0x00\n      dup2\n      dup5\n      add\n      mstore\n      not(0x1f)\n      0x1f\n      dup3\n      add\n      and\n      swap1\n      pop\n      dup1\n      dup4\n      add\n      swap3\n      pop\n      pop\n      pop\n      pop\n      pop\n      pop\n      pop\n      dup2\n      mstore\n      0x20\n      add\n        /* \"Voting Contract/voting.sol\":1653:1668  nextCandidateID */\n      sload(0x04)\n        /* \"Voting Contract/voting.sol\":1569:1742  candidate(... */\n      dup2\n      mstore\n      0x20\n      add\n        /* \"Voting Contract/voting.sol\":1683:1690  _gender */\n      dup4\n      dup4\n        /* \"Voting Contract/voting.sol\":1569:1742  candidate(... */\n      dup1\n      dup1\n      0x1f\n      add\n      0x20\n      dup1\n      swap2\n      div\n      mul\n      0x20\n      add\n      mload(0x40)\n      swap1\n      dup2\n      add\n      0x40\n      mstore\n      dup1\n      swap4\n      swap3\n      swap2\n      swap1\n      dup2\n      dup2\n      mstore\n      0x20\n      add\n      dup4\n      dup4\n      dup1\n      dup3\n      dup5\n      calldatacopy\n      0x00\n      dup2\n      dup5\n      add\n      mstore\n      not(0x1f)\n      0x1f\n      dup3\n      add\n      and\n      swap1\n      pop\n      dup1\n      dup4\n      add\n      swap3\n      pop\n      pop\n      pop\n      pop\n      pop\n      pop\n      pop\n      dup2\n      mstore\n      0x20\n      add\n        /* \"Voting Contract/voting.sol\":1705:1715  msg.sender */\n      caller\n        /* \"Voting Contract/voting.sol\":1569:1742  candidate(... */\n      0xffffffffffffffffffffffffffffffffffffffff\n      and\n      dup2\n      mstore\n      0x20\n      add\n        /* \"Voting Contract/voting.sol\":1730:1731  0 */\n      0x00\n        /* \"Voting Contract/voting.sol\":1569:1742  candidate(... */\n      dup2\n      mstore\n      pop\n        /* \"Voting Contract/voting.sol\":1532:1549  candidatesDetails */\n      0x02\n        /* \"Voting Contract/voting.sol\":1532:1566  candidatesDetails[nextCandidateID] */\n      0x00\n        /* \"Voting Contract/voting.sol\":1550:1565  nextCandidateID */\n      sload(0x04)\n        /* \"Voting Contract/voting.sol\":1532:1566  candidatesDetails[nextCandidateID] */\n      dup2\n      mstore\n      0x20\n      add\n      swap1\n      dup2\n      mstore\n      0x20\n      add\n      0x00\n      keccak256\n        /* \"Voting Contract/voting.sol\":1532:1742  candidatesDetails[nextCandidateID] = candidate(... */\n      0x00\n      dup3\n      add\n      mload\n      dup2\n      0x00\n      add\n      swap1\n      dup2\n      tag_133\n      swap2\n      swap1\n      tag_134\n      jump\t// in\n    tag_133:\n      pop\n      0x20\n      dup3\n      add\n      mload\n      dup2\n      0x01\n      add\n      sstore\n      0x40\n      dup3\n      add\n      mload\n      dup2\n      0x02\n      add\n      swap1\n      dup2\n      tag_135\n      swap2\n      swap1\n      tag_134\n      jump\t// in\n    tag_135:\n      pop\n      0x60\n      dup3\n      add\n      mload\n      dup2\n      0x03\n      add\n      sstore\n      0x80\n      dup3\n      add\n      mload\n      dup2\n      0x04\n      add\n      swap1\n      dup2\n      tag_136\n      swap2\n      swap1\n      tag_134\n      jump\t// in\n    tag_136:\n      pop\n      0xa0\n      dup3\n      add\n      mload\n      dup2\n      0x05\n      add\n      exp(0x0100, 0x00)\n      dup2\n      sload\n      dup2\n      0xffffffffffffffffffffffffffffffffffffffff\n      mul\n      not\n      and\n      swap1\n      dup4\n      0xffffffffffffffffffffffffffffffffffffffff\n      and\n      mul\n      or\n      swap1\n      sstore\n      pop\n      0xc0\n      dup3\n      add\n      mload\n      dup2\n      0x06\n      add\n      sstore\n      swap1\n      pop\n      pop\n        /* \"Voting Contract/voting.sol\":1753:1768  nextCandidateID */\n      0x04\n      0x00\n        /* \"Voting Contract/voting.sol\":1753:1770  nextCandidateID++ */\n      dup2\n      sload\n      dup1\n      swap3\n      swap2\n      swap1\n      tag_137\n      swap1\n      tag_90\n      jump\t// in\n    tag_137:\n      swap2\n      swap1\n      pop\n      sstore\n      pop\n        /* \"Voting Contract/voting.sol\":1137:1778  function candidateRegister(... */\n      pop\n      pop\n      pop\n      pop\n      pop\n      pop\n      pop\n      jump\t// out\n        /* \"Voting Contract/voting.sol\":2397:2826  function voterRegister(... */\n    tag_36:\n        /* \"Voting Contract/voting.sol\":2546:2548  18 */\n      0x12\n        /* \"Voting Contract/voting.sol\":2539:2543  _age */\n      dup4\n        /* \"Voting Contract/voting.sol\":2539:2548  _age >=18 */\n      lt\n      iszero\n        /* \"Voting Contract/voting.sol\":2531:2570  require(_age >=18, \"You are under age\") */\n      tag_139\n      jumpi\n      mload(0x40)\n      0x08c379a000000000000000000000000000000000000000000000000000000000\n      dup2\n      mstore\n      0x04\n      add\n      tag_140\n      swap1\n      tag_141\n      jump\t// in\n    tag_140:\n      mload(0x40)\n      dup1\n      swap2\n      sub\n      swap1\n      revert\n    tag_139:\n        /* \"Voting Contract/voting.sol\":2589:2618  voterVerification(msg.sender) */\n      tag_142\n        /* \"Voting Contract/voting.sol\":2607:2617  msg.sender */\n      caller\n        /* \"Voting Contract/voting.sol\":2589:2606  voterVerification */\n      tag_143\n        /* \"Voting Contract/voting.sol\":2589:2618  voterVerification(msg.sender) */\n      jump\t// in\n    tag_142:\n        /* \"Voting Contract/voting.sol\":2581:2650  require(voterVerification(msg.sender), \"You have already registered\") */\n      tag_144\n      jumpi\n      mload(0x40)\n      0x08c379a000000000000000000000000000000000000000000000000000000000\n      dup2\n      mstore\n      0x04\n      add\n      tag_145\n      swap1\n      tag_146\n      jump\t// in\n    tag_145:\n      mload(0x40)\n      dup1\n      swap2\n      sub\n      swap1\n      revert\n    tag_144:\n        /* \"Voting Contract/voting.sol\":2689:2794  voter(_name, ... */\n      mload(0x40)\n      dup1\n      0xc0\n      add\n      0x40\n      mstore\n      dup1\n        /* \"Voting Contract/voting.sol\":2695:2700  _name */\n      dup7\n      dup7\n        /* \"Voting Contract/voting.sol\":2689:2794  voter(_name, ... */\n      dup1\n      dup1\n      0x1f\n      add\n      0x20\n      dup1\n      swap2\n      div\n      mul\n      0x20\n      add\n      mload(0x40)\n      swap1\n      dup2\n      add\n      0x40\n      mstore\n      dup1\n      swap4\n      swap3\n      swap2\n      swap1\n      dup2\n      dup2\n      mstore\n      0x20\n      add\n      dup4\n      dup4\n      dup1\n      dup3\n      dup5\n      calldatacopy\n      0x00\n      dup2\n      dup5\n      add\n      mstore\n      not(0x1f)\n      0x1f\n      dup3\n      add\n      and\n      swap1\n      pop\n      dup1\n      dup4\n      add\n      swap3\n      pop\n      pop\n      pop\n      pop\n      pop\n      pop\n      pop\n      dup2\n      mstore\n      0x20\n      add\n        /* \"Voting Contract/voting.sol\":2712:2716  _age */\n      dup5\n        /* \"Voting Contract/voting.sol\":2689:2794  voter(_name, ... */\n      dup2\n      mstore\n      0x20\n      add\n        /* \"Voting Contract/voting.sol\":2728:2739  nextVoterID */\n      sload(0x05)\n        /* \"Voting Contract/voting.sol\":2689:2794  voter(_name, ... */\n      dup2\n      mstore\n      0x20\n      add\n        /* \"Voting Contract/voting.sol\":2751:2758  _gender */\n      dup4\n      dup4\n        /* \"Voting Contract/voting.sol\":2689:2794  voter(_name, ... */\n      dup1\n      dup1\n      0x1f\n      add\n      0x20\n      dup1\n      swap2\n      div\n      mul\n      0x20\n      add\n      mload(0x40)\n      swap1\n      dup2\n      add\n      0x40\n      mstore\n      dup1\n      swap4\n      swap3\n      swap2\n      swap1\n      dup2\n      dup2\n      mstore\n      0x20\n      add\n      dup4\n      dup4\n      dup1\n      dup3\n      dup5\n      calldatacopy\n      0x00\n      dup2\n      dup5\n      add\n      mstore\n      not(0x1f)\n      0x1f\n      dup3\n      add\n      and\n      swap1\n      pop\n      dup1\n      dup4\n      add\n      swap3\n      pop\n      pop\n      pop\n      pop\n      pop\n      pop\n      pop\n      dup2\n      mstore\n      0x20\n      add\n        /* \"Voting Contract/voting.sol\":2770:2771  0 */\n      0x00\n        /* \"Voting Contract/voting.sol\":2689:2794  voter(_name, ... */\n      dup2\n      mstore\n      0x20\n      add\n        /* \"Voting Contract/voting.sol\":2783:2793  msg.sender */\n      caller\n        /* \"Voting Contract/voting.sol\":2689:2794  voter(_name, ... */\n      0xffffffffffffffffffffffffffffffffffffffff\n      and\n      dup2\n      mstore\n      pop\n        /* \"Voting Contract/voting.sol\":2661:2673  voterDetails */\n      0x03\n        /* \"Voting Contract/voting.sol\":2661:2686  voterDetails[nextVoterID] */\n      0x00\n        /* \"Voting Contract/voting.sol\":2674:2685  nextVoterID */\n      sload(0x05)\n        /* \"Voting Contract/voting.sol\":2661:2686  voterDetails[nextVoterID] */\n      dup2\n      mstore\n      0x20\n      add\n      swap1\n      dup2\n      mstore\n      0x20\n      add\n      0x00\n      keccak256\n        /* \"Voting Contract/voting.sol\":2661:2794  voterDetails[nextVoterID] = voter(_name, ... */\n      0x00\n      dup3\n      add\n      mload\n      dup2\n      0x00\n      add\n      swap1\n      dup2\n      tag_147\n      swap2\n      swap1\n      tag_134\n      jump\t// in\n    tag_147:\n      pop\n      0x20\n      dup3\n      add\n      mload\n      dup2\n      0x01\n      add\n      sstore\n      0x40\n      dup3\n      add\n      mload\n      dup2\n      0x02\n      add\n      sstore\n      0x60\n      dup3\n      add\n      mload\n      dup2\n      0x03\n      add\n      swap1\n      dup2\n      tag_148\n      swap2\n      swap1\n      tag_134\n      jump\t// in\n    tag_148:\n      pop\n      0x80\n      dup3\n      add\n      mload\n      dup2\n      0x04\n      add\n      sstore\n      0xa0\n      dup3\n      add\n      mload\n      dup2\n      0x05\n      add\n      exp(0x0100, 0x00)\n      dup2\n      sload\n      dup2\n      0xffffffffffffffffffffffffffffffffffffffff\n      mul\n      not\n      and\n      swap1\n      dup4\n      0xffffffffffffffffffffffffffffffffffffffff\n      and\n      mul\n      or\n      swap1\n      sstore\n      pop\n      swap1\n      pop\n      pop\n        /* \"Voting Contract/voting.sol\":2805:2816  nextVoterID */\n      0x05\n      0x00\n        /* \"Voting Contract/voting.sol\":2805:2818  nextVoterID++ */\n      dup2\n      sload\n      dup1\n      swap3\n      swap2\n      swap1\n      tag_149\n      swap1\n      tag_90\n      jump\t// in\n    tag_149:\n      swap2\n      swap1\n      pop\n      sstore\n      pop\n        /* \"Voting Contract/voting.sol\":2397:2826  function voterRegister(... */\n      pop\n      pop\n      pop\n      pop\n      pop\n      jump\t// out\n        /* \"Voting Contract/voting.sol\":4684:5058  function WinnerDeclaration() public onlyElectionComission()  returns(address) {... */\n    tag_38:\n        /* \"Voting Contract/voting.sol\":4753:4760  address */\n      0x00\n        /* \"Voting Contract/voting.sol\":915:932  electionComission */\n      dup1\n      0x00\n      swap1\n      sload\n      swap1\n      0x0100\n      exp\n      swap1\n      div\n      0xffffffffffffffffffffffffffffffffffffffff\n      and\n        /* \"Voting Contract/voting.sol\":901:932  msg.sender == electionComission */\n      0xffffffffffffffffffffffffffffffffffffffff\n      and\n        /* \"Voting Contract/voting.sol\":901:911  msg.sender */\n      caller\n        /* \"Voting Contract/voting.sol\":901:932  msg.sender == electionComission */\n      0xffffffffffffffffffffffffffffffffffffffff\n      and\n      eq\n        /* \"Voting Contract/voting.sol\":893:972  require(msg.sender == electionComission, \"You are not from election comission\") */\n      tag_151\n      jumpi\n      mload(0x40)\n      0x08c379a000000000000000000000000000000000000000000000000000000000\n      dup2\n      mstore\n      0x04\n      add\n      tag_152\n      swap1\n      tag_50\n      jump\t// in\n    tag_152:\n      mload(0x40)\n      dup1\n      swap2\n      sub\n      swap1\n      revert\n    tag_151:\n        /* \"Voting Contract/voting.sol\":4773:4781  uint max */\n      0x00\n        /* \"Voting Contract/voting.sol\":4799:4805  uint i */\n      dup1\n        /* \"Voting Contract/voting.sol\":4806:4807  1 */\n      0x01\n        /* \"Voting Contract/voting.sol\":4799:4807  uint i=1 */\n      swap1\n      pop\n        /* \"Voting Contract/voting.sol\":4795:5027  for(uint i=1; i< nextCandidateID; i++){... */\n    tag_154:\n        /* \"Voting Contract/voting.sol\":4812:4827  nextCandidateID */\n      sload(0x04)\n        /* \"Voting Contract/voting.sol\":4809:4810  i */\n      dup2\n        /* \"Voting Contract/voting.sol\":4809:4827  i< nextCandidateID */\n      lt\n        /* \"Voting Contract/voting.sol\":4795:5027  for(uint i=1; i< nextCandidateID; i++){... */\n      iszero\n      tag_155\n      jumpi\n        /* \"Voting Contract/voting.sol\":4880:4883  max */\n      dup2\n        /* \"Voting Contract/voting.sol\":4851:4868  candidatesDetails */\n      0x02\n        /* \"Voting Contract/voting.sol\":4851:4871  candidatesDetails[i] */\n      0x00\n        /* \"Voting Contract/voting.sol\":4869:4870  i */\n      dup4\n        /* \"Voting Contract/voting.sol\":4851:4871  candidatesDetails[i] */\n      dup2\n      mstore\n      0x20\n      add\n      swap1\n      dup2\n      mstore\n      0x20\n      add\n      0x00\n      keccak256\n        /* \"Voting Contract/voting.sol\":4851:4877  candidatesDetails[i].votes */\n      0x06\n      add\n      sload\n        /* \"Voting Contract/voting.sol\":4851:4883  candidatesDetails[i].votes > max */\n      gt\n        /* \"Voting Contract/voting.sol\":4848:5016  if(candidatesDetails[i].votes > max){... */\n      iszero\n      tag_157\n      jumpi\n        /* \"Voting Contract/voting.sol\":4909:4926  candidatesDetails */\n      0x02\n        /* \"Voting Contract/voting.sol\":4909:4929  candidatesDetails[i] */\n      0x00\n        /* \"Voting Contract/voting.sol\":4927:4928  i */\n      dup3\n        /* \"Voting Contract/voting.sol\":4909:4929  candidatesDetails[i] */\n      dup2\n      mstore\n      0x20\n      add\n      swap1\n      dup2\n      mstore\n      0x20\n      add\n      0x00\n      keccak256\n        /* \"Voting Contract/voting.sol\":4909:4935  candidatesDetails[i].votes */\n      0x06\n      add\n      sload\n        /* \"Voting Contract/voting.sol\":4903:4935  max = candidatesDetails[i].votes */\n      swap2\n      pop\n        /* \"Voting Contract/voting.sol\":4963:4980  candidatesDetails */\n      0x02\n        /* \"Voting Contract/voting.sol\":4963:4983  candidatesDetails[i] */\n      0x00\n        /* \"Voting Contract/voting.sol\":4981:4982  i */\n      dup3\n        /* \"Voting Contract/voting.sol\":4963:4983  candidatesDetails[i] */\n      dup2\n      mstore\n      0x20\n      add\n      swap1\n      dup2\n      mstore\n      0x20\n      add\n      0x00\n      keccak256\n        /* \"Voting Contract/voting.sol\":4963:5000  candidatesDetails[i].candidateAddress */\n      0x05\n      add\n      0x00\n      swap1\n      sload\n      swap1\n      0x0100\n      exp\n      swap1\n      div\n      0xffffffffffffffffffffffffffffffffffffffff\n      and\n        /* \"Voting Contract/voting.sol\":4954:4960  winner */\n      0x01\n      0x00\n        /* \"Voting Contract/voting.sol\":4954:5000  winner = candidatesDetails[i].candidateAddress */\n      0x0100\n      exp\n      dup2\n      sload\n      dup2\n      0xffffffffffffffffffffffffffffffffffffffff\n      mul\n      not\n      and\n      swap1\n      dup4\n      0xffffffffffffffffffffffffffffffffffffffff\n      and\n      mul\n      or\n      swap1\n      sstore\n      pop\n        /* \"Voting Contract/voting.sol\":4848:5016  if(candidatesDetails[i].votes > max){... */\n    tag_157:\n        /* \"Voting Contract/voting.sol\":4829:4832  i++ */\n      dup1\n      dup1\n      tag_158\n      swap1\n      tag_90\n      jump\t// in\n    tag_158:\n      swap2\n      pop\n      pop\n        /* \"Voting Contract/voting.sol\":4795:5027  for(uint i=1; i< nextCandidateID; i++){... */\n      jump(tag_154)\n    tag_155:\n      pop\n        /* \"Voting Contract/voting.sol\":5044:5050  winner */\n      0x01\n      0x00\n      swap1\n      sload\n      swap1\n      0x0100\n      exp\n      swap1\n      div\n      0xffffffffffffffffffffffffffffffffffffffff\n      and\n        /* \"Voting Contract/voting.sol\":5037:5050  return winner */\n      swap2\n      pop\n      pop\n        /* \"Voting Contract/voting.sol\":4684:5058  function WinnerDeclaration() public onlyElectionComission()  returns(address) {... */\n      swap1\n      jump\t// out\n        /* \"Voting Contract/voting.sol\":3386:3933  function vote(uint _voterID, uint _ID) external {... */\n    tag_43:\n        /* \"Voting Contract/voting.sol\":3494:3495  0 */\n      0x00\n        /* \"Voting Contract/voting.sol\":3453:3465  voterDetails */\n      0x03\n        /* \"Voting Contract/voting.sol\":3453:3475  voterDetails[_voterID] */\n      0x00\n        /* \"Voting Contract/voting.sol\":3466:3474  _voterID */\n      dup5\n        /* \"Voting Contract/voting.sol\":3453:3475  voterDetails[_voterID] */\n      dup2\n      mstore\n      0x20\n      add\n      swap1\n      dup2\n      mstore\n      0x20\n      add\n      0x00\n      keccak256\n        /* \"Voting Contract/voting.sol\":3453:3491  voterDetails[_voterID].voteCandidateID */\n      0x04\n      add\n      sload\n        /* \"Voting Contract/voting.sol\":3453:3495  voterDetails[_voterID].voteCandidateID ==0 */\n      eq\n        /* \"Voting Contract/voting.sol\":3445:3514  require(voterDetails[_voterID].voteCandidateID ==0, \"You have voted\") */\n      tag_160\n      jumpi\n      mload(0x40)\n      0x08c379a000000000000000000000000000000000000000000000000000000000\n      dup2\n      mstore\n      0x04\n      add\n      tag_161\n      swap1\n      tag_162\n      jump\t// in\n    tag_161:\n      mload(0x40)\n      dup1\n      swap2\n      sub\n      swap1\n      revert\n    tag_160:\n        /* \"Voting Contract/voting.sol\":3572:3582  msg.sender */\n      caller\n        /* \"Voting Contract/voting.sol\":3533:3582  voterDetails[_voterID].voterAddress == msg.sender */\n      0xffffffffffffffffffffffffffffffffffffffff\n      and\n        /* \"Voting Contract/voting.sol\":3533:3545  voterDetails */\n      0x03\n        /* \"Voting Contract/voting.sol\":3533:3555  voterDetails[_voterID] */\n      0x00\n        /* \"Voting Contract/voting.sol\":3546:3554  _voterID */\n      dup5\n        /* \"Voting Contract/voting.sol\":3533:3555  voterDetails[_voterID] */\n      dup2\n      mstore\n      0x20\n      add\n      swap1\n      dup2\n      mstore\n      0x20\n      add\n      0x00\n      keccak256\n        /* \"Voting Contract/voting.sol\":3533:3568  voterDetails[_voterID].voterAddress */\n      0x05\n      add\n      0x00\n      swap1\n      sload\n      swap1\n      0x0100\n      exp\n      swap1\n      div\n      0xffffffffffffffffffffffffffffffffffffffff\n      and\n        /* \"Voting Contract/voting.sol\":3533:3582  voterDetails[_voterID].voterAddress == msg.sender */\n      0xffffffffffffffffffffffffffffffffffffffff\n      and\n      eq\n        /* \"Voting Contract/voting.sol\":3525:3619  require(voterDetails[_voterID].voterAddress == msg.sender, \"You cant vote from others behalf\") */\n      tag_163\n      jumpi\n      mload(0x40)\n      0x08c379a000000000000000000000000000000000000000000000000000000000\n      dup2\n      mstore\n      0x04\n      add\n      tag_164\n      swap1\n      tag_165\n      jump\t// in\n    tag_164:\n      mload(0x40)\n      dup1\n      swap2\n      sub\n      swap1\n      revert\n    tag_163:\n        /* \"Voting Contract/voting.sol\":3657:3658  3 */\n      0x03\n        /* \"Voting Contract/voting.sol\":3638:3653  nextCandidateID */\n      sload(0x04)\n        /* \"Voting Contract/voting.sol\":3638:3658  nextCandidateID >= 3 */\n      lt\n      iszero\n        /* \"Voting Contract/voting.sol\":3630:3703  require(nextCandidateID >= 3, \"Candidates are not registered completely\") */\n      tag_166\n      jumpi\n      mload(0x40)\n      0x08c379a000000000000000000000000000000000000000000000000000000000\n      dup2\n      mstore\n      0x04\n      add\n      tag_167\n      swap1\n      tag_168\n      jump\t// in\n    tag_167:\n      mload(0x40)\n      dup1\n      swap2\n      sub\n      swap1\n      revert\n    tag_166:\n        /* \"Voting Contract/voting.sol\":3733:3734  0 */\n      0x00\n        /* \"Voting Contract/voting.sol\":3722:3731  startTime */\n      sload(0x07)\n        /* \"Voting Contract/voting.sol\":3722:3734  startTime!=0 */\n      sub\n        /* \"Voting Contract/voting.sol\":3714:3760  require(startTime!=0, \"Voting is not started\") */\n      tag_169\n      jumpi\n      mload(0x40)\n      0x08c379a000000000000000000000000000000000000000000000000000000000\n      dup2\n      mstore\n      0x04\n      add\n      tag_170\n      swap1\n      tag_171\n      jump\t// in\n    tag_170:\n      mload(0x40)\n      dup1\n      swap2\n      sub\n      swap1\n      revert\n    tag_169:\n        /* \"Voting Contract/voting.sol\":3785:3800  nextCandidateID */\n      sload(0x04)\n        /* \"Voting Contract/voting.sol\":3779:3782  _ID */\n      dup2\n        /* \"Voting Contract/voting.sol\":3779:3800  _ID < nextCandidateID */\n      lt\n        /* \"Voting Contract/voting.sol\":3771:3829  require(_ID < nextCandidateID, \"Candidate does not exist\") */\n      tag_172\n      jumpi\n      mload(0x40)\n      0x08c379a000000000000000000000000000000000000000000000000000000000\n      dup2\n      mstore\n      0x04\n      add\n      tag_173\n      swap1\n      tag_174\n      jump\t// in\n    tag_173:\n      mload(0x40)\n      dup1\n      swap2\n      sub\n      swap1\n      revert\n    tag_172:\n        /* \"Voting Contract/voting.sol\":3881:3884  _ID */\n      dup1\n        /* \"Voting Contract/voting.sol\":3840:3852  voterDetails */\n      0x03\n        /* \"Voting Contract/voting.sol\":3840:3862  voterDetails[_voterID] */\n      0x00\n        /* \"Voting Contract/voting.sol\":3853:3861  _voterID */\n      dup5\n        /* \"Voting Contract/voting.sol\":3840:3862  voterDetails[_voterID] */\n      dup2\n      mstore\n      0x20\n      add\n      swap1\n      dup2\n      mstore\n      0x20\n      add\n      0x00\n      keccak256\n        /* \"Voting Contract/voting.sol\":3840:3878  voterDetails[_voterID].voteCandidateID */\n      0x04\n      add\n        /* \"Voting Contract/voting.sol\":3840:3884  voterDetails[_voterID].voteCandidateID = _ID */\n      dup2\n      swap1\n      sstore\n      pop\n        /* \"Voting Contract/voting.sol\":3895:3912  candidatesDetails */\n      0x02\n        /* \"Voting Contract/voting.sol\":3895:3917  candidatesDetails[_ID] */\n      0x00\n        /* \"Voting Contract/voting.sol\":3913:3916  _ID */\n      dup3\n        /* \"Voting Contract/voting.sol\":3895:3917  candidatesDetails[_ID] */\n      dup2\n      mstore\n      0x20\n      add\n      swap1\n      dup2\n      mstore\n      0x20\n      add\n      0x00\n      keccak256\n        /* \"Voting Contract/voting.sol\":3895:3923  candidatesDetails[_ID].votes */\n      0x06\n      add\n      0x00\n        /* \"Voting Contract/voting.sol\":3895:3925  candidatesDetails[_ID].votes++ */\n      dup2\n      sload\n      dup1\n      swap3\n      swap2\n      swap1\n      tag_175\n      swap1\n      tag_90\n      jump\t// in\n    tag_175:\n      swap2\n      swap1\n      pop\n      sstore\n      pop\n        /* \"Voting Contract/voting.sol\":3386:3933  function vote(uint _voterID, uint _ID) external {... */\n      pop\n      pop\n      jump\t// out\n        /* \"Voting Contract/voting.sol\":524:545  address public winner */\n    tag_45:\n      0x01\n      0x00\n      swap1\n      sload\n      swap1\n      0x0100\n      exp\n      swap1\n      div\n      0xffffffffffffffffffffffffffffffffffffffff\n      and\n      dup2\n      jump\t// out\n        /* \"Voting Contract/voting.sol\":1786:2078  function candidateVerification(address _person) internal view returns(bool) {... */\n    tag_126:\n        /* \"Voting Contract/voting.sol\":1856:1860  bool */\n      0x00\n        /* \"Voting Contract/voting.sol\":1877:1883  uint i */\n      dup1\n        /* \"Voting Contract/voting.sol\":1884:1885  1 */\n      0x01\n        /* \"Voting Contract/voting.sol\":1877:1885  uint i=1 */\n      swap1\n      pop\n        /* \"Voting Contract/voting.sol\":1873:2049  for(uint i=1; i<nextCandidateID; i++){... */\n    tag_177:\n        /* \"Voting Contract/voting.sol\":1889:1904  nextCandidateID */\n      sload(0x04)\n        /* \"Voting Contract/voting.sol\":1887:1888  i */\n      dup2\n        /* \"Voting Contract/voting.sol\":1887:1904  i<nextCandidateID */\n      lt\n        /* \"Voting Contract/voting.sol\":1873:2049  for(uint i=1; i<nextCandidateID; i++){... */\n      iszero\n      tag_178\n      jumpi\n        /* \"Voting Contract/voting.sol\":1969:1976  _person */\n      dup3\n        /* \"Voting Contract/voting.sol\":1928:1976  candidatesDetails[i].candidateAddress == _person */\n      0xffffffffffffffffffffffffffffffffffffffff\n      and\n        /* \"Voting Contract/voting.sol\":1928:1945  candidatesDetails */\n      0x02\n        /* \"Voting Contract/voting.sol\":1928:1948  candidatesDetails[i] */\n      0x00\n        /* \"Voting Contract/voting.sol\":1946:1947  i */\n      dup4\n        /* \"Voting Contract/voting.sol\":1928:1948  candidatesDetails[i] */\n      dup2\n      mstore\n      0x20\n      add\n      swap1\n      dup2\n      mstore\n      0x20\n      add\n      0x00\n      keccak256\n        /* \"Voting Contract/voting.sol\":1928:1965  candidatesDetails[i].candidateAddress */\n      0x05\n      add\n      0x00\n      swap1\n      sload\n      swap1\n      0x0100\n      exp\n      swap1\n      div\n      0xffffffffffffffffffffffffffffffffffffffff\n      and\n        /* \"Voting Contract/voting.sol\":1928:1976  candidatesDetails[i].candidateAddress == _person */\n      0xffffffffffffffffffffffffffffffffffffffff\n      and\n      sub\n        /* \"Voting Contract/voting.sol\":1925:2024  if(candidatesDetails[i].candidateAddress == _person){... */\n      tag_180\n      jumpi\n        /* \"Voting Contract/voting.sol\":2003:2008  false */\n      0x00\n        /* \"Voting Contract/voting.sol\":1996:2008  return false */\n      swap2\n      pop\n      pop\n      jump(tag_176)\n        /* \"Voting Contract/voting.sol\":1925:2024  if(candidatesDetails[i].candidateAddress == _person){... */\n    tag_180:\n        /* \"Voting Contract/voting.sol\":1906:1909  i++ */\n      dup1\n      dup1\n      tag_181\n      swap1\n      tag_90\n      jump\t// in\n    tag_181:\n      swap2\n      pop\n      pop\n        /* \"Voting Contract/voting.sol\":1873:2049  for(uint i=1; i<nextCandidateID; i++){... */\n      jump(tag_177)\n    tag_178:\n      pop\n        /* \"Voting Contract/voting.sol\":2066:2070  true */\n      0x01\n        /* \"Voting Contract/voting.sol\":2059:2070  return true */\n      swap1\n      pop\n        /* \"Voting Contract/voting.sol\":1786:2078  function candidateVerification(address _person) internal view returns(bool) {... */\n    tag_176:\n      swap2\n      swap1\n      pop\n      jump\t// out\n        /* \"Voting Contract/voting.sol\":2834:3109  function voterVerification(address _person) internal view returns(bool){... */\n    tag_143:\n        /* \"Voting Contract/voting.sol\":2900:2904  bool */\n      0x00\n        /* \"Voting Contract/voting.sol\":2921:2927  uint i */\n      dup1\n        /* \"Voting Contract/voting.sol\":2928:2929  1 */\n      0x01\n        /* \"Voting Contract/voting.sol\":2921:2929  uint i=1 */\n      swap1\n      pop\n        /* \"Voting Contract/voting.sol\":2917:3080  for(uint i=1; i<nextVoterID; i++){... */\n    tag_183:\n        /* \"Voting Contract/voting.sol\":2933:2944  nextVoterID */\n      sload(0x05)\n        /* \"Voting Contract/voting.sol\":2931:2932  i */\n      dup2\n        /* \"Voting Contract/voting.sol\":2931:2944  i<nextVoterID */\n      lt\n        /* \"Voting Contract/voting.sol\":2917:3080  for(uint i=1; i<nextVoterID; i++){... */\n      iszero\n      tag_184\n      jumpi\n        /* \"Voting Contract/voting.sol\":3000:3007  _person */\n      dup3\n        /* \"Voting Contract/voting.sol\":2968:3007  voterDetails[i].voterAddress == _person */\n      0xffffffffffffffffffffffffffffffffffffffff\n      and\n        /* \"Voting Contract/voting.sol\":2968:2980  voterDetails */\n      0x03\n        /* \"Voting Contract/voting.sol\":2968:2983  voterDetails[i] */\n      0x00\n        /* \"Voting Contract/voting.sol\":2981:2982  i */\n      dup4\n        /* \"Voting Contract/voting.sol\":2968:2983  voterDetails[i] */\n      dup2\n      mstore\n      0x20\n      add\n      swap1\n      dup2\n      mstore\n      0x20\n      add\n      0x00\n      keccak256\n        /* \"Voting Contract/voting.sol\":2968:2996  voterDetails[i].voterAddress */\n      0x05\n      add\n      0x00\n      swap1\n      sload\n      swap1\n      0x0100\n      exp\n      swap1\n      div\n      0xffffffffffffffffffffffffffffffffffffffff\n      and\n        /* \"Voting Contract/voting.sol\":2968:3007  voterDetails[i].voterAddress == _person */\n      0xffffffffffffffffffffffffffffffffffffffff\n      and\n      sub\n        /* \"Voting Contract/voting.sol\":2965:3055  if(voterDetails[i].voterAddress == _person){... */\n      tag_186\n      jumpi\n        /* \"Voting Contract/voting.sol\":3034:3039  false */\n      0x00\n        /* \"Voting Contract/voting.sol\":3027:3039  return false */\n      swap2\n      pop\n      pop\n      jump(tag_182)\n        /* \"Voting Contract/voting.sol\":2965:3055  if(voterDetails[i].voterAddress == _person){... */\n    tag_186:\n        /* \"Voting Contract/voting.sol\":2946:2949  i++ */\n      dup1\n      dup1\n      tag_187\n      swap1\n      tag_90\n      jump\t// in\n    tag_187:\n      swap2\n      pop\n      pop\n        /* \"Voting Contract/voting.sol\":2917:3080  for(uint i=1; i<nextVoterID; i++){... */\n      jump(tag_183)\n    tag_184:\n      pop\n        /* \"Voting Contract/voting.sol\":3097:3101  true */\n      0x01\n        /* \"Voting Contract/voting.sol\":3090:3101  return true */\n      swap1\n      pop\n        /* \"Voting Contract/voting.sol\":2834:3109  function voterVerification(address _person) internal view returns(bool){... */\n    tag_182:\n      swap2\n      swap1\n      pop\n      jump\t// out\n    tag_70:\n      mload(0x40)\n      dup1\n      0xc0\n      add\n      0x40\n      mstore\n      dup1\n      0x60\n      dup2\n      mstore\n      0x20\n      add\n      0x00\n      dup2\n      mstore\n      0x20\n      add\n      0x00\n      dup2\n      mstore\n      0x20\n      add\n      0x60\n      dup2\n      mstore\n      0x20\n      add\n      0x00\n      dup2\n      mstore\n      0x20\n      add\n      and(0xffffffffffffffffffffffffffffffffffffffff, 0x00)\n      dup2\n      mstore\n      pop\n      swap1\n      jump\t// out\n    tag_98:\n      mload(0x40)\n      dup1\n      0xe0\n      add\n      0x40\n      mstore\n      dup1\n      0x60\n      dup2\n      mstore\n      0x20\n      add\n      0x00\n      dup2\n      mstore\n      0x20\n      add\n      0x60\n      dup2\n      mstore\n      0x20\n      add\n      0x00\n      dup2\n      mstore\n      0x20\n      add\n      0x60\n      dup2\n      mstore\n      0x20\n      add\n      and(0xffffffffffffffffffffffffffffffffffffffff, 0x00)\n      dup2\n      mstore\n      0x20\n      add\n      0x00\n      dup2\n      mstore\n      pop\n      swap1\n      jump\t// out\n        /* \"#utility.yul\":88:205   */\n    tag_189:\n        /* \"#utility.yul\":197:198   */\n      0x00\n        /* \"#utility.yul\":194:195   */\n      dup1\n        /* \"#utility.yul\":187:199   */\n      revert\n        /* \"#utility.yul\":211:328   */\n    tag_190:\n        /* \"#utility.yul\":320:321   */\n      0x00\n        /* \"#utility.yul\":317:318   */\n      dup1\n        /* \"#utility.yul\":310:322   */\n      revert\n        /* \"#utility.yul\":334:411   */\n    tag_191:\n        /* \"#utility.yul\":371:378   */\n      0x00\n        /* \"#utility.yul\":400:405   */\n      dup2\n        /* \"#utility.yul\":389:405   */\n      swap1\n      pop\n        /* \"#utility.yul\":334:411   */\n      swap2\n      swap1\n      pop\n      jump\t// out\n        /* \"#utility.yul\":417:539   */\n    tag_192:\n        /* \"#utility.yul\":490:514   */\n      tag_271\n        /* \"#utility.yul\":508:513   */\n      dup2\n        /* \"#utility.yul\":490:514   */\n      tag_191\n      jump\t// in\n    tag_271:\n        /* \"#utility.yul\":483:488   */\n      dup2\n        /* \"#utility.yul\":480:515   */\n      eq\n        /* \"#utility.yul\":470:533   */\n      tag_272\n      jumpi\n        /* \"#utility.yul\":529:530   */\n      0x00\n        /* \"#utility.yul\":526:527   */\n      dup1\n        /* \"#utility.yul\":519:531   */\n      revert\n        /* \"#utility.yul\":470:533   */\n    tag_272:\n        /* \"#utility.yul\":417:539   */\n      pop\n      jump\t// out\n        /* \"#utility.yul\":545:684   */\n    tag_193:\n        /* \"#utility.yul\":591:596   */\n      0x00\n        /* \"#utility.yul\":629:635   */\n      dup2\n        /* \"#utility.yul\":616:636   */\n      calldataload\n        /* \"#utility.yul\":607:636   */\n      swap1\n      pop\n        /* \"#utility.yul\":645:678   */\n      tag_274\n        /* \"#utility.yul\":672:677   */\n      dup2\n        /* \"#utility.yul\":645:678   */\n      tag_192\n      jump\t// in\n    tag_274:\n        /* \"#utility.yul\":545:684   */\n      swap3\n      swap2\n      pop\n      pop\n      jump\t// out\n        /* \"#utility.yul\":690:1164   */\n    tag_15:\n        /* \"#utility.yul\":758:764   */\n      0x00\n        /* \"#utility.yul\":766:772   */\n      dup1\n        /* \"#utility.yul\":815:817   */\n      0x40\n        /* \"#utility.yul\":803:812   */\n      dup4\n        /* \"#utility.yul\":794:801   */\n      dup6\n        /* \"#utility.yul\":790:813   */\n      sub\n        /* \"#utility.yul\":786:818   */\n      slt\n        /* \"#utility.yul\":783:902   */\n      iszero\n      tag_276\n      jumpi\n        /* \"#utility.yul\":821:900   */\n      tag_277\n      tag_189\n      jump\t// in\n    tag_277:\n        /* \"#utility.yul\":783:902   */\n    tag_276:\n        /* \"#utility.yul\":941:942   */\n      0x00\n        /* \"#utility.yul\":966:1019   */\n      tag_278\n        /* \"#utility.yul\":1011:1018   */\n      dup6\n        /* \"#utility.yul\":1002:1008   */\n      dup3\n        /* \"#utility.yul\":991:1000   */\n      dup7\n        /* \"#utility.yul\":987:1009   */\n      add\n        /* \"#utility.yul\":966:1019   */\n      tag_193\n      jump\t// in\n    tag_278:\n        /* \"#utility.yul\":956:1019   */\n      swap3\n      pop\n        /* \"#utility.yul\":912:1029   */\n      pop\n        /* \"#utility.yul\":1068:1070   */\n      0x20\n        /* \"#utility.yul\":1094:1147   */\n      tag_279\n        /* \"#utility.yul\":1139:1146   */\n      dup6\n        /* \"#utility.yul\":1130:1136   */\n      dup3\n        /* \"#utility.yul\":1119:1128   */\n      dup7\n        /* \"#utility.yul\":1115:1137   */\n      add\n        /* \"#utility.yul\":1094:1147   */\n      tag_193\n      jump\t// in\n    tag_279:\n        /* \"#utility.yul\":1084:1147   */\n      swap2\n      pop\n        /* \"#utility.yul\":1039:1157   */\n      pop\n        /* \"#utility.yul\":690:1164   */\n      swap3\n      pop\n      swap3\n      swap1\n      pop\n      jump\t// out\n        /* \"#utility.yul\":1170:1269   */\n    tag_194:\n        /* \"#utility.yul\":1222:1228   */\n      0x00\n        /* \"#utility.yul\":1256:1261   */\n      dup2\n        /* \"#utility.yul\":1250:1262   */\n      mload\n        /* \"#utility.yul\":1240:1262   */\n      swap1\n      pop\n        /* \"#utility.yul\":1170:1269   */\n      swap2\n      swap1\n      pop\n      jump\t// out\n        /* \"#utility.yul\":1275:1444   */\n    tag_195:\n        /* \"#utility.yul\":1359:1370   */\n      0x00\n        /* \"#utility.yul\":1393:1399   */\n      dup3\n        /* \"#utility.yul\":1388:1391   */\n      dup3\n        /* \"#utility.yul\":1381:1400   */\n      mstore\n        /* \"#utility.yul\":1433:1437   */\n      0x20\n        /* \"#utility.yul\":1428:1431   */\n      dup3\n        /* \"#utility.yul\":1424:1438   */\n      add\n        /* \"#utility.yul\":1409:1438   */\n      swap1\n      pop\n        /* \"#utility.yul\":1275:1444   */\n      swap3\n      swap2\n      pop\n      pop\n      jump\t// out\n        /* \"#utility.yul\":1450:1696   */\n    tag_196:\n        /* \"#utility.yul\":1531:1532   */\n      0x00\n        /* \"#utility.yul\":1541:1654   */\n    tag_283:\n        /* \"#utility.yul\":1555:1561   */\n      dup4\n        /* \"#utility.yul\":1552:1553   */\n      dup2\n        /* \"#utility.yul\":1549:1562   */\n      lt\n        /* \"#utility.yul\":1541:1654   */\n      iszero\n      tag_285\n      jumpi\n        /* \"#utility.yul\":1640:1641   */\n      dup1\n        /* \"#utility.yul\":1635:1638   */\n      dup3\n        /* \"#utility.yul\":1631:1642   */\n      add\n        /* \"#utility.yul\":1625:1643   */\n      mload\n        /* \"#utility.yul\":1621:1622   */\n      dup2\n        /* \"#utility.yul\":1616:1619   */\n      dup5\n        /* \"#utility.yul\":1612:1623   */\n      add\n        /* \"#utility.yul\":1605:1644   */\n      mstore\n        /* \"#utility.yul\":1577:1579   */\n      0x20\n        /* \"#utility.yul\":1574:1575   */\n      dup2\n        /* \"#utility.yul\":1570:1580   */\n      add\n        /* \"#utility.yul\":1565:1580   */\n      swap1\n      pop\n        /* \"#utility.yul\":1541:1654   */\n      jump(tag_283)\n    tag_285:\n        /* \"#utility.yul\":1688:1689   */\n      0x00\n        /* \"#utility.yul\":1679:1685   */\n      dup5\n        /* \"#utility.yul\":1674:1677   */\n      dup5\n        /* \"#utility.yul\":1670:1686   */\n      add\n        /* \"#utility.yul\":1663:1690   */\n      mstore\n        /* \"#utility.yul\":1512:1696   */\n      pop\n        /* \"#utility.yul\":1450:1696   */\n      pop\n      pop\n      pop\n      jump\t// out\n        /* \"#utility.yul\":1702:1804   */\n    tag_197:\n        /* \"#utility.yul\":1743:1749   */\n      0x00\n        /* \"#utility.yul\":1794:1796   */\n      0x1f\n        /* \"#utility.yul\":1790:1797   */\n      not\n        /* \"#utility.yul\":1785:1787   */\n      0x1f\n        /* \"#utility.yul\":1778:1783   */\n      dup4\n        /* \"#utility.yul\":1774:1788   */\n      add\n        /* \"#utility.yul\":1770:1798   */\n      and\n        /* \"#utility.yul\":1760:1798   */\n      swap1\n      pop\n        /* \"#utility.yul\":1702:1804   */\n      swap2\n      swap1\n      pop\n      jump\t// out\n        /* \"#utility.yul\":1810:2187   */\n    tag_198:\n        /* \"#utility.yul\":1898:1901   */\n      0x00\n        /* \"#utility.yul\":1926:1965   */\n      tag_288\n        /* \"#utility.yul\":1959:1964   */\n      dup3\n        /* \"#utility.yul\":1926:1965   */\n      tag_194\n      jump\t// in\n    tag_288:\n        /* \"#utility.yul\":1981:2052   */\n      tag_289\n        /* \"#utility.yul\":2045:2051   */\n      dup2\n        /* \"#utility.yul\":2040:2043   */\n      dup6\n        /* \"#utility.yul\":1981:2052   */\n      tag_195\n      jump\t// in\n    tag_289:\n        /* \"#utility.yul\":1974:2052   */\n      swap4\n      pop\n        /* \"#utility.yul\":2061:2126   */\n      tag_290\n        /* \"#utility.yul\":2119:2125   */\n      dup2\n        /* \"#utility.yul\":2114:2117   */\n      dup6\n        /* \"#utility.yul\":2107:2111   */\n      0x20\n        /* \"#utility.yul\":2100:2105   */\n      dup7\n        /* \"#utility.yul\":2096:2112   */\n      add\n        /* \"#utility.yul\":2061:2126   */\n      tag_196\n      jump\t// in\n    tag_290:\n        /* \"#utility.yul\":2151:2180   */\n      tag_291\n        /* \"#utility.yul\":2173:2179   */\n      dup2\n        /* \"#utility.yul\":2151:2180   */\n      tag_197\n      jump\t// in\n    tag_291:\n        /* \"#utility.yul\":2146:2149   */\n      dup5\n        /* \"#utility.yul\":2142:2181   */\n      add\n        /* \"#utility.yul\":2135:2181   */\n      swap2\n      pop\n        /* \"#utility.yul\":1902:2187   */\n      pop\n        /* \"#utility.yul\":1810:2187   */\n      swap3\n      swap2\n      pop\n      pop\n      jump\t// out\n        /* \"#utility.yul\":2193:2283   */\n    tag_199:\n        /* \"#utility.yul\":2227:2234   */\n      0x00\n        /* \"#utility.yul\":2270:2275   */\n      dup2\n        /* \"#utility.yul\":2263:2276   */\n      iszero\n        /* \"#utility.yul\":2256:2277   */\n      iszero\n        /* \"#utility.yul\":2245:2277   */\n      swap1\n      pop\n        /* \"#utility.yul\":2193:2283   */\n      swap2\n      swap1\n      pop\n      jump\t// out\n        /* \"#utility.yul\":2289:2398   */\n    tag_200:\n        /* \"#utility.yul\":2370:2391   */\n      tag_294\n        /* \"#utility.yul\":2385:2390   */\n      dup2\n        /* \"#utility.yul\":2370:2391   */\n      tag_199\n      jump\t// in\n    tag_294:\n        /* \"#utility.yul\":2365:2368   */\n      dup3\n        /* \"#utility.yul\":2358:2392   */\n      mstore\n        /* \"#utility.yul\":2289:2398   */\n      pop\n      pop\n      jump\t// out\n        /* \"#utility.yul\":2404:2815   */\n    tag_20:\n        /* \"#utility.yul\":2539:2543   */\n      0x00\n        /* \"#utility.yul\":2577:2579   */\n      0x40\n        /* \"#utility.yul\":2566:2575   */\n      dup3\n        /* \"#utility.yul\":2562:2580   */\n      add\n        /* \"#utility.yul\":2554:2580   */\n      swap1\n      pop\n        /* \"#utility.yul\":2626:2635   */\n      dup2\n        /* \"#utility.yul\":2620:2624   */\n      dup2\n        /* \"#utility.yul\":2616:2636   */\n      sub\n        /* \"#utility.yul\":2612:2613   */\n      0x00\n        /* \"#utility.yul\":2601:2610   */\n      dup4\n        /* \"#utility.yul\":2597:2614   */\n      add\n        /* \"#utility.yul\":2590:2637   */\n      mstore\n        /* \"#utility.yul\":2654:2732   */\n      tag_296\n        /* \"#utility.yul\":2727:2731   */\n      dup2\n        /* \"#utility.yul\":2718:2724   */\n      dup6\n        /* \"#utility.yul\":2654:2732   */\n      tag_198\n      jump\t// in\n    tag_296:\n        /* \"#utility.yul\":2646:2732   */\n      swap1\n      pop\n        /* \"#utility.yul\":2742:2808   */\n      tag_297\n        /* \"#utility.yul\":2804:2806   */\n      0x20\n        /* \"#utility.yul\":2793:2802   */\n      dup4\n        /* \"#utility.yul\":2789:2807   */\n      add\n        /* \"#utility.yul\":2780:2786   */\n      dup5\n        /* \"#utility.yul\":2742:2808   */\n      tag_200\n      jump\t// in\n    tag_297:\n        /* \"#utility.yul\":2404:2815   */\n      swap4\n      swap3\n      pop\n      pop\n      pop\n      jump\t// out\n        /* \"#utility.yul\":2821:2956   */\n    tag_201:\n        /* \"#utility.yul\":2909:2915   */\n      0x00\n        /* \"#utility.yul\":2943:2948   */\n      dup2\n        /* \"#utility.yul\":2937:2949   */\n      mload\n        /* \"#utility.yul\":2927:2949   */\n      swap1\n      pop\n        /* \"#utility.yul\":2821:2956   */\n      swap2\n      swap1\n      pop\n      jump\t// out\n        /* \"#utility.yul\":2962:3167   */\n    tag_202:\n        /* \"#utility.yul\":3082:3093   */\n      0x00\n        /* \"#utility.yul\":3116:3122   */\n      dup3\n        /* \"#utility.yul\":3111:3114   */\n      dup3\n        /* \"#utility.yul\":3104:3123   */\n      mstore\n        /* \"#utility.yul\":3156:3160   */\n      0x20\n        /* \"#utility.yul\":3151:3154   */\n      dup3\n        /* \"#utility.yul\":3147:3161   */\n      add\n        /* \"#utility.yul\":3132:3161   */\n      swap1\n      pop\n        /* \"#utility.yul\":2962:3167   */\n      swap3\n      swap2\n      pop\n      pop\n      jump\t// out\n        /* \"#utility.yul\":3173:3326   */\n    tag_203:\n        /* \"#utility.yul\":3261:3265   */\n      0x00\n        /* \"#utility.yul\":3284:3287   */\n      dup2\n        /* \"#utility.yul\":3276:3287   */\n      swap1\n      pop\n        /* \"#utility.yul\":3314:3318   */\n      0x20\n        /* \"#utility.yul\":3309:3312   */\n      dup3\n        /* \"#utility.yul\":3305:3319   */\n      add\n        /* \"#utility.yul\":3297:3319   */\n      swap1\n      pop\n        /* \"#utility.yul\":3173:3326   */\n      swap2\n      swap1\n      pop\n      jump\t// out\n        /* \"#utility.yul\":3332:3491   */\n    tag_204:\n        /* \"#utility.yul\":3406:3417   */\n      0x00\n        /* \"#utility.yul\":3440:3446   */\n      dup3\n        /* \"#utility.yul\":3435:3438   */\n      dup3\n        /* \"#utility.yul\":3428:3447   */\n      mstore\n        /* \"#utility.yul\":3480:3484   */\n      0x20\n        /* \"#utility.yul\":3475:3478   */\n      dup3\n        /* \"#utility.yul\":3471:3485   */\n      add\n        /* \"#utility.yul\":3456:3485   */\n      swap1\n      pop\n        /* \"#utility.yul\":3332:3491   */\n      swap3\n      swap2\n      pop\n      pop\n      jump\t// out\n        /* \"#utility.yul\":3497:3854   */\n    tag_205:\n        /* \"#utility.yul\":3575:3578   */\n      0x00\n        /* \"#utility.yul\":3603:3642   */\n      tag_303\n        /* \"#utility.yul\":3636:3641   */\n      dup3\n        /* \"#utility.yul\":3603:3642   */\n      tag_194\n      jump\t// in\n    tag_303:\n        /* \"#utility.yul\":3658:3719   */\n      tag_304\n        /* \"#utility.yul\":3712:3718   */\n      dup2\n        /* \"#utility.yul\":3707:3710   */\n      dup6\n        /* \"#utility.yul\":3658:3719   */\n      tag_204\n      jump\t// in\n    tag_304:\n        /* \"#utility.yul\":3651:3719   */\n      swap4\n      pop\n        /* \"#utility.yul\":3728:3793   */\n      tag_305\n        /* \"#utility.yul\":3786:3792   */\n      dup2\n        /* \"#utility.yul\":3781:3784   */\n      dup6\n        /* \"#utility.yul\":3774:3778   */\n      0x20\n        /* \"#utility.yul\":3767:3772   */\n      dup7\n        /* \"#utility.yul\":3763:3779   */\n      add\n        /* \"#utility.yul\":3728:3793   */\n      tag_196\n      jump\t// in\n    tag_305:\n        /* \"#utility.yul\":3818:3847   */\n      tag_306\n        /* \"#utility.yul\":3840:3846   */\n      dup2\n        /* \"#utility.yul\":3818:3847   */\n      tag_197\n      jump\t// in\n    tag_306:\n        /* \"#utility.yul\":3813:3816   */\n      dup5\n        /* \"#utility.yul\":3809:3848   */\n      add\n        /* \"#utility.yul\":3802:3848   */\n      swap2\n      pop\n        /* \"#utility.yul\":3579:3854   */\n      pop\n        /* \"#utility.yul\":3497:3854   */\n      swap3\n      swap2\n      pop\n      pop\n      jump\t// out\n        /* \"#utility.yul\":3860:3968   */\n    tag_206:\n        /* \"#utility.yul\":3937:3961   */\n      tag_308\n        /* \"#utility.yul\":3955:3960   */\n      dup2\n        /* \"#utility.yul\":3937:3961   */\n      tag_191\n      jump\t// in\n    tag_308:\n        /* \"#utility.yul\":3932:3935   */\n      dup3\n        /* \"#utility.yul\":3925:3962   */\n      mstore\n        /* \"#utility.yul\":3860:3968   */\n      pop\n      pop\n      jump\t// out\n        /* \"#utility.yul\":3974:4100   */\n    tag_207:\n        /* \"#utility.yul\":4011:4018   */\n      0x00\n        /* \"#utility.yul\":4051:4093   */\n      0xffffffffffffffffffffffffffffffffffffffff\n        /* \"#utility.yul\":4044:4049   */\n      dup3\n        /* \"#utility.yul\":4040:4094   */\n      and\n        /* \"#utility.yul\":4029:4094   */\n      swap1\n      pop\n        /* \"#utility.yul\":3974:4100   */\n      swap2\n      swap1\n      pop\n      jump\t// out\n        /* \"#utility.yul\":4106:4202   */\n    tag_208:\n        /* \"#utility.yul\":4143:4150   */\n      0x00\n        /* \"#utility.yul\":4172:4196   */\n      tag_311\n        /* \"#utility.yul\":4190:4195   */\n      dup3\n        /* \"#utility.yul\":4172:4196   */\n      tag_207\n      jump\t// in\n    tag_311:\n        /* \"#utility.yul\":4161:4196   */\n      swap1\n      pop\n        /* \"#utility.yul\":4106:4202   */\n      swap2\n      swap1\n      pop\n      jump\t// out\n        /* \"#utility.yul\":4208:4316   */\n    tag_209:\n        /* \"#utility.yul\":4285:4309   */\n      tag_313\n        /* \"#utility.yul\":4303:4308   */\n      dup2\n        /* \"#utility.yul\":4285:4309   */\n      tag_208\n      jump\t// in\n    tag_313:\n        /* \"#utility.yul\":4280:4283   */\n      dup3\n        /* \"#utility.yul\":4273:4310   */\n      mstore\n        /* \"#utility.yul\":4208:4316   */\n      pop\n      pop\n      jump\t// out\n        /* \"#utility.yul\":4390:5768   */\n    tag_210:\n        /* \"#utility.yul\":4491:4494   */\n      0x00\n        /* \"#utility.yul\":4527:4531   */\n      0xc0\n        /* \"#utility.yul\":4522:4525   */\n      dup4\n        /* \"#utility.yul\":4518:4532   */\n      add\n        /* \"#utility.yul\":4614:4618   */\n      0x00\n        /* \"#utility.yul\":4607:4612   */\n      dup4\n        /* \"#utility.yul\":4603:4619   */\n      add\n        /* \"#utility.yul\":4597:4620   */\n      mload\n        /* \"#utility.yul\":4667:4670   */\n      dup5\n        /* \"#utility.yul\":4661:4665   */\n      dup3\n        /* \"#utility.yul\":4657:4671   */\n      sub\n        /* \"#utility.yul\":4650:4654   */\n      0x00\n        /* \"#utility.yul\":4645:4648   */\n      dup7\n        /* \"#utility.yul\":4641:4655   */\n      add\n        /* \"#utility.yul\":4634:4672   */\n      mstore\n        /* \"#utility.yul\":4693:4766   */\n      tag_315\n        /* \"#utility.yul\":4761:4765   */\n      dup3\n        /* \"#utility.yul\":4747:4759   */\n      dup3\n        /* \"#utility.yul\":4693:4766   */\n      tag_205\n      jump\t// in\n    tag_315:\n        /* \"#utility.yul\":4685:4766   */\n      swap2\n      pop\n        /* \"#utility.yul\":4542:4777   */\n      pop\n        /* \"#utility.yul\":4858:4862   */\n      0x20\n        /* \"#utility.yul\":4851:4856   */\n      dup4\n        /* \"#utility.yul\":4847:4863   */\n      add\n        /* \"#utility.yul\":4841:4864   */\n      mload\n        /* \"#utility.yul\":4877:4940   */\n      tag_316\n        /* \"#utility.yul\":4934:4938   */\n      0x20\n        /* \"#utility.yul\":4929:4932   */\n      dup7\n        /* \"#utility.yul\":4925:4939   */\n      add\n        /* \"#utility.yul\":4911:4923   */\n      dup3\n        /* \"#utility.yul\":4877:4940   */\n      tag_206\n      jump\t// in\n    tag_316:\n        /* \"#utility.yul\":4787:4950   */\n      pop\n        /* \"#utility.yul\":5035:5039   */\n      0x40\n        /* \"#utility.yul\":5028:5033   */\n      dup4\n        /* \"#utility.yul\":5024:5040   */\n      add\n        /* \"#utility.yul\":5018:5041   */\n      mload\n        /* \"#utility.yul\":5054:5117   */\n      tag_317\n        /* \"#utility.yul\":5111:5115   */\n      0x40\n        /* \"#utility.yul\":5106:5109   */\n      dup7\n        /* \"#utility.yul\":5102:5116   */\n      add\n        /* \"#utility.yul\":5088:5100   */\n      dup3\n        /* \"#utility.yul\":5054:5117   */\n      tag_206\n      jump\t// in\n    tag_317:\n        /* \"#utility.yul\":4960:5127   */\n      pop\n        /* \"#utility.yul\":5211:5215   */\n      0x60\n        /* \"#utility.yul\":5204:5209   */\n      dup4\n        /* \"#utility.yul\":5200:5216   */\n      add\n        /* \"#utility.yul\":5194:5217   */\n      mload\n        /* \"#utility.yul\":5264:5267   */\n      dup5\n        /* \"#utility.yul\":5258:5262   */\n      dup3\n        /* \"#utility.yul\":5254:5268   */\n      sub\n        /* \"#utility.yul\":5247:5251   */\n      0x60\n        /* \"#utility.yul\":5242:5245   */\n      dup7\n        /* \"#utility.yul\":5238:5252   */\n      add\n        /* \"#utility.yul\":5231:5269   */\n      mstore\n        /* \"#utility.yul\":5290:5363   */\n      tag_318\n        /* \"#utility.yul\":5358:5362   */\n      dup3\n        /* \"#utility.yul\":5344:5356   */\n      dup3\n        /* \"#utility.yul\":5290:5363   */\n      tag_205\n      jump\t// in\n    tag_318:\n        /* \"#utility.yul\":5282:5363   */\n      swap2\n      pop\n        /* \"#utility.yul\":5137:5374   */\n      pop\n        /* \"#utility.yul\":5467:5471   */\n      0x80\n        /* \"#utility.yul\":5460:5465   */\n      dup4\n        /* \"#utility.yul\":5456:5472   */\n      add\n        /* \"#utility.yul\":5450:5473   */\n      mload\n        /* \"#utility.yul\":5486:5549   */\n      tag_319\n        /* \"#utility.yul\":5543:5547   */\n      0x80\n        /* \"#utility.yul\":5538:5541   */\n      dup7\n        /* \"#utility.yul\":5534:5548   */\n      add\n        /* \"#utility.yul\":5520:5532   */\n      dup3\n        /* \"#utility.yul\":5486:5549   */\n      tag_206\n      jump\t// in\n    tag_319:\n        /* \"#utility.yul\":5384:5559   */\n      pop\n        /* \"#utility.yul\":5649:5653   */\n      0xa0\n        /* \"#utility.yul\":5642:5647   */\n      dup4\n        /* \"#utility.yul\":5638:5654   */\n      add\n        /* \"#utility.yul\":5632:5655   */\n      mload\n        /* \"#utility.yul\":5668:5731   */\n      tag_320\n        /* \"#utility.yul\":5725:5729   */\n      0xa0\n        /* \"#utility.yul\":5720:5723   */\n      dup7\n        /* \"#utility.yul\":5716:5730   */\n      add\n        /* \"#utility.yul\":5702:5714   */\n      dup3\n        /* \"#utility.yul\":5668:5731   */\n      tag_209\n      jump\t// in\n    tag_320:\n        /* \"#utility.yul\":5569:5741   */\n      pop\n        /* \"#utility.yul\":5758:5762   */\n      dup1\n        /* \"#utility.yul\":5751:5762   */\n      swap2\n      pop\n        /* \"#utility.yul\":4496:5768   */\n      pop\n        /* \"#utility.yul\":4390:5768   */\n      swap3\n      swap2\n      pop\n      pop\n      jump\t// out\n        /* \"#utility.yul\":5774:6014   */\n    tag_211:\n        /* \"#utility.yul\":5885:5895   */\n      0x00\n        /* \"#utility.yul\":5920:6008   */\n      tag_322\n        /* \"#utility.yul\":6004:6007   */\n      dup4\n        /* \"#utility.yul\":5996:6002   */\n      dup4\n        /* \"#utility.yul\":5920:6008   */\n      tag_210\n      jump\t// in\n    tag_322:\n        /* \"#utility.yul\":5906:6008   */\n      swap1\n      pop\n        /* \"#utility.yul\":5774:6014   */\n      swap3\n      swap2\n      pop\n      pop\n      jump\t// out\n        /* \"#utility.yul\":6020:6154   */\n    tag_212:\n        /* \"#utility.yul\":6111:6115   */\n      0x00\n        /* \"#utility.yul\":6143:6147   */\n      0x20\n        /* \"#utility.yul\":6138:6141   */\n      dup3\n        /* \"#utility.yul\":6134:6148   */\n      add\n        /* \"#utility.yul\":6126:6148   */\n      swap1\n      pop\n        /* \"#utility.yul\":6020:6154   */\n      swap2\n      swap1\n      pop\n      jump\t// out\n        /* \"#utility.yul\":6232:7311   */\n    tag_213:\n        /* \"#utility.yul\":6393:6396   */\n      0x00\n        /* \"#utility.yul\":6422:6497   */\n      tag_325\n        /* \"#utility.yul\":6491:6496   */\n      dup3\n        /* \"#utility.yul\":6422:6497   */\n      tag_201\n      jump\t// in\n    tag_325:\n        /* \"#utility.yul\":6513:6620   */\n      tag_326\n        /* \"#utility.yul\":6613:6619   */\n      dup2\n        /* \"#utility.yul\":6608:6611   */\n      dup6\n        /* \"#utility.yul\":6513:6620   */\n      tag_202\n      jump\t// in\n    tag_326:\n        /* \"#utility.yul\":6506:6620   */\n      swap4\n      pop\n        /* \"#utility.yul\":6646:6649   */\n      dup4\n        /* \"#utility.yul\":6691:6695   */\n      0x20\n        /* \"#utility.yul\":6683:6689   */\n      dup3\n        /* \"#utility.yul\":6679:6696   */\n      mul\n        /* \"#utility.yul\":6674:6677   */\n      dup6\n        /* \"#utility.yul\":6670:6697   */\n      add\n        /* \"#utility.yul\":6721:6798   */\n      tag_327\n        /* \"#utility.yul\":6792:6797   */\n      dup6\n        /* \"#utility.yul\":6721:6798   */\n      tag_203\n      jump\t// in\n    tag_327:\n        /* \"#utility.yul\":6821:6828   */\n      dup1\n        /* \"#utility.yul\":6852:6853   */\n      0x00\n        /* \"#utility.yul\":6837:7266   */\n    tag_328:\n        /* \"#utility.yul\":6862:6868   */\n      dup6\n        /* \"#utility.yul\":6859:6860   */\n      dup2\n        /* \"#utility.yul\":6856:6869   */\n      lt\n        /* \"#utility.yul\":6837:7266   */\n      iszero\n      tag_330\n      jumpi\n        /* \"#utility.yul\":6933:6942   */\n      dup5\n        /* \"#utility.yul\":6927:6931   */\n      dup5\n        /* \"#utility.yul\":6923:6943   */\n      sub\n        /* \"#utility.yul\":6918:6921   */\n      dup10\n        /* \"#utility.yul\":6911:6944   */\n      mstore\n        /* \"#utility.yul\":6984:6990   */\n      dup2\n        /* \"#utility.yul\":6978:6991   */\n      mload\n        /* \"#utility.yul\":7012:7118   */\n      tag_331\n        /* \"#utility.yul\":7113:7117   */\n      dup6\n        /* \"#utility.yul\":7098:7111   */\n      dup3\n        /* \"#utility.yul\":7012:7118   */\n      tag_211\n      jump\t// in\n    tag_331:\n        /* \"#utility.yul\":7004:7118   */\n      swap5\n      pop\n        /* \"#utility.yul\":7141:7222   */\n      tag_332\n        /* \"#utility.yul\":7215:7221   */\n      dup4\n        /* \"#utility.yul\":7141:7222   */\n      tag_212\n      jump\t// in\n    tag_332:\n        /* \"#utility.yul\":7131:7222   */\n      swap3\n      pop\n        /* \"#utility.yul\":7251:7255   */\n      0x20\n        /* \"#utility.yul\":7246:7249   */\n      dup11\n        /* \"#utility.yul\":7242:7256   */\n      add\n        /* \"#utility.yul\":7235:7256   */\n      swap10\n      pop\n        /* \"#utility.yul\":6897:7266   */\n      pop\n        /* \"#utility.yul\":6884:6885   */\n      0x01\n        /* \"#utility.yul\":6881:6882   */\n      dup2\n        /* \"#utility.yul\":6877:6886   */\n      add\n        /* \"#utility.yul\":6872:6886   */\n      swap1\n      pop\n        /* \"#utility.yul\":6837:7266   */\n      jump(tag_328)\n    tag_330:\n        /* \"#utility.yul\":6841:6855   */\n      pop\n        /* \"#utility.yul\":7282:7286   */\n      dup3\n        /* \"#utility.yul\":7275:7286   */\n      swap8\n      pop\n        /* \"#utility.yul\":7302:7305   */\n      dup8\n        /* \"#utility.yul\":7295:7305   */\n      swap6\n      pop\n        /* \"#utility.yul\":6398:7311   */\n      pop\n      pop\n      pop\n      pop\n      pop\n        /* \"#utility.yul\":6232:7311   */\n      swap3\n      swap2\n      pop\n      pop\n      jump\t// out\n        /* \"#utility.yul\":7317:7774   */\n    tag_24:\n        /* \"#utility.yul\":7502:7506   */\n      0x00\n        /* \"#utility.yul\":7540:7542   */\n      0x20\n        /* \"#utility.yul\":7529:7538   */\n      dup3\n        /* \"#utility.yul\":7525:7543   */\n      add\n        /* \"#utility.yul\":7517:7543   */\n      swap1\n      pop\n        /* \"#utility.yul\":7589:7598   */\n      dup2\n        /* \"#utility.yul\":7583:7587   */\n      dup2\n        /* \"#utility.yul\":7579:7599   */\n      sub\n        /* \"#utility.yul\":7575:7576   */\n      0x00\n        /* \"#utility.yul\":7564:7573   */\n      dup4\n        /* \"#utility.yul\":7560:7577   */\n      add\n        /* \"#utility.yul\":7553:7600   */\n      mstore\n        /* \"#utility.yul\":7617:7767   */\n      tag_334\n        /* \"#utility.yul\":7762:7766   */\n      dup2\n        /* \"#utility.yul\":7753:7759   */\n      dup5\n        /* \"#utility.yul\":7617:7767   */\n      tag_213\n      jump\t// in\n    tag_334:\n        /* \"#utility.yul\":7609:7767   */\n      swap1\n      pop\n        /* \"#utility.yul\":7317:7774   */\n      swap3\n      swap2\n      pop\n      pop\n      jump\t// out\n        /* \"#utility.yul\":7780:7919   */\n    tag_214:\n        /* \"#utility.yul\":7872:7878   */\n      0x00\n        /* \"#utility.yul\":7906:7911   */\n      dup2\n        /* \"#utility.yul\":7900:7912   */\n      mload\n        /* \"#utility.yul\":7890:7912   */\n      swap1\n      pop\n        /* \"#utility.yul\":7780:7919   */\n      swap2\n      swap1\n      pop\n      jump\t// out\n        /* \"#utility.yul\":7925:8134   */\n    tag_215:\n        /* \"#utility.yul\":8049:8060   */\n      0x00\n        /* \"#utility.yul\":8083:8089   */\n      dup3\n        /* \"#utility.yul\":8078:8081   */\n      dup3\n        /* \"#utility.yul\":8071:8090   */\n      mstore\n        /* \"#utility.yul\":8123:8127   */\n      0x20\n        /* \"#utility.yul\":8118:8121   */\n      dup3\n        /* \"#utility.yul\":8114:8128   */\n      add\n        /* \"#utility.yul\":8099:8128   */\n      swap1\n      pop\n        /* \"#utility.yul\":7925:8134   */\n      swap3\n      swap2\n      pop\n      pop\n      jump\t// out\n        /* \"#utility.yul\":8140:8297   */\n    tag_216:\n        /* \"#utility.yul\":8232:8236   */\n      0x00\n        /* \"#utility.yul\":8255:8258   */\n      dup2\n        /* \"#utility.yul\":8247:8258   */\n      swap1\n      pop\n        /* \"#utility.yul\":8285:8289   */\n      0x20\n        /* \"#utility.yul\":8280:8283   */\n      dup3\n        /* \"#utility.yul\":8276:8290   */\n      add\n        /* \"#utility.yul\":8268:8290   */\n      swap1\n      pop\n        /* \"#utility.yul\":8140:8297   */\n      swap2\n      swap1\n      pop\n      jump\t// out\n        /* \"#utility.yul\":8379:10009   */\n    tag_217:\n        /* \"#utility.yul\":8488:8491   */\n      0x00\n        /* \"#utility.yul\":8524:8528   */\n      0xe0\n        /* \"#utility.yul\":8519:8522   */\n      dup4\n        /* \"#utility.yul\":8515:8529   */\n      add\n        /* \"#utility.yul\":8611:8615   */\n      0x00\n        /* \"#utility.yul\":8604:8609   */\n      dup4\n        /* \"#utility.yul\":8600:8616   */\n      add\n        /* \"#utility.yul\":8594:8617   */\n      mload\n        /* \"#utility.yul\":8664:8667   */\n      dup5\n        /* \"#utility.yul\":8658:8662   */\n      dup3\n        /* \"#utility.yul\":8654:8668   */\n      sub\n        /* \"#utility.yul\":8647:8651   */\n      0x00\n        /* \"#utility.yul\":8642:8645   */\n      dup7\n        /* \"#utility.yul\":8638:8652   */\n      add\n        /* \"#utility.yul\":8631:8669   */\n      mstore\n        /* \"#utility.yul\":8690:8763   */\n      tag_339\n        /* \"#utility.yul\":8758:8762   */\n      dup3\n        /* \"#utility.yul\":8744:8756   */\n      dup3\n        /* \"#utility.yul\":8690:8763   */\n      tag_205\n      jump\t// in\n    tag_339:\n        /* \"#utility.yul\":8682:8763   */\n      swap2\n      pop\n        /* \"#utility.yul\":8539:8774   */\n      pop\n        /* \"#utility.yul\":8855:8859   */\n      0x20\n        /* \"#utility.yul\":8848:8853   */\n      dup4\n        /* \"#utility.yul\":8844:8860   */\n      add\n        /* \"#utility.yul\":8838:8861   */\n      mload\n        /* \"#utility.yul\":8874:8937   */\n      tag_340\n        /* \"#utility.yul\":8931:8935   */\n      0x20\n        /* \"#utility.yul\":8926:8929   */\n      dup7\n        /* \"#utility.yul\":8922:8936   */\n      add\n        /* \"#utility.yul\":8908:8920   */\n      dup3\n        /* \"#utility.yul\":8874:8937   */\n      tag_206\n      jump\t// in\n    tag_340:\n        /* \"#utility.yul\":8784:8947   */\n      pop\n        /* \"#utility.yul\":9030:9034   */\n      0x40\n        /* \"#utility.yul\":9023:9028   */\n      dup4\n        /* \"#utility.yul\":9019:9035   */\n      add\n        /* \"#utility.yul\":9013:9036   */\n      mload\n        /* \"#utility.yul\":9083:9086   */\n      dup5\n        /* \"#utility.yul\":9077:9081   */\n      dup3\n        /* \"#utility.yul\":9073:9087   */\n      sub\n        /* \"#utility.yul\":9066:9070   */\n      0x40\n        /* \"#utility.yul\":9061:9064   */\n      dup7\n        /* \"#utility.yul\":9057:9071   */\n      add\n        /* \"#utility.yul\":9050:9088   */\n      mstore\n        /* \"#utility.yul\":9109:9182   */\n      tag_341\n        /* \"#utility.yul\":9177:9181   */\n      dup3\n        /* \"#utility.yul\":9163:9175   */\n      dup3\n        /* \"#utility.yul\":9109:9182   */\n      tag_205\n      jump\t// in\n    tag_341:\n        /* \"#utility.yul\":9101:9182   */\n      swap2\n      pop\n        /* \"#utility.yul\":8957:9193   */\n      pop\n        /* \"#utility.yul\":9282:9286   */\n      0x60\n        /* \"#utility.yul\":9275:9280   */\n      dup4\n        /* \"#utility.yul\":9271:9287   */\n      add\n        /* \"#utility.yul\":9265:9288   */\n      mload\n        /* \"#utility.yul\":9301:9364   */\n      tag_342\n        /* \"#utility.yul\":9358:9362   */\n      0x60\n        /* \"#utility.yul\":9353:9356   */\n      dup7\n        /* \"#utility.yul\":9349:9363   */\n      add\n        /* \"#utility.yul\":9335:9347   */\n      dup3\n        /* \"#utility.yul\":9301:9364   */\n      tag_206\n      jump\t// in\n    tag_342:\n        /* \"#utility.yul\":9203:9374   */\n      pop\n        /* \"#utility.yul\":9458:9462   */\n      0x80\n        /* \"#utility.yul\":9451:9456   */\n      dup4\n        /* \"#utility.yul\":9447:9463   */\n      add\n        /* \"#utility.yul\":9441:9464   */\n      mload\n        /* \"#utility.yul\":9511:9514   */\n      dup5\n        /* \"#utility.yul\":9505:9509   */\n      dup3\n        /* \"#utility.yul\":9501:9515   */\n      sub\n        /* \"#utility.yul\":9494:9498   */\n      0x80\n        /* \"#utility.yul\":9489:9492   */\n      dup7\n        /* \"#utility.yul\":9485:9499   */\n      add\n        /* \"#utility.yul\":9478:9516   */\n      mstore\n        /* \"#utility.yul\":9537:9610   */\n      tag_343\n        /* \"#utility.yul\":9605:9609   */\n      dup3\n        /* \"#utility.yul\":9591:9603   */\n      dup3\n        /* \"#utility.yul\":9537:9610   */\n      tag_205\n      jump\t// in\n    tag_343:\n        /* \"#utility.yul\":9529:9610   */\n      swap2\n      pop\n        /* \"#utility.yul\":9384:9621   */\n      pop\n        /* \"#utility.yul\":9715:9719   */\n      0xa0\n        /* \"#utility.yul\":9708:9713   */\n      dup4\n        /* \"#utility.yul\":9704:9720   */\n      add\n        /* \"#utility.yul\":9698:9721   */\n      mload\n        /* \"#utility.yul\":9734:9797   */\n      tag_344\n        /* \"#utility.yul\":9791:9795   */\n      0xa0\n        /* \"#utility.yul\":9786:9789   */\n      dup7\n        /* \"#utility.yul\":9782:9796   */\n      add\n        /* \"#utility.yul\":9768:9780   */\n      dup3\n        /* \"#utility.yul\":9734:9797   */\n      tag_209\n      jump\t// in\n    tag_344:\n        /* \"#utility.yul\":9631:9807   */\n      pop\n        /* \"#utility.yul\":9890:9894   */\n      0xc0\n        /* \"#utility.yul\":9883:9888   */\n      dup4\n        /* \"#utility.yul\":9879:9895   */\n      add\n        /* \"#utility.yul\":9873:9896   */\n      mload\n        /* \"#utility.yul\":9909:9972   */\n      tag_345\n        /* \"#utility.yul\":9966:9970   */\n      0xc0\n        /* \"#utility.yul\":9961:9964   */\n      dup7\n        /* \"#utility.yul\":9957:9971   */\n      add\n        /* \"#utility.yul\":9943:9955   */\n      dup3\n        /* \"#utility.yul\":9909:9972   */\n      tag_206\n      jump\t// in\n    tag_345:\n        /* \"#utility.yul\":9817:9982   */\n      pop\n        /* \"#utility.yul\":9999:10003   */\n      dup1\n        /* \"#utility.yul\":9992:10003   */\n      swap2\n      pop\n        /* \"#utility.yul\":8493:10009   */\n      pop\n        /* \"#utility.yul\":8379:10009   */\n      swap3\n      swap2\n      pop\n      pop\n      jump\t// out\n        /* \"#utility.yul\":10015:10271   */\n    tag_218:\n        /* \"#utility.yul\":10134:10144   */\n      0x00\n        /* \"#utility.yul\":10169:10265   */\n      tag_347\n        /* \"#utility.yul\":10261:10264   */\n      dup4\n        /* \"#utility.yul\":10253:10259   */\n      dup4\n        /* \"#utility.yul\":10169:10265   */\n      tag_217\n      jump\t// in\n    tag_347:\n        /* \"#utility.yul\":10155:10265   */\n      swap1\n      pop\n        /* \"#utility.yul\":10015:10271   */\n      swap3\n      swap2\n      pop\n      pop\n      jump\t// out\n        /* \"#utility.yul\":10277:10415   */\n    tag_219:\n        /* \"#utility.yul\":10372:10376   */\n      0x00\n        /* \"#utility.yul\":10404:10408   */\n      0x20\n        /* \"#utility.yul\":10399:10402   */\n      dup3\n        /* \"#utility.yul\":10395:10409   */\n      add\n        /* \"#utility.yul\":10387:10409   */\n      swap1\n      pop\n        /* \"#utility.yul\":10277:10415   */\n      swap2\n      swap1\n      pop\n      jump\t// out\n        /* \"#utility.yul\":10501:11612   */\n    tag_220:\n        /* \"#utility.yul\":10670:10673   */\n      0x00\n        /* \"#utility.yul\":10699:10778   */\n      tag_350\n        /* \"#utility.yul\":10772:10777   */\n      dup3\n        /* \"#utility.yul\":10699:10778   */\n      tag_214\n      jump\t// in\n    tag_350:\n        /* \"#utility.yul\":10794:10905   */\n      tag_351\n        /* \"#utility.yul\":10898:10904   */\n      dup2\n        /* \"#utility.yul\":10893:10896   */\n      dup6\n        /* \"#utility.yul\":10794:10905   */\n      tag_215\n      jump\t// in\n    tag_351:\n        /* \"#utility.yul\":10787:10905   */\n      swap4\n      pop\n        /* \"#utility.yul\":10931:10934   */\n      dup4\n        /* \"#utility.yul\":10976:10980   */\n      0x20\n        /* \"#utility.yul\":10968:10974   */\n      dup3\n        /* \"#utility.yul\":10964:10981   */\n      mul\n        /* \"#utility.yul\":10959:10962   */\n      dup6\n        /* \"#utility.yul\":10955:10982   */\n      add\n        /* \"#utility.yul\":11006:11087   */\n      tag_352\n        /* \"#utility.yul\":11081:11086   */\n      dup6\n        /* \"#utility.yul\":11006:11087   */\n      tag_216\n      jump\t// in\n    tag_352:\n        /* \"#utility.yul\":11110:11117   */\n      dup1\n        /* \"#utility.yul\":11141:11142   */\n      0x00\n        /* \"#utility.yul\":11126:11567   */\n    tag_353:\n        /* \"#utility.yul\":11151:11157   */\n      dup6\n        /* \"#utility.yul\":11148:11149   */\n      dup2\n        /* \"#utility.yul\":11145:11158   */\n      lt\n        /* \"#utility.yul\":11126:11567   */\n      iszero\n      tag_355\n      jumpi\n        /* \"#utility.yul\":11222:11231   */\n      dup5\n        /* \"#utility.yul\":11216:11220   */\n      dup5\n        /* \"#utility.yul\":11212:11232   */\n      sub\n        /* \"#utility.yul\":11207:11210   */\n      dup10\n        /* \"#utility.yul\":11200:11233   */\n      mstore\n        /* \"#utility.yul\":11273:11279   */\n      dup2\n        /* \"#utility.yul\":11267:11280   */\n      mload\n        /* \"#utility.yul\":11301:11415   */\n      tag_356\n        /* \"#utility.yul\":11410:11414   */\n      dup6\n        /* \"#utility.yul\":11395:11408   */\n      dup3\n        /* \"#utility.yul\":11301:11415   */\n      tag_218\n      jump\t// in\n    tag_356:\n        /* \"#utility.yul\":11293:11415   */\n      swap5\n      pop\n        /* \"#utility.yul\":11438:11523   */\n      tag_357\n        /* \"#utility.yul\":11516:11522   */\n      dup4\n        /* \"#utility.yul\":11438:11523   */\n      tag_219\n      jump\t// in\n    tag_357:\n        /* \"#utility.yul\":11428:11523   */\n      swap3\n      pop\n        /* \"#utility.yul\":11552:11556   */\n      0x20\n        /* \"#utility.yul\":11547:11550   */\n      dup11\n        /* \"#utility.yul\":11543:11557   */\n      add\n        /* \"#utility.yul\":11536:11557   */\n      swap10\n      pop\n        /* \"#utility.yul\":11186:11567   */\n      pop\n        /* \"#utility.yul\":11173:11174   */\n      0x01\n        /* \"#utility.yul\":11170:11171   */\n      dup2\n        /* \"#utility.yul\":11166:11175   */\n      add\n        /* \"#utility.yul\":11161:11175   */\n      swap1\n      pop\n        /* \"#utility.yul\":11126:11567   */\n      jump(tag_353)\n    tag_355:\n        /* \"#utility.yul\":11130:11144   */\n      pop\n        /* \"#utility.yul\":11583:11587   */\n      dup3\n        /* \"#utility.yul\":11576:11587   */\n      swap8\n      pop\n        /* \"#utility.yul\":11603:11606   */\n      dup8\n        /* \"#utility.yul\":11596:11606   */\n      swap6\n      pop\n        /* \"#utility.yul\":10675:11612   */\n      pop\n      pop\n      pop\n      pop\n      pop\n        /* \"#utility.yul\":10501:11612   */\n      swap3\n      swap2\n      pop\n      pop\n      jump\t// out\n        /* \"#utility.yul\":11618:12091   */\n    tag_28:\n        /* \"#utility.yul\":11811:11815   */\n      0x00\n        /* \"#utility.yul\":11849:11851   */\n      0x20\n        /* \"#utility.yul\":11838:11847   */\n      dup3\n        /* \"#utility.yul\":11834:11852   */\n      add\n        /* \"#utility.yul\":11826:11852   */\n      swap1\n      pop\n        /* \"#utility.yul\":11898:11907   */\n      dup2\n        /* \"#utility.yul\":11892:11896   */\n      dup2\n        /* \"#utility.yul\":11888:11908   */\n      sub\n        /* \"#utility.yul\":11884:11885   */\n      0x00\n        /* \"#utility.yul\":11873:11882   */\n      dup4\n        /* \"#utility.yul\":11869:11886   */\n      add\n        /* \"#utility.yul\":11862:11909   */\n      mstore\n        /* \"#utility.yul\":11926:12084   */\n      tag_359\n        /* \"#utility.yul\":12079:12083   */\n      dup2\n        /* \"#utility.yul\":12070:12076   */\n      dup5\n        /* \"#utility.yul\":11926:12084   */\n      tag_220\n      jump\t// in\n    tag_359:\n        /* \"#utility.yul\":11918:12084   */\n      swap1\n      pop\n        /* \"#utility.yul\":11618:12091   */\n      swap3\n      swap2\n      pop\n      pop\n      jump\t// out\n        /* \"#utility.yul\":12097:12214   */\n    tag_221:\n        /* \"#utility.yul\":12206:12207   */\n      0x00\n        /* \"#utility.yul\":12203:12204   */\n      dup1\n        /* \"#utility.yul\":12196:12208   */\n      revert\n        /* \"#utility.yul\":12220:12337   */\n    tag_222:\n        /* \"#utility.yul\":12329:12330   */\n      0x00\n        /* \"#utility.yul\":12326:12327   */\n      dup1\n        /* \"#utility.yul\":12319:12331   */\n      revert\n        /* \"#utility.yul\":12343:12460   */\n    tag_223:\n        /* \"#utility.yul\":12452:12453   */\n      0x00\n        /* \"#utility.yul\":12449:12450   */\n      dup1\n        /* \"#utility.yul\":12442:12454   */\n      revert\n        /* \"#utility.yul\":12480:13033   */\n    tag_224:\n        /* \"#utility.yul\":12538:12546   */\n      0x00\n        /* \"#utility.yul\":12548:12554   */\n      dup1\n        /* \"#utility.yul\":12598:12601   */\n      dup4\n        /* \"#utility.yul\":12591:12595   */\n      0x1f\n        /* \"#utility.yul\":12583:12589   */\n      dup5\n        /* \"#utility.yul\":12579:12596   */\n      add\n        /* \"#utility.yul\":12575:12602   */\n      slt\n        /* \"#utility.yul\":12565:12687   */\n      tag_364\n      jumpi\n        /* \"#utility.yul\":12606:12685   */\n      tag_365\n      tag_221\n      jump\t// in\n    tag_365:\n        /* \"#utility.yul\":12565:12687   */\n    tag_364:\n        /* \"#utility.yul\":12719:12725   */\n      dup3\n        /* \"#utility.yul\":12706:12726   */\n      calldataload\n        /* \"#utility.yul\":12696:12726   */\n      swap1\n      pop\n        /* \"#utility.yul\":12749:12767   */\n      0xffffffffffffffff\n        /* \"#utility.yul\":12741:12747   */\n      dup2\n        /* \"#utility.yul\":12738:12768   */\n      gt\n        /* \"#utility.yul\":12735:12852   */\n      iszero\n      tag_366\n      jumpi\n        /* \"#utility.yul\":12771:12850   */\n      tag_367\n      tag_222\n      jump\t// in\n    tag_367:\n        /* \"#utility.yul\":12735:12852   */\n    tag_366:\n        /* \"#utility.yul\":12885:12889   */\n      0x20\n        /* \"#utility.yul\":12877:12883   */\n      dup4\n        /* \"#utility.yul\":12873:12890   */\n      add\n        /* \"#utility.yul\":12861:12890   */\n      swap2\n      pop\n        /* \"#utility.yul\":12939:12942   */\n      dup4\n        /* \"#utility.yul\":12931:12935   */\n      0x01\n        /* \"#utility.yul\":12923:12929   */\n      dup3\n        /* \"#utility.yul\":12919:12936   */\n      mul\n        /* \"#utility.yul\":12909:12917   */\n      dup4\n        /* \"#utility.yul\":12905:12937   */\n      add\n        /* \"#utility.yul\":12902:12943   */\n      gt\n        /* \"#utility.yul\":12899:13027   */\n      iszero\n      tag_368\n      jumpi\n        /* \"#utility.yul\":12946:13025   */\n      tag_369\n      tag_223\n      jump\t// in\n    tag_369:\n        /* \"#utility.yul\":12899:13027   */\n    tag_368:\n        /* \"#utility.yul\":12480:13033   */\n      swap3\n      pop\n      swap3\n      swap1\n      pop\n      jump\t// out\n        /* \"#utility.yul\":13039:14404   */\n    tag_31:\n        /* \"#utility.yul\":13161:13167   */\n      0x00\n        /* \"#utility.yul\":13169:13175   */\n      dup1\n        /* \"#utility.yul\":13177:13183   */\n      0x00\n        /* \"#utility.yul\":13185:13191   */\n      dup1\n        /* \"#utility.yul\":13193:13199   */\n      0x00\n        /* \"#utility.yul\":13201:13207   */\n      dup1\n        /* \"#utility.yul\":13209:13215   */\n      0x00\n        /* \"#utility.yul\":13258:13261   */\n      0x80\n        /* \"#utility.yul\":13246:13255   */\n      dup9\n        /* \"#utility.yul\":13237:13244   */\n      dup11\n        /* \"#utility.yul\":13233:13256   */\n      sub\n        /* \"#utility.yul\":13229:13262   */\n      slt\n        /* \"#utility.yul\":13226:13346   */\n      iszero\n      tag_371\n      jumpi\n        /* \"#utility.yul\":13265:13344   */\n      tag_372\n      tag_189\n      jump\t// in\n    tag_372:\n        /* \"#utility.yul\":13226:13346   */\n    tag_371:\n        /* \"#utility.yul\":13413:13414   */\n      0x00\n        /* \"#utility.yul\":13402:13411   */\n      dup9\n        /* \"#utility.yul\":13398:13415   */\n      add\n        /* \"#utility.yul\":13385:13416   */\n      calldataload\n        /* \"#utility.yul\":13443:13461   */\n      0xffffffffffffffff\n        /* \"#utility.yul\":13435:13441   */\n      dup2\n        /* \"#utility.yul\":13432:13462   */\n      gt\n        /* \"#utility.yul\":13429:13546   */\n      iszero\n      tag_373\n      jumpi\n        /* \"#utility.yul\":13465:13544   */\n      tag_374\n      tag_190\n      jump\t// in\n    tag_374:\n        /* \"#utility.yul\":13429:13546   */\n    tag_373:\n        /* \"#utility.yul\":13578:13643   */\n      tag_375\n        /* \"#utility.yul\":13635:13642   */\n      dup11\n        /* \"#utility.yul\":13626:13632   */\n      dup3\n        /* \"#utility.yul\":13615:13624   */\n      dup12\n        /* \"#utility.yul\":13611:13633   */\n      add\n        /* \"#utility.yul\":13578:13643   */\n      tag_224\n      jump\t// in\n    tag_375:\n        /* \"#utility.yul\":13560:13643   */\n      swap8\n      pop\n      swap8\n      pop\n        /* \"#utility.yul\":13356:13653   */\n      pop\n        /* \"#utility.yul\":13692:13694   */\n      0x20\n        /* \"#utility.yul\":13718:13771   */\n      tag_376\n        /* \"#utility.yul\":13763:13770   */\n      dup11\n        /* \"#utility.yul\":13754:13760   */\n      dup3\n        /* \"#utility.yul\":13743:13752   */\n      dup12\n        /* \"#utility.yul\":13739:13761   */\n      add\n        /* \"#utility.yul\":13718:13771   */\n      tag_193\n      jump\t// in\n    tag_376:\n        /* \"#utility.yul\":13708:13771   */\n      swap6\n      pop\n        /* \"#utility.yul\":13663:13781   */\n      pop\n        /* \"#utility.yul\":13848:13850   */\n      0x40\n        /* \"#utility.yul\":13837:13846   */\n      dup9\n        /* \"#utility.yul\":13833:13851   */\n      add\n        /* \"#utility.yul\":13820:13852   */\n      calldataload\n        /* \"#utility.yul\":13879:13897   */\n      0xffffffffffffffff\n        /* \"#utility.yul\":13871:13877   */\n      dup2\n        /* \"#utility.yul\":13868:13898   */\n      gt\n        /* \"#utility.yul\":13865:13982   */\n      iszero\n      tag_377\n      jumpi\n        /* \"#utility.yul\":13901:13980   */\n      tag_378\n      tag_190\n      jump\t// in\n    tag_378:\n        /* \"#utility.yul\":13865:13982   */\n    tag_377:\n        /* \"#utility.yul\":14014:14079   */\n      tag_379\n        /* \"#utility.yul\":14071:14078   */\n      dup11\n        /* \"#utility.yul\":14062:14068   */\n      dup3\n        /* \"#utility.yul\":14051:14060   */\n      dup12\n        /* \"#utility.yul\":14047:14069   */\n      add\n        /* \"#utility.yul\":14014:14079   */\n      tag_224\n      jump\t// in\n    tag_379:\n        /* \"#utility.yul\":13996:14079   */\n      swap5\n      pop\n      swap5\n      pop\n        /* \"#utility.yul\":13791:14089   */\n      pop\n        /* \"#utility.yul\":14156:14158   */\n      0x60\n        /* \"#utility.yul\":14145:14154   */\n      dup9\n        /* \"#utility.yul\":14141:14159   */\n      add\n        /* \"#utility.yul\":14128:14160   */\n      calldataload\n        /* \"#utility.yul\":14187:14205   */\n      0xffffffffffffffff\n        /* \"#utility.yul\":14179:14185   */\n      dup2\n        /* \"#utility.yul\":14176:14206   */\n      gt\n        /* \"#utility.yul\":14173:14290   */\n      iszero\n      tag_380\n      jumpi\n        /* \"#utility.yul\":14209:14288   */\n      tag_381\n      tag_190\n      jump\t// in\n    tag_381:\n        /* \"#utility.yul\":14173:14290   */\n    tag_380:\n        /* \"#utility.yul\":14322:14387   */\n      tag_382\n        /* \"#utility.yul\":14379:14386   */\n      dup11\n        /* \"#utility.yul\":14370:14376   */\n      dup3\n        /* \"#utility.yul\":14359:14368   */\n      dup12\n        /* \"#utility.yul\":14355:14377   */\n      add\n        /* \"#utility.yul\":14322:14387   */\n      tag_224\n      jump\t// in\n    tag_382:\n        /* \"#utility.yul\":14304:14387   */\n      swap3\n      pop\n      swap3\n      pop\n        /* \"#utility.yul\":14099:14397   */\n      pop\n        /* \"#utility.yul\":13039:14404   */\n      swap3\n      swap6\n      swap9\n      swap2\n      swap5\n      swap8\n      pop\n      swap3\n      swap6\n      pop\n      jump\t// out\n        /* \"#utility.yul\":14410:15429   */\n    tag_35:\n        /* \"#utility.yul\":14511:14517   */\n      0x00\n        /* \"#utility.yul\":14519:14525   */\n      dup1\n        /* \"#utility.yul\":14527:14533   */\n      0x00\n        /* \"#utility.yul\":14535:14541   */\n      dup1\n        /* \"#utility.yul\":14543:14549   */\n      0x00\n        /* \"#utility.yul\":14592:14594   */\n      0x60\n        /* \"#utility.yul\":14580:14589   */\n      dup7\n        /* \"#utility.yul\":14571:14578   */\n      dup9\n        /* \"#utility.yul\":14567:14590   */\n      sub\n        /* \"#utility.yul\":14563:14595   */\n      slt\n        /* \"#utility.yul\":14560:14679   */\n      iszero\n      tag_384\n      jumpi\n        /* \"#utility.yul\":14598:14677   */\n      tag_385\n      tag_189\n      jump\t// in\n    tag_385:\n        /* \"#utility.yul\":14560:14679   */\n    tag_384:\n        /* \"#utility.yul\":14746:14747   */\n      0x00\n        /* \"#utility.yul\":14735:14744   */\n      dup7\n        /* \"#utility.yul\":14731:14748   */\n      add\n        /* \"#utility.yul\":14718:14749   */\n      calldataload\n        /* \"#utility.yul\":14776:14794   */\n      0xffffffffffffffff\n        /* \"#utility.yul\":14768:14774   */\n      dup2\n        /* \"#utility.yul\":14765:14795   */\n      gt\n        /* \"#utility.yul\":14762:14879   */\n      iszero\n      tag_386\n      jumpi\n        /* \"#utility.yul\":14798:14877   */\n      tag_387\n      tag_190\n      jump\t// in\n    tag_387:\n        /* \"#utility.yul\":14762:14879   */\n    tag_386:\n        /* \"#utility.yul\":14911:14976   */\n      tag_388\n        /* \"#utility.yul\":14968:14975   */\n      dup9\n        /* \"#utility.yul\":14959:14965   */\n      dup3\n        /* \"#utility.yul\":14948:14957   */\n      dup10\n        /* \"#utility.yul\":14944:14966   */\n      add\n        /* \"#utility.yul\":14911:14976   */\n      tag_224\n      jump\t// in\n    tag_388:\n        /* \"#utility.yul\":14893:14976   */\n      swap6\n      pop\n      swap6\n      pop\n        /* \"#utility.yul\":14689:14986   */\n      pop\n        /* \"#utility.yul\":15025:15027   */\n      0x20\n        /* \"#utility.yul\":15051:15104   */\n      tag_389\n        /* \"#utility.yul\":15096:15103   */\n      dup9\n        /* \"#utility.yul\":15087:15093   */\n      dup3\n        /* \"#utility.yul\":15076:15085   */\n      dup10\n        /* \"#utility.yul\":15072:15094   */\n      add\n        /* \"#utility.yul\":15051:15104   */\n      tag_193\n      jump\t// in\n    tag_389:\n        /* \"#utility.yul\":15041:15104   */\n      swap4\n      pop\n        /* \"#utility.yul\":14996:15114   */\n      pop\n        /* \"#utility.yul\":15181:15183   */\n      0x40\n        /* \"#utility.yul\":15170:15179   */\n      dup7\n        /* \"#utility.yul\":15166:15184   */\n      add\n        /* \"#utility.yul\":15153:15185   */\n      calldataload\n        /* \"#utility.yul\":15212:15230   */\n      0xffffffffffffffff\n        /* \"#utility.yul\":15204:15210   */\n      dup2\n        /* \"#utility.yul\":15201:15231   */\n      gt\n        /* \"#utility.yul\":15198:15315   */\n      iszero\n      tag_390\n      jumpi\n        /* \"#utility.yul\":15234:15313   */\n      tag_391\n      tag_190\n      jump\t// in\n    tag_391:\n        /* \"#utility.yul\":15198:15315   */\n    tag_390:\n        /* \"#utility.yul\":15347:15412   */\n      tag_392\n        /* \"#utility.yul\":15404:15411   */\n      dup9\n        /* \"#utility.yul\":15395:15401   */\n      dup3\n        /* \"#utility.yul\":15384:15393   */\n      dup10\n        /* \"#utility.yul\":15380:15402   */\n      add\n        /* \"#utility.yul\":15347:15412   */\n      tag_224\n      jump\t// in\n    tag_392:\n        /* \"#utility.yul\":15329:15412   */\n      swap3\n      pop\n      swap3\n      pop\n        /* \"#utility.yul\":15124:15422   */\n      pop\n        /* \"#utility.yul\":14410:15429   */\n      swap3\n      swap6\n      pop\n      swap3\n      swap6\n      swap1\n      swap4\n      pop\n      jump\t// out\n        /* \"#utility.yul\":15435:15553   */\n    tag_225:\n        /* \"#utility.yul\":15522:15546   */\n      tag_394\n        /* \"#utility.yul\":15540:15545   */\n      dup2\n        /* \"#utility.yul\":15522:15546   */\n      tag_208\n      jump\t// in\n    tag_394:\n        /* \"#utility.yul\":15517:15520   */\n      dup3\n        /* \"#utility.yul\":15510:15547   */\n      mstore\n        /* \"#utility.yul\":15435:15553   */\n      pop\n      pop\n      jump\t// out\n        /* \"#utility.yul\":15559:15781   */\n    tag_40:\n        /* \"#utility.yul\":15652:15656   */\n      0x00\n        /* \"#utility.yul\":15690:15692   */\n      0x20\n        /* \"#utility.yul\":15679:15688   */\n      dup3\n        /* \"#utility.yul\":15675:15693   */\n      add\n        /* \"#utility.yul\":15667:15693   */\n      swap1\n      pop\n        /* \"#utility.yul\":15703:15774   */\n      tag_396\n        /* \"#utility.yul\":15771:15772   */\n      0x00\n        /* \"#utility.yul\":15760:15769   */\n      dup4\n        /* \"#utility.yul\":15756:15773   */\n      add\n        /* \"#utility.yul\":15747:15753   */\n      dup5\n        /* \"#utility.yul\":15703:15774   */\n      tag_225\n      jump\t// in\n    tag_396:\n        /* \"#utility.yul\":15559:15781   */\n      swap3\n      swap2\n      pop\n      pop\n      jump\t// out\n        /* \"#utility.yul\":15787:16009   */\n    tag_226:\n        /* \"#utility.yul\":15927:15961   */\n      0x596f7520617265206e6f742066726f6d20656c656374696f6e20636f6d697373\n        /* \"#utility.yul\":15923:15924   */\n      0x00\n        /* \"#utility.yul\":15915:15921   */\n      dup3\n        /* \"#utility.yul\":15911:15925   */\n      add\n        /* \"#utility.yul\":15904:15962   */\n      mstore\n        /* \"#utility.yul\":15996:16001   */\n      0x696f6e0000000000000000000000000000000000000000000000000000000000\n        /* \"#utility.yul\":15991:15993   */\n      0x20\n        /* \"#utility.yul\":15983:15989   */\n      dup3\n        /* \"#utility.yul\":15979:15994   */\n      add\n        /* \"#utility.yul\":15972:16002   */\n      mstore\n        /* \"#utility.yul\":15787:16009   */\n      pop\n      jump\t// out\n        /* \"#utility.yul\":16015:16381   */\n    tag_227:\n        /* \"#utility.yul\":16157:16160   */\n      0x00\n        /* \"#utility.yul\":16178:16245   */\n      tag_399\n        /* \"#utility.yul\":16242:16244   */\n      0x23\n        /* \"#utility.yul\":16237:16240   */\n      dup4\n        /* \"#utility.yul\":16178:16245   */\n      tag_195\n      jump\t// in\n    tag_399:\n        /* \"#utility.yul\":16171:16245   */\n      swap2\n      pop\n        /* \"#utility.yul\":16254:16347   */\n      tag_400\n        /* \"#utility.yul\":16343:16346   */\n      dup3\n        /* \"#utility.yul\":16254:16347   */\n      tag_226\n      jump\t// in\n    tag_400:\n        /* \"#utility.yul\":16372:16374   */\n      0x40\n        /* \"#utility.yul\":16367:16370   */\n      dup3\n        /* \"#utility.yul\":16363:16375   */\n      add\n        /* \"#utility.yul\":16356:16375   */\n      swap1\n      pop\n        /* \"#utility.yul\":16015:16381   */\n      swap2\n      swap1\n      pop\n      jump\t// out\n        /* \"#utility.yul\":16387:16806   */\n    tag_50:\n        /* \"#utility.yul\":16553:16557   */\n      0x00\n        /* \"#utility.yul\":16591:16593   */\n      0x20\n        /* \"#utility.yul\":16580:16589   */\n      dup3\n        /* \"#utility.yul\":16576:16594   */\n      add\n        /* \"#utility.yul\":16568:16594   */\n      swap1\n      pop\n        /* \"#utility.yul\":16640:16649   */\n      dup2\n        /* \"#utility.yul\":16634:16638   */\n      dup2\n        /* \"#utility.yul\":16630:16650   */\n      sub\n        /* \"#utility.yul\":16626:16627   */\n      0x00\n        /* \"#utility.yul\":16615:16624   */\n      dup4\n        /* \"#utility.yul\":16611:16628   */\n      add\n        /* \"#utility.yul\":16604:16651   */\n      mstore\n        /* \"#utility.yul\":16668:16799   */\n      tag_402\n        /* \"#utility.yul\":16794:16798   */\n      dup2\n        /* \"#utility.yul\":16668:16799   */\n      tag_227\n      jump\t// in\n    tag_402:\n        /* \"#utility.yul\":16660:16799   */\n      swap1\n      pop\n        /* \"#utility.yul\":16387:16806   */\n      swap2\n      swap1\n      pop\n      jump\t// out\n        /* \"#utility.yul\":16812:16992   */\n    tag_228:\n        /* \"#utility.yul\":16860:16937   */\n      0x4e487b7100000000000000000000000000000000000000000000000000000000\n        /* \"#utility.yul\":16857:16858   */\n      0x00\n        /* \"#utility.yul\":16850:16938   */\n      mstore\n        /* \"#utility.yul\":16957:16961   */\n      0x11\n        /* \"#utility.yul\":16954:16955   */\n      0x04\n        /* \"#utility.yul\":16947:16962   */\n      mstore\n        /* \"#utility.yul\":16981:16985   */\n      0x24\n        /* \"#utility.yul\":16978:16979   */\n      0x00\n        /* \"#utility.yul\":16971:16986   */\n      revert\n        /* \"#utility.yul\":16998:17189   */\n    tag_53:\n        /* \"#utility.yul\":17038:17041   */\n      0x00\n        /* \"#utility.yul\":17057:17077   */\n      tag_405\n        /* \"#utility.yul\":17075:17076   */\n      dup3\n        /* \"#utility.yul\":17057:17077   */\n      tag_191\n      jump\t// in\n    tag_405:\n        /* \"#utility.yul\":17052:17077   */\n      swap2\n      pop\n        /* \"#utility.yul\":17091:17111   */\n      tag_406\n        /* \"#utility.yul\":17109:17110   */\n      dup4\n        /* \"#utility.yul\":17091:17111   */\n      tag_191\n      jump\t// in\n    tag_406:\n        /* \"#utility.yul\":17086:17111   */\n      swap3\n      pop\n        /* \"#utility.yul\":17134:17135   */\n      dup3\n        /* \"#utility.yul\":17131:17132   */\n      dup3\n        /* \"#utility.yul\":17127:17136   */\n      add\n        /* \"#utility.yul\":17120:17136   */\n      swap1\n      pop\n        /* \"#utility.yul\":17155:17158   */\n      dup1\n        /* \"#utility.yul\":17152:17153   */\n      dup3\n        /* \"#utility.yul\":17149:17159   */\n      gt\n        /* \"#utility.yul\":17146:17182   */\n      iszero\n      tag_407\n      jumpi\n        /* \"#utility.yul\":17162:17180   */\n      tag_408\n      tag_228\n      jump\t// in\n    tag_408:\n        /* \"#utility.yul\":17146:17182   */\n    tag_407:\n        /* \"#utility.yul\":16998:17189   */\n      swap3\n      swap2\n      pop\n      pop\n      jump\t// out\n        /* \"#utility.yul\":17195:17389   */\n    tag_63:\n        /* \"#utility.yul\":17235:17239   */\n      0x00\n        /* \"#utility.yul\":17255:17275   */\n      tag_410\n        /* \"#utility.yul\":17273:17274   */\n      dup3\n        /* \"#utility.yul\":17255:17275   */\n      tag_191\n      jump\t// in\n    tag_410:\n        /* \"#utility.yul\":17250:17275   */\n      swap2\n      pop\n        /* \"#utility.yul\":17289:17309   */\n      tag_411\n        /* \"#utility.yul\":17307:17308   */\n      dup4\n        /* \"#utility.yul\":17289:17309   */\n      tag_191\n      jump\t// in\n    tag_411:\n        /* \"#utility.yul\":17284:17309   */\n      swap3\n      pop\n        /* \"#utility.yul\":17333:17334   */\n      dup3\n        /* \"#utility.yul\":17330:17331   */\n      dup3\n        /* \"#utility.yul\":17326:17335   */\n      sub\n        /* \"#utility.yul\":17318:17335   */\n      swap1\n      pop\n        /* \"#utility.yul\":17357:17358   */\n      dup2\n        /* \"#utility.yul\":17351:17355   */\n      dup2\n        /* \"#utility.yul\":17348:17359   */\n      gt\n        /* \"#utility.yul\":17345:17382   */\n      iszero\n      tag_412\n      jumpi\n        /* \"#utility.yul\":17362:17380   */\n      tag_413\n      tag_228\n      jump\t// in\n    tag_413:\n        /* \"#utility.yul\":17345:17382   */\n    tag_412:\n        /* \"#utility.yul\":17195:17389   */\n      swap3\n      swap2\n      pop\n      pop\n      jump\t// out\n        /* \"#utility.yul\":17395:17575   */\n    tag_66:\n        /* \"#utility.yul\":17443:17520   */\n      0x4e487b7100000000000000000000000000000000000000000000000000000000\n        /* \"#utility.yul\":17440:17441   */\n      0x00\n        /* \"#utility.yul\":17433:17521   */\n      mstore\n        /* \"#utility.yul\":17540:17544   */\n      0x41\n        /* \"#utility.yul\":17537:17538   */\n      0x04\n        /* \"#utility.yul\":17530:17545   */\n      mstore\n        /* \"#utility.yul\":17564:17568   */\n      0x24\n        /* \"#utility.yul\":17561:17562   */\n      0x00\n        /* \"#utility.yul\":17554:17569   */\n      revert\n        /* \"#utility.yul\":17581:17761   */\n    tag_229:\n        /* \"#utility.yul\":17629:17706   */\n      0x4e487b7100000000000000000000000000000000000000000000000000000000\n        /* \"#utility.yul\":17626:17627   */\n      0x00\n        /* \"#utility.yul\":17619:17707   */\n      mstore\n        /* \"#utility.yul\":17726:17730   */\n      0x22\n        /* \"#utility.yul\":17723:17724   */\n      0x04\n        /* \"#utility.yul\":17716:17731   */\n      mstore\n        /* \"#utility.yul\":17750:17754   */\n      0x24\n        /* \"#utility.yul\":17747:17748   */\n      0x00\n        /* \"#utility.yul\":17740:17755   */\n      revert\n        /* \"#utility.yul\":17767:18087   */\n    tag_75:\n        /* \"#utility.yul\":17811:17817   */\n      0x00\n        /* \"#utility.yul\":17848:17849   */\n      0x02\n        /* \"#utility.yul\":17842:17846   */\n      dup3\n        /* \"#utility.yul\":17838:17850   */\n      div\n        /* \"#utility.yul\":17828:17850   */\n      swap1\n      pop\n        /* \"#utility.yul\":17895:17896   */\n      0x01\n        /* \"#utility.yul\":17889:17893   */\n      dup3\n        /* \"#utility.yul\":17885:17897   */\n      and\n        /* \"#utility.yul\":17916:17934   */\n      dup1\n        /* \"#utility.yul\":17906:17987   */\n      tag_417\n      jumpi\n        /* \"#utility.yul\":17972:17976   */\n      0x7f\n        /* \"#utility.yul\":17964:17970   */\n      dup3\n        /* \"#utility.yul\":17960:17977   */\n      and\n        /* \"#utility.yul\":17950:17977   */\n      swap2\n      pop\n        /* \"#utility.yul\":17906:17987   */\n    tag_417:\n        /* \"#utility.yul\":18034:18036   */\n      0x20\n        /* \"#utility.yul\":18026:18032   */\n      dup3\n        /* \"#utility.yul\":18023:18037   */\n      lt\n        /* \"#utility.yul\":18003:18021   */\n      dup2\n        /* \"#utility.yul\":18000:18038   */\n      sub\n        /* \"#utility.yul\":17997:18081   */\n      tag_418\n      jumpi\n        /* \"#utility.yul\":18053:18071   */\n      tag_419\n      tag_229\n      jump\t// in\n    tag_419:\n        /* \"#utility.yul\":17997:18081   */\n    tag_418:\n        /* \"#utility.yul\":17818:18087   */\n      pop\n        /* \"#utility.yul\":17767:18087   */\n      swap2\n      swap1\n      pop\n      jump\t// out\n        /* \"#utility.yul\":18093:18273   */\n    tag_88:\n        /* \"#utility.yul\":18141:18218   */\n      0x4e487b7100000000000000000000000000000000000000000000000000000000\n        /* \"#utility.yul\":18138:18139   */\n      0x00\n        /* \"#utility.yul\":18131:18219   */\n      mstore\n        /* \"#utility.yul\":18238:18242   */\n      0x32\n        /* \"#utility.yul\":18235:18236   */\n      0x04\n        /* \"#utility.yul\":18228:18243   */\n      mstore\n        /* \"#utility.yul\":18262:18266   */\n      0x24\n        /* \"#utility.yul\":18259:18260   */\n      0x00\n        /* \"#utility.yul\":18252:18267   */\n      revert\n        /* \"#utility.yul\":18279:18512   */\n    tag_90:\n        /* \"#utility.yul\":18318:18321   */\n      0x00\n        /* \"#utility.yul\":18341:18365   */\n      tag_422\n        /* \"#utility.yul\":18359:18364   */\n      dup3\n        /* \"#utility.yul\":18341:18365   */\n      tag_191\n      jump\t// in\n    tag_422:\n        /* \"#utility.yul\":18332:18365   */\n      swap2\n      pop\n        /* \"#utility.yul\":18387:18453   */\n      0xffffffffffffffffffffffffffffffffffffffffffffffffffffffffffffffff\n        /* \"#utility.yul\":18380:18385   */\n      dup3\n        /* \"#utility.yul\":18377:18454   */\n      sub\n        /* \"#utility.yul\":18374:18477   */\n      tag_423\n      jumpi\n        /* \"#utility.yul\":18457:18475   */\n      tag_424\n      tag_228\n      jump\t// in\n    tag_424:\n        /* \"#utility.yul\":18374:18477   */\n    tag_423:\n        /* \"#utility.yul\":18504:18505   */\n      0x01\n        /* \"#utility.yul\":18497:18502   */\n      dup3\n        /* \"#utility.yul\":18493:18506   */\n      add\n        /* \"#utility.yul\":18486:18506   */\n      swap1\n      pop\n        /* \"#utility.yul\":18279:18512   */\n      swap2\n      swap1\n      pop\n      jump\t// out\n        /* \"#utility.yul\":18518:18699   */\n    tag_230:\n        /* \"#utility.yul\":18658:18691   */\n      0x596f75206172652066726f6d20656c656374696f6e20636f6d697373696f6e00\n        /* \"#utility.yul\":18654:18655   */\n      0x00\n        /* \"#utility.yul\":18646:18652   */\n      dup3\n        /* \"#utility.yul\":18642:18656   */\n      add\n        /* \"#utility.yul\":18635:18692   */\n      mstore\n        /* \"#utility.yul\":18518:18699   */\n      pop\n      jump\t// out\n        /* \"#utility.yul\":18705:19071   */\n    tag_231:\n        /* \"#utility.yul\":18847:18850   */\n      0x00\n        /* \"#utility.yul\":18868:18935   */\n      tag_427\n        /* \"#utility.yul\":18932:18934   */\n      0x1f\n        /* \"#utility.yul\":18927:18930   */\n      dup4\n        /* \"#utility.yul\":18868:18935   */\n      tag_195\n      jump\t// in\n    tag_427:\n        /* \"#utility.yul\":18861:18935   */\n      swap2\n      pop\n        /* \"#utility.yul\":18944:19037   */\n      tag_428\n        /* \"#utility.yul\":19033:19036   */\n      dup3\n        /* \"#utility.yul\":18944:19037   */\n      tag_230\n      jump\t// in\n    tag_428:\n        /* \"#utility.yul\":19062:19064   */\n      0x20\n        /* \"#utility.yul\":19057:19060   */\n      dup3\n        /* \"#utility.yul\":19053:19065   */\n      add\n        /* \"#utility.yul\":19046:19065   */\n      swap1\n      pop\n        /* \"#utility.yul\":18705:19071   */\n      swap2\n      swap1\n      pop\n      jump\t// out\n        /* \"#utility.yul\":19077:19496   */\n    tag_124:\n        /* \"#utility.yul\":19243:19247   */\n      0x00\n        /* \"#utility.yul\":19281:19283   */\n      0x20\n        /* \"#utility.yul\":19270:19279   */\n      dup3\n        /* \"#utility.yul\":19266:19284   */\n      add\n        /* \"#utility.yul\":19258:19284   */\n      swap1\n      pop\n        /* \"#utility.yul\":19330:19339   */\n      dup2\n        /* \"#utility.yul\":19324:19328   */\n      dup2\n        /* \"#utility.yul\":19320:19340   */\n      sub\n        /* \"#utility.yul\":19316:19317   */\n      0x00\n        /* \"#utility.yul\":19305:19314   */\n      dup4\n        /* \"#utility.yul\":19301:19318   */\n      add\n        /* \"#utility.yul\":19294:19341   */\n      mstore\n        /* \"#utility.yul\":19358:19489   */\n      tag_430\n        /* \"#utility.yul\":19484:19488   */\n      dup2\n        /* \"#utility.yul\":19358:19489   */\n      tag_231\n      jump\t// in\n    tag_430:\n        /* \"#utility.yul\":19350:19489   */\n      swap1\n      pop\n        /* \"#utility.yul\":19077:19496   */\n      swap2\n      swap1\n      pop\n      jump\t// out\n        /* \"#utility.yul\":19502:19678   */\n    tag_232:\n        /* \"#utility.yul\":19642:19670   */\n      0x596f752063616e206e6f74207265676973746572207477696365000000000000\n        /* \"#utility.yul\":19638:19639   */\n      0x00\n        /* \"#utility.yul\":19630:19636   */\n      dup3\n        /* \"#utility.yul\":19626:19640   */\n      add\n        /* \"#utility.yul\":19619:19671   */\n      mstore\n        /* \"#utility.yul\":19502:19678   */\n      pop\n      jump\t// out\n        /* \"#utility.yul\":19684:20050   */\n    tag_233:\n        /* \"#utility.yul\":19826:19829   */\n      0x00\n        /* \"#utility.yul\":19847:19914   */\n      tag_433\n        /* \"#utility.yul\":19911:19913   */\n      0x1a\n        /* \"#utility.yul\":19906:19909   */\n      dup4\n        /* \"#utility.yul\":19847:19914   */\n      tag_195\n      jump\t// in\n    tag_433:\n        /* \"#utility.yul\":19840:19914   */\n      swap2\n      pop\n        /* \"#utility.yul\":19923:20016   */\n      tag_434\n        /* \"#utility.yul\":20012:20015   */\n      dup3\n        /* \"#utility.yul\":19923:20016   */\n      tag_232\n      jump\t// in\n    tag_434:\n        /* \"#utility.yul\":20041:20043   */\n      0x20\n        /* \"#utility.yul\":20036:20039   */\n      dup3\n        /* \"#utility.yul\":20032:20044   */\n      add\n        /* \"#utility.yul\":20025:20044   */\n      swap1\n      pop\n        /* \"#utility.yul\":19684:20050   */\n      swap2\n      swap1\n      pop\n      jump\t// out\n        /* \"#utility.yul\":20056:20475   */\n    tag_129:\n        /* \"#utility.yul\":20222:20226   */\n      0x00\n        /* \"#utility.yul\":20260:20262   */\n      0x20\n        /* \"#utility.yul\":20249:20258   */\n      dup3\n        /* \"#utility.yul\":20245:20263   */\n      add\n        /* \"#utility.yul\":20237:20263   */\n      swap1\n      pop\n        /* \"#utility.yul\":20309:20318   */\n      dup2\n        /* \"#utility.yul\":20303:20307   */\n      dup2\n        /* \"#utility.yul\":20299:20319   */\n      sub\n        /* \"#utility.yul\":20295:20296   */\n      0x00\n        /* \"#utility.yul\":20284:20293   */\n      dup4\n        /* \"#utility.yul\":20280:20297   */\n      add\n        /* \"#utility.yul\":20273:20320   */\n      mstore\n        /* \"#utility.yul\":20337:20468   */\n      tag_436\n        /* \"#utility.yul\":20463:20467   */\n      dup2\n        /* \"#utility.yul\":20337:20468   */\n      tag_233\n      jump\t// in\n    tag_436:\n        /* \"#utility.yul\":20329:20468   */\n      swap1\n      pop\n        /* \"#utility.yul\":20056:20475   */\n      swap2\n      swap1\n      pop\n      jump\t// out\n        /* \"#utility.yul\":20481:20651   */\n    tag_234:\n        /* \"#utility.yul\":20621:20643   */\n      0x596f7520617265206e6f7420656c696769626c65000000000000000000000000\n        /* \"#utility.yul\":20617:20618   */\n      0x00\n        /* \"#utility.yul\":20609:20615   */\n      dup3\n        /* \"#utility.yul\":20605:20619   */\n      add\n        /* \"#utility.yul\":20598:20644   */\n      mstore\n        /* \"#utility.yul\":20481:20651   */\n      pop\n      jump\t// out\n        /* \"#utility.yul\":20657:21023   */\n    tag_235:\n        /* \"#utility.yul\":20799:20802   */\n      0x00\n        /* \"#utility.yul\":20820:20887   */\n      tag_439\n        /* \"#utility.yul\":20884:20886   */\n      0x14\n        /* \"#utility.yul\":20879:20882   */\n      dup4\n        /* \"#utility.yul\":20820:20887   */\n      tag_195\n      jump\t// in\n    tag_439:\n        /* \"#utility.yul\":20813:20887   */\n      swap2\n      pop\n        /* \"#utility.yul\":20896:20989   */\n      tag_440\n        /* \"#utility.yul\":20985:20988   */\n      dup3\n        /* \"#utility.yul\":20896:20989   */\n      tag_234\n      jump\t// in\n    tag_440:\n        /* \"#utility.yul\":21014:21016   */\n      0x20\n        /* \"#utility.yul\":21009:21012   */\n      dup3\n        /* \"#utility.yul\":21005:21017   */\n      add\n        /* \"#utility.yul\":20998:21017   */\n      swap1\n      pop\n        /* \"#utility.yul\":20657:21023   */\n      swap2\n      swap1\n      pop\n      jump\t// out\n        /* \"#utility.yul\":21029:21448   */\n    tag_132:\n        /* \"#utility.yul\":21195:21199   */\n      0x00\n        /* \"#utility.yul\":21233:21235   */\n      0x20\n        /* \"#utility.yul\":21222:21231   */\n      dup3\n        /* \"#utility.yul\":21218:21236   */\n      add\n        /* \"#utility.yul\":21210:21236   */\n      swap1\n      pop\n        /* \"#utility.yul\":21282:21291   */\n      dup2\n        /* \"#utility.yul\":21276:21280   */\n      dup2\n        /* \"#utility.yul\":21272:21292   */\n      sub\n        /* \"#utility.yul\":21268:21269   */\n      0x00\n        /* \"#utility.yul\":21257:21266   */\n      dup4\n        /* \"#utility.yul\":21253:21270   */\n      add\n        /* \"#utility.yul\":21246:21293   */\n      mstore\n        /* \"#utility.yul\":21310:21441   */\n      tag_442\n        /* \"#utility.yul\":21436:21440   */\n      dup2\n        /* \"#utility.yul\":21310:21441   */\n      tag_235\n      jump\t// in\n    tag_442:\n        /* \"#utility.yul\":21302:21441   */\n      swap1\n      pop\n        /* \"#utility.yul\":21029:21448   */\n      swap2\n      swap1\n      pop\n      jump\t// out\n        /* \"#utility.yul\":21454:21595   */\n    tag_236:\n        /* \"#utility.yul\":21503:21507   */\n      0x00\n        /* \"#utility.yul\":21526:21529   */\n      dup2\n        /* \"#utility.yul\":21518:21529   */\n      swap1\n      pop\n        /* \"#utility.yul\":21549:21552   */\n      dup2\n        /* \"#utility.yul\":21546:21547   */\n      0x00\n        /* \"#utility.yul\":21539:21553   */\n      mstore\n        /* \"#utility.yul\":21583:21587   */\n      0x20\n        /* \"#utility.yul\":21580:21581   */\n      0x00\n        /* \"#utility.yul\":21570:21588   */\n      keccak256\n        /* \"#utility.yul\":21562:21588   */\n      swap1\n      pop\n        /* \"#utility.yul\":21454:21595   */\n      swap2\n      swap1\n      pop\n      jump\t// out\n        /* \"#utility.yul\":21601:21694   */\n    tag_237:\n        /* \"#utility.yul\":21638:21644   */\n      0x00\n        /* \"#utility.yul\":21685:21687   */\n      0x20\n        /* \"#utility.yul\":21680:21682   */\n      0x1f\n        /* \"#utility.yul\":21673:21678   */\n      dup4\n        /* \"#utility.yul\":21669:21683   */\n      add\n        /* \"#utility.yul\":21665:21688   */\n      div\n        /* \"#utility.yul\":21655:21688   */\n      swap1\n      pop\n        /* \"#utility.yul\":21601:21694   */\n      swap2\n      swap1\n      pop\n      jump\t// out\n        /* \"#utility.yul\":21700:21807   */\n    tag_238:\n        /* \"#utility.yul\":21744:21752   */\n      0x00\n        /* \"#utility.yul\":21794:21799   */\n      dup3\n        /* \"#utility.yul\":21788:21792   */\n      dup3\n        /* \"#utility.yul\":21784:21800   */\n      shl\n        /* \"#utility.yul\":21763:21800   */\n      swap1\n      pop\n        /* \"#utility.yul\":21700:21807   */\n      swap3\n      swap2\n      pop\n      pop\n      jump\t// out\n        /* \"#utility.yul\":21813:22206   */\n    tag_239:\n        /* \"#utility.yul\":21882:21888   */\n      0x00\n        /* \"#utility.yul\":21932:21933   */\n      0x08\n        /* \"#utility.yul\":21920:21930   */\n      dup4\n        /* \"#utility.yul\":21916:21934   */\n      mul\n        /* \"#utility.yul\":21955:22052   */\n      tag_447\n        /* \"#utility.yul\":21985:22051   */\n      0xffffffffffffffffffffffffffffffffffffffffffffffffffffffffffffffff\n        /* \"#utility.yul\":21974:21983   */\n      dup3\n        /* \"#utility.yul\":21955:22052   */\n      tag_238\n      jump\t// in\n    tag_447:\n        /* \"#utility.yul\":22073:22112   */\n      tag_448\n        /* \"#utility.yul\":22103:22111   */\n      dup7\n        /* \"#utility.yul\":22092:22101   */\n      dup4\n        /* \"#utility.yul\":22073:22112   */\n      tag_238\n      jump\t// in\n    tag_448:\n        /* \"#utility.yul\":22061:22112   */\n      swap6\n      pop\n        /* \"#utility.yul\":22145:22149   */\n      dup1\n        /* \"#utility.yul\":22141:22150   */\n      not\n        /* \"#utility.yul\":22134:22139   */\n      dup5\n        /* \"#utility.yul\":22130:22151   */\n      and\n        /* \"#utility.yul\":22121:22151   */\n      swap4\n      pop\n        /* \"#utility.yul\":22194:22198   */\n      dup1\n        /* \"#utility.yul\":22184:22192   */\n      dup7\n        /* \"#utility.yul\":22180:22199   */\n      and\n        /* \"#utility.yul\":22173:22178   */\n      dup5\n        /* \"#utility.yul\":22170:22200   */\n      or\n        /* \"#utility.yul\":22160:22200   */\n      swap3\n      pop\n        /* \"#utility.yul\":21889:22206   */\n      pop\n      pop\n        /* \"#utility.yul\":21813:22206   */\n      swap4\n      swap3\n      pop\n      pop\n      pop\n      jump\t// out\n        /* \"#utility.yul\":22212:22272   */\n    tag_240:\n        /* \"#utility.yul\":22240:22243   */\n      0x00\n        /* \"#utility.yul\":22261:22266   */\n      dup2\n        /* \"#utility.yul\":22254:22266   */\n      swap1\n      pop\n        /* \"#utility.yul\":22212:22272   */\n      swap2\n      swap1\n      pop\n      jump\t// out\n        /* \"#utility.yul\":22278:22420   */\n    tag_241:\n        /* \"#utility.yul\":22328:22337   */\n      0x00\n        /* \"#utility.yul\":22361:22414   */\n      tag_451\n        /* \"#utility.yul\":22379:22413   */\n      tag_452\n        /* \"#utility.yul\":22388:22412   */\n      tag_453\n        /* \"#utility.yul\":22406:22411   */\n      dup5\n        /* \"#utility.yul\":22388:22412   */\n      tag_191\n      jump\t// in\n    tag_453:\n        /* \"#utility.yul\":22379:22413   */\n      tag_240\n      jump\t// in\n    tag_452:\n        /* \"#utility.yul\":22361:22414   */\n      tag_191\n      jump\t// in\n    tag_451:\n        /* \"#utility.yul\":22348:22414   */\n      swap1\n      pop\n        /* \"#utility.yul\":22278:22420   */\n      swap2\n      swap1\n      pop\n      jump\t// out\n        /* \"#utility.yul\":22426:22501   */\n    tag_242:\n        /* \"#utility.yul\":22469:22472   */\n      0x00\n        /* \"#utility.yul\":22490:22495   */\n      dup2\n        /* \"#utility.yul\":22483:22495   */\n      swap1\n      pop\n        /* \"#utility.yul\":22426:22501   */\n      swap2\n      swap1\n      pop\n      jump\t// out\n        /* \"#utility.yul\":22507:22776   */\n    tag_243:\n        /* \"#utility.yul\":22617:22656   */\n      tag_456\n        /* \"#utility.yul\":22648:22655   */\n      dup4\n        /* \"#utility.yul\":22617:22656   */\n      tag_241\n      jump\t// in\n    tag_456:\n        /* \"#utility.yul\":22678:22769   */\n      tag_457\n        /* \"#utility.yul\":22727:22768   */\n      tag_458\n        /* \"#utility.yul\":22751:22767   */\n      dup3\n        /* \"#utility.yul\":22727:22768   */\n      tag_242\n      jump\t// in\n    tag_458:\n        /* \"#utility.yul\":22719:22725   */\n      dup5\n        /* \"#utility.yul\":22712:22716   */\n      dup5\n        /* \"#utility.yul\":22706:22717   */\n      sload\n        /* \"#utility.yul\":22678:22769   */\n      tag_239\n      jump\t// in\n    tag_457:\n        /* \"#utility.yul\":22672:22676   */\n      dup3\n        /* \"#utility.yul\":22665:22770   */\n      sstore\n        /* \"#utility.yul\":22583:22776   */\n      pop\n        /* \"#utility.yul\":22507:22776   */\n      pop\n      pop\n      pop\n      jump\t// out\n        /* \"#utility.yul\":22782:22855   */\n    tag_244:\n        /* \"#utility.yul\":22827:22830   */\n      0x00\n        /* \"#utility.yul\":22782:22855   */\n      swap1\n      jump\t// out\n        /* \"#utility.yul\":22861:23050   */\n    tag_245:\n        /* \"#utility.yul\":22938:22970   */\n      tag_461\n      tag_244\n      jump\t// in\n    tag_461:\n        /* \"#utility.yul\":22979:23044   */\n      tag_462\n        /* \"#utility.yul\":23037:23043   */\n      dup2\n        /* \"#utility.yul\":23029:23035   */\n      dup5\n        /* \"#utility.yul\":23023:23027   */\n      dup5\n        /* \"#utility.yul\":22979:23044   */\n      tag_243\n      jump\t// in\n    tag_462:\n        /* \"#utility.yul\":22914:23050   */\n      pop\n        /* \"#utility.yul\":22861:23050   */\n      pop\n      pop\n      jump\t// out\n        /* \"#utility.yul\":23056:23242   */\n    tag_246:\n        /* \"#utility.yul\":23116:23236   */\n    tag_464:\n        /* \"#utility.yul\":23133:23136   */\n      dup2\n        /* \"#utility.yul\":23126:23131   */\n      dup2\n        /* \"#utility.yul\":23123:23137   */\n      lt\n        /* \"#utility.yul\":23116:23236   */\n      iszero\n      tag_466\n      jumpi\n        /* \"#utility.yul\":23187:23226   */\n      tag_467\n        /* \"#utility.yul\":23224:23225   */\n      0x00\n        /* \"#utility.yul\":23217:23222   */\n      dup3\n        /* \"#utility.yul\":23187:23226   */\n      tag_245\n      jump\t// in\n    tag_467:\n        /* \"#utility.yul\":23160:23161   */\n      0x01\n        /* \"#utility.yul\":23153:23158   */\n      dup2\n        /* \"#utility.yul\":23149:23162   */\n      add\n        /* \"#utility.yul\":23140:23162   */\n      swap1\n      pop\n        /* \"#utility.yul\":23116:23236   */\n      jump(tag_464)\n    tag_466:\n        /* \"#utility.yul\":23056:23242   */\n      pop\n      pop\n      jump\t// out\n        /* \"#utility.yul\":23248:23791   */\n    tag_247:\n        /* \"#utility.yul\":23349:23351   */\n      0x1f\n        /* \"#utility.yul\":23344:23347   */\n      dup3\n        /* \"#utility.yul\":23341:23352   */\n      gt\n        /* \"#utility.yul\":23338:23784   */\n      iszero\n      tag_469\n      jumpi\n        /* \"#utility.yul\":23383:23421   */\n      tag_470\n        /* \"#utility.yul\":23415:23420   */\n      dup2\n        /* \"#utility.yul\":23383:23421   */\n      tag_236\n      jump\t// in\n    tag_470:\n        /* \"#utility.yul\":23467:23496   */\n      tag_471\n        /* \"#utility.yul\":23485:23495   */\n      dup5\n        /* \"#utility.yul\":23467:23496   */\n      tag_237\n      jump\t// in\n    tag_471:\n        /* \"#utility.yul\":23457:23465   */\n      dup2\n        /* \"#utility.yul\":23453:23497   */\n      add\n        /* \"#utility.yul\":23650:23652   */\n      0x20\n        /* \"#utility.yul\":23638:23648   */\n      dup6\n        /* \"#utility.yul\":23635:23653   */\n      lt\n        /* \"#utility.yul\":23632:23681   */\n      iszero\n      tag_472\n      jumpi\n        /* \"#utility.yul\":23671:23679   */\n      dup2\n        /* \"#utility.yul\":23656:23679   */\n      swap1\n      pop\n        /* \"#utility.yul\":23632:23681   */\n    tag_472:\n        /* \"#utility.yul\":23694:23774   */\n      tag_473\n        /* \"#utility.yul\":23750:23772   */\n      tag_474\n        /* \"#utility.yul\":23768:23771   */\n      dup6\n        /* \"#utility.yul\":23750:23772   */\n      tag_237\n      jump\t// in\n    tag_474:\n        /* \"#utility.yul\":23740:23748   */\n      dup4\n        /* \"#utility.yul\":23736:23773   */\n      add\n        /* \"#utility.yul\":23723:23734   */\n      dup3\n        /* \"#utility.yul\":23694:23774   */\n      tag_246\n      jump\t// in\n    tag_473:\n        /* \"#utility.yul\":23353:23784   */\n      pop\n      pop\n        /* \"#utility.yul\":23338:23784   */\n    tag_469:\n        /* \"#utility.yul\":23248:23791   */\n      pop\n      pop\n      pop\n      jump\t// out\n        /* \"#utility.yul\":23797:23914   */\n    tag_248:\n        /* \"#utility.yul\":23851:23859   */\n      0x00\n        /* \"#utility.yul\":23901:23906   */\n      dup3\n        /* \"#utility.yul\":23895:23899   */\n      dup3\n        /* \"#utility.yul\":23891:23907   */\n      shr\n        /* \"#utility.yul\":23870:23907   */\n      swap1\n      pop\n        /* \"#utility.yul\":23797:23914   */\n      swap3\n      swap2\n      pop\n      pop\n      jump\t// out\n        /* \"#utility.yul\":23920:24089   */\n    tag_249:\n        /* \"#utility.yul\":23964:23970   */\n      0x00\n        /* \"#utility.yul\":23997:24048   */\n      tag_477\n        /* \"#utility.yul\":24045:24046   */\n      0x00\n        /* \"#utility.yul\":24041:24047   */\n      not\n        /* \"#utility.yul\":24033:24038   */\n      dup5\n        /* \"#utility.yul\":24030:24031   */\n      0x08\n        /* \"#utility.yul\":24026:24039   */\n      mul\n        /* \"#utility.yul\":23997:24048   */\n      tag_248\n      jump\t// in\n    tag_477:\n        /* \"#utility.yul\":23993:24049   */\n      not\n        /* \"#utility.yul\":24078:24082   */\n      dup1\n        /* \"#utility.yul\":24072:24076   */\n      dup4\n        /* \"#utility.yul\":24068:24083   */\n      and\n        /* \"#utility.yul\":24058:24083   */\n      swap2\n      pop\n        /* \"#utility.yul\":23971:24089   */\n      pop\n        /* \"#utility.yul\":23920:24089   */\n      swap3\n      swap2\n      pop\n      pop\n      jump\t// out\n        /* \"#utility.yul\":24094:24389   */\n    tag_250:\n        /* \"#utility.yul\":24170:24174   */\n      0x00\n        /* \"#utility.yul\":24316:24345   */\n      tag_479\n        /* \"#utility.yul\":24341:24344   */\n      dup4\n        /* \"#utility.yul\":24335:24339   */\n      dup4\n        /* \"#utility.yul\":24316:24345   */\n      tag_249\n      jump\t// in\n    tag_479:\n        /* \"#utility.yul\":24308:24345   */\n      swap2\n      pop\n        /* \"#utility.yul\":24378:24381   */\n      dup3\n        /* \"#utility.yul\":24375:24376   */\n      0x02\n        /* \"#utility.yul\":24371:24382   */\n      mul\n        /* \"#utility.yul\":24365:24369   */\n      dup3\n        /* \"#utility.yul\":24362:24383   */\n      or\n        /* \"#utility.yul\":24354:24383   */\n      swap1\n      pop\n        /* \"#utility.yul\":24094:24389   */\n      swap3\n      swap2\n      pop\n      pop\n      jump\t// out\n        /* \"#utility.yul\":24394:25789   */\n    tag_134:\n        /* \"#utility.yul\":24511:24548   */\n      tag_481\n        /* \"#utility.yul\":24544:24547   */\n      dup3\n        /* \"#utility.yul\":24511:24548   */\n      tag_194\n      jump\t// in\n    tag_481:\n        /* \"#utility.yul\":24613:24631   */\n      0xffffffffffffffff\n        /* \"#utility.yul\":24605:24611   */\n      dup2\n        /* \"#utility.yul\":24602:24632   */\n      gt\n        /* \"#utility.yul\":24599:24655   */\n      iszero\n      tag_482\n      jumpi\n        /* \"#utility.yul\":24635:24653   */\n      tag_483\n      tag_66\n      jump\t// in\n    tag_483:\n        /* \"#utility.yul\":24599:24655   */\n    tag_482:\n        /* \"#utility.yul\":24679:24717   */\n      tag_484\n        /* \"#utility.yul\":24711:24715   */\n      dup3\n        /* \"#utility.yul\":24705:24716   */\n      sload\n        /* \"#utility.yul\":24679:24717   */\n      tag_75\n      jump\t// in\n    tag_484:\n        /* \"#utility.yul\":24764:24831   */\n      tag_485\n        /* \"#utility.yul\":24824:24830   */\n      dup3\n        /* \"#utility.yul\":24816:24822   */\n      dup3\n        /* \"#utility.yul\":24810:24814   */\n      dup6\n        /* \"#utility.yul\":24764:24831   */\n      tag_247\n      jump\t// in\n    tag_485:\n        /* \"#utility.yul\":24858:24859   */\n      0x00\n        /* \"#utility.yul\":24882:24886   */\n      0x20\n        /* \"#utility.yul\":24869:24886   */\n      swap1\n      pop\n        /* \"#utility.yul\":24914:24916   */\n      0x1f\n        /* \"#utility.yul\":24906:24912   */\n      dup4\n        /* \"#utility.yul\":24903:24917   */\n      gt\n        /* \"#utility.yul\":24931:24932   */\n      0x01\n        /* \"#utility.yul\":24926:25544   */\n      dup2\n      eq\n      tag_487\n      jumpi\n        /* \"#utility.yul\":25588:25589   */\n      0x00\n        /* \"#utility.yul\":25605:25611   */\n      dup5\n        /* \"#utility.yul\":25602:25679   */\n      iszero\n      tag_488\n      jumpi\n        /* \"#utility.yul\":25654:25663   */\n      dup3\n        /* \"#utility.yul\":25649:25652   */\n      dup8\n        /* \"#utility.yul\":25645:25664   */\n      add\n        /* \"#utility.yul\":25639:25665   */\n      mload\n        /* \"#utility.yul\":25630:25665   */\n      swap1\n      pop\n        /* \"#utility.yul\":25602:25679   */\n    tag_488:\n        /* \"#utility.yul\":25705:25772   */\n      tag_489\n        /* \"#utility.yul\":25765:25771   */\n      dup6\n        /* \"#utility.yul\":25758:25763   */\n      dup3\n        /* \"#utility.yul\":25705:25772   */\n      tag_250\n      jump\t// in\n    tag_489:\n        /* \"#utility.yul\":25699:25703   */\n      dup7\n        /* \"#utility.yul\":25692:25773   */\n      sstore\n        /* \"#utility.yul\":25561:25783   */\n      pop\n        /* \"#utility.yul\":24896:25783   */\n      jump(tag_486)\n        /* \"#utility.yul\":24926:25544   */\n    tag_487:\n        /* \"#utility.yul\":24978:24982   */\n      0x1f\n        /* \"#utility.yul\":24974:24983   */\n      not\n        /* \"#utility.yul\":24966:24972   */\n      dup5\n        /* \"#utility.yul\":24962:24984   */\n      and\n        /* \"#utility.yul\":25012:25049   */\n      tag_490\n        /* \"#utility.yul\":25044:25048   */\n      dup7\n        /* \"#utility.yul\":25012:25049   */\n      tag_236\n      jump\t// in\n    tag_490:\n        /* \"#utility.yul\":25071:25072   */\n      0x00\n        /* \"#utility.yul\":25085:25293   */\n    tag_491:\n        /* \"#utility.yul\":25099:25106   */\n      dup3\n        /* \"#utility.yul\":25096:25097   */\n      dup2\n        /* \"#utility.yul\":25093:25107   */\n      lt\n        /* \"#utility.yul\":25085:25293   */\n      iszero\n      tag_493\n      jumpi\n        /* \"#utility.yul\":25178:25187   */\n      dup5\n        /* \"#utility.yul\":25173:25176   */\n      dup10\n        /* \"#utility.yul\":25169:25188   */\n      add\n        /* \"#utility.yul\":25163:25189   */\n      mload\n        /* \"#utility.yul\":25155:25161   */\n      dup3\n        /* \"#utility.yul\":25148:25190   */\n      sstore\n        /* \"#utility.yul\":25229:25230   */\n      0x01\n        /* \"#utility.yul\":25221:25227   */\n      dup3\n        /* \"#utility.yul\":25217:25231   */\n      add\n        /* \"#utility.yul\":25207:25231   */\n      swap2\n      pop\n        /* \"#utility.yul\":25276:25278   */\n      0x20\n        /* \"#utility.yul\":25265:25274   */\n      dup6\n        /* \"#utility.yul\":25261:25279   */\n      add\n        /* \"#utility.yul\":25248:25279   */\n      swap5\n      pop\n        /* \"#utility.yul\":25122:25126   */\n      0x20\n        /* \"#utility.yul\":25119:25120   */\n      dup2\n        /* \"#utility.yul\":25115:25127   */\n      add\n        /* \"#utility.yul\":25110:25127   */\n      swap1\n      pop\n        /* \"#utility.yul\":25085:25293   */\n      jump(tag_491)\n    tag_493:\n        /* \"#utility.yul\":25321:25327   */\n      dup7\n        /* \"#utility.yul\":25312:25319   */\n      dup4\n        /* \"#utility.yul\":25309:25328   */\n      lt\n        /* \"#utility.yul\":25306:25485   */\n      iszero\n      tag_494\n      jumpi\n        /* \"#utility.yul\":25379:25388   */\n      dup5\n        /* \"#utility.yul\":25374:25377   */\n      dup10\n        /* \"#utility.yul\":25370:25389   */\n      add\n        /* \"#utility.yul\":25364:25390   */\n      mload\n        /* \"#utility.yul\":25422:25470   */\n      tag_495\n        /* \"#utility.yul\":25464:25468   */\n      0x1f\n        /* \"#utility.yul\":25456:25462   */\n      dup10\n        /* \"#utility.yul\":25452:25469   */\n      and\n        /* \"#utility.yul\":25441:25450   */\n      dup3\n        /* \"#utility.yul\":25422:25470   */\n      tag_249\n      jump\t// in\n    tag_495:\n        /* \"#utility.yul\":25414:25420   */\n      dup4\n        /* \"#utility.yul\":25407:25471   */\n      sstore\n        /* \"#utility.yul\":25329:25485   */\n      pop\n        /* \"#utility.yul\":25306:25485   */\n    tag_494:\n        /* \"#utility.yul\":25531:25532   */\n      0x01\n        /* \"#utility.yul\":25527:25528   */\n      0x02\n        /* \"#utility.yul\":25519:25525   */\n      dup9\n        /* \"#utility.yul\":25515:25529   */\n      mul\n        /* \"#utility.yul\":25511:25533   */\n      add\n        /* \"#utility.yul\":25505:25509   */\n      dup9\n        /* \"#utility.yul\":25498:25534   */\n      sstore\n        /* \"#utility.yul\":24933:25544   */\n      pop\n      pop\n      pop\n        /* \"#utility.yul\":24896:25783   */\n    tag_486:\n      pop\n        /* \"#utility.yul\":24486:25789   */\n      pop\n      pop\n      pop\n        /* \"#utility.yul\":24394:25789   */\n      pop\n      pop\n      jump\t// out\n        /* \"#utility.yul\":25795:25962   */\n    tag_251:\n        /* \"#utility.yul\":25935:25954   */\n      0x596f752061726520756e64657220616765000000000000000000000000000000\n        /* \"#utility.yul\":25931:25932   */\n      0x00\n        /* \"#utility.yul\":25923:25929   */\n      dup3\n        /* \"#utility.yul\":25919:25933   */\n      add\n        /* \"#utility.yul\":25912:25955   */\n      mstore\n        /* \"#utility.yul\":25795:25962   */\n      pop\n      jump\t// out\n        /* \"#utility.yul\":25968:26334   */\n    tag_252:\n        /* \"#utility.yul\":26110:26113   */\n      0x00\n        /* \"#utility.yul\":26131:26198   */\n      tag_498\n        /* \"#utility.yul\":26195:26197   */\n      0x11\n        /* \"#utility.yul\":26190:26193   */\n      dup4\n        /* \"#utility.yul\":26131:26198   */\n      tag_195\n      jump\t// in\n    tag_498:\n        /* \"#utility.yul\":26124:26198   */\n      swap2\n      pop\n        /* \"#utility.yul\":26207:26300   */\n      tag_499\n        /* \"#utility.yul\":26296:26299   */\n      dup3\n        /* \"#utility.yul\":26207:26300   */\n      tag_251\n      jump\t// in\n    tag_499:\n        /* \"#utility.yul\":26325:26327   */\n      0x20\n        /* \"#utility.yul\":26320:26323   */\n      dup3\n        /* \"#utility.yul\":26316:26328   */\n      add\n        /* \"#utility.yul\":26309:26328   */\n      swap1\n      pop\n        /* \"#utility.yul\":25968:26334   */\n      swap2\n      swap1\n      pop\n      jump\t// out\n        /* \"#utility.yul\":26340:26759   */\n    tag_141:\n        /* \"#utility.yul\":26506:26510   */\n      0x00\n        /* \"#utility.yul\":26544:26546   */\n      0x20\n        /* \"#utility.yul\":26533:26542   */\n      dup3\n        /* \"#utility.yul\":26529:26547   */\n      add\n        /* \"#utility.yul\":26521:26547   */\n      swap1\n      pop\n        /* \"#utility.yul\":26593:26602   */\n      dup2\n        /* \"#utility.yul\":26587:26591   */\n      dup2\n        /* \"#utility.yul\":26583:26603   */\n      sub\n        /* \"#utility.yul\":26579:26580   */\n      0x00\n        /* \"#utility.yul\":26568:26577   */\n      dup4\n        /* \"#utility.yul\":26564:26581   */\n      add\n        /* \"#utility.yul\":26557:26604   */\n      mstore\n        /* \"#utility.yul\":26621:26752   */\n      tag_501\n        /* \"#utility.yul\":26747:26751   */\n      dup2\n        /* \"#utility.yul\":26621:26752   */\n      tag_252\n      jump\t// in\n    tag_501:\n        /* \"#utility.yul\":26613:26752   */\n      swap1\n      pop\n        /* \"#utility.yul\":26340:26759   */\n      swap2\n      swap1\n      pop\n      jump\t// out\n        /* \"#utility.yul\":26765:26942   */\n    tag_253:\n        /* \"#utility.yul\":26905:26934   */\n      0x596f75206861766520616c726561647920726567697374657265640000000000\n        /* \"#utility.yul\":26901:26902   */\n      0x00\n        /* \"#utility.yul\":26893:26899   */\n      dup3\n        /* \"#utility.yul\":26889:26903   */\n      add\n        /* \"#utility.yul\":26882:26935   */\n      mstore\n        /* \"#utility.yul\":26765:26942   */\n      pop\n      jump\t// out\n        /* \"#utility.yul\":26948:27314   */\n    tag_254:\n        /* \"#utility.yul\":27090:27093   */\n      0x00\n        /* \"#utility.yul\":27111:27178   */\n      tag_504\n        /* \"#utility.yul\":27175:27177   */\n      0x1b\n        /* \"#utility.yul\":27170:27173   */\n      dup4\n        /* \"#utility.yul\":27111:27178   */\n      tag_195\n      jump\t// in\n    tag_504:\n        /* \"#utility.yul\":27104:27178   */\n      swap2\n      pop\n        /* \"#utility.yul\":27187:27280   */\n      tag_505\n        /* \"#utility.yul\":27276:27279   */\n      dup3\n        /* \"#utility.yul\":27187:27280   */\n      tag_253\n      jump\t// in\n    tag_505:\n        /* \"#utility.yul\":27305:27307   */\n      0x20\n        /* \"#utility.yul\":27300:27303   */\n      dup3\n        /* \"#utility.yul\":27296:27308   */\n      add\n        /* \"#utility.yul\":27289:27308   */\n      swap1\n      pop\n        /* \"#utility.yul\":26948:27314   */\n      swap2\n      swap1\n      pop\n      jump\t// out\n        /* \"#utility.yul\":27320:27739   */\n    tag_146:\n        /* \"#utility.yul\":27486:27490   */\n      0x00\n        /* \"#utility.yul\":27524:27526   */\n      0x20\n        /* \"#utility.yul\":27513:27522   */\n      dup3\n        /* \"#utility.yul\":27509:27527   */\n      add\n        /* \"#utility.yul\":27501:27527   */\n      swap1\n      pop\n        /* \"#utility.yul\":27573:27582   */\n      dup2\n        /* \"#utility.yul\":27567:27571   */\n      dup2\n        /* \"#utility.yul\":27563:27583   */\n      sub\n        /* \"#utility.yul\":27559:27560   */\n      0x00\n        /* \"#utility.yul\":27548:27557   */\n      dup4\n        /* \"#utility.yul\":27544:27561   */\n      add\n        /* \"#utility.yul\":27537:27584   */\n      mstore\n        /* \"#utility.yul\":27601:27732   */\n      tag_507\n        /* \"#utility.yul\":27727:27731   */\n      dup2\n        /* \"#utility.yul\":27601:27732   */\n      tag_254\n      jump\t// in\n    tag_507:\n        /* \"#utility.yul\":27593:27732   */\n      swap1\n      pop\n        /* \"#utility.yul\":27320:27739   */\n      swap2\n      swap1\n      pop\n      jump\t// out\n        /* \"#utility.yul\":27745:27909   */\n    tag_255:\n        /* \"#utility.yul\":27885:27901   */\n      0x596f75206861766520766f746564000000000000000000000000000000000000\n        /* \"#utility.yul\":27881:27882   */\n      0x00\n        /* \"#utility.yul\":27873:27879   */\n      dup3\n        /* \"#utility.yul\":27869:27883   */\n      add\n        /* \"#utility.yul\":27862:27902   */\n      mstore\n        /* \"#utility.yul\":27745:27909   */\n      pop\n      jump\t// out\n        /* \"#utility.yul\":27915:28281   */\n    tag_256:\n        /* \"#utility.yul\":28057:28060   */\n      0x00\n        /* \"#utility.yul\":28078:28145   */\n      tag_510\n        /* \"#utility.yul\":28142:28144   */\n      0x0e\n        /* \"#utility.yul\":28137:28140   */\n      dup4\n        /* \"#utility.yul\":28078:28145   */\n      tag_195\n      jump\t// in\n    tag_510:\n        /* \"#utility.yul\":28071:28145   */\n      swap2\n      pop\n        /* \"#utility.yul\":28154:28247   */\n      tag_511\n        /* \"#utility.yul\":28243:28246   */\n      dup3\n        /* \"#utility.yul\":28154:28247   */\n      tag_255\n      jump\t// in\n    tag_511:\n        /* \"#utility.yul\":28272:28274   */\n      0x20\n        /* \"#utility.yul\":28267:28270   */\n      dup3\n        /* \"#utility.yul\":28263:28275   */\n      add\n        /* \"#utility.yul\":28256:28275   */\n      swap1\n      pop\n        /* \"#utility.yul\":27915:28281   */\n      swap2\n      swap1\n      pop\n      jump\t// out\n        /* \"#utility.yul\":28287:28706   */\n    tag_162:\n        /* \"#utility.yul\":28453:28457   */\n      0x00\n        /* \"#utility.yul\":28491:28493   */\n      0x20\n        /* \"#utility.yul\":28480:28489   */\n      dup3\n        /* \"#utility.yul\":28476:28494   */\n      add\n        /* \"#utility.yul\":28468:28494   */\n      swap1\n      pop\n        /* \"#utility.yul\":28540:28549   */\n      dup2\n        /* \"#utility.yul\":28534:28538   */\n      dup2\n        /* \"#utility.yul\":28530:28550   */\n      sub\n        /* \"#utility.yul\":28526:28527   */\n      0x00\n        /* \"#utility.yul\":28515:28524   */\n      dup4\n        /* \"#utility.yul\":28511:28528   */\n      add\n        /* \"#utility.yul\":28504:28551   */\n      mstore\n        /* \"#utility.yul\":28568:28699   */\n      tag_513\n        /* \"#utility.yul\":28694:28698   */\n      dup2\n        /* \"#utility.yul\":28568:28699   */\n      tag_256\n      jump\t// in\n    tag_513:\n        /* \"#utility.yul\":28560:28699   */\n      swap1\n      pop\n        /* \"#utility.yul\":28287:28706   */\n      swap2\n      swap1\n      pop\n      jump\t// out\n        /* \"#utility.yul\":28712:28894   */\n    tag_257:\n        /* \"#utility.yul\":28852:28886   */\n      0x596f752063616e7420766f74652066726f6d206f746865727320626568616c66\n        /* \"#utility.yul\":28848:28849   */\n      0x00\n        /* \"#utility.yul\":28840:28846   */\n      dup3\n        /* \"#utility.yul\":28836:28850   */\n      add\n        /* \"#utility.yul\":28829:28887   */\n      mstore\n        /* \"#utility.yul\":28712:28894   */\n      pop\n      jump\t// out\n        /* \"#utility.yul\":28900:29266   */\n    tag_258:\n        /* \"#utility.yul\":29042:29045   */\n      0x00\n        /* \"#utility.yul\":29063:29130   */\n      tag_516\n        /* \"#utility.yul\":29127:29129   */\n      0x20\n        /* \"#utility.yul\":29122:29125   */\n      dup4\n        /* \"#utility.yul\":29063:29130   */\n      tag_195\n      jump\t// in\n    tag_516:\n        /* \"#utility.yul\":29056:29130   */\n      swap2\n      pop\n        /* \"#utility.yul\":29139:29232   */\n      tag_517\n        /* \"#utility.yul\":29228:29231   */\n      dup3\n        /* \"#utility.yul\":29139:29232   */\n      tag_257\n      jump\t// in\n    tag_517:\n        /* \"#utility.yul\":29257:29259   */\n      0x20\n        /* \"#utility.yul\":29252:29255   */\n      dup3\n        /* \"#utility.yul\":29248:29260   */\n      add\n        /* \"#utility.yul\":29241:29260   */\n      swap1\n      pop\n        /* \"#utility.yul\":28900:29266   */\n      swap2\n      swap1\n      pop\n      jump\t// out\n        /* \"#utility.yul\":29272:29691   */\n    tag_165:\n        /* \"#utility.yul\":29438:29442   */\n      0x00\n        /* \"#utility.yul\":29476:29478   */\n      0x20\n        /* \"#utility.yul\":29465:29474   */\n      dup3\n        /* \"#utility.yul\":29461:29479   */\n      add\n        /* \"#utility.yul\":29453:29479   */\n      swap1\n      pop\n        /* \"#utility.yul\":29525:29534   */\n      dup2\n        /* \"#utility.yul\":29519:29523   */\n      dup2\n        /* \"#utility.yul\":29515:29535   */\n      sub\n        /* \"#utility.yul\":29511:29512   */\n      0x00\n        /* \"#utility.yul\":29500:29509   */\n      dup4\n        /* \"#utility.yul\":29496:29513   */\n      add\n        /* \"#utility.yul\":29489:29536   */\n      mstore\n        /* \"#utility.yul\":29553:29684   */\n      tag_519\n        /* \"#utility.yul\":29679:29683   */\n      dup2\n        /* \"#utility.yul\":29553:29684   */\n      tag_258\n      jump\t// in\n    tag_519:\n        /* \"#utility.yul\":29545:29684   */\n      swap1\n      pop\n        /* \"#utility.yul\":29272:29691   */\n      swap2\n      swap1\n      pop\n      jump\t// out\n        /* \"#utility.yul\":29697:29924   */\n    tag_259:\n        /* \"#utility.yul\":29837:29871   */\n      0x43616e6469646174657320617265206e6f74207265676973746572656420636f\n        /* \"#utility.yul\":29833:29834   */\n      0x00\n        /* \"#utility.yul\":29825:29831   */\n      dup3\n        /* \"#utility.yul\":29821:29835   */\n      add\n        /* \"#utility.yul\":29814:29872   */\n      mstore\n        /* \"#utility.yul\":29906:29916   */\n      0x6d706c6574656c79000000000000000000000000000000000000000000000000\n        /* \"#utility.yul\":29901:29903   */\n      0x20\n        /* \"#utility.yul\":29893:29899   */\n      dup3\n        /* \"#utility.yul\":29889:29904   */\n      add\n        /* \"#utility.yul\":29882:29917   */\n      mstore\n        /* \"#utility.yul\":29697:29924   */\n      pop\n      jump\t// out\n        /* \"#utility.yul\":29930:30296   */\n    tag_260:\n        /* \"#utility.yul\":30072:30075   */\n      0x00\n        /* \"#utility.yul\":30093:30160   */\n      tag_522\n        /* \"#utility.yul\":30157:30159   */\n      0x28\n        /* \"#utility.yul\":30152:30155   */\n      dup4\n        /* \"#utility.yul\":30093:30160   */\n      tag_195\n      jump\t// in\n    tag_522:\n        /* \"#utility.yul\":30086:30160   */\n      swap2\n      pop\n        /* \"#utility.yul\":30169:30262   */\n      tag_523\n        /* \"#utility.yul\":30258:30261   */\n      dup3\n        /* \"#utility.yul\":30169:30262   */\n      tag_259\n      jump\t// in\n    tag_523:\n        /* \"#utility.yul\":30287:30289   */\n      0x40\n        /* \"#utility.yul\":30282:30285   */\n      dup3\n        /* \"#utility.yul\":30278:30290   */\n      add\n        /* \"#utility.yul\":30271:30290   */\n      swap1\n      pop\n        /* \"#utility.yul\":29930:30296   */\n      swap2\n      swap1\n      pop\n      jump\t// out\n        /* \"#utility.yul\":30302:30721   */\n    tag_168:\n        /* \"#utility.yul\":30468:30472   */\n      0x00\n        /* \"#utility.yul\":30506:30508   */\n      0x20\n        /* \"#utility.yul\":30495:30504   */\n      dup3\n        /* \"#utility.yul\":30491:30509   */\n      add\n        /* \"#utility.yul\":30483:30509   */\n      swap1\n      pop\n        /* \"#utility.yul\":30555:30564   */\n      dup2\n        /* \"#utility.yul\":30549:30553   */\n      dup2\n        /* \"#utility.yul\":30545:30565   */\n      sub\n        /* \"#utility.yul\":30541:30542   */\n      0x00\n        /* \"#utility.yul\":30530:30539   */\n      dup4\n        /* \"#utility.yul\":30526:30543   */\n      add\n        /* \"#utility.yul\":30519:30566   */\n      mstore\n        /* \"#utility.yul\":30583:30714   */\n      tag_525\n        /* \"#utility.yul\":30709:30713   */\n      dup2\n        /* \"#utility.yul\":30583:30714   */\n      tag_260\n      jump\t// in\n    tag_525:\n        /* \"#utility.yul\":30575:30714   */\n      swap1\n      pop\n        /* \"#utility.yul\":30302:30721   */\n      swap2\n      swap1\n      pop\n      jump\t// out\n        /* \"#utility.yul\":30727:30898   */\n    tag_261:\n        /* \"#utility.yul\":30867:30890   */\n      0x566f74696e67206973206e6f7420737461727465640000000000000000000000\n        /* \"#utility.yul\":30863:30864   */\n      0x00\n        /* \"#utility.yul\":30855:30861   */\n      dup3\n        /* \"#utility.yul\":30851:30865   */\n      add\n        /* \"#utility.yul\":30844:30891   */\n      mstore\n        /* \"#utility.yul\":30727:30898   */\n      pop\n      jump\t// out\n        /* \"#utility.yul\":30904:31270   */\n    tag_262:\n        /* \"#utility.yul\":31046:31049   */\n      0x00\n        /* \"#utility.yul\":31067:31134   */\n      tag_528\n        /* \"#utility.yul\":31131:31133   */\n      0x15\n        /* \"#utility.yul\":31126:31129   */\n      dup4\n        /* \"#utility.yul\":31067:31134   */\n      tag_195\n      jump\t// in\n    tag_528:\n        /* \"#utility.yul\":31060:31134   */\n      swap2\n      pop\n        /* \"#utility.yul\":31143:31236   */\n      tag_529\n        /* \"#utility.yul\":31232:31235   */\n      dup3\n        /* \"#utility.yul\":31143:31236   */\n      tag_261\n      jump\t// in\n    tag_529:\n        /* \"#utility.yul\":31261:31263   */\n      0x20\n        /* \"#utility.yul\":31256:31259   */\n      dup3\n        /* \"#utility.yul\":31252:31264   */\n      add\n        /* \"#utility.yul\":31245:31264   */\n      swap1\n      pop\n        /* \"#utility.yul\":30904:31270   */\n      swap2\n      swap1\n      pop\n      jump\t// out\n        /* \"#utility.yul\":31276:31695   */\n    tag_171:\n        /* \"#utility.yul\":31442:31446   */\n      0x00\n        /* \"#utility.yul\":31480:31482   */\n      0x20\n        /* \"#utility.yul\":31469:31478   */\n      dup3\n        /* \"#utility.yul\":31465:31483   */\n      add\n        /* \"#utility.yul\":31457:31483   */\n      swap1\n      pop\n        /* \"#utility.yul\":31529:31538   */\n      dup2\n        /* \"#utility.yul\":31523:31527   */\n      dup2\n        /* \"#utility.yul\":31519:31539   */\n      sub\n        /* \"#utility.yul\":31515:31516   */\n      0x00\n        /* \"#utility.yul\":31504:31513   */\n      dup4\n        /* \"#utility.yul\":31500:31517   */\n      add\n        /* \"#utility.yul\":31493:31540   */\n      mstore\n        /* \"#utility.yul\":31557:31688   */\n      tag_531\n        /* \"#utility.yul\":31683:31687   */\n      dup2\n        /* \"#utility.yul\":31557:31688   */\n      tag_262\n      jump\t// in\n    tag_531:\n        /* \"#utility.yul\":31549:31688   */\n      swap1\n      pop\n        /* \"#utility.yul\":31276:31695   */\n      swap2\n      swap1\n      pop\n      jump\t// out\n        /* \"#utility.yul\":31701:31875   */\n    tag_263:\n        /* \"#utility.yul\":31841:31867   */\n      0x43616e64696461746520646f6573206e6f742065786973740000000000000000\n        /* \"#utility.yul\":31837:31838   */\n      0x00\n        /* \"#utility.yul\":31829:31835   */\n      dup3\n        /* \"#utility.yul\":31825:31839   */\n      add\n        /* \"#utility.yul\":31818:31868   */\n      mstore\n        /* \"#utility.yul\":31701:31875   */\n      pop\n      jump\t// out\n        /* \"#utility.yul\":31881:32247   */\n    tag_264:\n        /* \"#utility.yul\":32023:32026   */\n      0x00\n        /* \"#utility.yul\":32044:32111   */\n      tag_534\n        /* \"#utility.yul\":32108:32110   */\n      0x18\n        /* \"#utility.yul\":32103:32106   */\n      dup4\n        /* \"#utility.yul\":32044:32111   */\n      tag_195\n      jump\t// in\n    tag_534:\n        /* \"#utility.yul\":32037:32111   */\n      swap2\n      pop\n        /* \"#utility.yul\":32120:32213   */\n      tag_535\n        /* \"#utility.yul\":32209:32212   */\n      dup3\n        /* \"#utility.yul\":32120:32213   */\n      tag_263\n      jump\t// in\n    tag_535:\n        /* \"#utility.yul\":32238:32240   */\n      0x20\n        /* \"#utility.yul\":32233:32236   */\n      dup3\n        /* \"#utility.yul\":32229:32241   */\n      add\n        /* \"#utility.yul\":32222:32241   */\n      swap1\n      pop\n        /* \"#utility.yul\":31881:32247   */\n      swap2\n      swap1\n      pop\n      jump\t// out\n        /* \"#utility.yul\":32253:32672   */\n    tag_174:\n        /* \"#utility.yul\":32419:32423   */\n      0x00\n        /* \"#utility.yul\":32457:32459   */\n      0x20\n        /* \"#utility.yul\":32446:32455   */\n      dup3\n        /* \"#utility.yul\":32442:32460   */\n      add\n        /* \"#utility.yul\":32434:32460   */\n      swap1\n      pop\n        /* \"#utility.yul\":32506:32515   */\n      dup2\n        /* \"#utility.yul\":32500:32504   */\n      dup2\n        /* \"#utility.yul\":32496:32516   */\n      sub\n        /* \"#utility.yul\":32492:32493   */\n      0x00\n        /* \"#utility.yul\":32481:32490   */\n      dup4\n        /* \"#utility.yul\":32477:32494   */\n      add\n        /* \"#utility.yul\":32470:32517   */\n      mstore\n        /* \"#utility.yul\":32534:32665   */\n      tag_537\n        /* \"#utility.yul\":32660:32664   */\n      dup2\n        /* \"#utility.yul\":32534:32665   */\n      tag_264\n      jump\t// in\n    tag_537:\n        /* \"#utility.yul\":32526:32665   */\n      swap1\n      pop\n        /* \"#utility.yul\":32253:32672   */\n      swap2\n      swap1\n      pop\n      jump\t// out\n\n    auxdata: 0xa2646970667358221220139fe6c20cbde9e28217a63a66485cbb9ddc5b9209a15ac176bb14fdc6195ab264736f6c63430008120033\n}\n",
				"bytecode": {
					"linkReferences": {},
					"object": "6080604052600160045560016005556000600660006101000a81548160ff02191690831515021790555034801561003557600080fd5b50336000806101000a81548173ffffffffffffffffffffffffffffffffffffffff021916908373ffffffffffffffffffffffffffffffffffffffff1602179055506123d5806100856000396000f3fe608060405234801561001057600080fd5b50600436106100935760003560e01c806369042bec1161006657806369042bec1461010f57806393e5fed21461012b578063b1fbcd0814610147578063b384abef14610165578063dfbf53ae1461018157610093565b80631436311f1461009857806319f41a40146100b457806324089918146100d3578063498ea441146100f1575b600080fd5b6100b260048036038101906100ad91906113f0565b61019f565b005b6100bc610255565b6040516100ca9291906114db565b60405180910390f35b6100db610351565b6040516100e891906116f7565b60405180910390f35b6100f96105c5565b6040516101069190611885565b60405180910390f35b6101296004803603810190610124919061190c565b6108cb565b005b610145600480360381019061014091906119d5565b610bdd565b005b61014f610dff565b60405161015c9190611a79565b60405180910390f35b61017f600480360381019061017a91906113f0565b610f8e565b005b6101896111a5565b6040516101969190611a79565b60405180910390f35b60008054906101000a900473ffffffffffffffffffffffffffffffffffffffff1673ffffffffffffffffffffffffffffffffffffffff163373ffffffffffffffffffffffffffffffffffffffff161461022d576040517f08c379a000000000000000000000000000000000000000000000000000000000815260040161022490611b06565b60405180910390fd5b42826102399190611b55565b600781905550818161024b9190611b55565b6008819055505050565b6060600080600754036102a45760006040518060400160405280601581526020017f566f74696e67206973206e6f7420737461727465640000000000000000000000815250909150915061034d565b426008541180156102c8575060001515600660009054906101000a900460ff161515145b1561030f5760016040518060400160405280601581526020017f566f74696e6720697320696e2070726f67726573730000000000000000000000815250909150915061034d565b60006040518060400160405280600e81526020017f566f74696e67206973206f76657200000000000000000000000000000000000081525090915091505b9091565b6060600060016005546103649190611b89565b67ffffffffffffffff81111561037d5761037c611bbd565b5b6040519080825280602002602001820160405280156103b657816020015b6103a3611311565b81526020019060019003908161039b5790505b5090506000600190505b6005548110156105bd57600360008281526020019081526020016000206040518060c00160405290816000820180546103f890611c1b565b80601f016020809104026020016040519081016040528092919081815260200182805461042490611c1b565b80156104715780601f1061044657610100808354040283529160200191610471565b820191906000526020600020905b81548152906001019060200180831161045457829003601f168201915b50505050508152602001600182015481526020016002820154815260200160038201805461049e90611c1b565b80601f01602080910402602001604051908101604052809291908181526020018280546104ca90611c1b565b80156105175780601f106104ec57610100808354040283529160200191610517565b820191906000526020600020905b8154815290600101906020018083116104fa57829003601f168201915b50505050508152602001600482015481526020016005820160009054906101000a900473ffffffffffffffffffffffffffffffffffffffff1673ffffffffffffffffffffffffffffffffffffffff1673ffffffffffffffffffffffffffffffffffffffff16815250508260018361058e9190611b89565b8151811061059f5761059e611c4c565b5b602002602001018190525080806105b590611c7b565b9150506103c0565b508091505090565b6060600060016004546105d89190611b89565b67ffffffffffffffff8111156105f1576105f0611bbd565b5b60405190808252806020026020018201604052801561062a57816020015b61061761135d565b81526020019060019003908161060f5790505b5090506000600190505b6004548110156108c357600260008281526020019081526020016000206040518060e001604052908160008201805461066c90611c1b565b80601f016020809104026020016040519081016040528092919081815260200182805461069890611c1b565b80156106e55780601f106106ba576101008083540402835291602001916106e5565b820191906000526020600020905b8154815290600101906020018083116106c857829003601f168201915b505050505081526020016001820154815260200160028201805461070890611c1b565b80601f016020809104026020016040519081016040528092919081815260200182805461073490611c1b565b80156107815780601f1061075657610100808354040283529160200191610781565b820191906000526020600020905b81548152906001019060200180831161076457829003601f168201915b50505050508152602001600382015481526020016004820180546107a490611c1b565b80601f01602080910402602001604051908101604052809291908181526020018280546107d090611c1b565b801561081d5780601f106107f25761010080835404028352916020019161081d565b820191906000526020600020905b81548152906001019060200180831161080057829003601f168201915b505050505081526020016005820160009054906101000a900473ffffffffffffffffffffffffffffffffffffffff1673ffffffffffffffffffffffffffffffffffffffff1673ffffffffffffffffffffffffffffffffffffffff168152602001600682015481525050826001836108949190611b89565b815181106108a5576108a4611c4c565b5b602002602001018190525080806108bb90611c7b565b915050610634565b508091505090565b60008054906101000a900473ffffffffffffffffffffffffffffffffffffffff1673ffffffffffffffffffffffffffffffffffffffff163373ffffffffffffffffffffffffffffffffffffffff1603610959576040517f08c379a000000000000000000000000000000000000000000000000000000000815260040161095090611d0f565b60405180910390fd5b610962336111cb565b6109a1576040517f08c379a000000000000000000000000000000000000000000000000000000000815260040161099890611d7b565b60405180910390fd5b60128510156109e5576040517f08c379a00000000000000000000000000000000000000000000000000000000081526004016109dc90611de7565b60405180910390fd5b6040518060e0016040528088888080601f016020809104026020016040519081016040528093929190818152602001838380828437600081840152601f19601f82011690508083019250505050505050815260200186815260200185858080601f016020809104026020016040519081016040528093929190818152602001838380828437600081840152601f19601f820116905080830192505050505050508152602001600454815260200183838080601f016020809104026020016040519081016040528093929190818152602001838380828437600081840152601f19601f8201169050808301925050505050505081526020013373ffffffffffffffffffffffffffffffffffffffff16815260200160008152506002600060045481526020019081526020016000206000820151816000019081610b279190611fb3565b50602082015181600101556040820151816002019081610b479190611fb3565b50606082015181600301556080820151816004019081610b679190611fb3565b5060a08201518160050160006101000a81548173ffffffffffffffffffffffffffffffffffffffff021916908373ffffffffffffffffffffffffffffffffffffffff16021790555060c0820151816006015590505060046000815480929190610bcf90611c7b565b919050555050505050505050565b6012831015610c21576040517f08c379a0000000000000000000000000000000000000000000000000000000008152600401610c18906120d1565b60405180910390fd5b610c2a3361126e565b610c69576040517f08c379a0000000000000000000000000000000000000000000000000000000008152600401610c609061213d565b60405180910390fd5b6040518060c0016040528086868080601f016020809104026020016040519081016040528093929190818152602001838380828437600081840152601f19601f820116905080830192505050505050508152602001848152602001600554815260200183838080601f016020809104026020016040519081016040528093929190818152602001838380828437600081840152601f19601f820116905080830192505050505050508152602001600081526020013373ffffffffffffffffffffffffffffffffffffffff168152506003600060055481526020019081526020016000206000820151816000019081610d619190611fb3565b5060208201518160010155604082015181600201556060820151816003019081610d8b9190611fb3565b506080820151816004015560a08201518160050160006101000a81548173ffffffffffffffffffffffffffffffffffffffff021916908373ffffffffffffffffffffffffffffffffffffffff16021790555090505060056000815480929190610df390611c7b565b91905055505050505050565b60008060009054906101000a900473ffffffffffffffffffffffffffffffffffffffff1673ffffffffffffffffffffffffffffffffffffffff163373ffffffffffffffffffffffffffffffffffffffff1614610e90576040517f08c379a0000000000000000000000000000000000000000000000000000000008152600401610e8790611b06565b60405180910390fd5b600080600190505b600454811015610f64578160026000838152602001908152602001600020600601541115610f5157600260008281526020019081526020016000206006015491506002600082815260200190815260200160002060050160009054906101000a900473ffffffffffffffffffffffffffffffffffffffff16600160006101000a81548173ffffffffffffffffffffffffffffffffffffffff021916908373ffffffffffffffffffffffffffffffffffffffff1602179055505b8080610f5c90611c7b565b915050610e98565b50600160009054906101000a900473ffffffffffffffffffffffffffffffffffffffff1691505090565b6000600360008481526020019081526020016000206004015414610fe7576040517f08c379a0000000000000000000000000000000000000000000000000000000008152600401610fde906121a9565b60405180910390fd5b3373ffffffffffffffffffffffffffffffffffffffff166003600084815260200190815260200160002060050160009054906101000a900473ffffffffffffffffffffffffffffffffffffffff1673ffffffffffffffffffffffffffffffffffffffff161461108b576040517f08c379a000000000000000000000000000000000000000000000000000000000815260040161108290612215565b60405180910390fd5b600360045410156110d1576040517f08c379a00000000000000000000000000000000000000000000000000000000081526004016110c8906122a7565b60405180910390fd5b600060075403611116576040517f08c379a000000000000000000000000000000000000000000000000000000000815260040161110d90612313565b60405180910390fd5b600454811061115a576040517f08c379a00000000000000000000000000000000000000000000000000000000081526004016111519061237f565b60405180910390fd5b80600360008481526020019081526020016000206004018190555060026000828152602001908152602001600020600601600081548092919061119c90611c7b565b91905055505050565b600160009054906101000a900473ffffffffffffffffffffffffffffffffffffffff1681565b600080600190505b600454811015611263578273ffffffffffffffffffffffffffffffffffffffff166002600083815260200190815260200160002060050160009054906101000a900473ffffffffffffffffffffffffffffffffffffffff1673ffffffffffffffffffffffffffffffffffffffff1603611250576000915050611269565b808061125b90611c7b565b9150506111d3565b50600190505b919050565b600080600190505b600554811015611306578273ffffffffffffffffffffffffffffffffffffffff166003600083815260200190815260200160002060050160009054906101000a900473ffffffffffffffffffffffffffffffffffffffff1673ffffffffffffffffffffffffffffffffffffffff16036112f357600091505061130c565b80806112fe90611c7b565b915050611276565b50600190505b919050565b6040518060c001604052806060815260200160008152602001600081526020016060815260200160008152602001600073ffffffffffffffffffffffffffffffffffffffff1681525090565b6040518060e001604052806060815260200160008152602001606081526020016000815260200160608152602001600073ffffffffffffffffffffffffffffffffffffffff168152602001600081525090565b600080fd5b600080fd5b6000819050919050565b6113cd816113ba565b81146113d857600080fd5b50565b6000813590506113ea816113c4565b92915050565b60008060408385031215611407576114066113b0565b5b6000611415858286016113db565b9250506020611426858286016113db565b9150509250929050565b600081519050919050565b600082825260208201905092915050565b60005b8381101561146a57808201518184015260208101905061144f565b60008484015250505050565b6000601f19601f8301169050919050565b600061149282611430565b61149c818561143b565b93506114ac81856020860161144c565b6114b581611476565b840191505092915050565b60008115159050919050565b6114d5816114c0565b82525050565b600060408201905081810360008301526114f58185611487565b905061150460208301846114cc565b9392505050565b600081519050919050565b600082825260208201905092915050565b6000819050602082019050919050565b600082825260208201905092915050565b600061155382611430565b61155d8185611537565b935061156d81856020860161144c565b61157681611476565b840191505092915050565b61158a816113ba565b82525050565b600073ffffffffffffffffffffffffffffffffffffffff82169050919050565b60006115bb82611590565b9050919050565b6115cb816115b0565b82525050565b600060c08301600083015184820360008601526115ee8282611548565b91505060208301516116036020860182611581565b5060408301516116166040860182611581565b506060830151848203606086015261162e8282611548565b91505060808301516116436080860182611581565b5060a083015161165660a08601826115c2565b508091505092915050565b600061166d83836115d1565b905092915050565b6000602082019050919050565b600061168d8261150b565b6116978185611516565b9350836020820285016116a985611527565b8060005b858110156116e557848403895281516116c68582611661565b94506116d183611675565b925060208a019950506001810190506116ad565b50829750879550505050505092915050565b600060208201905081810360008301526117118184611682565b905092915050565b600081519050919050565b600082825260208201905092915050565b6000819050602082019050919050565b600060e08301600083015184820360008601526117628282611548565b91505060208301516117776020860182611581565b506040830151848203604086015261178f8282611548565b91505060608301516117a46060860182611581565b50608083015184820360808601526117bc8282611548565b91505060a08301516117d160a08601826115c2565b5060c08301516117e460c0860182611581565b508091505092915050565b60006117fb8383611745565b905092915050565b6000602082019050919050565b600061181b82611719565b6118258185611724565b93508360208202850161183785611735565b8060005b85811015611873578484038952815161185485826117ef565b945061185f83611803565b925060208a0199505060018101905061183b565b50829750879550505050505092915050565b6000602082019050818103600083015261189f8184611810565b905092915050565b600080fd5b600080fd5b600080fd5b60008083601f8401126118cc576118cb6118a7565b5b8235905067ffffffffffffffff8111156118e9576118e86118ac565b5b602083019150836001820283011115611905576119046118b1565b5b9250929050565b60008060008060008060006080888a03121561192b5761192a6113b0565b5b600088013567ffffffffffffffff811115611949576119486113b5565b5b6119558a828b016118b6565b975097505060206119688a828b016113db565b955050604088013567ffffffffffffffff811115611989576119886113b5565b5b6119958a828b016118b6565b9450945050606088013567ffffffffffffffff8111156119b8576119b76113b5565b5b6119c48a828b016118b6565b925092505092959891949750929550565b6000806000806000606086880312156119f1576119f06113b0565b5b600086013567ffffffffffffffff811115611a0f57611a0e6113b5565b5b611a1b888289016118b6565b95509550506020611a2e888289016113db565b935050604086013567ffffffffffffffff811115611a4f57611a4e6113b5565b5b611a5b888289016118b6565b92509250509295509295909350565b611a73816115b0565b82525050565b6000602082019050611a8e6000830184611a6a565b92915050565b7f596f7520617265206e6f742066726f6d20656c656374696f6e20636f6d69737360008201527f696f6e0000000000000000000000000000000000000000000000000000000000602082015250565b6000611af060238361143b565b9150611afb82611a94565b604082019050919050565b60006020820190508181036000830152611b1f81611ae3565b9050919050565b7f4e487b7100000000000000000000000000000000000000000000000000000000600052601160045260246000fd5b6000611b60826113ba565b9150611b6b836113ba565b9250828201905080821115611b8357611b82611b26565b5b92915050565b6000611b94826113ba565b9150611b9f836113ba565b9250828203905081811115611bb757611bb6611b26565b5b92915050565b7f4e487b7100000000000000000000000000000000000000000000000000000000600052604160045260246000fd5b7f4e487b7100000000000000000000000000000000000000000000000000000000600052602260045260246000fd5b60006002820490506001821680611c3357607f821691505b602082108103611c4657611c45611bec565b5b50919050565b7f4e487b7100000000000000000000000000000000000000000000000000000000600052603260045260246000fd5b6000611c86826113ba565b91507fffffffffffffffffffffffffffffffffffffffffffffffffffffffffffffffff8203611cb857611cb7611b26565b5b600182019050919050565b7f596f75206172652066726f6d20656c656374696f6e20636f6d697373696f6e00600082015250565b6000611cf9601f8361143b565b9150611d0482611cc3565b602082019050919050565b60006020820190508181036000830152611d2881611cec565b9050919050565b7f596f752063616e206e6f74207265676973746572207477696365000000000000600082015250565b6000611d65601a8361143b565b9150611d7082611d2f565b602082019050919050565b60006020820190508181036000830152611d9481611d58565b9050919050565b7f596f7520617265206e6f7420656c696769626c65000000000000000000000000600082015250565b6000611dd160148361143b565b9150611ddc82611d9b565b602082019050919050565b60006020820190508181036000830152611e0081611dc4565b9050919050565b60008190508160005260206000209050919050565b60006020601f8301049050919050565b600082821b905092915050565b600060088302611e697fffffffffffffffffffffffffffffffffffffffffffffffffffffffffffffffff82611e2c565b611e738683611e2c565b95508019841693508086168417925050509392505050565b6000819050919050565b6000611eb0611eab611ea6846113ba565b611e8b565b6113ba565b9050919050565b6000819050919050565b611eca83611e95565b611ede611ed682611eb7565b848454611e39565b825550505050565b600090565b611ef3611ee6565b611efe818484611ec1565b505050565b5b81811015611f2257611f17600082611eeb565b600181019050611f04565b5050565b601f821115611f6757611f3881611e07565b611f4184611e1c565b81016020851015611f50578190505b611f64611f5c85611e1c565b830182611f03565b50505b505050565b600082821c905092915050565b6000611f8a60001984600802611f6c565b1980831691505092915050565b6000611fa38383611f79565b9150826002028217905092915050565b611fbc82611430565b67ffffffffffffffff811115611fd557611fd4611bbd565b5b611fdf8254611c1b565b611fea828285611f26565b600060209050601f83116001811461201d576000841561200b578287015190505b6120158582611f97565b86555061207d565b601f19841661202b86611e07565b60005b828110156120535784890151825560018201915060208501945060208101905061202e565b86831015612070578489015161206c601f891682611f79565b8355505b6001600288020188555050505b505050505050565b7f596f752061726520756e64657220616765000000000000000000000000000000600082015250565b60006120bb60118361143b565b91506120c682612085565b602082019050919050565b600060208201905081810360008301526120ea816120ae565b9050919050565b7f596f75206861766520616c726561647920726567697374657265640000000000600082015250565b6000612127601b8361143b565b9150612132826120f1565b602082019050919050565b600060208201905081810360008301526121568161211a565b9050919050565b7f596f75206861766520766f746564000000000000000000000000000000000000600082015250565b6000612193600e8361143b565b915061219e8261215d565b602082019050919050565b600060208201905081810360008301526121c281612186565b9050919050565b7f596f752063616e7420766f74652066726f6d206f746865727320626568616c66600082015250565b60006121ff60208361143b565b915061220a826121c9565b602082019050919050565b6000602082019050818103600083015261222e816121f2565b9050919050565b7f43616e6469646174657320617265206e6f74207265676973746572656420636f60008201527f6d706c6574656c79000000000000000000000000000000000000000000000000602082015250565b600061229160288361143b565b915061229c82612235565b604082019050919050565b600060208201905081810360008301526122c081612284565b9050919050565b7f566f74696e67206973206e6f7420737461727465640000000000000000000000600082015250565b60006122fd60158361143b565b9150612308826122c7565b602082019050919050565b6000602082019050818103600083015261232c816122f0565b9050919050565b7f43616e64696461746520646f6573206e6f742065786973740000000000000000600082015250565b600061236960188361143b565b915061237482612333565b602082019050919050565b600060208201905081810360008301526123988161235c565b905091905056fea2646970667358221220139fe6c20cbde9e28217a63a66485cbb9ddc5b9209a15ac176bb14fdc6195ab264736f6c63430008120033",
					"opcodes": "PUSH1 0x80 PUSH1 0x40 MSTORE PUSH1 0x1 PUSH1 0x4 SSTORE PUSH1 0x1 PUSH1 0x5 SSTORE PUSH1 0x0 PUSH1 0x6 PUSH1 0x0 PUSH2 0x100 EXP DUP2 SLOAD DUP2 PUSH1 0xFF MUL NOT AND SWAP1 DUP4 ISZERO ISZERO MUL OR SWAP1 SSTORE POP CALLVALUE DUP1 ISZERO PUSH2 0x35 JUMPI PUSH1 0x0 DUP1 REVERT JUMPDEST POP CALLER PUSH1 0x0 DUP1 PUSH2 0x100 EXP DUP2 SLOAD DUP2 PUSH20 0xFFFFFFFFFFFFFFFFFFFFFFFFFFFFFFFFFFFFFFFF MUL NOT AND SWAP1 DUP4 PUSH20 0xFFFFFFFFFFFFFFFFFFFFFFFFFFFFFFFFFFFFFFFF AND MUL OR SWAP1 SSTORE POP PUSH2 0x23D5 DUP1 PUSH2 0x85 PUSH1 0x0 CODECOPY PUSH1 0x0 RETURN INVALID PUSH1 0x80 PUSH1 0x40 MSTORE CALLVALUE DUP1 ISZERO PUSH2 0x10 JUMPI PUSH1 0x0 DUP1 REVERT JUMPDEST POP PUSH1 0x4 CALLDATASIZE LT PUSH2 0x93 JUMPI PUSH1 0x0 CALLDATALOAD PUSH1 0xE0 SHR DUP1 PUSH4 0x69042BEC GT PUSH2 0x66 JUMPI DUP1 PUSH4 0x69042BEC EQ PUSH2 0x10F JUMPI DUP1 PUSH4 0x93E5FED2 EQ PUSH2 0x12B JUMPI DUP1 PUSH4 0xB1FBCD08 EQ PUSH2 0x147 JUMPI DUP1 PUSH4 0xB384ABEF EQ PUSH2 0x165 JUMPI DUP1 PUSH4 0xDFBF53AE EQ PUSH2 0x181 JUMPI PUSH2 0x93 JUMP JUMPDEST DUP1 PUSH4 0x1436311F EQ PUSH2 0x98 JUMPI DUP1 PUSH4 0x19F41A40 EQ PUSH2 0xB4 JUMPI DUP1 PUSH4 0x24089918 EQ PUSH2 0xD3 JUMPI DUP1 PUSH4 0x498EA441 EQ PUSH2 0xF1 JUMPI JUMPDEST PUSH1 0x0 DUP1 REVERT JUMPDEST PUSH2 0xB2 PUSH1 0x4 DUP1 CALLDATASIZE SUB DUP2 ADD SWAP1 PUSH2 0xAD SWAP2 SWAP1 PUSH2 0x13F0 JUMP JUMPDEST PUSH2 0x19F JUMP JUMPDEST STOP JUMPDEST PUSH2 0xBC PUSH2 0x255 JUMP JUMPDEST PUSH1 0x40 MLOAD PUSH2 0xCA SWAP3 SWAP2 SWAP1 PUSH2 0x14DB JUMP JUMPDEST PUSH1 0x40 MLOAD DUP1 SWAP2 SUB SWAP1 RETURN JUMPDEST PUSH2 0xDB PUSH2 0x351 JUMP JUMPDEST PUSH1 0x40 MLOAD PUSH2 0xE8 SWAP2 SWAP1 PUSH2 0x16F7 JUMP JUMPDEST PUSH1 0x40 MLOAD DUP1 SWAP2 SUB SWAP1 RETURN JUMPDEST PUSH2 0xF9 PUSH2 0x5C5 JUMP JUMPDEST PUSH1 0x40 MLOAD PUSH2 0x106 SWAP2 SWAP1 PUSH2 0x1885 JUMP JUMPDEST PUSH1 0x40 MLOAD DUP1 SWAP2 SUB SWAP1 RETURN JUMPDEST PUSH2 0x129 PUSH1 0x4 DUP1 CALLDATASIZE SUB DUP2 ADD SWAP1 PUSH2 0x124 SWAP2 SWAP1 PUSH2 0x190C JUMP JUMPDEST PUSH2 0x8CB JUMP JUMPDEST STOP JUMPDEST PUSH2 0x145 PUSH1 0x4 DUP1 CALLDATASIZE SUB DUP2 ADD SWAP1 PUSH2 0x140 SWAP2 SWAP1 PUSH2 0x19D5 JUMP JUMPDEST PUSH2 0xBDD JUMP JUMPDEST STOP JUMPDEST PUSH2 0x14F PUSH2 0xDFF JUMP JUMPDEST PUSH1 0x40 MLOAD PUSH2 0x15C SWAP2 SWAP1 PUSH2 0x1A79 JUMP JUMPDEST PUSH1 0x40 MLOAD DUP1 SWAP2 SUB SWAP1 RETURN JUMPDEST PUSH2 0x17F PUSH1 0x4 DUP1 CALLDATASIZE SUB DUP2 ADD SWAP1 PUSH2 0x17A SWAP2 SWAP1 PUSH2 0x13F0 JUMP JUMPDEST PUSH2 0xF8E JUMP JUMPDEST STOP JUMPDEST PUSH2 0x189 PUSH2 0x11A5 JUMP JUMPDEST PUSH1 0x40 MLOAD PUSH2 0x196 SWAP2 SWAP1 PUSH2 0x1A79 JUMP JUMPDEST PUSH1 0x40 MLOAD DUP1 SWAP2 SUB SWAP1 RETURN JUMPDEST PUSH1 0x0 DUP1 SLOAD SWAP1 PUSH2 0x100 EXP SWAP1 DIV PUSH20 0xFFFFFFFFFFFFFFFFFFFFFFFFFFFFFFFFFFFFFFFF AND PUSH20 0xFFFFFFFFFFFFFFFFFFFFFFFFFFFFFFFFFFFFFFFF AND CALLER PUSH20 0xFFFFFFFFFFFFFFFFFFFFFFFFFFFFFFFFFFFFFFFF AND EQ PUSH2 0x22D JUMPI PUSH1 0x40 MLOAD PUSH32 0x8C379A000000000000000000000000000000000000000000000000000000000 DUP2 MSTORE PUSH1 0x4 ADD PUSH2 0x224 SWAP1 PUSH2 0x1B06 JUMP JUMPDEST PUSH1 0x40 MLOAD DUP1 SWAP2 SUB SWAP1 REVERT JUMPDEST TIMESTAMP DUP3 PUSH2 0x239 SWAP2 SWAP1 PUSH2 0x1B55 JUMP JUMPDEST PUSH1 0x7 DUP2 SWAP1 SSTORE POP DUP2 DUP2 PUSH2 0x24B SWAP2 SWAP1 PUSH2 0x1B55 JUMP JUMPDEST PUSH1 0x8 DUP2 SWAP1 SSTORE POP POP POP JUMP JUMPDEST PUSH1 0x60 PUSH1 0x0 DUP1 PUSH1 0x7 SLOAD SUB PUSH2 0x2A4 JUMPI PUSH1 0x0 PUSH1 0x40 MLOAD DUP1 PUSH1 0x40 ADD PUSH1 0x40 MSTORE DUP1 PUSH1 0x15 DUP2 MSTORE PUSH1 0x20 ADD PUSH32 0x566F74696E67206973206E6F7420737461727465640000000000000000000000 DUP2 MSTORE POP SWAP1 SWAP2 POP SWAP2 POP PUSH2 0x34D JUMP JUMPDEST TIMESTAMP PUSH1 0x8 SLOAD GT DUP1 ISZERO PUSH2 0x2C8 JUMPI POP PUSH1 0x0 ISZERO ISZERO PUSH1 0x6 PUSH1 0x0 SWAP1 SLOAD SWAP1 PUSH2 0x100 EXP SWAP1 DIV PUSH1 0xFF AND ISZERO ISZERO EQ JUMPDEST ISZERO PUSH2 0x30F JUMPI PUSH1 0x1 PUSH1 0x40 MLOAD DUP1 PUSH1 0x40 ADD PUSH1 0x40 MSTORE DUP1 PUSH1 0x15 DUP2 MSTORE PUSH1 0x20 ADD PUSH32 0x566F74696E6720697320696E2070726F67726573730000000000000000000000 DUP2 MSTORE POP SWAP1 SWAP2 POP SWAP2 POP PUSH2 0x34D JUMP JUMPDEST PUSH1 0x0 PUSH1 0x40 MLOAD DUP1 PUSH1 0x40 ADD PUSH1 0x40 MSTORE DUP1 PUSH1 0xE DUP2 MSTORE PUSH1 0x20 ADD PUSH32 0x566F74696E67206973206F766572000000000000000000000000000000000000 DUP2 MSTORE POP SWAP1 SWAP2 POP SWAP2 POP JUMPDEST SWAP1 SWAP2 JUMP JUMPDEST PUSH1 0x60 PUSH1 0x0 PUSH1 0x1 PUSH1 0x5 SLOAD PUSH2 0x364 SWAP2 SWAP1 PUSH2 0x1B89 JUMP JUMPDEST PUSH8 0xFFFFFFFFFFFFFFFF DUP2 GT ISZERO PUSH2 0x37D JUMPI PUSH2 0x37C PUSH2 0x1BBD JUMP JUMPDEST JUMPDEST PUSH1 0x40 MLOAD SWAP1 DUP1 DUP3 MSTORE DUP1 PUSH1 0x20 MUL PUSH1 0x20 ADD DUP3 ADD PUSH1 0x40 MSTORE DUP1 ISZERO PUSH2 0x3B6 JUMPI DUP2 PUSH1 0x20 ADD JUMPDEST PUSH2 0x3A3 PUSH2 0x1311 JUMP JUMPDEST DUP2 MSTORE PUSH1 0x20 ADD SWAP1 PUSH1 0x1 SWAP1 SUB SWAP1 DUP2 PUSH2 0x39B JUMPI SWAP1 POP JUMPDEST POP SWAP1 POP PUSH1 0x0 PUSH1 0x1 SWAP1 POP JUMPDEST PUSH1 0x5 SLOAD DUP2 LT ISZERO PUSH2 0x5BD JUMPI PUSH1 0x3 PUSH1 0x0 DUP3 DUP2 MSTORE PUSH1 0x20 ADD SWAP1 DUP2 MSTORE PUSH1 0x20 ADD PUSH1 0x0 KECCAK256 PUSH1 0x40 MLOAD DUP1 PUSH1 0xC0 ADD PUSH1 0x40 MSTORE SWAP1 DUP2 PUSH1 0x0 DUP3 ADD DUP1 SLOAD PUSH2 0x3F8 SWAP1 PUSH2 0x1C1B JUMP JUMPDEST DUP1 PUSH1 0x1F ADD PUSH1 0x20 DUP1 SWAP2 DIV MUL PUSH1 0x20 ADD PUSH1 0x40 MLOAD SWAP1 DUP2 ADD PUSH1 0x40 MSTORE DUP1 SWAP3 SWAP2 SWAP1 DUP2 DUP2 MSTORE PUSH1 0x20 ADD DUP3 DUP1 SLOAD PUSH2 0x424 SWAP1 PUSH2 0x1C1B JUMP JUMPDEST DUP1 ISZERO PUSH2 0x471 JUMPI DUP1 PUSH1 0x1F LT PUSH2 0x446 JUMPI PUSH2 0x100 DUP1 DUP4 SLOAD DIV MUL DUP4 MSTORE SWAP2 PUSH1 0x20 ADD SWAP2 PUSH2 0x471 JUMP JUMPDEST DUP3 ADD SWAP2 SWAP1 PUSH1 0x0 MSTORE PUSH1 0x20 PUSH1 0x0 KECCAK256 SWAP1 JUMPDEST DUP2 SLOAD DUP2 MSTORE SWAP1 PUSH1 0x1 ADD SWAP1 PUSH1 0x20 ADD DUP1 DUP4 GT PUSH2 0x454 JUMPI DUP3 SWAP1 SUB PUSH1 0x1F AND DUP3 ADD SWAP2 JUMPDEST POP POP POP POP POP DUP2 MSTORE PUSH1 0x20 ADD PUSH1 0x1 DUP3 ADD SLOAD DUP2 MSTORE PUSH1 0x20 ADD PUSH1 0x2 DUP3 ADD SLOAD DUP2 MSTORE PUSH1 0x20 ADD PUSH1 0x3 DUP3 ADD DUP1 SLOAD PUSH2 0x49E SWAP1 PUSH2 0x1C1B JUMP JUMPDEST DUP1 PUSH1 0x1F ADD PUSH1 0x20 DUP1 SWAP2 DIV MUL PUSH1 0x20 ADD PUSH1 0x40 MLOAD SWAP1 DUP2 ADD PUSH1 0x40 MSTORE DUP1 SWAP3 SWAP2 SWAP1 DUP2 DUP2 MSTORE PUSH1 0x20 ADD DUP3 DUP1 SLOAD PUSH2 0x4CA SWAP1 PUSH2 0x1C1B JUMP JUMPDEST DUP1 ISZERO PUSH2 0x517 JUMPI DUP1 PUSH1 0x1F LT PUSH2 0x4EC JUMPI PUSH2 0x100 DUP1 DUP4 SLOAD DIV MUL DUP4 MSTORE SWAP2 PUSH1 0x20 ADD SWAP2 PUSH2 0x517 JUMP JUMPDEST DUP3 ADD SWAP2 SWAP1 PUSH1 0x0 MSTORE PUSH1 0x20 PUSH1 0x0 KECCAK256 SWAP1 JUMPDEST DUP2 SLOAD DUP2 MSTORE SWAP1 PUSH1 0x1 ADD SWAP1 PUSH1 0x20 ADD DUP1 DUP4 GT PUSH2 0x4FA JUMPI DUP3 SWAP1 SUB PUSH1 0x1F AND DUP3 ADD SWAP2 JUMPDEST POP POP POP POP POP DUP2 MSTORE PUSH1 0x20 ADD PUSH1 0x4 DUP3 ADD SLOAD DUP2 MSTORE PUSH1 0x20 ADD PUSH1 0x5 DUP3 ADD PUSH1 0x0 SWAP1 SLOAD SWAP1 PUSH2 0x100 EXP SWAP1 DIV PUSH20 0xFFFFFFFFFFFFFFFFFFFFFFFFFFFFFFFFFFFFFFFF AND PUSH20 0xFFFFFFFFFFFFFFFFFFFFFFFFFFFFFFFFFFFFFFFF AND PUSH20 0xFFFFFFFFFFFFFFFFFFFFFFFFFFFFFFFFFFFFFFFF AND DUP2 MSTORE POP POP DUP3 PUSH1 0x1 DUP4 PUSH2 0x58E SWAP2 SWAP1 PUSH2 0x1B89 JUMP JUMPDEST DUP2 MLOAD DUP2 LT PUSH2 0x59F JUMPI PUSH2 0x59E PUSH2 0x1C4C JUMP JUMPDEST JUMPDEST PUSH1 0x20 MUL PUSH1 0x20 ADD ADD DUP2 SWAP1 MSTORE POP DUP1 DUP1 PUSH2 0x5B5 SWAP1 PUSH2 0x1C7B JUMP JUMPDEST SWAP2 POP POP PUSH2 0x3C0 JUMP JUMPDEST POP DUP1 SWAP2 POP POP SWAP1 JUMP JUMPDEST PUSH1 0x60 PUSH1 0x0 PUSH1 0x1 PUSH1 0x4 SLOAD PUSH2 0x5D8 SWAP2 SWAP1 PUSH2 0x1B89 JUMP JUMPDEST PUSH8 0xFFFFFFFFFFFFFFFF DUP2 GT ISZERO PUSH2 0x5F1 JUMPI PUSH2 0x5F0 PUSH2 0x1BBD JUMP JUMPDEST JUMPDEST PUSH1 0x40 MLOAD SWAP1 DUP1 DUP3 MSTORE DUP1 PUSH1 0x20 MUL PUSH1 0x20 ADD DUP3 ADD PUSH1 0x40 MSTORE DUP1 ISZERO PUSH2 0x62A JUMPI DUP2 PUSH1 0x20 ADD JUMPDEST PUSH2 0x617 PUSH2 0x135D JUMP JUMPDEST DUP2 MSTORE PUSH1 0x20 ADD SWAP1 PUSH1 0x1 SWAP1 SUB SWAP1 DUP2 PUSH2 0x60F JUMPI SWAP1 POP JUMPDEST POP SWAP1 POP PUSH1 0x0 PUSH1 0x1 SWAP1 POP JUMPDEST PUSH1 0x4 SLOAD DUP2 LT ISZERO PUSH2 0x8C3 JUMPI PUSH1 0x2 PUSH1 0x0 DUP3 DUP2 MSTORE PUSH1 0x20 ADD SWAP1 DUP2 MSTORE PUSH1 0x20 ADD PUSH1 0x0 KECCAK256 PUSH1 0x40 MLOAD DUP1 PUSH1 0xE0 ADD PUSH1 0x40 MSTORE SWAP1 DUP2 PUSH1 0x0 DUP3 ADD DUP1 SLOAD PUSH2 0x66C SWAP1 PUSH2 0x1C1B JUMP JUMPDEST DUP1 PUSH1 0x1F ADD PUSH1 0x20 DUP1 SWAP2 DIV MUL PUSH1 0x20 ADD PUSH1 0x40 MLOAD SWAP1 DUP2 ADD PUSH1 0x40 MSTORE DUP1 SWAP3 SWAP2 SWAP1 DUP2 DUP2 MSTORE PUSH1 0x20 ADD DUP3 DUP1 SLOAD PUSH2 0x698 SWAP1 PUSH2 0x1C1B JUMP JUMPDEST DUP1 ISZERO PUSH2 0x6E5 JUMPI DUP1 PUSH1 0x1F LT PUSH2 0x6BA JUMPI PUSH2 0x100 DUP1 DUP4 SLOAD DIV MUL DUP4 MSTORE SWAP2 PUSH1 0x20 ADD SWAP2 PUSH2 0x6E5 JUMP JUMPDEST DUP3 ADD SWAP2 SWAP1 PUSH1 0x0 MSTORE PUSH1 0x20 PUSH1 0x0 KECCAK256 SWAP1 JUMPDEST DUP2 SLOAD DUP2 MSTORE SWAP1 PUSH1 0x1 ADD SWAP1 PUSH1 0x20 ADD DUP1 DUP4 GT PUSH2 0x6C8 JUMPI DUP3 SWAP1 SUB PUSH1 0x1F AND DUP3 ADD SWAP2 JUMPDEST POP POP POP POP POP DUP2 MSTORE PUSH1 0x20 ADD PUSH1 0x1 DUP3 ADD SLOAD DUP2 MSTORE PUSH1 0x20 ADD PUSH1 0x2 DUP3 ADD DUP1 SLOAD PUSH2 0x708 SWAP1 PUSH2 0x1C1B JUMP JUMPDEST DUP1 PUSH1 0x1F ADD PUSH1 0x20 DUP1 SWAP2 DIV MUL PUSH1 0x20 ADD PUSH1 0x40 MLOAD SWAP1 DUP2 ADD PUSH1 0x40 MSTORE DUP1 SWAP3 SWAP2 SWAP1 DUP2 DUP2 MSTORE PUSH1 0x20 ADD DUP3 DUP1 SLOAD PUSH2 0x734 SWAP1 PUSH2 0x1C1B JUMP JUMPDEST DUP1 ISZERO PUSH2 0x781 JUMPI DUP1 PUSH1 0x1F LT PUSH2 0x756 JUMPI PUSH2 0x100 DUP1 DUP4 SLOAD DIV MUL DUP4 MSTORE SWAP2 PUSH1 0x20 ADD SWAP2 PUSH2 0x781 JUMP JUMPDEST DUP3 ADD SWAP2 SWAP1 PUSH1 0x0 MSTORE PUSH1 0x20 PUSH1 0x0 KECCAK256 SWAP1 JUMPDEST DUP2 SLOAD DUP2 MSTORE SWAP1 PUSH1 0x1 ADD SWAP1 PUSH1 0x20 ADD DUP1 DUP4 GT PUSH2 0x764 JUMPI DUP3 SWAP1 SUB PUSH1 0x1F AND DUP3 ADD SWAP2 JUMPDEST POP POP POP POP POP DUP2 MSTORE PUSH1 0x20 ADD PUSH1 0x3 DUP3 ADD SLOAD DUP2 MSTORE PUSH1 0x20 ADD PUSH1 0x4 DUP3 ADD DUP1 SLOAD PUSH2 0x7A4 SWAP1 PUSH2 0x1C1B JUMP JUMPDEST DUP1 PUSH1 0x1F ADD PUSH1 0x20 DUP1 SWAP2 DIV MUL PUSH1 0x20 ADD PUSH1 0x40 MLOAD SWAP1 DUP2 ADD PUSH1 0x40 MSTORE DUP1 SWAP3 SWAP2 SWAP1 DUP2 DUP2 MSTORE PUSH1 0x20 ADD DUP3 DUP1 SLOAD PUSH2 0x7D0 SWAP1 PUSH2 0x1C1B JUMP JUMPDEST DUP1 ISZERO PUSH2 0x81D JUMPI DUP1 PUSH1 0x1F LT PUSH2 0x7F2 JUMPI PUSH2 0x100 DUP1 DUP4 SLOAD DIV MUL DUP4 MSTORE SWAP2 PUSH1 0x20 ADD SWAP2 PUSH2 0x81D JUMP JUMPDEST DUP3 ADD SWAP2 SWAP1 PUSH1 0x0 MSTORE PUSH1 0x20 PUSH1 0x0 KECCAK256 SWAP1 JUMPDEST DUP2 SLOAD DUP2 MSTORE SWAP1 PUSH1 0x1 ADD SWAP1 PUSH1 0x20 ADD DUP1 DUP4 GT PUSH2 0x800 JUMPI DUP3 SWAP1 SUB PUSH1 0x1F AND DUP3 ADD SWAP2 JUMPDEST POP POP POP POP POP DUP2 MSTORE PUSH1 0x20 ADD PUSH1 0x5 DUP3 ADD PUSH1 0x0 SWAP1 SLOAD SWAP1 PUSH2 0x100 EXP SWAP1 DIV PUSH20 0xFFFFFFFFFFFFFFFFFFFFFFFFFFFFFFFFFFFFFFFF AND PUSH20 0xFFFFFFFFFFFFFFFFFFFFFFFFFFFFFFFFFFFFFFFF AND PUSH20 0xFFFFFFFFFFFFFFFFFFFFFFFFFFFFFFFFFFFFFFFF AND DUP2 MSTORE PUSH1 0x20 ADD PUSH1 0x6 DUP3 ADD SLOAD DUP2 MSTORE POP POP DUP3 PUSH1 0x1 DUP4 PUSH2 0x894 SWAP2 SWAP1 PUSH2 0x1B89 JUMP JUMPDEST DUP2 MLOAD DUP2 LT PUSH2 0x8A5 JUMPI PUSH2 0x8A4 PUSH2 0x1C4C JUMP JUMPDEST JUMPDEST PUSH1 0x20 MUL PUSH1 0x20 ADD ADD DUP2 SWAP1 MSTORE POP DUP1 DUP1 PUSH2 0x8BB SWAP1 PUSH2 0x1C7B JUMP JUMPDEST SWAP2 POP POP PUSH2 0x634 JUMP JUMPDEST POP DUP1 SWAP2 POP POP SWAP1 JUMP JUMPDEST PUSH1 0x0 DUP1 SLOAD SWAP1 PUSH2 0x100 EXP SWAP1 DIV PUSH20 0xFFFFFFFFFFFFFFFFFFFFFFFFFFFFFFFFFFFFFFFF AND PUSH20 0xFFFFFFFFFFFFFFFFFFFFFFFFFFFFFFFFFFFFFFFF AND CALLER PUSH20 0xFFFFFFFFFFFFFFFFFFFFFFFFFFFFFFFFFFFFFFFF AND SUB PUSH2 0x959 JUMPI PUSH1 0x40 MLOAD PUSH32 0x8C379A000000000000000000000000000000000000000000000000000000000 DUP2 MSTORE PUSH1 0x4 ADD PUSH2 0x950 SWAP1 PUSH2 0x1D0F JUMP JUMPDEST PUSH1 0x40 MLOAD DUP1 SWAP2 SUB SWAP1 REVERT JUMPDEST PUSH2 0x962 CALLER PUSH2 0x11CB JUMP JUMPDEST PUSH2 0x9A1 JUMPI PUSH1 0x40 MLOAD PUSH32 0x8C379A000000000000000000000000000000000000000000000000000000000 DUP2 MSTORE PUSH1 0x4 ADD PUSH2 0x998 SWAP1 PUSH2 0x1D7B JUMP JUMPDEST PUSH1 0x40 MLOAD DUP1 SWAP2 SUB SWAP1 REVERT JUMPDEST PUSH1 0x12 DUP6 LT ISZERO PUSH2 0x9E5 JUMPI PUSH1 0x40 MLOAD PUSH32 0x8C379A000000000000000000000000000000000000000000000000000000000 DUP2 MSTORE PUSH1 0x4 ADD PUSH2 0x9DC SWAP1 PUSH2 0x1DE7 JUMP JUMPDEST PUSH1 0x40 MLOAD DUP1 SWAP2 SUB SWAP1 REVERT JUMPDEST PUSH1 0x40 MLOAD DUP1 PUSH1 0xE0 ADD PUSH1 0x40 MSTORE DUP1 DUP9 DUP9 DUP1 DUP1 PUSH1 0x1F ADD PUSH1 0x20 DUP1 SWAP2 DIV MUL PUSH1 0x20 ADD PUSH1 0x40 MLOAD SWAP1 DUP2 ADD PUSH1 0x40 MSTORE DUP1 SWAP4 SWAP3 SWAP2 SWAP1 DUP2 DUP2 MSTORE PUSH1 0x20 ADD DUP4 DUP4 DUP1 DUP3 DUP5 CALLDATACOPY PUSH1 0x0 DUP2 DUP5 ADD MSTORE PUSH1 0x1F NOT PUSH1 0x1F DUP3 ADD AND SWAP1 POP DUP1 DUP4 ADD SWAP3 POP POP POP POP POP POP POP DUP2 MSTORE PUSH1 0x20 ADD DUP7 DUP2 MSTORE PUSH1 0x20 ADD DUP6 DUP6 DUP1 DUP1 PUSH1 0x1F ADD PUSH1 0x20 DUP1 SWAP2 DIV MUL PUSH1 0x20 ADD PUSH1 0x40 MLOAD SWAP1 DUP2 ADD PUSH1 0x40 MSTORE DUP1 SWAP4 SWAP3 SWAP2 SWAP1 DUP2 DUP2 MSTORE PUSH1 0x20 ADD DUP4 DUP4 DUP1 DUP3 DUP5 CALLDATACOPY PUSH1 0x0 DUP2 DUP5 ADD MSTORE PUSH1 0x1F NOT PUSH1 0x1F DUP3 ADD AND SWAP1 POP DUP1 DUP4 ADD SWAP3 POP POP POP POP POP POP POP DUP2 MSTORE PUSH1 0x20 ADD PUSH1 0x4 SLOAD DUP2 MSTORE PUSH1 0x20 ADD DUP4 DUP4 DUP1 DUP1 PUSH1 0x1F ADD PUSH1 0x20 DUP1 SWAP2 DIV MUL PUSH1 0x20 ADD PUSH1 0x40 MLOAD SWAP1 DUP2 ADD PUSH1 0x40 MSTORE DUP1 SWAP4 SWAP3 SWAP2 SWAP1 DUP2 DUP2 MSTORE PUSH1 0x20 ADD DUP4 DUP4 DUP1 DUP3 DUP5 CALLDATACOPY PUSH1 0x0 DUP2 DUP5 ADD MSTORE PUSH1 0x1F NOT PUSH1 0x1F DUP3 ADD AND SWAP1 POP DUP1 DUP4 ADD SWAP3 POP POP POP POP POP POP POP DUP2 MSTORE PUSH1 0x20 ADD CALLER PUSH20 0xFFFFFFFFFFFFFFFFFFFFFFFFFFFFFFFFFFFFFFFF AND DUP2 MSTORE PUSH1 0x20 ADD PUSH1 0x0 DUP2 MSTORE POP PUSH1 0x2 PUSH1 0x0 PUSH1 0x4 SLOAD DUP2 MSTORE PUSH1 0x20 ADD SWAP1 DUP2 MSTORE PUSH1 0x20 ADD PUSH1 0x0 KECCAK256 PUSH1 0x0 DUP3 ADD MLOAD DUP2 PUSH1 0x0 ADD SWAP1 DUP2 PUSH2 0xB27 SWAP2 SWAP1 PUSH2 0x1FB3 JUMP JUMPDEST POP PUSH1 0x20 DUP3 ADD MLOAD DUP2 PUSH1 0x1 ADD SSTORE PUSH1 0x40 DUP3 ADD MLOAD DUP2 PUSH1 0x2 ADD SWAP1 DUP2 PUSH2 0xB47 SWAP2 SWAP1 PUSH2 0x1FB3 JUMP JUMPDEST POP PUSH1 0x60 DUP3 ADD MLOAD DUP2 PUSH1 0x3 ADD SSTORE PUSH1 0x80 DUP3 ADD MLOAD DUP2 PUSH1 0x4 ADD SWAP1 DUP2 PUSH2 0xB67 SWAP2 SWAP1 PUSH2 0x1FB3 JUMP JUMPDEST POP PUSH1 0xA0 DUP3 ADD MLOAD DUP2 PUSH1 0x5 ADD PUSH1 0x0 PUSH2 0x100 EXP DUP2 SLOAD DUP2 PUSH20 0xFFFFFFFFFFFFFFFFFFFFFFFFFFFFFFFFFFFFFFFF MUL NOT AND SWAP1 DUP4 PUSH20 0xFFFFFFFFFFFFFFFFFFFFFFFFFFFFFFFFFFFFFFFF AND MUL OR SWAP1 SSTORE POP PUSH1 0xC0 DUP3 ADD MLOAD DUP2 PUSH1 0x6 ADD SSTORE SWAP1 POP POP PUSH1 0x4 PUSH1 0x0 DUP2 SLOAD DUP1 SWAP3 SWAP2 SWAP1 PUSH2 0xBCF SWAP1 PUSH2 0x1C7B JUMP JUMPDEST SWAP2 SWAP1 POP SSTORE POP POP POP POP POP POP POP POP JUMP JUMPDEST PUSH1 0x12 DUP4 LT ISZERO PUSH2 0xC21 JUMPI PUSH1 0x40 MLOAD PUSH32 0x8C379A000000000000000000000000000000000000000000000000000000000 DUP2 MSTORE PUSH1 0x4 ADD PUSH2 0xC18 SWAP1 PUSH2 0x20D1 JUMP JUMPDEST PUSH1 0x40 MLOAD DUP1 SWAP2 SUB SWAP1 REVERT JUMPDEST PUSH2 0xC2A CALLER PUSH2 0x126E JUMP JUMPDEST PUSH2 0xC69 JUMPI PUSH1 0x40 MLOAD PUSH32 0x8C379A000000000000000000000000000000000000000000000000000000000 DUP2 MSTORE PUSH1 0x4 ADD PUSH2 0xC60 SWAP1 PUSH2 0x213D JUMP JUMPDEST PUSH1 0x40 MLOAD DUP1 SWAP2 SUB SWAP1 REVERT JUMPDEST PUSH1 0x40 MLOAD DUP1 PUSH1 0xC0 ADD PUSH1 0x40 MSTORE DUP1 DUP7 DUP7 DUP1 DUP1 PUSH1 0x1F ADD PUSH1 0x20 DUP1 SWAP2 DIV MUL PUSH1 0x20 ADD PUSH1 0x40 MLOAD SWAP1 DUP2 ADD PUSH1 0x40 MSTORE DUP1 SWAP4 SWAP3 SWAP2 SWAP1 DUP2 DUP2 MSTORE PUSH1 0x20 ADD DUP4 DUP4 DUP1 DUP3 DUP5 CALLDATACOPY PUSH1 0x0 DUP2 DUP5 ADD MSTORE PUSH1 0x1F NOT PUSH1 0x1F DUP3 ADD AND SWAP1 POP DUP1 DUP4 ADD SWAP3 POP POP POP POP POP POP POP DUP2 MSTORE PUSH1 0x20 ADD DUP5 DUP2 MSTORE PUSH1 0x20 ADD PUSH1 0x5 SLOAD DUP2 MSTORE PUSH1 0x20 ADD DUP4 DUP4 DUP1 DUP1 PUSH1 0x1F ADD PUSH1 0x20 DUP1 SWAP2 DIV MUL PUSH1 0x20 ADD PUSH1 0x40 MLOAD SWAP1 DUP2 ADD PUSH1 0x40 MSTORE DUP1 SWAP4 SWAP3 SWAP2 SWAP1 DUP2 DUP2 MSTORE PUSH1 0x20 ADD DUP4 DUP4 DUP1 DUP3 DUP5 CALLDATACOPY PUSH1 0x0 DUP2 DUP5 ADD MSTORE PUSH1 0x1F NOT PUSH1 0x1F DUP3 ADD AND SWAP1 POP DUP1 DUP4 ADD SWAP3 POP POP POP POP POP POP POP DUP2 MSTORE PUSH1 0x20 ADD PUSH1 0x0 DUP2 MSTORE PUSH1 0x20 ADD CALLER PUSH20 0xFFFFFFFFFFFFFFFFFFFFFFFFFFFFFFFFFFFFFFFF AND DUP2 MSTORE POP PUSH1 0x3 PUSH1 0x0 PUSH1 0x5 SLOAD DUP2 MSTORE PUSH1 0x20 ADD SWAP1 DUP2 MSTORE PUSH1 0x20 ADD PUSH1 0x0 KECCAK256 PUSH1 0x0 DUP3 ADD MLOAD DUP2 PUSH1 0x0 ADD SWAP1 DUP2 PUSH2 0xD61 SWAP2 SWAP1 PUSH2 0x1FB3 JUMP JUMPDEST POP PUSH1 0x20 DUP3 ADD MLOAD DUP2 PUSH1 0x1 ADD SSTORE PUSH1 0x40 DUP3 ADD MLOAD DUP2 PUSH1 0x2 ADD SSTORE PUSH1 0x60 DUP3 ADD MLOAD DUP2 PUSH1 0x3 ADD SWAP1 DUP2 PUSH2 0xD8B SWAP2 SWAP1 PUSH2 0x1FB3 JUMP JUMPDEST POP PUSH1 0x80 DUP3 ADD MLOAD DUP2 PUSH1 0x4 ADD SSTORE PUSH1 0xA0 DUP3 ADD MLOAD DUP2 PUSH1 0x5 ADD PUSH1 0x0 PUSH2 0x100 EXP DUP2 SLOAD DUP2 PUSH20 0xFFFFFFFFFFFFFFFFFFFFFFFFFFFFFFFFFFFFFFFF MUL NOT AND SWAP1 DUP4 PUSH20 0xFFFFFFFFFFFFFFFFFFFFFFFFFFFFFFFFFFFFFFFF AND MUL OR SWAP1 SSTORE POP SWAP1 POP POP PUSH1 0x5 PUSH1 0x0 DUP2 SLOAD DUP1 SWAP3 SWAP2 SWAP1 PUSH2 0xDF3 SWAP1 PUSH2 0x1C7B JUMP JUMPDEST SWAP2 SWAP1 POP SSTORE POP POP POP POP POP POP JUMP JUMPDEST PUSH1 0x0 DUP1 PUSH1 0x0 SWAP1 SLOAD SWAP1 PUSH2 0x100 EXP SWAP1 DIV PUSH20 0xFFFFFFFFFFFFFFFFFFFFFFFFFFFFFFFFFFFFFFFF AND PUSH20 0xFFFFFFFFFFFFFFFFFFFFFFFFFFFFFFFFFFFFFFFF AND CALLER PUSH20 0xFFFFFFFFFFFFFFFFFFFFFFFFFFFFFFFFFFFFFFFF AND EQ PUSH2 0xE90 JUMPI PUSH1 0x40 MLOAD PUSH32 0x8C379A000000000000000000000000000000000000000000000000000000000 DUP2 MSTORE PUSH1 0x4 ADD PUSH2 0xE87 SWAP1 PUSH2 0x1B06 JUMP JUMPDEST PUSH1 0x40 MLOAD DUP1 SWAP2 SUB SWAP1 REVERT JUMPDEST PUSH1 0x0 DUP1 PUSH1 0x1 SWAP1 POP JUMPDEST PUSH1 0x4 SLOAD DUP2 LT ISZERO PUSH2 0xF64 JUMPI DUP2 PUSH1 0x2 PUSH1 0x0 DUP4 DUP2 MSTORE PUSH1 0x20 ADD SWAP1 DUP2 MSTORE PUSH1 0x20 ADD PUSH1 0x0 KECCAK256 PUSH1 0x6 ADD SLOAD GT ISZERO PUSH2 0xF51 JUMPI PUSH1 0x2 PUSH1 0x0 DUP3 DUP2 MSTORE PUSH1 0x20 ADD SWAP1 DUP2 MSTORE PUSH1 0x20 ADD PUSH1 0x0 KECCAK256 PUSH1 0x6 ADD SLOAD SWAP2 POP PUSH1 0x2 PUSH1 0x0 DUP3 DUP2 MSTORE PUSH1 0x20 ADD SWAP1 DUP2 MSTORE PUSH1 0x20 ADD PUSH1 0x0 KECCAK256 PUSH1 0x5 ADD PUSH1 0x0 SWAP1 SLOAD SWAP1 PUSH2 0x100 EXP SWAP1 DIV PUSH20 0xFFFFFFFFFFFFFFFFFFFFFFFFFFFFFFFFFFFFFFFF AND PUSH1 0x1 PUSH1 0x0 PUSH2 0x100 EXP DUP2 SLOAD DUP2 PUSH20 0xFFFFFFFFFFFFFFFFFFFFFFFFFFFFFFFFFFFFFFFF MUL NOT AND SWAP1 DUP4 PUSH20 0xFFFFFFFFFFFFFFFFFFFFFFFFFFFFFFFFFFFFFFFF AND MUL OR SWAP1 SSTORE POP JUMPDEST DUP1 DUP1 PUSH2 0xF5C SWAP1 PUSH2 0x1C7B JUMP JUMPDEST SWAP2 POP POP PUSH2 0xE98 JUMP JUMPDEST POP PUSH1 0x1 PUSH1 0x0 SWAP1 SLOAD SWAP1 PUSH2 0x100 EXP SWAP1 DIV PUSH20 0xFFFFFFFFFFFFFFFFFFFFFFFFFFFFFFFFFFFFFFFF AND SWAP2 POP POP SWAP1 JUMP JUMPDEST PUSH1 0x0 PUSH1 0x3 PUSH1 0x0 DUP5 DUP2 MSTORE PUSH1 0x20 ADD SWAP1 DUP2 MSTORE PUSH1 0x20 ADD PUSH1 0x0 KECCAK256 PUSH1 0x4 ADD SLOAD EQ PUSH2 0xFE7 JUMPI PUSH1 0x40 MLOAD PUSH32 0x8C379A000000000000000000000000000000000000000000000000000000000 DUP2 MSTORE PUSH1 0x4 ADD PUSH2 0xFDE SWAP1 PUSH2 0x21A9 JUMP JUMPDEST PUSH1 0x40 MLOAD DUP1 SWAP2 SUB SWAP1 REVERT JUMPDEST CALLER PUSH20 0xFFFFFFFFFFFFFFFFFFFFFFFFFFFFFFFFFFFFFFFF AND PUSH1 0x3 PUSH1 0x0 DUP5 DUP2 MSTORE PUSH1 0x20 ADD SWAP1 DUP2 MSTORE PUSH1 0x20 ADD PUSH1 0x0 KECCAK256 PUSH1 0x5 ADD PUSH1 0x0 SWAP1 SLOAD SWAP1 PUSH2 0x100 EXP SWAP1 DIV PUSH20 0xFFFFFFFFFFFFFFFFFFFFFFFFFFFFFFFFFFFFFFFF AND PUSH20 0xFFFFFFFFFFFFFFFFFFFFFFFFFFFFFFFFFFFFFFFF AND EQ PUSH2 0x108B JUMPI PUSH1 0x40 MLOAD PUSH32 0x8C379A000000000000000000000000000000000000000000000000000000000 DUP2 MSTORE PUSH1 0x4 ADD PUSH2 0x1082 SWAP1 PUSH2 0x2215 JUMP JUMPDEST PUSH1 0x40 MLOAD DUP1 SWAP2 SUB SWAP1 REVERT JUMPDEST PUSH1 0x3 PUSH1 0x4 SLOAD LT ISZERO PUSH2 0x10D1 JUMPI PUSH1 0x40 MLOAD PUSH32 0x8C379A000000000000000000000000000000000000000000000000000000000 DUP2 MSTORE PUSH1 0x4 ADD PUSH2 0x10C8 SWAP1 PUSH2 0x22A7 JUMP JUMPDEST PUSH1 0x40 MLOAD DUP1 SWAP2 SUB SWAP1 REVERT JUMPDEST PUSH1 0x0 PUSH1 0x7 SLOAD SUB PUSH2 0x1116 JUMPI PUSH1 0x40 MLOAD PUSH32 0x8C379A000000000000000000000000000000000000000000000000000000000 DUP2 MSTORE PUSH1 0x4 ADD PUSH2 0x110D SWAP1 PUSH2 0x2313 JUMP JUMPDEST PUSH1 0x40 MLOAD DUP1 SWAP2 SUB SWAP1 REVERT JUMPDEST PUSH1 0x4 SLOAD DUP2 LT PUSH2 0x115A JUMPI PUSH1 0x40 MLOAD PUSH32 0x8C379A000000000000000000000000000000000000000000000000000000000 DUP2 MSTORE PUSH1 0x4 ADD PUSH2 0x1151 SWAP1 PUSH2 0x237F JUMP JUMPDEST PUSH1 0x40 MLOAD DUP1 SWAP2 SUB SWAP1 REVERT JUMPDEST DUP1 PUSH1 0x3 PUSH1 0x0 DUP5 DUP2 MSTORE PUSH1 0x20 ADD SWAP1 DUP2 MSTORE PUSH1 0x20 ADD PUSH1 0x0 KECCAK256 PUSH1 0x4 ADD DUP2 SWAP1 SSTORE POP PUSH1 0x2 PUSH1 0x0 DUP3 DUP2 MSTORE PUSH1 0x20 ADD SWAP1 DUP2 MSTORE PUSH1 0x20 ADD PUSH1 0x0 KECCAK256 PUSH1 0x6 ADD PUSH1 0x0 DUP2 SLOAD DUP1 SWAP3 SWAP2 SWAP1 PUSH2 0x119C SWAP1 PUSH2 0x1C7B JUMP JUMPDEST SWAP2 SWAP1 POP SSTORE POP POP POP JUMP JUMPDEST PUSH1 0x1 PUSH1 0x0 SWAP1 SLOAD SWAP1 PUSH2 0x100 EXP SWAP1 DIV PUSH20 0xFFFFFFFFFFFFFFFFFFFFFFFFFFFFFFFFFFFFFFFF AND DUP2 JUMP JUMPDEST PUSH1 0x0 DUP1 PUSH1 0x1 SWAP1 POP JUMPDEST PUSH1 0x4 SLOAD DUP2 LT ISZERO PUSH2 0x1263 JUMPI DUP3 PUSH20 0xFFFFFFFFFFFFFFFFFFFFFFFFFFFFFFFFFFFFFFFF AND PUSH1 0x2 PUSH1 0x0 DUP4 DUP2 MSTORE PUSH1 0x20 ADD SWAP1 DUP2 MSTORE PUSH1 0x20 ADD PUSH1 0x0 KECCAK256 PUSH1 0x5 ADD PUSH1 0x0 SWAP1 SLOAD SWAP1 PUSH2 0x100 EXP SWAP1 DIV PUSH20 0xFFFFFFFFFFFFFFFFFFFFFFFFFFFFFFFFFFFFFFFF AND PUSH20 0xFFFFFFFFFFFFFFFFFFFFFFFFFFFFFFFFFFFFFFFF AND SUB PUSH2 0x1250 JUMPI PUSH1 0x0 SWAP2 POP POP PUSH2 0x1269 JUMP JUMPDEST DUP1 DUP1 PUSH2 0x125B SWAP1 PUSH2 0x1C7B JUMP JUMPDEST SWAP2 POP POP PUSH2 0x11D3 JUMP JUMPDEST POP PUSH1 0x1 SWAP1 POP JUMPDEST SWAP2 SWAP1 POP JUMP JUMPDEST PUSH1 0x0 DUP1 PUSH1 0x1 SWAP1 POP JUMPDEST PUSH1 0x5 SLOAD DUP2 LT ISZERO PUSH2 0x1306 JUMPI DUP3 PUSH20 0xFFFFFFFFFFFFFFFFFFFFFFFFFFFFFFFFFFFFFFFF AND PUSH1 0x3 PUSH1 0x0 DUP4 DUP2 MSTORE PUSH1 0x20 ADD SWAP1 DUP2 MSTORE PUSH1 0x20 ADD PUSH1 0x0 KECCAK256 PUSH1 0x5 ADD PUSH1 0x0 SWAP1 SLOAD SWAP1 PUSH2 0x100 EXP SWAP1 DIV PUSH20 0xFFFFFFFFFFFFFFFFFFFFFFFFFFFFFFFFFFFFFFFF AND PUSH20 0xFFFFFFFFFFFFFFFFFFFFFFFFFFFFFFFFFFFFFFFF AND SUB PUSH2 0x12F3 JUMPI PUSH1 0x0 SWAP2 POP POP PUSH2 0x130C JUMP JUMPDEST DUP1 DUP1 PUSH2 0x12FE SWAP1 PUSH2 0x1C7B JUMP JUMPDEST SWAP2 POP POP PUSH2 0x1276 JUMP JUMPDEST POP PUSH1 0x1 SWAP1 POP JUMPDEST SWAP2 SWAP1 POP JUMP JUMPDEST PUSH1 0x40 MLOAD DUP1 PUSH1 0xC0 ADD PUSH1 0x40 MSTORE DUP1 PUSH1 0x60 DUP2 MSTORE PUSH1 0x20 ADD PUSH1 0x0 DUP2 MSTORE PUSH1 0x20 ADD PUSH1 0x0 DUP2 MSTORE PUSH1 0x20 ADD PUSH1 0x60 DUP2 MSTORE PUSH1 0x20 ADD PUSH1 0x0 DUP2 MSTORE PUSH1 0x20 ADD PUSH1 0x0 PUSH20 0xFFFFFFFFFFFFFFFFFFFFFFFFFFFFFFFFFFFFFFFF AND DUP2 MSTORE POP SWAP1 JUMP JUMPDEST PUSH1 0x40 MLOAD DUP1 PUSH1 0xE0 ADD PUSH1 0x40 MSTORE DUP1 PUSH1 0x60 DUP2 MSTORE PUSH1 0x20 ADD PUSH1 0x0 DUP2 MSTORE PUSH1 0x20 ADD PUSH1 0x60 DUP2 MSTORE PUSH1 0x20 ADD PUSH1 0x0 DUP2 MSTORE PUSH1 0x20 ADD PUSH1 0x60 DUP2 MSTORE PUSH1 0x20 ADD PUSH1 0x0 PUSH20 0xFFFFFFFFFFFFFFFFFFFFFFFFFFFFFFFFFFFFFFFF AND DUP2 MSTORE PUSH1 0x20 ADD PUSH1 0x0 DUP2 MSTORE POP SWAP1 JUMP JUMPDEST PUSH1 0x0 DUP1 REVERT JUMPDEST PUSH1 0x0 DUP1 REVERT JUMPDEST PUSH1 0x0 DUP2 SWAP1 POP SWAP2 SWAP1 POP JUMP JUMPDEST PUSH2 0x13CD DUP2 PUSH2 0x13BA JUMP JUMPDEST DUP2 EQ PUSH2 0x13D8 JUMPI PUSH1 0x0 DUP1 REVERT JUMPDEST POP JUMP JUMPDEST PUSH1 0x0 DUP2 CALLDATALOAD SWAP1 POP PUSH2 0x13EA DUP2 PUSH2 0x13C4 JUMP JUMPDEST SWAP3 SWAP2 POP POP JUMP JUMPDEST PUSH1 0x0 DUP1 PUSH1 0x40 DUP4 DUP6 SUB SLT ISZERO PUSH2 0x1407 JUMPI PUSH2 0x1406 PUSH2 0x13B0 JUMP JUMPDEST JUMPDEST PUSH1 0x0 PUSH2 0x1415 DUP6 DUP3 DUP7 ADD PUSH2 0x13DB JUMP JUMPDEST SWAP3 POP POP PUSH1 0x20 PUSH2 0x1426 DUP6 DUP3 DUP7 ADD PUSH2 0x13DB JUMP JUMPDEST SWAP2 POP POP SWAP3 POP SWAP3 SWAP1 POP JUMP JUMPDEST PUSH1 0x0 DUP2 MLOAD SWAP1 POP SWAP2 SWAP1 POP JUMP JUMPDEST PUSH1 0x0 DUP3 DUP3 MSTORE PUSH1 0x20 DUP3 ADD SWAP1 POP SWAP3 SWAP2 POP POP JUMP JUMPDEST PUSH1 0x0 JUMPDEST DUP4 DUP2 LT ISZERO PUSH2 0x146A JUMPI DUP1 DUP3 ADD MLOAD DUP2 DUP5 ADD MSTORE PUSH1 0x20 DUP2 ADD SWAP1 POP PUSH2 0x144F JUMP JUMPDEST PUSH1 0x0 DUP5 DUP5 ADD MSTORE POP POP POP POP JUMP JUMPDEST PUSH1 0x0 PUSH1 0x1F NOT PUSH1 0x1F DUP4 ADD AND SWAP1 POP SWAP2 SWAP1 POP JUMP JUMPDEST PUSH1 0x0 PUSH2 0x1492 DUP3 PUSH2 0x1430 JUMP JUMPDEST PUSH2 0x149C DUP2 DUP6 PUSH2 0x143B JUMP JUMPDEST SWAP4 POP PUSH2 0x14AC DUP2 DUP6 PUSH1 0x20 DUP7 ADD PUSH2 0x144C JUMP JUMPDEST PUSH2 0x14B5 DUP2 PUSH2 0x1476 JUMP JUMPDEST DUP5 ADD SWAP2 POP POP SWAP3 SWAP2 POP POP JUMP JUMPDEST PUSH1 0x0 DUP2 ISZERO ISZERO SWAP1 POP SWAP2 SWAP1 POP JUMP JUMPDEST PUSH2 0x14D5 DUP2 PUSH2 0x14C0 JUMP JUMPDEST DUP3 MSTORE POP POP JUMP JUMPDEST PUSH1 0x0 PUSH1 0x40 DUP3 ADD SWAP1 POP DUP2 DUP2 SUB PUSH1 0x0 DUP4 ADD MSTORE PUSH2 0x14F5 DUP2 DUP6 PUSH2 0x1487 JUMP JUMPDEST SWAP1 POP PUSH2 0x1504 PUSH1 0x20 DUP4 ADD DUP5 PUSH2 0x14CC JUMP JUMPDEST SWAP4 SWAP3 POP POP POP JUMP JUMPDEST PUSH1 0x0 DUP2 MLOAD SWAP1 POP SWAP2 SWAP1 POP JUMP JUMPDEST PUSH1 0x0 DUP3 DUP3 MSTORE PUSH1 0x20 DUP3 ADD SWAP1 POP SWAP3 SWAP2 POP POP JUMP JUMPDEST PUSH1 0x0 DUP2 SWAP1 POP PUSH1 0x20 DUP3 ADD SWAP1 POP SWAP2 SWAP1 POP JUMP JUMPDEST PUSH1 0x0 DUP3 DUP3 MSTORE PUSH1 0x20 DUP3 ADD SWAP1 POP SWAP3 SWAP2 POP POP JUMP JUMPDEST PUSH1 0x0 PUSH2 0x1553 DUP3 PUSH2 0x1430 JUMP JUMPDEST PUSH2 0x155D DUP2 DUP6 PUSH2 0x1537 JUMP JUMPDEST SWAP4 POP PUSH2 0x156D DUP2 DUP6 PUSH1 0x20 DUP7 ADD PUSH2 0x144C JUMP JUMPDEST PUSH2 0x1576 DUP2 PUSH2 0x1476 JUMP JUMPDEST DUP5 ADD SWAP2 POP POP SWAP3 SWAP2 POP POP JUMP JUMPDEST PUSH2 0x158A DUP2 PUSH2 0x13BA JUMP JUMPDEST DUP3 MSTORE POP POP JUMP JUMPDEST PUSH1 0x0 PUSH20 0xFFFFFFFFFFFFFFFFFFFFFFFFFFFFFFFFFFFFFFFF DUP3 AND SWAP1 POP SWAP2 SWAP1 POP JUMP JUMPDEST PUSH1 0x0 PUSH2 0x15BB DUP3 PUSH2 0x1590 JUMP JUMPDEST SWAP1 POP SWAP2 SWAP1 POP JUMP JUMPDEST PUSH2 0x15CB DUP2 PUSH2 0x15B0 JUMP JUMPDEST DUP3 MSTORE POP POP JUMP JUMPDEST PUSH1 0x0 PUSH1 0xC0 DUP4 ADD PUSH1 0x0 DUP4 ADD MLOAD DUP5 DUP3 SUB PUSH1 0x0 DUP7 ADD MSTORE PUSH2 0x15EE DUP3 DUP3 PUSH2 0x1548 JUMP JUMPDEST SWAP2 POP POP PUSH1 0x20 DUP4 ADD MLOAD PUSH2 0x1603 PUSH1 0x20 DUP7 ADD DUP3 PUSH2 0x1581 JUMP JUMPDEST POP PUSH1 0x40 DUP4 ADD MLOAD PUSH2 0x1616 PUSH1 0x40 DUP7 ADD DUP3 PUSH2 0x1581 JUMP JUMPDEST POP PUSH1 0x60 DUP4 ADD MLOAD DUP5 DUP3 SUB PUSH1 0x60 DUP7 ADD MSTORE PUSH2 0x162E DUP3 DUP3 PUSH2 0x1548 JUMP JUMPDEST SWAP2 POP POP PUSH1 0x80 DUP4 ADD MLOAD PUSH2 0x1643 PUSH1 0x80 DUP7 ADD DUP3 PUSH2 0x1581 JUMP JUMPDEST POP PUSH1 0xA0 DUP4 ADD MLOAD PUSH2 0x1656 PUSH1 0xA0 DUP7 ADD DUP3 PUSH2 0x15C2 JUMP JUMPDEST POP DUP1 SWAP2 POP POP SWAP3 SWAP2 POP POP JUMP JUMPDEST PUSH1 0x0 PUSH2 0x166D DUP4 DUP4 PUSH2 0x15D1 JUMP JUMPDEST SWAP1 POP SWAP3 SWAP2 POP POP JUMP JUMPDEST PUSH1 0x0 PUSH1 0x20 DUP3 ADD SWAP1 POP SWAP2 SWAP1 POP JUMP JUMPDEST PUSH1 0x0 PUSH2 0x168D DUP3 PUSH2 0x150B JUMP JUMPDEST PUSH2 0x1697 DUP2 DUP6 PUSH2 0x1516 JUMP JUMPDEST SWAP4 POP DUP4 PUSH1 0x20 DUP3 MUL DUP6 ADD PUSH2 0x16A9 DUP6 PUSH2 0x1527 JUMP JUMPDEST DUP1 PUSH1 0x0 JUMPDEST DUP6 DUP2 LT ISZERO PUSH2 0x16E5 JUMPI DUP5 DUP5 SUB DUP10 MSTORE DUP2 MLOAD PUSH2 0x16C6 DUP6 DUP3 PUSH2 0x1661 JUMP JUMPDEST SWAP5 POP PUSH2 0x16D1 DUP4 PUSH2 0x1675 JUMP JUMPDEST SWAP3 POP PUSH1 0x20 DUP11 ADD SWAP10 POP POP PUSH1 0x1 DUP2 ADD SWAP1 POP PUSH2 0x16AD JUMP JUMPDEST POP DUP3 SWAP8 POP DUP8 SWAP6 POP POP POP POP POP POP SWAP3 SWAP2 POP POP JUMP JUMPDEST PUSH1 0x0 PUSH1 0x20 DUP3 ADD SWAP1 POP DUP2 DUP2 SUB PUSH1 0x0 DUP4 ADD MSTORE PUSH2 0x1711 DUP2 DUP5 PUSH2 0x1682 JUMP JUMPDEST SWAP1 POP SWAP3 SWAP2 POP POP JUMP JUMPDEST PUSH1 0x0 DUP2 MLOAD SWAP1 POP SWAP2 SWAP1 POP JUMP JUMPDEST PUSH1 0x0 DUP3 DUP3 MSTORE PUSH1 0x20 DUP3 ADD SWAP1 POP SWAP3 SWAP2 POP POP JUMP JUMPDEST PUSH1 0x0 DUP2 SWAP1 POP PUSH1 0x20 DUP3 ADD SWAP1 POP SWAP2 SWAP1 POP JUMP JUMPDEST PUSH1 0x0 PUSH1 0xE0 DUP4 ADD PUSH1 0x0 DUP4 ADD MLOAD DUP5 DUP3 SUB PUSH1 0x0 DUP7 ADD MSTORE PUSH2 0x1762 DUP3 DUP3 PUSH2 0x1548 JUMP JUMPDEST SWAP2 POP POP PUSH1 0x20 DUP4 ADD MLOAD PUSH2 0x1777 PUSH1 0x20 DUP7 ADD DUP3 PUSH2 0x1581 JUMP JUMPDEST POP PUSH1 0x40 DUP4 ADD MLOAD DUP5 DUP3 SUB PUSH1 0x40 DUP7 ADD MSTORE PUSH2 0x178F DUP3 DUP3 PUSH2 0x1548 JUMP JUMPDEST SWAP2 POP POP PUSH1 0x60 DUP4 ADD MLOAD PUSH2 0x17A4 PUSH1 0x60 DUP7 ADD DUP3 PUSH2 0x1581 JUMP JUMPDEST POP PUSH1 0x80 DUP4 ADD MLOAD DUP5 DUP3 SUB PUSH1 0x80 DUP7 ADD MSTORE PUSH2 0x17BC DUP3 DUP3 PUSH2 0x1548 JUMP JUMPDEST SWAP2 POP POP PUSH1 0xA0 DUP4 ADD MLOAD PUSH2 0x17D1 PUSH1 0xA0 DUP7 ADD DUP3 PUSH2 0x15C2 JUMP JUMPDEST POP PUSH1 0xC0 DUP4 ADD MLOAD PUSH2 0x17E4 PUSH1 0xC0 DUP7 ADD DUP3 PUSH2 0x1581 JUMP JUMPDEST POP DUP1 SWAP2 POP POP SWAP3 SWAP2 POP POP JUMP JUMPDEST PUSH1 0x0 PUSH2 0x17FB DUP4 DUP4 PUSH2 0x1745 JUMP JUMPDEST SWAP1 POP SWAP3 SWAP2 POP POP JUMP JUMPDEST PUSH1 0x0 PUSH1 0x20 DUP3 ADD SWAP1 POP SWAP2 SWAP1 POP JUMP JUMPDEST PUSH1 0x0 PUSH2 0x181B DUP3 PUSH2 0x1719 JUMP JUMPDEST PUSH2 0x1825 DUP2 DUP6 PUSH2 0x1724 JUMP JUMPDEST SWAP4 POP DUP4 PUSH1 0x20 DUP3 MUL DUP6 ADD PUSH2 0x1837 DUP6 PUSH2 0x1735 JUMP JUMPDEST DUP1 PUSH1 0x0 JUMPDEST DUP6 DUP2 LT ISZERO PUSH2 0x1873 JUMPI DUP5 DUP5 SUB DUP10 MSTORE DUP2 MLOAD PUSH2 0x1854 DUP6 DUP3 PUSH2 0x17EF JUMP JUMPDEST SWAP5 POP PUSH2 0x185F DUP4 PUSH2 0x1803 JUMP JUMPDEST SWAP3 POP PUSH1 0x20 DUP11 ADD SWAP10 POP POP PUSH1 0x1 DUP2 ADD SWAP1 POP PUSH2 0x183B JUMP JUMPDEST POP DUP3 SWAP8 POP DUP8 SWAP6 POP POP POP POP POP POP SWAP3 SWAP2 POP POP JUMP JUMPDEST PUSH1 0x0 PUSH1 0x20 DUP3 ADD SWAP1 POP DUP2 DUP2 SUB PUSH1 0x0 DUP4 ADD MSTORE PUSH2 0x189F DUP2 DUP5 PUSH2 0x1810 JUMP JUMPDEST SWAP1 POP SWAP3 SWAP2 POP POP JUMP JUMPDEST PUSH1 0x0 DUP1 REVERT JUMPDEST PUSH1 0x0 DUP1 REVERT JUMPDEST PUSH1 0x0 DUP1 REVERT JUMPDEST PUSH1 0x0 DUP1 DUP4 PUSH1 0x1F DUP5 ADD SLT PUSH2 0x18CC JUMPI PUSH2 0x18CB PUSH2 0x18A7 JUMP JUMPDEST JUMPDEST DUP3 CALLDATALOAD SWAP1 POP PUSH8 0xFFFFFFFFFFFFFFFF DUP2 GT ISZERO PUSH2 0x18E9 JUMPI PUSH2 0x18E8 PUSH2 0x18AC JUMP JUMPDEST JUMPDEST PUSH1 0x20 DUP4 ADD SWAP2 POP DUP4 PUSH1 0x1 DUP3 MUL DUP4 ADD GT ISZERO PUSH2 0x1905 JUMPI PUSH2 0x1904 PUSH2 0x18B1 JUMP JUMPDEST JUMPDEST SWAP3 POP SWAP3 SWAP1 POP JUMP JUMPDEST PUSH1 0x0 DUP1 PUSH1 0x0 DUP1 PUSH1 0x0 DUP1 PUSH1 0x0 PUSH1 0x80 DUP9 DUP11 SUB SLT ISZERO PUSH2 0x192B JUMPI PUSH2 0x192A PUSH2 0x13B0 JUMP JUMPDEST JUMPDEST PUSH1 0x0 DUP9 ADD CALLDATALOAD PUSH8 0xFFFFFFFFFFFFFFFF DUP2 GT ISZERO PUSH2 0x1949 JUMPI PUSH2 0x1948 PUSH2 0x13B5 JUMP JUMPDEST JUMPDEST PUSH2 0x1955 DUP11 DUP3 DUP12 ADD PUSH2 0x18B6 JUMP JUMPDEST SWAP8 POP SWAP8 POP POP PUSH1 0x20 PUSH2 0x1968 DUP11 DUP3 DUP12 ADD PUSH2 0x13DB JUMP JUMPDEST SWAP6 POP POP PUSH1 0x40 DUP9 ADD CALLDATALOAD PUSH8 0xFFFFFFFFFFFFFFFF DUP2 GT ISZERO PUSH2 0x1989 JUMPI PUSH2 0x1988 PUSH2 0x13B5 JUMP JUMPDEST JUMPDEST PUSH2 0x1995 DUP11 DUP3 DUP12 ADD PUSH2 0x18B6 JUMP JUMPDEST SWAP5 POP SWAP5 POP POP PUSH1 0x60 DUP9 ADD CALLDATALOAD PUSH8 0xFFFFFFFFFFFFFFFF DUP2 GT ISZERO PUSH2 0x19B8 JUMPI PUSH2 0x19B7 PUSH2 0x13B5 JUMP JUMPDEST JUMPDEST PUSH2 0x19C4 DUP11 DUP3 DUP12 ADD PUSH2 0x18B6 JUMP JUMPDEST SWAP3 POP SWAP3 POP POP SWAP3 SWAP6 SWAP9 SWAP2 SWAP5 SWAP8 POP SWAP3 SWAP6 POP JUMP JUMPDEST PUSH1 0x0 DUP1 PUSH1 0x0 DUP1 PUSH1 0x0 PUSH1 0x60 DUP7 DUP9 SUB SLT ISZERO PUSH2 0x19F1 JUMPI PUSH2 0x19F0 PUSH2 0x13B0 JUMP JUMPDEST JUMPDEST PUSH1 0x0 DUP7 ADD CALLDATALOAD PUSH8 0xFFFFFFFFFFFFFFFF DUP2 GT ISZERO PUSH2 0x1A0F JUMPI PUSH2 0x1A0E PUSH2 0x13B5 JUMP JUMPDEST JUMPDEST PUSH2 0x1A1B DUP9 DUP3 DUP10 ADD PUSH2 0x18B6 JUMP JUMPDEST SWAP6 POP SWAP6 POP POP PUSH1 0x20 PUSH2 0x1A2E DUP9 DUP3 DUP10 ADD PUSH2 0x13DB JUMP JUMPDEST SWAP4 POP POP PUSH1 0x40 DUP7 ADD CALLDATALOAD PUSH8 0xFFFFFFFFFFFFFFFF DUP2 GT ISZERO PUSH2 0x1A4F JUMPI PUSH2 0x1A4E PUSH2 0x13B5 JUMP JUMPDEST JUMPDEST PUSH2 0x1A5B DUP9 DUP3 DUP10 ADD PUSH2 0x18B6 JUMP JUMPDEST SWAP3 POP SWAP3 POP POP SWAP3 SWAP6 POP SWAP3 SWAP6 SWAP1 SWAP4 POP JUMP JUMPDEST PUSH2 0x1A73 DUP2 PUSH2 0x15B0 JUMP JUMPDEST DUP3 MSTORE POP POP JUMP JUMPDEST PUSH1 0x0 PUSH1 0x20 DUP3 ADD SWAP1 POP PUSH2 0x1A8E PUSH1 0x0 DUP4 ADD DUP5 PUSH2 0x1A6A JUMP JUMPDEST SWAP3 SWAP2 POP POP JUMP JUMPDEST PUSH32 0x596F7520617265206E6F742066726F6D20656C656374696F6E20636F6D697373 PUSH1 0x0 DUP3 ADD MSTORE PUSH32 0x696F6E0000000000000000000000000000000000000000000000000000000000 PUSH1 0x20 DUP3 ADD MSTORE POP JUMP JUMPDEST PUSH1 0x0 PUSH2 0x1AF0 PUSH1 0x23 DUP4 PUSH2 0x143B JUMP JUMPDEST SWAP2 POP PUSH2 0x1AFB DUP3 PUSH2 0x1A94 JUMP JUMPDEST PUSH1 0x40 DUP3 ADD SWAP1 POP SWAP2 SWAP1 POP JUMP JUMPDEST PUSH1 0x0 PUSH1 0x20 DUP3 ADD SWAP1 POP DUP2 DUP2 SUB PUSH1 0x0 DUP4 ADD MSTORE PUSH2 0x1B1F DUP2 PUSH2 0x1AE3 JUMP JUMPDEST SWAP1 POP SWAP2 SWAP1 POP JUMP JUMPDEST PUSH32 0x4E487B7100000000000000000000000000000000000000000000000000000000 PUSH1 0x0 MSTORE PUSH1 0x11 PUSH1 0x4 MSTORE PUSH1 0x24 PUSH1 0x0 REVERT JUMPDEST PUSH1 0x0 PUSH2 0x1B60 DUP3 PUSH2 0x13BA JUMP JUMPDEST SWAP2 POP PUSH2 0x1B6B DUP4 PUSH2 0x13BA JUMP JUMPDEST SWAP3 POP DUP3 DUP3 ADD SWAP1 POP DUP1 DUP3 GT ISZERO PUSH2 0x1B83 JUMPI PUSH2 0x1B82 PUSH2 0x1B26 JUMP JUMPDEST JUMPDEST SWAP3 SWAP2 POP POP JUMP JUMPDEST PUSH1 0x0 PUSH2 0x1B94 DUP3 PUSH2 0x13BA JUMP JUMPDEST SWAP2 POP PUSH2 0x1B9F DUP4 PUSH2 0x13BA JUMP JUMPDEST SWAP3 POP DUP3 DUP3 SUB SWAP1 POP DUP2 DUP2 GT ISZERO PUSH2 0x1BB7 JUMPI PUSH2 0x1BB6 PUSH2 0x1B26 JUMP JUMPDEST JUMPDEST SWAP3 SWAP2 POP POP JUMP JUMPDEST PUSH32 0x4E487B7100000000000000000000000000000000000000000000000000000000 PUSH1 0x0 MSTORE PUSH1 0x41 PUSH1 0x4 MSTORE PUSH1 0x24 PUSH1 0x0 REVERT JUMPDEST PUSH32 0x4E487B7100000000000000000000000000000000000000000000000000000000 PUSH1 0x0 MSTORE PUSH1 0x22 PUSH1 0x4 MSTORE PUSH1 0x24 PUSH1 0x0 REVERT JUMPDEST PUSH1 0x0 PUSH1 0x2 DUP3 DIV SWAP1 POP PUSH1 0x1 DUP3 AND DUP1 PUSH2 0x1C33 JUMPI PUSH1 0x7F DUP3 AND SWAP2 POP JUMPDEST PUSH1 0x20 DUP3 LT DUP2 SUB PUSH2 0x1C46 JUMPI PUSH2 0x1C45 PUSH2 0x1BEC JUMP JUMPDEST JUMPDEST POP SWAP2 SWAP1 POP JUMP JUMPDEST PUSH32 0x4E487B7100000000000000000000000000000000000000000000000000000000 PUSH1 0x0 MSTORE PUSH1 0x32 PUSH1 0x4 MSTORE PUSH1 0x24 PUSH1 0x0 REVERT JUMPDEST PUSH1 0x0 PUSH2 0x1C86 DUP3 PUSH2 0x13BA JUMP JUMPDEST SWAP2 POP PUSH32 0xFFFFFFFFFFFFFFFFFFFFFFFFFFFFFFFFFFFFFFFFFFFFFFFFFFFFFFFFFFFFFFFF DUP3 SUB PUSH2 0x1CB8 JUMPI PUSH2 0x1CB7 PUSH2 0x1B26 JUMP JUMPDEST JUMPDEST PUSH1 0x1 DUP3 ADD SWAP1 POP SWAP2 SWAP1 POP JUMP JUMPDEST PUSH32 0x596F75206172652066726F6D20656C656374696F6E20636F6D697373696F6E00 PUSH1 0x0 DUP3 ADD MSTORE POP JUMP JUMPDEST PUSH1 0x0 PUSH2 0x1CF9 PUSH1 0x1F DUP4 PUSH2 0x143B JUMP JUMPDEST SWAP2 POP PUSH2 0x1D04 DUP3 PUSH2 0x1CC3 JUMP JUMPDEST PUSH1 0x20 DUP3 ADD SWAP1 POP SWAP2 SWAP1 POP JUMP JUMPDEST PUSH1 0x0 PUSH1 0x20 DUP3 ADD SWAP1 POP DUP2 DUP2 SUB PUSH1 0x0 DUP4 ADD MSTORE PUSH2 0x1D28 DUP2 PUSH2 0x1CEC JUMP JUMPDEST SWAP1 POP SWAP2 SWAP1 POP JUMP JUMPDEST PUSH32 0x596F752063616E206E6F74207265676973746572207477696365000000000000 PUSH1 0x0 DUP3 ADD MSTORE POP JUMP JUMPDEST PUSH1 0x0 PUSH2 0x1D65 PUSH1 0x1A DUP4 PUSH2 0x143B JUMP JUMPDEST SWAP2 POP PUSH2 0x1D70 DUP3 PUSH2 0x1D2F JUMP JUMPDEST PUSH1 0x20 DUP3 ADD SWAP1 POP SWAP2 SWAP1 POP JUMP JUMPDEST PUSH1 0x0 PUSH1 0x20 DUP3 ADD SWAP1 POP DUP2 DUP2 SUB PUSH1 0x0 DUP4 ADD MSTORE PUSH2 0x1D94 DUP2 PUSH2 0x1D58 JUMP JUMPDEST SWAP1 POP SWAP2 SWAP1 POP JUMP JUMPDEST PUSH32 0x596F7520617265206E6F7420656C696769626C65000000000000000000000000 PUSH1 0x0 DUP3 ADD MSTORE POP JUMP JUMPDEST PUSH1 0x0 PUSH2 0x1DD1 PUSH1 0x14 DUP4 PUSH2 0x143B JUMP JUMPDEST SWAP2 POP PUSH2 0x1DDC DUP3 PUSH2 0x1D9B JUMP JUMPDEST PUSH1 0x20 DUP3 ADD SWAP1 POP SWAP2 SWAP1 POP JUMP JUMPDEST PUSH1 0x0 PUSH1 0x20 DUP3 ADD SWAP1 POP DUP2 DUP2 SUB PUSH1 0x0 DUP4 ADD MSTORE PUSH2 0x1E00 DUP2 PUSH2 0x1DC4 JUMP JUMPDEST SWAP1 POP SWAP2 SWAP1 POP JUMP JUMPDEST PUSH1 0x0 DUP2 SWAP1 POP DUP2 PUSH1 0x0 MSTORE PUSH1 0x20 PUSH1 0x0 KECCAK256 SWAP1 POP SWAP2 SWAP1 POP JUMP JUMPDEST PUSH1 0x0 PUSH1 0x20 PUSH1 0x1F DUP4 ADD DIV SWAP1 POP SWAP2 SWAP1 POP JUMP JUMPDEST PUSH1 0x0 DUP3 DUP3 SHL SWAP1 POP SWAP3 SWAP2 POP POP JUMP JUMPDEST PUSH1 0x0 PUSH1 0x8 DUP4 MUL PUSH2 0x1E69 PUSH32 0xFFFFFFFFFFFFFFFFFFFFFFFFFFFFFFFFFFFFFFFFFFFFFFFFFFFFFFFFFFFFFFFF DUP3 PUSH2 0x1E2C JUMP JUMPDEST PUSH2 0x1E73 DUP7 DUP4 PUSH2 0x1E2C JUMP JUMPDEST SWAP6 POP DUP1 NOT DUP5 AND SWAP4 POP DUP1 DUP7 AND DUP5 OR SWAP3 POP POP POP SWAP4 SWAP3 POP POP POP JUMP JUMPDEST PUSH1 0x0 DUP2 SWAP1 POP SWAP2 SWAP1 POP JUMP JUMPDEST PUSH1 0x0 PUSH2 0x1EB0 PUSH2 0x1EAB PUSH2 0x1EA6 DUP5 PUSH2 0x13BA JUMP JUMPDEST PUSH2 0x1E8B JUMP JUMPDEST PUSH2 0x13BA JUMP JUMPDEST SWAP1 POP SWAP2 SWAP1 POP JUMP JUMPDEST PUSH1 0x0 DUP2 SWAP1 POP SWAP2 SWAP1 POP JUMP JUMPDEST PUSH2 0x1ECA DUP4 PUSH2 0x1E95 JUMP JUMPDEST PUSH2 0x1EDE PUSH2 0x1ED6 DUP3 PUSH2 0x1EB7 JUMP JUMPDEST DUP5 DUP5 SLOAD PUSH2 0x1E39 JUMP JUMPDEST DUP3 SSTORE POP POP POP POP JUMP JUMPDEST PUSH1 0x0 SWAP1 JUMP JUMPDEST PUSH2 0x1EF3 PUSH2 0x1EE6 JUMP JUMPDEST PUSH2 0x1EFE DUP2 DUP5 DUP5 PUSH2 0x1EC1 JUMP JUMPDEST POP POP POP JUMP JUMPDEST JUMPDEST DUP2 DUP2 LT ISZERO PUSH2 0x1F22 JUMPI PUSH2 0x1F17 PUSH1 0x0 DUP3 PUSH2 0x1EEB JUMP JUMPDEST PUSH1 0x1 DUP2 ADD SWAP1 POP PUSH2 0x1F04 JUMP JUMPDEST POP POP JUMP JUMPDEST PUSH1 0x1F DUP3 GT ISZERO PUSH2 0x1F67 JUMPI PUSH2 0x1F38 DUP2 PUSH2 0x1E07 JUMP JUMPDEST PUSH2 0x1F41 DUP5 PUSH2 0x1E1C JUMP JUMPDEST DUP2 ADD PUSH1 0x20 DUP6 LT ISZERO PUSH2 0x1F50 JUMPI DUP2 SWAP1 POP JUMPDEST PUSH2 0x1F64 PUSH2 0x1F5C DUP6 PUSH2 0x1E1C JUMP JUMPDEST DUP4 ADD DUP3 PUSH2 0x1F03 JUMP JUMPDEST POP POP JUMPDEST POP POP POP JUMP JUMPDEST PUSH1 0x0 DUP3 DUP3 SHR SWAP1 POP SWAP3 SWAP2 POP POP JUMP JUMPDEST PUSH1 0x0 PUSH2 0x1F8A PUSH1 0x0 NOT DUP5 PUSH1 0x8 MUL PUSH2 0x1F6C JUMP JUMPDEST NOT DUP1 DUP4 AND SWAP2 POP POP SWAP3 SWAP2 POP POP JUMP JUMPDEST PUSH1 0x0 PUSH2 0x1FA3 DUP4 DUP4 PUSH2 0x1F79 JUMP JUMPDEST SWAP2 POP DUP3 PUSH1 0x2 MUL DUP3 OR SWAP1 POP SWAP3 SWAP2 POP POP JUMP JUMPDEST PUSH2 0x1FBC DUP3 PUSH2 0x1430 JUMP JUMPDEST PUSH8 0xFFFFFFFFFFFFFFFF DUP2 GT ISZERO PUSH2 0x1FD5 JUMPI PUSH2 0x1FD4 PUSH2 0x1BBD JUMP JUMPDEST JUMPDEST PUSH2 0x1FDF DUP3 SLOAD PUSH2 0x1C1B JUMP JUMPDEST PUSH2 0x1FEA DUP3 DUP3 DUP6 PUSH2 0x1F26 JUMP JUMPDEST PUSH1 0x0 PUSH1 0x20 SWAP1 POP PUSH1 0x1F DUP4 GT PUSH1 0x1 DUP2 EQ PUSH2 0x201D JUMPI PUSH1 0x0 DUP5 ISZERO PUSH2 0x200B JUMPI DUP3 DUP8 ADD MLOAD SWAP1 POP JUMPDEST PUSH2 0x2015 DUP6 DUP3 PUSH2 0x1F97 JUMP JUMPDEST DUP7 SSTORE POP PUSH2 0x207D JUMP JUMPDEST PUSH1 0x1F NOT DUP5 AND PUSH2 0x202B DUP7 PUSH2 0x1E07 JUMP JUMPDEST PUSH1 0x0 JUMPDEST DUP3 DUP2 LT ISZERO PUSH2 0x2053 JUMPI DUP5 DUP10 ADD MLOAD DUP3 SSTORE PUSH1 0x1 DUP3 ADD SWAP2 POP PUSH1 0x20 DUP6 ADD SWAP5 POP PUSH1 0x20 DUP2 ADD SWAP1 POP PUSH2 0x202E JUMP JUMPDEST DUP7 DUP4 LT ISZERO PUSH2 0x2070 JUMPI DUP5 DUP10 ADD MLOAD PUSH2 0x206C PUSH1 0x1F DUP10 AND DUP3 PUSH2 0x1F79 JUMP JUMPDEST DUP4 SSTORE POP JUMPDEST PUSH1 0x1 PUSH1 0x2 DUP9 MUL ADD DUP9 SSTORE POP POP POP JUMPDEST POP POP POP POP POP POP JUMP JUMPDEST PUSH32 0x596F752061726520756E64657220616765000000000000000000000000000000 PUSH1 0x0 DUP3 ADD MSTORE POP JUMP JUMPDEST PUSH1 0x0 PUSH2 0x20BB PUSH1 0x11 DUP4 PUSH2 0x143B JUMP JUMPDEST SWAP2 POP PUSH2 0x20C6 DUP3 PUSH2 0x2085 JUMP JUMPDEST PUSH1 0x20 DUP3 ADD SWAP1 POP SWAP2 SWAP1 POP JUMP JUMPDEST PUSH1 0x0 PUSH1 0x20 DUP3 ADD SWAP1 POP DUP2 DUP2 SUB PUSH1 0x0 DUP4 ADD MSTORE PUSH2 0x20EA DUP2 PUSH2 0x20AE JUMP JUMPDEST SWAP1 POP SWAP2 SWAP1 POP JUMP JUMPDEST PUSH32 0x596F75206861766520616C726561647920726567697374657265640000000000 PUSH1 0x0 DUP3 ADD MSTORE POP JUMP JUMPDEST PUSH1 0x0 PUSH2 0x2127 PUSH1 0x1B DUP4 PUSH2 0x143B JUMP JUMPDEST SWAP2 POP PUSH2 0x2132 DUP3 PUSH2 0x20F1 JUMP JUMPDEST PUSH1 0x20 DUP3 ADD SWAP1 POP SWAP2 SWAP1 POP JUMP JUMPDEST PUSH1 0x0 PUSH1 0x20 DUP3 ADD SWAP1 POP DUP2 DUP2 SUB PUSH1 0x0 DUP4 ADD MSTORE PUSH2 0x2156 DUP2 PUSH2 0x211A JUMP JUMPDEST SWAP1 POP SWAP2 SWAP1 POP JUMP JUMPDEST PUSH32 0x596F75206861766520766F746564000000000000000000000000000000000000 PUSH1 0x0 DUP3 ADD MSTORE POP JUMP JUMPDEST PUSH1 0x0 PUSH2 0x2193 PUSH1 0xE DUP4 PUSH2 0x143B JUMP JUMPDEST SWAP2 POP PUSH2 0x219E DUP3 PUSH2 0x215D JUMP JUMPDEST PUSH1 0x20 DUP3 ADD SWAP1 POP SWAP2 SWAP1 POP JUMP JUMPDEST PUSH1 0x0 PUSH1 0x20 DUP3 ADD SWAP1 POP DUP2 DUP2 SUB PUSH1 0x0 DUP4 ADD MSTORE PUSH2 0x21C2 DUP2 PUSH2 0x2186 JUMP JUMPDEST SWAP1 POP SWAP2 SWAP1 POP JUMP JUMPDEST PUSH32 0x596F752063616E7420766F74652066726F6D206F746865727320626568616C66 PUSH1 0x0 DUP3 ADD MSTORE POP JUMP JUMPDEST PUSH1 0x0 PUSH2 0x21FF PUSH1 0x20 DUP4 PUSH2 0x143B JUMP JUMPDEST SWAP2 POP PUSH2 0x220A DUP3 PUSH2 0x21C9 JUMP JUMPDEST PUSH1 0x20 DUP3 ADD SWAP1 POP SWAP2 SWAP1 POP JUMP JUMPDEST PUSH1 0x0 PUSH1 0x20 DUP3 ADD SWAP1 POP DUP2 DUP2 SUB PUSH1 0x0 DUP4 ADD MSTORE PUSH2 0x222E DUP2 PUSH2 0x21F2 JUMP JUMPDEST SWAP1 POP SWAP2 SWAP1 POP JUMP JUMPDEST PUSH32 0x43616E6469646174657320617265206E6F74207265676973746572656420636F PUSH1 0x0 DUP3 ADD MSTORE PUSH32 0x6D706C6574656C79000000000000000000000000000000000000000000000000 PUSH1 0x20 DUP3 ADD MSTORE POP JUMP JUMPDEST PUSH1 0x0 PUSH2 0x2291 PUSH1 0x28 DUP4 PUSH2 0x143B JUMP JUMPDEST SWAP2 POP PUSH2 0x229C DUP3 PUSH2 0x2235 JUMP JUMPDEST PUSH1 0x40 DUP3 ADD SWAP1 POP SWAP2 SWAP1 POP JUMP JUMPDEST PUSH1 0x0 PUSH1 0x20 DUP3 ADD SWAP1 POP DUP2 DUP2 SUB PUSH1 0x0 DUP4 ADD MSTORE PUSH2 0x22C0 DUP2 PUSH2 0x2284 JUMP JUMPDEST SWAP1 POP SWAP2 SWAP1 POP JUMP JUMPDEST PUSH32 0x566F74696E67206973206E6F7420737461727465640000000000000000000000 PUSH1 0x0 DUP3 ADD MSTORE POP JUMP JUMPDEST PUSH1 0x0 PUSH2 0x22FD PUSH1 0x15 DUP4 PUSH2 0x143B JUMP JUMPDEST SWAP2 POP PUSH2 0x2308 DUP3 PUSH2 0x22C7 JUMP JUMPDEST PUSH1 0x20 DUP3 ADD SWAP1 POP SWAP2 SWAP1 POP JUMP JUMPDEST PUSH1 0x0 PUSH1 0x20 DUP3 ADD SWAP1 POP DUP2 DUP2 SUB PUSH1 0x0 DUP4 ADD MSTORE PUSH2 0x232C DUP2 PUSH2 0x22F0 JUMP JUMPDEST SWAP1 POP SWAP2 SWAP1 POP JUMP JUMPDEST PUSH32 0x43616E64696461746520646F6573206E6F742065786973740000000000000000 PUSH1 0x0 DUP3 ADD MSTORE POP JUMP JUMPDEST PUSH1 0x0 PUSH2 0x2369 PUSH1 0x18 DUP4 PUSH2 0x143B JUMP JUMPDEST SWAP2 POP PUSH2 0x2374 DUP3 PUSH2 0x2333 JUMP JUMPDEST PUSH1 0x20 DUP3 ADD SWAP1 POP SWAP2 SWAP1 POP JUMP JUMPDEST PUSH1 0x0 PUSH1 0x20 DUP3 ADD SWAP1 POP DUP2 DUP2 SUB PUSH1 0x0 DUP4 ADD MSTORE PUSH2 0x2398 DUP2 PUSH2 0x235C JUMP JUMPDEST SWAP1 POP SWAP2 SWAP1 POP JUMP INVALID LOG2 PUSH5 0x6970667358 0x22 SLT KECCAK256 SGT SWAP16 0xE6 0xC2 0xC 0xBD 0xE9 0xE2 DUP3 OR 0xA6 GASPRICE PUSH7 0x485CBB9DDC5B92 MULMOD LOG1 GAS 0xC1 PUSH23 0xBB14FDC6195AB264736F6C634300081200330000000000 "
				},
				"gasEstimates": {
					"creation": {
						"codeDepositCost": "1834600",
						"executionCost": "94678",
						"totalCost": "1929278"
					},
					"external": {
						"WinnerDeclaration()": "infinite",
						"candidateList()": "infinite",
						"candidateRegister(string,uint256,string,string)": "infinite",
						"vote(uint256,uint256)": "infinite",
						"voterList()": "infinite",
						"voterRegister(string,uint256,string)": "infinite",
						"votingStatus()": "infinite",
						"votingTimeImmediate(uint256,uint256)": "infinite",
						"winner()": "2602"
					},
					"internal": {
						"candidateVerification(address)": "infinite",
						"voterVerification(address)": "infinite"
					}
				},
				"methodIdentifiers": {
					"WinnerDeclaration()": "b1fbcd08",
					"candidateList()": "498ea441",
					"candidateRegister(string,uint256,string,string)": "69042bec",
					"vote(uint256,uint256)": "b384abef",
					"voterList()": "24089918",
					"voterRegister(string,uint256,string)": "93e5fed2",
					"votingStatus()": "19f41a40",
					"votingTimeImmediate(uint256,uint256)": "1436311f",
					"winner()": "dfbf53ae"
				}
			},
			"storageLayout": {
				"storage": [
					{
						"astId": 31,
						"contract": "Voting Contract/voting.sol:Voting_Contract",
						"label": "electionComission",
						"offset": 0,
						"slot": "0",
						"type": "t_address"
					},
					{
						"astId": 33,
						"contract": "Voting Contract/voting.sol:Voting_Contract",
						"label": "winner",
						"offset": 0,
						"slot": "1",
						"type": "t_address"
					},
					{
						"astId": 38,
						"contract": "Voting Contract/voting.sol:Voting_Contract",
						"label": "candidatesDetails",
						"offset": 0,
						"slot": "2",
						"type": "t_mapping(t_uint256,t_struct(candidate)29_storage)"
					},
					{
						"astId": 43,
						"contract": "Voting Contract/voting.sol:Voting_Contract",
						"label": "voterDetails",
						"offset": 0,
						"slot": "3",
						"type": "t_mapping(t_uint256,t_struct(voter)14_storage)"
					},
					{
						"astId": 46,
						"contract": "Voting Contract/voting.sol:Voting_Contract",
						"label": "nextCandidateID",
						"offset": 0,
						"slot": "4",
						"type": "t_uint256"
					},
					{
						"astId": 49,
						"contract": "Voting Contract/voting.sol:Voting_Contract",
						"label": "nextVoterID",
						"offset": 0,
						"slot": "5",
						"type": "t_uint256"
					},
					{
						"astId": 52,
						"contract": "Voting Contract/voting.sol:Voting_Contract",
						"label": "stopVoting",
						"offset": 0,
						"slot": "6",
						"type": "t_bool"
					},
					{
						"astId": 54,
						"contract": "Voting Contract/voting.sol:Voting_Contract",
						"label": "startTime",
						"offset": 0,
						"slot": "7",
						"type": "t_uint256"
					},
					{
						"astId": 56,
						"contract": "Voting Contract/voting.sol:Voting_Contract",
						"label": "endTime",
						"offset": 0,
						"slot": "8",
						"type": "t_uint256"
					}
				],
				"types": {
					"t_address": {
						"encoding": "inplace",
						"label": "address",
						"numberOfBytes": "20"
					},
					"t_bool": {
						"encoding": "inplace",
						"label": "bool",
						"numberOfBytes": "1"
					},
					"t_mapping(t_uint256,t_struct(candidate)29_storage)": {
						"encoding": "mapping",
						"key": "t_uint256",
						"label": "mapping(uint256 => struct Voting_Contract.candidate)",
						"numberOfBytes": "32",
						"value": "t_struct(candidate)29_storage"
					},
					"t_mapping(t_uint256,t_struct(voter)14_storage)": {
						"encoding": "mapping",
						"key": "t_uint256",
						"label": "mapping(uint256 => struct Voting_Contract.voter)",
						"numberOfBytes": "32",
						"value": "t_struct(voter)14_storage"
					},
					"t_string_storage": {
						"encoding": "bytes",
						"label": "string",
						"numberOfBytes": "32"
					},
					"t_struct(candidate)29_storage": {
						"encoding": "inplace",
						"label": "struct Voting_Contract.candidate",
						"members": [
							{
								"astId": 16,
								"contract": "Voting Contract/voting.sol:Voting_Contract",
								"label": "name",
								"offset": 0,
								"slot": "0",
								"type": "t_string_storage"
							},
							{
								"astId": 18,
								"contract": "Voting Contract/voting.sol:Voting_Contract",
								"label": "age",
								"offset": 0,
								"slot": "1",
								"type": "t_uint256"
							},
							{
								"astId": 20,
								"contract": "Voting Contract/voting.sol:Voting_Contract",
								"label": "party",
								"offset": 0,
								"slot": "2",
								"type": "t_string_storage"
							},
							{
								"astId": 22,
								"contract": "Voting Contract/voting.sol:Voting_Contract",
								"label": "candidateID",
								"offset": 0,
								"slot": "3",
								"type": "t_uint256"
							},
							{
								"astId": 24,
								"contract": "Voting Contract/voting.sol:Voting_Contract",
								"label": "gender",
								"offset": 0,
								"slot": "4",
								"type": "t_string_storage"
							},
							{
								"astId": 26,
								"contract": "Voting Contract/voting.sol:Voting_Contract",
								"label": "candidateAddress",
								"offset": 0,
								"slot": "5",
								"type": "t_address"
							},
							{
								"astId": 28,
								"contract": "Voting Contract/voting.sol:Voting_Contract",
								"label": "votes",
								"offset": 0,
								"slot": "6",
								"type": "t_uint256"
							}
						],
						"numberOfBytes": "224"
					},
					"t_struct(voter)14_storage": {
						"encoding": "inplace",
						"label": "struct Voting_Contract.voter",
						"members": [
							{
								"astId": 3,
								"contract": "Voting Contract/voting.sol:Voting_Contract",
								"label": "name",
								"offset": 0,
								"slot": "0",
								"type": "t_string_storage"
							},
							{
								"astId": 5,
								"contract": "Voting Contract/voting.sol:Voting_Contract",
								"label": "age",
								"offset": 0,
								"slot": "1",
								"type": "t_uint256"
							},
							{
								"astId": 7,
								"contract": "Voting Contract/voting.sol:Voting_Contract",
								"label": "voterID",
								"offset": 0,
								"slot": "2",
								"type": "t_uint256"
							},
							{
								"astId": 9,
								"contract": "Voting Contract/voting.sol:Voting_Contract",
								"label": "gender",
								"offset": 0,
								"slot": "3",
								"type": "t_string_storage"
							},
							{
								"astId": 11,
								"contract": "Voting Contract/voting.sol:Voting_Contract",
								"label": "voteCandidateID",
								"offset": 0,
								"slot": "4",
								"type": "t_uint256"
							},
							{
								"astId": 13,
								"contract": "Voting Contract/voting.sol:Voting_Contract",
								"label": "voterAddress",
								"offset": 0,
								"slot": "5",
								"type": "t_address"
							}
						],
						"numberOfBytes": "192"
					},
					"t_uint256": {
						"encoding": "inplace",
						"label": "uint256",
						"numberOfBytes": "32"
					}
				}
			},
			"userdoc": {
				"kind": "user",
				"methods": {},
				"version": 1
			}
		}
	}
}