{
	"solidity code/transfer.sol": {
		"payment": {
			"abi": [
				{
					"inputs": [
						{
							"internalType": "address payable",
							"name": "rec",
							"type": "address"
						}
					],
					"name": "addReceiver",
					"outputs": [],
					"stateMutability": "nonpayable",
					"type": "function"
				},
				{
					"inputs": [],
					"name": "payContract",
					"outputs": [],
					"stateMutability": "payable",
					"type": "function"
				},
				{
					"inputs": [],
					"name": "receiver",
					"outputs": [
						{
							"internalType": "address payable",
							"name": "",
							"type": "address"
						}
					],
					"stateMutability": "view",
					"type": "function"
				},
				{
					"inputs": [],
					"name": "tranferEther",
					"outputs": [],
					"stateMutability": "nonpayable",
					"type": "function"
				}
			],
			"devdoc": {
				"kind": "dev",
				"methods": {},
				"version": 1
			},
			"evm": {
				"assembly": "    /* \"solidity code/transfer.sol\":68:551  contract payment{... */\n  mstore(0x40, 0x80)\n    /* \"solidity code/transfer.sol\":152:157  0 wei */\n  0x00\n    /* \"solidity code/transfer.sol\":129:157  uint contractBalance = 0 wei */\n  0x01\n  sstore\n    /* \"solidity code/transfer.sol\":68:551  contract payment{... */\n  callvalue\n  dup1\n  iszero\n  tag_1\n  jumpi\n  0x00\n  dup1\n  revert\ntag_1:\n  pop\n  dataSize(sub_0)\n  dup1\n  dataOffset(sub_0)\n  0x00\n  codecopy\n  0x00\n  return\nstop\n\nsub_0: assembly {\n        /* \"solidity code/transfer.sol\":68:551  contract payment{... */\n      mstore(0x40, 0x80)\n      jumpi(tag_1, lt(calldatasize, 0x04))\n      shr(0xe0, calldataload(0x00))\n      dup1\n      0x69d83ed1\n      eq\n      tag_2\n      jumpi\n      dup1\n      0xb8b2da92\n      eq\n      tag_3\n      jumpi\n      dup1\n      0xecb0b862\n      eq\n      tag_4\n      jumpi\n      dup1\n      0xf7260d3e\n      eq\n      tag_5\n      jumpi\n    tag_1:\n      0x00\n      dup1\n      revert\n        /* \"solidity code/transfer.sol\":164:274  function addReceiver(address payable rec) public {... */\n    tag_2:\n      callvalue\n      dup1\n      iszero\n      tag_6\n      jumpi\n      0x00\n      dup1\n      revert\n    tag_6:\n      pop\n      tag_7\n      0x04\n      dup1\n      calldatasize\n      sub\n      dup2\n      add\n      swap1\n      tag_8\n      swap2\n      swap1\n      tag_9\n      jump\t// in\n    tag_8:\n      tag_10\n      jump\t// in\n    tag_7:\n      stop\n        /* \"solidity code/transfer.sol\":456:546  function tranferEther() public{... */\n    tag_3:\n      callvalue\n      dup1\n      iszero\n      tag_11\n      jumpi\n      0x00\n      dup1\n      revert\n    tag_11:\n      pop\n      tag_12\n      tag_13\n      jump\t// in\n    tag_12:\n      stop\n        /* \"solidity code/transfer.sol\":280:327  function payContract() payable public{... */\n    tag_4:\n      tag_14\n      tag_15\n      jump\t// in\n    tag_14:\n      stop\n        /* \"solidity code/transfer.sol\":91:122  address payable public receiver */\n    tag_5:\n      callvalue\n      dup1\n      iszero\n      tag_16\n      jumpi\n      0x00\n      dup1\n      revert\n    tag_16:\n      pop\n      tag_17\n      tag_18\n      jump\t// in\n    tag_17:\n      mload(0x40)\n      tag_19\n      swap2\n      swap1\n      tag_20\n      jump\t// in\n    tag_19:\n      mload(0x40)\n      dup1\n      swap2\n      sub\n      swap1\n      return\n        /* \"solidity code/transfer.sol\":164:274  function addReceiver(address payable rec) public {... */\n    tag_10:\n        /* \"solidity code/transfer.sol\":235:238  rec */\n      dup1\n        /* \"solidity code/transfer.sol\":224:232  receiver */\n      0x00\n      dup1\n        /* \"solidity code/transfer.sol\":224:238  receiver = rec */\n      0x0100\n      exp\n      dup2\n      sload\n      dup2\n      0xffffffffffffffffffffffffffffffffffffffff\n      mul\n      not\n      and\n      swap1\n      dup4\n      0xffffffffffffffffffffffffffffffffffffffff\n      and\n      mul\n      or\n      swap1\n      sstore\n      pop\n        /* \"solidity code/transfer.sol\":257:265  receiver */\n      0x00\n      dup1\n      sload\n      swap1\n      0x0100\n      exp\n      swap1\n      pop\n      pop\n        /* \"solidity code/transfer.sol\":164:274  function addReceiver(address payable rec) public {... */\n      pop\n      jump\t// out\n        /* \"solidity code/transfer.sol\":456:546  function tranferEther() public{... */\n    tag_13:\n        /* \"solidity code/transfer.sol\":507:515  receiver */\n      0x00\n      dup1\n      sload\n      swap1\n      0x0100\n      exp\n      swap1\n      div\n      0xffffffffffffffffffffffffffffffffffffffff\n      and\n        /* \"solidity code/transfer.sol\":507:524  receiver.transfer */\n      0xffffffffffffffffffffffffffffffffffffffff\n      and\n        /* \"solidity code/transfer.sol\":507:538  receiver.transfer(getBalance()) */\n      0x08fc\n        /* \"solidity code/transfer.sol\":525:537  getBalance() */\n      tag_23\n        /* \"solidity code/transfer.sol\":525:535  getBalance */\n      tag_24\n        /* \"solidity code/transfer.sol\":525:537  getBalance() */\n      jump\t// in\n    tag_23:\n        /* \"solidity code/transfer.sol\":507:538  receiver.transfer(getBalance()) */\n      swap1\n      dup2\n      iszero\n      mul\n      swap1\n      mload(0x40)\n      0x00\n      mload(0x40)\n      dup1\n      dup4\n      sub\n      dup2\n      dup6\n      dup9\n      dup9\n      call\n      swap4\n      pop\n      pop\n      pop\n      pop\n      iszero\n      dup1\n      iszero\n      tag_26\n      jumpi\n      returndatasize\n      0x00\n      dup1\n      returndatacopy\n      revert(0x00, returndatasize)\n    tag_26:\n      pop\n        /* \"solidity code/transfer.sol\":456:546  function tranferEther() public{... */\n      jump\t// out\n        /* \"solidity code/transfer.sol\":280:327  function payContract() payable public{... */\n    tag_15:\n      jump\t// out\n        /* \"solidity code/transfer.sol\":91:122  address payable public receiver */\n    tag_18:\n      0x00\n      dup1\n      sload\n      swap1\n      0x0100\n      exp\n      swap1\n      div\n      0xffffffffffffffffffffffffffffffffffffffff\n      and\n      dup2\n      jump\t// out\n        /* \"solidity code/transfer.sol\":333:449  function getBalance() private view returns(uint){... */\n    tag_24:\n        /* \"solidity code/transfer.sol\":376:380  uint */\n      0x00\n        /* \"solidity code/transfer.sol\":433:441  2000 wei */\n      0x07d0\n        /* \"solidity code/transfer.sol\":409:430  address(this).balance */\n      selfbalance\n        /* \"solidity code/transfer.sol\":409:441  address(this).balance - 2000 wei */\n      tag_29\n      swap2\n      swap1\n      tag_30\n      jump\t// in\n    tag_29:\n        /* \"solidity code/transfer.sol\":402:441  return address(this).balance - 2000 wei */\n      swap1\n      pop\n        /* \"solidity code/transfer.sol\":333:449  function getBalance() private view returns(uint){... */\n      swap1\n      jump\t// out\n        /* \"#utility.yul\":88:205   */\n    tag_32:\n        /* \"#utility.yul\":197:198   */\n      0x00\n        /* \"#utility.yul\":194:195   */\n      dup1\n        /* \"#utility.yul\":187:199   */\n      revert\n        /* \"#utility.yul\":334:460   */\n    tag_34:\n        /* \"#utility.yul\":371:378   */\n      0x00\n        /* \"#utility.yul\":411:453   */\n      0xffffffffffffffffffffffffffffffffffffffff\n        /* \"#utility.yul\":404:409   */\n      dup3\n        /* \"#utility.yul\":400:454   */\n      and\n        /* \"#utility.yul\":389:454   */\n      swap1\n      pop\n        /* \"#utility.yul\":334:460   */\n      swap2\n      swap1\n      pop\n      jump\t// out\n        /* \"#utility.yul\":466:570   */\n    tag_35:\n        /* \"#utility.yul\":511:518   */\n      0x00\n        /* \"#utility.yul\":540:564   */\n      tag_47\n        /* \"#utility.yul\":558:563   */\n      dup3\n        /* \"#utility.yul\":540:564   */\n      tag_34\n      jump\t// in\n    tag_47:\n        /* \"#utility.yul\":529:564   */\n      swap1\n      pop\n        /* \"#utility.yul\":466:570   */\n      swap2\n      swap1\n      pop\n      jump\t// out\n        /* \"#utility.yul\":576:714   */\n    tag_36:\n        /* \"#utility.yul\":657:689   */\n      tag_49\n        /* \"#utility.yul\":683:688   */\n      dup2\n        /* \"#utility.yul\":657:689   */\n      tag_35\n      jump\t// in\n    tag_49:\n        /* \"#utility.yul\":650:655   */\n      dup2\n        /* \"#utility.yul\":647:690   */\n      eq\n        /* \"#utility.yul\":637:708   */\n      tag_50\n      jumpi\n        /* \"#utility.yul\":704:705   */\n      0x00\n        /* \"#utility.yul\":701:702   */\n      dup1\n        /* \"#utility.yul\":694:706   */\n      revert\n        /* \"#utility.yul\":637:708   */\n    tag_50:\n        /* \"#utility.yul\":576:714   */\n      pop\n      jump\t// out\n        /* \"#utility.yul\":720:875   */\n    tag_37:\n        /* \"#utility.yul\":774:779   */\n      0x00\n        /* \"#utility.yul\":812:818   */\n      dup2\n        /* \"#utility.yul\":799:819   */\n      calldataload\n        /* \"#utility.yul\":790:819   */\n      swap1\n      pop\n        /* \"#utility.yul\":828:869   */\n      tag_52\n        /* \"#utility.yul\":863:868   */\n      dup2\n        /* \"#utility.yul\":828:869   */\n      tag_36\n      jump\t// in\n    tag_52:\n        /* \"#utility.yul\":720:875   */\n      swap3\n      swap2\n      pop\n      pop\n      jump\t// out\n        /* \"#utility.yul\":881:1226   */\n    tag_9:\n        /* \"#utility.yul\":948:954   */\n      0x00\n        /* \"#utility.yul\":997:999   */\n      0x20\n        /* \"#utility.yul\":985:994   */\n      dup3\n        /* \"#utility.yul\":976:983   */\n      dup5\n        /* \"#utility.yul\":972:995   */\n      sub\n        /* \"#utility.yul\":968:1000   */\n      slt\n        /* \"#utility.yul\":965:1084   */\n      iszero\n      tag_54\n      jumpi\n        /* \"#utility.yul\":1003:1082   */\n      tag_55\n      tag_32\n      jump\t// in\n    tag_55:\n        /* \"#utility.yul\":965:1084   */\n    tag_54:\n        /* \"#utility.yul\":1123:1124   */\n      0x00\n        /* \"#utility.yul\":1148:1209   */\n      tag_56\n        /* \"#utility.yul\":1201:1208   */\n      dup5\n        /* \"#utility.yul\":1192:1198   */\n      dup3\n        /* \"#utility.yul\":1181:1190   */\n      dup6\n        /* \"#utility.yul\":1177:1199   */\n      add\n        /* \"#utility.yul\":1148:1209   */\n      tag_37\n      jump\t// in\n    tag_56:\n        /* \"#utility.yul\":1138:1209   */\n      swap2\n      pop\n        /* \"#utility.yul\":1094:1219   */\n      pop\n        /* \"#utility.yul\":881:1226   */\n      swap3\n      swap2\n      pop\n      pop\n      jump\t// out\n        /* \"#utility.yul\":1232:1374   */\n    tag_38:\n        /* \"#utility.yul\":1335:1367   */\n      tag_58\n        /* \"#utility.yul\":1361:1366   */\n      dup2\n        /* \"#utility.yul\":1335:1367   */\n      tag_35\n      jump\t// in\n    tag_58:\n        /* \"#utility.yul\":1330:1333   */\n      dup3\n        /* \"#utility.yul\":1323:1368   */\n      mstore\n        /* \"#utility.yul\":1232:1374   */\n      pop\n      pop\n      jump\t// out\n        /* \"#utility.yul\":1380:1634   */\n    tag_20:\n        /* \"#utility.yul\":1489:1493   */\n      0x00\n        /* \"#utility.yul\":1527:1529   */\n      0x20\n        /* \"#utility.yul\":1516:1525   */\n      dup3\n        /* \"#utility.yul\":1512:1530   */\n      add\n        /* \"#utility.yul\":1504:1530   */\n      swap1\n      pop\n        /* \"#utility.yul\":1540:1627   */\n      tag_60\n        /* \"#utility.yul\":1624:1625   */\n      0x00\n        /* \"#utility.yul\":1613:1622   */\n      dup4\n        /* \"#utility.yul\":1609:1626   */\n      add\n        /* \"#utility.yul\":1600:1606   */\n      dup5\n        /* \"#utility.yul\":1540:1627   */\n      tag_38\n      jump\t// in\n    tag_60:\n        /* \"#utility.yul\":1380:1634   */\n      swap3\n      swap2\n      pop\n      pop\n      jump\t// out\n        /* \"#utility.yul\":1640:1717   */\n    tag_39:\n        /* \"#utility.yul\":1677:1684   */\n      0x00\n        /* \"#utility.yul\":1706:1711   */\n      dup2\n        /* \"#utility.yul\":1695:1711   */\n      swap1\n      pop\n        /* \"#utility.yul\":1640:1717   */\n      swap2\n      swap1\n      pop\n      jump\t// out\n        /* \"#utility.yul\":1723:1903   */\n    tag_40:\n        /* \"#utility.yul\":1771:1848   */\n      0x4e487b7100000000000000000000000000000000000000000000000000000000\n        /* \"#utility.yul\":1768:1769   */\n      0x00\n        /* \"#utility.yul\":1761:1849   */\n      mstore\n        /* \"#utility.yul\":1868:1872   */\n      0x11\n        /* \"#utility.yul\":1865:1866   */\n      0x04\n        /* \"#utility.yul\":1858:1873   */\n      mstore\n        /* \"#utility.yul\":1892:1896   */\n      0x24\n        /* \"#utility.yul\":1889:1890   */\n      0x00\n        /* \"#utility.yul\":1882:1897   */\n      revert\n        /* \"#utility.yul\":1909:2103   */\n    tag_30:\n        /* \"#utility.yul\":1949:1953   */\n      0x00\n        /* \"#utility.yul\":1969:1989   */\n      tag_64\n        /* \"#utility.yul\":1987:1988   */\n      dup3\n        /* \"#utility.yul\":1969:1989   */\n      tag_39\n      jump\t// in\n    tag_64:\n        /* \"#utility.yul\":1964:1989   */\n      swap2\n      pop\n        /* \"#utility.yul\":2003:2023   */\n      tag_65\n        /* \"#utility.yul\":2021:2022   */\n      dup4\n        /* \"#utility.yul\":2003:2023   */\n      tag_39\n      jump\t// in\n    tag_65:\n        /* \"#utility.yul\":1998:2023   */\n      swap3\n      pop\n        /* \"#utility.yul\":2047:2048   */\n      dup3\n        /* \"#utility.yul\":2044:2045   */\n      dup3\n        /* \"#utility.yul\":2040:2049   */\n      sub\n        /* \"#utility.yul\":2032:2049   */\n      swap1\n      pop\n        /* \"#utility.yul\":2071:2072   */\n      dup2\n        /* \"#utility.yul\":2065:2069   */\n      dup2\n        /* \"#utility.yul\":2062:2073   */\n      gt\n        /* \"#utility.yul\":2059:2096   */\n      iszero\n      tag_66\n      jumpi\n        /* \"#utility.yul\":2076:2094   */\n      tag_67\n      tag_40\n      jump\t// in\n    tag_67:\n        /* \"#utility.yul\":2059:2096   */\n    tag_66:\n        /* \"#utility.yul\":1909:2103   */\n      swap3\n      swap2\n      pop\n      pop\n      jump\t// out\n\n    auxdata: 0xa26469706673582212209bc79b842854bbd93f285fa0e6ed93a4d6328991455f25c92e3be640c9a8443e64736f6c63430008120033\n}\n",
				"bytecode": {
					"linkReferences": {},
					"object": "6080604052600060015534801561001557600080fd5b50610310806100256000396000f3fe60806040526004361061003f5760003560e01c806369d83ed114610044578063b8b2da921461006d578063ecb0b86214610084578063f7260d3e1461008e575b600080fd5b34801561005057600080fd5b5061006b60048036038101906100669190610216565b6100b9565b005b34801561007957600080fd5b50610082610108565b005b61008c610178565b005b34801561009a57600080fd5b506100a361017a565b6040516100b09190610252565b60405180910390f35b806000806101000a81548173ffffffffffffffffffffffffffffffffffffffff021916908373ffffffffffffffffffffffffffffffffffffffff16021790555060008054906101000a90505050565b60008054906101000a900473ffffffffffffffffffffffffffffffffffffffff1673ffffffffffffffffffffffffffffffffffffffff166108fc61014a61019e565b9081150290604051600060405180830381858888f19350505050158015610175573d6000803e3d6000fd5b50565b565b60008054906101000a900473ffffffffffffffffffffffffffffffffffffffff1681565b60006107d0476101ae91906102a6565b905090565b600080fd5b600073ffffffffffffffffffffffffffffffffffffffff82169050919050565b60006101e3826101b8565b9050919050565b6101f3816101d8565b81146101fe57600080fd5b50565b600081359050610210816101ea565b92915050565b60006020828403121561022c5761022b6101b3565b5b600061023a84828501610201565b91505092915050565b61024c816101d8565b82525050565b60006020820190506102676000830184610243565b92915050565b6000819050919050565b7f4e487b7100000000000000000000000000000000000000000000000000000000600052601160045260246000fd5b60006102b18261026d565b91506102bc8361026d565b92508282039050818111156102d4576102d3610277565b5b9291505056fea26469706673582212209bc79b842854bbd93f285fa0e6ed93a4d6328991455f25c92e3be640c9a8443e64736f6c63430008120033",
					"opcodes": "PUSH1 0x80 PUSH1 0x40 MSTORE PUSH1 0x0 PUSH1 0x1 SSTORE CALLVALUE DUP1 ISZERO PUSH2 0x15 JUMPI PUSH1 0x0 DUP1 REVERT JUMPDEST POP PUSH2 0x310 DUP1 PUSH2 0x25 PUSH1 0x0 CODECOPY PUSH1 0x0 RETURN INVALID PUSH1 0x80 PUSH1 0x40 MSTORE PUSH1 0x4 CALLDATASIZE LT PUSH2 0x3F JUMPI PUSH1 0x0 CALLDATALOAD PUSH1 0xE0 SHR DUP1 PUSH4 0x69D83ED1 EQ PUSH2 0x44 JUMPI DUP1 PUSH4 0xB8B2DA92 EQ PUSH2 0x6D JUMPI DUP1 PUSH4 0xECB0B862 EQ PUSH2 0x84 JUMPI DUP1 PUSH4 0xF7260D3E EQ PUSH2 0x8E JUMPI JUMPDEST PUSH1 0x0 DUP1 REVERT JUMPDEST CALLVALUE DUP1 ISZERO PUSH2 0x50 JUMPI PUSH1 0x0 DUP1 REVERT JUMPDEST POP PUSH2 0x6B PUSH1 0x4 DUP1 CALLDATASIZE SUB DUP2 ADD SWAP1 PUSH2 0x66 SWAP2 SWAP1 PUSH2 0x216 JUMP JUMPDEST PUSH2 0xB9 JUMP JUMPDEST STOP JUMPDEST CALLVALUE DUP1 ISZERO PUSH2 0x79 JUMPI PUSH1 0x0 DUP1 REVERT JUMPDEST POP PUSH2 0x82 PUSH2 0x108 JUMP JUMPDEST STOP JUMPDEST PUSH2 0x8C PUSH2 0x178 JUMP JUMPDEST STOP JUMPDEST CALLVALUE DUP1 ISZERO PUSH2 0x9A JUMPI PUSH1 0x0 DUP1 REVERT JUMPDEST POP PUSH2 0xA3 PUSH2 0x17A JUMP JUMPDEST PUSH1 0x40 MLOAD PUSH2 0xB0 SWAP2 SWAP1 PUSH2 0x252 JUMP JUMPDEST PUSH1 0x40 MLOAD DUP1 SWAP2 SUB SWAP1 RETURN JUMPDEST DUP1 PUSH1 0x0 DUP1 PUSH2 0x100 EXP DUP2 SLOAD DUP2 PUSH20 0xFFFFFFFFFFFFFFFFFFFFFFFFFFFFFFFFFFFFFFFF MUL NOT AND SWAP1 DUP4 PUSH20 0xFFFFFFFFFFFFFFFFFFFFFFFFFFFFFFFFFFFFFFFF AND MUL OR SWAP1 SSTORE POP PUSH1 0x0 DUP1 SLOAD SWAP1 PUSH2 0x100 EXP SWAP1 POP POP POP JUMP JUMPDEST PUSH1 0x0 DUP1 SLOAD SWAP1 PUSH2 0x100 EXP SWAP1 DIV PUSH20 0xFFFFFFFFFFFFFFFFFFFFFFFFFFFFFFFFFFFFFFFF AND PUSH20 0xFFFFFFFFFFFFFFFFFFFFFFFFFFFFFFFFFFFFFFFF AND PUSH2 0x8FC PUSH2 0x14A PUSH2 0x19E JUMP JUMPDEST SWAP1 DUP2 ISZERO MUL SWAP1 PUSH1 0x40 MLOAD PUSH1 0x0 PUSH1 0x40 MLOAD DUP1 DUP4 SUB DUP2 DUP6 DUP9 DUP9 CALL SWAP4 POP POP POP POP ISZERO DUP1 ISZERO PUSH2 0x175 JUMPI RETURNDATASIZE PUSH1 0x0 DUP1 RETURNDATACOPY RETURNDATASIZE PUSH1 0x0 REVERT JUMPDEST POP JUMP JUMPDEST JUMP JUMPDEST PUSH1 0x0 DUP1 SLOAD SWAP1 PUSH2 0x100 EXP SWAP1 DIV PUSH20 0xFFFFFFFFFFFFFFFFFFFFFFFFFFFFFFFFFFFFFFFF AND DUP2 JUMP JUMPDEST PUSH1 0x0 PUSH2 0x7D0 SELFBALANCE PUSH2 0x1AE SWAP2 SWAP1 PUSH2 0x2A6 JUMP JUMPDEST SWAP1 POP SWAP1 JUMP JUMPDEST PUSH1 0x0 DUP1 REVERT JUMPDEST PUSH1 0x0 PUSH20 0xFFFFFFFFFFFFFFFFFFFFFFFFFFFFFFFFFFFFFFFF DUP3 AND SWAP1 POP SWAP2 SWAP1 POP JUMP JUMPDEST PUSH1 0x0 PUSH2 0x1E3 DUP3 PUSH2 0x1B8 JUMP JUMPDEST SWAP1 POP SWAP2 SWAP1 POP JUMP JUMPDEST PUSH2 0x1F3 DUP2 PUSH2 0x1D8 JUMP JUMPDEST DUP2 EQ PUSH2 0x1FE JUMPI PUSH1 0x0 DUP1 REVERT JUMPDEST POP JUMP JUMPDEST PUSH1 0x0 DUP2 CALLDATALOAD SWAP1 POP PUSH2 0x210 DUP2 PUSH2 0x1EA JUMP JUMPDEST SWAP3 SWAP2 POP POP JUMP JUMPDEST PUSH1 0x0 PUSH1 0x20 DUP3 DUP5 SUB SLT ISZERO PUSH2 0x22C JUMPI PUSH2 0x22B PUSH2 0x1B3 JUMP JUMPDEST JUMPDEST PUSH1 0x0 PUSH2 0x23A DUP5 DUP3 DUP6 ADD PUSH2 0x201 JUMP JUMPDEST SWAP2 POP POP SWAP3 SWAP2 POP POP JUMP JUMPDEST PUSH2 0x24C DUP2 PUSH2 0x1D8 JUMP JUMPDEST DUP3 MSTORE POP POP JUMP JUMPDEST PUSH1 0x0 PUSH1 0x20 DUP3 ADD SWAP1 POP PUSH2 0x267 PUSH1 0x0 DUP4 ADD DUP5 PUSH2 0x243 JUMP JUMPDEST SWAP3 SWAP2 POP POP JUMP JUMPDEST PUSH1 0x0 DUP2 SWAP1 POP SWAP2 SWAP1 POP JUMP JUMPDEST PUSH32 0x4E487B7100000000000000000000000000000000000000000000000000000000 PUSH1 0x0 MSTORE PUSH1 0x11 PUSH1 0x4 MSTORE PUSH1 0x24 PUSH1 0x0 REVERT JUMPDEST PUSH1 0x0 PUSH2 0x2B1 DUP3 PUSH2 0x26D JUMP JUMPDEST SWAP2 POP PUSH2 0x2BC DUP4 PUSH2 0x26D JUMP JUMPDEST SWAP3 POP DUP3 DUP3 SUB SWAP1 POP DUP2 DUP2 GT ISZERO PUSH2 0x2D4 JUMPI PUSH2 0x2D3 PUSH2 0x277 JUMP JUMPDEST JUMPDEST SWAP3 SWAP2 POP POP JUMP INVALID LOG2 PUSH5 0x6970667358 0x22 SLT KECCAK256 SWAP12 0xC7 SWAP12 DUP5 0x28 SLOAD 0xBB 0xD9 EXTCODEHASH 0x28 0x5F LOG0 0xE6 0xED SWAP4 LOG4 0xD6 ORIGIN DUP10 SWAP2 GASLIMIT 0x5F 0x25 0xC9 0x2E EXTCODESIZE 0xE6 BLOCKHASH 0xC9 0xA8 PREVRANDAO RETURNDATACOPY PUSH5 0x736F6C6343 STOP ADDMOD SLT STOP CALLER "
				},
				"gasEstimates": {
					"creation": {
						"codeDepositCost": "156800",
						"executionCost": "5208",
						"totalCost": "162008"
					},
					"external": {
						"addReceiver(address)": "26829",
						"payContract()": "142",
						"receiver()": "2555",
						"tranferEther()": "infinite"
					},
					"internal": {
						"getBalance()": "infinite"
					}
				},
				"methodIdentifiers": {
					"addReceiver(address)": "69d83ed1",
					"payContract()": "ecb0b862",
					"receiver()": "f7260d3e",
					"tranferEther()": "b8b2da92"
				}
			},
			"storageLayout": {
				"storage": [
					{
						"astId": 3,
						"contract": "solidity code/transfer.sol:payment",
						"label": "receiver",
						"offset": 0,
						"slot": "0",
						"type": "t_address_payable"
					},
					{
						"astId": 6,
						"contract": "solidity code/transfer.sol:payment",
						"label": "contractBalance",
						"offset": 0,
						"slot": "1",
						"type": "t_uint256"
					}
				],
				"types": {
					"t_address_payable": {
						"encoding": "inplace",
						"label": "address payable",
						"numberOfBytes": "20"
					},
					"t_uint256": {
						"encoding": "inplace",
						"label": "uint256",
						"numberOfBytes": "32"
					}
				}
			},
			"userdoc": {
				"kind": "user",
				"methods": {},
				"version": 1
			}
		}
	}
}