{
	"Voting Contract/contracts/myVoting.sol": {
		"VotingContract": {
			"abi": [
				{
					"inputs": [],
					"stateMutability": "nonpayable",
					"type": "constructor"
				},
				{
					"inputs": [
						{
							"internalType": "uint256",
							"name": "",
							"type": "uint256"
						}
					],
					"name": "CandidateDetails",
					"outputs": [
						{
							"internalType": "string",
							"name": "name",
							"type": "string"
						},
						{
							"internalType": "uint256",
							"name": "age",
							"type": "uint256"
						},
						{
							"internalType": "string",
							"name": "party",
							"type": "string"
						},
						{
							"internalType": "uint256",
							"name": "candidateID",
							"type": "uint256"
						},
						{
							"internalType": "string",
							"name": "gender",
							"type": "string"
						},
						{
							"internalType": "address",
							"name": "candidateAddress",
							"type": "address"
						},
						{
							"internalType": "uint256",
							"name": "votes",
							"type": "uint256"
						}
					],
					"stateMutability": "view",
					"type": "function"
				},
				{
					"inputs": [
						{
							"internalType": "uint256",
							"name": "",
							"type": "uint256"
						}
					],
					"name": "VoterDetails",
					"outputs": [
						{
							"internalType": "string",
							"name": "name",
							"type": "string"
						},
						{
							"internalType": "uint256",
							"name": "age",
							"type": "uint256"
						},
						{
							"internalType": "uint256",
							"name": "voterID",
							"type": "uint256"
						},
						{
							"internalType": "string",
							"name": "gender",
							"type": "string"
						},
						{
							"internalType": "uint256",
							"name": "voteCandidateID",
							"type": "uint256"
						},
						{
							"internalType": "address",
							"name": "voterAddress",
							"type": "address"
						}
					],
					"stateMutability": "view",
					"type": "function"
				},
				{
					"inputs": [],
					"name": "candidateList",
					"outputs": [
						{
							"components": [
								{
									"internalType": "string",
									"name": "name",
									"type": "string"
								},
								{
									"internalType": "uint256",
									"name": "age",
									"type": "uint256"
								},
								{
									"internalType": "string",
									"name": "party",
									"type": "string"
								},
								{
									"internalType": "uint256",
									"name": "candidateID",
									"type": "uint256"
								},
								{
									"internalType": "string",
									"name": "gender",
									"type": "string"
								},
								{
									"internalType": "address",
									"name": "candidateAddress",
									"type": "address"
								},
								{
									"internalType": "uint256",
									"name": "votes",
									"type": "uint256"
								}
							],
							"internalType": "struct VotingContract.Candidate[]",
							"name": "",
							"type": "tuple[]"
						}
					],
					"stateMutability": "view",
					"type": "function"
				},
				{
					"inputs": [
						{
							"internalType": "string",
							"name": "_name",
							"type": "string"
						},
						{
							"internalType": "uint256",
							"name": "_age",
							"type": "uint256"
						},
						{
							"internalType": "string",
							"name": "_party",
							"type": "string"
						},
						{
							"internalType": "string",
							"name": "_gender",
							"type": "string"
						}
					],
					"name": "candidateRegister",
					"outputs": [],
					"stateMutability": "nonpayable",
					"type": "function"
				},
				{
					"inputs": [
						{
							"internalType": "uint256",
							"name": "_registrationStart",
							"type": "uint256"
						},
						{
							"internalType": "uint256",
							"name": "_registrationStop",
							"type": "uint256"
						}
					],
					"name": "candidateRegistrationSet",
					"outputs": [],
					"stateMutability": "nonpayable",
					"type": "function"
				},
				{
					"inputs": [],
					"name": "selectWinner",
					"outputs": [
						{
							"internalType": "address",
							"name": "",
							"type": "address"
						}
					],
					"stateMutability": "nonpayable",
					"type": "function"
				},
				{
					"inputs": [
						{
							"internalType": "uint256",
							"name": "_voterID",
							"type": "uint256"
						},
						{
							"internalType": "uint256",
							"name": "_ID",
							"type": "uint256"
						}
					],
					"name": "vote",
					"outputs": [],
					"stateMutability": "nonpayable",
					"type": "function"
				},
				{
					"inputs": [],
					"name": "voterList",
					"outputs": [
						{
							"components": [
								{
									"internalType": "string",
									"name": "name",
									"type": "string"
								},
								{
									"internalType": "uint256",
									"name": "age",
									"type": "uint256"
								},
								{
									"internalType": "uint256",
									"name": "voterID",
									"type": "uint256"
								},
								{
									"internalType": "string",
									"name": "gender",
									"type": "string"
								},
								{
									"internalType": "uint256",
									"name": "voteCandidateID",
									"type": "uint256"
								},
								{
									"internalType": "address",
									"name": "voterAddress",
									"type": "address"
								}
							],
							"internalType": "struct VotingContract.Voter[]",
							"name": "",
							"type": "tuple[]"
						}
					],
					"stateMutability": "view",
					"type": "function"
				},
				{
					"inputs": [
						{
							"internalType": "string",
							"name": "_name",
							"type": "string"
						},
						{
							"internalType": "uint256",
							"name": "_age",
							"type": "uint256"
						},
						{
							"internalType": "string",
							"name": "_gender",
							"type": "string"
						}
					],
					"name": "voterRegistration",
					"outputs": [],
					"stateMutability": "nonpayable",
					"type": "function"
				},
				{
					"inputs": [
						{
							"internalType": "uint256",
							"name": "_registrationStart",
							"type": "uint256"
						},
						{
							"internalType": "uint256",
							"name": "_registrationStop",
							"type": "uint256"
						}
					],
					"name": "voterRegistrationSet",
					"outputs": [],
					"stateMutability": "nonpayable",
					"type": "function"
				},
				{
					"inputs": [
						{
							"internalType": "uint256",
							"name": "_startTime",
							"type": "uint256"
						},
						{
							"internalType": "uint256",
							"name": "_endTime",
							"type": "uint256"
						}
					],
					"name": "votingPeriodSet",
					"outputs": [],
					"stateMutability": "nonpayable",
					"type": "function"
				},
				{
					"inputs": [],
					"name": "winner",
					"outputs": [
						{
							"internalType": "address",
							"name": "",
							"type": "address"
						}
					],
					"stateMutability": "view",
					"type": "function"
				}
			],
			"devdoc": {
				"kind": "dev",
				"methods": {},
				"version": 1
			},
			"evm": {
				"assembly": "    /* \"Voting Contract/contracts/myVoting.sol\":73:8093  contract VotingContract{... */\n  mstore(0x40, 0x80)\n    /* \"Voting Contract/contracts/myVoting.sol\":637:642  false */\n  0x00\n    /* \"Voting Contract/contracts/myVoting.sol\":602:642  bool candidate_Registration_Time = false */\n  0x02\n  exp(0x0100, 0x00)\n  dup2\n  sload\n  dup2\n  0xff\n  mul\n  not\n  and\n  swap1\n  dup4\n  iszero\n  iszero\n  mul\n  or\n  swap1\n  sstore\n  pop\n    /* \"Voting Contract/contracts/myVoting.sol\":790:795  false */\n  0x00\n    /* \"Voting Contract/contracts/myVoting.sol\":759:795  bool voter_Registration_Time = false */\n  0x05\n  exp(0x0100, 0x00)\n  dup2\n  sload\n  dup2\n  0xff\n  mul\n  not\n  and\n  swap1\n  dup4\n  iszero\n  iszero\n  mul\n  or\n  swap1\n  sstore\n  pop\n    /* \"Voting Contract/contracts/myVoting.sol\":904:909  false */\n  0x00\n    /* \"Voting Contract/contracts/myVoting.sol\":876:909  bool votingConductionTime = false */\n  0x08\n  exp(0x0100, 0x00)\n  dup2\n  sload\n  dup2\n  0xff\n  mul\n  not\n  and\n  swap1\n  dup4\n  iszero\n  iszero\n  mul\n  or\n  swap1\n  sstore\n  pop\n    /* \"Voting Contract/contracts/myVoting.sol\":1196:1197  1 */\n  0x01\n    /* \"Voting Contract/contracts/myVoting.sol\":1177:1197  uint nextVoterID = 1 */\n  0x0d\n  sstore\n    /* \"Voting Contract/contracts/myVoting.sol\":1265:1266  1 */\n  0x01\n    /* \"Voting Contract/contracts/myVoting.sol\":1242:1266  uint nextCandidateID = 1 */\n  0x0e\n  sstore\n    /* \"Voting Contract/contracts/myVoting.sol\":1323:1328  false */\n  0x00\n    /* \"Voting Contract/contracts/myVoting.sol\":1305:1328  bool stopVoting = false */\n  0x0f\n  exp(0x0100, 0x00)\n  dup2\n  sload\n  dup2\n  0xff\n  mul\n  not\n  and\n  swap1\n  dup4\n  iszero\n  iszero\n  mul\n  or\n  swap1\n  sstore\n  pop\n    /* \"Voting Contract/contracts/myVoting.sol\":1337:1520  constructor(){... */\n  callvalue\n  dup1\n  iszero\n  tag_1\n  jumpi\n  0x00\n  dup1\n  revert\ntag_1:\n  pop\n    /* \"Voting Contract/contracts/myVoting.sol\":1381:1391  msg.sender */\n  caller\n    /* \"Voting Contract/contracts/myVoting.sol\":1361:1378  ElectionComission */\n  0x0b\n  0x00\n    /* \"Voting Contract/contracts/myVoting.sol\":1361:1391  ElectionComission = msg.sender */\n  0x0100\n  exp\n  dup2\n  sload\n  dup2\n  0xffffffffffffffffffffffffffffffffffffffff\n  mul\n  not\n  and\n  swap1\n  dup4\n  0xffffffffffffffffffffffffffffffffffffffff\n  and\n  mul\n  or\n  swap1\n  sstore\n  pop\n    /* \"Voting Contract/contracts/myVoting.sol\":1430:1488  Voter(\"EC\", 20, nextVoterID, \"Male\", 0, ElectionComission) */\n  mload(0x40)\n  dup1\n  0xc0\n  add\n  0x40\n  mstore\n  dup1\n  mload(0x40)\n  dup1\n  0x40\n  add\n  0x40\n  mstore\n  dup1\n  0x02\n  dup2\n  mstore\n  0x20\n  add\n  0x4543000000000000000000000000000000000000000000000000000000000000\n  dup2\n  mstore\n  pop\n  dup2\n  mstore\n  0x20\n  add\n    /* \"Voting Contract/contracts/myVoting.sol\":1442:1444  20 */\n  0x14\n    /* \"Voting Contract/contracts/myVoting.sol\":1430:1488  Voter(\"EC\", 20, nextVoterID, \"Male\", 0, ElectionComission) */\n  dup2\n  mstore\n  0x20\n  add\n    /* \"Voting Contract/contracts/myVoting.sol\":1446:1457  nextVoterID */\n  sload(0x0d)\n    /* \"Voting Contract/contracts/myVoting.sol\":1430:1488  Voter(\"EC\", 20, nextVoterID, \"Male\", 0, ElectionComission) */\n  dup2\n  mstore\n  0x20\n  add\n  mload(0x40)\n  dup1\n  0x40\n  add\n  0x40\n  mstore\n  dup1\n  0x04\n  dup2\n  mstore\n  0x20\n  add\n  0x4d616c6500000000000000000000000000000000000000000000000000000000\n  dup2\n  mstore\n  pop\n  dup2\n  mstore\n  0x20\n  add\n    /* \"Voting Contract/contracts/myVoting.sol\":1467:1468  0 */\n  0x00\n    /* \"Voting Contract/contracts/myVoting.sol\":1430:1488  Voter(\"EC\", 20, nextVoterID, \"Male\", 0, ElectionComission) */\n  dup2\n  mstore\n  0x20\n  add\n    /* \"Voting Contract/contracts/myVoting.sol\":1470:1487  ElectionComission */\n  0x0b\n  0x00\n  swap1\n  sload\n  swap1\n  0x0100\n  exp\n  swap1\n  div\n  0xffffffffffffffffffffffffffffffffffffffff\n  and\n    /* \"Voting Contract/contracts/myVoting.sol\":1430:1488  Voter(\"EC\", 20, nextVoterID, \"Male\", 0, ElectionComission) */\n  0xffffffffffffffffffffffffffffffffffffffff\n  and\n  dup2\n  mstore\n  pop\n    /* \"Voting Contract/contracts/myVoting.sol\":1402:1414  VoterDetails */\n  0x0a\n    /* \"Voting Contract/contracts/myVoting.sol\":1402:1427  VoterDetails[nextVoterID] */\n  0x00\n    /* \"Voting Contract/contracts/myVoting.sol\":1415:1426  nextVoterID */\n  sload(0x0d)\n    /* \"Voting Contract/contracts/myVoting.sol\":1402:1427  VoterDetails[nextVoterID] */\n  dup2\n  mstore\n  0x20\n  add\n  swap1\n  dup2\n  mstore\n  0x20\n  add\n  0x00\n  keccak256\n    /* \"Voting Contract/contracts/myVoting.sol\":1402:1488  VoterDetails[nextVoterID] = Voter(\"EC\", 20, nextVoterID, \"Male\", 0, ElectionComission) */\n  0x00\n  dup3\n  add\n  mload\n  dup2\n  0x00\n  add\n  swap1\n  dup2\n  tag_4\n  swap2\n  swap1\n  tag_5\n  jump\t// in\ntag_4:\n  pop\n  0x20\n  dup3\n  add\n  mload\n  dup2\n  0x01\n  add\n  sstore\n  0x40\n  dup3\n  add\n  mload\n  dup2\n  0x02\n  add\n  sstore\n  0x60\n  dup3\n  add\n  mload\n  dup2\n  0x03\n  add\n  swap1\n  dup2\n  tag_6\n  swap2\n  swap1\n  tag_5\n  jump\t// in\ntag_6:\n  pop\n  0x80\n  dup3\n  add\n  mload\n  dup2\n  0x04\n  add\n  sstore\n  0xa0\n  dup3\n  add\n  mload\n  dup2\n  0x05\n  add\n  exp(0x0100, 0x00)\n  dup2\n  sload\n  dup2\n  0xffffffffffffffffffffffffffffffffffffffff\n  mul\n  not\n  and\n  swap1\n  dup4\n  0xffffffffffffffffffffffffffffffffffffffff\n  and\n  mul\n  or\n  swap1\n  sstore\n  pop\n  swap1\n  pop\n  pop\n    /* \"Voting Contract/contracts/myVoting.sol\":1499:1510  nextVoterID */\n  0x0d\n  0x00\n    /* \"Voting Contract/contracts/myVoting.sol\":1499:1512  nextVoterID++ */\n  dup2\n  sload\n  dup1\n  swap3\n  swap2\n  swap1\n  tag_7\n  swap1\n  tag_8\n  jump\t// in\ntag_7:\n  swap2\n  swap1\n  pop\n  sstore\n  pop\n    /* \"Voting Contract/contracts/myVoting.sol\":73:8093  contract VotingContract{... */\n  jump(tag_9)\n    /* \"#utility.yul\":7:106   */\ntag_10:\n    /* \"#utility.yul\":59:65   */\n  0x00\n    /* \"#utility.yul\":93:98   */\n  dup2\n    /* \"#utility.yul\":87:99   */\n  mload\n    /* \"#utility.yul\":77:99   */\n  swap1\n  pop\n    /* \"#utility.yul\":7:106   */\n  swap2\n  swap1\n  pop\n  jump\t// out\n    /* \"#utility.yul\":112:292   */\ntag_11:\n    /* \"#utility.yul\":160:237   */\n  0x4e487b7100000000000000000000000000000000000000000000000000000000\n    /* \"#utility.yul\":157:158   */\n  0x00\n    /* \"#utility.yul\":150:238   */\n  mstore\n    /* \"#utility.yul\":257:261   */\n  0x41\n    /* \"#utility.yul\":254:255   */\n  0x04\n    /* \"#utility.yul\":247:262   */\n  mstore\n    /* \"#utility.yul\":281:285   */\n  0x24\n    /* \"#utility.yul\":278:279   */\n  0x00\n    /* \"#utility.yul\":271:286   */\n  revert\n    /* \"#utility.yul\":298:478   */\ntag_12:\n    /* \"#utility.yul\":346:423   */\n  0x4e487b7100000000000000000000000000000000000000000000000000000000\n    /* \"#utility.yul\":343:344   */\n  0x00\n    /* \"#utility.yul\":336:424   */\n  mstore\n    /* \"#utility.yul\":443:447   */\n  0x22\n    /* \"#utility.yul\":440:441   */\n  0x04\n    /* \"#utility.yul\":433:448   */\n  mstore\n    /* \"#utility.yul\":467:471   */\n  0x24\n    /* \"#utility.yul\":464:465   */\n  0x00\n    /* \"#utility.yul\":457:472   */\n  revert\n    /* \"#utility.yul\":484:804   */\ntag_13:\n    /* \"#utility.yul\":528:534   */\n  0x00\n    /* \"#utility.yul\":565:566   */\n  0x02\n    /* \"#utility.yul\":559:563   */\n  dup3\n    /* \"#utility.yul\":555:567   */\n  div\n    /* \"#utility.yul\":545:567   */\n  swap1\n  pop\n    /* \"#utility.yul\":612:613   */\n  0x01\n    /* \"#utility.yul\":606:610   */\n  dup3\n    /* \"#utility.yul\":602:614   */\n  and\n    /* \"#utility.yul\":633:651   */\n  dup1\n    /* \"#utility.yul\":623:704   */\n  tag_36\n  jumpi\n    /* \"#utility.yul\":689:693   */\n  0x7f\n    /* \"#utility.yul\":681:687   */\n  dup3\n    /* \"#utility.yul\":677:694   */\n  and\n    /* \"#utility.yul\":667:694   */\n  swap2\n  pop\n    /* \"#utility.yul\":623:704   */\ntag_36:\n    /* \"#utility.yul\":751:753   */\n  0x20\n    /* \"#utility.yul\":743:749   */\n  dup3\n    /* \"#utility.yul\":740:754   */\n  lt\n    /* \"#utility.yul\":720:738   */\n  dup2\n    /* \"#utility.yul\":717:755   */\n  sub\n    /* \"#utility.yul\":714:798   */\n  tag_37\n  jumpi\n    /* \"#utility.yul\":770:788   */\n  tag_38\n  tag_12\n  jump\t// in\ntag_38:\n    /* \"#utility.yul\":714:798   */\ntag_37:\n    /* \"#utility.yul\":535:804   */\n  pop\n    /* \"#utility.yul\":484:804   */\n  swap2\n  swap1\n  pop\n  jump\t// out\n    /* \"#utility.yul\":810:951   */\ntag_14:\n    /* \"#utility.yul\":859:863   */\n  0x00\n    /* \"#utility.yul\":882:885   */\n  dup2\n    /* \"#utility.yul\":874:885   */\n  swap1\n  pop\n    /* \"#utility.yul\":905:908   */\n  dup2\n    /* \"#utility.yul\":902:903   */\n  0x00\n    /* \"#utility.yul\":895:909   */\n  mstore\n    /* \"#utility.yul\":939:943   */\n  0x20\n    /* \"#utility.yul\":936:937   */\n  0x00\n    /* \"#utility.yul\":926:944   */\n  keccak256\n    /* \"#utility.yul\":918:944   */\n  swap1\n  pop\n    /* \"#utility.yul\":810:951   */\n  swap2\n  swap1\n  pop\n  jump\t// out\n    /* \"#utility.yul\":957:1050   */\ntag_15:\n    /* \"#utility.yul\":994:1000   */\n  0x00\n    /* \"#utility.yul\":1041:1043   */\n  0x20\n    /* \"#utility.yul\":1036:1038   */\n  0x1f\n    /* \"#utility.yul\":1029:1034   */\n  dup4\n    /* \"#utility.yul\":1025:1039   */\n  add\n    /* \"#utility.yul\":1021:1044   */\n  div\n    /* \"#utility.yul\":1011:1044   */\n  swap1\n  pop\n    /* \"#utility.yul\":957:1050   */\n  swap2\n  swap1\n  pop\n  jump\t// out\n    /* \"#utility.yul\":1056:1163   */\ntag_16:\n    /* \"#utility.yul\":1100:1108   */\n  0x00\n    /* \"#utility.yul\":1150:1155   */\n  dup3\n    /* \"#utility.yul\":1144:1148   */\n  dup3\n    /* \"#utility.yul\":1140:1156   */\n  shl\n    /* \"#utility.yul\":1119:1156   */\n  swap1\n  pop\n    /* \"#utility.yul\":1056:1163   */\n  swap3\n  swap2\n  pop\n  pop\n  jump\t// out\n    /* \"#utility.yul\":1169:1562   */\ntag_17:\n    /* \"#utility.yul\":1238:1244   */\n  0x00\n    /* \"#utility.yul\":1288:1289   */\n  0x08\n    /* \"#utility.yul\":1276:1286   */\n  dup4\n    /* \"#utility.yul\":1272:1290   */\n  mul\n    /* \"#utility.yul\":1311:1408   */\n  tag_43\n    /* \"#utility.yul\":1341:1407   */\n  0xffffffffffffffffffffffffffffffffffffffffffffffffffffffffffffffff\n    /* \"#utility.yul\":1330:1339   */\n  dup3\n    /* \"#utility.yul\":1311:1408   */\n  tag_16\n  jump\t// in\ntag_43:\n    /* \"#utility.yul\":1429:1468   */\n  tag_44\n    /* \"#utility.yul\":1459:1467   */\n  dup7\n    /* \"#utility.yul\":1448:1457   */\n  dup4\n    /* \"#utility.yul\":1429:1468   */\n  tag_16\n  jump\t// in\ntag_44:\n    /* \"#utility.yul\":1417:1468   */\n  swap6\n  pop\n    /* \"#utility.yul\":1501:1505   */\n  dup1\n    /* \"#utility.yul\":1497:1506   */\n  not\n    /* \"#utility.yul\":1490:1495   */\n  dup5\n    /* \"#utility.yul\":1486:1507   */\n  and\n    /* \"#utility.yul\":1477:1507   */\n  swap4\n  pop\n    /* \"#utility.yul\":1550:1554   */\n  dup1\n    /* \"#utility.yul\":1540:1548   */\n  dup7\n    /* \"#utility.yul\":1536:1555   */\n  and\n    /* \"#utility.yul\":1529:1534   */\n  dup5\n    /* \"#utility.yul\":1526:1556   */\n  or\n    /* \"#utility.yul\":1516:1556   */\n  swap3\n  pop\n    /* \"#utility.yul\":1245:1562   */\n  pop\n  pop\n    /* \"#utility.yul\":1169:1562   */\n  swap4\n  swap3\n  pop\n  pop\n  pop\n  jump\t// out\n    /* \"#utility.yul\":1568:1645   */\ntag_18:\n    /* \"#utility.yul\":1605:1612   */\n  0x00\n    /* \"#utility.yul\":1634:1639   */\n  dup2\n    /* \"#utility.yul\":1623:1639   */\n  swap1\n  pop\n    /* \"#utility.yul\":1568:1645   */\n  swap2\n  swap1\n  pop\n  jump\t// out\n    /* \"#utility.yul\":1651:1711   */\ntag_19:\n    /* \"#utility.yul\":1679:1682   */\n  0x00\n    /* \"#utility.yul\":1700:1705   */\n  dup2\n    /* \"#utility.yul\":1693:1705   */\n  swap1\n  pop\n    /* \"#utility.yul\":1651:1711   */\n  swap2\n  swap1\n  pop\n  jump\t// out\n    /* \"#utility.yul\":1717:1859   */\ntag_20:\n    /* \"#utility.yul\":1767:1776   */\n  0x00\n    /* \"#utility.yul\":1800:1853   */\n  tag_48\n    /* \"#utility.yul\":1818:1852   */\n  tag_49\n    /* \"#utility.yul\":1827:1851   */\n  tag_50\n    /* \"#utility.yul\":1845:1850   */\n  dup5\n    /* \"#utility.yul\":1827:1851   */\n  tag_18\n  jump\t// in\ntag_50:\n    /* \"#utility.yul\":1818:1852   */\n  tag_19\n  jump\t// in\ntag_49:\n    /* \"#utility.yul\":1800:1853   */\n  tag_18\n  jump\t// in\ntag_48:\n    /* \"#utility.yul\":1787:1853   */\n  swap1\n  pop\n    /* \"#utility.yul\":1717:1859   */\n  swap2\n  swap1\n  pop\n  jump\t// out\n    /* \"#utility.yul\":1865:1940   */\ntag_21:\n    /* \"#utility.yul\":1908:1911   */\n  0x00\n    /* \"#utility.yul\":1929:1934   */\n  dup2\n    /* \"#utility.yul\":1922:1934   */\n  swap1\n  pop\n    /* \"#utility.yul\":1865:1940   */\n  swap2\n  swap1\n  pop\n  jump\t// out\n    /* \"#utility.yul\":1946:2215   */\ntag_22:\n    /* \"#utility.yul\":2056:2095   */\n  tag_53\n    /* \"#utility.yul\":2087:2094   */\n  dup4\n    /* \"#utility.yul\":2056:2095   */\n  tag_20\n  jump\t// in\ntag_53:\n    /* \"#utility.yul\":2117:2208   */\n  tag_54\n    /* \"#utility.yul\":2166:2207   */\n  tag_55\n    /* \"#utility.yul\":2190:2206   */\n  dup3\n    /* \"#utility.yul\":2166:2207   */\n  tag_21\n  jump\t// in\ntag_55:\n    /* \"#utility.yul\":2158:2164   */\n  dup5\n    /* \"#utility.yul\":2151:2155   */\n  dup5\n    /* \"#utility.yul\":2145:2156   */\n  sload\n    /* \"#utility.yul\":2117:2208   */\n  tag_17\n  jump\t// in\ntag_54:\n    /* \"#utility.yul\":2111:2115   */\n  dup3\n    /* \"#utility.yul\":2104:2209   */\n  sstore\n    /* \"#utility.yul\":2022:2215   */\n  pop\n    /* \"#utility.yul\":1946:2215   */\n  pop\n  pop\n  pop\n  jump\t// out\n    /* \"#utility.yul\":2221:2294   */\ntag_23:\n    /* \"#utility.yul\":2266:2269   */\n  0x00\n    /* \"#utility.yul\":2221:2294   */\n  swap1\n  jump\t// out\n    /* \"#utility.yul\":2300:2489   */\ntag_24:\n    /* \"#utility.yul\":2377:2409   */\n  tag_58\n  tag_23\n  jump\t// in\ntag_58:\n    /* \"#utility.yul\":2418:2483   */\n  tag_59\n    /* \"#utility.yul\":2476:2482   */\n  dup2\n    /* \"#utility.yul\":2468:2474   */\n  dup5\n    /* \"#utility.yul\":2462:2466   */\n  dup5\n    /* \"#utility.yul\":2418:2483   */\n  tag_22\n  jump\t// in\ntag_59:\n    /* \"#utility.yul\":2353:2489   */\n  pop\n    /* \"#utility.yul\":2300:2489   */\n  pop\n  pop\n  jump\t// out\n    /* \"#utility.yul\":2495:2681   */\ntag_25:\n    /* \"#utility.yul\":2555:2675   */\ntag_61:\n    /* \"#utility.yul\":2572:2575   */\n  dup2\n    /* \"#utility.yul\":2565:2570   */\n  dup2\n    /* \"#utility.yul\":2562:2576   */\n  lt\n    /* \"#utility.yul\":2555:2675   */\n  iszero\n  tag_63\n  jumpi\n    /* \"#utility.yul\":2626:2665   */\n  tag_64\n    /* \"#utility.yul\":2663:2664   */\n  0x00\n    /* \"#utility.yul\":2656:2661   */\n  dup3\n    /* \"#utility.yul\":2626:2665   */\n  tag_24\n  jump\t// in\ntag_64:\n    /* \"#utility.yul\":2599:2600   */\n  0x01\n    /* \"#utility.yul\":2592:2597   */\n  dup2\n    /* \"#utility.yul\":2588:2601   */\n  add\n    /* \"#utility.yul\":2579:2601   */\n  swap1\n  pop\n    /* \"#utility.yul\":2555:2675   */\n  jump(tag_61)\ntag_63:\n    /* \"#utility.yul\":2495:2681   */\n  pop\n  pop\n  jump\t// out\n    /* \"#utility.yul\":2687:3230   */\ntag_26:\n    /* \"#utility.yul\":2788:2790   */\n  0x1f\n    /* \"#utility.yul\":2783:2786   */\n  dup3\n    /* \"#utility.yul\":2780:2791   */\n  gt\n    /* \"#utility.yul\":2777:3223   */\n  iszero\n  tag_66\n  jumpi\n    /* \"#utility.yul\":2822:2860   */\n  tag_67\n    /* \"#utility.yul\":2854:2859   */\n  dup2\n    /* \"#utility.yul\":2822:2860   */\n  tag_14\n  jump\t// in\ntag_67:\n    /* \"#utility.yul\":2906:2935   */\n  tag_68\n    /* \"#utility.yul\":2924:2934   */\n  dup5\n    /* \"#utility.yul\":2906:2935   */\n  tag_15\n  jump\t// in\ntag_68:\n    /* \"#utility.yul\":2896:2904   */\n  dup2\n    /* \"#utility.yul\":2892:2936   */\n  add\n    /* \"#utility.yul\":3089:3091   */\n  0x20\n    /* \"#utility.yul\":3077:3087   */\n  dup6\n    /* \"#utility.yul\":3074:3092   */\n  lt\n    /* \"#utility.yul\":3071:3120   */\n  iszero\n  tag_69\n  jumpi\n    /* \"#utility.yul\":3110:3118   */\n  dup2\n    /* \"#utility.yul\":3095:3118   */\n  swap1\n  pop\n    /* \"#utility.yul\":3071:3120   */\ntag_69:\n    /* \"#utility.yul\":3133:3213   */\n  tag_70\n    /* \"#utility.yul\":3189:3211   */\n  tag_71\n    /* \"#utility.yul\":3207:3210   */\n  dup6\n    /* \"#utility.yul\":3189:3211   */\n  tag_15\n  jump\t// in\ntag_71:\n    /* \"#utility.yul\":3179:3187   */\n  dup4\n    /* \"#utility.yul\":3175:3212   */\n  add\n    /* \"#utility.yul\":3162:3173   */\n  dup3\n    /* \"#utility.yul\":3133:3213   */\n  tag_25\n  jump\t// in\ntag_70:\n    /* \"#utility.yul\":2792:3223   */\n  pop\n  pop\n    /* \"#utility.yul\":2777:3223   */\ntag_66:\n    /* \"#utility.yul\":2687:3230   */\n  pop\n  pop\n  pop\n  jump\t// out\n    /* \"#utility.yul\":3236:3353   */\ntag_27:\n    /* \"#utility.yul\":3290:3298   */\n  0x00\n    /* \"#utility.yul\":3340:3345   */\n  dup3\n    /* \"#utility.yul\":3334:3338   */\n  dup3\n    /* \"#utility.yul\":3330:3346   */\n  shr\n    /* \"#utility.yul\":3309:3346   */\n  swap1\n  pop\n    /* \"#utility.yul\":3236:3353   */\n  swap3\n  swap2\n  pop\n  pop\n  jump\t// out\n    /* \"#utility.yul\":3359:3528   */\ntag_28:\n    /* \"#utility.yul\":3403:3409   */\n  0x00\n    /* \"#utility.yul\":3436:3487   */\n  tag_74\n    /* \"#utility.yul\":3484:3485   */\n  0x00\n    /* \"#utility.yul\":3480:3486   */\n  not\n    /* \"#utility.yul\":3472:3477   */\n  dup5\n    /* \"#utility.yul\":3469:3470   */\n  0x08\n    /* \"#utility.yul\":3465:3478   */\n  mul\n    /* \"#utility.yul\":3436:3487   */\n  tag_27\n  jump\t// in\ntag_74:\n    /* \"#utility.yul\":3432:3488   */\n  not\n    /* \"#utility.yul\":3517:3521   */\n  dup1\n    /* \"#utility.yul\":3511:3515   */\n  dup4\n    /* \"#utility.yul\":3507:3522   */\n  and\n    /* \"#utility.yul\":3497:3522   */\n  swap2\n  pop\n    /* \"#utility.yul\":3410:3528   */\n  pop\n    /* \"#utility.yul\":3359:3528   */\n  swap3\n  swap2\n  pop\n  pop\n  jump\t// out\n    /* \"#utility.yul\":3533:3828   */\ntag_29:\n    /* \"#utility.yul\":3609:3613   */\n  0x00\n    /* \"#utility.yul\":3755:3784   */\n  tag_76\n    /* \"#utility.yul\":3780:3783   */\n  dup4\n    /* \"#utility.yul\":3774:3778   */\n  dup4\n    /* \"#utility.yul\":3755:3784   */\n  tag_28\n  jump\t// in\ntag_76:\n    /* \"#utility.yul\":3747:3784   */\n  swap2\n  pop\n    /* \"#utility.yul\":3817:3820   */\n  dup3\n    /* \"#utility.yul\":3814:3815   */\n  0x02\n    /* \"#utility.yul\":3810:3821   */\n  mul\n    /* \"#utility.yul\":3804:3808   */\n  dup3\n    /* \"#utility.yul\":3801:3822   */\n  or\n    /* \"#utility.yul\":3793:3822   */\n  swap1\n  pop\n    /* \"#utility.yul\":3533:3828   */\n  swap3\n  swap2\n  pop\n  pop\n  jump\t// out\n    /* \"#utility.yul\":3833:5228   */\ntag_5:\n    /* \"#utility.yul\":3950:3987   */\n  tag_78\n    /* \"#utility.yul\":3983:3986   */\n  dup3\n    /* \"#utility.yul\":3950:3987   */\n  tag_10\n  jump\t// in\ntag_78:\n    /* \"#utility.yul\":4052:4070   */\n  0xffffffffffffffff\n    /* \"#utility.yul\":4044:4050   */\n  dup2\n    /* \"#utility.yul\":4041:4071   */\n  gt\n    /* \"#utility.yul\":4038:4094   */\n  iszero\n  tag_79\n  jumpi\n    /* \"#utility.yul\":4074:4092   */\n  tag_80\n  tag_11\n  jump\t// in\ntag_80:\n    /* \"#utility.yul\":4038:4094   */\ntag_79:\n    /* \"#utility.yul\":4118:4156   */\n  tag_81\n    /* \"#utility.yul\":4150:4154   */\n  dup3\n    /* \"#utility.yul\":4144:4155   */\n  sload\n    /* \"#utility.yul\":4118:4156   */\n  tag_13\n  jump\t// in\ntag_81:\n    /* \"#utility.yul\":4203:4270   */\n  tag_82\n    /* \"#utility.yul\":4263:4269   */\n  dup3\n    /* \"#utility.yul\":4255:4261   */\n  dup3\n    /* \"#utility.yul\":4249:4253   */\n  dup6\n    /* \"#utility.yul\":4203:4270   */\n  tag_26\n  jump\t// in\ntag_82:\n    /* \"#utility.yul\":4297:4298   */\n  0x00\n    /* \"#utility.yul\":4321:4325   */\n  0x20\n    /* \"#utility.yul\":4308:4325   */\n  swap1\n  pop\n    /* \"#utility.yul\":4353:4355   */\n  0x1f\n    /* \"#utility.yul\":4345:4351   */\n  dup4\n    /* \"#utility.yul\":4342:4356   */\n  gt\n    /* \"#utility.yul\":4370:4371   */\n  0x01\n    /* \"#utility.yul\":4365:4983   */\n  dup2\n  eq\n  tag_84\n  jumpi\n    /* \"#utility.yul\":5027:5028   */\n  0x00\n    /* \"#utility.yul\":5044:5050   */\n  dup5\n    /* \"#utility.yul\":5041:5118   */\n  iszero\n  tag_85\n  jumpi\n    /* \"#utility.yul\":5093:5102   */\n  dup3\n    /* \"#utility.yul\":5088:5091   */\n  dup8\n    /* \"#utility.yul\":5084:5103   */\n  add\n    /* \"#utility.yul\":5078:5104   */\n  mload\n    /* \"#utility.yul\":5069:5104   */\n  swap1\n  pop\n    /* \"#utility.yul\":5041:5118   */\ntag_85:\n    /* \"#utility.yul\":5144:5211   */\n  tag_86\n    /* \"#utility.yul\":5204:5210   */\n  dup6\n    /* \"#utility.yul\":5197:5202   */\n  dup3\n    /* \"#utility.yul\":5144:5211   */\n  tag_29\n  jump\t// in\ntag_86:\n    /* \"#utility.yul\":5138:5142   */\n  dup7\n    /* \"#utility.yul\":5131:5212   */\n  sstore\n    /* \"#utility.yul\":5000:5222   */\n  pop\n    /* \"#utility.yul\":4335:5222   */\n  jump(tag_83)\n    /* \"#utility.yul\":4365:4983   */\ntag_84:\n    /* \"#utility.yul\":4417:4421   */\n  0x1f\n    /* \"#utility.yul\":4413:4422   */\n  not\n    /* \"#utility.yul\":4405:4411   */\n  dup5\n    /* \"#utility.yul\":4401:4423   */\n  and\n    /* \"#utility.yul\":4451:4488   */\n  tag_87\n    /* \"#utility.yul\":4483:4487   */\n  dup7\n    /* \"#utility.yul\":4451:4488   */\n  tag_14\n  jump\t// in\ntag_87:\n    /* \"#utility.yul\":4510:4511   */\n  0x00\n    /* \"#utility.yul\":4524:4732   */\ntag_88:\n    /* \"#utility.yul\":4538:4545   */\n  dup3\n    /* \"#utility.yul\":4535:4536   */\n  dup2\n    /* \"#utility.yul\":4532:4546   */\n  lt\n    /* \"#utility.yul\":4524:4732   */\n  iszero\n  tag_90\n  jumpi\n    /* \"#utility.yul\":4617:4626   */\n  dup5\n    /* \"#utility.yul\":4612:4615   */\n  dup10\n    /* \"#utility.yul\":4608:4627   */\n  add\n    /* \"#utility.yul\":4602:4628   */\n  mload\n    /* \"#utility.yul\":4594:4600   */\n  dup3\n    /* \"#utility.yul\":4587:4629   */\n  sstore\n    /* \"#utility.yul\":4668:4669   */\n  0x01\n    /* \"#utility.yul\":4660:4666   */\n  dup3\n    /* \"#utility.yul\":4656:4670   */\n  add\n    /* \"#utility.yul\":4646:4670   */\n  swap2\n  pop\n    /* \"#utility.yul\":4715:4717   */\n  0x20\n    /* \"#utility.yul\":4704:4713   */\n  dup6\n    /* \"#utility.yul\":4700:4718   */\n  add\n    /* \"#utility.yul\":4687:4718   */\n  swap5\n  pop\n    /* \"#utility.yul\":4561:4565   */\n  0x20\n    /* \"#utility.yul\":4558:4559   */\n  dup2\n    /* \"#utility.yul\":4554:4566   */\n  add\n    /* \"#utility.yul\":4549:4566   */\n  swap1\n  pop\n    /* \"#utility.yul\":4524:4732   */\n  jump(tag_88)\ntag_90:\n    /* \"#utility.yul\":4760:4766   */\n  dup7\n    /* \"#utility.yul\":4751:4758   */\n  dup4\n    /* \"#utility.yul\":4748:4767   */\n  lt\n    /* \"#utility.yul\":4745:4924   */\n  iszero\n  tag_91\n  jumpi\n    /* \"#utility.yul\":4818:4827   */\n  dup5\n    /* \"#utility.yul\":4813:4816   */\n  dup10\n    /* \"#utility.yul\":4809:4828   */\n  add\n    /* \"#utility.yul\":4803:4829   */\n  mload\n    /* \"#utility.yul\":4861:4909   */\n  tag_92\n    /* \"#utility.yul\":4903:4907   */\n  0x1f\n    /* \"#utility.yul\":4895:4901   */\n  dup10\n    /* \"#utility.yul\":4891:4908   */\n  and\n    /* \"#utility.yul\":4880:4889   */\n  dup3\n    /* \"#utility.yul\":4861:4909   */\n  tag_28\n  jump\t// in\ntag_92:\n    /* \"#utility.yul\":4853:4859   */\n  dup4\n    /* \"#utility.yul\":4846:4910   */\n  sstore\n    /* \"#utility.yul\":4768:4924   */\n  pop\n    /* \"#utility.yul\":4745:4924   */\ntag_91:\n    /* \"#utility.yul\":4970:4971   */\n  0x01\n    /* \"#utility.yul\":4966:4967   */\n  0x02\n    /* \"#utility.yul\":4958:4964   */\n  dup9\n    /* \"#utility.yul\":4954:4968   */\n  mul\n    /* \"#utility.yul\":4950:4972   */\n  add\n    /* \"#utility.yul\":4944:4948   */\n  dup9\n    /* \"#utility.yul\":4937:4973   */\n  sstore\n    /* \"#utility.yul\":4372:4983   */\n  pop\n  pop\n  pop\n    /* \"#utility.yul\":4335:5222   */\ntag_83:\n  pop\n    /* \"#utility.yul\":3925:5228   */\n  pop\n  pop\n  pop\n    /* \"#utility.yul\":3833:5228   */\n  pop\n  pop\n  jump\t// out\n    /* \"#utility.yul\":5234:5414   */\ntag_30:\n    /* \"#utility.yul\":5282:5359   */\n  0x4e487b7100000000000000000000000000000000000000000000000000000000\n    /* \"#utility.yul\":5279:5280   */\n  0x00\n    /* \"#utility.yul\":5272:5360   */\n  mstore\n    /* \"#utility.yul\":5379:5383   */\n  0x11\n    /* \"#utility.yul\":5376:5377   */\n  0x04\n    /* \"#utility.yul\":5369:5384   */\n  mstore\n    /* \"#utility.yul\":5403:5407   */\n  0x24\n    /* \"#utility.yul\":5400:5401   */\n  0x00\n    /* \"#utility.yul\":5393:5408   */\n  revert\n    /* \"#utility.yul\":5420:5653   */\ntag_8:\n    /* \"#utility.yul\":5459:5462   */\n  0x00\n    /* \"#utility.yul\":5482:5506   */\n  tag_95\n    /* \"#utility.yul\":5500:5505   */\n  dup3\n    /* \"#utility.yul\":5482:5506   */\n  tag_18\n  jump\t// in\ntag_95:\n    /* \"#utility.yul\":5473:5506   */\n  swap2\n  pop\n    /* \"#utility.yul\":5528:5594   */\n  0xffffffffffffffffffffffffffffffffffffffffffffffffffffffffffffffff\n    /* \"#utility.yul\":5521:5526   */\n  dup3\n    /* \"#utility.yul\":5518:5595   */\n  sub\n    /* \"#utility.yul\":5515:5618   */\n  tag_96\n  jumpi\n    /* \"#utility.yul\":5598:5616   */\n  tag_97\n  tag_30\n  jump\t// in\ntag_97:\n    /* \"#utility.yul\":5515:5618   */\ntag_96:\n    /* \"#utility.yul\":5645:5646   */\n  0x01\n    /* \"#utility.yul\":5638:5643   */\n  dup3\n    /* \"#utility.yul\":5634:5647   */\n  add\n    /* \"#utility.yul\":5627:5647   */\n  swap1\n  pop\n    /* \"#utility.yul\":5420:5653   */\n  swap2\n  swap1\n  pop\n  jump\t// out\n    /* \"Voting Contract/contracts/myVoting.sol\":73:8093  contract VotingContract{... */\ntag_9:\n  dataSize(sub_0)\n  dup1\n  dataOffset(sub_0)\n  0x00\n  codecopy\n  0x00\n  return\nstop\n\nsub_0: assembly {\n        /* \"Voting Contract/contracts/myVoting.sol\":73:8093  contract VotingContract{... */\n      mstore(0x40, 0x80)\n      callvalue\n      dup1\n      iszero\n      tag_1\n      jumpi\n      0x00\n      dup1\n      revert\n    tag_1:\n      pop\n      jumpi(tag_2, lt(calldatasize, 0x04))\n      shr(0xe0, calldataload(0x00))\n      dup1\n      0x6d2bc1eb\n      gt\n      tag_15\n      jumpi\n      dup1\n      0x6d2bc1eb\n      eq\n      tag_9\n      jumpi\n      dup1\n      0x7da0e15e\n      eq\n      tag_10\n      jumpi\n      dup1\n      0xb384abef\n      eq\n      tag_11\n      jumpi\n      dup1\n      0xc0636b91\n      eq\n      tag_12\n      jumpi\n      dup1\n      0xdfbf53ae\n      eq\n      tag_13\n      jumpi\n      dup1\n      0xf83f40db\n      eq\n      tag_14\n      jumpi\n      jump(tag_2)\n    tag_15:\n      dup1\n      0x24089918\n      eq\n      tag_3\n      jumpi\n      dup1\n      0x33a99e04\n      eq\n      tag_4\n      jumpi\n      dup1\n      0x498ea441\n      eq\n      tag_5\n      jumpi\n      dup1\n      0x5042746c\n      eq\n      tag_6\n      jumpi\n      dup1\n      0x5d74b023\n      eq\n      tag_7\n      jumpi\n      dup1\n      0x69042bec\n      eq\n      tag_8\n      jumpi\n    tag_2:\n      0x00\n      dup1\n      revert\n        /* \"Voting Contract/contracts/myVoting.sol\":6255:6515  function voterList() public view returns(Voter[] memory){... */\n    tag_3:\n      tag_16\n      tag_17\n      jump\t// in\n    tag_16:\n      mload(0x40)\n      tag_18\n      swap2\n      swap1\n      tag_19\n      jump\t// in\n    tag_18:\n      mload(0x40)\n      dup1\n      swap2\n      sub\n      swap1\n      return\n        /* \"Voting Contract/contracts/myVoting.sol\":7432:8090  function selectWinner() public onlyElectionComission() returns(address){... */\n    tag_4:\n      tag_20\n      tag_21\n      jump\t// in\n    tag_20:\n      mload(0x40)\n      tag_22\n      swap2\n      swap1\n      tag_23\n      jump\t// in\n    tag_22:\n      mload(0x40)\n      dup1\n      swap2\n      sub\n      swap1\n      return\n        /* \"Voting Contract/contracts/myVoting.sol\":6523:6823  function candidateList() public view returns(Candidate[] memory){... */\n    tag_5:\n      tag_24\n      tag_25\n      jump\t// in\n    tag_24:\n      mload(0x40)\n      tag_26\n      swap2\n      swap1\n      tag_27\n      jump\t// in\n    tag_26:\n      mload(0x40)\n      dup1\n      swap2\n      sub\n      swap1\n      return\n        /* \"Voting Contract/contracts/myVoting.sol\":4932:5310  function voterRegistrationSet(uint _registrationStart, uint _registrationStop) public onlyElectionComission() {... */\n    tag_6:\n      tag_28\n      0x04\n      dup1\n      calldatasize\n      sub\n      dup2\n      add\n      swap1\n      tag_29\n      swap2\n      swap1\n      tag_30\n      jump\t// in\n    tag_29:\n      tag_31\n      jump\t// in\n    tag_28:\n      stop\n        /* \"Voting Contract/contracts/myVoting.sol\":4230:4635  function voterRegistration(... */\n    tag_7:\n      tag_32\n      0x04\n      dup1\n      calldatasize\n      sub\n      dup2\n      add\n      swap1\n      tag_33\n      swap2\n      swap1\n      tag_34\n      jump\t// in\n    tag_33:\n      tag_35\n      jump\t// in\n    tag_32:\n      stop\n        /* \"Voting Contract/contracts/myVoting.sol\":2418:3154  function candidateRegister(... */\n    tag_8:\n      tag_36\n      0x04\n      dup1\n      calldatasize\n      sub\n      dup2\n      add\n      swap1\n      tag_37\n      swap2\n      swap1\n      tag_38\n      jump\t// in\n    tag_37:\n      tag_39\n      jump\t// in\n    tag_36:\n      stop\n        /* \"Voting Contract/contracts/myVoting.sol\":945:993  mapping(uint=>Candidate) public CandidateDetails */\n    tag_9:\n      tag_40\n      0x04\n      dup1\n      calldatasize\n      sub\n      dup2\n      add\n      swap1\n      tag_41\n      swap2\n      swap1\n      tag_42\n      jump\t// in\n    tag_41:\n      tag_43\n      jump\t// in\n    tag_40:\n      mload(0x40)\n      tag_44\n      swap8\n      swap7\n      swap6\n      swap5\n      swap4\n      swap3\n      swap2\n      swap1\n      tag_45\n      jump\t// in\n    tag_44:\n      mload(0x40)\n      dup1\n      swap2\n      sub\n      swap1\n      return\n        /* \"Voting Contract/contracts/myVoting.sol\":1000:1040  mapping(uint=>Voter) public VoterDetails */\n    tag_10:\n      tag_46\n      0x04\n      dup1\n      calldatasize\n      sub\n      dup2\n      add\n      swap1\n      tag_47\n      swap2\n      swap1\n      tag_42\n      jump\t// in\n    tag_47:\n      tag_48\n      jump\t// in\n    tag_46:\n      mload(0x40)\n      tag_49\n      swap7\n      swap6\n      swap5\n      swap4\n      swap3\n      swap2\n      swap1\n      tag_50\n      jump\t// in\n    tag_49:\n      mload(0x40)\n      dup1\n      swap2\n      sub\n      swap1\n      return\n        /* \"Voting Contract/contracts/myVoting.sol\":6832:7424  function vote(uint _voterID, uint _ID) external {... */\n    tag_11:\n      tag_51\n      0x04\n      dup1\n      calldatasize\n      sub\n      dup2\n      add\n      swap1\n      tag_52\n      swap2\n      swap1\n      tag_30\n      jump\t// in\n    tag_52:\n      tag_53\n      jump\t// in\n    tag_51:\n      stop\n        /* \"Voting Contract/contracts/myVoting.sol\":5494:6081  function votingPeriodSet(uint _startTime, uint _endTime) public {... */\n    tag_12:\n      tag_54\n      0x04\n      dup1\n      calldatasize\n      sub\n      dup2\n      add\n      swap1\n      tag_55\n      swap2\n      swap1\n      tag_30\n      jump\t// in\n    tag_55:\n      tag_56\n      jump\t// in\n    tag_54:\n      stop\n        /* \"Voting Contract/contracts/myVoting.sol\":1128:1149  address public winner */\n    tag_13:\n      tag_57\n      tag_58\n      jump\t// in\n    tag_57:\n      mload(0x40)\n      tag_59\n      swap2\n      swap1\n      tag_23\n      jump\t// in\n    tag_59:\n      mload(0x40)\n      dup1\n      swap2\n      sub\n      swap1\n      return\n        /* \"Voting Contract/contracts/myVoting.sol\":3546:3944  function candidateRegistrationSet(uint _registrationStart, uint _registrationStop) public onlyElectionComission() {... */\n    tag_14:\n      tag_60\n      0x04\n      dup1\n      calldatasize\n      sub\n      dup2\n      add\n      swap1\n      tag_61\n      swap2\n      swap1\n      tag_30\n      jump\t// in\n    tag_61:\n      tag_62\n      jump\t// in\n    tag_60:\n      stop\n        /* \"Voting Contract/contracts/myVoting.sol\":6255:6515  function voterList() public view returns(Voter[] memory){... */\n    tag_17:\n        /* \"Voting Contract/contracts/myVoting.sol\":6296:6310  Voter[] memory */\n      0x60\n        /* \"Voting Contract/contracts/myVoting.sol\":6322:6347  Voter[] memory votersList */\n      0x00\n        /* \"Voting Contract/contracts/myVoting.sol\":6374:6375  1 */\n      0x01\n        /* \"Voting Contract/contracts/myVoting.sol\":6362:6373  nextVoterID */\n      sload(0x0d)\n        /* \"Voting Contract/contracts/myVoting.sol\":6362:6375  nextVoterID-1 */\n      tag_64\n      swap2\n      swap1\n      tag_65\n      jump\t// in\n    tag_64:\n        /* \"Voting Contract/contracts/myVoting.sol\":6350:6376  new Voter[](nextVoterID-1) */\n      0xffffffffffffffff\n      dup2\n      gt\n      iszero\n      tag_66\n      jumpi\n      tag_67\n      tag_68\n      jump\t// in\n    tag_67:\n    tag_66:\n      mload(0x40)\n      swap1\n      dup1\n      dup3\n      mstore\n      dup1\n      0x20\n      mul\n      0x20\n      add\n      dup3\n      add\n      0x40\n      mstore\n      dup1\n      iszero\n      tag_69\n      jumpi\n      dup2\n      0x20\n      add\n    tag_70:\n      tag_71\n      tag_72\n      jump\t// in\n    tag_71:\n      dup2\n      mstore\n      0x20\n      add\n      swap1\n      0x01\n      swap1\n      sub\n      swap1\n      dup2\n      tag_70\n      jumpi\n      swap1\n      pop\n    tag_69:\n      pop\n        /* \"Voting Contract/contracts/myVoting.sol\":6322:6376  Voter[] memory votersList = new Voter[](nextVoterID-1) */\n      swap1\n      pop\n        /* \"Voting Contract/contracts/myVoting.sol\":6391:6397  uint i */\n      0x00\n        /* \"Voting Contract/contracts/myVoting.sol\":6398:6399  1 */\n      0x01\n        /* \"Voting Contract/contracts/myVoting.sol\":6391:6399  uint i=1 */\n      swap1\n      pop\n        /* \"Voting Contract/contracts/myVoting.sol\":6387:6480  for(uint i=1; i<nextVoterID; i++){... */\n    tag_73:\n        /* \"Voting Contract/contracts/myVoting.sol\":6403:6414  nextVoterID */\n      sload(0x0d)\n        /* \"Voting Contract/contracts/myVoting.sol\":6401:6402  i */\n      dup2\n        /* \"Voting Contract/contracts/myVoting.sol\":6401:6414  i<nextVoterID */\n      lt\n        /* \"Voting Contract/contracts/myVoting.sol\":6387:6480  for(uint i=1; i<nextVoterID; i++){... */\n      iszero\n      tag_74\n      jumpi\n        /* \"Voting Contract/contracts/myVoting.sol\":6453:6465  VoterDetails */\n      0x0a\n        /* \"Voting Contract/contracts/myVoting.sol\":6453:6468  VoterDetails[i] */\n      0x00\n        /* \"Voting Contract/contracts/myVoting.sol\":6466:6467  i */\n      dup3\n        /* \"Voting Contract/contracts/myVoting.sol\":6453:6468  VoterDetails[i] */\n      dup2\n      mstore\n      0x20\n      add\n      swap1\n      dup2\n      mstore\n      0x20\n      add\n      0x00\n      keccak256\n        /* \"Voting Contract/contracts/myVoting.sol\":6435:6468  votersList[i-1] = VoterDetails[i] */\n      mload(0x40)\n      dup1\n      0xc0\n      add\n      0x40\n      mstore\n      swap1\n      dup2\n      0x00\n      dup3\n      add\n      dup1\n      sload\n      tag_76\n      swap1\n      tag_77\n      jump\t// in\n    tag_76:\n      dup1\n      0x1f\n      add\n      0x20\n      dup1\n      swap2\n      div\n      mul\n      0x20\n      add\n      mload(0x40)\n      swap1\n      dup2\n      add\n      0x40\n      mstore\n      dup1\n      swap3\n      swap2\n      swap1\n      dup2\n      dup2\n      mstore\n      0x20\n      add\n      dup3\n      dup1\n      sload\n      tag_78\n      swap1\n      tag_77\n      jump\t// in\n    tag_78:\n      dup1\n      iszero\n      tag_79\n      jumpi\n      dup1\n      0x1f\n      lt\n      tag_80\n      jumpi\n      0x0100\n      dup1\n      dup4\n      sload\n      div\n      mul\n      dup4\n      mstore\n      swap2\n      0x20\n      add\n      swap2\n      jump(tag_79)\n    tag_80:\n      dup3\n      add\n      swap2\n      swap1\n      0x00\n      mstore\n      keccak256(0x00, 0x20)\n      swap1\n    tag_81:\n      dup2\n      sload\n      dup2\n      mstore\n      swap1\n      0x01\n      add\n      swap1\n      0x20\n      add\n      dup1\n      dup4\n      gt\n      tag_81\n      jumpi\n      dup3\n      swap1\n      sub\n      0x1f\n      and\n      dup3\n      add\n      swap2\n    tag_79:\n      pop\n      pop\n      pop\n      pop\n      pop\n      dup2\n      mstore\n      0x20\n      add\n      0x01\n      dup3\n      add\n      sload\n      dup2\n      mstore\n      0x20\n      add\n      0x02\n      dup3\n      add\n      sload\n      dup2\n      mstore\n      0x20\n      add\n      0x03\n      dup3\n      add\n      dup1\n      sload\n      tag_82\n      swap1\n      tag_77\n      jump\t// in\n    tag_82:\n      dup1\n      0x1f\n      add\n      0x20\n      dup1\n      swap2\n      div\n      mul\n      0x20\n      add\n      mload(0x40)\n      swap1\n      dup2\n      add\n      0x40\n      mstore\n      dup1\n      swap3\n      swap2\n      swap1\n      dup2\n      dup2\n      mstore\n      0x20\n      add\n      dup3\n      dup1\n      sload\n      tag_83\n      swap1\n      tag_77\n      jump\t// in\n    tag_83:\n      dup1\n      iszero\n      tag_84\n      jumpi\n      dup1\n      0x1f\n      lt\n      tag_85\n      jumpi\n      0x0100\n      dup1\n      dup4\n      sload\n      div\n      mul\n      dup4\n      mstore\n      swap2\n      0x20\n      add\n      swap2\n      jump(tag_84)\n    tag_85:\n      dup3\n      add\n      swap2\n      swap1\n      0x00\n      mstore\n      keccak256(0x00, 0x20)\n      swap1\n    tag_86:\n      dup2\n      sload\n      dup2\n      mstore\n      swap1\n      0x01\n      add\n      swap1\n      0x20\n      add\n      dup1\n      dup4\n      gt\n      tag_86\n      jumpi\n      dup3\n      swap1\n      sub\n      0x1f\n      and\n      dup3\n      add\n      swap2\n    tag_84:\n      pop\n      pop\n      pop\n      pop\n      pop\n      dup2\n      mstore\n      0x20\n      add\n      0x04\n      dup3\n      add\n      sload\n      dup2\n      mstore\n      0x20\n      add\n      0x05\n      dup3\n      add\n      0x00\n      swap1\n      sload\n      swap1\n      0x0100\n      exp\n      swap1\n      div\n      0xffffffffffffffffffffffffffffffffffffffff\n      and\n      0xffffffffffffffffffffffffffffffffffffffff\n      and\n      0xffffffffffffffffffffffffffffffffffffffff\n      and\n      dup2\n      mstore\n      pop\n      pop\n        /* \"Voting Contract/contracts/myVoting.sol\":6435:6445  votersList */\n      dup3\n        /* \"Voting Contract/contracts/myVoting.sol\":6448:6449  1 */\n      0x01\n        /* \"Voting Contract/contracts/myVoting.sol\":6446:6447  i */\n      dup4\n        /* \"Voting Contract/contracts/myVoting.sol\":6446:6449  i-1 */\n      tag_87\n      swap2\n      swap1\n      tag_65\n      jump\t// in\n    tag_87:\n        /* \"Voting Contract/contracts/myVoting.sol\":6435:6450  votersList[i-1] */\n      dup2\n      mload\n      dup2\n      lt\n      tag_88\n      jumpi\n      tag_89\n      tag_90\n      jump\t// in\n    tag_89:\n    tag_88:\n      0x20\n      mul\n      0x20\n      add\n      add\n        /* \"Voting Contract/contracts/myVoting.sol\":6435:6468  votersList[i-1] = VoterDetails[i] */\n      dup2\n      swap1\n      mstore\n      pop\n        /* \"Voting Contract/contracts/myVoting.sol\":6416:6419  i++ */\n      dup1\n      dup1\n      tag_91\n      swap1\n      tag_92\n      jump\t// in\n    tag_91:\n      swap2\n      pop\n      pop\n        /* \"Voting Contract/contracts/myVoting.sol\":6387:6480  for(uint i=1; i<nextVoterID; i++){... */\n      jump(tag_73)\n    tag_74:\n      pop\n        /* \"Voting Contract/contracts/myVoting.sol\":6497:6507  votersList */\n      dup1\n        /* \"Voting Contract/contracts/myVoting.sol\":6490:6507  return votersList */\n      swap2\n      pop\n      pop\n        /* \"Voting Contract/contracts/myVoting.sol\":6255:6515  function voterList() public view returns(Voter[] memory){... */\n      swap1\n      jump\t// out\n        /* \"Voting Contract/contracts/myVoting.sol\":7432:8090  function selectWinner() public onlyElectionComission() returns(address){... */\n    tag_21:\n        /* \"Voting Contract/contracts/myVoting.sol\":7495:7502  address */\n      0x00\n        /* \"Voting Contract/contracts/myVoting.sol\":1594:1611  ElectionComission */\n      0x0b\n      0x00\n      swap1\n      sload\n      swap1\n      0x0100\n      exp\n      swap1\n      div\n      0xffffffffffffffffffffffffffffffffffffffff\n      and\n        /* \"Voting Contract/contracts/myVoting.sol\":1580:1611  msg.sender == ElectionComission */\n      0xffffffffffffffffffffffffffffffffffffffff\n      and\n        /* \"Voting Contract/contracts/myVoting.sol\":1580:1590  msg.sender */\n      caller\n        /* \"Voting Contract/contracts/myVoting.sol\":1580:1611  msg.sender == ElectionComission */\n      0xffffffffffffffffffffffffffffffffffffffff\n      and\n      eq\n        /* \"Voting Contract/contracts/myVoting.sol\":1572:1651  require(msg.sender == ElectionComission, \"You are not from election comission\") */\n      tag_94\n      jumpi\n      mload(0x40)\n      0x08c379a000000000000000000000000000000000000000000000000000000000\n      dup2\n      mstore\n      0x04\n      add\n      tag_95\n      swap1\n      tag_96\n      jump\t// in\n    tag_95:\n      mload(0x40)\n      dup1\n      swap2\n      sub\n      swap1\n      revert\n    tag_94:\n        /* \"Voting Contract/contracts/myVoting.sol\":7538:7563  candidate_Registraion_End */\n      sload(0x01)\n        /* \"Voting Contract/contracts/myVoting.sol\":7522:7537  block.timestamp */\n      timestamp\n        /* \"Voting Contract/contracts/myVoting.sol\":7522:7563  block.timestamp>candidate_Registraion_End */\n      gt\n        /* \"Voting Contract/contracts/myVoting.sol\":7522:7596  block.timestamp>candidate_Registraion_End && candidate_Registraion_End !=0 */\n      dup1\n      iszero\n      tag_98\n      jumpi\n      pop\n        /* \"Voting Contract/contracts/myVoting.sol\":7595:7596  0 */\n      0x00\n        /* \"Voting Contract/contracts/myVoting.sol\":7567:7592  candidate_Registraion_End */\n      sload(0x01)\n        /* \"Voting Contract/contracts/myVoting.sol\":7567:7596  candidate_Registraion_End !=0 */\n      eq\n      iszero\n        /* \"Voting Contract/contracts/myVoting.sol\":7522:7596  block.timestamp>candidate_Registraion_End && candidate_Registraion_End !=0 */\n    tag_98:\n        /* \"Voting Contract/contracts/myVoting.sol\":7514:7653  require(block.timestamp>candidate_Registraion_End && candidate_Registraion_End !=0,... */\n      tag_99\n      jumpi\n      mload(0x40)\n      0x08c379a000000000000000000000000000000000000000000000000000000000\n      dup2\n      mstore\n      0x04\n      add\n      tag_100\n      swap1\n      tag_101\n      jump\t// in\n    tag_100:\n      mload(0x40)\n      dup1\n      swap2\n      sub\n      swap1\n      revert\n    tag_99:\n        /* \"Voting Contract/contracts/myVoting.sol\":7689:7710  voting_Conduction_End */\n      sload(0x07)\n        /* \"Voting Contract/contracts/myVoting.sol\":7673:7688  block.timestamp */\n      timestamp\n        /* \"Voting Contract/contracts/myVoting.sol\":7673:7710  block.timestamp>voting_Conduction_End */\n      gt\n        /* \"Voting Contract/contracts/myVoting.sol\":7673:7739  block.timestamp>voting_Conduction_End && voting_Conduction_End !=0 */\n      dup1\n      iszero\n      tag_102\n      jumpi\n      pop\n        /* \"Voting Contract/contracts/myVoting.sol\":7738:7739  0 */\n      0x00\n        /* \"Voting Contract/contracts/myVoting.sol\":7714:7735  voting_Conduction_End */\n      sload(0x07)\n        /* \"Voting Contract/contracts/myVoting.sol\":7714:7739  voting_Conduction_End !=0 */\n      eq\n      iszero\n        /* \"Voting Contract/contracts/myVoting.sol\":7673:7739  block.timestamp>voting_Conduction_End && voting_Conduction_End !=0 */\n    tag_102:\n        /* \"Voting Contract/contracts/myVoting.sol\":7665:7797  require(block.timestamp>voting_Conduction_End && voting_Conduction_End !=0,... */\n      tag_103\n      jumpi\n      mload(0x40)\n      0x08c379a000000000000000000000000000000000000000000000000000000000\n      dup2\n      mstore\n      0x04\n      add\n      tag_104\n      swap1\n      tag_105\n      jump\t// in\n    tag_104:\n      mload(0x40)\n      dup1\n      swap2\n      sub\n      swap1\n      revert\n    tag_103:\n        /* \"Voting Contract/contracts/myVoting.sol\":7808:7816  uint max */\n      0x00\n        /* \"Voting Contract/contracts/myVoting.sol\":7834:7840  uint i */\n      dup1\n        /* \"Voting Contract/contracts/myVoting.sol\":7841:7842  1 */\n      0x01\n        /* \"Voting Contract/contracts/myVoting.sol\":7834:7842  uint i=1 */\n      swap1\n      pop\n        /* \"Voting Contract/contracts/myVoting.sol\":7830:8059  for(uint i=1; i< nextCandidateID; i++){... */\n    tag_106:\n        /* \"Voting Contract/contracts/myVoting.sol\":7847:7862  nextCandidateID */\n      sload(0x0e)\n        /* \"Voting Contract/contracts/myVoting.sol\":7844:7845  i */\n      dup2\n        /* \"Voting Contract/contracts/myVoting.sol\":7844:7862  i< nextCandidateID */\n      lt\n        /* \"Voting Contract/contracts/myVoting.sol\":7830:8059  for(uint i=1; i< nextCandidateID; i++){... */\n      iszero\n      tag_107\n      jumpi\n        /* \"Voting Contract/contracts/myVoting.sol\":7914:7917  max */\n      dup2\n        /* \"Voting Contract/contracts/myVoting.sol\":7886:7902  CandidateDetails */\n      0x09\n        /* \"Voting Contract/contracts/myVoting.sol\":7886:7905  CandidateDetails[i] */\n      0x00\n        /* \"Voting Contract/contracts/myVoting.sol\":7903:7904  i */\n      dup4\n        /* \"Voting Contract/contracts/myVoting.sol\":7886:7905  CandidateDetails[i] */\n      dup2\n      mstore\n      0x20\n      add\n      swap1\n      dup2\n      mstore\n      0x20\n      add\n      0x00\n      keccak256\n        /* \"Voting Contract/contracts/myVoting.sol\":7886:7911  CandidateDetails[i].votes */\n      0x06\n      add\n      sload\n        /* \"Voting Contract/contracts/myVoting.sol\":7886:7917  CandidateDetails[i].votes > max */\n      gt\n        /* \"Voting Contract/contracts/myVoting.sol\":7883:8048  if(CandidateDetails[i].votes > max){... */\n      iszero\n      tag_109\n      jumpi\n        /* \"Voting Contract/contracts/myVoting.sol\":7943:7959  CandidateDetails */\n      0x09\n        /* \"Voting Contract/contracts/myVoting.sol\":7943:7962  CandidateDetails[i] */\n      0x00\n        /* \"Voting Contract/contracts/myVoting.sol\":7960:7961  i */\n      dup3\n        /* \"Voting Contract/contracts/myVoting.sol\":7943:7962  CandidateDetails[i] */\n      dup2\n      mstore\n      0x20\n      add\n      swap1\n      dup2\n      mstore\n      0x20\n      add\n      0x00\n      keccak256\n        /* \"Voting Contract/contracts/myVoting.sol\":7943:7968  CandidateDetails[i].votes */\n      0x06\n      add\n      sload\n        /* \"Voting Contract/contracts/myVoting.sol\":7937:7968  max = CandidateDetails[i].votes */\n      swap2\n      pop\n        /* \"Voting Contract/contracts/myVoting.sol\":7996:8012  CandidateDetails */\n      0x09\n        /* \"Voting Contract/contracts/myVoting.sol\":7996:8015  CandidateDetails[i] */\n      0x00\n        /* \"Voting Contract/contracts/myVoting.sol\":8013:8014  i */\n      dup3\n        /* \"Voting Contract/contracts/myVoting.sol\":7996:8015  CandidateDetails[i] */\n      dup2\n      mstore\n      0x20\n      add\n      swap1\n      dup2\n      mstore\n      0x20\n      add\n      0x00\n      keccak256\n        /* \"Voting Contract/contracts/myVoting.sol\":7996:8032  CandidateDetails[i].candidateAddress */\n      0x05\n      add\n      0x00\n      swap1\n      sload\n      swap1\n      0x0100\n      exp\n      swap1\n      div\n      0xffffffffffffffffffffffffffffffffffffffff\n      and\n        /* \"Voting Contract/contracts/myVoting.sol\":7987:7993  winner */\n      0x0c\n      0x00\n        /* \"Voting Contract/contracts/myVoting.sol\":7987:8032  winner = CandidateDetails[i].candidateAddress */\n      0x0100\n      exp\n      dup2\n      sload\n      dup2\n      0xffffffffffffffffffffffffffffffffffffffff\n      mul\n      not\n      and\n      swap1\n      dup4\n      0xffffffffffffffffffffffffffffffffffffffff\n      and\n      mul\n      or\n      swap1\n      sstore\n      pop\n        /* \"Voting Contract/contracts/myVoting.sol\":7883:8048  if(CandidateDetails[i].votes > max){... */\n    tag_109:\n        /* \"Voting Contract/contracts/myVoting.sol\":7864:7867  i++ */\n      dup1\n      dup1\n      tag_110\n      swap1\n      tag_92\n      jump\t// in\n    tag_110:\n      swap2\n      pop\n      pop\n        /* \"Voting Contract/contracts/myVoting.sol\":7830:8059  for(uint i=1; i< nextCandidateID; i++){... */\n      jump(tag_106)\n    tag_107:\n      pop\n        /* \"Voting Contract/contracts/myVoting.sol\":8076:8082  winner */\n      0x0c\n      0x00\n      swap1\n      sload\n      swap1\n      0x0100\n      exp\n      swap1\n      div\n      0xffffffffffffffffffffffffffffffffffffffff\n      and\n        /* \"Voting Contract/contracts/myVoting.sol\":8069:8082  return winner */\n      swap2\n      pop\n      pop\n        /* \"Voting Contract/contracts/myVoting.sol\":7432:8090  function selectWinner() public onlyElectionComission() returns(address){... */\n      swap1\n      jump\t// out\n        /* \"Voting Contract/contracts/myVoting.sol\":6523:6823  function candidateList() public view returns(Candidate[] memory){... */\n    tag_25:\n        /* \"Voting Contract/contracts/myVoting.sol\":6568:6586  Candidate[] memory */\n      0x60\n        /* \"Voting Contract/contracts/myVoting.sol\":6598:6631  Candidate[] memory candidatesList */\n      0x00\n        /* \"Voting Contract/contracts/myVoting.sol\":6666:6667  1 */\n      0x01\n        /* \"Voting Contract/contracts/myVoting.sol\":6650:6665  nextCandidateID */\n      sload(0x0e)\n        /* \"Voting Contract/contracts/myVoting.sol\":6650:6667  nextCandidateID-1 */\n      tag_112\n      swap2\n      swap1\n      tag_65\n      jump\t// in\n    tag_112:\n        /* \"Voting Contract/contracts/myVoting.sol\":6634:6668  new Candidate[](nextCandidateID-1) */\n      0xffffffffffffffff\n      dup2\n      gt\n      iszero\n      tag_113\n      jumpi\n      tag_114\n      tag_68\n      jump\t// in\n    tag_114:\n    tag_113:\n      mload(0x40)\n      swap1\n      dup1\n      dup3\n      mstore\n      dup1\n      0x20\n      mul\n      0x20\n      add\n      dup3\n      add\n      0x40\n      mstore\n      dup1\n      iszero\n      tag_115\n      jumpi\n      dup2\n      0x20\n      add\n    tag_116:\n      tag_117\n      tag_118\n      jump\t// in\n    tag_117:\n      dup2\n      mstore\n      0x20\n      add\n      swap1\n      0x01\n      swap1\n      sub\n      swap1\n      dup2\n      tag_116\n      jumpi\n      swap1\n      pop\n    tag_115:\n      pop\n        /* \"Voting Contract/contracts/myVoting.sol\":6598:6668  Candidate[] memory candidatesList = new Candidate[](nextCandidateID-1) */\n      swap1\n      pop\n        /* \"Voting Contract/contracts/myVoting.sol\":6683:6689  uint i */\n      0x00\n        /* \"Voting Contract/contracts/myVoting.sol\":6690:6691  1 */\n      0x01\n        /* \"Voting Contract/contracts/myVoting.sol\":6683:6691  uint i=1 */\n      swap1\n      pop\n        /* \"Voting Contract/contracts/myVoting.sol\":6679:6784  for(uint i=1; i<nextCandidateID; i++){... */\n    tag_119:\n        /* \"Voting Contract/contracts/myVoting.sol\":6695:6710  nextCandidateID */\n      sload(0x0e)\n        /* \"Voting Contract/contracts/myVoting.sol\":6693:6694  i */\n      dup2\n        /* \"Voting Contract/contracts/myVoting.sol\":6693:6710  i<nextCandidateID */\n      lt\n        /* \"Voting Contract/contracts/myVoting.sol\":6679:6784  for(uint i=1; i<nextCandidateID; i++){... */\n      iszero\n      tag_120\n      jumpi\n        /* \"Voting Contract/contracts/myVoting.sol\":6753:6769  CandidateDetails */\n      0x09\n        /* \"Voting Contract/contracts/myVoting.sol\":6753:6772  CandidateDetails[i] */\n      0x00\n        /* \"Voting Contract/contracts/myVoting.sol\":6770:6771  i */\n      dup3\n        /* \"Voting Contract/contracts/myVoting.sol\":6753:6772  CandidateDetails[i] */\n      dup2\n      mstore\n      0x20\n      add\n      swap1\n      dup2\n      mstore\n      0x20\n      add\n      0x00\n      keccak256\n        /* \"Voting Contract/contracts/myVoting.sol\":6731:6772  candidatesList[i-1] = CandidateDetails[i] */\n      mload(0x40)\n      dup1\n      0xe0\n      add\n      0x40\n      mstore\n      swap1\n      dup2\n      0x00\n      dup3\n      add\n      dup1\n      sload\n      tag_122\n      swap1\n      tag_77\n      jump\t// in\n    tag_122:\n      dup1\n      0x1f\n      add\n      0x20\n      dup1\n      swap2\n      div\n      mul\n      0x20\n      add\n      mload(0x40)\n      swap1\n      dup2\n      add\n      0x40\n      mstore\n      dup1\n      swap3\n      swap2\n      swap1\n      dup2\n      dup2\n      mstore\n      0x20\n      add\n      dup3\n      dup1\n      sload\n      tag_123\n      swap1\n      tag_77\n      jump\t// in\n    tag_123:\n      dup1\n      iszero\n      tag_124\n      jumpi\n      dup1\n      0x1f\n      lt\n      tag_125\n      jumpi\n      0x0100\n      dup1\n      dup4\n      sload\n      div\n      mul\n      dup4\n      mstore\n      swap2\n      0x20\n      add\n      swap2\n      jump(tag_124)\n    tag_125:\n      dup3\n      add\n      swap2\n      swap1\n      0x00\n      mstore\n      keccak256(0x00, 0x20)\n      swap1\n    tag_126:\n      dup2\n      sload\n      dup2\n      mstore\n      swap1\n      0x01\n      add\n      swap1\n      0x20\n      add\n      dup1\n      dup4\n      gt\n      tag_126\n      jumpi\n      dup3\n      swap1\n      sub\n      0x1f\n      and\n      dup3\n      add\n      swap2\n    tag_124:\n      pop\n      pop\n      pop\n      pop\n      pop\n      dup2\n      mstore\n      0x20\n      add\n      0x01\n      dup3\n      add\n      sload\n      dup2\n      mstore\n      0x20\n      add\n      0x02\n      dup3\n      add\n      dup1\n      sload\n      tag_127\n      swap1\n      tag_77\n      jump\t// in\n    tag_127:\n      dup1\n      0x1f\n      add\n      0x20\n      dup1\n      swap2\n      div\n      mul\n      0x20\n      add\n      mload(0x40)\n      swap1\n      dup2\n      add\n      0x40\n      mstore\n      dup1\n      swap3\n      swap2\n      swap1\n      dup2\n      dup2\n      mstore\n      0x20\n      add\n      dup3\n      dup1\n      sload\n      tag_128\n      swap1\n      tag_77\n      jump\t// in\n    tag_128:\n      dup1\n      iszero\n      tag_129\n      jumpi\n      dup1\n      0x1f\n      lt\n      tag_130\n      jumpi\n      0x0100\n      dup1\n      dup4\n      sload\n      div\n      mul\n      dup4\n      mstore\n      swap2\n      0x20\n      add\n      swap2\n      jump(tag_129)\n    tag_130:\n      dup3\n      add\n      swap2\n      swap1\n      0x00\n      mstore\n      keccak256(0x00, 0x20)\n      swap1\n    tag_131:\n      dup2\n      sload\n      dup2\n      mstore\n      swap1\n      0x01\n      add\n      swap1\n      0x20\n      add\n      dup1\n      dup4\n      gt\n      tag_131\n      jumpi\n      dup3\n      swap1\n      sub\n      0x1f\n      and\n      dup3\n      add\n      swap2\n    tag_129:\n      pop\n      pop\n      pop\n      pop\n      pop\n      dup2\n      mstore\n      0x20\n      add\n      0x03\n      dup3\n      add\n      sload\n      dup2\n      mstore\n      0x20\n      add\n      0x04\n      dup3\n      add\n      dup1\n      sload\n      tag_132\n      swap1\n      tag_77\n      jump\t// in\n    tag_132:\n      dup1\n      0x1f\n      add\n      0x20\n      dup1\n      swap2\n      div\n      mul\n      0x20\n      add\n      mload(0x40)\n      swap1\n      dup2\n      add\n      0x40\n      mstore\n      dup1\n      swap3\n      swap2\n      swap1\n      dup2\n      dup2\n      mstore\n      0x20\n      add\n      dup3\n      dup1\n      sload\n      tag_133\n      swap1\n      tag_77\n      jump\t// in\n    tag_133:\n      dup1\n      iszero\n      tag_134\n      jumpi\n      dup1\n      0x1f\n      lt\n      tag_135\n      jumpi\n      0x0100\n      dup1\n      dup4\n      sload\n      div\n      mul\n      dup4\n      mstore\n      swap2\n      0x20\n      add\n      swap2\n      jump(tag_134)\n    tag_135:\n      dup3\n      add\n      swap2\n      swap1\n      0x00\n      mstore\n      keccak256(0x00, 0x20)\n      swap1\n    tag_136:\n      dup2\n      sload\n      dup2\n      mstore\n      swap1\n      0x01\n      add\n      swap1\n      0x20\n      add\n      dup1\n      dup4\n      gt\n      tag_136\n      jumpi\n      dup3\n      swap1\n      sub\n      0x1f\n      and\n      dup3\n      add\n      swap2\n    tag_134:\n      pop\n      pop\n      pop\n      pop\n      pop\n      dup2\n      mstore\n      0x20\n      add\n      0x05\n      dup3\n      add\n      0x00\n      swap1\n      sload\n      swap1\n      0x0100\n      exp\n      swap1\n      div\n      0xffffffffffffffffffffffffffffffffffffffff\n      and\n      0xffffffffffffffffffffffffffffffffffffffff\n      and\n      0xffffffffffffffffffffffffffffffffffffffff\n      and\n      dup2\n      mstore\n      0x20\n      add\n      0x06\n      dup3\n      add\n      sload\n      dup2\n      mstore\n      pop\n      pop\n        /* \"Voting Contract/contracts/myVoting.sol\":6731:6745  candidatesList */\n      dup3\n        /* \"Voting Contract/contracts/myVoting.sol\":6748:6749  1 */\n      0x01\n        /* \"Voting Contract/contracts/myVoting.sol\":6746:6747  i */\n      dup4\n        /* \"Voting Contract/contracts/myVoting.sol\":6746:6749  i-1 */\n      tag_137\n      swap2\n      swap1\n      tag_65\n      jump\t// in\n    tag_137:\n        /* \"Voting Contract/contracts/myVoting.sol\":6731:6750  candidatesList[i-1] */\n      dup2\n      mload\n      dup2\n      lt\n      tag_138\n      jumpi\n      tag_139\n      tag_90\n      jump\t// in\n    tag_139:\n    tag_138:\n      0x20\n      mul\n      0x20\n      add\n      add\n        /* \"Voting Contract/contracts/myVoting.sol\":6731:6772  candidatesList[i-1] = CandidateDetails[i] */\n      dup2\n      swap1\n      mstore\n      pop\n        /* \"Voting Contract/contracts/myVoting.sol\":6712:6715  i++ */\n      dup1\n      dup1\n      tag_140\n      swap1\n      tag_92\n      jump\t// in\n    tag_140:\n      swap2\n      pop\n      pop\n        /* \"Voting Contract/contracts/myVoting.sol\":6679:6784  for(uint i=1; i<nextCandidateID; i++){... */\n      jump(tag_119)\n    tag_120:\n      pop\n        /* \"Voting Contract/contracts/myVoting.sol\":6801:6815  candidatesList */\n      dup1\n        /* \"Voting Contract/contracts/myVoting.sol\":6794:6815  return candidatesList */\n      swap2\n      pop\n      pop\n        /* \"Voting Contract/contracts/myVoting.sol\":6523:6823  function candidateList() public view returns(Candidate[] memory){... */\n      swap1\n      jump\t// out\n        /* \"Voting Contract/contracts/myVoting.sol\":4932:5310  function voterRegistrationSet(uint _registrationStart, uint _registrationStop) public onlyElectionComission() {... */\n    tag_31:\n        /* \"Voting Contract/contracts/myVoting.sol\":1594:1611  ElectionComission */\n      0x0b\n      0x00\n      swap1\n      sload\n      swap1\n      0x0100\n      exp\n      swap1\n      div\n      0xffffffffffffffffffffffffffffffffffffffff\n      and\n        /* \"Voting Contract/contracts/myVoting.sol\":1580:1611  msg.sender == ElectionComission */\n      0xffffffffffffffffffffffffffffffffffffffff\n      and\n        /* \"Voting Contract/contracts/myVoting.sol\":1580:1590  msg.sender */\n      caller\n        /* \"Voting Contract/contracts/myVoting.sol\":1580:1611  msg.sender == ElectionComission */\n      0xffffffffffffffffffffffffffffffffffffffff\n      and\n      eq\n        /* \"Voting Contract/contracts/myVoting.sol\":1572:1651  require(msg.sender == ElectionComission, \"You are not from election comission\") */\n      tag_142\n      jumpi\n      mload(0x40)\n      0x08c379a000000000000000000000000000000000000000000000000000000000\n      dup2\n      mstore\n      0x04\n      add\n      tag_143\n      swap1\n      tag_96\n      jump\t// in\n    tag_143:\n      mload(0x40)\n      dup1\n      swap2\n      sub\n      swap1\n      revert\n    tag_142:\n        /* \"Voting Contract/contracts/myVoting.sol\":5083:5088  false */\n      0x00\n        /* \"Voting Contract/contracts/myVoting.sol\":5061:5088  votingConductionTime==false */\n      iszero\n      iszero\n        /* \"Voting Contract/contracts/myVoting.sol\":5061:5081  votingConductionTime */\n      0x08\n      0x00\n      swap1\n      sload\n      swap1\n      0x0100\n      exp\n      swap1\n      div\n      0xff\n      and\n        /* \"Voting Contract/contracts/myVoting.sol\":5061:5088  votingConductionTime==false */\n      iszero\n      iszero\n      eq\n        /* \"Voting Contract/contracts/myVoting.sol\":5053:5110  require(votingConductionTime==false, \"Voting is ongoing\") */\n      tag_145\n      jumpi\n      mload(0x40)\n      0x08c379a000000000000000000000000000000000000000000000000000000000\n      dup2\n      mstore\n      0x04\n      add\n      tag_146\n      swap1\n      tag_147\n      jump\t// in\n    tag_146:\n      mload(0x40)\n      dup1\n      swap2\n      sub\n      swap1\n      revert\n    tag_145:\n        /* \"Voting Contract/contracts/myVoting.sol\":5147:5151  true */\n      0x01\n        /* \"Voting Contract/contracts/myVoting.sol\":5121:5144  voter_Registration_Time */\n      0x05\n      0x00\n        /* \"Voting Contract/contracts/myVoting.sol\":5121:5151  voter_Registration_Time = true */\n      0x0100\n      exp\n      dup2\n      sload\n      dup2\n      0xff\n      mul\n      not\n      and\n      swap1\n      dup4\n      iszero\n      iszero\n      mul\n      or\n      swap1\n      sstore\n      pop\n        /* \"Voting Contract/contracts/myVoting.sol\":5206:5224  _registrationStart */\n      dup2\n        /* \"Voting Contract/contracts/myVoting.sol\":5188:5203  block.timestamp */\n      timestamp\n        /* \"Voting Contract/contracts/myVoting.sol\":5188:5224  block.timestamp + _registrationStart */\n      tag_148\n      swap2\n      swap1\n      tag_149\n      jump\t// in\n    tag_148:\n        /* \"Voting Contract/contracts/myVoting.sol\":5162:5185  voter_Registraion_Start */\n      0x03\n        /* \"Voting Contract/contracts/myVoting.sol\":5162:5224  voter_Registraion_Start = block.timestamp + _registrationStart */\n      dup2\n      swap1\n      sstore\n      pop\n        /* \"Voting Contract/contracts/myVoting.sol\":5285:5302  _registrationStop */\n      dup1\n        /* \"Voting Contract/contracts/myVoting.sol\":5259:5282  voter_Registraion_Start */\n      sload(0x03)\n        /* \"Voting Contract/contracts/myVoting.sol\":5259:5302  voter_Registraion_Start + _registrationStop */\n      tag_150\n      swap2\n      swap1\n      tag_149\n      jump\t// in\n    tag_150:\n        /* \"Voting Contract/contracts/myVoting.sol\":5235:5256  voter_Registraion_End */\n      0x04\n        /* \"Voting Contract/contracts/myVoting.sol\":5235:5302  voter_Registraion_End = voter_Registraion_Start + _registrationStop */\n      dup2\n      swap1\n      sstore\n      pop\n        /* \"Voting Contract/contracts/myVoting.sol\":4932:5310  function voterRegistrationSet(uint _registrationStart, uint _registrationStop) public onlyElectionComission() {... */\n      pop\n      pop\n      jump\t// out\n        /* \"Voting Contract/contracts/myVoting.sol\":4230:4635  function voterRegistration(... */\n    tag_35:\n        /* \"Voting Contract/contracts/myVoting.sol\":1991:2021  voterRegistrationPhaseStatus() */\n      tag_152\n        /* \"Voting Contract/contracts/myVoting.sol\":1991:2019  voterRegistrationPhaseStatus */\n      tag_153\n        /* \"Voting Contract/contracts/myVoting.sol\":1991:2021  voterRegistrationPhaseStatus() */\n      jump\t// in\n    tag_152:\n        /* \"Voting Contract/contracts/myVoting.sol\":2067:2071  true */\n      0x01\n        /* \"Voting Contract/contracts/myVoting.sol\":2040:2071  voter_Registration_Time == true */\n      iszero\n      iszero\n        /* \"Voting Contract/contracts/myVoting.sol\":2040:2063  voter_Registration_Time */\n      0x05\n      0x00\n      swap1\n      sload\n      swap1\n      0x0100\n      exp\n      swap1\n      div\n      0xff\n      and\n        /* \"Voting Contract/contracts/myVoting.sol\":2040:2071  voter_Registration_Time == true */\n      iszero\n      iszero\n      eq\n        /* \"Voting Contract/contracts/myVoting.sol\":2032:2104  require(voter_Registration_Time == true, \"Voter registration is closed\") */\n      tag_154\n      jumpi\n      mload(0x40)\n      0x08c379a000000000000000000000000000000000000000000000000000000000\n      dup2\n      mstore\n      0x04\n      add\n      tag_155\n      swap1\n      tag_156\n      jump\t// in\n    tag_155:\n      mload(0x40)\n      dup1\n      swap2\n      sub\n      swap1\n      revert\n    tag_154:\n        /* \"Voting Contract/contracts/myVoting.sol\":2145:2150  false */\n      0x00\n        /* \"Voting Contract/contracts/myVoting.sol\":2123:2150  votingConductionTime==false */\n      iszero\n      iszero\n        /* \"Voting Contract/contracts/myVoting.sol\":2123:2143  votingConductionTime */\n      0x08\n      0x00\n      swap1\n      sload\n      swap1\n      0x0100\n      exp\n      swap1\n      div\n      0xff\n      and\n        /* \"Voting Contract/contracts/myVoting.sol\":2123:2150  votingConductionTime==false */\n      iszero\n      iszero\n      eq\n        /* \"Voting Contract/contracts/myVoting.sol\":2115:2172  require(votingConductionTime==false, \"Voting is ongoing\") */\n      tag_157\n      jumpi\n      mload(0x40)\n      0x08c379a000000000000000000000000000000000000000000000000000000000\n      dup2\n      mstore\n      0x04\n      add\n      tag_158\n      swap1\n      tag_147\n      jump\t// in\n    tag_158:\n      mload(0x40)\n      dup1\n      swap2\n      sub\n      swap1\n      revert\n    tag_157:\n        /* \"Voting Contract/contracts/myVoting.sol\":4405:4407  18 */\n      0x12\n        /* \"Voting Contract/contracts/myVoting.sol\":4397:4401  _age */\n      dup3\n        /* \"Voting Contract/contracts/myVoting.sol\":4397:4407  _age >= 18 */\n      lt\n      iszero\n        /* \"Voting Contract/contracts/myVoting.sol\":4389:4430  require(_age >= 18, \"Youa are under age\") */\n      tag_160\n      jumpi\n      mload(0x40)\n      0x08c379a000000000000000000000000000000000000000000000000000000000\n      dup2\n      mstore\n      0x04\n      add\n      tag_161\n      swap1\n      tag_162\n      jump\t// in\n    tag_161:\n      mload(0x40)\n      dup1\n      swap2\n      sub\n      swap1\n      revert\n    tag_160:\n        /* \"Voting Contract/contracts/myVoting.sol\":4482:4486  true */\n      0x01\n        /* \"Voting Contract/contracts/myVoting.sol\":4449:4486  voterVerification(msg.sender) == true */\n      iszero\n      iszero\n        /* \"Voting Contract/contracts/myVoting.sol\":4449:4478  voterVerification(msg.sender) */\n      tag_163\n        /* \"Voting Contract/contracts/myVoting.sol\":4467:4477  msg.sender */\n      caller\n        /* \"Voting Contract/contracts/myVoting.sol\":4449:4466  voterVerification */\n      tag_164\n        /* \"Voting Contract/contracts/myVoting.sol\":4449:4478  voterVerification(msg.sender) */\n      jump\t// in\n    tag_163:\n        /* \"Voting Contract/contracts/myVoting.sol\":4449:4486  voterVerification(msg.sender) == true */\n      iszero\n      iszero\n      eq\n        /* \"Voting Contract/contracts/myVoting.sol\":4441:4508  require(voterVerification(msg.sender) == true, \"Already registerd\") */\n      tag_165\n      jumpi\n      mload(0x40)\n      0x08c379a000000000000000000000000000000000000000000000000000000000\n      dup2\n      mstore\n      0x04\n      add\n      tag_166\n      swap1\n      tag_167\n      jump\t// in\n    tag_166:\n      mload(0x40)\n      dup1\n      swap2\n      sub\n      swap1\n      revert\n    tag_165:\n        /* \"Voting Contract/contracts/myVoting.sol\":4548:4603  Voter(_name, _age, nextVoterID, _gender, 0, msg.sender) */\n      mload(0x40)\n      dup1\n      0xc0\n      add\n      0x40\n      mstore\n      dup1\n        /* \"Voting Contract/contracts/myVoting.sol\":4554:4559  _name */\n      dup5\n        /* \"Voting Contract/contracts/myVoting.sol\":4548:4603  Voter(_name, _age, nextVoterID, _gender, 0, msg.sender) */\n      dup2\n      mstore\n      0x20\n      add\n        /* \"Voting Contract/contracts/myVoting.sol\":4561:4565  _age */\n      dup4\n        /* \"Voting Contract/contracts/myVoting.sol\":4548:4603  Voter(_name, _age, nextVoterID, _gender, 0, msg.sender) */\n      dup2\n      mstore\n      0x20\n      add\n        /* \"Voting Contract/contracts/myVoting.sol\":4567:4578  nextVoterID */\n      sload(0x0d)\n        /* \"Voting Contract/contracts/myVoting.sol\":4548:4603  Voter(_name, _age, nextVoterID, _gender, 0, msg.sender) */\n      dup2\n      mstore\n      0x20\n      add\n        /* \"Voting Contract/contracts/myVoting.sol\":4580:4587  _gender */\n      dup3\n        /* \"Voting Contract/contracts/myVoting.sol\":4548:4603  Voter(_name, _age, nextVoterID, _gender, 0, msg.sender) */\n      dup2\n      mstore\n      0x20\n      add\n        /* \"Voting Contract/contracts/myVoting.sol\":4589:4590  0 */\n      0x00\n        /* \"Voting Contract/contracts/myVoting.sol\":4548:4603  Voter(_name, _age, nextVoterID, _gender, 0, msg.sender) */\n      dup2\n      mstore\n      0x20\n      add\n        /* \"Voting Contract/contracts/myVoting.sol\":4592:4602  msg.sender */\n      caller\n        /* \"Voting Contract/contracts/myVoting.sol\":4548:4603  Voter(_name, _age, nextVoterID, _gender, 0, msg.sender) */\n      0xffffffffffffffffffffffffffffffffffffffff\n      and\n      dup2\n      mstore\n      pop\n        /* \"Voting Contract/contracts/myVoting.sol\":4520:4532  VoterDetails */\n      0x0a\n        /* \"Voting Contract/contracts/myVoting.sol\":4520:4545  VoterDetails[nextVoterID] */\n      0x00\n        /* \"Voting Contract/contracts/myVoting.sol\":4533:4544  nextVoterID */\n      sload(0x0d)\n        /* \"Voting Contract/contracts/myVoting.sol\":4520:4545  VoterDetails[nextVoterID] */\n      dup2\n      mstore\n      0x20\n      add\n      swap1\n      dup2\n      mstore\n      0x20\n      add\n      0x00\n      keccak256\n        /* \"Voting Contract/contracts/myVoting.sol\":4520:4603  VoterDetails[nextVoterID] = Voter(_name, _age, nextVoterID, _gender, 0, msg.sender) */\n      0x00\n      dup3\n      add\n      mload\n      dup2\n      0x00\n      add\n      swap1\n      dup2\n      tag_168\n      swap2\n      swap1\n      tag_169\n      jump\t// in\n    tag_168:\n      pop\n      0x20\n      dup3\n      add\n      mload\n      dup2\n      0x01\n      add\n      sstore\n      0x40\n      dup3\n      add\n      mload\n      dup2\n      0x02\n      add\n      sstore\n      0x60\n      dup3\n      add\n      mload\n      dup2\n      0x03\n      add\n      swap1\n      dup2\n      tag_170\n      swap2\n      swap1\n      tag_169\n      jump\t// in\n    tag_170:\n      pop\n      0x80\n      dup3\n      add\n      mload\n      dup2\n      0x04\n      add\n      sstore\n      0xa0\n      dup3\n      add\n      mload\n      dup2\n      0x05\n      add\n      exp(0x0100, 0x00)\n      dup2\n      sload\n      dup2\n      0xffffffffffffffffffffffffffffffffffffffff\n      mul\n      not\n      and\n      swap1\n      dup4\n      0xffffffffffffffffffffffffffffffffffffffff\n      and\n      mul\n      or\n      swap1\n      sstore\n      pop\n      swap1\n      pop\n      pop\n        /* \"Voting Contract/contracts/myVoting.sol\":4614:4625  nextVoterID */\n      0x0d\n      0x00\n        /* \"Voting Contract/contracts/myVoting.sol\":4614:4627  nextVoterID++ */\n      dup2\n      sload\n      dup1\n      swap3\n      swap2\n      swap1\n      tag_171\n      swap1\n      tag_92\n      jump\t// in\n    tag_171:\n      swap2\n      swap1\n      pop\n      sstore\n      pop\n        /* \"Voting Contract/contracts/myVoting.sol\":4230:4635  function voterRegistration(... */\n      pop\n      pop\n      pop\n      jump\t// out\n        /* \"Voting Contract/contracts/myVoting.sol\":2418:3154  function candidateRegister(... */\n    tag_39:\n        /* \"Voting Contract/contracts/myVoting.sol\":1726:1760  candidateRegistrationPhaseStatus() */\n      tag_173\n        /* \"Voting Contract/contracts/myVoting.sol\":1726:1758  candidateRegistrationPhaseStatus */\n      tag_174\n        /* \"Voting Contract/contracts/myVoting.sol\":1726:1760  candidateRegistrationPhaseStatus() */\n      jump\t// in\n    tag_173:\n        /* \"Voting Contract/contracts/myVoting.sol\":1810:1814  true */\n      0x01\n        /* \"Voting Contract/contracts/myVoting.sol\":1779:1814  candidate_Registration_Time == true */\n      iszero\n      iszero\n        /* \"Voting Contract/contracts/myVoting.sol\":1779:1806  candidate_Registration_Time */\n      0x02\n      0x00\n      swap1\n      sload\n      swap1\n      0x0100\n      exp\n      swap1\n      div\n      0xff\n      and\n        /* \"Voting Contract/contracts/myVoting.sol\":1779:1814  candidate_Registration_Time == true */\n      iszero\n      iszero\n      eq\n        /* \"Voting Contract/contracts/myVoting.sol\":1771:1851  require(candidate_Registration_Time == true, \"Candidate Registration is closed\") */\n      tag_175\n      jumpi\n      mload(0x40)\n      0x08c379a000000000000000000000000000000000000000000000000000000000\n      dup2\n      mstore\n      0x04\n      add\n      tag_176\n      swap1\n      tag_177\n      jump\t// in\n    tag_176:\n      mload(0x40)\n      dup1\n      swap2\n      sub\n      swap1\n      revert\n    tag_175:\n        /* \"Voting Contract/contracts/myVoting.sol\":1892:1897  false */\n      0x00\n        /* \"Voting Contract/contracts/myVoting.sol\":1870:1897  votingConductionTime==false */\n      iszero\n      iszero\n        /* \"Voting Contract/contracts/myVoting.sol\":1870:1890  votingConductionTime */\n      0x08\n      0x00\n      swap1\n      sload\n      swap1\n      0x0100\n      exp\n      swap1\n      div\n      0xff\n      and\n        /* \"Voting Contract/contracts/myVoting.sol\":1870:1897  votingConductionTime==false */\n      iszero\n      iszero\n      eq\n        /* \"Voting Contract/contracts/myVoting.sol\":1862:1919  require(votingConductionTime==false, \"Voting is ongoing\") */\n      tag_178\n      jumpi\n      mload(0x40)\n      0x08c379a000000000000000000000000000000000000000000000000000000000\n      dup2\n      mstore\n      0x04\n      add\n      tag_179\n      swap1\n      tag_147\n      jump\t// in\n    tag_179:\n      mload(0x40)\n      dup1\n      swap2\n      sub\n      swap1\n      revert\n    tag_178:\n        /* \"Voting Contract/contracts/myVoting.sol\":2636:2653  ElectionComission */\n      0x0b\n      0x00\n      swap1\n      sload\n      swap1\n      0x0100\n      exp\n      swap1\n      div\n      0xffffffffffffffffffffffffffffffffffffffff\n      and\n        /* \"Voting Contract/contracts/myVoting.sol\":2622:2653  msg.sender != ElectionComission */\n      0xffffffffffffffffffffffffffffffffffffffff\n      and\n        /* \"Voting Contract/contracts/myVoting.sol\":2622:2632  msg.sender */\n      caller\n        /* \"Voting Contract/contracts/myVoting.sol\":2622:2653  msg.sender != ElectionComission */\n      0xffffffffffffffffffffffffffffffffffffffff\n      and\n      sub\n        /* \"Voting Contract/contracts/myVoting.sol\":2614:2689  require(msg.sender != ElectionComission, \"You are from election comission\") */\n      tag_181\n      jumpi\n      mload(0x40)\n      0x08c379a000000000000000000000000000000000000000000000000000000000\n      dup2\n      mstore\n      0x04\n      add\n      tag_182\n      swap1\n      tag_183\n      jump\t// in\n    tag_182:\n      mload(0x40)\n      dup1\n      swap2\n      sub\n      swap1\n      revert\n    tag_181:\n        /* \"Voting Contract/contracts/myVoting.sol\":2716:2718  18 */\n      0x12\n        /* \"Voting Contract/contracts/myVoting.sol\":2708:2712  _age */\n      dup4\n        /* \"Voting Contract/contracts/myVoting.sol\":2708:2718  _age >= 18 */\n      lt\n      iszero\n        /* \"Voting Contract/contracts/myVoting.sol\":2700:2741  require(_age >= 18, \"Youa are under age\") */\n      tag_184\n      jumpi\n      mload(0x40)\n      0x08c379a000000000000000000000000000000000000000000000000000000000\n      dup2\n      mstore\n      0x04\n      add\n      tag_185\n      swap1\n      tag_162\n      jump\t// in\n    tag_185:\n      mload(0x40)\n      dup1\n      swap2\n      sub\n      swap1\n      revert\n    tag_184:\n        /* \"Voting Contract/contracts/myVoting.sol\":2797:2801  true */\n      0x01\n        /* \"Voting Contract/contracts/myVoting.sol\":2760:2801  candidateVerification(msg.sender) == true */\n      iszero\n      iszero\n        /* \"Voting Contract/contracts/myVoting.sol\":2760:2793  candidateVerification(msg.sender) */\n      tag_186\n        /* \"Voting Contract/contracts/myVoting.sol\":2782:2792  msg.sender */\n      caller\n        /* \"Voting Contract/contracts/myVoting.sol\":2760:2781  candidateVerification */\n      tag_187\n        /* \"Voting Contract/contracts/myVoting.sol\":2760:2793  candidateVerification(msg.sender) */\n      jump\t// in\n    tag_186:\n        /* \"Voting Contract/contracts/myVoting.sol\":2760:2801  candidateVerification(msg.sender) == true */\n      iszero\n      iszero\n      eq\n        /* \"Voting Contract/contracts/myVoting.sol\":2752:2823  require(candidateVerification(msg.sender) == true, \"Already registerd\") */\n      tag_188\n      jumpi\n      mload(0x40)\n      0x08c379a000000000000000000000000000000000000000000000000000000000\n      dup2\n      mstore\n      0x04\n      add\n      tag_189\n      swap1\n      tag_167\n      jump\t// in\n    tag_189:\n      mload(0x40)\n      dup1\n      swap2\n      sub\n      swap1\n      revert\n    tag_188:\n        /* \"Voting Contract/contracts/myVoting.sol\":2870:3000  Candidate(_name, ... */\n      mload(0x40)\n      dup1\n      0xe0\n      add\n      0x40\n      mstore\n      dup1\n        /* \"Voting Contract/contracts/myVoting.sol\":2880:2885  _name */\n      dup7\n      dup7\n        /* \"Voting Contract/contracts/myVoting.sol\":2870:3000  Candidate(_name, ... */\n      dup1\n      dup1\n      0x1f\n      add\n      0x20\n      dup1\n      swap2\n      div\n      mul\n      0x20\n      add\n      mload(0x40)\n      swap1\n      dup2\n      add\n      0x40\n      mstore\n      dup1\n      swap4\n      swap3\n      swap2\n      swap1\n      dup2\n      dup2\n      mstore\n      0x20\n      add\n      dup4\n      dup4\n      dup1\n      dup3\n      dup5\n      calldatacopy\n      0x00\n      dup2\n      dup5\n      add\n      mstore\n      not(0x1f)\n      0x1f\n      dup3\n      add\n      and\n      swap1\n      pop\n      dup1\n      dup4\n      add\n      swap3\n      pop\n      pop\n      pop\n      pop\n      pop\n      pop\n      pop\n      dup2\n      mstore\n      0x20\n      add\n        /* \"Voting Contract/contracts/myVoting.sol\":2897:2901  _age */\n      dup5\n        /* \"Voting Contract/contracts/myVoting.sol\":2870:3000  Candidate(_name, ... */\n      dup2\n      mstore\n      0x20\n      add\n        /* \"Voting Contract/contracts/myVoting.sol\":2913:2919  _party */\n      dup4\n        /* \"Voting Contract/contracts/myVoting.sol\":2870:3000  Candidate(_name, ... */\n      dup2\n      mstore\n      0x20\n      add\n        /* \"Voting Contract/contracts/myVoting.sol\":2931:2946  nextCandidateID */\n      sload(0x0e)\n        /* \"Voting Contract/contracts/myVoting.sol\":2870:3000  Candidate(_name, ... */\n      dup2\n      mstore\n      0x20\n      add\n        /* \"Voting Contract/contracts/myVoting.sol\":2958:2965  _gender */\n      dup3\n        /* \"Voting Contract/contracts/myVoting.sol\":2870:3000  Candidate(_name, ... */\n      dup2\n      mstore\n      0x20\n      add\n        /* \"Voting Contract/contracts/myVoting.sol\":2976:2986  msg.sender */\n      caller\n        /* \"Voting Contract/contracts/myVoting.sol\":2870:3000  Candidate(_name, ... */\n      0xffffffffffffffffffffffffffffffffffffffff\n      and\n      dup2\n      mstore\n      0x20\n      add\n        /* \"Voting Contract/contracts/myVoting.sol\":2997:2998  0 */\n      0x00\n        /* \"Voting Contract/contracts/myVoting.sol\":2870:3000  Candidate(_name, ... */\n      dup2\n      mstore\n      pop\n        /* \"Voting Contract/contracts/myVoting.sol\":2834:2850  CandidateDetails */\n      0x09\n        /* \"Voting Contract/contracts/myVoting.sol\":2834:2867  CandidateDetails[nextCandidateID] */\n      0x00\n        /* \"Voting Contract/contracts/myVoting.sol\":2851:2866  nextCandidateID */\n      sload(0x0e)\n        /* \"Voting Contract/contracts/myVoting.sol\":2834:2867  CandidateDetails[nextCandidateID] */\n      dup2\n      mstore\n      0x20\n      add\n      swap1\n      dup2\n      mstore\n      0x20\n      add\n      0x00\n      keccak256\n        /* \"Voting Contract/contracts/myVoting.sol\":2834:3000  CandidateDetails[nextCandidateID] = Candidate(_name, ... */\n      0x00\n      dup3\n      add\n      mload\n      dup2\n      0x00\n      add\n      swap1\n      dup2\n      tag_190\n      swap2\n      swap1\n      tag_169\n      jump\t// in\n    tag_190:\n      pop\n      0x20\n      dup3\n      add\n      mload\n      dup2\n      0x01\n      add\n      sstore\n      0x40\n      dup3\n      add\n      mload\n      dup2\n      0x02\n      add\n      swap1\n      dup2\n      tag_191\n      swap2\n      swap1\n      tag_169\n      jump\t// in\n    tag_191:\n      pop\n      0x60\n      dup3\n      add\n      mload\n      dup2\n      0x03\n      add\n      sstore\n      0x80\n      dup3\n      add\n      mload\n      dup2\n      0x04\n      add\n      swap1\n      dup2\n      tag_192\n      swap2\n      swap1\n      tag_169\n      jump\t// in\n    tag_192:\n      pop\n      0xa0\n      dup3\n      add\n      mload\n      dup2\n      0x05\n      add\n      exp(0x0100, 0x00)\n      dup2\n      sload\n      dup2\n      0xffffffffffffffffffffffffffffffffffffffff\n      mul\n      not\n      and\n      swap1\n      dup4\n      0xffffffffffffffffffffffffffffffffffffffff\n      and\n      mul\n      or\n      swap1\n      sstore\n      pop\n      0xc0\n      dup3\n      add\n      mload\n      dup2\n      0x06\n      add\n      sstore\n      swap1\n      pop\n      pop\n        /* \"Voting Contract/contracts/myVoting.sol\":3011:3026  nextCandidateID */\n      0x0e\n      0x00\n        /* \"Voting Contract/contracts/myVoting.sol\":3011:3028  nextCandidateID++ */\n      dup2\n      sload\n      dup1\n      swap3\n      swap2\n      swap1\n      tag_193\n      swap1\n      tag_92\n      jump\t// in\n    tag_193:\n      swap2\n      swap1\n      pop\n      sstore\n      pop\n        /* \"Voting Contract/contracts/myVoting.sol\":3067:3122  Voter(_name, _age, nextVoterID, _gender, 0, msg.sender) */\n      mload(0x40)\n      dup1\n      0xc0\n      add\n      0x40\n      mstore\n      dup1\n        /* \"Voting Contract/contracts/myVoting.sol\":3073:3078  _name */\n      dup7\n      dup7\n        /* \"Voting Contract/contracts/myVoting.sol\":3067:3122  Voter(_name, _age, nextVoterID, _gender, 0, msg.sender) */\n      dup1\n      dup1\n      0x1f\n      add\n      0x20\n      dup1\n      swap2\n      div\n      mul\n      0x20\n      add\n      mload(0x40)\n      swap1\n      dup2\n      add\n      0x40\n      mstore\n      dup1\n      swap4\n      swap3\n      swap2\n      swap1\n      dup2\n      dup2\n      mstore\n      0x20\n      add\n      dup4\n      dup4\n      dup1\n      dup3\n      dup5\n      calldatacopy\n      0x00\n      dup2\n      dup5\n      add\n      mstore\n      not(0x1f)\n      0x1f\n      dup3\n      add\n      and\n      swap1\n      pop\n      dup1\n      dup4\n      add\n      swap3\n      pop\n      pop\n      pop\n      pop\n      pop\n      pop\n      pop\n      dup2\n      mstore\n      0x20\n      add\n        /* \"Voting Contract/contracts/myVoting.sol\":3080:3084  _age */\n      dup5\n        /* \"Voting Contract/contracts/myVoting.sol\":3067:3122  Voter(_name, _age, nextVoterID, _gender, 0, msg.sender) */\n      dup2\n      mstore\n      0x20\n      add\n        /* \"Voting Contract/contracts/myVoting.sol\":3086:3097  nextVoterID */\n      sload(0x0d)\n        /* \"Voting Contract/contracts/myVoting.sol\":3067:3122  Voter(_name, _age, nextVoterID, _gender, 0, msg.sender) */\n      dup2\n      mstore\n      0x20\n      add\n        /* \"Voting Contract/contracts/myVoting.sol\":3099:3106  _gender */\n      dup3\n        /* \"Voting Contract/contracts/myVoting.sol\":3067:3122  Voter(_name, _age, nextVoterID, _gender, 0, msg.sender) */\n      dup2\n      mstore\n      0x20\n      add\n        /* \"Voting Contract/contracts/myVoting.sol\":3108:3109  0 */\n      0x00\n        /* \"Voting Contract/contracts/myVoting.sol\":3067:3122  Voter(_name, _age, nextVoterID, _gender, 0, msg.sender) */\n      dup2\n      mstore\n      0x20\n      add\n        /* \"Voting Contract/contracts/myVoting.sol\":3111:3121  msg.sender */\n      caller\n        /* \"Voting Contract/contracts/myVoting.sol\":3067:3122  Voter(_name, _age, nextVoterID, _gender, 0, msg.sender) */\n      0xffffffffffffffffffffffffffffffffffffffff\n      and\n      dup2\n      mstore\n      pop\n        /* \"Voting Contract/contracts/myVoting.sol\":3039:3051  VoterDetails */\n      0x0a\n        /* \"Voting Contract/contracts/myVoting.sol\":3039:3064  VoterDetails[nextVoterID] */\n      0x00\n        /* \"Voting Contract/contracts/myVoting.sol\":3052:3063  nextVoterID */\n      sload(0x0d)\n        /* \"Voting Contract/contracts/myVoting.sol\":3039:3064  VoterDetails[nextVoterID] */\n      dup2\n      mstore\n      0x20\n      add\n      swap1\n      dup2\n      mstore\n      0x20\n      add\n      0x00\n      keccak256\n        /* \"Voting Contract/contracts/myVoting.sol\":3039:3122  VoterDetails[nextVoterID] = Voter(_name, _age, nextVoterID, _gender, 0, msg.sender) */\n      0x00\n      dup3\n      add\n      mload\n      dup2\n      0x00\n      add\n      swap1\n      dup2\n      tag_194\n      swap2\n      swap1\n      tag_169\n      jump\t// in\n    tag_194:\n      pop\n      0x20\n      dup3\n      add\n      mload\n      dup2\n      0x01\n      add\n      sstore\n      0x40\n      dup3\n      add\n      mload\n      dup2\n      0x02\n      add\n      sstore\n      0x60\n      dup3\n      add\n      mload\n      dup2\n      0x03\n      add\n      swap1\n      dup2\n      tag_195\n      swap2\n      swap1\n      tag_169\n      jump\t// in\n    tag_195:\n      pop\n      0x80\n      dup3\n      add\n      mload\n      dup2\n      0x04\n      add\n      sstore\n      0xa0\n      dup3\n      add\n      mload\n      dup2\n      0x05\n      add\n      exp(0x0100, 0x00)\n      dup2\n      sload\n      dup2\n      0xffffffffffffffffffffffffffffffffffffffff\n      mul\n      not\n      and\n      swap1\n      dup4\n      0xffffffffffffffffffffffffffffffffffffffff\n      and\n      mul\n      or\n      swap1\n      sstore\n      pop\n      swap1\n      pop\n      pop\n        /* \"Voting Contract/contracts/myVoting.sol\":3133:3144  nextVoterID */\n      0x0d\n      0x00\n        /* \"Voting Contract/contracts/myVoting.sol\":3133:3146  nextVoterID++ */\n      dup2\n      sload\n      dup1\n      swap3\n      swap2\n      swap1\n      tag_196\n      swap1\n      tag_92\n      jump\t// in\n    tag_196:\n      swap2\n      swap1\n      pop\n      sstore\n      pop\n        /* \"Voting Contract/contracts/myVoting.sol\":2418:3154  function candidateRegister(... */\n      pop\n      pop\n      pop\n      pop\n      pop\n      jump\t// out\n        /* \"Voting Contract/contracts/myVoting.sol\":945:993  mapping(uint=>Candidate) public CandidateDetails */\n    tag_43:\n      mstore(0x20, 0x09)\n      dup1\n      0x00\n      mstore\n      keccak256(0x00, 0x40)\n      0x00\n      swap2\n      pop\n      swap1\n      pop\n      dup1\n      0x00\n      add\n      dup1\n      sload\n      tag_197\n      swap1\n      tag_77\n      jump\t// in\n    tag_197:\n      dup1\n      0x1f\n      add\n      0x20\n      dup1\n      swap2\n      div\n      mul\n      0x20\n      add\n      mload(0x40)\n      swap1\n      dup2\n      add\n      0x40\n      mstore\n      dup1\n      swap3\n      swap2\n      swap1\n      dup2\n      dup2\n      mstore\n      0x20\n      add\n      dup3\n      dup1\n      sload\n      tag_198\n      swap1\n      tag_77\n      jump\t// in\n    tag_198:\n      dup1\n      iszero\n      tag_199\n      jumpi\n      dup1\n      0x1f\n      lt\n      tag_200\n      jumpi\n      0x0100\n      dup1\n      dup4\n      sload\n      div\n      mul\n      dup4\n      mstore\n      swap2\n      0x20\n      add\n      swap2\n      jump(tag_199)\n    tag_200:\n      dup3\n      add\n      swap2\n      swap1\n      0x00\n      mstore\n      keccak256(0x00, 0x20)\n      swap1\n    tag_201:\n      dup2\n      sload\n      dup2\n      mstore\n      swap1\n      0x01\n      add\n      swap1\n      0x20\n      add\n      dup1\n      dup4\n      gt\n      tag_201\n      jumpi\n      dup3\n      swap1\n      sub\n      0x1f\n      and\n      dup3\n      add\n      swap2\n    tag_199:\n      pop\n      pop\n      pop\n      pop\n      pop\n      swap1\n      dup1\n      0x01\n      add\n      sload\n      swap1\n      dup1\n      0x02\n      add\n      dup1\n      sload\n      tag_202\n      swap1\n      tag_77\n      jump\t// in\n    tag_202:\n      dup1\n      0x1f\n      add\n      0x20\n      dup1\n      swap2\n      div\n      mul\n      0x20\n      add\n      mload(0x40)\n      swap1\n      dup2\n      add\n      0x40\n      mstore\n      dup1\n      swap3\n      swap2\n      swap1\n      dup2\n      dup2\n      mstore\n      0x20\n      add\n      dup3\n      dup1\n      sload\n      tag_203\n      swap1\n      tag_77\n      jump\t// in\n    tag_203:\n      dup1\n      iszero\n      tag_204\n      jumpi\n      dup1\n      0x1f\n      lt\n      tag_205\n      jumpi\n      0x0100\n      dup1\n      dup4\n      sload\n      div\n      mul\n      dup4\n      mstore\n      swap2\n      0x20\n      add\n      swap2\n      jump(tag_204)\n    tag_205:\n      dup3\n      add\n      swap2\n      swap1\n      0x00\n      mstore\n      keccak256(0x00, 0x20)\n      swap1\n    tag_206:\n      dup2\n      sload\n      dup2\n      mstore\n      swap1\n      0x01\n      add\n      swap1\n      0x20\n      add\n      dup1\n      dup4\n      gt\n      tag_206\n      jumpi\n      dup3\n      swap1\n      sub\n      0x1f\n      and\n      dup3\n      add\n      swap2\n    tag_204:\n      pop\n      pop\n      pop\n      pop\n      pop\n      swap1\n      dup1\n      0x03\n      add\n      sload\n      swap1\n      dup1\n      0x04\n      add\n      dup1\n      sload\n      tag_207\n      swap1\n      tag_77\n      jump\t// in\n    tag_207:\n      dup1\n      0x1f\n      add\n      0x20\n      dup1\n      swap2\n      div\n      mul\n      0x20\n      add\n      mload(0x40)\n      swap1\n      dup2\n      add\n      0x40\n      mstore\n      dup1\n      swap3\n      swap2\n      swap1\n      dup2\n      dup2\n      mstore\n      0x20\n      add\n      dup3\n      dup1\n      sload\n      tag_208\n      swap1\n      tag_77\n      jump\t// in\n    tag_208:\n      dup1\n      iszero\n      tag_209\n      jumpi\n      dup1\n      0x1f\n      lt\n      tag_210\n      jumpi\n      0x0100\n      dup1\n      dup4\n      sload\n      div\n      mul\n      dup4\n      mstore\n      swap2\n      0x20\n      add\n      swap2\n      jump(tag_209)\n    tag_210:\n      dup3\n      add\n      swap2\n      swap1\n      0x00\n      mstore\n      keccak256(0x00, 0x20)\n      swap1\n    tag_211:\n      dup2\n      sload\n      dup2\n      mstore\n      swap1\n      0x01\n      add\n      swap1\n      0x20\n      add\n      dup1\n      dup4\n      gt\n      tag_211\n      jumpi\n      dup3\n      swap1\n      sub\n      0x1f\n      and\n      dup3\n      add\n      swap2\n    tag_209:\n      pop\n      pop\n      pop\n      pop\n      pop\n      swap1\n      dup1\n      0x05\n      add\n      0x00\n      swap1\n      sload\n      swap1\n      0x0100\n      exp\n      swap1\n      div\n      0xffffffffffffffffffffffffffffffffffffffff\n      and\n      swap1\n      dup1\n      0x06\n      add\n      sload\n      swap1\n      pop\n      dup8\n      jump\t// out\n        /* \"Voting Contract/contracts/myVoting.sol\":1000:1040  mapping(uint=>Voter) public VoterDetails */\n    tag_48:\n      mstore(0x20, 0x0a)\n      dup1\n      0x00\n      mstore\n      keccak256(0x00, 0x40)\n      0x00\n      swap2\n      pop\n      swap1\n      pop\n      dup1\n      0x00\n      add\n      dup1\n      sload\n      tag_212\n      swap1\n      tag_77\n      jump\t// in\n    tag_212:\n      dup1\n      0x1f\n      add\n      0x20\n      dup1\n      swap2\n      div\n      mul\n      0x20\n      add\n      mload(0x40)\n      swap1\n      dup2\n      add\n      0x40\n      mstore\n      dup1\n      swap3\n      swap2\n      swap1\n      dup2\n      dup2\n      mstore\n      0x20\n      add\n      dup3\n      dup1\n      sload\n      tag_213\n      swap1\n      tag_77\n      jump\t// in\n    tag_213:\n      dup1\n      iszero\n      tag_214\n      jumpi\n      dup1\n      0x1f\n      lt\n      tag_215\n      jumpi\n      0x0100\n      dup1\n      dup4\n      sload\n      div\n      mul\n      dup4\n      mstore\n      swap2\n      0x20\n      add\n      swap2\n      jump(tag_214)\n    tag_215:\n      dup3\n      add\n      swap2\n      swap1\n      0x00\n      mstore\n      keccak256(0x00, 0x20)\n      swap1\n    tag_216:\n      dup2\n      sload\n      dup2\n      mstore\n      swap1\n      0x01\n      add\n      swap1\n      0x20\n      add\n      dup1\n      dup4\n      gt\n      tag_216\n      jumpi\n      dup3\n      swap1\n      sub\n      0x1f\n      and\n      dup3\n      add\n      swap2\n    tag_214:\n      pop\n      pop\n      pop\n      pop\n      pop\n      swap1\n      dup1\n      0x01\n      add\n      sload\n      swap1\n      dup1\n      0x02\n      add\n      sload\n      swap1\n      dup1\n      0x03\n      add\n      dup1\n      sload\n      tag_217\n      swap1\n      tag_77\n      jump\t// in\n    tag_217:\n      dup1\n      0x1f\n      add\n      0x20\n      dup1\n      swap2\n      div\n      mul\n      0x20\n      add\n      mload(0x40)\n      swap1\n      dup2\n      add\n      0x40\n      mstore\n      dup1\n      swap3\n      swap2\n      swap1\n      dup2\n      dup2\n      mstore\n      0x20\n      add\n      dup3\n      dup1\n      sload\n      tag_218\n      swap1\n      tag_77\n      jump\t// in\n    tag_218:\n      dup1\n      iszero\n      tag_219\n      jumpi\n      dup1\n      0x1f\n      lt\n      tag_220\n      jumpi\n      0x0100\n      dup1\n      dup4\n      sload\n      div\n      mul\n      dup4\n      mstore\n      swap2\n      0x20\n      add\n      swap2\n      jump(tag_219)\n    tag_220:\n      dup3\n      add\n      swap2\n      swap1\n      0x00\n      mstore\n      keccak256(0x00, 0x20)\n      swap1\n    tag_221:\n      dup2\n      sload\n      dup2\n      mstore\n      swap1\n      0x01\n      add\n      swap1\n      0x20\n      add\n      dup1\n      dup4\n      gt\n      tag_221\n      jumpi\n      dup3\n      swap1\n      sub\n      0x1f\n      and\n      dup3\n      add\n      swap2\n    tag_219:\n      pop\n      pop\n      pop\n      pop\n      pop\n      swap1\n      dup1\n      0x04\n      add\n      sload\n      swap1\n      dup1\n      0x05\n      add\n      0x00\n      swap1\n      sload\n      swap1\n      0x0100\n      exp\n      swap1\n      div\n      0xffffffffffffffffffffffffffffffffffffffff\n      and\n      swap1\n      pop\n      dup7\n      jump\t// out\n        /* \"Voting Contract/contracts/myVoting.sol\":6832:7424  function vote(uint _voterID, uint _ID) external {... */\n    tag_53:\n        /* \"Voting Contract/contracts/myVoting.sol\":6940:6941  0 */\n      0x00\n        /* \"Voting Contract/contracts/myVoting.sol\":6899:6911  VoterDetails */\n      0x0a\n        /* \"Voting Contract/contracts/myVoting.sol\":6899:6921  VoterDetails[_voterID] */\n      0x00\n        /* \"Voting Contract/contracts/myVoting.sol\":6912:6920  _voterID */\n      dup5\n        /* \"Voting Contract/contracts/myVoting.sol\":6899:6921  VoterDetails[_voterID] */\n      dup2\n      mstore\n      0x20\n      add\n      swap1\n      dup2\n      mstore\n      0x20\n      add\n      0x00\n      keccak256\n        /* \"Voting Contract/contracts/myVoting.sol\":6899:6937  VoterDetails[_voterID].voteCandidateID */\n      0x04\n      add\n      sload\n        /* \"Voting Contract/contracts/myVoting.sol\":6899:6941  VoterDetails[_voterID].voteCandidateID ==0 */\n      eq\n        /* \"Voting Contract/contracts/myVoting.sol\":6891:6960  require(VoterDetails[_voterID].voteCandidateID ==0, \"You have voted\") */\n      tag_223\n      jumpi\n      mload(0x40)\n      0x08c379a000000000000000000000000000000000000000000000000000000000\n      dup2\n      mstore\n      0x04\n      add\n      tag_224\n      swap1\n      tag_225\n      jump\t// in\n    tag_224:\n      mload(0x40)\n      dup1\n      swap2\n      sub\n      swap1\n      revert\n    tag_223:\n        /* \"Voting Contract/contracts/myVoting.sol\":7018:7028  msg.sender */\n      caller\n        /* \"Voting Contract/contracts/myVoting.sol\":6979:7028  VoterDetails[_voterID].voterAddress == msg.sender */\n      0xffffffffffffffffffffffffffffffffffffffff\n      and\n        /* \"Voting Contract/contracts/myVoting.sol\":6979:6991  VoterDetails */\n      0x0a\n        /* \"Voting Contract/contracts/myVoting.sol\":6979:7001  VoterDetails[_voterID] */\n      0x00\n        /* \"Voting Contract/contracts/myVoting.sol\":6992:7000  _voterID */\n      dup5\n        /* \"Voting Contract/contracts/myVoting.sol\":6979:7001  VoterDetails[_voterID] */\n      dup2\n      mstore\n      0x20\n      add\n      swap1\n      dup2\n      mstore\n      0x20\n      add\n      0x00\n      keccak256\n        /* \"Voting Contract/contracts/myVoting.sol\":6979:7014  VoterDetails[_voterID].voterAddress */\n      0x05\n      add\n      0x00\n      swap1\n      sload\n      swap1\n      0x0100\n      exp\n      swap1\n      div\n      0xffffffffffffffffffffffffffffffffffffffff\n      and\n        /* \"Voting Contract/contracts/myVoting.sol\":6979:7028  VoterDetails[_voterID].voterAddress == msg.sender */\n      0xffffffffffffffffffffffffffffffffffffffff\n      and\n      eq\n        /* \"Voting Contract/contracts/myVoting.sol\":6971:7065  require(VoterDetails[_voterID].voterAddress == msg.sender, \"You cant vote from others behalf\") */\n      tag_226\n      jumpi\n      mload(0x40)\n      0x08c379a000000000000000000000000000000000000000000000000000000000\n      dup2\n      mstore\n      0x04\n      add\n      tag_227\n      swap1\n      tag_228\n      jump\t// in\n    tag_227:\n      mload(0x40)\n      dup1\n      swap2\n      sub\n      swap1\n      revert\n    tag_226:\n        /* \"Voting Contract/contracts/myVoting.sol\":7103:7104  3 */\n      0x03\n        /* \"Voting Contract/contracts/myVoting.sol\":7084:7099  nextCandidateID */\n      sload(0x0e)\n        /* \"Voting Contract/contracts/myVoting.sol\":7084:7104  nextCandidateID >= 3 */\n      lt\n      iszero\n        /* \"Voting Contract/contracts/myVoting.sol\":7076:7149  require(nextCandidateID >= 3, \"Candidates are not registered completely\") */\n      tag_229\n      jumpi\n      mload(0x40)\n      0x08c379a000000000000000000000000000000000000000000000000000000000\n      dup2\n      mstore\n      0x04\n      add\n      tag_230\n      swap1\n      tag_231\n      jump\t// in\n    tag_230:\n      mload(0x40)\n      dup1\n      swap2\n      sub\n      swap1\n      revert\n    tag_229:\n        /* \"Voting Contract/contracts/myVoting.sol\":7193:7194  0 */\n      0x00\n        /* \"Voting Contract/contracts/myVoting.sol\":7168:7191  voting_Conduction_Start */\n      sload(0x06)\n        /* \"Voting Contract/contracts/myVoting.sol\":7168:7194  voting_Conduction_Start!=0 */\n      sub\n        /* \"Voting Contract/contracts/myVoting.sol\":7160:7220  require(voting_Conduction_Start!=0, \"Voting is not started\") */\n      tag_232\n      jumpi\n      mload(0x40)\n      0x08c379a000000000000000000000000000000000000000000000000000000000\n      dup2\n      mstore\n      0x04\n      add\n      tag_233\n      swap1\n      tag_234\n      jump\t// in\n    tag_233:\n      mload(0x40)\n      dup1\n      swap2\n      sub\n      swap1\n      revert\n    tag_232:\n        /* \"Voting Contract/contracts/myVoting.sol\":7245:7260  nextCandidateID */\n      sload(0x0e)\n        /* \"Voting Contract/contracts/myVoting.sol\":7239:7242  _ID */\n      dup2\n        /* \"Voting Contract/contracts/myVoting.sol\":7239:7260  _ID < nextCandidateID */\n      lt\n        /* \"Voting Contract/contracts/myVoting.sol\":7231:7289  require(_ID < nextCandidateID, \"Candidate does not exist\") */\n      tag_235\n      jumpi\n      mload(0x40)\n      0x08c379a000000000000000000000000000000000000000000000000000000000\n      dup2\n      mstore\n      0x04\n      add\n      tag_236\n      swap1\n      tag_237\n      jump\t// in\n    tag_236:\n      mload(0x40)\n      dup1\n      swap2\n      sub\n      swap1\n      revert\n    tag_235:\n        /* \"Voting Contract/contracts/myVoting.sol\":7341:7344  _ID */\n      dup1\n        /* \"Voting Contract/contracts/myVoting.sol\":7300:7312  VoterDetails */\n      0x0a\n        /* \"Voting Contract/contracts/myVoting.sol\":7300:7322  VoterDetails[_voterID] */\n      0x00\n        /* \"Voting Contract/contracts/myVoting.sol\":7313:7321  _voterID */\n      dup5\n        /* \"Voting Contract/contracts/myVoting.sol\":7300:7322  VoterDetails[_voterID] */\n      dup2\n      mstore\n      0x20\n      add\n      swap1\n      dup2\n      mstore\n      0x20\n      add\n      0x00\n      keccak256\n        /* \"Voting Contract/contracts/myVoting.sol\":7300:7338  VoterDetails[_voterID].voteCandidateID */\n      0x04\n      add\n        /* \"Voting Contract/contracts/myVoting.sol\":7300:7344  VoterDetails[_voterID].voteCandidateID = _ID */\n      dup2\n      swap1\n      sstore\n      pop\n        /* \"Voting Contract/contracts/myVoting.sol\":7415:7416  1 */\n      0x01\n        /* \"Voting Contract/contracts/myVoting.sol\":7385:7401  CandidateDetails */\n      0x09\n        /* \"Voting Contract/contracts/myVoting.sol\":7385:7406  CandidateDetails[_ID] */\n      0x00\n        /* \"Voting Contract/contracts/myVoting.sol\":7402:7405  _ID */\n      dup4\n        /* \"Voting Contract/contracts/myVoting.sol\":7385:7406  CandidateDetails[_ID] */\n      dup2\n      mstore\n      0x20\n      add\n      swap1\n      dup2\n      mstore\n      0x20\n      add\n      0x00\n      keccak256\n        /* \"Voting Contract/contracts/myVoting.sol\":7385:7412  CandidateDetails[_ID].votes */\n      0x06\n      add\n      sload\n        /* \"Voting Contract/contracts/myVoting.sol\":7385:7416  CandidateDetails[_ID].votes + 1 */\n      tag_238\n      swap2\n      swap1\n      tag_149\n      jump\t// in\n    tag_238:\n        /* \"Voting Contract/contracts/myVoting.sol\":7355:7371  CandidateDetails */\n      0x09\n        /* \"Voting Contract/contracts/myVoting.sol\":7355:7376  CandidateDetails[_ID] */\n      0x00\n        /* \"Voting Contract/contracts/myVoting.sol\":7372:7375  _ID */\n      dup4\n        /* \"Voting Contract/contracts/myVoting.sol\":7355:7376  CandidateDetails[_ID] */\n      dup2\n      mstore\n      0x20\n      add\n      swap1\n      dup2\n      mstore\n      0x20\n      add\n      0x00\n      keccak256\n        /* \"Voting Contract/contracts/myVoting.sol\":7355:7382  CandidateDetails[_ID].votes */\n      0x06\n      add\n        /* \"Voting Contract/contracts/myVoting.sol\":7355:7416  CandidateDetails[_ID].votes = CandidateDetails[_ID].votes + 1 */\n      dup2\n      swap1\n      sstore\n      pop\n        /* \"Voting Contract/contracts/myVoting.sol\":6832:7424  function vote(uint _voterID, uint _ID) external {... */\n      pop\n      pop\n      jump\t// out\n        /* \"Voting Contract/contracts/myVoting.sol\":5494:6081  function votingPeriodSet(uint _startTime, uint _endTime) public {... */\n    tag_56:\n        /* \"Voting Contract/contracts/myVoting.sol\":5569:5603  candidateRegistrationPhaseStatus() */\n      tag_240\n        /* \"Voting Contract/contracts/myVoting.sol\":5569:5601  candidateRegistrationPhaseStatus */\n      tag_174\n        /* \"Voting Contract/contracts/myVoting.sol\":5569:5603  candidateRegistrationPhaseStatus() */\n      jump\t// in\n    tag_240:\n        /* \"Voting Contract/contracts/myVoting.sol\":5614:5644  voterRegistrationPhaseStatus() */\n      tag_241\n        /* \"Voting Contract/contracts/myVoting.sol\":5614:5642  voterRegistrationPhaseStatus */\n      tag_153\n        /* \"Voting Contract/contracts/myVoting.sol\":5614:5644  voterRegistrationPhaseStatus() */\n      jump\t// in\n    tag_241:\n        /* \"Voting Contract/contracts/myVoting.sol\":5680:5681  3 */\n      0x03\n        /* \"Voting Contract/contracts/myVoting.sol\":5663:5678  nextCandidateID */\n      sload(0x0e)\n        /* \"Voting Contract/contracts/myVoting.sol\":5663:5681  nextCandidateID>=3 */\n      lt\n      iszero\n        /* \"Voting Contract/contracts/myVoting.sol\":5655:5721  require(nextCandidateID>=3,\"Required candidates are insufficient\") */\n      tag_242\n      jumpi\n      mload(0x40)\n      0x08c379a000000000000000000000000000000000000000000000000000000000\n      dup2\n      mstore\n      0x04\n      add\n      tag_243\n      swap1\n      tag_244\n      jump\t// in\n    tag_243:\n      mload(0x40)\n      dup1\n      swap2\n      sub\n      swap1\n      revert\n    tag_242:\n        /* \"Voting Contract/contracts/myVoting.sol\":5771:5776  false */\n      0x00\n        /* \"Voting Contract/contracts/myVoting.sol\":5740:5776  candidate_Registration_Time == false */\n      iszero\n      iszero\n        /* \"Voting Contract/contracts/myVoting.sol\":5740:5767  candidate_Registration_Time */\n      0x02\n      0x00\n      swap1\n      sload\n      swap1\n      0x0100\n      exp\n      swap1\n      div\n      0xff\n      and\n        /* \"Voting Contract/contracts/myVoting.sol\":5740:5776  candidate_Registration_Time == false */\n      iszero\n      iszero\n      eq\n        /* \"Voting Contract/contracts/myVoting.sol\":5732:5815  require(candidate_Registration_Time == false, \"Candidate registration is going on\") */\n      tag_245\n      jumpi\n      mload(0x40)\n      0x08c379a000000000000000000000000000000000000000000000000000000000\n      dup2\n      mstore\n      0x04\n      add\n      tag_246\n      swap1\n      tag_247\n      jump\t// in\n    tag_246:\n      mload(0x40)\n      dup1\n      swap2\n      sub\n      swap1\n      revert\n    tag_245:\n        /* \"Voting Contract/contracts/myVoting.sol\":5861:5866  false */\n      0x00\n        /* \"Voting Contract/contracts/myVoting.sol\":5834:5866  voter_Registration_Time == false */\n      iszero\n      iszero\n        /* \"Voting Contract/contracts/myVoting.sol\":5834:5857  voter_Registration_Time */\n      0x05\n      0x00\n      swap1\n      sload\n      swap1\n      0x0100\n      exp\n      swap1\n      div\n      0xff\n      and\n        /* \"Voting Contract/contracts/myVoting.sol\":5834:5866  voter_Registration_Time == false */\n      iszero\n      iszero\n      eq\n        /* \"Voting Contract/contracts/myVoting.sol\":5826:5901  require(voter_Registration_Time == false, \"voter registration is going on\") */\n      tag_248\n      jumpi\n      mload(0x40)\n      0x08c379a000000000000000000000000000000000000000000000000000000000\n      dup2\n      mstore\n      0x04\n      add\n      tag_249\n      swap1\n      tag_250\n      jump\t// in\n    tag_249:\n      mload(0x40)\n      dup1\n      swap2\n      sub\n      swap1\n      revert\n    tag_248:\n        /* \"Voting Contract/contracts/myVoting.sol\":5935:5939  true */\n      0x01\n        /* \"Voting Contract/contracts/myVoting.sol\":5912:5932  votingConductionTime */\n      0x08\n      0x00\n        /* \"Voting Contract/contracts/myVoting.sol\":5912:5939  votingConductionTime = true */\n      0x0100\n      exp\n      dup2\n      sload\n      dup2\n      0xff\n      mul\n      not\n      and\n      swap1\n      dup4\n      iszero\n      iszero\n      mul\n      or\n      swap1\n      sstore\n      pop\n        /* \"Voting Contract/contracts/myVoting.sol\":5994:6004  _startTime */\n      dup2\n        /* \"Voting Contract/contracts/myVoting.sol\":5976:5991  block.timestamp */\n      timestamp\n        /* \"Voting Contract/contracts/myVoting.sol\":5976:6004  block.timestamp + _startTime */\n      tag_251\n      swap2\n      swap1\n      tag_149\n      jump\t// in\n    tag_251:\n        /* \"Voting Contract/contracts/myVoting.sol\":5950:5973  voting_Conduction_Start */\n      0x06\n        /* \"Voting Contract/contracts/myVoting.sol\":5950:6004  voting_Conduction_Start = block.timestamp + _startTime */\n      dup2\n      swap1\n      sstore\n      pop\n        /* \"Voting Contract/contracts/myVoting.sol\":6065:6073  _endTime */\n      dup1\n        /* \"Voting Contract/contracts/myVoting.sol\":6039:6062  voting_Conduction_Start */\n      sload(0x06)\n        /* \"Voting Contract/contracts/myVoting.sol\":6039:6073  voting_Conduction_Start + _endTime */\n      tag_252\n      swap2\n      swap1\n      tag_149\n      jump\t// in\n    tag_252:\n        /* \"Voting Contract/contracts/myVoting.sol\":6015:6036  voting_Conduction_End */\n      0x07\n        /* \"Voting Contract/contracts/myVoting.sol\":6015:6073  voting_Conduction_End = voting_Conduction_Start + _endTime */\n      dup2\n      swap1\n      sstore\n      pop\n        /* \"Voting Contract/contracts/myVoting.sol\":5494:6081  function votingPeriodSet(uint _startTime, uint _endTime) public {... */\n      pop\n      pop\n      jump\t// out\n        /* \"Voting Contract/contracts/myVoting.sol\":1128:1149  address public winner */\n    tag_58:\n      0x0c\n      0x00\n      swap1\n      sload\n      swap1\n      0x0100\n      exp\n      swap1\n      div\n      0xffffffffffffffffffffffffffffffffffffffff\n      and\n      dup2\n      jump\t// out\n        /* \"Voting Contract/contracts/myVoting.sol\":3546:3944  function candidateRegistrationSet(uint _registrationStart, uint _registrationStop) public onlyElectionComission() {... */\n    tag_62:\n        /* \"Voting Contract/contracts/myVoting.sol\":1594:1611  ElectionComission */\n      0x0b\n      0x00\n      swap1\n      sload\n      swap1\n      0x0100\n      exp\n      swap1\n      div\n      0xffffffffffffffffffffffffffffffffffffffff\n      and\n        /* \"Voting Contract/contracts/myVoting.sol\":1580:1611  msg.sender == ElectionComission */\n      0xffffffffffffffffffffffffffffffffffffffff\n      and\n        /* \"Voting Contract/contracts/myVoting.sol\":1580:1590  msg.sender */\n      caller\n        /* \"Voting Contract/contracts/myVoting.sol\":1580:1611  msg.sender == ElectionComission */\n      0xffffffffffffffffffffffffffffffffffffffff\n      and\n      eq\n        /* \"Voting Contract/contracts/myVoting.sol\":1572:1651  require(msg.sender == ElectionComission, \"You are not from election comission\") */\n      tag_254\n      jumpi\n      mload(0x40)\n      0x08c379a000000000000000000000000000000000000000000000000000000000\n      dup2\n      mstore\n      0x04\n      add\n      tag_255\n      swap1\n      tag_96\n      jump\t// in\n    tag_255:\n      mload(0x40)\n      dup1\n      swap2\n      sub\n      swap1\n      revert\n    tag_254:\n        /* \"Voting Contract/contracts/myVoting.sol\":3701:3706  false */\n      0x00\n        /* \"Voting Contract/contracts/myVoting.sol\":3679:3706  votingConductionTime==false */\n      iszero\n      iszero\n        /* \"Voting Contract/contracts/myVoting.sol\":3679:3699  votingConductionTime */\n      0x08\n      0x00\n      swap1\n      sload\n      swap1\n      0x0100\n      exp\n      swap1\n      div\n      0xff\n      and\n        /* \"Voting Contract/contracts/myVoting.sol\":3679:3706  votingConductionTime==false */\n      iszero\n      iszero\n      eq\n        /* \"Voting Contract/contracts/myVoting.sol\":3671:3728  require(votingConductionTime==false, \"Voting is ongoing\") */\n      tag_257\n      jumpi\n      mload(0x40)\n      0x08c379a000000000000000000000000000000000000000000000000000000000\n      dup2\n      mstore\n      0x04\n      add\n      tag_258\n      swap1\n      tag_147\n      jump\t// in\n    tag_258:\n      mload(0x40)\n      dup1\n      swap2\n      sub\n      swap1\n      revert\n    tag_257:\n        /* \"Voting Contract/contracts/myVoting.sol\":3769:3773  true */\n      0x01\n        /* \"Voting Contract/contracts/myVoting.sol\":3739:3766  candidate_Registration_Time */\n      0x02\n      0x00\n        /* \"Voting Contract/contracts/myVoting.sol\":3739:3773  candidate_Registration_Time = true */\n      0x0100\n      exp\n      dup2\n      sload\n      dup2\n      0xff\n      mul\n      not\n      and\n      swap1\n      dup4\n      iszero\n      iszero\n      mul\n      or\n      swap1\n      sstore\n      pop\n        /* \"Voting Contract/contracts/myVoting.sol\":3832:3850  _registrationStart */\n      dup2\n        /* \"Voting Contract/contracts/myVoting.sol\":3814:3829  block.timestamp */\n      timestamp\n        /* \"Voting Contract/contracts/myVoting.sol\":3814:3850  block.timestamp + _registrationStart */\n      tag_259\n      swap2\n      swap1\n      tag_149\n      jump\t// in\n    tag_259:\n        /* \"Voting Contract/contracts/myVoting.sol\":3784:3811  candidate_Registraion_Start */\n      0x00\n        /* \"Voting Contract/contracts/myVoting.sol\":3784:3850  candidate_Registraion_Start = block.timestamp + _registrationStart */\n      dup2\n      swap1\n      sstore\n      pop\n        /* \"Voting Contract/contracts/myVoting.sol\":3919:3936  _registrationStop */\n      dup1\n        /* \"Voting Contract/contracts/myVoting.sol\":3889:3916  candidate_Registraion_Start */\n      sload(0x00)\n        /* \"Voting Contract/contracts/myVoting.sol\":3889:3936  candidate_Registraion_Start + _registrationStop */\n      tag_260\n      swap2\n      swap1\n      tag_149\n      jump\t// in\n    tag_260:\n        /* \"Voting Contract/contracts/myVoting.sol\":3861:3886  candidate_Registraion_End */\n      0x01\n        /* \"Voting Contract/contracts/myVoting.sol\":3861:3936  candidate_Registraion_End = candidate_Registraion_Start + _registrationStop */\n      dup2\n      swap1\n      sstore\n      pop\n        /* \"Voting Contract/contracts/myVoting.sol\":3546:3944  function candidateRegistrationSet(uint _registrationStart, uint _registrationStop) public onlyElectionComission() {... */\n      pop\n      pop\n      jump\t// out\n        /* \"Voting Contract/contracts/myVoting.sol\":5318:5486  function voterRegistrationPhaseStatus() private {... */\n    tag_153:\n        /* \"Voting Contract/contracts/myVoting.sol\":5404:5419  block.timestamp */\n      timestamp\n        /* \"Voting Contract/contracts/myVoting.sol\":5380:5401  voter_Registraion_End */\n      sload(0x04)\n        /* \"Voting Contract/contracts/myVoting.sol\":5380:5419  voter_Registraion_End < block.timestamp */\n      lt\n        /* \"Voting Contract/contracts/myVoting.sol\":5377:5479  if(voter_Registraion_End < block.timestamp) {... */\n      iszero\n      tag_262\n      jumpi\n        /* \"Voting Contract/contracts/myVoting.sol\":5462:5467  false */\n      0x00\n        /* \"Voting Contract/contracts/myVoting.sol\":5436:5459  voter_Registration_Time */\n      0x05\n      0x00\n        /* \"Voting Contract/contracts/myVoting.sol\":5436:5467  voter_Registration_Time = false */\n      0x0100\n      exp\n      dup2\n      sload\n      dup2\n      0xff\n      mul\n      not\n      and\n      swap1\n      dup4\n      iszero\n      iszero\n      mul\n      or\n      swap1\n      sstore\n      pop\n        /* \"Voting Contract/contracts/myVoting.sol\":5377:5479  if(voter_Registraion_End < block.timestamp) {... */\n    tag_262:\n        /* \"Voting Contract/contracts/myVoting.sol\":5318:5486  function voterRegistrationPhaseStatus() private {... */\n      jump\t// out\n        /* \"Voting Contract/contracts/myVoting.sol\":4643:4924  function voterVerification(address _person) internal  voterRegistrationPhase() returns(bool){... */\n    tag_164:\n        /* \"Voting Contract/contracts/myVoting.sol\":4730:4734  bool */\n      0x00\n        /* \"Voting Contract/contracts/myVoting.sol\":1991:2021  voterRegistrationPhaseStatus() */\n      tag_264\n        /* \"Voting Contract/contracts/myVoting.sol\":1991:2019  voterRegistrationPhaseStatus */\n      tag_153\n        /* \"Voting Contract/contracts/myVoting.sol\":1991:2021  voterRegistrationPhaseStatus() */\n      jump\t// in\n    tag_264:\n        /* \"Voting Contract/contracts/myVoting.sol\":2067:2071  true */\n      0x01\n        /* \"Voting Contract/contracts/myVoting.sol\":2040:2071  voter_Registration_Time == true */\n      iszero\n      iszero\n        /* \"Voting Contract/contracts/myVoting.sol\":2040:2063  voter_Registration_Time */\n      0x05\n      0x00\n      swap1\n      sload\n      swap1\n      0x0100\n      exp\n      swap1\n      div\n      0xff\n      and\n        /* \"Voting Contract/contracts/myVoting.sol\":2040:2071  voter_Registration_Time == true */\n      iszero\n      iszero\n      eq\n        /* \"Voting Contract/contracts/myVoting.sol\":2032:2104  require(voter_Registration_Time == true, \"Voter registration is closed\") */\n      tag_265\n      jumpi\n      mload(0x40)\n      0x08c379a000000000000000000000000000000000000000000000000000000000\n      dup2\n      mstore\n      0x04\n      add\n      tag_266\n      swap1\n      tag_156\n      jump\t// in\n    tag_266:\n      mload(0x40)\n      dup1\n      swap2\n      sub\n      swap1\n      revert\n    tag_265:\n        /* \"Voting Contract/contracts/myVoting.sol\":2145:2150  false */\n      0x00\n        /* \"Voting Contract/contracts/myVoting.sol\":2123:2150  votingConductionTime==false */\n      iszero\n      iszero\n        /* \"Voting Contract/contracts/myVoting.sol\":2123:2143  votingConductionTime */\n      0x08\n      0x00\n      swap1\n      sload\n      swap1\n      0x0100\n      exp\n      swap1\n      div\n      0xff\n      and\n        /* \"Voting Contract/contracts/myVoting.sol\":2123:2150  votingConductionTime==false */\n      iszero\n      iszero\n      eq\n        /* \"Voting Contract/contracts/myVoting.sol\":2115:2172  require(votingConductionTime==false, \"Voting is ongoing\") */\n      tag_267\n      jumpi\n      mload(0x40)\n      0x08c379a000000000000000000000000000000000000000000000000000000000\n      dup2\n      mstore\n      0x04\n      add\n      tag_268\n      swap1\n      tag_147\n      jump\t// in\n    tag_268:\n      mload(0x40)\n      dup1\n      swap2\n      sub\n      swap1\n      revert\n    tag_267:\n        /* \"Voting Contract/contracts/myVoting.sol\":4750:4756  uint i */\n      0x00\n        /* \"Voting Contract/contracts/myVoting.sol\":4757:4758  1 */\n      0x01\n        /* \"Voting Contract/contracts/myVoting.sol\":4750:4758  uint i=1 */\n      swap1\n      pop\n        /* \"Voting Contract/contracts/myVoting.sol\":4746:4895  for(uint i=1; i<nextVoterID; i++){... */\n    tag_270:\n        /* \"Voting Contract/contracts/myVoting.sol\":4762:4773  nextVoterID */\n      sload(0x0d)\n        /* \"Voting Contract/contracts/myVoting.sol\":4760:4761  i */\n      dup2\n        /* \"Voting Contract/contracts/myVoting.sol\":4760:4773  i<nextVoterID */\n      lt\n        /* \"Voting Contract/contracts/myVoting.sol\":4746:4895  for(uint i=1; i<nextVoterID; i++){... */\n      iszero\n      tag_271\n      jumpi\n        /* \"Voting Contract/contracts/myVoting.sol\":4829:4836  _person */\n      dup3\n        /* \"Voting Contract/contracts/myVoting.sol\":4797:4836  VoterDetails[i].voterAddress == _person */\n      0xffffffffffffffffffffffffffffffffffffffff\n      and\n        /* \"Voting Contract/contracts/myVoting.sol\":4797:4809  VoterDetails */\n      0x0a\n        /* \"Voting Contract/contracts/myVoting.sol\":4797:4812  VoterDetails[i] */\n      0x00\n        /* \"Voting Contract/contracts/myVoting.sol\":4810:4811  i */\n      dup4\n        /* \"Voting Contract/contracts/myVoting.sol\":4797:4812  VoterDetails[i] */\n      dup2\n      mstore\n      0x20\n      add\n      swap1\n      dup2\n      mstore\n      0x20\n      add\n      0x00\n      keccak256\n        /* \"Voting Contract/contracts/myVoting.sol\":4797:4825  VoterDetails[i].voterAddress */\n      0x05\n      add\n      0x00\n      swap1\n      sload\n      swap1\n      0x0100\n      exp\n      swap1\n      div\n      0xffffffffffffffffffffffffffffffffffffffff\n      and\n        /* \"Voting Contract/contracts/myVoting.sol\":4797:4836  VoterDetails[i].voterAddress == _person */\n      0xffffffffffffffffffffffffffffffffffffffff\n      and\n      sub\n        /* \"Voting Contract/contracts/myVoting.sol\":4794:4884  if(VoterDetails[i].voterAddress == _person){... */\n      tag_273\n      jumpi\n        /* \"Voting Contract/contracts/myVoting.sol\":4863:4868  false */\n      0x00\n        /* \"Voting Contract/contracts/myVoting.sol\":4856:4868  return false */\n      swap2\n      pop\n      pop\n      jump(tag_269)\n        /* \"Voting Contract/contracts/myVoting.sol\":4794:4884  if(VoterDetails[i].voterAddress == _person){... */\n    tag_273:\n        /* \"Voting Contract/contracts/myVoting.sol\":4775:4778  i++ */\n      dup1\n      dup1\n      tag_274\n      swap1\n      tag_92\n      jump\t// in\n    tag_274:\n      swap2\n      pop\n      pop\n        /* \"Voting Contract/contracts/myVoting.sol\":4746:4895  for(uint i=1; i<nextVoterID; i++){... */\n      jump(tag_270)\n    tag_271:\n      pop\n        /* \"Voting Contract/contracts/myVoting.sol\":4912:4916  true */\n      0x01\n        /* \"Voting Contract/contracts/myVoting.sol\":4905:4916  return true */\n      swap1\n      pop\n        /* \"Voting Contract/contracts/myVoting.sol\":2183:2184  _ */\n    tag_269:\n        /* \"Voting Contract/contracts/myVoting.sol\":4643:4924  function voterVerification(address _person) internal  voterRegistrationPhase() returns(bool){... */\n      swap2\n      swap1\n      pop\n      jump\t// out\n        /* \"Voting Contract/contracts/myVoting.sol\":3988:4170  function candidateRegistrationPhaseStatus() private {... */\n    tag_174:\n        /* \"Voting Contract/contracts/myVoting.sol\":4082:4097  block.timestamp */\n      timestamp\n        /* \"Voting Contract/contracts/myVoting.sol\":4054:4079  candidate_Registraion_End */\n      sload(0x01)\n        /* \"Voting Contract/contracts/myVoting.sol\":4054:4097  candidate_Registraion_End < block.timestamp */\n      lt\n        /* \"Voting Contract/contracts/myVoting.sol\":4051:4161  if(candidate_Registraion_End < block.timestamp) {... */\n      iszero\n      tag_276\n      jumpi\n        /* \"Voting Contract/contracts/myVoting.sol\":4144:4149  false */\n      0x00\n        /* \"Voting Contract/contracts/myVoting.sol\":4114:4141  candidate_Registration_Time */\n      0x02\n      0x00\n        /* \"Voting Contract/contracts/myVoting.sol\":4114:4149  candidate_Registration_Time = false */\n      0x0100\n      exp\n      dup2\n      sload\n      dup2\n      0xff\n      mul\n      not\n      and\n      swap1\n      dup4\n      iszero\n      iszero\n      mul\n      or\n      swap1\n      sstore\n      pop\n        /* \"Voting Contract/contracts/myVoting.sol\":4051:4161  if(candidate_Registraion_End < block.timestamp) {... */\n    tag_276:\n        /* \"Voting Contract/contracts/myVoting.sol\":3988:4170  function candidateRegistrationPhaseStatus() private {... */\n      jump\t// out\n        /* \"Voting Contract/contracts/myVoting.sol\":3204:3488  function candidateVerification(address _person) internal view returns(bool){... */\n    tag_187:\n        /* \"Voting Contract/contracts/myVoting.sol\":3274:3278  bool */\n      0x00\n        /* \"Voting Contract/contracts/myVoting.sol\":3294:3300  uint i */\n      dup1\n        /* \"Voting Contract/contracts/myVoting.sol\":3301:3302  1 */\n      0x01\n        /* \"Voting Contract/contracts/myVoting.sol\":3294:3302  uint i=1 */\n      swap1\n      pop\n        /* \"Voting Contract/contracts/myVoting.sol\":3290:3459  for(uint i=1; i<nextCandidateID; i++){... */\n    tag_278:\n        /* \"Voting Contract/contracts/myVoting.sol\":3306:3321  nextCandidateID */\n      sload(0x0e)\n        /* \"Voting Contract/contracts/myVoting.sol\":3304:3305  i */\n      dup2\n        /* \"Voting Contract/contracts/myVoting.sol\":3304:3321  i<nextCandidateID */\n      lt\n        /* \"Voting Contract/contracts/myVoting.sol\":3290:3459  for(uint i=1; i<nextCandidateID; i++){... */\n      iszero\n      tag_279\n      jumpi\n        /* \"Voting Contract/contracts/myVoting.sol\":3384:3391  _person */\n      dup3\n        /* \"Voting Contract/contracts/myVoting.sol\":3344:3391  CandidateDetails[i].candidateAddress == _person */\n      0xffffffffffffffffffffffffffffffffffffffff\n      and\n        /* \"Voting Contract/contracts/myVoting.sol\":3344:3360  CandidateDetails */\n      0x09\n        /* \"Voting Contract/contracts/myVoting.sol\":3344:3363  CandidateDetails[i] */\n      0x00\n        /* \"Voting Contract/contracts/myVoting.sol\":3361:3362  i */\n      dup4\n        /* \"Voting Contract/contracts/myVoting.sol\":3344:3363  CandidateDetails[i] */\n      dup2\n      mstore\n      0x20\n      add\n      swap1\n      dup2\n      mstore\n      0x20\n      add\n      0x00\n      keccak256\n        /* \"Voting Contract/contracts/myVoting.sol\":3344:3380  CandidateDetails[i].candidateAddress */\n      0x05\n      add\n      0x00\n      swap1\n      sload\n      swap1\n      0x0100\n      exp\n      swap1\n      div\n      0xffffffffffffffffffffffffffffffffffffffff\n      and\n        /* \"Voting Contract/contracts/myVoting.sol\":3344:3391  CandidateDetails[i].candidateAddress == _person */\n      0xffffffffffffffffffffffffffffffffffffffff\n      and\n      sub\n        /* \"Voting Contract/contracts/myVoting.sol\":3341:3437  if(CandidateDetails[i].candidateAddress == _person){... */\n      tag_281\n      jumpi\n        /* \"Voting Contract/contracts/myVoting.sol\":3417:3422  false */\n      0x00\n        /* \"Voting Contract/contracts/myVoting.sol\":3410:3422  return false */\n      swap2\n      pop\n      pop\n      jump(tag_277)\n        /* \"Voting Contract/contracts/myVoting.sol\":3341:3437  if(CandidateDetails[i].candidateAddress == _person){... */\n    tag_281:\n        /* \"Voting Contract/contracts/myVoting.sol\":3323:3326  i++ */\n      dup1\n      dup1\n      tag_282\n      swap1\n      tag_92\n      jump\t// in\n    tag_282:\n      swap2\n      pop\n      pop\n        /* \"Voting Contract/contracts/myVoting.sol\":3290:3459  for(uint i=1; i<nextCandidateID; i++){... */\n      jump(tag_278)\n    tag_279:\n      pop\n        /* \"Voting Contract/contracts/myVoting.sol\":3476:3480  true */\n      0x01\n        /* \"Voting Contract/contracts/myVoting.sol\":3469:3480  return true */\n      swap1\n      pop\n        /* \"Voting Contract/contracts/myVoting.sol\":3204:3488  function candidateVerification(address _person) internal view returns(bool){... */\n    tag_277:\n      swap2\n      swap1\n      pop\n      jump\t// out\n    tag_72:\n      mload(0x40)\n      dup1\n      0xc0\n      add\n      0x40\n      mstore\n      dup1\n      0x60\n      dup2\n      mstore\n      0x20\n      add\n      0x00\n      dup2\n      mstore\n      0x20\n      add\n      0x00\n      dup2\n      mstore\n      0x20\n      add\n      0x60\n      dup2\n      mstore\n      0x20\n      add\n      0x00\n      dup2\n      mstore\n      0x20\n      add\n      and(0xffffffffffffffffffffffffffffffffffffffff, 0x00)\n      dup2\n      mstore\n      pop\n      swap1\n      jump\t// out\n    tag_118:\n      mload(0x40)\n      dup1\n      0xe0\n      add\n      0x40\n      mstore\n      dup1\n      0x60\n      dup2\n      mstore\n      0x20\n      add\n      0x00\n      dup2\n      mstore\n      0x20\n      add\n      0x60\n      dup2\n      mstore\n      0x20\n      add\n      0x00\n      dup2\n      mstore\n      0x20\n      add\n      0x60\n      dup2\n      mstore\n      0x20\n      add\n      and(0xffffffffffffffffffffffffffffffffffffffff, 0x00)\n      dup2\n      mstore\n      0x20\n      add\n      0x00\n      dup2\n      mstore\n      pop\n      swap1\n      jump\t// out\n        /* \"#utility.yul\":7:142   */\n    tag_283:\n        /* \"#utility.yul\":95:101   */\n      0x00\n        /* \"#utility.yul\":129:134   */\n      dup2\n        /* \"#utility.yul\":123:135   */\n      mload\n        /* \"#utility.yul\":113:135   */\n      swap1\n      pop\n        /* \"#utility.yul\":7:142   */\n      swap2\n      swap1\n      pop\n      jump\t// out\n        /* \"#utility.yul\":148:353   */\n    tag_284:\n        /* \"#utility.yul\":268:279   */\n      0x00\n        /* \"#utility.yul\":302:308   */\n      dup3\n        /* \"#utility.yul\":297:300   */\n      dup3\n        /* \"#utility.yul\":290:309   */\n      mstore\n        /* \"#utility.yul\":342:346   */\n      0x20\n        /* \"#utility.yul\":337:340   */\n      dup3\n        /* \"#utility.yul\":333:347   */\n      add\n        /* \"#utility.yul\":318:347   */\n      swap1\n      pop\n        /* \"#utility.yul\":148:353   */\n      swap3\n      swap2\n      pop\n      pop\n      jump\t// out\n        /* \"#utility.yul\":359:512   */\n    tag_285:\n        /* \"#utility.yul\":447:451   */\n      0x00\n        /* \"#utility.yul\":470:473   */\n      dup2\n        /* \"#utility.yul\":462:473   */\n      swap1\n      pop\n        /* \"#utility.yul\":500:504   */\n      0x20\n        /* \"#utility.yul\":495:498   */\n      dup3\n        /* \"#utility.yul\":491:505   */\n      add\n        /* \"#utility.yul\":483:505   */\n      swap1\n      pop\n        /* \"#utility.yul\":359:512   */\n      swap2\n      swap1\n      pop\n      jump\t// out\n        /* \"#utility.yul\":518:617   */\n    tag_286:\n        /* \"#utility.yul\":570:576   */\n      0x00\n        /* \"#utility.yul\":604:609   */\n      dup2\n        /* \"#utility.yul\":598:610   */\n      mload\n        /* \"#utility.yul\":588:610   */\n      swap1\n      pop\n        /* \"#utility.yul\":518:617   */\n      swap2\n      swap1\n      pop\n      jump\t// out\n        /* \"#utility.yul\":623:782   */\n    tag_287:\n        /* \"#utility.yul\":697:708   */\n      0x00\n        /* \"#utility.yul\":731:737   */\n      dup3\n        /* \"#utility.yul\":726:729   */\n      dup3\n        /* \"#utility.yul\":719:738   */\n      mstore\n        /* \"#utility.yul\":771:775   */\n      0x20\n        /* \"#utility.yul\":766:769   */\n      dup3\n        /* \"#utility.yul\":762:776   */\n      add\n        /* \"#utility.yul\":747:776   */\n      swap1\n      pop\n        /* \"#utility.yul\":623:782   */\n      swap3\n      swap2\n      pop\n      pop\n      jump\t// out\n        /* \"#utility.yul\":788:1034   */\n    tag_288:\n        /* \"#utility.yul\":869:870   */\n      0x00\n        /* \"#utility.yul\":879:992   */\n    tag_385:\n        /* \"#utility.yul\":893:899   */\n      dup4\n        /* \"#utility.yul\":890:891   */\n      dup2\n        /* \"#utility.yul\":887:900   */\n      lt\n        /* \"#utility.yul\":879:992   */\n      iszero\n      tag_387\n      jumpi\n        /* \"#utility.yul\":978:979   */\n      dup1\n        /* \"#utility.yul\":973:976   */\n      dup3\n        /* \"#utility.yul\":969:980   */\n      add\n        /* \"#utility.yul\":963:981   */\n      mload\n        /* \"#utility.yul\":959:960   */\n      dup2\n        /* \"#utility.yul\":954:957   */\n      dup5\n        /* \"#utility.yul\":950:961   */\n      add\n        /* \"#utility.yul\":943:982   */\n      mstore\n        /* \"#utility.yul\":915:917   */\n      0x20\n        /* \"#utility.yul\":912:913   */\n      dup2\n        /* \"#utility.yul\":908:918   */\n      add\n        /* \"#utility.yul\":903:918   */\n      swap1\n      pop\n        /* \"#utility.yul\":879:992   */\n      jump(tag_385)\n    tag_387:\n        /* \"#utility.yul\":1026:1027   */\n      0x00\n        /* \"#utility.yul\":1017:1023   */\n      dup5\n        /* \"#utility.yul\":1012:1015   */\n      dup5\n        /* \"#utility.yul\":1008:1024   */\n      add\n        /* \"#utility.yul\":1001:1028   */\n      mstore\n        /* \"#utility.yul\":850:1034   */\n      pop\n        /* \"#utility.yul\":788:1034   */\n      pop\n      pop\n      pop\n      jump\t// out\n        /* \"#utility.yul\":1040:1142   */\n    tag_289:\n        /* \"#utility.yul\":1081:1087   */\n      0x00\n        /* \"#utility.yul\":1132:1134   */\n      0x1f\n        /* \"#utility.yul\":1128:1135   */\n      not\n        /* \"#utility.yul\":1123:1125   */\n      0x1f\n        /* \"#utility.yul\":1116:1121   */\n      dup4\n        /* \"#utility.yul\":1112:1126   */\n      add\n        /* \"#utility.yul\":1108:1136   */\n      and\n        /* \"#utility.yul\":1098:1136   */\n      swap1\n      pop\n        /* \"#utility.yul\":1040:1142   */\n      swap2\n      swap1\n      pop\n      jump\t// out\n        /* \"#utility.yul\":1148:1505   */\n    tag_290:\n        /* \"#utility.yul\":1226:1229   */\n      0x00\n        /* \"#utility.yul\":1254:1293   */\n      tag_390\n        /* \"#utility.yul\":1287:1292   */\n      dup3\n        /* \"#utility.yul\":1254:1293   */\n      tag_286\n      jump\t// in\n    tag_390:\n        /* \"#utility.yul\":1309:1370   */\n      tag_391\n        /* \"#utility.yul\":1363:1369   */\n      dup2\n        /* \"#utility.yul\":1358:1361   */\n      dup6\n        /* \"#utility.yul\":1309:1370   */\n      tag_287\n      jump\t// in\n    tag_391:\n        /* \"#utility.yul\":1302:1370   */\n      swap4\n      pop\n        /* \"#utility.yul\":1379:1444   */\n      tag_392\n        /* \"#utility.yul\":1437:1443   */\n      dup2\n        /* \"#utility.yul\":1432:1435   */\n      dup6\n        /* \"#utility.yul\":1425:1429   */\n      0x20\n        /* \"#utility.yul\":1418:1423   */\n      dup7\n        /* \"#utility.yul\":1414:1430   */\n      add\n        /* \"#utility.yul\":1379:1444   */\n      tag_288\n      jump\t// in\n    tag_392:\n        /* \"#utility.yul\":1469:1498   */\n      tag_393\n        /* \"#utility.yul\":1491:1497   */\n      dup2\n        /* \"#utility.yul\":1469:1498   */\n      tag_289\n      jump\t// in\n    tag_393:\n        /* \"#utility.yul\":1464:1467   */\n      dup5\n        /* \"#utility.yul\":1460:1499   */\n      add\n        /* \"#utility.yul\":1453:1499   */\n      swap2\n      pop\n        /* \"#utility.yul\":1230:1505   */\n      pop\n        /* \"#utility.yul\":1148:1505   */\n      swap3\n      swap2\n      pop\n      pop\n      jump\t// out\n        /* \"#utility.yul\":1511:1588   */\n    tag_291:\n        /* \"#utility.yul\":1548:1555   */\n      0x00\n        /* \"#utility.yul\":1577:1582   */\n      dup2\n        /* \"#utility.yul\":1566:1582   */\n      swap1\n      pop\n        /* \"#utility.yul\":1511:1588   */\n      swap2\n      swap1\n      pop\n      jump\t// out\n        /* \"#utility.yul\":1594:1702   */\n    tag_292:\n        /* \"#utility.yul\":1671:1695   */\n      tag_396\n        /* \"#utility.yul\":1689:1694   */\n      dup2\n        /* \"#utility.yul\":1671:1695   */\n      tag_291\n      jump\t// in\n    tag_396:\n        /* \"#utility.yul\":1666:1669   */\n      dup3\n        /* \"#utility.yul\":1659:1696   */\n      mstore\n        /* \"#utility.yul\":1594:1702   */\n      pop\n      pop\n      jump\t// out\n        /* \"#utility.yul\":1708:1834   */\n    tag_293:\n        /* \"#utility.yul\":1745:1752   */\n      0x00\n        /* \"#utility.yul\":1785:1827   */\n      0xffffffffffffffffffffffffffffffffffffffff\n        /* \"#utility.yul\":1778:1783   */\n      dup3\n        /* \"#utility.yul\":1774:1828   */\n      and\n        /* \"#utility.yul\":1763:1828   */\n      swap1\n      pop\n        /* \"#utility.yul\":1708:1834   */\n      swap2\n      swap1\n      pop\n      jump\t// out\n        /* \"#utility.yul\":1840:1936   */\n    tag_294:\n        /* \"#utility.yul\":1877:1884   */\n      0x00\n        /* \"#utility.yul\":1906:1930   */\n      tag_399\n        /* \"#utility.yul\":1924:1929   */\n      dup3\n        /* \"#utility.yul\":1906:1930   */\n      tag_293\n      jump\t// in\n    tag_399:\n        /* \"#utility.yul\":1895:1930   */\n      swap1\n      pop\n        /* \"#utility.yul\":1840:1936   */\n      swap2\n      swap1\n      pop\n      jump\t// out\n        /* \"#utility.yul\":1942:2050   */\n    tag_295:\n        /* \"#utility.yul\":2019:2043   */\n      tag_401\n        /* \"#utility.yul\":2037:2042   */\n      dup2\n        /* \"#utility.yul\":2019:2043   */\n      tag_294\n      jump\t// in\n    tag_401:\n        /* \"#utility.yul\":2014:2017   */\n      dup3\n        /* \"#utility.yul\":2007:2044   */\n      mstore\n        /* \"#utility.yul\":1942:2050   */\n      pop\n      pop\n      jump\t// out\n        /* \"#utility.yul\":2122:3500   */\n    tag_296:\n        /* \"#utility.yul\":2223:2226   */\n      0x00\n        /* \"#utility.yul\":2259:2263   */\n      0xc0\n        /* \"#utility.yul\":2254:2257   */\n      dup4\n        /* \"#utility.yul\":2250:2264   */\n      add\n        /* \"#utility.yul\":2346:2350   */\n      0x00\n        /* \"#utility.yul\":2339:2344   */\n      dup4\n        /* \"#utility.yul\":2335:2351   */\n      add\n        /* \"#utility.yul\":2329:2352   */\n      mload\n        /* \"#utility.yul\":2399:2402   */\n      dup5\n        /* \"#utility.yul\":2393:2397   */\n      dup3\n        /* \"#utility.yul\":2389:2403   */\n      sub\n        /* \"#utility.yul\":2382:2386   */\n      0x00\n        /* \"#utility.yul\":2377:2380   */\n      dup7\n        /* \"#utility.yul\":2373:2387   */\n      add\n        /* \"#utility.yul\":2366:2404   */\n      mstore\n        /* \"#utility.yul\":2425:2498   */\n      tag_403\n        /* \"#utility.yul\":2493:2497   */\n      dup3\n        /* \"#utility.yul\":2479:2491   */\n      dup3\n        /* \"#utility.yul\":2425:2498   */\n      tag_290\n      jump\t// in\n    tag_403:\n        /* \"#utility.yul\":2417:2498   */\n      swap2\n      pop\n        /* \"#utility.yul\":2274:2509   */\n      pop\n        /* \"#utility.yul\":2590:2594   */\n      0x20\n        /* \"#utility.yul\":2583:2588   */\n      dup4\n        /* \"#utility.yul\":2579:2595   */\n      add\n        /* \"#utility.yul\":2573:2596   */\n      mload\n        /* \"#utility.yul\":2609:2672   */\n      tag_404\n        /* \"#utility.yul\":2666:2670   */\n      0x20\n        /* \"#utility.yul\":2661:2664   */\n      dup7\n        /* \"#utility.yul\":2657:2671   */\n      add\n        /* \"#utility.yul\":2643:2655   */\n      dup3\n        /* \"#utility.yul\":2609:2672   */\n      tag_292\n      jump\t// in\n    tag_404:\n        /* \"#utility.yul\":2519:2682   */\n      pop\n        /* \"#utility.yul\":2767:2771   */\n      0x40\n        /* \"#utility.yul\":2760:2765   */\n      dup4\n        /* \"#utility.yul\":2756:2772   */\n      add\n        /* \"#utility.yul\":2750:2773   */\n      mload\n        /* \"#utility.yul\":2786:2849   */\n      tag_405\n        /* \"#utility.yul\":2843:2847   */\n      0x40\n        /* \"#utility.yul\":2838:2841   */\n      dup7\n        /* \"#utility.yul\":2834:2848   */\n      add\n        /* \"#utility.yul\":2820:2832   */\n      dup3\n        /* \"#utility.yul\":2786:2849   */\n      tag_292\n      jump\t// in\n    tag_405:\n        /* \"#utility.yul\":2692:2859   */\n      pop\n        /* \"#utility.yul\":2943:2947   */\n      0x60\n        /* \"#utility.yul\":2936:2941   */\n      dup4\n        /* \"#utility.yul\":2932:2948   */\n      add\n        /* \"#utility.yul\":2926:2949   */\n      mload\n        /* \"#utility.yul\":2996:2999   */\n      dup5\n        /* \"#utility.yul\":2990:2994   */\n      dup3\n        /* \"#utility.yul\":2986:3000   */\n      sub\n        /* \"#utility.yul\":2979:2983   */\n      0x60\n        /* \"#utility.yul\":2974:2977   */\n      dup7\n        /* \"#utility.yul\":2970:2984   */\n      add\n        /* \"#utility.yul\":2963:3001   */\n      mstore\n        /* \"#utility.yul\":3022:3095   */\n      tag_406\n        /* \"#utility.yul\":3090:3094   */\n      dup3\n        /* \"#utility.yul\":3076:3088   */\n      dup3\n        /* \"#utility.yul\":3022:3095   */\n      tag_290\n      jump\t// in\n    tag_406:\n        /* \"#utility.yul\":3014:3095   */\n      swap2\n      pop\n        /* \"#utility.yul\":2869:3106   */\n      pop\n        /* \"#utility.yul\":3199:3203   */\n      0x80\n        /* \"#utility.yul\":3192:3197   */\n      dup4\n        /* \"#utility.yul\":3188:3204   */\n      add\n        /* \"#utility.yul\":3182:3205   */\n      mload\n        /* \"#utility.yul\":3218:3281   */\n      tag_407\n        /* \"#utility.yul\":3275:3279   */\n      0x80\n        /* \"#utility.yul\":3270:3273   */\n      dup7\n        /* \"#utility.yul\":3266:3280   */\n      add\n        /* \"#utility.yul\":3252:3264   */\n      dup3\n        /* \"#utility.yul\":3218:3281   */\n      tag_292\n      jump\t// in\n    tag_407:\n        /* \"#utility.yul\":3116:3291   */\n      pop\n        /* \"#utility.yul\":3381:3385   */\n      0xa0\n        /* \"#utility.yul\":3374:3379   */\n      dup4\n        /* \"#utility.yul\":3370:3386   */\n      add\n        /* \"#utility.yul\":3364:3387   */\n      mload\n        /* \"#utility.yul\":3400:3463   */\n      tag_408\n        /* \"#utility.yul\":3457:3461   */\n      0xa0\n        /* \"#utility.yul\":3452:3455   */\n      dup7\n        /* \"#utility.yul\":3448:3462   */\n      add\n        /* \"#utility.yul\":3434:3446   */\n      dup3\n        /* \"#utility.yul\":3400:3463   */\n      tag_295\n      jump\t// in\n    tag_408:\n        /* \"#utility.yul\":3301:3473   */\n      pop\n        /* \"#utility.yul\":3490:3494   */\n      dup1\n        /* \"#utility.yul\":3483:3494   */\n      swap2\n      pop\n        /* \"#utility.yul\":2228:3500   */\n      pop\n        /* \"#utility.yul\":2122:3500   */\n      swap3\n      swap2\n      pop\n      pop\n      jump\t// out\n        /* \"#utility.yul\":3506:3746   */\n    tag_297:\n        /* \"#utility.yul\":3617:3627   */\n      0x00\n        /* \"#utility.yul\":3652:3740   */\n      tag_410\n        /* \"#utility.yul\":3736:3739   */\n      dup4\n        /* \"#utility.yul\":3728:3734   */\n      dup4\n        /* \"#utility.yul\":3652:3740   */\n      tag_296\n      jump\t// in\n    tag_410:\n        /* \"#utility.yul\":3638:3740   */\n      swap1\n      pop\n        /* \"#utility.yul\":3506:3746   */\n      swap3\n      swap2\n      pop\n      pop\n      jump\t// out\n        /* \"#utility.yul\":3752:3886   */\n    tag_298:\n        /* \"#utility.yul\":3843:3847   */\n      0x00\n        /* \"#utility.yul\":3875:3879   */\n      0x20\n        /* \"#utility.yul\":3870:3873   */\n      dup3\n        /* \"#utility.yul\":3866:3880   */\n      add\n        /* \"#utility.yul\":3858:3880   */\n      swap1\n      pop\n        /* \"#utility.yul\":3752:3886   */\n      swap2\n      swap1\n      pop\n      jump\t// out\n        /* \"#utility.yul\":3962:5041   */\n    tag_299:\n        /* \"#utility.yul\":4123:4126   */\n      0x00\n        /* \"#utility.yul\":4152:4227   */\n      tag_413\n        /* \"#utility.yul\":4221:4226   */\n      dup3\n        /* \"#utility.yul\":4152:4227   */\n      tag_283\n      jump\t// in\n    tag_413:\n        /* \"#utility.yul\":4243:4350   */\n      tag_414\n        /* \"#utility.yul\":4343:4349   */\n      dup2\n        /* \"#utility.yul\":4338:4341   */\n      dup6\n        /* \"#utility.yul\":4243:4350   */\n      tag_284\n      jump\t// in\n    tag_414:\n        /* \"#utility.yul\":4236:4350   */\n      swap4\n      pop\n        /* \"#utility.yul\":4376:4379   */\n      dup4\n        /* \"#utility.yul\":4421:4425   */\n      0x20\n        /* \"#utility.yul\":4413:4419   */\n      dup3\n        /* \"#utility.yul\":4409:4426   */\n      mul\n        /* \"#utility.yul\":4404:4407   */\n      dup6\n        /* \"#utility.yul\":4400:4427   */\n      add\n        /* \"#utility.yul\":4451:4528   */\n      tag_415\n        /* \"#utility.yul\":4522:4527   */\n      dup6\n        /* \"#utility.yul\":4451:4528   */\n      tag_285\n      jump\t// in\n    tag_415:\n        /* \"#utility.yul\":4551:4558   */\n      dup1\n        /* \"#utility.yul\":4582:4583   */\n      0x00\n        /* \"#utility.yul\":4567:4996   */\n    tag_416:\n        /* \"#utility.yul\":4592:4598   */\n      dup6\n        /* \"#utility.yul\":4589:4590   */\n      dup2\n        /* \"#utility.yul\":4586:4599   */\n      lt\n        /* \"#utility.yul\":4567:4996   */\n      iszero\n      tag_418\n      jumpi\n        /* \"#utility.yul\":4663:4672   */\n      dup5\n        /* \"#utility.yul\":4657:4661   */\n      dup5\n        /* \"#utility.yul\":4653:4673   */\n      sub\n        /* \"#utility.yul\":4648:4651   */\n      dup10\n        /* \"#utility.yul\":4641:4674   */\n      mstore\n        /* \"#utility.yul\":4714:4720   */\n      dup2\n        /* \"#utility.yul\":4708:4721   */\n      mload\n        /* \"#utility.yul\":4742:4848   */\n      tag_419\n        /* \"#utility.yul\":4843:4847   */\n      dup6\n        /* \"#utility.yul\":4828:4841   */\n      dup3\n        /* \"#utility.yul\":4742:4848   */\n      tag_297\n      jump\t// in\n    tag_419:\n        /* \"#utility.yul\":4734:4848   */\n      swap5\n      pop\n        /* \"#utility.yul\":4871:4952   */\n      tag_420\n        /* \"#utility.yul\":4945:4951   */\n      dup4\n        /* \"#utility.yul\":4871:4952   */\n      tag_298\n      jump\t// in\n    tag_420:\n        /* \"#utility.yul\":4861:4952   */\n      swap3\n      pop\n        /* \"#utility.yul\":4981:4985   */\n      0x20\n        /* \"#utility.yul\":4976:4979   */\n      dup11\n        /* \"#utility.yul\":4972:4986   */\n      add\n        /* \"#utility.yul\":4965:4986   */\n      swap10\n      pop\n        /* \"#utility.yul\":4627:4996   */\n      pop\n        /* \"#utility.yul\":4614:4615   */\n      0x01\n        /* \"#utility.yul\":4611:4612   */\n      dup2\n        /* \"#utility.yul\":4607:4616   */\n      add\n        /* \"#utility.yul\":4602:4616   */\n      swap1\n      pop\n        /* \"#utility.yul\":4567:4996   */\n      jump(tag_416)\n    tag_418:\n        /* \"#utility.yul\":4571:4585   */\n      pop\n        /* \"#utility.yul\":5012:5016   */\n      dup3\n        /* \"#utility.yul\":5005:5016   */\n      swap8\n      pop\n        /* \"#utility.yul\":5032:5035   */\n      dup8\n        /* \"#utility.yul\":5025:5035   */\n      swap6\n      pop\n        /* \"#utility.yul\":4128:5041   */\n      pop\n      pop\n      pop\n      pop\n      pop\n        /* \"#utility.yul\":3962:5041   */\n      swap3\n      swap2\n      pop\n      pop\n      jump\t// out\n        /* \"#utility.yul\":5047:5504   */\n    tag_19:\n        /* \"#utility.yul\":5232:5236   */\n      0x00\n        /* \"#utility.yul\":5270:5272   */\n      0x20\n        /* \"#utility.yul\":5259:5268   */\n      dup3\n        /* \"#utility.yul\":5255:5273   */\n      add\n        /* \"#utility.yul\":5247:5273   */\n      swap1\n      pop\n        /* \"#utility.yul\":5319:5328   */\n      dup2\n        /* \"#utility.yul\":5313:5317   */\n      dup2\n        /* \"#utility.yul\":5309:5329   */\n      sub\n        /* \"#utility.yul\":5305:5306   */\n      0x00\n        /* \"#utility.yul\":5294:5303   */\n      dup4\n        /* \"#utility.yul\":5290:5307   */\n      add\n        /* \"#utility.yul\":5283:5330   */\n      mstore\n        /* \"#utility.yul\":5347:5497   */\n      tag_422\n        /* \"#utility.yul\":5492:5496   */\n      dup2\n        /* \"#utility.yul\":5483:5489   */\n      dup5\n        /* \"#utility.yul\":5347:5497   */\n      tag_299\n      jump\t// in\n    tag_422:\n        /* \"#utility.yul\":5339:5497   */\n      swap1\n      pop\n        /* \"#utility.yul\":5047:5504   */\n      swap3\n      swap2\n      pop\n      pop\n      jump\t// out\n        /* \"#utility.yul\":5510:5628   */\n    tag_300:\n        /* \"#utility.yul\":5597:5621   */\n      tag_424\n        /* \"#utility.yul\":5615:5620   */\n      dup2\n        /* \"#utility.yul\":5597:5621   */\n      tag_294\n      jump\t// in\n    tag_424:\n        /* \"#utility.yul\":5592:5595   */\n      dup3\n        /* \"#utility.yul\":5585:5622   */\n      mstore\n        /* \"#utility.yul\":5510:5628   */\n      pop\n      pop\n      jump\t// out\n        /* \"#utility.yul\":5634:5856   */\n    tag_23:\n        /* \"#utility.yul\":5727:5731   */\n      0x00\n        /* \"#utility.yul\":5765:5767   */\n      0x20\n        /* \"#utility.yul\":5754:5763   */\n      dup3\n        /* \"#utility.yul\":5750:5768   */\n      add\n        /* \"#utility.yul\":5742:5768   */\n      swap1\n      pop\n        /* \"#utility.yul\":5778:5849   */\n      tag_426\n        /* \"#utility.yul\":5846:5847   */\n      0x00\n        /* \"#utility.yul\":5835:5844   */\n      dup4\n        /* \"#utility.yul\":5831:5848   */\n      add\n        /* \"#utility.yul\":5822:5828   */\n      dup5\n        /* \"#utility.yul\":5778:5849   */\n      tag_300\n      jump\t// in\n    tag_426:\n        /* \"#utility.yul\":5634:5856   */\n      swap3\n      swap2\n      pop\n      pop\n      jump\t// out\n        /* \"#utility.yul\":5862:6001   */\n    tag_301:\n        /* \"#utility.yul\":5954:5960   */\n      0x00\n        /* \"#utility.yul\":5988:5993   */\n      dup2\n        /* \"#utility.yul\":5982:5994   */\n      mload\n        /* \"#utility.yul\":5972:5994   */\n      swap1\n      pop\n        /* \"#utility.yul\":5862:6001   */\n      swap2\n      swap1\n      pop\n      jump\t// out\n        /* \"#utility.yul\":6007:6216   */\n    tag_302:\n        /* \"#utility.yul\":6131:6142   */\n      0x00\n        /* \"#utility.yul\":6165:6171   */\n      dup3\n        /* \"#utility.yul\":6160:6163   */\n      dup3\n        /* \"#utility.yul\":6153:6172   */\n      mstore\n        /* \"#utility.yul\":6205:6209   */\n      0x20\n        /* \"#utility.yul\":6200:6203   */\n      dup3\n        /* \"#utility.yul\":6196:6210   */\n      add\n        /* \"#utility.yul\":6181:6210   */\n      swap1\n      pop\n        /* \"#utility.yul\":6007:6216   */\n      swap3\n      swap2\n      pop\n      pop\n      jump\t// out\n        /* \"#utility.yul\":6222:6379   */\n    tag_303:\n        /* \"#utility.yul\":6314:6318   */\n      0x00\n        /* \"#utility.yul\":6337:6340   */\n      dup2\n        /* \"#utility.yul\":6329:6340   */\n      swap1\n      pop\n        /* \"#utility.yul\":6367:6371   */\n      0x20\n        /* \"#utility.yul\":6362:6365   */\n      dup3\n        /* \"#utility.yul\":6358:6372   */\n      add\n        /* \"#utility.yul\":6350:6372   */\n      swap1\n      pop\n        /* \"#utility.yul\":6222:6379   */\n      swap2\n      swap1\n      pop\n      jump\t// out\n        /* \"#utility.yul\":6459:8089   */\n    tag_304:\n        /* \"#utility.yul\":6568:6571   */\n      0x00\n        /* \"#utility.yul\":6604:6608   */\n      0xe0\n        /* \"#utility.yul\":6599:6602   */\n      dup4\n        /* \"#utility.yul\":6595:6609   */\n      add\n        /* \"#utility.yul\":6691:6695   */\n      0x00\n        /* \"#utility.yul\":6684:6689   */\n      dup4\n        /* \"#utility.yul\":6680:6696   */\n      add\n        /* \"#utility.yul\":6674:6697   */\n      mload\n        /* \"#utility.yul\":6744:6747   */\n      dup5\n        /* \"#utility.yul\":6738:6742   */\n      dup3\n        /* \"#utility.yul\":6734:6748   */\n      sub\n        /* \"#utility.yul\":6727:6731   */\n      0x00\n        /* \"#utility.yul\":6722:6725   */\n      dup7\n        /* \"#utility.yul\":6718:6732   */\n      add\n        /* \"#utility.yul\":6711:6749   */\n      mstore\n        /* \"#utility.yul\":6770:6843   */\n      tag_431\n        /* \"#utility.yul\":6838:6842   */\n      dup3\n        /* \"#utility.yul\":6824:6836   */\n      dup3\n        /* \"#utility.yul\":6770:6843   */\n      tag_290\n      jump\t// in\n    tag_431:\n        /* \"#utility.yul\":6762:6843   */\n      swap2\n      pop\n        /* \"#utility.yul\":6619:6854   */\n      pop\n        /* \"#utility.yul\":6935:6939   */\n      0x20\n        /* \"#utility.yul\":6928:6933   */\n      dup4\n        /* \"#utility.yul\":6924:6940   */\n      add\n        /* \"#utility.yul\":6918:6941   */\n      mload\n        /* \"#utility.yul\":6954:7017   */\n      tag_432\n        /* \"#utility.yul\":7011:7015   */\n      0x20\n        /* \"#utility.yul\":7006:7009   */\n      dup7\n        /* \"#utility.yul\":7002:7016   */\n      add\n        /* \"#utility.yul\":6988:7000   */\n      dup3\n        /* \"#utility.yul\":6954:7017   */\n      tag_292\n      jump\t// in\n    tag_432:\n        /* \"#utility.yul\":6864:7027   */\n      pop\n        /* \"#utility.yul\":7110:7114   */\n      0x40\n        /* \"#utility.yul\":7103:7108   */\n      dup4\n        /* \"#utility.yul\":7099:7115   */\n      add\n        /* \"#utility.yul\":7093:7116   */\n      mload\n        /* \"#utility.yul\":7163:7166   */\n      dup5\n        /* \"#utility.yul\":7157:7161   */\n      dup3\n        /* \"#utility.yul\":7153:7167   */\n      sub\n        /* \"#utility.yul\":7146:7150   */\n      0x40\n        /* \"#utility.yul\":7141:7144   */\n      dup7\n        /* \"#utility.yul\":7137:7151   */\n      add\n        /* \"#utility.yul\":7130:7168   */\n      mstore\n        /* \"#utility.yul\":7189:7262   */\n      tag_433\n        /* \"#utility.yul\":7257:7261   */\n      dup3\n        /* \"#utility.yul\":7243:7255   */\n      dup3\n        /* \"#utility.yul\":7189:7262   */\n      tag_290\n      jump\t// in\n    tag_433:\n        /* \"#utility.yul\":7181:7262   */\n      swap2\n      pop\n        /* \"#utility.yul\":7037:7273   */\n      pop\n        /* \"#utility.yul\":7362:7366   */\n      0x60\n        /* \"#utility.yul\":7355:7360   */\n      dup4\n        /* \"#utility.yul\":7351:7367   */\n      add\n        /* \"#utility.yul\":7345:7368   */\n      mload\n        /* \"#utility.yul\":7381:7444   */\n      tag_434\n        /* \"#utility.yul\":7438:7442   */\n      0x60\n        /* \"#utility.yul\":7433:7436   */\n      dup7\n        /* \"#utility.yul\":7429:7443   */\n      add\n        /* \"#utility.yul\":7415:7427   */\n      dup3\n        /* \"#utility.yul\":7381:7444   */\n      tag_292\n      jump\t// in\n    tag_434:\n        /* \"#utility.yul\":7283:7454   */\n      pop\n        /* \"#utility.yul\":7538:7542   */\n      0x80\n        /* \"#utility.yul\":7531:7536   */\n      dup4\n        /* \"#utility.yul\":7527:7543   */\n      add\n        /* \"#utility.yul\":7521:7544   */\n      mload\n        /* \"#utility.yul\":7591:7594   */\n      dup5\n        /* \"#utility.yul\":7585:7589   */\n      dup3\n        /* \"#utility.yul\":7581:7595   */\n      sub\n        /* \"#utility.yul\":7574:7578   */\n      0x80\n        /* \"#utility.yul\":7569:7572   */\n      dup7\n        /* \"#utility.yul\":7565:7579   */\n      add\n        /* \"#utility.yul\":7558:7596   */\n      mstore\n        /* \"#utility.yul\":7617:7690   */\n      tag_435\n        /* \"#utility.yul\":7685:7689   */\n      dup3\n        /* \"#utility.yul\":7671:7683   */\n      dup3\n        /* \"#utility.yul\":7617:7690   */\n      tag_290\n      jump\t// in\n    tag_435:\n        /* \"#utility.yul\":7609:7690   */\n      swap2\n      pop\n        /* \"#utility.yul\":7464:7701   */\n      pop\n        /* \"#utility.yul\":7795:7799   */\n      0xa0\n        /* \"#utility.yul\":7788:7793   */\n      dup4\n        /* \"#utility.yul\":7784:7800   */\n      add\n        /* \"#utility.yul\":7778:7801   */\n      mload\n        /* \"#utility.yul\":7814:7877   */\n      tag_436\n        /* \"#utility.yul\":7871:7875   */\n      0xa0\n        /* \"#utility.yul\":7866:7869   */\n      dup7\n        /* \"#utility.yul\":7862:7876   */\n      add\n        /* \"#utility.yul\":7848:7860   */\n      dup3\n        /* \"#utility.yul\":7814:7877   */\n      tag_295\n      jump\t// in\n    tag_436:\n        /* \"#utility.yul\":7711:7887   */\n      pop\n        /* \"#utility.yul\":7970:7974   */\n      0xc0\n        /* \"#utility.yul\":7963:7968   */\n      dup4\n        /* \"#utility.yul\":7959:7975   */\n      add\n        /* \"#utility.yul\":7953:7976   */\n      mload\n        /* \"#utility.yul\":7989:8052   */\n      tag_437\n        /* \"#utility.yul\":8046:8050   */\n      0xc0\n        /* \"#utility.yul\":8041:8044   */\n      dup7\n        /* \"#utility.yul\":8037:8051   */\n      add\n        /* \"#utility.yul\":8023:8035   */\n      dup3\n        /* \"#utility.yul\":7989:8052   */\n      tag_292\n      jump\t// in\n    tag_437:\n        /* \"#utility.yul\":7897:8062   */\n      pop\n        /* \"#utility.yul\":8079:8083   */\n      dup1\n        /* \"#utility.yul\":8072:8083   */\n      swap2\n      pop\n        /* \"#utility.yul\":6573:8089   */\n      pop\n        /* \"#utility.yul\":6459:8089   */\n      swap3\n      swap2\n      pop\n      pop\n      jump\t// out\n        /* \"#utility.yul\":8095:8351   */\n    tag_305:\n        /* \"#utility.yul\":8214:8224   */\n      0x00\n        /* \"#utility.yul\":8249:8345   */\n      tag_439\n        /* \"#utility.yul\":8341:8344   */\n      dup4\n        /* \"#utility.yul\":8333:8339   */\n      dup4\n        /* \"#utility.yul\":8249:8345   */\n      tag_304\n      jump\t// in\n    tag_439:\n        /* \"#utility.yul\":8235:8345   */\n      swap1\n      pop\n        /* \"#utility.yul\":8095:8351   */\n      swap3\n      swap2\n      pop\n      pop\n      jump\t// out\n        /* \"#utility.yul\":8357:8495   */\n    tag_306:\n        /* \"#utility.yul\":8452:8456   */\n      0x00\n        /* \"#utility.yul\":8484:8488   */\n      0x20\n        /* \"#utility.yul\":8479:8482   */\n      dup3\n        /* \"#utility.yul\":8475:8489   */\n      add\n        /* \"#utility.yul\":8467:8489   */\n      swap1\n      pop\n        /* \"#utility.yul\":8357:8495   */\n      swap2\n      swap1\n      pop\n      jump\t// out\n        /* \"#utility.yul\":8579:9690   */\n    tag_307:\n        /* \"#utility.yul\":8748:8751   */\n      0x00\n        /* \"#utility.yul\":8777:8856   */\n      tag_442\n        /* \"#utility.yul\":8850:8855   */\n      dup3\n        /* \"#utility.yul\":8777:8856   */\n      tag_301\n      jump\t// in\n    tag_442:\n        /* \"#utility.yul\":8872:8983   */\n      tag_443\n        /* \"#utility.yul\":8976:8982   */\n      dup2\n        /* \"#utility.yul\":8971:8974   */\n      dup6\n        /* \"#utility.yul\":8872:8983   */\n      tag_302\n      jump\t// in\n    tag_443:\n        /* \"#utility.yul\":8865:8983   */\n      swap4\n      pop\n        /* \"#utility.yul\":9009:9012   */\n      dup4\n        /* \"#utility.yul\":9054:9058   */\n      0x20\n        /* \"#utility.yul\":9046:9052   */\n      dup3\n        /* \"#utility.yul\":9042:9059   */\n      mul\n        /* \"#utility.yul\":9037:9040   */\n      dup6\n        /* \"#utility.yul\":9033:9060   */\n      add\n        /* \"#utility.yul\":9084:9165   */\n      tag_444\n        /* \"#utility.yul\":9159:9164   */\n      dup6\n        /* \"#utility.yul\":9084:9165   */\n      tag_303\n      jump\t// in\n    tag_444:\n        /* \"#utility.yul\":9188:9195   */\n      dup1\n        /* \"#utility.yul\":9219:9220   */\n      0x00\n        /* \"#utility.yul\":9204:9645   */\n    tag_445:\n        /* \"#utility.yul\":9229:9235   */\n      dup6\n        /* \"#utility.yul\":9226:9227   */\n      dup2\n        /* \"#utility.yul\":9223:9236   */\n      lt\n        /* \"#utility.yul\":9204:9645   */\n      iszero\n      tag_447\n      jumpi\n        /* \"#utility.yul\":9300:9309   */\n      dup5\n        /* \"#utility.yul\":9294:9298   */\n      dup5\n        /* \"#utility.yul\":9290:9310   */\n      sub\n        /* \"#utility.yul\":9285:9288   */\n      dup10\n        /* \"#utility.yul\":9278:9311   */\n      mstore\n        /* \"#utility.yul\":9351:9357   */\n      dup2\n        /* \"#utility.yul\":9345:9358   */\n      mload\n        /* \"#utility.yul\":9379:9493   */\n      tag_448\n        /* \"#utility.yul\":9488:9492   */\n      dup6\n        /* \"#utility.yul\":9473:9486   */\n      dup3\n        /* \"#utility.yul\":9379:9493   */\n      tag_305\n      jump\t// in\n    tag_448:\n        /* \"#utility.yul\":9371:9493   */\n      swap5\n      pop\n        /* \"#utility.yul\":9516:9601   */\n      tag_449\n        /* \"#utility.yul\":9594:9600   */\n      dup4\n        /* \"#utility.yul\":9516:9601   */\n      tag_306\n      jump\t// in\n    tag_449:\n        /* \"#utility.yul\":9506:9601   */\n      swap3\n      pop\n        /* \"#utility.yul\":9630:9634   */\n      0x20\n        /* \"#utility.yul\":9625:9628   */\n      dup11\n        /* \"#utility.yul\":9621:9635   */\n      add\n        /* \"#utility.yul\":9614:9635   */\n      swap10\n      pop\n        /* \"#utility.yul\":9264:9645   */\n      pop\n        /* \"#utility.yul\":9251:9252   */\n      0x01\n        /* \"#utility.yul\":9248:9249   */\n      dup2\n        /* \"#utility.yul\":9244:9253   */\n      add\n        /* \"#utility.yul\":9239:9253   */\n      swap1\n      pop\n        /* \"#utility.yul\":9204:9645   */\n      jump(tag_445)\n    tag_447:\n        /* \"#utility.yul\":9208:9222   */\n      pop\n        /* \"#utility.yul\":9661:9665   */\n      dup3\n        /* \"#utility.yul\":9654:9665   */\n      swap8\n      pop\n        /* \"#utility.yul\":9681:9684   */\n      dup8\n        /* \"#utility.yul\":9674:9684   */\n      swap6\n      pop\n        /* \"#utility.yul\":8753:9690   */\n      pop\n      pop\n      pop\n      pop\n      pop\n        /* \"#utility.yul\":8579:9690   */\n      swap3\n      swap2\n      pop\n      pop\n      jump\t// out\n        /* \"#utility.yul\":9696:10169   */\n    tag_27:\n        /* \"#utility.yul\":9889:9893   */\n      0x00\n        /* \"#utility.yul\":9927:9929   */\n      0x20\n        /* \"#utility.yul\":9916:9925   */\n      dup3\n        /* \"#utility.yul\":9912:9930   */\n      add\n        /* \"#utility.yul\":9904:9930   */\n      swap1\n      pop\n        /* \"#utility.yul\":9976:9985   */\n      dup2\n        /* \"#utility.yul\":9970:9974   */\n      dup2\n        /* \"#utility.yul\":9966:9986   */\n      sub\n        /* \"#utility.yul\":9962:9963   */\n      0x00\n        /* \"#utility.yul\":9951:9960   */\n      dup4\n        /* \"#utility.yul\":9947:9964   */\n      add\n        /* \"#utility.yul\":9940:9987   */\n      mstore\n        /* \"#utility.yul\":10004:10162   */\n      tag_451\n        /* \"#utility.yul\":10157:10161   */\n      dup2\n        /* \"#utility.yul\":10148:10154   */\n      dup5\n        /* \"#utility.yul\":10004:10162   */\n      tag_307\n      jump\t// in\n    tag_451:\n        /* \"#utility.yul\":9996:10162   */\n      swap1\n      pop\n        /* \"#utility.yul\":9696:10169   */\n      swap3\n      swap2\n      pop\n      pop\n      jump\t// out\n        /* \"#utility.yul\":10175:10250   */\n    tag_308:\n        /* \"#utility.yul\":10208:10214   */\n      0x00\n        /* \"#utility.yul\":10241:10243   */\n      0x40\n        /* \"#utility.yul\":10235:10244   */\n      mload\n        /* \"#utility.yul\":10225:10244   */\n      swap1\n      pop\n        /* \"#utility.yul\":10175:10250   */\n      swap1\n      jump\t// out\n        /* \"#utility.yul\":10256:10373   */\n    tag_309:\n        /* \"#utility.yul\":10365:10366   */\n      0x00\n        /* \"#utility.yul\":10362:10363   */\n      dup1\n        /* \"#utility.yul\":10355:10367   */\n      revert\n        /* \"#utility.yul\":10379:10496   */\n    tag_310:\n        /* \"#utility.yul\":10488:10489   */\n      0x00\n        /* \"#utility.yul\":10485:10486   */\n      dup1\n        /* \"#utility.yul\":10478:10490   */\n      revert\n        /* \"#utility.yul\":10502:10624   */\n    tag_311:\n        /* \"#utility.yul\":10575:10599   */\n      tag_456\n        /* \"#utility.yul\":10593:10598   */\n      dup2\n        /* \"#utility.yul\":10575:10599   */\n      tag_291\n      jump\t// in\n    tag_456:\n        /* \"#utility.yul\":10568:10573   */\n      dup2\n        /* \"#utility.yul\":10565:10600   */\n      eq\n        /* \"#utility.yul\":10555:10618   */\n      tag_457\n      jumpi\n        /* \"#utility.yul\":10614:10615   */\n      0x00\n        /* \"#utility.yul\":10611:10612   */\n      dup1\n        /* \"#utility.yul\":10604:10616   */\n      revert\n        /* \"#utility.yul\":10555:10618   */\n    tag_457:\n        /* \"#utility.yul\":10502:10624   */\n      pop\n      jump\t// out\n        /* \"#utility.yul\":10630:10769   */\n    tag_312:\n        /* \"#utility.yul\":10676:10681   */\n      0x00\n        /* \"#utility.yul\":10714:10720   */\n      dup2\n        /* \"#utility.yul\":10701:10721   */\n      calldataload\n        /* \"#utility.yul\":10692:10721   */\n      swap1\n      pop\n        /* \"#utility.yul\":10730:10763   */\n      tag_459\n        /* \"#utility.yul\":10757:10762   */\n      dup2\n        /* \"#utility.yul\":10730:10763   */\n      tag_311\n      jump\t// in\n    tag_459:\n        /* \"#utility.yul\":10630:10769   */\n      swap3\n      swap2\n      pop\n      pop\n      jump\t// out\n        /* \"#utility.yul\":10775:11249   */\n    tag_30:\n        /* \"#utility.yul\":10843:10849   */\n      0x00\n        /* \"#utility.yul\":10851:10857   */\n      dup1\n        /* \"#utility.yul\":10900:10902   */\n      0x40\n        /* \"#utility.yul\":10888:10897   */\n      dup4\n        /* \"#utility.yul\":10879:10886   */\n      dup6\n        /* \"#utility.yul\":10875:10898   */\n      sub\n        /* \"#utility.yul\":10871:10903   */\n      slt\n        /* \"#utility.yul\":10868:10987   */\n      iszero\n      tag_461\n      jumpi\n        /* \"#utility.yul\":10906:10985   */\n      tag_462\n      tag_309\n      jump\t// in\n    tag_462:\n        /* \"#utility.yul\":10868:10987   */\n    tag_461:\n        /* \"#utility.yul\":11026:11027   */\n      0x00\n        /* \"#utility.yul\":11051:11104   */\n      tag_463\n        /* \"#utility.yul\":11096:11103   */\n      dup6\n        /* \"#utility.yul\":11087:11093   */\n      dup3\n        /* \"#utility.yul\":11076:11085   */\n      dup7\n        /* \"#utility.yul\":11072:11094   */\n      add\n        /* \"#utility.yul\":11051:11104   */\n      tag_312\n      jump\t// in\n    tag_463:\n        /* \"#utility.yul\":11041:11104   */\n      swap3\n      pop\n        /* \"#utility.yul\":10997:11114   */\n      pop\n        /* \"#utility.yul\":11153:11155   */\n      0x20\n        /* \"#utility.yul\":11179:11232   */\n      tag_464\n        /* \"#utility.yul\":11224:11231   */\n      dup6\n        /* \"#utility.yul\":11215:11221   */\n      dup3\n        /* \"#utility.yul\":11204:11213   */\n      dup7\n        /* \"#utility.yul\":11200:11222   */\n      add\n        /* \"#utility.yul\":11179:11232   */\n      tag_312\n      jump\t// in\n    tag_464:\n        /* \"#utility.yul\":11169:11232   */\n      swap2\n      pop\n        /* \"#utility.yul\":11124:11242   */\n      pop\n        /* \"#utility.yul\":10775:11249   */\n      swap3\n      pop\n      swap3\n      swap1\n      pop\n      jump\t// out\n        /* \"#utility.yul\":11255:11372   */\n    tag_313:\n        /* \"#utility.yul\":11364:11365   */\n      0x00\n        /* \"#utility.yul\":11361:11362   */\n      dup1\n        /* \"#utility.yul\":11354:11366   */\n      revert\n        /* \"#utility.yul\":11378:11495   */\n    tag_314:\n        /* \"#utility.yul\":11487:11488   */\n      0x00\n        /* \"#utility.yul\":11484:11485   */\n      dup1\n        /* \"#utility.yul\":11477:11489   */\n      revert\n        /* \"#utility.yul\":11501:11681   */\n    tag_68:\n        /* \"#utility.yul\":11549:11626   */\n      0x4e487b7100000000000000000000000000000000000000000000000000000000\n        /* \"#utility.yul\":11546:11547   */\n      0x00\n        /* \"#utility.yul\":11539:11627   */\n      mstore\n        /* \"#utility.yul\":11646:11650   */\n      0x41\n        /* \"#utility.yul\":11643:11644   */\n      0x04\n        /* \"#utility.yul\":11636:11651   */\n      mstore\n        /* \"#utility.yul\":11670:11674   */\n      0x24\n        /* \"#utility.yul\":11667:11668   */\n      0x00\n        /* \"#utility.yul\":11660:11675   */\n      revert\n        /* \"#utility.yul\":11687:11968   */\n    tag_315:\n        /* \"#utility.yul\":11770:11797   */\n      tag_469\n        /* \"#utility.yul\":11792:11796   */\n      dup3\n        /* \"#utility.yul\":11770:11797   */\n      tag_289\n      jump\t// in\n    tag_469:\n        /* \"#utility.yul\":11762:11768   */\n      dup2\n        /* \"#utility.yul\":11758:11798   */\n      add\n        /* \"#utility.yul\":11900:11906   */\n      dup2\n        /* \"#utility.yul\":11888:11898   */\n      dup2\n        /* \"#utility.yul\":11885:11907   */\n      lt\n        /* \"#utility.yul\":11864:11882   */\n      0xffffffffffffffff\n        /* \"#utility.yul\":11852:11862   */\n      dup3\n        /* \"#utility.yul\":11849:11883   */\n      gt\n        /* \"#utility.yul\":11846:11908   */\n      or\n        /* \"#utility.yul\":11843:11931   */\n      iszero\n      tag_470\n      jumpi\n        /* \"#utility.yul\":11911:11929   */\n      tag_471\n      tag_68\n      jump\t// in\n    tag_471:\n        /* \"#utility.yul\":11843:11931   */\n    tag_470:\n        /* \"#utility.yul\":11951:11961   */\n      dup1\n        /* \"#utility.yul\":11947:11949   */\n      0x40\n        /* \"#utility.yul\":11940:11962   */\n      mstore\n        /* \"#utility.yul\":11730:11968   */\n      pop\n        /* \"#utility.yul\":11687:11968   */\n      pop\n      pop\n      jump\t// out\n        /* \"#utility.yul\":11974:12103   */\n    tag_316:\n        /* \"#utility.yul\":12008:12014   */\n      0x00\n        /* \"#utility.yul\":12035:12055   */\n      tag_473\n      tag_308\n      jump\t// in\n    tag_473:\n        /* \"#utility.yul\":12025:12055   */\n      swap1\n      pop\n        /* \"#utility.yul\":12064:12097   */\n      tag_474\n        /* \"#utility.yul\":12092:12096   */\n      dup3\n        /* \"#utility.yul\":12084:12090   */\n      dup3\n        /* \"#utility.yul\":12064:12097   */\n      tag_315\n      jump\t// in\n    tag_474:\n        /* \"#utility.yul\":11974:12103   */\n      swap2\n      swap1\n      pop\n      jump\t// out\n        /* \"#utility.yul\":12109:12417   */\n    tag_317:\n        /* \"#utility.yul\":12171:12175   */\n      0x00\n        /* \"#utility.yul\":12261:12279   */\n      0xffffffffffffffff\n        /* \"#utility.yul\":12253:12259   */\n      dup3\n        /* \"#utility.yul\":12250:12280   */\n      gt\n        /* \"#utility.yul\":12247:12303   */\n      iszero\n      tag_476\n      jumpi\n        /* \"#utility.yul\":12283:12301   */\n      tag_477\n      tag_68\n      jump\t// in\n    tag_477:\n        /* \"#utility.yul\":12247:12303   */\n    tag_476:\n        /* \"#utility.yul\":12321:12350   */\n      tag_478\n        /* \"#utility.yul\":12343:12349   */\n      dup3\n        /* \"#utility.yul\":12321:12350   */\n      tag_289\n      jump\t// in\n    tag_478:\n        /* \"#utility.yul\":12313:12350   */\n      swap1\n      pop\n        /* \"#utility.yul\":12405:12409   */\n      0x20\n        /* \"#utility.yul\":12399:12403   */\n      dup2\n        /* \"#utility.yul\":12395:12410   */\n      add\n        /* \"#utility.yul\":12387:12410   */\n      swap1\n      pop\n        /* \"#utility.yul\":12109:12417   */\n      swap2\n      swap1\n      pop\n      jump\t// out\n        /* \"#utility.yul\":12423:12569   */\n    tag_318:\n        /* \"#utility.yul\":12520:12526   */\n      dup3\n        /* \"#utility.yul\":12515:12518   */\n      dup2\n        /* \"#utility.yul\":12510:12513   */\n      dup4\n        /* \"#utility.yul\":12497:12527   */\n      calldatacopy\n        /* \"#utility.yul\":12561:12562   */\n      0x00\n        /* \"#utility.yul\":12552:12558   */\n      dup4\n        /* \"#utility.yul\":12547:12550   */\n      dup4\n        /* \"#utility.yul\":12543:12559   */\n      add\n        /* \"#utility.yul\":12536:12563   */\n      mstore\n        /* \"#utility.yul\":12423:12569   */\n      pop\n      pop\n      pop\n      jump\t// out\n        /* \"#utility.yul\":12575:13000   */\n    tag_319:\n        /* \"#utility.yul\":12653:12658   */\n      0x00\n        /* \"#utility.yul\":12678:12744   */\n      tag_481\n        /* \"#utility.yul\":12694:12743   */\n      tag_482\n        /* \"#utility.yul\":12736:12742   */\n      dup5\n        /* \"#utility.yul\":12694:12743   */\n      tag_317\n      jump\t// in\n    tag_482:\n        /* \"#utility.yul\":12678:12744   */\n      tag_316\n      jump\t// in\n    tag_481:\n        /* \"#utility.yul\":12669:12744   */\n      swap1\n      pop\n        /* \"#utility.yul\":12767:12773   */\n      dup3\n        /* \"#utility.yul\":12760:12765   */\n      dup2\n        /* \"#utility.yul\":12753:12774   */\n      mstore\n        /* \"#utility.yul\":12805:12809   */\n      0x20\n        /* \"#utility.yul\":12798:12803   */\n      dup2\n        /* \"#utility.yul\":12794:12810   */\n      add\n        /* \"#utility.yul\":12843:12846   */\n      dup5\n        /* \"#utility.yul\":12834:12840   */\n      dup5\n        /* \"#utility.yul\":12829:12832   */\n      dup5\n        /* \"#utility.yul\":12825:12841   */\n      add\n        /* \"#utility.yul\":12822:12847   */\n      gt\n        /* \"#utility.yul\":12819:12931   */\n      iszero\n      tag_483\n      jumpi\n        /* \"#utility.yul\":12850:12929   */\n      tag_484\n      tag_314\n      jump\t// in\n    tag_484:\n        /* \"#utility.yul\":12819:12931   */\n    tag_483:\n        /* \"#utility.yul\":12940:12994   */\n      tag_485\n        /* \"#utility.yul\":12987:12993   */\n      dup5\n        /* \"#utility.yul\":12982:12985   */\n      dup3\n        /* \"#utility.yul\":12977:12980   */\n      dup6\n        /* \"#utility.yul\":12940:12994   */\n      tag_318\n      jump\t// in\n    tag_485:\n        /* \"#utility.yul\":12659:13000   */\n      pop\n        /* \"#utility.yul\":12575:13000   */\n      swap4\n      swap3\n      pop\n      pop\n      pop\n      jump\t// out\n        /* \"#utility.yul\":13020:13360   */\n    tag_320:\n        /* \"#utility.yul\":13076:13081   */\n      0x00\n        /* \"#utility.yul\":13125:13128   */\n      dup3\n        /* \"#utility.yul\":13118:13122   */\n      0x1f\n        /* \"#utility.yul\":13110:13116   */\n      dup4\n        /* \"#utility.yul\":13106:13123   */\n      add\n        /* \"#utility.yul\":13102:13129   */\n      slt\n        /* \"#utility.yul\":13092:13214   */\n      tag_487\n      jumpi\n        /* \"#utility.yul\":13133:13212   */\n      tag_488\n      tag_313\n      jump\t// in\n    tag_488:\n        /* \"#utility.yul\":13092:13214   */\n    tag_487:\n        /* \"#utility.yul\":13250:13256   */\n      dup2\n        /* \"#utility.yul\":13237:13257   */\n      calldataload\n        /* \"#utility.yul\":13275:13354   */\n      tag_489\n        /* \"#utility.yul\":13350:13353   */\n      dup5\n        /* \"#utility.yul\":13342:13348   */\n      dup3\n        /* \"#utility.yul\":13335:13339   */\n      0x20\n        /* \"#utility.yul\":13327:13333   */\n      dup7\n        /* \"#utility.yul\":13323:13340   */\n      add\n        /* \"#utility.yul\":13275:13354   */\n      tag_319\n      jump\t// in\n    tag_489:\n        /* \"#utility.yul\":13266:13354   */\n      swap2\n      pop\n        /* \"#utility.yul\":13082:13360   */\n      pop\n        /* \"#utility.yul\":13020:13360   */\n      swap3\n      swap2\n      pop\n      pop\n      jump\t// out\n        /* \"#utility.yul\":13366:14345   */\n    tag_34:\n        /* \"#utility.yul\":13463:13469   */\n      0x00\n        /* \"#utility.yul\":13471:13477   */\n      dup1\n        /* \"#utility.yul\":13479:13485   */\n      0x00\n        /* \"#utility.yul\":13528:13530   */\n      0x60\n        /* \"#utility.yul\":13516:13525   */\n      dup5\n        /* \"#utility.yul\":13507:13514   */\n      dup7\n        /* \"#utility.yul\":13503:13526   */\n      sub\n        /* \"#utility.yul\":13499:13531   */\n      slt\n        /* \"#utility.yul\":13496:13615   */\n      iszero\n      tag_491\n      jumpi\n        /* \"#utility.yul\":13534:13613   */\n      tag_492\n      tag_309\n      jump\t// in\n    tag_492:\n        /* \"#utility.yul\":13496:13615   */\n    tag_491:\n        /* \"#utility.yul\":13682:13683   */\n      0x00\n        /* \"#utility.yul\":13671:13680   */\n      dup5\n        /* \"#utility.yul\":13667:13684   */\n      add\n        /* \"#utility.yul\":13654:13685   */\n      calldataload\n        /* \"#utility.yul\":13712:13730   */\n      0xffffffffffffffff\n        /* \"#utility.yul\":13704:13710   */\n      dup2\n        /* \"#utility.yul\":13701:13731   */\n      gt\n        /* \"#utility.yul\":13698:13815   */\n      iszero\n      tag_493\n      jumpi\n        /* \"#utility.yul\":13734:13813   */\n      tag_494\n      tag_310\n      jump\t// in\n    tag_494:\n        /* \"#utility.yul\":13698:13815   */\n    tag_493:\n        /* \"#utility.yul\":13839:13902   */\n      tag_495\n        /* \"#utility.yul\":13894:13901   */\n      dup7\n        /* \"#utility.yul\":13885:13891   */\n      dup3\n        /* \"#utility.yul\":13874:13883   */\n      dup8\n        /* \"#utility.yul\":13870:13892   */\n      add\n        /* \"#utility.yul\":13839:13902   */\n      tag_320\n      jump\t// in\n    tag_495:\n        /* \"#utility.yul\":13829:13902   */\n      swap4\n      pop\n        /* \"#utility.yul\":13625:13912   */\n      pop\n        /* \"#utility.yul\":13951:13953   */\n      0x20\n        /* \"#utility.yul\":13977:14030   */\n      tag_496\n        /* \"#utility.yul\":14022:14029   */\n      dup7\n        /* \"#utility.yul\":14013:14019   */\n      dup3\n        /* \"#utility.yul\":14002:14011   */\n      dup8\n        /* \"#utility.yul\":13998:14020   */\n      add\n        /* \"#utility.yul\":13977:14030   */\n      tag_312\n      jump\t// in\n    tag_496:\n        /* \"#utility.yul\":13967:14030   */\n      swap3\n      pop\n        /* \"#utility.yul\":13922:14040   */\n      pop\n        /* \"#utility.yul\":14107:14109   */\n      0x40\n        /* \"#utility.yul\":14096:14105   */\n      dup5\n        /* \"#utility.yul\":14092:14110   */\n      add\n        /* \"#utility.yul\":14079:14111   */\n      calldataload\n        /* \"#utility.yul\":14138:14156   */\n      0xffffffffffffffff\n        /* \"#utility.yul\":14130:14136   */\n      dup2\n        /* \"#utility.yul\":14127:14157   */\n      gt\n        /* \"#utility.yul\":14124:14241   */\n      iszero\n      tag_497\n      jumpi\n        /* \"#utility.yul\":14160:14239   */\n      tag_498\n      tag_310\n      jump\t// in\n    tag_498:\n        /* \"#utility.yul\":14124:14241   */\n    tag_497:\n        /* \"#utility.yul\":14265:14328   */\n      tag_499\n        /* \"#utility.yul\":14320:14327   */\n      dup7\n        /* \"#utility.yul\":14311:14317   */\n      dup3\n        /* \"#utility.yul\":14300:14309   */\n      dup8\n        /* \"#utility.yul\":14296:14318   */\n      add\n        /* \"#utility.yul\":14265:14328   */\n      tag_320\n      jump\t// in\n    tag_499:\n        /* \"#utility.yul\":14255:14328   */\n      swap2\n      pop\n        /* \"#utility.yul\":14050:14338   */\n      pop\n        /* \"#utility.yul\":13366:14345   */\n      swap3\n      pop\n      swap3\n      pop\n      swap3\n      jump\t// out\n        /* \"#utility.yul\":14351:14468   */\n    tag_321:\n        /* \"#utility.yul\":14460:14461   */\n      0x00\n        /* \"#utility.yul\":14457:14458   */\n      dup1\n        /* \"#utility.yul\":14450:14462   */\n      revert\n        /* \"#utility.yul\":14474:14591   */\n    tag_322:\n        /* \"#utility.yul\":14583:14584   */\n      0x00\n        /* \"#utility.yul\":14580:14581   */\n      dup1\n        /* \"#utility.yul\":14573:14585   */\n      revert\n        /* \"#utility.yul\":14611:15164   */\n    tag_323:\n        /* \"#utility.yul\":14669:14677   */\n      0x00\n        /* \"#utility.yul\":14679:14685   */\n      dup1\n        /* \"#utility.yul\":14729:14732   */\n      dup4\n        /* \"#utility.yul\":14722:14726   */\n      0x1f\n        /* \"#utility.yul\":14714:14720   */\n      dup5\n        /* \"#utility.yul\":14710:14727   */\n      add\n        /* \"#utility.yul\":14706:14733   */\n      slt\n        /* \"#utility.yul\":14696:14818   */\n      tag_503\n      jumpi\n        /* \"#utility.yul\":14737:14816   */\n      tag_504\n      tag_313\n      jump\t// in\n    tag_504:\n        /* \"#utility.yul\":14696:14818   */\n    tag_503:\n        /* \"#utility.yul\":14850:14856   */\n      dup3\n        /* \"#utility.yul\":14837:14857   */\n      calldataload\n        /* \"#utility.yul\":14827:14857   */\n      swap1\n      pop\n        /* \"#utility.yul\":14880:14898   */\n      0xffffffffffffffff\n        /* \"#utility.yul\":14872:14878   */\n      dup2\n        /* \"#utility.yul\":14869:14899   */\n      gt\n        /* \"#utility.yul\":14866:14983   */\n      iszero\n      tag_505\n      jumpi\n        /* \"#utility.yul\":14902:14981   */\n      tag_506\n      tag_321\n      jump\t// in\n    tag_506:\n        /* \"#utility.yul\":14866:14983   */\n    tag_505:\n        /* \"#utility.yul\":15016:15020   */\n      0x20\n        /* \"#utility.yul\":15008:15014   */\n      dup4\n        /* \"#utility.yul\":15004:15021   */\n      add\n        /* \"#utility.yul\":14992:15021   */\n      swap2\n      pop\n        /* \"#utility.yul\":15070:15073   */\n      dup4\n        /* \"#utility.yul\":15062:15066   */\n      0x01\n        /* \"#utility.yul\":15054:15060   */\n      dup3\n        /* \"#utility.yul\":15050:15067   */\n      mul\n        /* \"#utility.yul\":15040:15048   */\n      dup4\n        /* \"#utility.yul\":15036:15068   */\n      add\n        /* \"#utility.yul\":15033:15074   */\n      gt\n        /* \"#utility.yul\":15030:15158   */\n      iszero\n      tag_507\n      jumpi\n        /* \"#utility.yul\":15077:15156   */\n      tag_508\n      tag_322\n      jump\t// in\n    tag_508:\n        /* \"#utility.yul\":15030:15158   */\n    tag_507:\n        /* \"#utility.yul\":14611:15164   */\n      swap3\n      pop\n      swap3\n      swap1\n      pop\n      jump\t// out\n        /* \"#utility.yul\":15170:16495   */\n    tag_38:\n        /* \"#utility.yul\":15288:15294   */\n      0x00\n        /* \"#utility.yul\":15296:15302   */\n      dup1\n        /* \"#utility.yul\":15304:15310   */\n      0x00\n        /* \"#utility.yul\":15312:15318   */\n      dup1\n        /* \"#utility.yul\":15320:15326   */\n      0x00\n        /* \"#utility.yul\":15369:15372   */\n      0x80\n        /* \"#utility.yul\":15357:15366   */\n      dup7\n        /* \"#utility.yul\":15348:15355   */\n      dup9\n        /* \"#utility.yul\":15344:15367   */\n      sub\n        /* \"#utility.yul\":15340:15373   */\n      slt\n        /* \"#utility.yul\":15337:15457   */\n      iszero\n      tag_510\n      jumpi\n        /* \"#utility.yul\":15376:15455   */\n      tag_511\n      tag_309\n      jump\t// in\n    tag_511:\n        /* \"#utility.yul\":15337:15457   */\n    tag_510:\n        /* \"#utility.yul\":15524:15525   */\n      0x00\n        /* \"#utility.yul\":15513:15522   */\n      dup7\n        /* \"#utility.yul\":15509:15526   */\n      add\n        /* \"#utility.yul\":15496:15527   */\n      calldataload\n        /* \"#utility.yul\":15554:15572   */\n      0xffffffffffffffff\n        /* \"#utility.yul\":15546:15552   */\n      dup2\n        /* \"#utility.yul\":15543:15573   */\n      gt\n        /* \"#utility.yul\":15540:15657   */\n      iszero\n      tag_512\n      jumpi\n        /* \"#utility.yul\":15576:15655   */\n      tag_513\n      tag_310\n      jump\t// in\n    tag_513:\n        /* \"#utility.yul\":15540:15657   */\n    tag_512:\n        /* \"#utility.yul\":15689:15754   */\n      tag_514\n        /* \"#utility.yul\":15746:15753   */\n      dup9\n        /* \"#utility.yul\":15737:15743   */\n      dup3\n        /* \"#utility.yul\":15726:15735   */\n      dup10\n        /* \"#utility.yul\":15722:15744   */\n      add\n        /* \"#utility.yul\":15689:15754   */\n      tag_323\n      jump\t// in\n    tag_514:\n        /* \"#utility.yul\":15671:15754   */\n      swap6\n      pop\n      swap6\n      pop\n        /* \"#utility.yul\":15467:15764   */\n      pop\n        /* \"#utility.yul\":15803:15805   */\n      0x20\n        /* \"#utility.yul\":15829:15882   */\n      tag_515\n        /* \"#utility.yul\":15874:15881   */\n      dup9\n        /* \"#utility.yul\":15865:15871   */\n      dup3\n        /* \"#utility.yul\":15854:15863   */\n      dup10\n        /* \"#utility.yul\":15850:15872   */\n      add\n        /* \"#utility.yul\":15829:15882   */\n      tag_312\n      jump\t// in\n    tag_515:\n        /* \"#utility.yul\":15819:15882   */\n      swap4\n      pop\n        /* \"#utility.yul\":15774:15892   */\n      pop\n        /* \"#utility.yul\":15959:15961   */\n      0x40\n        /* \"#utility.yul\":15948:15957   */\n      dup7\n        /* \"#utility.yul\":15944:15962   */\n      add\n        /* \"#utility.yul\":15931:15963   */\n      calldataload\n        /* \"#utility.yul\":15990:16008   */\n      0xffffffffffffffff\n        /* \"#utility.yul\":15982:15988   */\n      dup2\n        /* \"#utility.yul\":15979:16009   */\n      gt\n        /* \"#utility.yul\":15976:16093   */\n      iszero\n      tag_516\n      jumpi\n        /* \"#utility.yul\":16012:16091   */\n      tag_517\n      tag_310\n      jump\t// in\n    tag_517:\n        /* \"#utility.yul\":15976:16093   */\n    tag_516:\n        /* \"#utility.yul\":16117:16180   */\n      tag_518\n        /* \"#utility.yul\":16172:16179   */\n      dup9\n        /* \"#utility.yul\":16163:16169   */\n      dup3\n        /* \"#utility.yul\":16152:16161   */\n      dup10\n        /* \"#utility.yul\":16148:16170   */\n      add\n        /* \"#utility.yul\":16117:16180   */\n      tag_320\n      jump\t// in\n    tag_518:\n        /* \"#utility.yul\":16107:16180   */\n      swap3\n      pop\n        /* \"#utility.yul\":15902:16190   */\n      pop\n        /* \"#utility.yul\":16257:16259   */\n      0x60\n        /* \"#utility.yul\":16246:16255   */\n      dup7\n        /* \"#utility.yul\":16242:16260   */\n      add\n        /* \"#utility.yul\":16229:16261   */\n      calldataload\n        /* \"#utility.yul\":16288:16306   */\n      0xffffffffffffffff\n        /* \"#utility.yul\":16280:16286   */\n      dup2\n        /* \"#utility.yul\":16277:16307   */\n      gt\n        /* \"#utility.yul\":16274:16391   */\n      iszero\n      tag_519\n      jumpi\n        /* \"#utility.yul\":16310:16389   */\n      tag_520\n      tag_310\n      jump\t// in\n    tag_520:\n        /* \"#utility.yul\":16274:16391   */\n    tag_519:\n        /* \"#utility.yul\":16415:16478   */\n      tag_521\n        /* \"#utility.yul\":16470:16477   */\n      dup9\n        /* \"#utility.yul\":16461:16467   */\n      dup3\n        /* \"#utility.yul\":16450:16459   */\n      dup10\n        /* \"#utility.yul\":16446:16468   */\n      add\n        /* \"#utility.yul\":16415:16478   */\n      tag_320\n      jump\t// in\n    tag_521:\n        /* \"#utility.yul\":16405:16478   */\n      swap2\n      pop\n        /* \"#utility.yul\":16200:16488   */\n      pop\n        /* \"#utility.yul\":15170:16495   */\n      swap3\n      swap6\n      pop\n      swap3\n      swap6\n      swap1\n      swap4\n      pop\n      jump\t// out\n        /* \"#utility.yul\":16501:16830   */\n    tag_42:\n        /* \"#utility.yul\":16560:16566   */\n      0x00\n        /* \"#utility.yul\":16609:16611   */\n      0x20\n        /* \"#utility.yul\":16597:16606   */\n      dup3\n        /* \"#utility.yul\":16588:16595   */\n      dup5\n        /* \"#utility.yul\":16584:16607   */\n      sub\n        /* \"#utility.yul\":16580:16612   */\n      slt\n        /* \"#utility.yul\":16577:16696   */\n      iszero\n      tag_523\n      jumpi\n        /* \"#utility.yul\":16615:16694   */\n      tag_524\n      tag_309\n      jump\t// in\n    tag_524:\n        /* \"#utility.yul\":16577:16696   */\n    tag_523:\n        /* \"#utility.yul\":16735:16736   */\n      0x00\n        /* \"#utility.yul\":16760:16813   */\n      tag_525\n        /* \"#utility.yul\":16805:16812   */\n      dup5\n        /* \"#utility.yul\":16796:16802   */\n      dup3\n        /* \"#utility.yul\":16785:16794   */\n      dup6\n        /* \"#utility.yul\":16781:16803   */\n      add\n        /* \"#utility.yul\":16760:16813   */\n      tag_312\n      jump\t// in\n    tag_525:\n        /* \"#utility.yul\":16750:16813   */\n      swap2\n      pop\n        /* \"#utility.yul\":16706:16823   */\n      pop\n        /* \"#utility.yul\":16501:16830   */\n      swap3\n      swap2\n      pop\n      pop\n      jump\t// out\n        /* \"#utility.yul\":16836:17005   */\n    tag_324:\n        /* \"#utility.yul\":16920:16931   */\n      0x00\n        /* \"#utility.yul\":16954:16960   */\n      dup3\n        /* \"#utility.yul\":16949:16952   */\n      dup3\n        /* \"#utility.yul\":16942:16961   */\n      mstore\n        /* \"#utility.yul\":16994:16998   */\n      0x20\n        /* \"#utility.yul\":16989:16992   */\n      dup3\n        /* \"#utility.yul\":16985:16999   */\n      add\n        /* \"#utility.yul\":16970:16999   */\n      swap1\n      pop\n        /* \"#utility.yul\":16836:17005   */\n      swap3\n      swap2\n      pop\n      pop\n      jump\t// out\n        /* \"#utility.yul\":17011:17388   */\n    tag_325:\n        /* \"#utility.yul\":17099:17102   */\n      0x00\n        /* \"#utility.yul\":17127:17166   */\n      tag_528\n        /* \"#utility.yul\":17160:17165   */\n      dup3\n        /* \"#utility.yul\":17127:17166   */\n      tag_286\n      jump\t// in\n    tag_528:\n        /* \"#utility.yul\":17182:17253   */\n      tag_529\n        /* \"#utility.yul\":17246:17252   */\n      dup2\n        /* \"#utility.yul\":17241:17244   */\n      dup6\n        /* \"#utility.yul\":17182:17253   */\n      tag_324\n      jump\t// in\n    tag_529:\n        /* \"#utility.yul\":17175:17253   */\n      swap4\n      pop\n        /* \"#utility.yul\":17262:17327   */\n      tag_530\n        /* \"#utility.yul\":17320:17326   */\n      dup2\n        /* \"#utility.yul\":17315:17318   */\n      dup6\n        /* \"#utility.yul\":17308:17312   */\n      0x20\n        /* \"#utility.yul\":17301:17306   */\n      dup7\n        /* \"#utility.yul\":17297:17313   */\n      add\n        /* \"#utility.yul\":17262:17327   */\n      tag_288\n      jump\t// in\n    tag_530:\n        /* \"#utility.yul\":17352:17381   */\n      tag_531\n        /* \"#utility.yul\":17374:17380   */\n      dup2\n        /* \"#utility.yul\":17352:17381   */\n      tag_289\n      jump\t// in\n    tag_531:\n        /* \"#utility.yul\":17347:17350   */\n      dup5\n        /* \"#utility.yul\":17343:17382   */\n      add\n        /* \"#utility.yul\":17336:17382   */\n      swap2\n      pop\n        /* \"#utility.yul\":17103:17388   */\n      pop\n        /* \"#utility.yul\":17011:17388   */\n      swap3\n      swap2\n      pop\n      pop\n      jump\t// out\n        /* \"#utility.yul\":17394:17512   */\n    tag_326:\n        /* \"#utility.yul\":17481:17505   */\n      tag_533\n        /* \"#utility.yul\":17499:17504   */\n      dup2\n        /* \"#utility.yul\":17481:17505   */\n      tag_291\n      jump\t// in\n    tag_533:\n        /* \"#utility.yul\":17476:17479   */\n      dup3\n        /* \"#utility.yul\":17469:17506   */\n      mstore\n        /* \"#utility.yul\":17394:17512   */\n      pop\n      pop\n      jump\t// out\n        /* \"#utility.yul\":17518:18677   */\n    tag_45:\n        /* \"#utility.yul\":17839:17843   */\n      0x00\n        /* \"#utility.yul\":17877:17880   */\n      0xe0\n        /* \"#utility.yul\":17866:17875   */\n      dup3\n        /* \"#utility.yul\":17862:17881   */\n      add\n        /* \"#utility.yul\":17854:17881   */\n      swap1\n      pop\n        /* \"#utility.yul\":17927:17936   */\n      dup2\n        /* \"#utility.yul\":17921:17925   */\n      dup2\n        /* \"#utility.yul\":17917:17937   */\n      sub\n        /* \"#utility.yul\":17913:17914   */\n      0x00\n        /* \"#utility.yul\":17902:17911   */\n      dup4\n        /* \"#utility.yul\":17898:17915   */\n      add\n        /* \"#utility.yul\":17891:17938   */\n      mstore\n        /* \"#utility.yul\":17955:18033   */\n      tag_535\n        /* \"#utility.yul\":18028:18032   */\n      dup2\n        /* \"#utility.yul\":18019:18025   */\n      dup11\n        /* \"#utility.yul\":17955:18033   */\n      tag_325\n      jump\t// in\n    tag_535:\n        /* \"#utility.yul\":17947:18033   */\n      swap1\n      pop\n        /* \"#utility.yul\":18043:18115   */\n      tag_536\n        /* \"#utility.yul\":18111:18113   */\n      0x20\n        /* \"#utility.yul\":18100:18109   */\n      dup4\n        /* \"#utility.yul\":18096:18114   */\n      add\n        /* \"#utility.yul\":18087:18093   */\n      dup10\n        /* \"#utility.yul\":18043:18115   */\n      tag_326\n      jump\t// in\n    tag_536:\n        /* \"#utility.yul\":18162:18171   */\n      dup2\n        /* \"#utility.yul\":18156:18160   */\n      dup2\n        /* \"#utility.yul\":18152:18172   */\n      sub\n        /* \"#utility.yul\":18147:18149   */\n      0x40\n        /* \"#utility.yul\":18136:18145   */\n      dup4\n        /* \"#utility.yul\":18132:18150   */\n      add\n        /* \"#utility.yul\":18125:18173   */\n      mstore\n        /* \"#utility.yul\":18190:18268   */\n      tag_537\n        /* \"#utility.yul\":18263:18267   */\n      dup2\n        /* \"#utility.yul\":18254:18260   */\n      dup9\n        /* \"#utility.yul\":18190:18268   */\n      tag_325\n      jump\t// in\n    tag_537:\n        /* \"#utility.yul\":18182:18268   */\n      swap1\n      pop\n        /* \"#utility.yul\":18278:18350   */\n      tag_538\n        /* \"#utility.yul\":18346:18348   */\n      0x60\n        /* \"#utility.yul\":18335:18344   */\n      dup4\n        /* \"#utility.yul\":18331:18349   */\n      add\n        /* \"#utility.yul\":18322:18328   */\n      dup8\n        /* \"#utility.yul\":18278:18350   */\n      tag_326\n      jump\t// in\n    tag_538:\n        /* \"#utility.yul\":18398:18407   */\n      dup2\n        /* \"#utility.yul\":18392:18396   */\n      dup2\n        /* \"#utility.yul\":18388:18408   */\n      sub\n        /* \"#utility.yul\":18382:18385   */\n      0x80\n        /* \"#utility.yul\":18371:18380   */\n      dup4\n        /* \"#utility.yul\":18367:18386   */\n      add\n        /* \"#utility.yul\":18360:18409   */\n      mstore\n        /* \"#utility.yul\":18426:18504   */\n      tag_539\n        /* \"#utility.yul\":18499:18503   */\n      dup2\n        /* \"#utility.yul\":18490:18496   */\n      dup7\n        /* \"#utility.yul\":18426:18504   */\n      tag_325\n      jump\t// in\n    tag_539:\n        /* \"#utility.yul\":18418:18504   */\n      swap1\n      pop\n        /* \"#utility.yul\":18514:18587   */\n      tag_540\n        /* \"#utility.yul\":18582:18585   */\n      0xa0\n        /* \"#utility.yul\":18571:18580   */\n      dup4\n        /* \"#utility.yul\":18567:18586   */\n      add\n        /* \"#utility.yul\":18558:18564   */\n      dup6\n        /* \"#utility.yul\":18514:18587   */\n      tag_300\n      jump\t// in\n    tag_540:\n        /* \"#utility.yul\":18597:18670   */\n      tag_541\n        /* \"#utility.yul\":18665:18668   */\n      0xc0\n        /* \"#utility.yul\":18654:18663   */\n      dup4\n        /* \"#utility.yul\":18650:18669   */\n      add\n        /* \"#utility.yul\":18641:18647   */\n      dup5\n        /* \"#utility.yul\":18597:18670   */\n      tag_326\n      jump\t// in\n    tag_541:\n        /* \"#utility.yul\":17518:18677   */\n      swap9\n      swap8\n      pop\n      pop\n      pop\n      pop\n      pop\n      pop\n      pop\n      pop\n      jump\t// out\n        /* \"#utility.yul\":18683:19640   */\n    tag_50:\n        /* \"#utility.yul\":18956:18960   */\n      0x00\n        /* \"#utility.yul\":18994:18997   */\n      0xc0\n        /* \"#utility.yul\":18983:18992   */\n      dup3\n        /* \"#utility.yul\":18979:18998   */\n      add\n        /* \"#utility.yul\":18971:18998   */\n      swap1\n      pop\n        /* \"#utility.yul\":19044:19053   */\n      dup2\n        /* \"#utility.yul\":19038:19042   */\n      dup2\n        /* \"#utility.yul\":19034:19054   */\n      sub\n        /* \"#utility.yul\":19030:19031   */\n      0x00\n        /* \"#utility.yul\":19019:19028   */\n      dup4\n        /* \"#utility.yul\":19015:19032   */\n      add\n        /* \"#utility.yul\":19008:19055   */\n      mstore\n        /* \"#utility.yul\":19072:19150   */\n      tag_543\n        /* \"#utility.yul\":19145:19149   */\n      dup2\n        /* \"#utility.yul\":19136:19142   */\n      dup10\n        /* \"#utility.yul\":19072:19150   */\n      tag_325\n      jump\t// in\n    tag_543:\n        /* \"#utility.yul\":19064:19150   */\n      swap1\n      pop\n        /* \"#utility.yul\":19160:19232   */\n      tag_544\n        /* \"#utility.yul\":19228:19230   */\n      0x20\n        /* \"#utility.yul\":19217:19226   */\n      dup4\n        /* \"#utility.yul\":19213:19231   */\n      add\n        /* \"#utility.yul\":19204:19210   */\n      dup9\n        /* \"#utility.yul\":19160:19232   */\n      tag_326\n      jump\t// in\n    tag_544:\n        /* \"#utility.yul\":19242:19314   */\n      tag_545\n        /* \"#utility.yul\":19310:19312   */\n      0x40\n        /* \"#utility.yul\":19299:19308   */\n      dup4\n        /* \"#utility.yul\":19295:19313   */\n      add\n        /* \"#utility.yul\":19286:19292   */\n      dup8\n        /* \"#utility.yul\":19242:19314   */\n      tag_326\n      jump\t// in\n    tag_545:\n        /* \"#utility.yul\":19361:19370   */\n      dup2\n        /* \"#utility.yul\":19355:19359   */\n      dup2\n        /* \"#utility.yul\":19351:19371   */\n      sub\n        /* \"#utility.yul\":19346:19348   */\n      0x60\n        /* \"#utility.yul\":19335:19344   */\n      dup4\n        /* \"#utility.yul\":19331:19349   */\n      add\n        /* \"#utility.yul\":19324:19372   */\n      mstore\n        /* \"#utility.yul\":19389:19467   */\n      tag_546\n        /* \"#utility.yul\":19462:19466   */\n      dup2\n        /* \"#utility.yul\":19453:19459   */\n      dup7\n        /* \"#utility.yul\":19389:19467   */\n      tag_325\n      jump\t// in\n    tag_546:\n        /* \"#utility.yul\":19381:19467   */\n      swap1\n      pop\n        /* \"#utility.yul\":19477:19550   */\n      tag_547\n        /* \"#utility.yul\":19545:19548   */\n      0x80\n        /* \"#utility.yul\":19534:19543   */\n      dup4\n        /* \"#utility.yul\":19530:19549   */\n      add\n        /* \"#utility.yul\":19521:19527   */\n      dup6\n        /* \"#utility.yul\":19477:19550   */\n      tag_326\n      jump\t// in\n    tag_547:\n        /* \"#utility.yul\":19560:19633   */\n      tag_548\n        /* \"#utility.yul\":19628:19631   */\n      0xa0\n        /* \"#utility.yul\":19617:19626   */\n      dup4\n        /* \"#utility.yul\":19613:19632   */\n      add\n        /* \"#utility.yul\":19604:19610   */\n      dup5\n        /* \"#utility.yul\":19560:19633   */\n      tag_300\n      jump\t// in\n    tag_548:\n        /* \"#utility.yul\":18683:19640   */\n      swap8\n      swap7\n      pop\n      pop\n      pop\n      pop\n      pop\n      pop\n      pop\n      jump\t// out\n        /* \"#utility.yul\":19646:19826   */\n    tag_327:\n        /* \"#utility.yul\":19694:19771   */\n      0x4e487b7100000000000000000000000000000000000000000000000000000000\n        /* \"#utility.yul\":19691:19692   */\n      0x00\n        /* \"#utility.yul\":19684:19772   */\n      mstore\n        /* \"#utility.yul\":19791:19795   */\n      0x11\n        /* \"#utility.yul\":19788:19789   */\n      0x04\n        /* \"#utility.yul\":19781:19796   */\n      mstore\n        /* \"#utility.yul\":19815:19819   */\n      0x24\n        /* \"#utility.yul\":19812:19813   */\n      0x00\n        /* \"#utility.yul\":19805:19820   */\n      revert\n        /* \"#utility.yul\":19832:20026   */\n    tag_65:\n        /* \"#utility.yul\":19872:19876   */\n      0x00\n        /* \"#utility.yul\":19892:19912   */\n      tag_551\n        /* \"#utility.yul\":19910:19911   */\n      dup3\n        /* \"#utility.yul\":19892:19912   */\n      tag_291\n      jump\t// in\n    tag_551:\n        /* \"#utility.yul\":19887:19912   */\n      swap2\n      pop\n        /* \"#utility.yul\":19926:19946   */\n      tag_552\n        /* \"#utility.yul\":19944:19945   */\n      dup4\n        /* \"#utility.yul\":19926:19946   */\n      tag_291\n      jump\t// in\n    tag_552:\n        /* \"#utility.yul\":19921:19946   */\n      swap3\n      pop\n        /* \"#utility.yul\":19970:19971   */\n      dup3\n        /* \"#utility.yul\":19967:19968   */\n      dup3\n        /* \"#utility.yul\":19963:19972   */\n      sub\n        /* \"#utility.yul\":19955:19972   */\n      swap1\n      pop\n        /* \"#utility.yul\":19994:19995   */\n      dup2\n        /* \"#utility.yul\":19988:19992   */\n      dup2\n        /* \"#utility.yul\":19985:19996   */\n      gt\n        /* \"#utility.yul\":19982:20019   */\n      iszero\n      tag_553\n      jumpi\n        /* \"#utility.yul\":19999:20017   */\n      tag_554\n      tag_327\n      jump\t// in\n    tag_554:\n        /* \"#utility.yul\":19982:20019   */\n    tag_553:\n        /* \"#utility.yul\":19832:20026   */\n      swap3\n      swap2\n      pop\n      pop\n      jump\t// out\n        /* \"#utility.yul\":20032:20212   */\n    tag_328:\n        /* \"#utility.yul\":20080:20157   */\n      0x4e487b7100000000000000000000000000000000000000000000000000000000\n        /* \"#utility.yul\":20077:20078   */\n      0x00\n        /* \"#utility.yul\":20070:20158   */\n      mstore\n        /* \"#utility.yul\":20177:20181   */\n      0x22\n        /* \"#utility.yul\":20174:20175   */\n      0x04\n        /* \"#utility.yul\":20167:20182   */\n      mstore\n        /* \"#utility.yul\":20201:20205   */\n      0x24\n        /* \"#utility.yul\":20198:20199   */\n      0x00\n        /* \"#utility.yul\":20191:20206   */\n      revert\n        /* \"#utility.yul\":20218:20538   */\n    tag_77:\n        /* \"#utility.yul\":20262:20268   */\n      0x00\n        /* \"#utility.yul\":20299:20300   */\n      0x02\n        /* \"#utility.yul\":20293:20297   */\n      dup3\n        /* \"#utility.yul\":20289:20301   */\n      div\n        /* \"#utility.yul\":20279:20301   */\n      swap1\n      pop\n        /* \"#utility.yul\":20346:20347   */\n      0x01\n        /* \"#utility.yul\":20340:20344   */\n      dup3\n        /* \"#utility.yul\":20336:20348   */\n      and\n        /* \"#utility.yul\":20367:20385   */\n      dup1\n        /* \"#utility.yul\":20357:20438   */\n      tag_557\n      jumpi\n        /* \"#utility.yul\":20423:20427   */\n      0x7f\n        /* \"#utility.yul\":20415:20421   */\n      dup3\n        /* \"#utility.yul\":20411:20428   */\n      and\n        /* \"#utility.yul\":20401:20428   */\n      swap2\n      pop\n        /* \"#utility.yul\":20357:20438   */\n    tag_557:\n        /* \"#utility.yul\":20485:20487   */\n      0x20\n        /* \"#utility.yul\":20477:20483   */\n      dup3\n        /* \"#utility.yul\":20474:20488   */\n      lt\n        /* \"#utility.yul\":20454:20472   */\n      dup2\n        /* \"#utility.yul\":20451:20489   */\n      sub\n        /* \"#utility.yul\":20448:20532   */\n      tag_558\n      jumpi\n        /* \"#utility.yul\":20504:20522   */\n      tag_559\n      tag_328\n      jump\t// in\n    tag_559:\n        /* \"#utility.yul\":20448:20532   */\n    tag_558:\n        /* \"#utility.yul\":20269:20538   */\n      pop\n        /* \"#utility.yul\":20218:20538   */\n      swap2\n      swap1\n      pop\n      jump\t// out\n        /* \"#utility.yul\":20544:20724   */\n    tag_90:\n        /* \"#utility.yul\":20592:20669   */\n      0x4e487b7100000000000000000000000000000000000000000000000000000000\n        /* \"#utility.yul\":20589:20590   */\n      0x00\n        /* \"#utility.yul\":20582:20670   */\n      mstore\n        /* \"#utility.yul\":20689:20693   */\n      0x32\n        /* \"#utility.yul\":20686:20687   */\n      0x04\n        /* \"#utility.yul\":20679:20694   */\n      mstore\n        /* \"#utility.yul\":20713:20717   */\n      0x24\n        /* \"#utility.yul\":20710:20711   */\n      0x00\n        /* \"#utility.yul\":20703:20718   */\n      revert\n        /* \"#utility.yul\":20730:20963   */\n    tag_92:\n        /* \"#utility.yul\":20769:20772   */\n      0x00\n        /* \"#utility.yul\":20792:20816   */\n      tag_562\n        /* \"#utility.yul\":20810:20815   */\n      dup3\n        /* \"#utility.yul\":20792:20816   */\n      tag_291\n      jump\t// in\n    tag_562:\n        /* \"#utility.yul\":20783:20816   */\n      swap2\n      pop\n        /* \"#utility.yul\":20838:20904   */\n      0xffffffffffffffffffffffffffffffffffffffffffffffffffffffffffffffff\n        /* \"#utility.yul\":20831:20836   */\n      dup3\n        /* \"#utility.yul\":20828:20905   */\n      sub\n        /* \"#utility.yul\":20825:20928   */\n      tag_563\n      jumpi\n        /* \"#utility.yul\":20908:20926   */\n      tag_564\n      tag_327\n      jump\t// in\n    tag_564:\n        /* \"#utility.yul\":20825:20928   */\n    tag_563:\n        /* \"#utility.yul\":20955:20956   */\n      0x01\n        /* \"#utility.yul\":20948:20953   */\n      dup3\n        /* \"#utility.yul\":20944:20957   */\n      add\n        /* \"#utility.yul\":20937:20957   */\n      swap1\n      pop\n        /* \"#utility.yul\":20730:20963   */\n      swap2\n      swap1\n      pop\n      jump\t// out\n        /* \"#utility.yul\":20969:21191   */\n    tag_329:\n        /* \"#utility.yul\":21109:21143   */\n      0x596f7520617265206e6f742066726f6d20656c656374696f6e20636f6d697373\n        /* \"#utility.yul\":21105:21106   */\n      0x00\n        /* \"#utility.yul\":21097:21103   */\n      dup3\n        /* \"#utility.yul\":21093:21107   */\n      add\n        /* \"#utility.yul\":21086:21144   */\n      mstore\n        /* \"#utility.yul\":21178:21183   */\n      0x696f6e0000000000000000000000000000000000000000000000000000000000\n        /* \"#utility.yul\":21173:21175   */\n      0x20\n        /* \"#utility.yul\":21165:21171   */\n      dup3\n        /* \"#utility.yul\":21161:21176   */\n      add\n        /* \"#utility.yul\":21154:21184   */\n      mstore\n        /* \"#utility.yul\":20969:21191   */\n      pop\n      jump\t// out\n        /* \"#utility.yul\":21197:21563   */\n    tag_330:\n        /* \"#utility.yul\":21339:21342   */\n      0x00\n        /* \"#utility.yul\":21360:21427   */\n      tag_567\n        /* \"#utility.yul\":21424:21426   */\n      0x23\n        /* \"#utility.yul\":21419:21422   */\n      dup4\n        /* \"#utility.yul\":21360:21427   */\n      tag_324\n      jump\t// in\n    tag_567:\n        /* \"#utility.yul\":21353:21427   */\n      swap2\n      pop\n        /* \"#utility.yul\":21436:21529   */\n      tag_568\n        /* \"#utility.yul\":21525:21528   */\n      dup3\n        /* \"#utility.yul\":21436:21529   */\n      tag_329\n      jump\t// in\n    tag_568:\n        /* \"#utility.yul\":21554:21556   */\n      0x40\n        /* \"#utility.yul\":21549:21552   */\n      dup3\n        /* \"#utility.yul\":21545:21557   */\n      add\n        /* \"#utility.yul\":21538:21557   */\n      swap1\n      pop\n        /* \"#utility.yul\":21197:21563   */\n      swap2\n      swap1\n      pop\n      jump\t// out\n        /* \"#utility.yul\":21569:21988   */\n    tag_96:\n        /* \"#utility.yul\":21735:21739   */\n      0x00\n        /* \"#utility.yul\":21773:21775   */\n      0x20\n        /* \"#utility.yul\":21762:21771   */\n      dup3\n        /* \"#utility.yul\":21758:21776   */\n      add\n        /* \"#utility.yul\":21750:21776   */\n      swap1\n      pop\n        /* \"#utility.yul\":21822:21831   */\n      dup2\n        /* \"#utility.yul\":21816:21820   */\n      dup2\n        /* \"#utility.yul\":21812:21832   */\n      sub\n        /* \"#utility.yul\":21808:21809   */\n      0x00\n        /* \"#utility.yul\":21797:21806   */\n      dup4\n        /* \"#utility.yul\":21793:21810   */\n      add\n        /* \"#utility.yul\":21786:21833   */\n      mstore\n        /* \"#utility.yul\":21850:21981   */\n      tag_570\n        /* \"#utility.yul\":21976:21980   */\n      dup2\n        /* \"#utility.yul\":21850:21981   */\n      tag_330\n      jump\t// in\n    tag_570:\n        /* \"#utility.yul\":21842:21981   */\n      swap1\n      pop\n        /* \"#utility.yul\":21569:21988   */\n      swap2\n      swap1\n      pop\n      jump\t// out\n        /* \"#utility.yul\":21994:22223   */\n    tag_331:\n        /* \"#utility.yul\":22134:22168   */\n      0x43616e64696461746520726567697374726174696f6e20706861736520697320\n        /* \"#utility.yul\":22130:22131   */\n      0x00\n        /* \"#utility.yul\":22122:22128   */\n      dup3\n        /* \"#utility.yul\":22118:22132   */\n      add\n        /* \"#utility.yul\":22111:22169   */\n      mstore\n        /* \"#utility.yul\":22203:22215   */\n      0x6e6f7420636c6f73656400000000000000000000000000000000000000000000\n        /* \"#utility.yul\":22198:22200   */\n      0x20\n        /* \"#utility.yul\":22190:22196   */\n      dup3\n        /* \"#utility.yul\":22186:22201   */\n      add\n        /* \"#utility.yul\":22179:22216   */\n      mstore\n        /* \"#utility.yul\":21994:22223   */\n      pop\n      jump\t// out\n        /* \"#utility.yul\":22229:22595   */\n    tag_332:\n        /* \"#utility.yul\":22371:22374   */\n      0x00\n        /* \"#utility.yul\":22392:22459   */\n      tag_573\n        /* \"#utility.yul\":22456:22458   */\n      0x2a\n        /* \"#utility.yul\":22451:22454   */\n      dup4\n        /* \"#utility.yul\":22392:22459   */\n      tag_324\n      jump\t// in\n    tag_573:\n        /* \"#utility.yul\":22385:22459   */\n      swap2\n      pop\n        /* \"#utility.yul\":22468:22561   */\n      tag_574\n        /* \"#utility.yul\":22557:22560   */\n      dup3\n        /* \"#utility.yul\":22468:22561   */\n      tag_331\n      jump\t// in\n    tag_574:\n        /* \"#utility.yul\":22586:22588   */\n      0x40\n        /* \"#utility.yul\":22581:22584   */\n      dup3\n        /* \"#utility.yul\":22577:22589   */\n      add\n        /* \"#utility.yul\":22570:22589   */\n      swap1\n      pop\n        /* \"#utility.yul\":22229:22595   */\n      swap2\n      swap1\n      pop\n      jump\t// out\n        /* \"#utility.yul\":22601:23020   */\n    tag_101:\n        /* \"#utility.yul\":22767:22771   */\n      0x00\n        /* \"#utility.yul\":22805:22807   */\n      0x20\n        /* \"#utility.yul\":22794:22803   */\n      dup3\n        /* \"#utility.yul\":22790:22808   */\n      add\n        /* \"#utility.yul\":22782:22808   */\n      swap1\n      pop\n        /* \"#utility.yul\":22854:22863   */\n      dup2\n        /* \"#utility.yul\":22848:22852   */\n      dup2\n        /* \"#utility.yul\":22844:22864   */\n      sub\n        /* \"#utility.yul\":22840:22841   */\n      0x00\n        /* \"#utility.yul\":22829:22838   */\n      dup4\n        /* \"#utility.yul\":22825:22842   */\n      add\n        /* \"#utility.yul\":22818:22865   */\n      mstore\n        /* \"#utility.yul\":22882:23013   */\n      tag_576\n        /* \"#utility.yul\":23008:23012   */\n      dup2\n        /* \"#utility.yul\":22882:23013   */\n      tag_332\n      jump\t// in\n    tag_576:\n        /* \"#utility.yul\":22874:23013   */\n      swap1\n      pop\n        /* \"#utility.yul\":22601:23020   */\n      swap2\n      swap1\n      pop\n      jump\t// out\n        /* \"#utility.yul\":23026:23256   */\n    tag_333:\n        /* \"#utility.yul\":23166:23200   */\n      0x566f74696e6720697320696e20636f6e64756374696f6e207068617365206973\n        /* \"#utility.yul\":23162:23163   */\n      0x00\n        /* \"#utility.yul\":23154:23160   */\n      dup3\n        /* \"#utility.yul\":23150:23164   */\n      add\n        /* \"#utility.yul\":23143:23201   */\n      mstore\n        /* \"#utility.yul\":23235:23248   */\n      0x206e6f7420636c6f736564000000000000000000000000000000000000000000\n        /* \"#utility.yul\":23230:23232   */\n      0x20\n        /* \"#utility.yul\":23222:23228   */\n      dup3\n        /* \"#utility.yul\":23218:23233   */\n      add\n        /* \"#utility.yul\":23211:23249   */\n      mstore\n        /* \"#utility.yul\":23026:23256   */\n      pop\n      jump\t// out\n        /* \"#utility.yul\":23262:23628   */\n    tag_334:\n        /* \"#utility.yul\":23404:23407   */\n      0x00\n        /* \"#utility.yul\":23425:23492   */\n      tag_579\n        /* \"#utility.yul\":23489:23491   */\n      0x2b\n        /* \"#utility.yul\":23484:23487   */\n      dup4\n        /* \"#utility.yul\":23425:23492   */\n      tag_324\n      jump\t// in\n    tag_579:\n        /* \"#utility.yul\":23418:23492   */\n      swap2\n      pop\n        /* \"#utility.yul\":23501:23594   */\n      tag_580\n        /* \"#utility.yul\":23590:23593   */\n      dup3\n        /* \"#utility.yul\":23501:23594   */\n      tag_333\n      jump\t// in\n    tag_580:\n        /* \"#utility.yul\":23619:23621   */\n      0x40\n        /* \"#utility.yul\":23614:23617   */\n      dup3\n        /* \"#utility.yul\":23610:23622   */\n      add\n        /* \"#utility.yul\":23603:23622   */\n      swap1\n      pop\n        /* \"#utility.yul\":23262:23628   */\n      swap2\n      swap1\n      pop\n      jump\t// out\n        /* \"#utility.yul\":23634:24053   */\n    tag_105:\n        /* \"#utility.yul\":23800:23804   */\n      0x00\n        /* \"#utility.yul\":23838:23840   */\n      0x20\n        /* \"#utility.yul\":23827:23836   */\n      dup3\n        /* \"#utility.yul\":23823:23841   */\n      add\n        /* \"#utility.yul\":23815:23841   */\n      swap1\n      pop\n        /* \"#utility.yul\":23887:23896   */\n      dup2\n        /* \"#utility.yul\":23881:23885   */\n      dup2\n        /* \"#utility.yul\":23877:23897   */\n      sub\n        /* \"#utility.yul\":23873:23874   */\n      0x00\n        /* \"#utility.yul\":23862:23871   */\n      dup4\n        /* \"#utility.yul\":23858:23875   */\n      add\n        /* \"#utility.yul\":23851:23898   */\n      mstore\n        /* \"#utility.yul\":23915:24046   */\n      tag_582\n        /* \"#utility.yul\":24041:24045   */\n      dup2\n        /* \"#utility.yul\":23915:24046   */\n      tag_334\n      jump\t// in\n    tag_582:\n        /* \"#utility.yul\":23907:24046   */\n      swap1\n      pop\n        /* \"#utility.yul\":23634:24053   */\n      swap2\n      swap1\n      pop\n      jump\t// out\n        /* \"#utility.yul\":24059:24226   */\n    tag_335:\n        /* \"#utility.yul\":24199:24218   */\n      0x566f74696e67206973206f6e676f696e67000000000000000000000000000000\n        /* \"#utility.yul\":24195:24196   */\n      0x00\n        /* \"#utility.yul\":24187:24193   */\n      dup3\n        /* \"#utility.yul\":24183:24197   */\n      add\n        /* \"#utility.yul\":24176:24219   */\n      mstore\n        /* \"#utility.yul\":24059:24226   */\n      pop\n      jump\t// out\n        /* \"#utility.yul\":24232:24598   */\n    tag_336:\n        /* \"#utility.yul\":24374:24377   */\n      0x00\n        /* \"#utility.yul\":24395:24462   */\n      tag_585\n        /* \"#utility.yul\":24459:24461   */\n      0x11\n        /* \"#utility.yul\":24454:24457   */\n      dup4\n        /* \"#utility.yul\":24395:24462   */\n      tag_324\n      jump\t// in\n    tag_585:\n        /* \"#utility.yul\":24388:24462   */\n      swap2\n      pop\n        /* \"#utility.yul\":24471:24564   */\n      tag_586\n        /* \"#utility.yul\":24560:24563   */\n      dup3\n        /* \"#utility.yul\":24471:24564   */\n      tag_335\n      jump\t// in\n    tag_586:\n        /* \"#utility.yul\":24589:24591   */\n      0x20\n        /* \"#utility.yul\":24584:24587   */\n      dup3\n        /* \"#utility.yul\":24580:24592   */\n      add\n        /* \"#utility.yul\":24573:24592   */\n      swap1\n      pop\n        /* \"#utility.yul\":24232:24598   */\n      swap2\n      swap1\n      pop\n      jump\t// out\n        /* \"#utility.yul\":24604:25023   */\n    tag_147:\n        /* \"#utility.yul\":24770:24774   */\n      0x00\n        /* \"#utility.yul\":24808:24810   */\n      0x20\n        /* \"#utility.yul\":24797:24806   */\n      dup3\n        /* \"#utility.yul\":24793:24811   */\n      add\n        /* \"#utility.yul\":24785:24811   */\n      swap1\n      pop\n        /* \"#utility.yul\":24857:24866   */\n      dup2\n        /* \"#utility.yul\":24851:24855   */\n      dup2\n        /* \"#utility.yul\":24847:24867   */\n      sub\n        /* \"#utility.yul\":24843:24844   */\n      0x00\n        /* \"#utility.yul\":24832:24841   */\n      dup4\n        /* \"#utility.yul\":24828:24845   */\n      add\n        /* \"#utility.yul\":24821:24868   */\n      mstore\n        /* \"#utility.yul\":24885:25016   */\n      tag_588\n        /* \"#utility.yul\":25011:25015   */\n      dup2\n        /* \"#utility.yul\":24885:25016   */\n      tag_336\n      jump\t// in\n    tag_588:\n        /* \"#utility.yul\":24877:25016   */\n      swap1\n      pop\n        /* \"#utility.yul\":24604:25023   */\n      swap2\n      swap1\n      pop\n      jump\t// out\n        /* \"#utility.yul\":25029:25220   */\n    tag_149:\n        /* \"#utility.yul\":25069:25072   */\n      0x00\n        /* \"#utility.yul\":25088:25108   */\n      tag_590\n        /* \"#utility.yul\":25106:25107   */\n      dup3\n        /* \"#utility.yul\":25088:25108   */\n      tag_291\n      jump\t// in\n    tag_590:\n        /* \"#utility.yul\":25083:25108   */\n      swap2\n      pop\n        /* \"#utility.yul\":25122:25142   */\n      tag_591\n        /* \"#utility.yul\":25140:25141   */\n      dup4\n        /* \"#utility.yul\":25122:25142   */\n      tag_291\n      jump\t// in\n    tag_591:\n        /* \"#utility.yul\":25117:25142   */\n      swap3\n      pop\n        /* \"#utility.yul\":25165:25166   */\n      dup3\n        /* \"#utility.yul\":25162:25163   */\n      dup3\n        /* \"#utility.yul\":25158:25167   */\n      add\n        /* \"#utility.yul\":25151:25167   */\n      swap1\n      pop\n        /* \"#utility.yul\":25186:25189   */\n      dup1\n        /* \"#utility.yul\":25183:25184   */\n      dup3\n        /* \"#utility.yul\":25180:25190   */\n      gt\n        /* \"#utility.yul\":25177:25213   */\n      iszero\n      tag_592\n      jumpi\n        /* \"#utility.yul\":25193:25211   */\n      tag_593\n      tag_327\n      jump\t// in\n    tag_593:\n        /* \"#utility.yul\":25177:25213   */\n    tag_592:\n        /* \"#utility.yul\":25029:25220   */\n      swap3\n      swap2\n      pop\n      pop\n      jump\t// out\n        /* \"#utility.yul\":25226:25404   */\n    tag_337:\n        /* \"#utility.yul\":25366:25396   */\n      0x566f74657220726567697374726174696f6e20697320636c6f73656400000000\n        /* \"#utility.yul\":25362:25363   */\n      0x00\n        /* \"#utility.yul\":25354:25360   */\n      dup3\n        /* \"#utility.yul\":25350:25364   */\n      add\n        /* \"#utility.yul\":25343:25397   */\n      mstore\n        /* \"#utility.yul\":25226:25404   */\n      pop\n      jump\t// out\n        /* \"#utility.yul\":25410:25776   */\n    tag_338:\n        /* \"#utility.yul\":25552:25555   */\n      0x00\n        /* \"#utility.yul\":25573:25640   */\n      tag_596\n        /* \"#utility.yul\":25637:25639   */\n      0x1c\n        /* \"#utility.yul\":25632:25635   */\n      dup4\n        /* \"#utility.yul\":25573:25640   */\n      tag_324\n      jump\t// in\n    tag_596:\n        /* \"#utility.yul\":25566:25640   */\n      swap2\n      pop\n        /* \"#utility.yul\":25649:25742   */\n      tag_597\n        /* \"#utility.yul\":25738:25741   */\n      dup3\n        /* \"#utility.yul\":25649:25742   */\n      tag_337\n      jump\t// in\n    tag_597:\n        /* \"#utility.yul\":25767:25769   */\n      0x20\n        /* \"#utility.yul\":25762:25765   */\n      dup3\n        /* \"#utility.yul\":25758:25770   */\n      add\n        /* \"#utility.yul\":25751:25770   */\n      swap1\n      pop\n        /* \"#utility.yul\":25410:25776   */\n      swap2\n      swap1\n      pop\n      jump\t// out\n        /* \"#utility.yul\":25782:26201   */\n    tag_156:\n        /* \"#utility.yul\":25948:25952   */\n      0x00\n        /* \"#utility.yul\":25986:25988   */\n      0x20\n        /* \"#utility.yul\":25975:25984   */\n      dup3\n        /* \"#utility.yul\":25971:25989   */\n      add\n        /* \"#utility.yul\":25963:25989   */\n      swap1\n      pop\n        /* \"#utility.yul\":26035:26044   */\n      dup2\n        /* \"#utility.yul\":26029:26033   */\n      dup2\n        /* \"#utility.yul\":26025:26045   */\n      sub\n        /* \"#utility.yul\":26021:26022   */\n      0x00\n        /* \"#utility.yul\":26010:26019   */\n      dup4\n        /* \"#utility.yul\":26006:26023   */\n      add\n        /* \"#utility.yul\":25999:26046   */\n      mstore\n        /* \"#utility.yul\":26063:26194   */\n      tag_599\n        /* \"#utility.yul\":26189:26193   */\n      dup2\n        /* \"#utility.yul\":26063:26194   */\n      tag_338\n      jump\t// in\n    tag_599:\n        /* \"#utility.yul\":26055:26194   */\n      swap1\n      pop\n        /* \"#utility.yul\":25782:26201   */\n      swap2\n      swap1\n      pop\n      jump\t// out\n        /* \"#utility.yul\":26207:26375   */\n    tag_339:\n        /* \"#utility.yul\":26347:26367   */\n      0x596f75612061726520756e646572206167650000000000000000000000000000\n        /* \"#utility.yul\":26343:26344   */\n      0x00\n        /* \"#utility.yul\":26335:26341   */\n      dup3\n        /* \"#utility.yul\":26331:26345   */\n      add\n        /* \"#utility.yul\":26324:26368   */\n      mstore\n        /* \"#utility.yul\":26207:26375   */\n      pop\n      jump\t// out\n        /* \"#utility.yul\":26381:26747   */\n    tag_340:\n        /* \"#utility.yul\":26523:26526   */\n      0x00\n        /* \"#utility.yul\":26544:26611   */\n      tag_602\n        /* \"#utility.yul\":26608:26610   */\n      0x12\n        /* \"#utility.yul\":26603:26606   */\n      dup4\n        /* \"#utility.yul\":26544:26611   */\n      tag_324\n      jump\t// in\n    tag_602:\n        /* \"#utility.yul\":26537:26611   */\n      swap2\n      pop\n        /* \"#utility.yul\":26620:26713   */\n      tag_603\n        /* \"#utility.yul\":26709:26712   */\n      dup3\n        /* \"#utility.yul\":26620:26713   */\n      tag_339\n      jump\t// in\n    tag_603:\n        /* \"#utility.yul\":26738:26740   */\n      0x20\n        /* \"#utility.yul\":26733:26736   */\n      dup3\n        /* \"#utility.yul\":26729:26741   */\n      add\n        /* \"#utility.yul\":26722:26741   */\n      swap1\n      pop\n        /* \"#utility.yul\":26381:26747   */\n      swap2\n      swap1\n      pop\n      jump\t// out\n        /* \"#utility.yul\":26753:27172   */\n    tag_162:\n        /* \"#utility.yul\":26919:26923   */\n      0x00\n        /* \"#utility.yul\":26957:26959   */\n      0x20\n        /* \"#utility.yul\":26946:26955   */\n      dup3\n        /* \"#utility.yul\":26942:26960   */\n      add\n        /* \"#utility.yul\":26934:26960   */\n      swap1\n      pop\n        /* \"#utility.yul\":27006:27015   */\n      dup2\n        /* \"#utility.yul\":27000:27004   */\n      dup2\n        /* \"#utility.yul\":26996:27016   */\n      sub\n        /* \"#utility.yul\":26992:26993   */\n      0x00\n        /* \"#utility.yul\":26981:26990   */\n      dup4\n        /* \"#utility.yul\":26977:26994   */\n      add\n        /* \"#utility.yul\":26970:27017   */\n      mstore\n        /* \"#utility.yul\":27034:27165   */\n      tag_605\n        /* \"#utility.yul\":27160:27164   */\n      dup2\n        /* \"#utility.yul\":27034:27165   */\n      tag_340\n      jump\t// in\n    tag_605:\n        /* \"#utility.yul\":27026:27165   */\n      swap1\n      pop\n        /* \"#utility.yul\":26753:27172   */\n      swap2\n      swap1\n      pop\n      jump\t// out\n        /* \"#utility.yul\":27178:27345   */\n    tag_341:\n        /* \"#utility.yul\":27318:27337   */\n      0x416c726561647920726567697374657264000000000000000000000000000000\n        /* \"#utility.yul\":27314:27315   */\n      0x00\n        /* \"#utility.yul\":27306:27312   */\n      dup3\n        /* \"#utility.yul\":27302:27316   */\n      add\n        /* \"#utility.yul\":27295:27338   */\n      mstore\n        /* \"#utility.yul\":27178:27345   */\n      pop\n      jump\t// out\n        /* \"#utility.yul\":27351:27717   */\n    tag_342:\n        /* \"#utility.yul\":27493:27496   */\n      0x00\n        /* \"#utility.yul\":27514:27581   */\n      tag_608\n        /* \"#utility.yul\":27578:27580   */\n      0x11\n        /* \"#utility.yul\":27573:27576   */\n      dup4\n        /* \"#utility.yul\":27514:27581   */\n      tag_324\n      jump\t// in\n    tag_608:\n        /* \"#utility.yul\":27507:27581   */\n      swap2\n      pop\n        /* \"#utility.yul\":27590:27683   */\n      tag_609\n        /* \"#utility.yul\":27679:27682   */\n      dup3\n        /* \"#utility.yul\":27590:27683   */\n      tag_341\n      jump\t// in\n    tag_609:\n        /* \"#utility.yul\":27708:27710   */\n      0x20\n        /* \"#utility.yul\":27703:27706   */\n      dup3\n        /* \"#utility.yul\":27699:27711   */\n      add\n        /* \"#utility.yul\":27692:27711   */\n      swap1\n      pop\n        /* \"#utility.yul\":27351:27717   */\n      swap2\n      swap1\n      pop\n      jump\t// out\n        /* \"#utility.yul\":27723:28142   */\n    tag_167:\n        /* \"#utility.yul\":27889:27893   */\n      0x00\n        /* \"#utility.yul\":27927:27929   */\n      0x20\n        /* \"#utility.yul\":27916:27925   */\n      dup3\n        /* \"#utility.yul\":27912:27930   */\n      add\n        /* \"#utility.yul\":27904:27930   */\n      swap1\n      pop\n        /* \"#utility.yul\":27976:27985   */\n      dup2\n        /* \"#utility.yul\":27970:27974   */\n      dup2\n        /* \"#utility.yul\":27966:27986   */\n      sub\n        /* \"#utility.yul\":27962:27963   */\n      0x00\n        /* \"#utility.yul\":27951:27960   */\n      dup4\n        /* \"#utility.yul\":27947:27964   */\n      add\n        /* \"#utility.yul\":27940:27987   */\n      mstore\n        /* \"#utility.yul\":28004:28135   */\n      tag_611\n        /* \"#utility.yul\":28130:28134   */\n      dup2\n        /* \"#utility.yul\":28004:28135   */\n      tag_342\n      jump\t// in\n    tag_611:\n        /* \"#utility.yul\":27996:28135   */\n      swap1\n      pop\n        /* \"#utility.yul\":27723:28142   */\n      swap2\n      swap1\n      pop\n      jump\t// out\n        /* \"#utility.yul\":28148:28289   */\n    tag_343:\n        /* \"#utility.yul\":28197:28201   */\n      0x00\n        /* \"#utility.yul\":28220:28223   */\n      dup2\n        /* \"#utility.yul\":28212:28223   */\n      swap1\n      pop\n        /* \"#utility.yul\":28243:28246   */\n      dup2\n        /* \"#utility.yul\":28240:28241   */\n      0x00\n        /* \"#utility.yul\":28233:28247   */\n      mstore\n        /* \"#utility.yul\":28277:28281   */\n      0x20\n        /* \"#utility.yul\":28274:28275   */\n      0x00\n        /* \"#utility.yul\":28264:28282   */\n      keccak256\n        /* \"#utility.yul\":28256:28282   */\n      swap1\n      pop\n        /* \"#utility.yul\":28148:28289   */\n      swap2\n      swap1\n      pop\n      jump\t// out\n        /* \"#utility.yul\":28295:28388   */\n    tag_344:\n        /* \"#utility.yul\":28332:28338   */\n      0x00\n        /* \"#utility.yul\":28379:28381   */\n      0x20\n        /* \"#utility.yul\":28374:28376   */\n      0x1f\n        /* \"#utility.yul\":28367:28372   */\n      dup4\n        /* \"#utility.yul\":28363:28377   */\n      add\n        /* \"#utility.yul\":28359:28382   */\n      div\n        /* \"#utility.yul\":28349:28382   */\n      swap1\n      pop\n        /* \"#utility.yul\":28295:28388   */\n      swap2\n      swap1\n      pop\n      jump\t// out\n        /* \"#utility.yul\":28394:28501   */\n    tag_345:\n        /* \"#utility.yul\":28438:28446   */\n      0x00\n        /* \"#utility.yul\":28488:28493   */\n      dup3\n        /* \"#utility.yul\":28482:28486   */\n      dup3\n        /* \"#utility.yul\":28478:28494   */\n      shl\n        /* \"#utility.yul\":28457:28494   */\n      swap1\n      pop\n        /* \"#utility.yul\":28394:28501   */\n      swap3\n      swap2\n      pop\n      pop\n      jump\t// out\n        /* \"#utility.yul\":28507:28900   */\n    tag_346:\n        /* \"#utility.yul\":28576:28582   */\n      0x00\n        /* \"#utility.yul\":28626:28627   */\n      0x08\n        /* \"#utility.yul\":28614:28624   */\n      dup4\n        /* \"#utility.yul\":28610:28628   */\n      mul\n        /* \"#utility.yul\":28649:28746   */\n      tag_616\n        /* \"#utility.yul\":28679:28745   */\n      0xffffffffffffffffffffffffffffffffffffffffffffffffffffffffffffffff\n        /* \"#utility.yul\":28668:28677   */\n      dup3\n        /* \"#utility.yul\":28649:28746   */\n      tag_345\n      jump\t// in\n    tag_616:\n        /* \"#utility.yul\":28767:28806   */\n      tag_617\n        /* \"#utility.yul\":28797:28805   */\n      dup7\n        /* \"#utility.yul\":28786:28795   */\n      dup4\n        /* \"#utility.yul\":28767:28806   */\n      tag_345\n      jump\t// in\n    tag_617:\n        /* \"#utility.yul\":28755:28806   */\n      swap6\n      pop\n        /* \"#utility.yul\":28839:28843   */\n      dup1\n        /* \"#utility.yul\":28835:28844   */\n      not\n        /* \"#utility.yul\":28828:28833   */\n      dup5\n        /* \"#utility.yul\":28824:28845   */\n      and\n        /* \"#utility.yul\":28815:28845   */\n      swap4\n      pop\n        /* \"#utility.yul\":28888:28892   */\n      dup1\n        /* \"#utility.yul\":28878:28886   */\n      dup7\n        /* \"#utility.yul\":28874:28893   */\n      and\n        /* \"#utility.yul\":28867:28872   */\n      dup5\n        /* \"#utility.yul\":28864:28894   */\n      or\n        /* \"#utility.yul\":28854:28894   */\n      swap3\n      pop\n        /* \"#utility.yul\":28583:28900   */\n      pop\n      pop\n        /* \"#utility.yul\":28507:28900   */\n      swap4\n      swap3\n      pop\n      pop\n      pop\n      jump\t// out\n        /* \"#utility.yul\":28906:28966   */\n    tag_347:\n        /* \"#utility.yul\":28934:28937   */\n      0x00\n        /* \"#utility.yul\":28955:28960   */\n      dup2\n        /* \"#utility.yul\":28948:28960   */\n      swap1\n      pop\n        /* \"#utility.yul\":28906:28966   */\n      swap2\n      swap1\n      pop\n      jump\t// out\n        /* \"#utility.yul\":28972:29114   */\n    tag_348:\n        /* \"#utility.yul\":29022:29031   */\n      0x00\n        /* \"#utility.yul\":29055:29108   */\n      tag_620\n        /* \"#utility.yul\":29073:29107   */\n      tag_621\n        /* \"#utility.yul\":29082:29106   */\n      tag_622\n        /* \"#utility.yul\":29100:29105   */\n      dup5\n        /* \"#utility.yul\":29082:29106   */\n      tag_291\n      jump\t// in\n    tag_622:\n        /* \"#utility.yul\":29073:29107   */\n      tag_347\n      jump\t// in\n    tag_621:\n        /* \"#utility.yul\":29055:29108   */\n      tag_291\n      jump\t// in\n    tag_620:\n        /* \"#utility.yul\":29042:29108   */\n      swap1\n      pop\n        /* \"#utility.yul\":28972:29114   */\n      swap2\n      swap1\n      pop\n      jump\t// out\n        /* \"#utility.yul\":29120:29195   */\n    tag_349:\n        /* \"#utility.yul\":29163:29166   */\n      0x00\n        /* \"#utility.yul\":29184:29189   */\n      dup2\n        /* \"#utility.yul\":29177:29189   */\n      swap1\n      pop\n        /* \"#utility.yul\":29120:29195   */\n      swap2\n      swap1\n      pop\n      jump\t// out\n        /* \"#utility.yul\":29201:29470   */\n    tag_350:\n        /* \"#utility.yul\":29311:29350   */\n      tag_625\n        /* \"#utility.yul\":29342:29349   */\n      dup4\n        /* \"#utility.yul\":29311:29350   */\n      tag_348\n      jump\t// in\n    tag_625:\n        /* \"#utility.yul\":29372:29463   */\n      tag_626\n        /* \"#utility.yul\":29421:29462   */\n      tag_627\n        /* \"#utility.yul\":29445:29461   */\n      dup3\n        /* \"#utility.yul\":29421:29462   */\n      tag_349\n      jump\t// in\n    tag_627:\n        /* \"#utility.yul\":29413:29419   */\n      dup5\n        /* \"#utility.yul\":29406:29410   */\n      dup5\n        /* \"#utility.yul\":29400:29411   */\n      sload\n        /* \"#utility.yul\":29372:29463   */\n      tag_346\n      jump\t// in\n    tag_626:\n        /* \"#utility.yul\":29366:29370   */\n      dup3\n        /* \"#utility.yul\":29359:29464   */\n      sstore\n        /* \"#utility.yul\":29277:29470   */\n      pop\n        /* \"#utility.yul\":29201:29470   */\n      pop\n      pop\n      pop\n      jump\t// out\n        /* \"#utility.yul\":29476:29549   */\n    tag_351:\n        /* \"#utility.yul\":29521:29524   */\n      0x00\n        /* \"#utility.yul\":29476:29549   */\n      swap1\n      jump\t// out\n        /* \"#utility.yul\":29555:29744   */\n    tag_352:\n        /* \"#utility.yul\":29632:29664   */\n      tag_630\n      tag_351\n      jump\t// in\n    tag_630:\n        /* \"#utility.yul\":29673:29738   */\n      tag_631\n        /* \"#utility.yul\":29731:29737   */\n      dup2\n        /* \"#utility.yul\":29723:29729   */\n      dup5\n        /* \"#utility.yul\":29717:29721   */\n      dup5\n        /* \"#utility.yul\":29673:29738   */\n      tag_350\n      jump\t// in\n    tag_631:\n        /* \"#utility.yul\":29608:29744   */\n      pop\n        /* \"#utility.yul\":29555:29744   */\n      pop\n      pop\n      jump\t// out\n        /* \"#utility.yul\":29750:29936   */\n    tag_353:\n        /* \"#utility.yul\":29810:29930   */\n    tag_633:\n        /* \"#utility.yul\":29827:29830   */\n      dup2\n        /* \"#utility.yul\":29820:29825   */\n      dup2\n        /* \"#utility.yul\":29817:29831   */\n      lt\n        /* \"#utility.yul\":29810:29930   */\n      iszero\n      tag_635\n      jumpi\n        /* \"#utility.yul\":29881:29920   */\n      tag_636\n        /* \"#utility.yul\":29918:29919   */\n      0x00\n        /* \"#utility.yul\":29911:29916   */\n      dup3\n        /* \"#utility.yul\":29881:29920   */\n      tag_352\n      jump\t// in\n    tag_636:\n        /* \"#utility.yul\":29854:29855   */\n      0x01\n        /* \"#utility.yul\":29847:29852   */\n      dup2\n        /* \"#utility.yul\":29843:29856   */\n      add\n        /* \"#utility.yul\":29834:29856   */\n      swap1\n      pop\n        /* \"#utility.yul\":29810:29930   */\n      jump(tag_633)\n    tag_635:\n        /* \"#utility.yul\":29750:29936   */\n      pop\n      pop\n      jump\t// out\n        /* \"#utility.yul\":29942:30485   */\n    tag_354:\n        /* \"#utility.yul\":30043:30045   */\n      0x1f\n        /* \"#utility.yul\":30038:30041   */\n      dup3\n        /* \"#utility.yul\":30035:30046   */\n      gt\n        /* \"#utility.yul\":30032:30478   */\n      iszero\n      tag_638\n      jumpi\n        /* \"#utility.yul\":30077:30115   */\n      tag_639\n        /* \"#utility.yul\":30109:30114   */\n      dup2\n        /* \"#utility.yul\":30077:30115   */\n      tag_343\n      jump\t// in\n    tag_639:\n        /* \"#utility.yul\":30161:30190   */\n      tag_640\n        /* \"#utility.yul\":30179:30189   */\n      dup5\n        /* \"#utility.yul\":30161:30190   */\n      tag_344\n      jump\t// in\n    tag_640:\n        /* \"#utility.yul\":30151:30159   */\n      dup2\n        /* \"#utility.yul\":30147:30191   */\n      add\n        /* \"#utility.yul\":30344:30346   */\n      0x20\n        /* \"#utility.yul\":30332:30342   */\n      dup6\n        /* \"#utility.yul\":30329:30347   */\n      lt\n        /* \"#utility.yul\":30326:30375   */\n      iszero\n      tag_641\n      jumpi\n        /* \"#utility.yul\":30365:30373   */\n      dup2\n        /* \"#utility.yul\":30350:30373   */\n      swap1\n      pop\n        /* \"#utility.yul\":30326:30375   */\n    tag_641:\n        /* \"#utility.yul\":30388:30468   */\n      tag_642\n        /* \"#utility.yul\":30444:30466   */\n      tag_643\n        /* \"#utility.yul\":30462:30465   */\n      dup6\n        /* \"#utility.yul\":30444:30466   */\n      tag_344\n      jump\t// in\n    tag_643:\n        /* \"#utility.yul\":30434:30442   */\n      dup4\n        /* \"#utility.yul\":30430:30467   */\n      add\n        /* \"#utility.yul\":30417:30428   */\n      dup3\n        /* \"#utility.yul\":30388:30468   */\n      tag_353\n      jump\t// in\n    tag_642:\n        /* \"#utility.yul\":30047:30478   */\n      pop\n      pop\n        /* \"#utility.yul\":30032:30478   */\n    tag_638:\n        /* \"#utility.yul\":29942:30485   */\n      pop\n      pop\n      pop\n      jump\t// out\n        /* \"#utility.yul\":30491:30608   */\n    tag_355:\n        /* \"#utility.yul\":30545:30553   */\n      0x00\n        /* \"#utility.yul\":30595:30600   */\n      dup3\n        /* \"#utility.yul\":30589:30593   */\n      dup3\n        /* \"#utility.yul\":30585:30601   */\n      shr\n        /* \"#utility.yul\":30564:30601   */\n      swap1\n      pop\n        /* \"#utility.yul\":30491:30608   */\n      swap3\n      swap2\n      pop\n      pop\n      jump\t// out\n        /* \"#utility.yul\":30614:30783   */\n    tag_356:\n        /* \"#utility.yul\":30658:30664   */\n      0x00\n        /* \"#utility.yul\":30691:30742   */\n      tag_646\n        /* \"#utility.yul\":30739:30740   */\n      0x00\n        /* \"#utility.yul\":30735:30741   */\n      not\n        /* \"#utility.yul\":30727:30732   */\n      dup5\n        /* \"#utility.yul\":30724:30725   */\n      0x08\n        /* \"#utility.yul\":30720:30733   */\n      mul\n        /* \"#utility.yul\":30691:30742   */\n      tag_355\n      jump\t// in\n    tag_646:\n        /* \"#utility.yul\":30687:30743   */\n      not\n        /* \"#utility.yul\":30772:30776   */\n      dup1\n        /* \"#utility.yul\":30766:30770   */\n      dup4\n        /* \"#utility.yul\":30762:30777   */\n      and\n        /* \"#utility.yul\":30752:30777   */\n      swap2\n      pop\n        /* \"#utility.yul\":30665:30783   */\n      pop\n        /* \"#utility.yul\":30614:30783   */\n      swap3\n      swap2\n      pop\n      pop\n      jump\t// out\n        /* \"#utility.yul\":30788:31083   */\n    tag_357:\n        /* \"#utility.yul\":30864:30868   */\n      0x00\n        /* \"#utility.yul\":31010:31039   */\n      tag_648\n        /* \"#utility.yul\":31035:31038   */\n      dup4\n        /* \"#utility.yul\":31029:31033   */\n      dup4\n        /* \"#utility.yul\":31010:31039   */\n      tag_356\n      jump\t// in\n    tag_648:\n        /* \"#utility.yul\":31002:31039   */\n      swap2\n      pop\n        /* \"#utility.yul\":31072:31075   */\n      dup3\n        /* \"#utility.yul\":31069:31070   */\n      0x02\n        /* \"#utility.yul\":31065:31076   */\n      mul\n        /* \"#utility.yul\":31059:31063   */\n      dup3\n        /* \"#utility.yul\":31056:31077   */\n      or\n        /* \"#utility.yul\":31048:31077   */\n      swap1\n      pop\n        /* \"#utility.yul\":30788:31083   */\n      swap3\n      swap2\n      pop\n      pop\n      jump\t// out\n        /* \"#utility.yul\":31088:32483   */\n    tag_169:\n        /* \"#utility.yul\":31205:31242   */\n      tag_650\n        /* \"#utility.yul\":31238:31241   */\n      dup3\n        /* \"#utility.yul\":31205:31242   */\n      tag_286\n      jump\t// in\n    tag_650:\n        /* \"#utility.yul\":31307:31325   */\n      0xffffffffffffffff\n        /* \"#utility.yul\":31299:31305   */\n      dup2\n        /* \"#utility.yul\":31296:31326   */\n      gt\n        /* \"#utility.yul\":31293:31349   */\n      iszero\n      tag_651\n      jumpi\n        /* \"#utility.yul\":31329:31347   */\n      tag_652\n      tag_68\n      jump\t// in\n    tag_652:\n        /* \"#utility.yul\":31293:31349   */\n    tag_651:\n        /* \"#utility.yul\":31373:31411   */\n      tag_653\n        /* \"#utility.yul\":31405:31409   */\n      dup3\n        /* \"#utility.yul\":31399:31410   */\n      sload\n        /* \"#utility.yul\":31373:31411   */\n      tag_77\n      jump\t// in\n    tag_653:\n        /* \"#utility.yul\":31458:31525   */\n      tag_654\n        /* \"#utility.yul\":31518:31524   */\n      dup3\n        /* \"#utility.yul\":31510:31516   */\n      dup3\n        /* \"#utility.yul\":31504:31508   */\n      dup6\n        /* \"#utility.yul\":31458:31525   */\n      tag_354\n      jump\t// in\n    tag_654:\n        /* \"#utility.yul\":31552:31553   */\n      0x00\n        /* \"#utility.yul\":31576:31580   */\n      0x20\n        /* \"#utility.yul\":31563:31580   */\n      swap1\n      pop\n        /* \"#utility.yul\":31608:31610   */\n      0x1f\n        /* \"#utility.yul\":31600:31606   */\n      dup4\n        /* \"#utility.yul\":31597:31611   */\n      gt\n        /* \"#utility.yul\":31625:31626   */\n      0x01\n        /* \"#utility.yul\":31620:32238   */\n      dup2\n      eq\n      tag_656\n      jumpi\n        /* \"#utility.yul\":32282:32283   */\n      0x00\n        /* \"#utility.yul\":32299:32305   */\n      dup5\n        /* \"#utility.yul\":32296:32373   */\n      iszero\n      tag_657\n      jumpi\n        /* \"#utility.yul\":32348:32357   */\n      dup3\n        /* \"#utility.yul\":32343:32346   */\n      dup8\n        /* \"#utility.yul\":32339:32358   */\n      add\n        /* \"#utility.yul\":32333:32359   */\n      mload\n        /* \"#utility.yul\":32324:32359   */\n      swap1\n      pop\n        /* \"#utility.yul\":32296:32373   */\n    tag_657:\n        /* \"#utility.yul\":32399:32466   */\n      tag_658\n        /* \"#utility.yul\":32459:32465   */\n      dup6\n        /* \"#utility.yul\":32452:32457   */\n      dup3\n        /* \"#utility.yul\":32399:32466   */\n      tag_357\n      jump\t// in\n    tag_658:\n        /* \"#utility.yul\":32393:32397   */\n      dup7\n        /* \"#utility.yul\":32386:32467   */\n      sstore\n        /* \"#utility.yul\":32255:32477   */\n      pop\n        /* \"#utility.yul\":31590:32477   */\n      jump(tag_655)\n        /* \"#utility.yul\":31620:32238   */\n    tag_656:\n        /* \"#utility.yul\":31672:31676   */\n      0x1f\n        /* \"#utility.yul\":31668:31677   */\n      not\n        /* \"#utility.yul\":31660:31666   */\n      dup5\n        /* \"#utility.yul\":31656:31678   */\n      and\n        /* \"#utility.yul\":31706:31743   */\n      tag_659\n        /* \"#utility.yul\":31738:31742   */\n      dup7\n        /* \"#utility.yul\":31706:31743   */\n      tag_343\n      jump\t// in\n    tag_659:\n        /* \"#utility.yul\":31765:31766   */\n      0x00\n        /* \"#utility.yul\":31779:31987   */\n    tag_660:\n        /* \"#utility.yul\":31793:31800   */\n      dup3\n        /* \"#utility.yul\":31790:31791   */\n      dup2\n        /* \"#utility.yul\":31787:31801   */\n      lt\n        /* \"#utility.yul\":31779:31987   */\n      iszero\n      tag_662\n      jumpi\n        /* \"#utility.yul\":31872:31881   */\n      dup5\n        /* \"#utility.yul\":31867:31870   */\n      dup10\n        /* \"#utility.yul\":31863:31882   */\n      add\n        /* \"#utility.yul\":31857:31883   */\n      mload\n        /* \"#utility.yul\":31849:31855   */\n      dup3\n        /* \"#utility.yul\":31842:31884   */\n      sstore\n        /* \"#utility.yul\":31923:31924   */\n      0x01\n        /* \"#utility.yul\":31915:31921   */\n      dup3\n        /* \"#utility.yul\":31911:31925   */\n      add\n        /* \"#utility.yul\":31901:31925   */\n      swap2\n      pop\n        /* \"#utility.yul\":31970:31972   */\n      0x20\n        /* \"#utility.yul\":31959:31968   */\n      dup6\n        /* \"#utility.yul\":31955:31973   */\n      add\n        /* \"#utility.yul\":31942:31973   */\n      swap5\n      pop\n        /* \"#utility.yul\":31816:31820   */\n      0x20\n        /* \"#utility.yul\":31813:31814   */\n      dup2\n        /* \"#utility.yul\":31809:31821   */\n      add\n        /* \"#utility.yul\":31804:31821   */\n      swap1\n      pop\n        /* \"#utility.yul\":31779:31987   */\n      jump(tag_660)\n    tag_662:\n        /* \"#utility.yul\":32015:32021   */\n      dup7\n        /* \"#utility.yul\":32006:32013   */\n      dup4\n        /* \"#utility.yul\":32003:32022   */\n      lt\n        /* \"#utility.yul\":32000:32179   */\n      iszero\n      tag_663\n      jumpi\n        /* \"#utility.yul\":32073:32082   */\n      dup5\n        /* \"#utility.yul\":32068:32071   */\n      dup10\n        /* \"#utility.yul\":32064:32083   */\n      add\n        /* \"#utility.yul\":32058:32084   */\n      mload\n        /* \"#utility.yul\":32116:32164   */\n      tag_664\n        /* \"#utility.yul\":32158:32162   */\n      0x1f\n        /* \"#utility.yul\":32150:32156   */\n      dup10\n        /* \"#utility.yul\":32146:32163   */\n      and\n        /* \"#utility.yul\":32135:32144   */\n      dup3\n        /* \"#utility.yul\":32116:32164   */\n      tag_356\n      jump\t// in\n    tag_664:\n        /* \"#utility.yul\":32108:32114   */\n      dup4\n        /* \"#utility.yul\":32101:32165   */\n      sstore\n        /* \"#utility.yul\":32023:32179   */\n      pop\n        /* \"#utility.yul\":32000:32179   */\n    tag_663:\n        /* \"#utility.yul\":32225:32226   */\n      0x01\n        /* \"#utility.yul\":32221:32222   */\n      0x02\n        /* \"#utility.yul\":32213:32219   */\n      dup9\n        /* \"#utility.yul\":32209:32223   */\n      mul\n        /* \"#utility.yul\":32205:32227   */\n      add\n        /* \"#utility.yul\":32199:32203   */\n      dup9\n        /* \"#utility.yul\":32192:32228   */\n      sstore\n        /* \"#utility.yul\":31627:32238   */\n      pop\n      pop\n      pop\n        /* \"#utility.yul\":31590:32477   */\n    tag_655:\n      pop\n        /* \"#utility.yul\":31180:32483   */\n      pop\n      pop\n      pop\n        /* \"#utility.yul\":31088:32483   */\n      pop\n      pop\n      jump\t// out\n        /* \"#utility.yul\":32489:32671   */\n    tag_358:\n        /* \"#utility.yul\":32629:32663   */\n      0x43616e64696461746520526567697374726174696f6e20697320636c6f736564\n        /* \"#utility.yul\":32625:32626   */\n      0x00\n        /* \"#utility.yul\":32617:32623   */\n      dup3\n        /* \"#utility.yul\":32613:32627   */\n      add\n        /* \"#utility.yul\":32606:32664   */\n      mstore\n        /* \"#utility.yul\":32489:32671   */\n      pop\n      jump\t// out\n        /* \"#utility.yul\":32677:33043   */\n    tag_359:\n        /* \"#utility.yul\":32819:32822   */\n      0x00\n        /* \"#utility.yul\":32840:32907   */\n      tag_667\n        /* \"#utility.yul\":32904:32906   */\n      0x20\n        /* \"#utility.yul\":32899:32902   */\n      dup4\n        /* \"#utility.yul\":32840:32907   */\n      tag_324\n      jump\t// in\n    tag_667:\n        /* \"#utility.yul\":32833:32907   */\n      swap2\n      pop\n        /* \"#utility.yul\":32916:33009   */\n      tag_668\n        /* \"#utility.yul\":33005:33008   */\n      dup3\n        /* \"#utility.yul\":32916:33009   */\n      tag_358\n      jump\t// in\n    tag_668:\n        /* \"#utility.yul\":33034:33036   */\n      0x20\n        /* \"#utility.yul\":33029:33032   */\n      dup3\n        /* \"#utility.yul\":33025:33037   */\n      add\n        /* \"#utility.yul\":33018:33037   */\n      swap1\n      pop\n        /* \"#utility.yul\":32677:33043   */\n      swap2\n      swap1\n      pop\n      jump\t// out\n        /* \"#utility.yul\":33049:33468   */\n    tag_177:\n        /* \"#utility.yul\":33215:33219   */\n      0x00\n        /* \"#utility.yul\":33253:33255   */\n      0x20\n        /* \"#utility.yul\":33242:33251   */\n      dup3\n        /* \"#utility.yul\":33238:33256   */\n      add\n        /* \"#utility.yul\":33230:33256   */\n      swap1\n      pop\n        /* \"#utility.yul\":33302:33311   */\n      dup2\n        /* \"#utility.yul\":33296:33300   */\n      dup2\n        /* \"#utility.yul\":33292:33312   */\n      sub\n        /* \"#utility.yul\":33288:33289   */\n      0x00\n        /* \"#utility.yul\":33277:33286   */\n      dup4\n        /* \"#utility.yul\":33273:33290   */\n      add\n        /* \"#utility.yul\":33266:33313   */\n      mstore\n        /* \"#utility.yul\":33330:33461   */\n      tag_670\n        /* \"#utility.yul\":33456:33460   */\n      dup2\n        /* \"#utility.yul\":33330:33461   */\n      tag_359\n      jump\t// in\n    tag_670:\n        /* \"#utility.yul\":33322:33461   */\n      swap1\n      pop\n        /* \"#utility.yul\":33049:33468   */\n      swap2\n      swap1\n      pop\n      jump\t// out\n        /* \"#utility.yul\":33474:33655   */\n    tag_360:\n        /* \"#utility.yul\":33614:33647   */\n      0x596f75206172652066726f6d20656c656374696f6e20636f6d697373696f6e00\n        /* \"#utility.yul\":33610:33611   */\n      0x00\n        /* \"#utility.yul\":33602:33608   */\n      dup3\n        /* \"#utility.yul\":33598:33612   */\n      add\n        /* \"#utility.yul\":33591:33648   */\n      mstore\n        /* \"#utility.yul\":33474:33655   */\n      pop\n      jump\t// out\n        /* \"#utility.yul\":33661:34027   */\n    tag_361:\n        /* \"#utility.yul\":33803:33806   */\n      0x00\n        /* \"#utility.yul\":33824:33891   */\n      tag_673\n        /* \"#utility.yul\":33888:33890   */\n      0x1f\n        /* \"#utility.yul\":33883:33886   */\n      dup4\n        /* \"#utility.yul\":33824:33891   */\n      tag_324\n      jump\t// in\n    tag_673:\n        /* \"#utility.yul\":33817:33891   */\n      swap2\n      pop\n        /* \"#utility.yul\":33900:33993   */\n      tag_674\n        /* \"#utility.yul\":33989:33992   */\n      dup3\n        /* \"#utility.yul\":33900:33993   */\n      tag_360\n      jump\t// in\n    tag_674:\n        /* \"#utility.yul\":34018:34020   */\n      0x20\n        /* \"#utility.yul\":34013:34016   */\n      dup3\n        /* \"#utility.yul\":34009:34021   */\n      add\n        /* \"#utility.yul\":34002:34021   */\n      swap1\n      pop\n        /* \"#utility.yul\":33661:34027   */\n      swap2\n      swap1\n      pop\n      jump\t// out\n        /* \"#utility.yul\":34033:34452   */\n    tag_183:\n        /* \"#utility.yul\":34199:34203   */\n      0x00\n        /* \"#utility.yul\":34237:34239   */\n      0x20\n        /* \"#utility.yul\":34226:34235   */\n      dup3\n        /* \"#utility.yul\":34222:34240   */\n      add\n        /* \"#utility.yul\":34214:34240   */\n      swap1\n      pop\n        /* \"#utility.yul\":34286:34295   */\n      dup2\n        /* \"#utility.yul\":34280:34284   */\n      dup2\n        /* \"#utility.yul\":34276:34296   */\n      sub\n        /* \"#utility.yul\":34272:34273   */\n      0x00\n        /* \"#utility.yul\":34261:34270   */\n      dup4\n        /* \"#utility.yul\":34257:34274   */\n      add\n        /* \"#utility.yul\":34250:34297   */\n      mstore\n        /* \"#utility.yul\":34314:34445   */\n      tag_676\n        /* \"#utility.yul\":34440:34444   */\n      dup2\n        /* \"#utility.yul\":34314:34445   */\n      tag_361\n      jump\t// in\n    tag_676:\n        /* \"#utility.yul\":34306:34445   */\n      swap1\n      pop\n        /* \"#utility.yul\":34033:34452   */\n      swap2\n      swap1\n      pop\n      jump\t// out\n        /* \"#utility.yul\":34458:34622   */\n    tag_362:\n        /* \"#utility.yul\":34598:34614   */\n      0x596f75206861766520766f746564000000000000000000000000000000000000\n        /* \"#utility.yul\":34594:34595   */\n      0x00\n        /* \"#utility.yul\":34586:34592   */\n      dup3\n        /* \"#utility.yul\":34582:34596   */\n      add\n        /* \"#utility.yul\":34575:34615   */\n      mstore\n        /* \"#utility.yul\":34458:34622   */\n      pop\n      jump\t// out\n        /* \"#utility.yul\":34628:34994   */\n    tag_363:\n        /* \"#utility.yul\":34770:34773   */\n      0x00\n        /* \"#utility.yul\":34791:34858   */\n      tag_679\n        /* \"#utility.yul\":34855:34857   */\n      0x0e\n        /* \"#utility.yul\":34850:34853   */\n      dup4\n        /* \"#utility.yul\":34791:34858   */\n      tag_324\n      jump\t// in\n    tag_679:\n        /* \"#utility.yul\":34784:34858   */\n      swap2\n      pop\n        /* \"#utility.yul\":34867:34960   */\n      tag_680\n        /* \"#utility.yul\":34956:34959   */\n      dup3\n        /* \"#utility.yul\":34867:34960   */\n      tag_362\n      jump\t// in\n    tag_680:\n        /* \"#utility.yul\":34985:34987   */\n      0x20\n        /* \"#utility.yul\":34980:34983   */\n      dup3\n        /* \"#utility.yul\":34976:34988   */\n      add\n        /* \"#utility.yul\":34969:34988   */\n      swap1\n      pop\n        /* \"#utility.yul\":34628:34994   */\n      swap2\n      swap1\n      pop\n      jump\t// out\n        /* \"#utility.yul\":35000:35419   */\n    tag_225:\n        /* \"#utility.yul\":35166:35170   */\n      0x00\n        /* \"#utility.yul\":35204:35206   */\n      0x20\n        /* \"#utility.yul\":35193:35202   */\n      dup3\n        /* \"#utility.yul\":35189:35207   */\n      add\n        /* \"#utility.yul\":35181:35207   */\n      swap1\n      pop\n        /* \"#utility.yul\":35253:35262   */\n      dup2\n        /* \"#utility.yul\":35247:35251   */\n      dup2\n        /* \"#utility.yul\":35243:35263   */\n      sub\n        /* \"#utility.yul\":35239:35240   */\n      0x00\n        /* \"#utility.yul\":35228:35237   */\n      dup4\n        /* \"#utility.yul\":35224:35241   */\n      add\n        /* \"#utility.yul\":35217:35264   */\n      mstore\n        /* \"#utility.yul\":35281:35412   */\n      tag_682\n        /* \"#utility.yul\":35407:35411   */\n      dup2\n        /* \"#utility.yul\":35281:35412   */\n      tag_363\n      jump\t// in\n    tag_682:\n        /* \"#utility.yul\":35273:35412   */\n      swap1\n      pop\n        /* \"#utility.yul\":35000:35419   */\n      swap2\n      swap1\n      pop\n      jump\t// out\n        /* \"#utility.yul\":35425:35607   */\n    tag_364:\n        /* \"#utility.yul\":35565:35599   */\n      0x596f752063616e7420766f74652066726f6d206f746865727320626568616c66\n        /* \"#utility.yul\":35561:35562   */\n      0x00\n        /* \"#utility.yul\":35553:35559   */\n      dup3\n        /* \"#utility.yul\":35549:35563   */\n      add\n        /* \"#utility.yul\":35542:35600   */\n      mstore\n        /* \"#utility.yul\":35425:35607   */\n      pop\n      jump\t// out\n        /* \"#utility.yul\":35613:35979   */\n    tag_365:\n        /* \"#utility.yul\":35755:35758   */\n      0x00\n        /* \"#utility.yul\":35776:35843   */\n      tag_685\n        /* \"#utility.yul\":35840:35842   */\n      0x20\n        /* \"#utility.yul\":35835:35838   */\n      dup4\n        /* \"#utility.yul\":35776:35843   */\n      tag_324\n      jump\t// in\n    tag_685:\n        /* \"#utility.yul\":35769:35843   */\n      swap2\n      pop\n        /* \"#utility.yul\":35852:35945   */\n      tag_686\n        /* \"#utility.yul\":35941:35944   */\n      dup3\n        /* \"#utility.yul\":35852:35945   */\n      tag_364\n      jump\t// in\n    tag_686:\n        /* \"#utility.yul\":35970:35972   */\n      0x20\n        /* \"#utility.yul\":35965:35968   */\n      dup3\n        /* \"#utility.yul\":35961:35973   */\n      add\n        /* \"#utility.yul\":35954:35973   */\n      swap1\n      pop\n        /* \"#utility.yul\":35613:35979   */\n      swap2\n      swap1\n      pop\n      jump\t// out\n        /* \"#utility.yul\":35985:36404   */\n    tag_228:\n        /* \"#utility.yul\":36151:36155   */\n      0x00\n        /* \"#utility.yul\":36189:36191   */\n      0x20\n        /* \"#utility.yul\":36178:36187   */\n      dup3\n        /* \"#utility.yul\":36174:36192   */\n      add\n        /* \"#utility.yul\":36166:36192   */\n      swap1\n      pop\n        /* \"#utility.yul\":36238:36247   */\n      dup2\n        /* \"#utility.yul\":36232:36236   */\n      dup2\n        /* \"#utility.yul\":36228:36248   */\n      sub\n        /* \"#utility.yul\":36224:36225   */\n      0x00\n        /* \"#utility.yul\":36213:36222   */\n      dup4\n        /* \"#utility.yul\":36209:36226   */\n      add\n        /* \"#utility.yul\":36202:36249   */\n      mstore\n        /* \"#utility.yul\":36266:36397   */\n      tag_688\n        /* \"#utility.yul\":36392:36396   */\n      dup2\n        /* \"#utility.yul\":36266:36397   */\n      tag_365\n      jump\t// in\n    tag_688:\n        /* \"#utility.yul\":36258:36397   */\n      swap1\n      pop\n        /* \"#utility.yul\":35985:36404   */\n      swap2\n      swap1\n      pop\n      jump\t// out\n        /* \"#utility.yul\":36410:36637   */\n    tag_366:\n        /* \"#utility.yul\":36550:36584   */\n      0x43616e6469646174657320617265206e6f74207265676973746572656420636f\n        /* \"#utility.yul\":36546:36547   */\n      0x00\n        /* \"#utility.yul\":36538:36544   */\n      dup3\n        /* \"#utility.yul\":36534:36548   */\n      add\n        /* \"#utility.yul\":36527:36585   */\n      mstore\n        /* \"#utility.yul\":36619:36629   */\n      0x6d706c6574656c79000000000000000000000000000000000000000000000000\n        /* \"#utility.yul\":36614:36616   */\n      0x20\n        /* \"#utility.yul\":36606:36612   */\n      dup3\n        /* \"#utility.yul\":36602:36617   */\n      add\n        /* \"#utility.yul\":36595:36630   */\n      mstore\n        /* \"#utility.yul\":36410:36637   */\n      pop\n      jump\t// out\n        /* \"#utility.yul\":36643:37009   */\n    tag_367:\n        /* \"#utility.yul\":36785:36788   */\n      0x00\n        /* \"#utility.yul\":36806:36873   */\n      tag_691\n        /* \"#utility.yul\":36870:36872   */\n      0x28\n        /* \"#utility.yul\":36865:36868   */\n      dup4\n        /* \"#utility.yul\":36806:36873   */\n      tag_324\n      jump\t// in\n    tag_691:\n        /* \"#utility.yul\":36799:36873   */\n      swap2\n      pop\n        /* \"#utility.yul\":36882:36975   */\n      tag_692\n        /* \"#utility.yul\":36971:36974   */\n      dup3\n        /* \"#utility.yul\":36882:36975   */\n      tag_366\n      jump\t// in\n    tag_692:\n        /* \"#utility.yul\":37000:37002   */\n      0x40\n        /* \"#utility.yul\":36995:36998   */\n      dup3\n        /* \"#utility.yul\":36991:37003   */\n      add\n        /* \"#utility.yul\":36984:37003   */\n      swap1\n      pop\n        /* \"#utility.yul\":36643:37009   */\n      swap2\n      swap1\n      pop\n      jump\t// out\n        /* \"#utility.yul\":37015:37434   */\n    tag_231:\n        /* \"#utility.yul\":37181:37185   */\n      0x00\n        /* \"#utility.yul\":37219:37221   */\n      0x20\n        /* \"#utility.yul\":37208:37217   */\n      dup3\n        /* \"#utility.yul\":37204:37222   */\n      add\n        /* \"#utility.yul\":37196:37222   */\n      swap1\n      pop\n        /* \"#utility.yul\":37268:37277   */\n      dup2\n        /* \"#utility.yul\":37262:37266   */\n      dup2\n        /* \"#utility.yul\":37258:37278   */\n      sub\n        /* \"#utility.yul\":37254:37255   */\n      0x00\n        /* \"#utility.yul\":37243:37252   */\n      dup4\n        /* \"#utility.yul\":37239:37256   */\n      add\n        /* \"#utility.yul\":37232:37279   */\n      mstore\n        /* \"#utility.yul\":37296:37427   */\n      tag_694\n        /* \"#utility.yul\":37422:37426   */\n      dup2\n        /* \"#utility.yul\":37296:37427   */\n      tag_367\n      jump\t// in\n    tag_694:\n        /* \"#utility.yul\":37288:37427   */\n      swap1\n      pop\n        /* \"#utility.yul\":37015:37434   */\n      swap2\n      swap1\n      pop\n      jump\t// out\n        /* \"#utility.yul\":37440:37611   */\n    tag_368:\n        /* \"#utility.yul\":37580:37603   */\n      0x566f74696e67206973206e6f7420737461727465640000000000000000000000\n        /* \"#utility.yul\":37576:37577   */\n      0x00\n        /* \"#utility.yul\":37568:37574   */\n      dup3\n        /* \"#utility.yul\":37564:37578   */\n      add\n        /* \"#utility.yul\":37557:37604   */\n      mstore\n        /* \"#utility.yul\":37440:37611   */\n      pop\n      jump\t// out\n        /* \"#utility.yul\":37617:37983   */\n    tag_369:\n        /* \"#utility.yul\":37759:37762   */\n      0x00\n        /* \"#utility.yul\":37780:37847   */\n      tag_697\n        /* \"#utility.yul\":37844:37846   */\n      0x15\n        /* \"#utility.yul\":37839:37842   */\n      dup4\n        /* \"#utility.yul\":37780:37847   */\n      tag_324\n      jump\t// in\n    tag_697:\n        /* \"#utility.yul\":37773:37847   */\n      swap2\n      pop\n        /* \"#utility.yul\":37856:37949   */\n      tag_698\n        /* \"#utility.yul\":37945:37948   */\n      dup3\n        /* \"#utility.yul\":37856:37949   */\n      tag_368\n      jump\t// in\n    tag_698:\n        /* \"#utility.yul\":37974:37976   */\n      0x20\n        /* \"#utility.yul\":37969:37972   */\n      dup3\n        /* \"#utility.yul\":37965:37977   */\n      add\n        /* \"#utility.yul\":37958:37977   */\n      swap1\n      pop\n        /* \"#utility.yul\":37617:37983   */\n      swap2\n      swap1\n      pop\n      jump\t// out\n        /* \"#utility.yul\":37989:38408   */\n    tag_234:\n        /* \"#utility.yul\":38155:38159   */\n      0x00\n        /* \"#utility.yul\":38193:38195   */\n      0x20\n        /* \"#utility.yul\":38182:38191   */\n      dup3\n        /* \"#utility.yul\":38178:38196   */\n      add\n        /* \"#utility.yul\":38170:38196   */\n      swap1\n      pop\n        /* \"#utility.yul\":38242:38251   */\n      dup2\n        /* \"#utility.yul\":38236:38240   */\n      dup2\n        /* \"#utility.yul\":38232:38252   */\n      sub\n        /* \"#utility.yul\":38228:38229   */\n      0x00\n        /* \"#utility.yul\":38217:38226   */\n      dup4\n        /* \"#utility.yul\":38213:38230   */\n      add\n        /* \"#utility.yul\":38206:38253   */\n      mstore\n        /* \"#utility.yul\":38270:38401   */\n      tag_700\n        /* \"#utility.yul\":38396:38400   */\n      dup2\n        /* \"#utility.yul\":38270:38401   */\n      tag_369\n      jump\t// in\n    tag_700:\n        /* \"#utility.yul\":38262:38401   */\n      swap1\n      pop\n        /* \"#utility.yul\":37989:38408   */\n      swap2\n      swap1\n      pop\n      jump\t// out\n        /* \"#utility.yul\":38414:38588   */\n    tag_370:\n        /* \"#utility.yul\":38554:38580   */\n      0x43616e64696461746520646f6573206e6f742065786973740000000000000000\n        /* \"#utility.yul\":38550:38551   */\n      0x00\n        /* \"#utility.yul\":38542:38548   */\n      dup3\n        /* \"#utility.yul\":38538:38552   */\n      add\n        /* \"#utility.yul\":38531:38581   */\n      mstore\n        /* \"#utility.yul\":38414:38588   */\n      pop\n      jump\t// out\n        /* \"#utility.yul\":38594:38960   */\n    tag_371:\n        /* \"#utility.yul\":38736:38739   */\n      0x00\n        /* \"#utility.yul\":38757:38824   */\n      tag_703\n        /* \"#utility.yul\":38821:38823   */\n      0x18\n        /* \"#utility.yul\":38816:38819   */\n      dup4\n        /* \"#utility.yul\":38757:38824   */\n      tag_324\n      jump\t// in\n    tag_703:\n        /* \"#utility.yul\":38750:38824   */\n      swap2\n      pop\n        /* \"#utility.yul\":38833:38926   */\n      tag_704\n        /* \"#utility.yul\":38922:38925   */\n      dup3\n        /* \"#utility.yul\":38833:38926   */\n      tag_370\n      jump\t// in\n    tag_704:\n        /* \"#utility.yul\":38951:38953   */\n      0x20\n        /* \"#utility.yul\":38946:38949   */\n      dup3\n        /* \"#utility.yul\":38942:38954   */\n      add\n        /* \"#utility.yul\":38935:38954   */\n      swap1\n      pop\n        /* \"#utility.yul\":38594:38960   */\n      swap2\n      swap1\n      pop\n      jump\t// out\n        /* \"#utility.yul\":38966:39385   */\n    tag_237:\n        /* \"#utility.yul\":39132:39136   */\n      0x00\n        /* \"#utility.yul\":39170:39172   */\n      0x20\n        /* \"#utility.yul\":39159:39168   */\n      dup3\n        /* \"#utility.yul\":39155:39173   */\n      add\n        /* \"#utility.yul\":39147:39173   */\n      swap1\n      pop\n        /* \"#utility.yul\":39219:39228   */\n      dup2\n        /* \"#utility.yul\":39213:39217   */\n      dup2\n        /* \"#utility.yul\":39209:39229   */\n      sub\n        /* \"#utility.yul\":39205:39206   */\n      0x00\n        /* \"#utility.yul\":39194:39203   */\n      dup4\n        /* \"#utility.yul\":39190:39207   */\n      add\n        /* \"#utility.yul\":39183:39230   */\n      mstore\n        /* \"#utility.yul\":39247:39378   */\n      tag_706\n        /* \"#utility.yul\":39373:39377   */\n      dup2\n        /* \"#utility.yul\":39247:39378   */\n      tag_371\n      jump\t// in\n    tag_706:\n        /* \"#utility.yul\":39239:39378   */\n      swap1\n      pop\n        /* \"#utility.yul\":38966:39385   */\n      swap2\n      swap1\n      pop\n      jump\t// out\n        /* \"#utility.yul\":39391:39614   */\n    tag_372:\n        /* \"#utility.yul\":39531:39565   */\n      0x52657175697265642063616e646964617465732061726520696e737566666963\n        /* \"#utility.yul\":39527:39528   */\n      0x00\n        /* \"#utility.yul\":39519:39525   */\n      dup3\n        /* \"#utility.yul\":39515:39529   */\n      add\n        /* \"#utility.yul\":39508:39566   */\n      mstore\n        /* \"#utility.yul\":39600:39606   */\n      0x69656e7400000000000000000000000000000000000000000000000000000000\n        /* \"#utility.yul\":39595:39597   */\n      0x20\n        /* \"#utility.yul\":39587:39593   */\n      dup3\n        /* \"#utility.yul\":39583:39598   */\n      add\n        /* \"#utility.yul\":39576:39607   */\n      mstore\n        /* \"#utility.yul\":39391:39614   */\n      pop\n      jump\t// out\n        /* \"#utility.yul\":39620:39986   */\n    tag_373:\n        /* \"#utility.yul\":39762:39765   */\n      0x00\n        /* \"#utility.yul\":39783:39850   */\n      tag_709\n        /* \"#utility.yul\":39847:39849   */\n      0x24\n        /* \"#utility.yul\":39842:39845   */\n      dup4\n        /* \"#utility.yul\":39783:39850   */\n      tag_324\n      jump\t// in\n    tag_709:\n        /* \"#utility.yul\":39776:39850   */\n      swap2\n      pop\n        /* \"#utility.yul\":39859:39952   */\n      tag_710\n        /* \"#utility.yul\":39948:39951   */\n      dup3\n        /* \"#utility.yul\":39859:39952   */\n      tag_372\n      jump\t// in\n    tag_710:\n        /* \"#utility.yul\":39977:39979   */\n      0x40\n        /* \"#utility.yul\":39972:39975   */\n      dup3\n        /* \"#utility.yul\":39968:39980   */\n      add\n        /* \"#utility.yul\":39961:39980   */\n      swap1\n      pop\n        /* \"#utility.yul\":39620:39986   */\n      swap2\n      swap1\n      pop\n      jump\t// out\n        /* \"#utility.yul\":39992:40411   */\n    tag_244:\n        /* \"#utility.yul\":40158:40162   */\n      0x00\n        /* \"#utility.yul\":40196:40198   */\n      0x20\n        /* \"#utility.yul\":40185:40194   */\n      dup3\n        /* \"#utility.yul\":40181:40199   */\n      add\n        /* \"#utility.yul\":40173:40199   */\n      swap1\n      pop\n        /* \"#utility.yul\":40245:40254   */\n      dup2\n        /* \"#utility.yul\":40239:40243   */\n      dup2\n        /* \"#utility.yul\":40235:40255   */\n      sub\n        /* \"#utility.yul\":40231:40232   */\n      0x00\n        /* \"#utility.yul\":40220:40229   */\n      dup4\n        /* \"#utility.yul\":40216:40233   */\n      add\n        /* \"#utility.yul\":40209:40256   */\n      mstore\n        /* \"#utility.yul\":40273:40404   */\n      tag_712\n        /* \"#utility.yul\":40399:40403   */\n      dup2\n        /* \"#utility.yul\":40273:40404   */\n      tag_373\n      jump\t// in\n    tag_712:\n        /* \"#utility.yul\":40265:40404   */\n      swap1\n      pop\n        /* \"#utility.yul\":39992:40411   */\n      swap2\n      swap1\n      pop\n      jump\t// out\n        /* \"#utility.yul\":40417:40638   */\n    tag_374:\n        /* \"#utility.yul\":40557:40591   */\n      0x43616e64696461746520726567697374726174696f6e20697320676f696e6720\n        /* \"#utility.yul\":40553:40554   */\n      0x00\n        /* \"#utility.yul\":40545:40551   */\n      dup3\n        /* \"#utility.yul\":40541:40555   */\n      add\n        /* \"#utility.yul\":40534:40592   */\n      mstore\n        /* \"#utility.yul\":40626:40630   */\n      0x6f6e000000000000000000000000000000000000000000000000000000000000\n        /* \"#utility.yul\":40621:40623   */\n      0x20\n        /* \"#utility.yul\":40613:40619   */\n      dup3\n        /* \"#utility.yul\":40609:40624   */\n      add\n        /* \"#utility.yul\":40602:40631   */\n      mstore\n        /* \"#utility.yul\":40417:40638   */\n      pop\n      jump\t// out\n        /* \"#utility.yul\":40644:41010   */\n    tag_375:\n        /* \"#utility.yul\":40786:40789   */\n      0x00\n        /* \"#utility.yul\":40807:40874   */\n      tag_715\n        /* \"#utility.yul\":40871:40873   */\n      0x22\n        /* \"#utility.yul\":40866:40869   */\n      dup4\n        /* \"#utility.yul\":40807:40874   */\n      tag_324\n      jump\t// in\n    tag_715:\n        /* \"#utility.yul\":40800:40874   */\n      swap2\n      pop\n        /* \"#utility.yul\":40883:40976   */\n      tag_716\n        /* \"#utility.yul\":40972:40975   */\n      dup3\n        /* \"#utility.yul\":40883:40976   */\n      tag_374\n      jump\t// in\n    tag_716:\n        /* \"#utility.yul\":41001:41003   */\n      0x40\n        /* \"#utility.yul\":40996:40999   */\n      dup3\n        /* \"#utility.yul\":40992:41004   */\n      add\n        /* \"#utility.yul\":40985:41004   */\n      swap1\n      pop\n        /* \"#utility.yul\":40644:41010   */\n      swap2\n      swap1\n      pop\n      jump\t// out\n        /* \"#utility.yul\":41016:41435   */\n    tag_247:\n        /* \"#utility.yul\":41182:41186   */\n      0x00\n        /* \"#utility.yul\":41220:41222   */\n      0x20\n        /* \"#utility.yul\":41209:41218   */\n      dup3\n        /* \"#utility.yul\":41205:41223   */\n      add\n        /* \"#utility.yul\":41197:41223   */\n      swap1\n      pop\n        /* \"#utility.yul\":41269:41278   */\n      dup2\n        /* \"#utility.yul\":41263:41267   */\n      dup2\n        /* \"#utility.yul\":41259:41279   */\n      sub\n        /* \"#utility.yul\":41255:41256   */\n      0x00\n        /* \"#utility.yul\":41244:41253   */\n      dup4\n        /* \"#utility.yul\":41240:41257   */\n      add\n        /* \"#utility.yul\":41233:41280   */\n      mstore\n        /* \"#utility.yul\":41297:41428   */\n      tag_718\n        /* \"#utility.yul\":41423:41427   */\n      dup2\n        /* \"#utility.yul\":41297:41428   */\n      tag_375\n      jump\t// in\n    tag_718:\n        /* \"#utility.yul\":41289:41428   */\n      swap1\n      pop\n        /* \"#utility.yul\":41016:41435   */\n      swap2\n      swap1\n      pop\n      jump\t// out\n        /* \"#utility.yul\":41441:41621   */\n    tag_376:\n        /* \"#utility.yul\":41581:41613   */\n      0x766f74657220726567697374726174696f6e20697320676f696e67206f6e0000\n        /* \"#utility.yul\":41577:41578   */\n      0x00\n        /* \"#utility.yul\":41569:41575   */\n      dup3\n        /* \"#utility.yul\":41565:41579   */\n      add\n        /* \"#utility.yul\":41558:41614   */\n      mstore\n        /* \"#utility.yul\":41441:41621   */\n      pop\n      jump\t// out\n        /* \"#utility.yul\":41627:41993   */\n    tag_377:\n        /* \"#utility.yul\":41769:41772   */\n      0x00\n        /* \"#utility.yul\":41790:41857   */\n      tag_721\n        /* \"#utility.yul\":41854:41856   */\n      0x1e\n        /* \"#utility.yul\":41849:41852   */\n      dup4\n        /* \"#utility.yul\":41790:41857   */\n      tag_324\n      jump\t// in\n    tag_721:\n        /* \"#utility.yul\":41783:41857   */\n      swap2\n      pop\n        /* \"#utility.yul\":41866:41959   */\n      tag_722\n        /* \"#utility.yul\":41955:41958   */\n      dup3\n        /* \"#utility.yul\":41866:41959   */\n      tag_376\n      jump\t// in\n    tag_722:\n        /* \"#utility.yul\":41984:41986   */\n      0x20\n        /* \"#utility.yul\":41979:41982   */\n      dup3\n        /* \"#utility.yul\":41975:41987   */\n      add\n        /* \"#utility.yul\":41968:41987   */\n      swap1\n      pop\n        /* \"#utility.yul\":41627:41993   */\n      swap2\n      swap1\n      pop\n      jump\t// out\n        /* \"#utility.yul\":41999:42418   */\n    tag_250:\n        /* \"#utility.yul\":42165:42169   */\n      0x00\n        /* \"#utility.yul\":42203:42205   */\n      0x20\n        /* \"#utility.yul\":42192:42201   */\n      dup3\n        /* \"#utility.yul\":42188:42206   */\n      add\n        /* \"#utility.yul\":42180:42206   */\n      swap1\n      pop\n        /* \"#utility.yul\":42252:42261   */\n      dup2\n        /* \"#utility.yul\":42246:42250   */\n      dup2\n        /* \"#utility.yul\":42242:42262   */\n      sub\n        /* \"#utility.yul\":42238:42239   */\n      0x00\n        /* \"#utility.yul\":42227:42236   */\n      dup4\n        /* \"#utility.yul\":42223:42240   */\n      add\n        /* \"#utility.yul\":42216:42263   */\n      mstore\n        /* \"#utility.yul\":42280:42411   */\n      tag_724\n        /* \"#utility.yul\":42406:42410   */\n      dup2\n        /* \"#utility.yul\":42280:42411   */\n      tag_377\n      jump\t// in\n    tag_724:\n        /* \"#utility.yul\":42272:42411   */\n      swap1\n      pop\n        /* \"#utility.yul\":41999:42418   */\n      swap2\n      swap1\n      pop\n      jump\t// out\n\n    auxdata: 0xa2646970667358221220af1399001dfa9dd53824b385cd1e20e0ddcf83634102ca4be094c1693380b88964736f6c63430008120033\n}\n",
				"bytecode": {
					"linkReferences": {},
					"object": "60806040526000600260006101000a81548160ff0219169083151502179055506000600560006101000a81548160ff0219169083151502179055506000600860006101000a81548160ff0219169083151502179055506001600d556001600e556000600f60006101000a81548160ff0219169083151502179055503480156200008757600080fd5b5033600b60006101000a81548173ffffffffffffffffffffffffffffffffffffffff021916908373ffffffffffffffffffffffffffffffffffffffff1602179055506040518060c001604052806040518060400160405280600281526020017f4543000000000000000000000000000000000000000000000000000000000000815250815260200160148152602001600d5481526020016040518060400160405280600481526020017f4d616c6500000000000000000000000000000000000000000000000000000000815250815260200160008152602001600b60009054906101000a900473ffffffffffffffffffffffffffffffffffffffff1673ffffffffffffffffffffffffffffffffffffffff16815250600a6000600d5481526020019081526020016000206000820151816000019081620001c89190620004e3565b5060208201518160010155604082015181600201556060820151816003019081620001f49190620004e3565b506080820151816004015560a08201518160050160006101000a81548173ffffffffffffffffffffffffffffffffffffffff021916908373ffffffffffffffffffffffffffffffffffffffff160217905550905050600d60008154809291906200025e90620005f9565b919050555062000646565b600081519050919050565b7f4e487b7100000000000000000000000000000000000000000000000000000000600052604160045260246000fd5b7f4e487b7100000000000000000000000000000000000000000000000000000000600052602260045260246000fd5b60006002820490506001821680620002eb57607f821691505b602082108103620003015762000300620002a3565b5b50919050565b60008190508160005260206000209050919050565b60006020601f8301049050919050565b600082821b905092915050565b6000600883026200036b7fffffffffffffffffffffffffffffffffffffffffffffffffffffffffffffffff826200032c565b6200037786836200032c565b95508019841693508086168417925050509392505050565b6000819050919050565b6000819050919050565b6000620003c4620003be620003b8846200038f565b62000399565b6200038f565b9050919050565b6000819050919050565b620003e083620003a3565b620003f8620003ef82620003cb565b84845462000339565b825550505050565b600090565b6200040f62000400565b6200041c818484620003d5565b505050565b5b8181101562000444576200043860008262000405565b60018101905062000422565b5050565b601f82111562000493576200045d8162000307565b62000468846200031c565b8101602085101562000478578190505b6200049062000487856200031c565b83018262000421565b50505b505050565b600082821c905092915050565b6000620004b86000198460080262000498565b1980831691505092915050565b6000620004d38383620004a5565b9150826002028217905092915050565b620004ee8262000269565b67ffffffffffffffff8111156200050a576200050962000274565b5b620005168254620002d2565b6200052382828562000448565b600060209050601f8311600181146200055b576000841562000546578287015190505b620005528582620004c5565b865550620005c2565b601f1984166200056b8662000307565b60005b8281101562000595578489015182556001820191506020850194506020810190506200056e565b86831015620005b55784890151620005b1601f891682620004a5565b8355505b6001600288020188555050505b505050505050565b7f4e487b7100000000000000000000000000000000000000000000000000000000600052601160045260246000fd5b600062000606826200038f565b91507fffffffffffffffffffffffffffffffffffffffffffffffffffffffffffffffff82036200063b576200063a620005ca565b5b600182019050919050565b61323380620006566000396000f3fe608060405234801561001057600080fd5b50600436106100b45760003560e01c80636d2bc1eb116100715780636d2bc1eb146101675780637da0e15e1461019d578063b384abef146101d2578063c0636b91146101ee578063dfbf53ae1461020a578063f83f40db14610228576100b4565b806324089918146100b957806333a99e04146100d7578063498ea441146100f55780635042746c146101135780635d74b0231461012f57806369042bec1461014b575b600080fd5b6100c1610244565b6040516100ce9190611f4e565b60405180910390f35b6100df6104b8565b6040516100ec9190611f7f565b60405180910390f35b6100fd6106ee565b60405161010a9190612106565b60405180910390f35b61012d60048036038101906101289190612168565b6109f4565b005b610149600480360381019061014491906122dd565b610b1f565b005b610165600480360381019061016091906123c8565b610d72565b005b610181600480360381019061017c9190612488565b611202565b604051610194979695949392919061250e565b60405180910390f35b6101b760048036038101906101b29190612488565b6113fc565b6040516101c996959493929190612592565b60405180910390f35b6101ec60048036038101906101e79190612168565b611568565b005b61020860048036038101906102039190612168565b611790565b005b6102126118d7565b60405161021f9190611f7f565b60405180910390f35b610242600480360381019061023d9190612168565b6118fd565b005b606060006001600d546102579190612630565b67ffffffffffffffff8111156102705761026f6121b2565b5b6040519080825280602002602001820160405280156102a957816020015b610296611c73565b81526020019060019003908161028e5790505b5090506000600190505b600d548110156104b057600a60008281526020019081526020016000206040518060c00160405290816000820180546102eb90612693565b80601f016020809104026020016040519081016040528092919081815260200182805461031790612693565b80156103645780601f1061033957610100808354040283529160200191610364565b820191906000526020600020905b81548152906001019060200180831161034757829003601f168201915b50505050508152602001600182015481526020016002820154815260200160038201805461039190612693565b80601f01602080910402602001604051908101604052809291908181526020018280546103bd90612693565b801561040a5780601f106103df5761010080835404028352916020019161040a565b820191906000526020600020905b8154815290600101906020018083116103ed57829003601f168201915b50505050508152602001600482015481526020016005820160009054906101000a900473ffffffffffffffffffffffffffffffffffffffff1673ffffffffffffffffffffffffffffffffffffffff1673ffffffffffffffffffffffffffffffffffffffff1681525050826001836104819190612630565b81518110610492576104916126c4565b5b602002602001018190525080806104a8906126f3565b9150506102b3565b508091505090565b6000600b60009054906101000a900473ffffffffffffffffffffffffffffffffffffffff1673ffffffffffffffffffffffffffffffffffffffff163373ffffffffffffffffffffffffffffffffffffffff161461054a576040517f08c379a0000000000000000000000000000000000000000000000000000000008152600401610541906127ad565b60405180910390fd5b6001544211801561055e5750600060015414155b61059d576040517f08c379a00000000000000000000000000000000000000000000000000000000081526004016105949061283f565b60405180910390fd5b600754421180156105b15750600060075414155b6105f0576040517f08c379a00000000000000000000000000000000000000000000000000000000081526004016105e7906128d1565b60405180910390fd5b600080600190505b600e548110156106c45781600960008381526020019081526020016000206006015411156106b157600960008281526020019081526020016000206006015491506009600082815260200190815260200160002060050160009054906101000a900473ffffffffffffffffffffffffffffffffffffffff16600c60006101000a81548173ffffffffffffffffffffffffffffffffffffffff021916908373ffffffffffffffffffffffffffffffffffffffff1602179055505b80806106bc906126f3565b9150506105f8565b50600c60009054906101000a900473ffffffffffffffffffffffffffffffffffffffff1691505090565b606060006001600e546107019190612630565b67ffffffffffffffff81111561071a576107196121b2565b5b60405190808252806020026020018201604052801561075357816020015b610740611cbf565b8152602001906001900390816107385790505b5090506000600190505b600e548110156109ec57600960008281526020019081526020016000206040518060e001604052908160008201805461079590612693565b80601f01602080910402602001604051908101604052809291908181526020018280546107c190612693565b801561080e5780601f106107e35761010080835404028352916020019161080e565b820191906000526020600020905b8154815290600101906020018083116107f157829003601f168201915b505050505081526020016001820154815260200160028201805461083190612693565b80601f016020809104026020016040519081016040528092919081815260200182805461085d90612693565b80156108aa5780601f1061087f576101008083540402835291602001916108aa565b820191906000526020600020905b81548152906001019060200180831161088d57829003601f168201915b50505050508152602001600382015481526020016004820180546108cd90612693565b80601f01602080910402602001604051908101604052809291908181526020018280546108f990612693565b80156109465780601f1061091b57610100808354040283529160200191610946565b820191906000526020600020905b81548152906001019060200180831161092957829003601f168201915b505050505081526020016005820160009054906101000a900473ffffffffffffffffffffffffffffffffffffffff1673ffffffffffffffffffffffffffffffffffffffff1673ffffffffffffffffffffffffffffffffffffffff168152602001600682015481525050826001836109bd9190612630565b815181106109ce576109cd6126c4565b5b602002602001018190525080806109e4906126f3565b91505061075d565b508091505090565b600b60009054906101000a900473ffffffffffffffffffffffffffffffffffffffff1673ffffffffffffffffffffffffffffffffffffffff163373ffffffffffffffffffffffffffffffffffffffff1614610a84576040517f08c379a0000000000000000000000000000000000000000000000000000000008152600401610a7b906127ad565b60405180910390fd5b60001515600860009054906101000a900460ff16151514610ada576040517f08c379a0000000000000000000000000000000000000000000000000000000008152600401610ad19061293d565b60405180910390fd5b6001600560006101000a81548160ff0219169083151502179055508142610b01919061295d565b60038190555080600354610b15919061295d565b6004819055505050565b610b27611a28565b60011515600560009054906101000a900460ff16151514610b7d576040517f08c379a0000000000000000000000000000000000000000000000000000000008152600401610b74906129dd565b60405180910390fd5b60001515600860009054906101000a900460ff16151514610bd3576040517f08c379a0000000000000000000000000000000000000000000000000000000008152600401610bca9061293d565b60405180910390fd5b6012821015610c17576040517f08c379a0000000000000000000000000000000000000000000000000000000008152600401610c0e90612a49565b60405180910390fd5b60011515610c2433611a50565b151514610c66576040517f08c379a0000000000000000000000000000000000000000000000000000000008152600401610c5d90612ab5565b60405180910390fd5b6040518060c00160405280848152602001838152602001600d548152602001828152602001600081526020013373ffffffffffffffffffffffffffffffffffffffff16815250600a6000600d5481526020019081526020016000206000820151816000019081610cd69190612c81565b5060208201518160010155604082015181600201556060820151816003019081610d009190612c81565b506080820151816004015560a08201518160050160006101000a81548173ffffffffffffffffffffffffffffffffffffffff021916908373ffffffffffffffffffffffffffffffffffffffff160217905550905050600d6000815480929190610d68906126f3565b9190505550505050565b610d7a611ba8565b60011515600260009054906101000a900460ff16151514610dd0576040517f08c379a0000000000000000000000000000000000000000000000000000000008152600401610dc790612d9f565b60405180910390fd5b60001515600860009054906101000a900460ff16151514610e26576040517f08c379a0000000000000000000000000000000000000000000000000000000008152600401610e1d9061293d565b60405180910390fd5b600b60009054906101000a900473ffffffffffffffffffffffffffffffffffffffff1673ffffffffffffffffffffffffffffffffffffffff163373ffffffffffffffffffffffffffffffffffffffff1603610eb6576040517f08c379a0000000000000000000000000000000000000000000000000000000008152600401610ead90612e0b565b60405180910390fd5b6012831015610efa576040517f08c379a0000000000000000000000000000000000000000000000000000000008152600401610ef190612a49565b60405180910390fd5b60011515610f0733611bd0565b151514610f49576040517f08c379a0000000000000000000000000000000000000000000000000000000008152600401610f4090612ab5565b60405180910390fd5b6040518060e0016040528086868080601f016020809104026020016040519081016040528093929190818152602001838380828437600081840152601f19601f820116905080830192505050505050508152602001848152602001838152602001600e5481526020018281526020013373ffffffffffffffffffffffffffffffffffffffff168152602001600081525060096000600e54815260200190815260200160002060008201518160000190816110039190612c81565b506020820151816001015560408201518160020190816110239190612c81565b506060820151816003015560808201518160040190816110439190612c81565b5060a08201518160050160006101000a81548173ffffffffffffffffffffffffffffffffffffffff021916908373ffffffffffffffffffffffffffffffffffffffff16021790555060c08201518160060155905050600e60008154809291906110ab906126f3565b91905055506040518060c0016040528086868080601f016020809104026020016040519081016040528093929190818152602001838380828437600081840152601f19601f820116905080830192505050505050508152602001848152602001600d548152602001828152602001600081526020013373ffffffffffffffffffffffffffffffffffffffff16815250600a6000600d54815260200190815260200160002060008201518160000190816111649190612c81565b506020820151816001015560408201518160020155606082015181600301908161118e9190612c81565b506080820151816004015560a08201518160050160006101000a81548173ffffffffffffffffffffffffffffffffffffffff021916908373ffffffffffffffffffffffffffffffffffffffff160217905550905050600d60008154809291906111f6906126f3565b91905055505050505050565b600960205280600052604060002060009150905080600001805461122590612693565b80601f016020809104026020016040519081016040528092919081815260200182805461125190612693565b801561129e5780601f106112735761010080835404028352916020019161129e565b820191906000526020600020905b81548152906001019060200180831161128157829003601f168201915b5050505050908060010154908060020180546112b990612693565b80601f01602080910402602001604051908101604052809291908181526020018280546112e590612693565b80156113325780601f1061130757610100808354040283529160200191611332565b820191906000526020600020905b81548152906001019060200180831161131557829003601f168201915b50505050509080600301549080600401805461134d90612693565b80601f016020809104026020016040519081016040528092919081815260200182805461137990612693565b80156113c65780601f1061139b576101008083540402835291602001916113c6565b820191906000526020600020905b8154815290600101906020018083116113a957829003601f168201915b5050505050908060050160009054906101000a900473ffffffffffffffffffffffffffffffffffffffff16908060060154905087565b600a60205280600052604060002060009150905080600001805461141f90612693565b80601f016020809104026020016040519081016040528092919081815260200182805461144b90612693565b80156114985780601f1061146d57610100808354040283529160200191611498565b820191906000526020600020905b81548152906001019060200180831161147b57829003601f168201915b5050505050908060010154908060020154908060030180546114b990612693565b80601f01602080910402602001604051908101604052809291908181526020018280546114e590612693565b80156115325780601f1061150757610100808354040283529160200191611532565b820191906000526020600020905b81548152906001019060200180831161151557829003601f168201915b5050505050908060040154908060050160009054906101000a900473ffffffffffffffffffffffffffffffffffffffff16905086565b6000600a600084815260200190815260200160002060040154146115c1576040517f08c379a00000000000000000000000000000000000000000000000000000000081526004016115b890612e77565b60405180910390fd5b3373ffffffffffffffffffffffffffffffffffffffff16600a600084815260200190815260200160002060050160009054906101000a900473ffffffffffffffffffffffffffffffffffffffff1673ffffffffffffffffffffffffffffffffffffffff1614611665576040517f08c379a000000000000000000000000000000000000000000000000000000000815260040161165c90612ee3565b60405180910390fd5b6003600e5410156116ab576040517f08c379a00000000000000000000000000000000000000000000000000000000081526004016116a290612f75565b60405180910390fd5b6000600654036116f0576040517f08c379a00000000000000000000000000000000000000000000000000000000081526004016116e790612fe1565b60405180910390fd5b600e548110611734576040517f08c379a000000000000000000000000000000000000000000000000000000000815260040161172b9061304d565b60405180910390fd5b80600a60008481526020019081526020016000206004018190555060016009600083815260200190815260200160002060060154611772919061295d565b60096000838152602001908152602001600020600601819055505050565b611798611ba8565b6117a0611a28565b6003600e5410156117e6576040517f08c379a00000000000000000000000000000000000000000000000000000000081526004016117dd906130df565b60405180910390fd5b60001515600260009054906101000a900460ff1615151461183c576040517f08c379a000000000000000000000000000000000000000000000000000000000815260040161183390613171565b60405180910390fd5b60001515600560009054906101000a900460ff16151514611892576040517f08c379a0000000000000000000000000000000000000000000000000000000008152600401611889906131dd565b60405180910390fd5b6001600860006101000a81548160ff02191690831515021790555081426118b9919061295d565b600681905550806006546118cd919061295d565b6007819055505050565b600c60009054906101000a900473ffffffffffffffffffffffffffffffffffffffff1681565b600b60009054906101000a900473ffffffffffffffffffffffffffffffffffffffff1673ffffffffffffffffffffffffffffffffffffffff163373ffffffffffffffffffffffffffffffffffffffff161461198d576040517f08c379a0000000000000000000000000000000000000000000000000000000008152600401611984906127ad565b60405180910390fd5b60001515600860009054906101000a900460ff161515146119e3576040517f08c379a00000000000000000000000000000000000000000000000000000000081526004016119da9061293d565b60405180910390fd5b6001600260006101000a81548160ff0219169083151502179055508142611a0a919061295d565b60008190555080600054611a1e919061295d565b6001819055505050565b426004541015611a4e576000600560006101000a81548160ff0219169083151502179055505b565b6000611a5a611a28565b60011515600560009054906101000a900460ff16151514611ab0576040517f08c379a0000000000000000000000000000000000000000000000000000000008152600401611aa7906129dd565b60405180910390fd5b60001515600860009054906101000a900460ff16151514611b06576040517f08c379a0000000000000000000000000000000000000000000000000000000008152600401611afd9061293d565b60405180910390fd5b6000600190505b600d54811015611b9d578273ffffffffffffffffffffffffffffffffffffffff16600a600083815260200190815260200160002060050160009054906101000a900473ffffffffffffffffffffffffffffffffffffffff1673ffffffffffffffffffffffffffffffffffffffff1603611b8a576000915050611ba3565b8080611b95906126f3565b915050611b0d565b50600190505b919050565b426001541015611bce576000600260006101000a81548160ff0219169083151502179055505b565b600080600190505b600e54811015611c68578273ffffffffffffffffffffffffffffffffffffffff166009600083815260200190815260200160002060050160009054906101000a900473ffffffffffffffffffffffffffffffffffffffff1673ffffffffffffffffffffffffffffffffffffffff1603611c55576000915050611c6e565b8080611c60906126f3565b915050611bd8565b50600190505b919050565b6040518060c001604052806060815260200160008152602001600081526020016060815260200160008152602001600073ffffffffffffffffffffffffffffffffffffffff1681525090565b6040518060e001604052806060815260200160008152602001606081526020016000815260200160608152602001600073ffffffffffffffffffffffffffffffffffffffff168152602001600081525090565b600081519050919050565b600082825260208201905092915050565b6000819050602082019050919050565b600081519050919050565b600082825260208201905092915050565b60005b83811015611d78578082015181840152602081019050611d5d565b60008484015250505050565b6000601f19601f8301169050919050565b6000611da082611d3e565b611daa8185611d49565b9350611dba818560208601611d5a565b611dc381611d84565b840191505092915050565b6000819050919050565b611de181611dce565b82525050565b600073ffffffffffffffffffffffffffffffffffffffff82169050919050565b6000611e1282611de7565b9050919050565b611e2281611e07565b82525050565b600060c0830160008301518482036000860152611e458282611d95565b9150506020830151611e5a6020860182611dd8565b506040830151611e6d6040860182611dd8565b5060608301518482036060860152611e858282611d95565b9150506080830151611e9a6080860182611dd8565b5060a0830151611ead60a0860182611e19565b508091505092915050565b6000611ec48383611e28565b905092915050565b6000602082019050919050565b6000611ee482611d12565b611eee8185611d1d565b935083602082028501611f0085611d2e565b8060005b85811015611f3c5784840389528151611f1d8582611eb8565b9450611f2883611ecc565b925060208a01995050600181019050611f04565b50829750879550505050505092915050565b60006020820190508181036000830152611f688184611ed9565b905092915050565b611f7981611e07565b82525050565b6000602082019050611f946000830184611f70565b92915050565b600081519050919050565b600082825260208201905092915050565b6000819050602082019050919050565b600060e0830160008301518482036000860152611fe38282611d95565b9150506020830151611ff86020860182611dd8565b50604083015184820360408601526120108282611d95565b91505060608301516120256060860182611dd8565b506080830151848203608086015261203d8282611d95565b91505060a083015161205260a0860182611e19565b5060c083015161206560c0860182611dd8565b508091505092915050565b600061207c8383611fc6565b905092915050565b6000602082019050919050565b600061209c82611f9a565b6120a68185611fa5565b9350836020820285016120b885611fb6565b8060005b858110156120f457848403895281516120d58582612070565b94506120e083612084565b925060208a019950506001810190506120bc565b50829750879550505050505092915050565b600060208201905081810360008301526121208184612091565b905092915050565b6000604051905090565b600080fd5b600080fd5b61214581611dce565b811461215057600080fd5b50565b6000813590506121628161213c565b92915050565b6000806040838503121561217f5761217e612132565b5b600061218d85828601612153565b925050602061219e85828601612153565b9150509250929050565b600080fd5b600080fd5b7f4e487b7100000000000000000000000000000000000000000000000000000000600052604160045260246000fd5b6121ea82611d84565b810181811067ffffffffffffffff82111715612209576122086121b2565b5b80604052505050565b600061221c612128565b905061222882826121e1565b919050565b600067ffffffffffffffff821115612248576122476121b2565b5b61225182611d84565b9050602081019050919050565b82818337600083830152505050565b600061228061227b8461222d565b612212565b90508281526020810184848401111561229c5761229b6121ad565b5b6122a784828561225e565b509392505050565b600082601f8301126122c4576122c36121a8565b5b81356122d484826020860161226d565b91505092915050565b6000806000606084860312156122f6576122f5612132565b5b600084013567ffffffffffffffff81111561231457612313612137565b5b612320868287016122af565b935050602061233186828701612153565b925050604084013567ffffffffffffffff81111561235257612351612137565b5b61235e868287016122af565b9150509250925092565b600080fd5b600080fd5b60008083601f840112612388576123876121a8565b5b8235905067ffffffffffffffff8111156123a5576123a4612368565b5b6020830191508360018202830111156123c1576123c061236d565b5b9250929050565b6000806000806000608086880312156123e4576123e3612132565b5b600086013567ffffffffffffffff81111561240257612401612137565b5b61240e88828901612372565b9550955050602061242188828901612153565b935050604086013567ffffffffffffffff81111561244257612441612137565b5b61244e888289016122af565b925050606086013567ffffffffffffffff81111561246f5761246e612137565b5b61247b888289016122af565b9150509295509295909350565b60006020828403121561249e5761249d612132565b5b60006124ac84828501612153565b91505092915050565b600082825260208201905092915050565b60006124d182611d3e565b6124db81856124b5565b93506124eb818560208601611d5a565b6124f481611d84565b840191505092915050565b61250881611dce565b82525050565b600060e0820190508181036000830152612528818a6124c6565b905061253760208301896124ff565b818103604083015261254981886124c6565b905061255860608301876124ff565b818103608083015261256a81866124c6565b905061257960a0830185611f70565b61258660c08301846124ff565b98975050505050505050565b600060c08201905081810360008301526125ac81896124c6565b90506125bb60208301886124ff565b6125c860408301876124ff565b81810360608301526125da81866124c6565b90506125e960808301856124ff565b6125f660a0830184611f70565b979650505050505050565b7f4e487b7100000000000000000000000000000000000000000000000000000000600052601160045260246000fd5b600061263b82611dce565b915061264683611dce565b925082820390508181111561265e5761265d612601565b5b92915050565b7f4e487b7100000000000000000000000000000000000000000000000000000000600052602260045260246000fd5b600060028204905060018216806126ab57607f821691505b6020821081036126be576126bd612664565b5b50919050565b7f4e487b7100000000000000000000000000000000000000000000000000000000600052603260045260246000fd5b60006126fe82611dce565b91507fffffffffffffffffffffffffffffffffffffffffffffffffffffffffffffffff82036127305761272f612601565b5b600182019050919050565b7f596f7520617265206e6f742066726f6d20656c656374696f6e20636f6d69737360008201527f696f6e0000000000000000000000000000000000000000000000000000000000602082015250565b60006127976023836124b5565b91506127a28261273b565b604082019050919050565b600060208201905081810360008301526127c68161278a565b9050919050565b7f43616e64696461746520726567697374726174696f6e2070686173652069732060008201527f6e6f7420636c6f73656400000000000000000000000000000000000000000000602082015250565b6000612829602a836124b5565b9150612834826127cd565b604082019050919050565b600060208201905081810360008301526128588161281c565b9050919050565b7f566f74696e6720697320696e20636f6e64756374696f6e20706861736520697360008201527f206e6f7420636c6f736564000000000000000000000000000000000000000000602082015250565b60006128bb602b836124b5565b91506128c68261285f565b604082019050919050565b600060208201905081810360008301526128ea816128ae565b9050919050565b7f566f74696e67206973206f6e676f696e67000000000000000000000000000000600082015250565b60006129276011836124b5565b9150612932826128f1565b602082019050919050565b600060208201905081810360008301526129568161291a565b9050919050565b600061296882611dce565b915061297383611dce565b925082820190508082111561298b5761298a612601565b5b92915050565b7f566f74657220726567697374726174696f6e20697320636c6f73656400000000600082015250565b60006129c7601c836124b5565b91506129d282612991565b602082019050919050565b600060208201905081810360008301526129f6816129ba565b9050919050565b7f596f75612061726520756e646572206167650000000000000000000000000000600082015250565b6000612a336012836124b5565b9150612a3e826129fd565b602082019050919050565b60006020820190508181036000830152612a6281612a26565b9050919050565b7f416c726561647920726567697374657264000000000000000000000000000000600082015250565b6000612a9f6011836124b5565b9150612aaa82612a69565b602082019050919050565b60006020820190508181036000830152612ace81612a92565b9050919050565b60008190508160005260206000209050919050565b60006020601f8301049050919050565b600082821b905092915050565b600060088302612b377fffffffffffffffffffffffffffffffffffffffffffffffffffffffffffffffff82612afa565b612b418683612afa565b95508019841693508086168417925050509392505050565b6000819050919050565b6000612b7e612b79612b7484611dce565b612b59565b611dce565b9050919050565b6000819050919050565b612b9883612b63565b612bac612ba482612b85565b848454612b07565b825550505050565b600090565b612bc1612bb4565b612bcc818484612b8f565b505050565b5b81811015612bf057612be5600082612bb9565b600181019050612bd2565b5050565b601f821115612c3557612c0681612ad5565b612c0f84612aea565b81016020851015612c1e578190505b612c32612c2a85612aea565b830182612bd1565b50505b505050565b600082821c905092915050565b6000612c5860001984600802612c3a565b1980831691505092915050565b6000612c718383612c47565b9150826002028217905092915050565b612c8a82611d3e565b67ffffffffffffffff811115612ca357612ca26121b2565b5b612cad8254612693565b612cb8828285612bf4565b600060209050601f831160018114612ceb5760008415612cd9578287015190505b612ce38582612c65565b865550612d4b565b601f198416612cf986612ad5565b60005b82811015612d2157848901518255600182019150602085019450602081019050612cfc565b86831015612d3e5784890151612d3a601f891682612c47565b8355505b6001600288020188555050505b505050505050565b7f43616e64696461746520526567697374726174696f6e20697320636c6f736564600082015250565b6000612d896020836124b5565b9150612d9482612d53565b602082019050919050565b60006020820190508181036000830152612db881612d7c565b9050919050565b7f596f75206172652066726f6d20656c656374696f6e20636f6d697373696f6e00600082015250565b6000612df5601f836124b5565b9150612e0082612dbf565b602082019050919050565b60006020820190508181036000830152612e2481612de8565b9050919050565b7f596f75206861766520766f746564000000000000000000000000000000000000600082015250565b6000612e61600e836124b5565b9150612e6c82612e2b565b602082019050919050565b60006020820190508181036000830152612e9081612e54565b9050919050565b7f596f752063616e7420766f74652066726f6d206f746865727320626568616c66600082015250565b6000612ecd6020836124b5565b9150612ed882612e97565b602082019050919050565b60006020820190508181036000830152612efc81612ec0565b9050919050565b7f43616e6469646174657320617265206e6f74207265676973746572656420636f60008201527f6d706c6574656c79000000000000000000000000000000000000000000000000602082015250565b6000612f5f6028836124b5565b9150612f6a82612f03565b604082019050919050565b60006020820190508181036000830152612f8e81612f52565b9050919050565b7f566f74696e67206973206e6f7420737461727465640000000000000000000000600082015250565b6000612fcb6015836124b5565b9150612fd682612f95565b602082019050919050565b60006020820190508181036000830152612ffa81612fbe565b9050919050565b7f43616e64696461746520646f6573206e6f742065786973740000000000000000600082015250565b60006130376018836124b5565b915061304282613001565b602082019050919050565b600060208201905081810360008301526130668161302a565b9050919050565b7f52657175697265642063616e646964617465732061726520696e73756666696360008201527f69656e7400000000000000000000000000000000000000000000000000000000602082015250565b60006130c96024836124b5565b91506130d48261306d565b604082019050919050565b600060208201905081810360008301526130f8816130bc565b9050919050565b7f43616e64696461746520726567697374726174696f6e20697320676f696e672060008201527f6f6e000000000000000000000000000000000000000000000000000000000000602082015250565b600061315b6022836124b5565b9150613166826130ff565b604082019050919050565b6000602082019050818103600083015261318a8161314e565b9050919050565b7f766f74657220726567697374726174696f6e20697320676f696e67206f6e0000600082015250565b60006131c7601e836124b5565b91506131d282613191565b602082019050919050565b600060208201905081810360008301526131f6816131ba565b905091905056fea2646970667358221220af1399001dfa9dd53824b385cd1e20e0ddcf83634102ca4be094c1693380b88964736f6c63430008120033",
					"opcodes": "PUSH1 0x80 PUSH1 0x40 MSTORE PUSH1 0x0 PUSH1 0x2 PUSH1 0x0 PUSH2 0x100 EXP DUP2 SLOAD DUP2 PUSH1 0xFF MUL NOT AND SWAP1 DUP4 ISZERO ISZERO MUL OR SWAP1 SSTORE POP PUSH1 0x0 PUSH1 0x5 PUSH1 0x0 PUSH2 0x100 EXP DUP2 SLOAD DUP2 PUSH1 0xFF MUL NOT AND SWAP1 DUP4 ISZERO ISZERO MUL OR SWAP1 SSTORE POP PUSH1 0x0 PUSH1 0x8 PUSH1 0x0 PUSH2 0x100 EXP DUP2 SLOAD DUP2 PUSH1 0xFF MUL NOT AND SWAP1 DUP4 ISZERO ISZERO MUL OR SWAP1 SSTORE POP PUSH1 0x1 PUSH1 0xD SSTORE PUSH1 0x1 PUSH1 0xE SSTORE PUSH1 0x0 PUSH1 0xF PUSH1 0x0 PUSH2 0x100 EXP DUP2 SLOAD DUP2 PUSH1 0xFF MUL NOT AND SWAP1 DUP4 ISZERO ISZERO MUL OR SWAP1 SSTORE POP CALLVALUE DUP1 ISZERO PUSH3 0x87 JUMPI PUSH1 0x0 DUP1 REVERT JUMPDEST POP CALLER PUSH1 0xB PUSH1 0x0 PUSH2 0x100 EXP DUP2 SLOAD DUP2 PUSH20 0xFFFFFFFFFFFFFFFFFFFFFFFFFFFFFFFFFFFFFFFF MUL NOT AND SWAP1 DUP4 PUSH20 0xFFFFFFFFFFFFFFFFFFFFFFFFFFFFFFFFFFFFFFFF AND MUL OR SWAP1 SSTORE POP PUSH1 0x40 MLOAD DUP1 PUSH1 0xC0 ADD PUSH1 0x40 MSTORE DUP1 PUSH1 0x40 MLOAD DUP1 PUSH1 0x40 ADD PUSH1 0x40 MSTORE DUP1 PUSH1 0x2 DUP2 MSTORE PUSH1 0x20 ADD PUSH32 0x4543000000000000000000000000000000000000000000000000000000000000 DUP2 MSTORE POP DUP2 MSTORE PUSH1 0x20 ADD PUSH1 0x14 DUP2 MSTORE PUSH1 0x20 ADD PUSH1 0xD SLOAD DUP2 MSTORE PUSH1 0x20 ADD PUSH1 0x40 MLOAD DUP1 PUSH1 0x40 ADD PUSH1 0x40 MSTORE DUP1 PUSH1 0x4 DUP2 MSTORE PUSH1 0x20 ADD PUSH32 0x4D616C6500000000000000000000000000000000000000000000000000000000 DUP2 MSTORE POP DUP2 MSTORE PUSH1 0x20 ADD PUSH1 0x0 DUP2 MSTORE PUSH1 0x20 ADD PUSH1 0xB PUSH1 0x0 SWAP1 SLOAD SWAP1 PUSH2 0x100 EXP SWAP1 DIV PUSH20 0xFFFFFFFFFFFFFFFFFFFFFFFFFFFFFFFFFFFFFFFF AND PUSH20 0xFFFFFFFFFFFFFFFFFFFFFFFFFFFFFFFFFFFFFFFF AND DUP2 MSTORE POP PUSH1 0xA PUSH1 0x0 PUSH1 0xD SLOAD DUP2 MSTORE PUSH1 0x20 ADD SWAP1 DUP2 MSTORE PUSH1 0x20 ADD PUSH1 0x0 KECCAK256 PUSH1 0x0 DUP3 ADD MLOAD DUP2 PUSH1 0x0 ADD SWAP1 DUP2 PUSH3 0x1C8 SWAP2 SWAP1 PUSH3 0x4E3 JUMP JUMPDEST POP PUSH1 0x20 DUP3 ADD MLOAD DUP2 PUSH1 0x1 ADD SSTORE PUSH1 0x40 DUP3 ADD MLOAD DUP2 PUSH1 0x2 ADD SSTORE PUSH1 0x60 DUP3 ADD MLOAD DUP2 PUSH1 0x3 ADD SWAP1 DUP2 PUSH3 0x1F4 SWAP2 SWAP1 PUSH3 0x4E3 JUMP JUMPDEST POP PUSH1 0x80 DUP3 ADD MLOAD DUP2 PUSH1 0x4 ADD SSTORE PUSH1 0xA0 DUP3 ADD MLOAD DUP2 PUSH1 0x5 ADD PUSH1 0x0 PUSH2 0x100 EXP DUP2 SLOAD DUP2 PUSH20 0xFFFFFFFFFFFFFFFFFFFFFFFFFFFFFFFFFFFFFFFF MUL NOT AND SWAP1 DUP4 PUSH20 0xFFFFFFFFFFFFFFFFFFFFFFFFFFFFFFFFFFFFFFFF AND MUL OR SWAP1 SSTORE POP SWAP1 POP POP PUSH1 0xD PUSH1 0x0 DUP2 SLOAD DUP1 SWAP3 SWAP2 SWAP1 PUSH3 0x25E SWAP1 PUSH3 0x5F9 JUMP JUMPDEST SWAP2 SWAP1 POP SSTORE POP PUSH3 0x646 JUMP JUMPDEST PUSH1 0x0 DUP2 MLOAD SWAP1 POP SWAP2 SWAP1 POP JUMP JUMPDEST PUSH32 0x4E487B7100000000000000000000000000000000000000000000000000000000 PUSH1 0x0 MSTORE PUSH1 0x41 PUSH1 0x4 MSTORE PUSH1 0x24 PUSH1 0x0 REVERT JUMPDEST PUSH32 0x4E487B7100000000000000000000000000000000000000000000000000000000 PUSH1 0x0 MSTORE PUSH1 0x22 PUSH1 0x4 MSTORE PUSH1 0x24 PUSH1 0x0 REVERT JUMPDEST PUSH1 0x0 PUSH1 0x2 DUP3 DIV SWAP1 POP PUSH1 0x1 DUP3 AND DUP1 PUSH3 0x2EB JUMPI PUSH1 0x7F DUP3 AND SWAP2 POP JUMPDEST PUSH1 0x20 DUP3 LT DUP2 SUB PUSH3 0x301 JUMPI PUSH3 0x300 PUSH3 0x2A3 JUMP JUMPDEST JUMPDEST POP SWAP2 SWAP1 POP JUMP JUMPDEST PUSH1 0x0 DUP2 SWAP1 POP DUP2 PUSH1 0x0 MSTORE PUSH1 0x20 PUSH1 0x0 KECCAK256 SWAP1 POP SWAP2 SWAP1 POP JUMP JUMPDEST PUSH1 0x0 PUSH1 0x20 PUSH1 0x1F DUP4 ADD DIV SWAP1 POP SWAP2 SWAP1 POP JUMP JUMPDEST PUSH1 0x0 DUP3 DUP3 SHL SWAP1 POP SWAP3 SWAP2 POP POP JUMP JUMPDEST PUSH1 0x0 PUSH1 0x8 DUP4 MUL PUSH3 0x36B PUSH32 0xFFFFFFFFFFFFFFFFFFFFFFFFFFFFFFFFFFFFFFFFFFFFFFFFFFFFFFFFFFFFFFFF DUP3 PUSH3 0x32C JUMP JUMPDEST PUSH3 0x377 DUP7 DUP4 PUSH3 0x32C JUMP JUMPDEST SWAP6 POP DUP1 NOT DUP5 AND SWAP4 POP DUP1 DUP7 AND DUP5 OR SWAP3 POP POP POP SWAP4 SWAP3 POP POP POP JUMP JUMPDEST PUSH1 0x0 DUP2 SWAP1 POP SWAP2 SWAP1 POP JUMP JUMPDEST PUSH1 0x0 DUP2 SWAP1 POP SWAP2 SWAP1 POP JUMP JUMPDEST PUSH1 0x0 PUSH3 0x3C4 PUSH3 0x3BE PUSH3 0x3B8 DUP5 PUSH3 0x38F JUMP JUMPDEST PUSH3 0x399 JUMP JUMPDEST PUSH3 0x38F JUMP JUMPDEST SWAP1 POP SWAP2 SWAP1 POP JUMP JUMPDEST PUSH1 0x0 DUP2 SWAP1 POP SWAP2 SWAP1 POP JUMP JUMPDEST PUSH3 0x3E0 DUP4 PUSH3 0x3A3 JUMP JUMPDEST PUSH3 0x3F8 PUSH3 0x3EF DUP3 PUSH3 0x3CB JUMP JUMPDEST DUP5 DUP5 SLOAD PUSH3 0x339 JUMP JUMPDEST DUP3 SSTORE POP POP POP POP JUMP JUMPDEST PUSH1 0x0 SWAP1 JUMP JUMPDEST PUSH3 0x40F PUSH3 0x400 JUMP JUMPDEST PUSH3 0x41C DUP2 DUP5 DUP5 PUSH3 0x3D5 JUMP JUMPDEST POP POP POP JUMP JUMPDEST JUMPDEST DUP2 DUP2 LT ISZERO PUSH3 0x444 JUMPI PUSH3 0x438 PUSH1 0x0 DUP3 PUSH3 0x405 JUMP JUMPDEST PUSH1 0x1 DUP2 ADD SWAP1 POP PUSH3 0x422 JUMP JUMPDEST POP POP JUMP JUMPDEST PUSH1 0x1F DUP3 GT ISZERO PUSH3 0x493 JUMPI PUSH3 0x45D DUP2 PUSH3 0x307 JUMP JUMPDEST PUSH3 0x468 DUP5 PUSH3 0x31C JUMP JUMPDEST DUP2 ADD PUSH1 0x20 DUP6 LT ISZERO PUSH3 0x478 JUMPI DUP2 SWAP1 POP JUMPDEST PUSH3 0x490 PUSH3 0x487 DUP6 PUSH3 0x31C JUMP JUMPDEST DUP4 ADD DUP3 PUSH3 0x421 JUMP JUMPDEST POP POP JUMPDEST POP POP POP JUMP JUMPDEST PUSH1 0x0 DUP3 DUP3 SHR SWAP1 POP SWAP3 SWAP2 POP POP JUMP JUMPDEST PUSH1 0x0 PUSH3 0x4B8 PUSH1 0x0 NOT DUP5 PUSH1 0x8 MUL PUSH3 0x498 JUMP JUMPDEST NOT DUP1 DUP4 AND SWAP2 POP POP SWAP3 SWAP2 POP POP JUMP JUMPDEST PUSH1 0x0 PUSH3 0x4D3 DUP4 DUP4 PUSH3 0x4A5 JUMP JUMPDEST SWAP2 POP DUP3 PUSH1 0x2 MUL DUP3 OR SWAP1 POP SWAP3 SWAP2 POP POP JUMP JUMPDEST PUSH3 0x4EE DUP3 PUSH3 0x269 JUMP JUMPDEST PUSH8 0xFFFFFFFFFFFFFFFF DUP2 GT ISZERO PUSH3 0x50A JUMPI PUSH3 0x509 PUSH3 0x274 JUMP JUMPDEST JUMPDEST PUSH3 0x516 DUP3 SLOAD PUSH3 0x2D2 JUMP JUMPDEST PUSH3 0x523 DUP3 DUP3 DUP6 PUSH3 0x448 JUMP JUMPDEST PUSH1 0x0 PUSH1 0x20 SWAP1 POP PUSH1 0x1F DUP4 GT PUSH1 0x1 DUP2 EQ PUSH3 0x55B JUMPI PUSH1 0x0 DUP5 ISZERO PUSH3 0x546 JUMPI DUP3 DUP8 ADD MLOAD SWAP1 POP JUMPDEST PUSH3 0x552 DUP6 DUP3 PUSH3 0x4C5 JUMP JUMPDEST DUP7 SSTORE POP PUSH3 0x5C2 JUMP JUMPDEST PUSH1 0x1F NOT DUP5 AND PUSH3 0x56B DUP7 PUSH3 0x307 JUMP JUMPDEST PUSH1 0x0 JUMPDEST DUP3 DUP2 LT ISZERO PUSH3 0x595 JUMPI DUP5 DUP10 ADD MLOAD DUP3 SSTORE PUSH1 0x1 DUP3 ADD SWAP2 POP PUSH1 0x20 DUP6 ADD SWAP5 POP PUSH1 0x20 DUP2 ADD SWAP1 POP PUSH3 0x56E JUMP JUMPDEST DUP7 DUP4 LT ISZERO PUSH3 0x5B5 JUMPI DUP5 DUP10 ADD MLOAD PUSH3 0x5B1 PUSH1 0x1F DUP10 AND DUP3 PUSH3 0x4A5 JUMP JUMPDEST DUP4 SSTORE POP JUMPDEST PUSH1 0x1 PUSH1 0x2 DUP9 MUL ADD DUP9 SSTORE POP POP POP JUMPDEST POP POP POP POP POP POP JUMP JUMPDEST PUSH32 0x4E487B7100000000000000000000000000000000000000000000000000000000 PUSH1 0x0 MSTORE PUSH1 0x11 PUSH1 0x4 MSTORE PUSH1 0x24 PUSH1 0x0 REVERT JUMPDEST PUSH1 0x0 PUSH3 0x606 DUP3 PUSH3 0x38F JUMP JUMPDEST SWAP2 POP PUSH32 0xFFFFFFFFFFFFFFFFFFFFFFFFFFFFFFFFFFFFFFFFFFFFFFFFFFFFFFFFFFFFFFFF DUP3 SUB PUSH3 0x63B JUMPI PUSH3 0x63A PUSH3 0x5CA JUMP JUMPDEST JUMPDEST PUSH1 0x1 DUP3 ADD SWAP1 POP SWAP2 SWAP1 POP JUMP JUMPDEST PUSH2 0x3233 DUP1 PUSH3 0x656 PUSH1 0x0 CODECOPY PUSH1 0x0 RETURN INVALID PUSH1 0x80 PUSH1 0x40 MSTORE CALLVALUE DUP1 ISZERO PUSH2 0x10 JUMPI PUSH1 0x0 DUP1 REVERT JUMPDEST POP PUSH1 0x4 CALLDATASIZE LT PUSH2 0xB4 JUMPI PUSH1 0x0 CALLDATALOAD PUSH1 0xE0 SHR DUP1 PUSH4 0x6D2BC1EB GT PUSH2 0x71 JUMPI DUP1 PUSH4 0x6D2BC1EB EQ PUSH2 0x167 JUMPI DUP1 PUSH4 0x7DA0E15E EQ PUSH2 0x19D JUMPI DUP1 PUSH4 0xB384ABEF EQ PUSH2 0x1D2 JUMPI DUP1 PUSH4 0xC0636B91 EQ PUSH2 0x1EE JUMPI DUP1 PUSH4 0xDFBF53AE EQ PUSH2 0x20A JUMPI DUP1 PUSH4 0xF83F40DB EQ PUSH2 0x228 JUMPI PUSH2 0xB4 JUMP JUMPDEST DUP1 PUSH4 0x24089918 EQ PUSH2 0xB9 JUMPI DUP1 PUSH4 0x33A99E04 EQ PUSH2 0xD7 JUMPI DUP1 PUSH4 0x498EA441 EQ PUSH2 0xF5 JUMPI DUP1 PUSH4 0x5042746C EQ PUSH2 0x113 JUMPI DUP1 PUSH4 0x5D74B023 EQ PUSH2 0x12F JUMPI DUP1 PUSH4 0x69042BEC EQ PUSH2 0x14B JUMPI JUMPDEST PUSH1 0x0 DUP1 REVERT JUMPDEST PUSH2 0xC1 PUSH2 0x244 JUMP JUMPDEST PUSH1 0x40 MLOAD PUSH2 0xCE SWAP2 SWAP1 PUSH2 0x1F4E JUMP JUMPDEST PUSH1 0x40 MLOAD DUP1 SWAP2 SUB SWAP1 RETURN JUMPDEST PUSH2 0xDF PUSH2 0x4B8 JUMP JUMPDEST PUSH1 0x40 MLOAD PUSH2 0xEC SWAP2 SWAP1 PUSH2 0x1F7F JUMP JUMPDEST PUSH1 0x40 MLOAD DUP1 SWAP2 SUB SWAP1 RETURN JUMPDEST PUSH2 0xFD PUSH2 0x6EE JUMP JUMPDEST PUSH1 0x40 MLOAD PUSH2 0x10A SWAP2 SWAP1 PUSH2 0x2106 JUMP JUMPDEST PUSH1 0x40 MLOAD DUP1 SWAP2 SUB SWAP1 RETURN JUMPDEST PUSH2 0x12D PUSH1 0x4 DUP1 CALLDATASIZE SUB DUP2 ADD SWAP1 PUSH2 0x128 SWAP2 SWAP1 PUSH2 0x2168 JUMP JUMPDEST PUSH2 0x9F4 JUMP JUMPDEST STOP JUMPDEST PUSH2 0x149 PUSH1 0x4 DUP1 CALLDATASIZE SUB DUP2 ADD SWAP1 PUSH2 0x144 SWAP2 SWAP1 PUSH2 0x22DD JUMP JUMPDEST PUSH2 0xB1F JUMP JUMPDEST STOP JUMPDEST PUSH2 0x165 PUSH1 0x4 DUP1 CALLDATASIZE SUB DUP2 ADD SWAP1 PUSH2 0x160 SWAP2 SWAP1 PUSH2 0x23C8 JUMP JUMPDEST PUSH2 0xD72 JUMP JUMPDEST STOP JUMPDEST PUSH2 0x181 PUSH1 0x4 DUP1 CALLDATASIZE SUB DUP2 ADD SWAP1 PUSH2 0x17C SWAP2 SWAP1 PUSH2 0x2488 JUMP JUMPDEST PUSH2 0x1202 JUMP JUMPDEST PUSH1 0x40 MLOAD PUSH2 0x194 SWAP8 SWAP7 SWAP6 SWAP5 SWAP4 SWAP3 SWAP2 SWAP1 PUSH2 0x250E JUMP JUMPDEST PUSH1 0x40 MLOAD DUP1 SWAP2 SUB SWAP1 RETURN JUMPDEST PUSH2 0x1B7 PUSH1 0x4 DUP1 CALLDATASIZE SUB DUP2 ADD SWAP1 PUSH2 0x1B2 SWAP2 SWAP1 PUSH2 0x2488 JUMP JUMPDEST PUSH2 0x13FC JUMP JUMPDEST PUSH1 0x40 MLOAD PUSH2 0x1C9 SWAP7 SWAP6 SWAP5 SWAP4 SWAP3 SWAP2 SWAP1 PUSH2 0x2592 JUMP JUMPDEST PUSH1 0x40 MLOAD DUP1 SWAP2 SUB SWAP1 RETURN JUMPDEST PUSH2 0x1EC PUSH1 0x4 DUP1 CALLDATASIZE SUB DUP2 ADD SWAP1 PUSH2 0x1E7 SWAP2 SWAP1 PUSH2 0x2168 JUMP JUMPDEST PUSH2 0x1568 JUMP JUMPDEST STOP JUMPDEST PUSH2 0x208 PUSH1 0x4 DUP1 CALLDATASIZE SUB DUP2 ADD SWAP1 PUSH2 0x203 SWAP2 SWAP1 PUSH2 0x2168 JUMP JUMPDEST PUSH2 0x1790 JUMP JUMPDEST STOP JUMPDEST PUSH2 0x212 PUSH2 0x18D7 JUMP JUMPDEST PUSH1 0x40 MLOAD PUSH2 0x21F SWAP2 SWAP1 PUSH2 0x1F7F JUMP JUMPDEST PUSH1 0x40 MLOAD DUP1 SWAP2 SUB SWAP1 RETURN JUMPDEST PUSH2 0x242 PUSH1 0x4 DUP1 CALLDATASIZE SUB DUP2 ADD SWAP1 PUSH2 0x23D SWAP2 SWAP1 PUSH2 0x2168 JUMP JUMPDEST PUSH2 0x18FD JUMP JUMPDEST STOP JUMPDEST PUSH1 0x60 PUSH1 0x0 PUSH1 0x1 PUSH1 0xD SLOAD PUSH2 0x257 SWAP2 SWAP1 PUSH2 0x2630 JUMP JUMPDEST PUSH8 0xFFFFFFFFFFFFFFFF DUP2 GT ISZERO PUSH2 0x270 JUMPI PUSH2 0x26F PUSH2 0x21B2 JUMP JUMPDEST JUMPDEST PUSH1 0x40 MLOAD SWAP1 DUP1 DUP3 MSTORE DUP1 PUSH1 0x20 MUL PUSH1 0x20 ADD DUP3 ADD PUSH1 0x40 MSTORE DUP1 ISZERO PUSH2 0x2A9 JUMPI DUP2 PUSH1 0x20 ADD JUMPDEST PUSH2 0x296 PUSH2 0x1C73 JUMP JUMPDEST DUP2 MSTORE PUSH1 0x20 ADD SWAP1 PUSH1 0x1 SWAP1 SUB SWAP1 DUP2 PUSH2 0x28E JUMPI SWAP1 POP JUMPDEST POP SWAP1 POP PUSH1 0x0 PUSH1 0x1 SWAP1 POP JUMPDEST PUSH1 0xD SLOAD DUP2 LT ISZERO PUSH2 0x4B0 JUMPI PUSH1 0xA PUSH1 0x0 DUP3 DUP2 MSTORE PUSH1 0x20 ADD SWAP1 DUP2 MSTORE PUSH1 0x20 ADD PUSH1 0x0 KECCAK256 PUSH1 0x40 MLOAD DUP1 PUSH1 0xC0 ADD PUSH1 0x40 MSTORE SWAP1 DUP2 PUSH1 0x0 DUP3 ADD DUP1 SLOAD PUSH2 0x2EB SWAP1 PUSH2 0x2693 JUMP JUMPDEST DUP1 PUSH1 0x1F ADD PUSH1 0x20 DUP1 SWAP2 DIV MUL PUSH1 0x20 ADD PUSH1 0x40 MLOAD SWAP1 DUP2 ADD PUSH1 0x40 MSTORE DUP1 SWAP3 SWAP2 SWAP1 DUP2 DUP2 MSTORE PUSH1 0x20 ADD DUP3 DUP1 SLOAD PUSH2 0x317 SWAP1 PUSH2 0x2693 JUMP JUMPDEST DUP1 ISZERO PUSH2 0x364 JUMPI DUP1 PUSH1 0x1F LT PUSH2 0x339 JUMPI PUSH2 0x100 DUP1 DUP4 SLOAD DIV MUL DUP4 MSTORE SWAP2 PUSH1 0x20 ADD SWAP2 PUSH2 0x364 JUMP JUMPDEST DUP3 ADD SWAP2 SWAP1 PUSH1 0x0 MSTORE PUSH1 0x20 PUSH1 0x0 KECCAK256 SWAP1 JUMPDEST DUP2 SLOAD DUP2 MSTORE SWAP1 PUSH1 0x1 ADD SWAP1 PUSH1 0x20 ADD DUP1 DUP4 GT PUSH2 0x347 JUMPI DUP3 SWAP1 SUB PUSH1 0x1F AND DUP3 ADD SWAP2 JUMPDEST POP POP POP POP POP DUP2 MSTORE PUSH1 0x20 ADD PUSH1 0x1 DUP3 ADD SLOAD DUP2 MSTORE PUSH1 0x20 ADD PUSH1 0x2 DUP3 ADD SLOAD DUP2 MSTORE PUSH1 0x20 ADD PUSH1 0x3 DUP3 ADD DUP1 SLOAD PUSH2 0x391 SWAP1 PUSH2 0x2693 JUMP JUMPDEST DUP1 PUSH1 0x1F ADD PUSH1 0x20 DUP1 SWAP2 DIV MUL PUSH1 0x20 ADD PUSH1 0x40 MLOAD SWAP1 DUP2 ADD PUSH1 0x40 MSTORE DUP1 SWAP3 SWAP2 SWAP1 DUP2 DUP2 MSTORE PUSH1 0x20 ADD DUP3 DUP1 SLOAD PUSH2 0x3BD SWAP1 PUSH2 0x2693 JUMP JUMPDEST DUP1 ISZERO PUSH2 0x40A JUMPI DUP1 PUSH1 0x1F LT PUSH2 0x3DF JUMPI PUSH2 0x100 DUP1 DUP4 SLOAD DIV MUL DUP4 MSTORE SWAP2 PUSH1 0x20 ADD SWAP2 PUSH2 0x40A JUMP JUMPDEST DUP3 ADD SWAP2 SWAP1 PUSH1 0x0 MSTORE PUSH1 0x20 PUSH1 0x0 KECCAK256 SWAP1 JUMPDEST DUP2 SLOAD DUP2 MSTORE SWAP1 PUSH1 0x1 ADD SWAP1 PUSH1 0x20 ADD DUP1 DUP4 GT PUSH2 0x3ED JUMPI DUP3 SWAP1 SUB PUSH1 0x1F AND DUP3 ADD SWAP2 JUMPDEST POP POP POP POP POP DUP2 MSTORE PUSH1 0x20 ADD PUSH1 0x4 DUP3 ADD SLOAD DUP2 MSTORE PUSH1 0x20 ADD PUSH1 0x5 DUP3 ADD PUSH1 0x0 SWAP1 SLOAD SWAP1 PUSH2 0x100 EXP SWAP1 DIV PUSH20 0xFFFFFFFFFFFFFFFFFFFFFFFFFFFFFFFFFFFFFFFF AND PUSH20 0xFFFFFFFFFFFFFFFFFFFFFFFFFFFFFFFFFFFFFFFF AND PUSH20 0xFFFFFFFFFFFFFFFFFFFFFFFFFFFFFFFFFFFFFFFF AND DUP2 MSTORE POP POP DUP3 PUSH1 0x1 DUP4 PUSH2 0x481 SWAP2 SWAP1 PUSH2 0x2630 JUMP JUMPDEST DUP2 MLOAD DUP2 LT PUSH2 0x492 JUMPI PUSH2 0x491 PUSH2 0x26C4 JUMP JUMPDEST JUMPDEST PUSH1 0x20 MUL PUSH1 0x20 ADD ADD DUP2 SWAP1 MSTORE POP DUP1 DUP1 PUSH2 0x4A8 SWAP1 PUSH2 0x26F3 JUMP JUMPDEST SWAP2 POP POP PUSH2 0x2B3 JUMP JUMPDEST POP DUP1 SWAP2 POP POP SWAP1 JUMP JUMPDEST PUSH1 0x0 PUSH1 0xB PUSH1 0x0 SWAP1 SLOAD SWAP1 PUSH2 0x100 EXP SWAP1 DIV PUSH20 0xFFFFFFFFFFFFFFFFFFFFFFFFFFFFFFFFFFFFFFFF AND PUSH20 0xFFFFFFFFFFFFFFFFFFFFFFFFFFFFFFFFFFFFFFFF AND CALLER PUSH20 0xFFFFFFFFFFFFFFFFFFFFFFFFFFFFFFFFFFFFFFFF AND EQ PUSH2 0x54A JUMPI PUSH1 0x40 MLOAD PUSH32 0x8C379A000000000000000000000000000000000000000000000000000000000 DUP2 MSTORE PUSH1 0x4 ADD PUSH2 0x541 SWAP1 PUSH2 0x27AD JUMP JUMPDEST PUSH1 0x40 MLOAD DUP1 SWAP2 SUB SWAP1 REVERT JUMPDEST PUSH1 0x1 SLOAD TIMESTAMP GT DUP1 ISZERO PUSH2 0x55E JUMPI POP PUSH1 0x0 PUSH1 0x1 SLOAD EQ ISZERO JUMPDEST PUSH2 0x59D JUMPI PUSH1 0x40 MLOAD PUSH32 0x8C379A000000000000000000000000000000000000000000000000000000000 DUP2 MSTORE PUSH1 0x4 ADD PUSH2 0x594 SWAP1 PUSH2 0x283F JUMP JUMPDEST PUSH1 0x40 MLOAD DUP1 SWAP2 SUB SWAP1 REVERT JUMPDEST PUSH1 0x7 SLOAD TIMESTAMP GT DUP1 ISZERO PUSH2 0x5B1 JUMPI POP PUSH1 0x0 PUSH1 0x7 SLOAD EQ ISZERO JUMPDEST PUSH2 0x5F0 JUMPI PUSH1 0x40 MLOAD PUSH32 0x8C379A000000000000000000000000000000000000000000000000000000000 DUP2 MSTORE PUSH1 0x4 ADD PUSH2 0x5E7 SWAP1 PUSH2 0x28D1 JUMP JUMPDEST PUSH1 0x40 MLOAD DUP1 SWAP2 SUB SWAP1 REVERT JUMPDEST PUSH1 0x0 DUP1 PUSH1 0x1 SWAP1 POP JUMPDEST PUSH1 0xE SLOAD DUP2 LT ISZERO PUSH2 0x6C4 JUMPI DUP2 PUSH1 0x9 PUSH1 0x0 DUP4 DUP2 MSTORE PUSH1 0x20 ADD SWAP1 DUP2 MSTORE PUSH1 0x20 ADD PUSH1 0x0 KECCAK256 PUSH1 0x6 ADD SLOAD GT ISZERO PUSH2 0x6B1 JUMPI PUSH1 0x9 PUSH1 0x0 DUP3 DUP2 MSTORE PUSH1 0x20 ADD SWAP1 DUP2 MSTORE PUSH1 0x20 ADD PUSH1 0x0 KECCAK256 PUSH1 0x6 ADD SLOAD SWAP2 POP PUSH1 0x9 PUSH1 0x0 DUP3 DUP2 MSTORE PUSH1 0x20 ADD SWAP1 DUP2 MSTORE PUSH1 0x20 ADD PUSH1 0x0 KECCAK256 PUSH1 0x5 ADD PUSH1 0x0 SWAP1 SLOAD SWAP1 PUSH2 0x100 EXP SWAP1 DIV PUSH20 0xFFFFFFFFFFFFFFFFFFFFFFFFFFFFFFFFFFFFFFFF AND PUSH1 0xC PUSH1 0x0 PUSH2 0x100 EXP DUP2 SLOAD DUP2 PUSH20 0xFFFFFFFFFFFFFFFFFFFFFFFFFFFFFFFFFFFFFFFF MUL NOT AND SWAP1 DUP4 PUSH20 0xFFFFFFFFFFFFFFFFFFFFFFFFFFFFFFFFFFFFFFFF AND MUL OR SWAP1 SSTORE POP JUMPDEST DUP1 DUP1 PUSH2 0x6BC SWAP1 PUSH2 0x26F3 JUMP JUMPDEST SWAP2 POP POP PUSH2 0x5F8 JUMP JUMPDEST POP PUSH1 0xC PUSH1 0x0 SWAP1 SLOAD SWAP1 PUSH2 0x100 EXP SWAP1 DIV PUSH20 0xFFFFFFFFFFFFFFFFFFFFFFFFFFFFFFFFFFFFFFFF AND SWAP2 POP POP SWAP1 JUMP JUMPDEST PUSH1 0x60 PUSH1 0x0 PUSH1 0x1 PUSH1 0xE SLOAD PUSH2 0x701 SWAP2 SWAP1 PUSH2 0x2630 JUMP JUMPDEST PUSH8 0xFFFFFFFFFFFFFFFF DUP2 GT ISZERO PUSH2 0x71A JUMPI PUSH2 0x719 PUSH2 0x21B2 JUMP JUMPDEST JUMPDEST PUSH1 0x40 MLOAD SWAP1 DUP1 DUP3 MSTORE DUP1 PUSH1 0x20 MUL PUSH1 0x20 ADD DUP3 ADD PUSH1 0x40 MSTORE DUP1 ISZERO PUSH2 0x753 JUMPI DUP2 PUSH1 0x20 ADD JUMPDEST PUSH2 0x740 PUSH2 0x1CBF JUMP JUMPDEST DUP2 MSTORE PUSH1 0x20 ADD SWAP1 PUSH1 0x1 SWAP1 SUB SWAP1 DUP2 PUSH2 0x738 JUMPI SWAP1 POP JUMPDEST POP SWAP1 POP PUSH1 0x0 PUSH1 0x1 SWAP1 POP JUMPDEST PUSH1 0xE SLOAD DUP2 LT ISZERO PUSH2 0x9EC JUMPI PUSH1 0x9 PUSH1 0x0 DUP3 DUP2 MSTORE PUSH1 0x20 ADD SWAP1 DUP2 MSTORE PUSH1 0x20 ADD PUSH1 0x0 KECCAK256 PUSH1 0x40 MLOAD DUP1 PUSH1 0xE0 ADD PUSH1 0x40 MSTORE SWAP1 DUP2 PUSH1 0x0 DUP3 ADD DUP1 SLOAD PUSH2 0x795 SWAP1 PUSH2 0x2693 JUMP JUMPDEST DUP1 PUSH1 0x1F ADD PUSH1 0x20 DUP1 SWAP2 DIV MUL PUSH1 0x20 ADD PUSH1 0x40 MLOAD SWAP1 DUP2 ADD PUSH1 0x40 MSTORE DUP1 SWAP3 SWAP2 SWAP1 DUP2 DUP2 MSTORE PUSH1 0x20 ADD DUP3 DUP1 SLOAD PUSH2 0x7C1 SWAP1 PUSH2 0x2693 JUMP JUMPDEST DUP1 ISZERO PUSH2 0x80E JUMPI DUP1 PUSH1 0x1F LT PUSH2 0x7E3 JUMPI PUSH2 0x100 DUP1 DUP4 SLOAD DIV MUL DUP4 MSTORE SWAP2 PUSH1 0x20 ADD SWAP2 PUSH2 0x80E JUMP JUMPDEST DUP3 ADD SWAP2 SWAP1 PUSH1 0x0 MSTORE PUSH1 0x20 PUSH1 0x0 KECCAK256 SWAP1 JUMPDEST DUP2 SLOAD DUP2 MSTORE SWAP1 PUSH1 0x1 ADD SWAP1 PUSH1 0x20 ADD DUP1 DUP4 GT PUSH2 0x7F1 JUMPI DUP3 SWAP1 SUB PUSH1 0x1F AND DUP3 ADD SWAP2 JUMPDEST POP POP POP POP POP DUP2 MSTORE PUSH1 0x20 ADD PUSH1 0x1 DUP3 ADD SLOAD DUP2 MSTORE PUSH1 0x20 ADD PUSH1 0x2 DUP3 ADD DUP1 SLOAD PUSH2 0x831 SWAP1 PUSH2 0x2693 JUMP JUMPDEST DUP1 PUSH1 0x1F ADD PUSH1 0x20 DUP1 SWAP2 DIV MUL PUSH1 0x20 ADD PUSH1 0x40 MLOAD SWAP1 DUP2 ADD PUSH1 0x40 MSTORE DUP1 SWAP3 SWAP2 SWAP1 DUP2 DUP2 MSTORE PUSH1 0x20 ADD DUP3 DUP1 SLOAD PUSH2 0x85D SWAP1 PUSH2 0x2693 JUMP JUMPDEST DUP1 ISZERO PUSH2 0x8AA JUMPI DUP1 PUSH1 0x1F LT PUSH2 0x87F JUMPI PUSH2 0x100 DUP1 DUP4 SLOAD DIV MUL DUP4 MSTORE SWAP2 PUSH1 0x20 ADD SWAP2 PUSH2 0x8AA JUMP JUMPDEST DUP3 ADD SWAP2 SWAP1 PUSH1 0x0 MSTORE PUSH1 0x20 PUSH1 0x0 KECCAK256 SWAP1 JUMPDEST DUP2 SLOAD DUP2 MSTORE SWAP1 PUSH1 0x1 ADD SWAP1 PUSH1 0x20 ADD DUP1 DUP4 GT PUSH2 0x88D JUMPI DUP3 SWAP1 SUB PUSH1 0x1F AND DUP3 ADD SWAP2 JUMPDEST POP POP POP POP POP DUP2 MSTORE PUSH1 0x20 ADD PUSH1 0x3 DUP3 ADD SLOAD DUP2 MSTORE PUSH1 0x20 ADD PUSH1 0x4 DUP3 ADD DUP1 SLOAD PUSH2 0x8CD SWAP1 PUSH2 0x2693 JUMP JUMPDEST DUP1 PUSH1 0x1F ADD PUSH1 0x20 DUP1 SWAP2 DIV MUL PUSH1 0x20 ADD PUSH1 0x40 MLOAD SWAP1 DUP2 ADD PUSH1 0x40 MSTORE DUP1 SWAP3 SWAP2 SWAP1 DUP2 DUP2 MSTORE PUSH1 0x20 ADD DUP3 DUP1 SLOAD PUSH2 0x8F9 SWAP1 PUSH2 0x2693 JUMP JUMPDEST DUP1 ISZERO PUSH2 0x946 JUMPI DUP1 PUSH1 0x1F LT PUSH2 0x91B JUMPI PUSH2 0x100 DUP1 DUP4 SLOAD DIV MUL DUP4 MSTORE SWAP2 PUSH1 0x20 ADD SWAP2 PUSH2 0x946 JUMP JUMPDEST DUP3 ADD SWAP2 SWAP1 PUSH1 0x0 MSTORE PUSH1 0x20 PUSH1 0x0 KECCAK256 SWAP1 JUMPDEST DUP2 SLOAD DUP2 MSTORE SWAP1 PUSH1 0x1 ADD SWAP1 PUSH1 0x20 ADD DUP1 DUP4 GT PUSH2 0x929 JUMPI DUP3 SWAP1 SUB PUSH1 0x1F AND DUP3 ADD SWAP2 JUMPDEST POP POP POP POP POP DUP2 MSTORE PUSH1 0x20 ADD PUSH1 0x5 DUP3 ADD PUSH1 0x0 SWAP1 SLOAD SWAP1 PUSH2 0x100 EXP SWAP1 DIV PUSH20 0xFFFFFFFFFFFFFFFFFFFFFFFFFFFFFFFFFFFFFFFF AND PUSH20 0xFFFFFFFFFFFFFFFFFFFFFFFFFFFFFFFFFFFFFFFF AND PUSH20 0xFFFFFFFFFFFFFFFFFFFFFFFFFFFFFFFFFFFFFFFF AND DUP2 MSTORE PUSH1 0x20 ADD PUSH1 0x6 DUP3 ADD SLOAD DUP2 MSTORE POP POP DUP3 PUSH1 0x1 DUP4 PUSH2 0x9BD SWAP2 SWAP1 PUSH2 0x2630 JUMP JUMPDEST DUP2 MLOAD DUP2 LT PUSH2 0x9CE JUMPI PUSH2 0x9CD PUSH2 0x26C4 JUMP JUMPDEST JUMPDEST PUSH1 0x20 MUL PUSH1 0x20 ADD ADD DUP2 SWAP1 MSTORE POP DUP1 DUP1 PUSH2 0x9E4 SWAP1 PUSH2 0x26F3 JUMP JUMPDEST SWAP2 POP POP PUSH2 0x75D JUMP JUMPDEST POP DUP1 SWAP2 POP POP SWAP1 JUMP JUMPDEST PUSH1 0xB PUSH1 0x0 SWAP1 SLOAD SWAP1 PUSH2 0x100 EXP SWAP1 DIV PUSH20 0xFFFFFFFFFFFFFFFFFFFFFFFFFFFFFFFFFFFFFFFF AND PUSH20 0xFFFFFFFFFFFFFFFFFFFFFFFFFFFFFFFFFFFFFFFF AND CALLER PUSH20 0xFFFFFFFFFFFFFFFFFFFFFFFFFFFFFFFFFFFFFFFF AND EQ PUSH2 0xA84 JUMPI PUSH1 0x40 MLOAD PUSH32 0x8C379A000000000000000000000000000000000000000000000000000000000 DUP2 MSTORE PUSH1 0x4 ADD PUSH2 0xA7B SWAP1 PUSH2 0x27AD JUMP JUMPDEST PUSH1 0x40 MLOAD DUP1 SWAP2 SUB SWAP1 REVERT JUMPDEST PUSH1 0x0 ISZERO ISZERO PUSH1 0x8 PUSH1 0x0 SWAP1 SLOAD SWAP1 PUSH2 0x100 EXP SWAP1 DIV PUSH1 0xFF AND ISZERO ISZERO EQ PUSH2 0xADA JUMPI PUSH1 0x40 MLOAD PUSH32 0x8C379A000000000000000000000000000000000000000000000000000000000 DUP2 MSTORE PUSH1 0x4 ADD PUSH2 0xAD1 SWAP1 PUSH2 0x293D JUMP JUMPDEST PUSH1 0x40 MLOAD DUP1 SWAP2 SUB SWAP1 REVERT JUMPDEST PUSH1 0x1 PUSH1 0x5 PUSH1 0x0 PUSH2 0x100 EXP DUP2 SLOAD DUP2 PUSH1 0xFF MUL NOT AND SWAP1 DUP4 ISZERO ISZERO MUL OR SWAP1 SSTORE POP DUP2 TIMESTAMP PUSH2 0xB01 SWAP2 SWAP1 PUSH2 0x295D JUMP JUMPDEST PUSH1 0x3 DUP2 SWAP1 SSTORE POP DUP1 PUSH1 0x3 SLOAD PUSH2 0xB15 SWAP2 SWAP1 PUSH2 0x295D JUMP JUMPDEST PUSH1 0x4 DUP2 SWAP1 SSTORE POP POP POP JUMP JUMPDEST PUSH2 0xB27 PUSH2 0x1A28 JUMP JUMPDEST PUSH1 0x1 ISZERO ISZERO PUSH1 0x5 PUSH1 0x0 SWAP1 SLOAD SWAP1 PUSH2 0x100 EXP SWAP1 DIV PUSH1 0xFF AND ISZERO ISZERO EQ PUSH2 0xB7D JUMPI PUSH1 0x40 MLOAD PUSH32 0x8C379A000000000000000000000000000000000000000000000000000000000 DUP2 MSTORE PUSH1 0x4 ADD PUSH2 0xB74 SWAP1 PUSH2 0x29DD JUMP JUMPDEST PUSH1 0x40 MLOAD DUP1 SWAP2 SUB SWAP1 REVERT JUMPDEST PUSH1 0x0 ISZERO ISZERO PUSH1 0x8 PUSH1 0x0 SWAP1 SLOAD SWAP1 PUSH2 0x100 EXP SWAP1 DIV PUSH1 0xFF AND ISZERO ISZERO EQ PUSH2 0xBD3 JUMPI PUSH1 0x40 MLOAD PUSH32 0x8C379A000000000000000000000000000000000000000000000000000000000 DUP2 MSTORE PUSH1 0x4 ADD PUSH2 0xBCA SWAP1 PUSH2 0x293D JUMP JUMPDEST PUSH1 0x40 MLOAD DUP1 SWAP2 SUB SWAP1 REVERT JUMPDEST PUSH1 0x12 DUP3 LT ISZERO PUSH2 0xC17 JUMPI PUSH1 0x40 MLOAD PUSH32 0x8C379A000000000000000000000000000000000000000000000000000000000 DUP2 MSTORE PUSH1 0x4 ADD PUSH2 0xC0E SWAP1 PUSH2 0x2A49 JUMP JUMPDEST PUSH1 0x40 MLOAD DUP1 SWAP2 SUB SWAP1 REVERT JUMPDEST PUSH1 0x1 ISZERO ISZERO PUSH2 0xC24 CALLER PUSH2 0x1A50 JUMP JUMPDEST ISZERO ISZERO EQ PUSH2 0xC66 JUMPI PUSH1 0x40 MLOAD PUSH32 0x8C379A000000000000000000000000000000000000000000000000000000000 DUP2 MSTORE PUSH1 0x4 ADD PUSH2 0xC5D SWAP1 PUSH2 0x2AB5 JUMP JUMPDEST PUSH1 0x40 MLOAD DUP1 SWAP2 SUB SWAP1 REVERT JUMPDEST PUSH1 0x40 MLOAD DUP1 PUSH1 0xC0 ADD PUSH1 0x40 MSTORE DUP1 DUP5 DUP2 MSTORE PUSH1 0x20 ADD DUP4 DUP2 MSTORE PUSH1 0x20 ADD PUSH1 0xD SLOAD DUP2 MSTORE PUSH1 0x20 ADD DUP3 DUP2 MSTORE PUSH1 0x20 ADD PUSH1 0x0 DUP2 MSTORE PUSH1 0x20 ADD CALLER PUSH20 0xFFFFFFFFFFFFFFFFFFFFFFFFFFFFFFFFFFFFFFFF AND DUP2 MSTORE POP PUSH1 0xA PUSH1 0x0 PUSH1 0xD SLOAD DUP2 MSTORE PUSH1 0x20 ADD SWAP1 DUP2 MSTORE PUSH1 0x20 ADD PUSH1 0x0 KECCAK256 PUSH1 0x0 DUP3 ADD MLOAD DUP2 PUSH1 0x0 ADD SWAP1 DUP2 PUSH2 0xCD6 SWAP2 SWAP1 PUSH2 0x2C81 JUMP JUMPDEST POP PUSH1 0x20 DUP3 ADD MLOAD DUP2 PUSH1 0x1 ADD SSTORE PUSH1 0x40 DUP3 ADD MLOAD DUP2 PUSH1 0x2 ADD SSTORE PUSH1 0x60 DUP3 ADD MLOAD DUP2 PUSH1 0x3 ADD SWAP1 DUP2 PUSH2 0xD00 SWAP2 SWAP1 PUSH2 0x2C81 JUMP JUMPDEST POP PUSH1 0x80 DUP3 ADD MLOAD DUP2 PUSH1 0x4 ADD SSTORE PUSH1 0xA0 DUP3 ADD MLOAD DUP2 PUSH1 0x5 ADD PUSH1 0x0 PUSH2 0x100 EXP DUP2 SLOAD DUP2 PUSH20 0xFFFFFFFFFFFFFFFFFFFFFFFFFFFFFFFFFFFFFFFF MUL NOT AND SWAP1 DUP4 PUSH20 0xFFFFFFFFFFFFFFFFFFFFFFFFFFFFFFFFFFFFFFFF AND MUL OR SWAP1 SSTORE POP SWAP1 POP POP PUSH1 0xD PUSH1 0x0 DUP2 SLOAD DUP1 SWAP3 SWAP2 SWAP1 PUSH2 0xD68 SWAP1 PUSH2 0x26F3 JUMP JUMPDEST SWAP2 SWAP1 POP SSTORE POP POP POP POP JUMP JUMPDEST PUSH2 0xD7A PUSH2 0x1BA8 JUMP JUMPDEST PUSH1 0x1 ISZERO ISZERO PUSH1 0x2 PUSH1 0x0 SWAP1 SLOAD SWAP1 PUSH2 0x100 EXP SWAP1 DIV PUSH1 0xFF AND ISZERO ISZERO EQ PUSH2 0xDD0 JUMPI PUSH1 0x40 MLOAD PUSH32 0x8C379A000000000000000000000000000000000000000000000000000000000 DUP2 MSTORE PUSH1 0x4 ADD PUSH2 0xDC7 SWAP1 PUSH2 0x2D9F JUMP JUMPDEST PUSH1 0x40 MLOAD DUP1 SWAP2 SUB SWAP1 REVERT JUMPDEST PUSH1 0x0 ISZERO ISZERO PUSH1 0x8 PUSH1 0x0 SWAP1 SLOAD SWAP1 PUSH2 0x100 EXP SWAP1 DIV PUSH1 0xFF AND ISZERO ISZERO EQ PUSH2 0xE26 JUMPI PUSH1 0x40 MLOAD PUSH32 0x8C379A000000000000000000000000000000000000000000000000000000000 DUP2 MSTORE PUSH1 0x4 ADD PUSH2 0xE1D SWAP1 PUSH2 0x293D JUMP JUMPDEST PUSH1 0x40 MLOAD DUP1 SWAP2 SUB SWAP1 REVERT JUMPDEST PUSH1 0xB PUSH1 0x0 SWAP1 SLOAD SWAP1 PUSH2 0x100 EXP SWAP1 DIV PUSH20 0xFFFFFFFFFFFFFFFFFFFFFFFFFFFFFFFFFFFFFFFF AND PUSH20 0xFFFFFFFFFFFFFFFFFFFFFFFFFFFFFFFFFFFFFFFF AND CALLER PUSH20 0xFFFFFFFFFFFFFFFFFFFFFFFFFFFFFFFFFFFFFFFF AND SUB PUSH2 0xEB6 JUMPI PUSH1 0x40 MLOAD PUSH32 0x8C379A000000000000000000000000000000000000000000000000000000000 DUP2 MSTORE PUSH1 0x4 ADD PUSH2 0xEAD SWAP1 PUSH2 0x2E0B JUMP JUMPDEST PUSH1 0x40 MLOAD DUP1 SWAP2 SUB SWAP1 REVERT JUMPDEST PUSH1 0x12 DUP4 LT ISZERO PUSH2 0xEFA JUMPI PUSH1 0x40 MLOAD PUSH32 0x8C379A000000000000000000000000000000000000000000000000000000000 DUP2 MSTORE PUSH1 0x4 ADD PUSH2 0xEF1 SWAP1 PUSH2 0x2A49 JUMP JUMPDEST PUSH1 0x40 MLOAD DUP1 SWAP2 SUB SWAP1 REVERT JUMPDEST PUSH1 0x1 ISZERO ISZERO PUSH2 0xF07 CALLER PUSH2 0x1BD0 JUMP JUMPDEST ISZERO ISZERO EQ PUSH2 0xF49 JUMPI PUSH1 0x40 MLOAD PUSH32 0x8C379A000000000000000000000000000000000000000000000000000000000 DUP2 MSTORE PUSH1 0x4 ADD PUSH2 0xF40 SWAP1 PUSH2 0x2AB5 JUMP JUMPDEST PUSH1 0x40 MLOAD DUP1 SWAP2 SUB SWAP1 REVERT JUMPDEST PUSH1 0x40 MLOAD DUP1 PUSH1 0xE0 ADD PUSH1 0x40 MSTORE DUP1 DUP7 DUP7 DUP1 DUP1 PUSH1 0x1F ADD PUSH1 0x20 DUP1 SWAP2 DIV MUL PUSH1 0x20 ADD PUSH1 0x40 MLOAD SWAP1 DUP2 ADD PUSH1 0x40 MSTORE DUP1 SWAP4 SWAP3 SWAP2 SWAP1 DUP2 DUP2 MSTORE PUSH1 0x20 ADD DUP4 DUP4 DUP1 DUP3 DUP5 CALLDATACOPY PUSH1 0x0 DUP2 DUP5 ADD MSTORE PUSH1 0x1F NOT PUSH1 0x1F DUP3 ADD AND SWAP1 POP DUP1 DUP4 ADD SWAP3 POP POP POP POP POP POP POP DUP2 MSTORE PUSH1 0x20 ADD DUP5 DUP2 MSTORE PUSH1 0x20 ADD DUP4 DUP2 MSTORE PUSH1 0x20 ADD PUSH1 0xE SLOAD DUP2 MSTORE PUSH1 0x20 ADD DUP3 DUP2 MSTORE PUSH1 0x20 ADD CALLER PUSH20 0xFFFFFFFFFFFFFFFFFFFFFFFFFFFFFFFFFFFFFFFF AND DUP2 MSTORE PUSH1 0x20 ADD PUSH1 0x0 DUP2 MSTORE POP PUSH1 0x9 PUSH1 0x0 PUSH1 0xE SLOAD DUP2 MSTORE PUSH1 0x20 ADD SWAP1 DUP2 MSTORE PUSH1 0x20 ADD PUSH1 0x0 KECCAK256 PUSH1 0x0 DUP3 ADD MLOAD DUP2 PUSH1 0x0 ADD SWAP1 DUP2 PUSH2 0x1003 SWAP2 SWAP1 PUSH2 0x2C81 JUMP JUMPDEST POP PUSH1 0x20 DUP3 ADD MLOAD DUP2 PUSH1 0x1 ADD SSTORE PUSH1 0x40 DUP3 ADD MLOAD DUP2 PUSH1 0x2 ADD SWAP1 DUP2 PUSH2 0x1023 SWAP2 SWAP1 PUSH2 0x2C81 JUMP JUMPDEST POP PUSH1 0x60 DUP3 ADD MLOAD DUP2 PUSH1 0x3 ADD SSTORE PUSH1 0x80 DUP3 ADD MLOAD DUP2 PUSH1 0x4 ADD SWAP1 DUP2 PUSH2 0x1043 SWAP2 SWAP1 PUSH2 0x2C81 JUMP JUMPDEST POP PUSH1 0xA0 DUP3 ADD MLOAD DUP2 PUSH1 0x5 ADD PUSH1 0x0 PUSH2 0x100 EXP DUP2 SLOAD DUP2 PUSH20 0xFFFFFFFFFFFFFFFFFFFFFFFFFFFFFFFFFFFFFFFF MUL NOT AND SWAP1 DUP4 PUSH20 0xFFFFFFFFFFFFFFFFFFFFFFFFFFFFFFFFFFFFFFFF AND MUL OR SWAP1 SSTORE POP PUSH1 0xC0 DUP3 ADD MLOAD DUP2 PUSH1 0x6 ADD SSTORE SWAP1 POP POP PUSH1 0xE PUSH1 0x0 DUP2 SLOAD DUP1 SWAP3 SWAP2 SWAP1 PUSH2 0x10AB SWAP1 PUSH2 0x26F3 JUMP JUMPDEST SWAP2 SWAP1 POP SSTORE POP PUSH1 0x40 MLOAD DUP1 PUSH1 0xC0 ADD PUSH1 0x40 MSTORE DUP1 DUP7 DUP7 DUP1 DUP1 PUSH1 0x1F ADD PUSH1 0x20 DUP1 SWAP2 DIV MUL PUSH1 0x20 ADD PUSH1 0x40 MLOAD SWAP1 DUP2 ADD PUSH1 0x40 MSTORE DUP1 SWAP4 SWAP3 SWAP2 SWAP1 DUP2 DUP2 MSTORE PUSH1 0x20 ADD DUP4 DUP4 DUP1 DUP3 DUP5 CALLDATACOPY PUSH1 0x0 DUP2 DUP5 ADD MSTORE PUSH1 0x1F NOT PUSH1 0x1F DUP3 ADD AND SWAP1 POP DUP1 DUP4 ADD SWAP3 POP POP POP POP POP POP POP DUP2 MSTORE PUSH1 0x20 ADD DUP5 DUP2 MSTORE PUSH1 0x20 ADD PUSH1 0xD SLOAD DUP2 MSTORE PUSH1 0x20 ADD DUP3 DUP2 MSTORE PUSH1 0x20 ADD PUSH1 0x0 DUP2 MSTORE PUSH1 0x20 ADD CALLER PUSH20 0xFFFFFFFFFFFFFFFFFFFFFFFFFFFFFFFFFFFFFFFF AND DUP2 MSTORE POP PUSH1 0xA PUSH1 0x0 PUSH1 0xD SLOAD DUP2 MSTORE PUSH1 0x20 ADD SWAP1 DUP2 MSTORE PUSH1 0x20 ADD PUSH1 0x0 KECCAK256 PUSH1 0x0 DUP3 ADD MLOAD DUP2 PUSH1 0x0 ADD SWAP1 DUP2 PUSH2 0x1164 SWAP2 SWAP1 PUSH2 0x2C81 JUMP JUMPDEST POP PUSH1 0x20 DUP3 ADD MLOAD DUP2 PUSH1 0x1 ADD SSTORE PUSH1 0x40 DUP3 ADD MLOAD DUP2 PUSH1 0x2 ADD SSTORE PUSH1 0x60 DUP3 ADD MLOAD DUP2 PUSH1 0x3 ADD SWAP1 DUP2 PUSH2 0x118E SWAP2 SWAP1 PUSH2 0x2C81 JUMP JUMPDEST POP PUSH1 0x80 DUP3 ADD MLOAD DUP2 PUSH1 0x4 ADD SSTORE PUSH1 0xA0 DUP3 ADD MLOAD DUP2 PUSH1 0x5 ADD PUSH1 0x0 PUSH2 0x100 EXP DUP2 SLOAD DUP2 PUSH20 0xFFFFFFFFFFFFFFFFFFFFFFFFFFFFFFFFFFFFFFFF MUL NOT AND SWAP1 DUP4 PUSH20 0xFFFFFFFFFFFFFFFFFFFFFFFFFFFFFFFFFFFFFFFF AND MUL OR SWAP1 SSTORE POP SWAP1 POP POP PUSH1 0xD PUSH1 0x0 DUP2 SLOAD DUP1 SWAP3 SWAP2 SWAP1 PUSH2 0x11F6 SWAP1 PUSH2 0x26F3 JUMP JUMPDEST SWAP2 SWAP1 POP SSTORE POP POP POP POP POP POP JUMP JUMPDEST PUSH1 0x9 PUSH1 0x20 MSTORE DUP1 PUSH1 0x0 MSTORE PUSH1 0x40 PUSH1 0x0 KECCAK256 PUSH1 0x0 SWAP2 POP SWAP1 POP DUP1 PUSH1 0x0 ADD DUP1 SLOAD PUSH2 0x1225 SWAP1 PUSH2 0x2693 JUMP JUMPDEST DUP1 PUSH1 0x1F ADD PUSH1 0x20 DUP1 SWAP2 DIV MUL PUSH1 0x20 ADD PUSH1 0x40 MLOAD SWAP1 DUP2 ADD PUSH1 0x40 MSTORE DUP1 SWAP3 SWAP2 SWAP1 DUP2 DUP2 MSTORE PUSH1 0x20 ADD DUP3 DUP1 SLOAD PUSH2 0x1251 SWAP1 PUSH2 0x2693 JUMP JUMPDEST DUP1 ISZERO PUSH2 0x129E JUMPI DUP1 PUSH1 0x1F LT PUSH2 0x1273 JUMPI PUSH2 0x100 DUP1 DUP4 SLOAD DIV MUL DUP4 MSTORE SWAP2 PUSH1 0x20 ADD SWAP2 PUSH2 0x129E JUMP JUMPDEST DUP3 ADD SWAP2 SWAP1 PUSH1 0x0 MSTORE PUSH1 0x20 PUSH1 0x0 KECCAK256 SWAP1 JUMPDEST DUP2 SLOAD DUP2 MSTORE SWAP1 PUSH1 0x1 ADD SWAP1 PUSH1 0x20 ADD DUP1 DUP4 GT PUSH2 0x1281 JUMPI DUP3 SWAP1 SUB PUSH1 0x1F AND DUP3 ADD SWAP2 JUMPDEST POP POP POP POP POP SWAP1 DUP1 PUSH1 0x1 ADD SLOAD SWAP1 DUP1 PUSH1 0x2 ADD DUP1 SLOAD PUSH2 0x12B9 SWAP1 PUSH2 0x2693 JUMP JUMPDEST DUP1 PUSH1 0x1F ADD PUSH1 0x20 DUP1 SWAP2 DIV MUL PUSH1 0x20 ADD PUSH1 0x40 MLOAD SWAP1 DUP2 ADD PUSH1 0x40 MSTORE DUP1 SWAP3 SWAP2 SWAP1 DUP2 DUP2 MSTORE PUSH1 0x20 ADD DUP3 DUP1 SLOAD PUSH2 0x12E5 SWAP1 PUSH2 0x2693 JUMP JUMPDEST DUP1 ISZERO PUSH2 0x1332 JUMPI DUP1 PUSH1 0x1F LT PUSH2 0x1307 JUMPI PUSH2 0x100 DUP1 DUP4 SLOAD DIV MUL DUP4 MSTORE SWAP2 PUSH1 0x20 ADD SWAP2 PUSH2 0x1332 JUMP JUMPDEST DUP3 ADD SWAP2 SWAP1 PUSH1 0x0 MSTORE PUSH1 0x20 PUSH1 0x0 KECCAK256 SWAP1 JUMPDEST DUP2 SLOAD DUP2 MSTORE SWAP1 PUSH1 0x1 ADD SWAP1 PUSH1 0x20 ADD DUP1 DUP4 GT PUSH2 0x1315 JUMPI DUP3 SWAP1 SUB PUSH1 0x1F AND DUP3 ADD SWAP2 JUMPDEST POP POP POP POP POP SWAP1 DUP1 PUSH1 0x3 ADD SLOAD SWAP1 DUP1 PUSH1 0x4 ADD DUP1 SLOAD PUSH2 0x134D SWAP1 PUSH2 0x2693 JUMP JUMPDEST DUP1 PUSH1 0x1F ADD PUSH1 0x20 DUP1 SWAP2 DIV MUL PUSH1 0x20 ADD PUSH1 0x40 MLOAD SWAP1 DUP2 ADD PUSH1 0x40 MSTORE DUP1 SWAP3 SWAP2 SWAP1 DUP2 DUP2 MSTORE PUSH1 0x20 ADD DUP3 DUP1 SLOAD PUSH2 0x1379 SWAP1 PUSH2 0x2693 JUMP JUMPDEST DUP1 ISZERO PUSH2 0x13C6 JUMPI DUP1 PUSH1 0x1F LT PUSH2 0x139B JUMPI PUSH2 0x100 DUP1 DUP4 SLOAD DIV MUL DUP4 MSTORE SWAP2 PUSH1 0x20 ADD SWAP2 PUSH2 0x13C6 JUMP JUMPDEST DUP3 ADD SWAP2 SWAP1 PUSH1 0x0 MSTORE PUSH1 0x20 PUSH1 0x0 KECCAK256 SWAP1 JUMPDEST DUP2 SLOAD DUP2 MSTORE SWAP1 PUSH1 0x1 ADD SWAP1 PUSH1 0x20 ADD DUP1 DUP4 GT PUSH2 0x13A9 JUMPI DUP3 SWAP1 SUB PUSH1 0x1F AND DUP3 ADD SWAP2 JUMPDEST POP POP POP POP POP SWAP1 DUP1 PUSH1 0x5 ADD PUSH1 0x0 SWAP1 SLOAD SWAP1 PUSH2 0x100 EXP SWAP1 DIV PUSH20 0xFFFFFFFFFFFFFFFFFFFFFFFFFFFFFFFFFFFFFFFF AND SWAP1 DUP1 PUSH1 0x6 ADD SLOAD SWAP1 POP DUP8 JUMP JUMPDEST PUSH1 0xA PUSH1 0x20 MSTORE DUP1 PUSH1 0x0 MSTORE PUSH1 0x40 PUSH1 0x0 KECCAK256 PUSH1 0x0 SWAP2 POP SWAP1 POP DUP1 PUSH1 0x0 ADD DUP1 SLOAD PUSH2 0x141F SWAP1 PUSH2 0x2693 JUMP JUMPDEST DUP1 PUSH1 0x1F ADD PUSH1 0x20 DUP1 SWAP2 DIV MUL PUSH1 0x20 ADD PUSH1 0x40 MLOAD SWAP1 DUP2 ADD PUSH1 0x40 MSTORE DUP1 SWAP3 SWAP2 SWAP1 DUP2 DUP2 MSTORE PUSH1 0x20 ADD DUP3 DUP1 SLOAD PUSH2 0x144B SWAP1 PUSH2 0x2693 JUMP JUMPDEST DUP1 ISZERO PUSH2 0x1498 JUMPI DUP1 PUSH1 0x1F LT PUSH2 0x146D JUMPI PUSH2 0x100 DUP1 DUP4 SLOAD DIV MUL DUP4 MSTORE SWAP2 PUSH1 0x20 ADD SWAP2 PUSH2 0x1498 JUMP JUMPDEST DUP3 ADD SWAP2 SWAP1 PUSH1 0x0 MSTORE PUSH1 0x20 PUSH1 0x0 KECCAK256 SWAP1 JUMPDEST DUP2 SLOAD DUP2 MSTORE SWAP1 PUSH1 0x1 ADD SWAP1 PUSH1 0x20 ADD DUP1 DUP4 GT PUSH2 0x147B JUMPI DUP3 SWAP1 SUB PUSH1 0x1F AND DUP3 ADD SWAP2 JUMPDEST POP POP POP POP POP SWAP1 DUP1 PUSH1 0x1 ADD SLOAD SWAP1 DUP1 PUSH1 0x2 ADD SLOAD SWAP1 DUP1 PUSH1 0x3 ADD DUP1 SLOAD PUSH2 0x14B9 SWAP1 PUSH2 0x2693 JUMP JUMPDEST DUP1 PUSH1 0x1F ADD PUSH1 0x20 DUP1 SWAP2 DIV MUL PUSH1 0x20 ADD PUSH1 0x40 MLOAD SWAP1 DUP2 ADD PUSH1 0x40 MSTORE DUP1 SWAP3 SWAP2 SWAP1 DUP2 DUP2 MSTORE PUSH1 0x20 ADD DUP3 DUP1 SLOAD PUSH2 0x14E5 SWAP1 PUSH2 0x2693 JUMP JUMPDEST DUP1 ISZERO PUSH2 0x1532 JUMPI DUP1 PUSH1 0x1F LT PUSH2 0x1507 JUMPI PUSH2 0x100 DUP1 DUP4 SLOAD DIV MUL DUP4 MSTORE SWAP2 PUSH1 0x20 ADD SWAP2 PUSH2 0x1532 JUMP JUMPDEST DUP3 ADD SWAP2 SWAP1 PUSH1 0x0 MSTORE PUSH1 0x20 PUSH1 0x0 KECCAK256 SWAP1 JUMPDEST DUP2 SLOAD DUP2 MSTORE SWAP1 PUSH1 0x1 ADD SWAP1 PUSH1 0x20 ADD DUP1 DUP4 GT PUSH2 0x1515 JUMPI DUP3 SWAP1 SUB PUSH1 0x1F AND DUP3 ADD SWAP2 JUMPDEST POP POP POP POP POP SWAP1 DUP1 PUSH1 0x4 ADD SLOAD SWAP1 DUP1 PUSH1 0x5 ADD PUSH1 0x0 SWAP1 SLOAD SWAP1 PUSH2 0x100 EXP SWAP1 DIV PUSH20 0xFFFFFFFFFFFFFFFFFFFFFFFFFFFFFFFFFFFFFFFF AND SWAP1 POP DUP7 JUMP JUMPDEST PUSH1 0x0 PUSH1 0xA PUSH1 0x0 DUP5 DUP2 MSTORE PUSH1 0x20 ADD SWAP1 DUP2 MSTORE PUSH1 0x20 ADD PUSH1 0x0 KECCAK256 PUSH1 0x4 ADD SLOAD EQ PUSH2 0x15C1 JUMPI PUSH1 0x40 MLOAD PUSH32 0x8C379A000000000000000000000000000000000000000000000000000000000 DUP2 MSTORE PUSH1 0x4 ADD PUSH2 0x15B8 SWAP1 PUSH2 0x2E77 JUMP JUMPDEST PUSH1 0x40 MLOAD DUP1 SWAP2 SUB SWAP1 REVERT JUMPDEST CALLER PUSH20 0xFFFFFFFFFFFFFFFFFFFFFFFFFFFFFFFFFFFFFFFF AND PUSH1 0xA PUSH1 0x0 DUP5 DUP2 MSTORE PUSH1 0x20 ADD SWAP1 DUP2 MSTORE PUSH1 0x20 ADD PUSH1 0x0 KECCAK256 PUSH1 0x5 ADD PUSH1 0x0 SWAP1 SLOAD SWAP1 PUSH2 0x100 EXP SWAP1 DIV PUSH20 0xFFFFFFFFFFFFFFFFFFFFFFFFFFFFFFFFFFFFFFFF AND PUSH20 0xFFFFFFFFFFFFFFFFFFFFFFFFFFFFFFFFFFFFFFFF AND EQ PUSH2 0x1665 JUMPI PUSH1 0x40 MLOAD PUSH32 0x8C379A000000000000000000000000000000000000000000000000000000000 DUP2 MSTORE PUSH1 0x4 ADD PUSH2 0x165C SWAP1 PUSH2 0x2EE3 JUMP JUMPDEST PUSH1 0x40 MLOAD DUP1 SWAP2 SUB SWAP1 REVERT JUMPDEST PUSH1 0x3 PUSH1 0xE SLOAD LT ISZERO PUSH2 0x16AB JUMPI PUSH1 0x40 MLOAD PUSH32 0x8C379A000000000000000000000000000000000000000000000000000000000 DUP2 MSTORE PUSH1 0x4 ADD PUSH2 0x16A2 SWAP1 PUSH2 0x2F75 JUMP JUMPDEST PUSH1 0x40 MLOAD DUP1 SWAP2 SUB SWAP1 REVERT JUMPDEST PUSH1 0x0 PUSH1 0x6 SLOAD SUB PUSH2 0x16F0 JUMPI PUSH1 0x40 MLOAD PUSH32 0x8C379A000000000000000000000000000000000000000000000000000000000 DUP2 MSTORE PUSH1 0x4 ADD PUSH2 0x16E7 SWAP1 PUSH2 0x2FE1 JUMP JUMPDEST PUSH1 0x40 MLOAD DUP1 SWAP2 SUB SWAP1 REVERT JUMPDEST PUSH1 0xE SLOAD DUP2 LT PUSH2 0x1734 JUMPI PUSH1 0x40 MLOAD PUSH32 0x8C379A000000000000000000000000000000000000000000000000000000000 DUP2 MSTORE PUSH1 0x4 ADD PUSH2 0x172B SWAP1 PUSH2 0x304D JUMP JUMPDEST PUSH1 0x40 MLOAD DUP1 SWAP2 SUB SWAP1 REVERT JUMPDEST DUP1 PUSH1 0xA PUSH1 0x0 DUP5 DUP2 MSTORE PUSH1 0x20 ADD SWAP1 DUP2 MSTORE PUSH1 0x20 ADD PUSH1 0x0 KECCAK256 PUSH1 0x4 ADD DUP2 SWAP1 SSTORE POP PUSH1 0x1 PUSH1 0x9 PUSH1 0x0 DUP4 DUP2 MSTORE PUSH1 0x20 ADD SWAP1 DUP2 MSTORE PUSH1 0x20 ADD PUSH1 0x0 KECCAK256 PUSH1 0x6 ADD SLOAD PUSH2 0x1772 SWAP2 SWAP1 PUSH2 0x295D JUMP JUMPDEST PUSH1 0x9 PUSH1 0x0 DUP4 DUP2 MSTORE PUSH1 0x20 ADD SWAP1 DUP2 MSTORE PUSH1 0x20 ADD PUSH1 0x0 KECCAK256 PUSH1 0x6 ADD DUP2 SWAP1 SSTORE POP POP POP JUMP JUMPDEST PUSH2 0x1798 PUSH2 0x1BA8 JUMP JUMPDEST PUSH2 0x17A0 PUSH2 0x1A28 JUMP JUMPDEST PUSH1 0x3 PUSH1 0xE SLOAD LT ISZERO PUSH2 0x17E6 JUMPI PUSH1 0x40 MLOAD PUSH32 0x8C379A000000000000000000000000000000000000000000000000000000000 DUP2 MSTORE PUSH1 0x4 ADD PUSH2 0x17DD SWAP1 PUSH2 0x30DF JUMP JUMPDEST PUSH1 0x40 MLOAD DUP1 SWAP2 SUB SWAP1 REVERT JUMPDEST PUSH1 0x0 ISZERO ISZERO PUSH1 0x2 PUSH1 0x0 SWAP1 SLOAD SWAP1 PUSH2 0x100 EXP SWAP1 DIV PUSH1 0xFF AND ISZERO ISZERO EQ PUSH2 0x183C JUMPI PUSH1 0x40 MLOAD PUSH32 0x8C379A000000000000000000000000000000000000000000000000000000000 DUP2 MSTORE PUSH1 0x4 ADD PUSH2 0x1833 SWAP1 PUSH2 0x3171 JUMP JUMPDEST PUSH1 0x40 MLOAD DUP1 SWAP2 SUB SWAP1 REVERT JUMPDEST PUSH1 0x0 ISZERO ISZERO PUSH1 0x5 PUSH1 0x0 SWAP1 SLOAD SWAP1 PUSH2 0x100 EXP SWAP1 DIV PUSH1 0xFF AND ISZERO ISZERO EQ PUSH2 0x1892 JUMPI PUSH1 0x40 MLOAD PUSH32 0x8C379A000000000000000000000000000000000000000000000000000000000 DUP2 MSTORE PUSH1 0x4 ADD PUSH2 0x1889 SWAP1 PUSH2 0x31DD JUMP JUMPDEST PUSH1 0x40 MLOAD DUP1 SWAP2 SUB SWAP1 REVERT JUMPDEST PUSH1 0x1 PUSH1 0x8 PUSH1 0x0 PUSH2 0x100 EXP DUP2 SLOAD DUP2 PUSH1 0xFF MUL NOT AND SWAP1 DUP4 ISZERO ISZERO MUL OR SWAP1 SSTORE POP DUP2 TIMESTAMP PUSH2 0x18B9 SWAP2 SWAP1 PUSH2 0x295D JUMP JUMPDEST PUSH1 0x6 DUP2 SWAP1 SSTORE POP DUP1 PUSH1 0x6 SLOAD PUSH2 0x18CD SWAP2 SWAP1 PUSH2 0x295D JUMP JUMPDEST PUSH1 0x7 DUP2 SWAP1 SSTORE POP POP POP JUMP JUMPDEST PUSH1 0xC PUSH1 0x0 SWAP1 SLOAD SWAP1 PUSH2 0x100 EXP SWAP1 DIV PUSH20 0xFFFFFFFFFFFFFFFFFFFFFFFFFFFFFFFFFFFFFFFF AND DUP2 JUMP JUMPDEST PUSH1 0xB PUSH1 0x0 SWAP1 SLOAD SWAP1 PUSH2 0x100 EXP SWAP1 DIV PUSH20 0xFFFFFFFFFFFFFFFFFFFFFFFFFFFFFFFFFFFFFFFF AND PUSH20 0xFFFFFFFFFFFFFFFFFFFFFFFFFFFFFFFFFFFFFFFF AND CALLER PUSH20 0xFFFFFFFFFFFFFFFFFFFFFFFFFFFFFFFFFFFFFFFF AND EQ PUSH2 0x198D JUMPI PUSH1 0x40 MLOAD PUSH32 0x8C379A000000000000000000000000000000000000000000000000000000000 DUP2 MSTORE PUSH1 0x4 ADD PUSH2 0x1984 SWAP1 PUSH2 0x27AD JUMP JUMPDEST PUSH1 0x40 MLOAD DUP1 SWAP2 SUB SWAP1 REVERT JUMPDEST PUSH1 0x0 ISZERO ISZERO PUSH1 0x8 PUSH1 0x0 SWAP1 SLOAD SWAP1 PUSH2 0x100 EXP SWAP1 DIV PUSH1 0xFF AND ISZERO ISZERO EQ PUSH2 0x19E3 JUMPI PUSH1 0x40 MLOAD PUSH32 0x8C379A000000000000000000000000000000000000000000000000000000000 DUP2 MSTORE PUSH1 0x4 ADD PUSH2 0x19DA SWAP1 PUSH2 0x293D JUMP JUMPDEST PUSH1 0x40 MLOAD DUP1 SWAP2 SUB SWAP1 REVERT JUMPDEST PUSH1 0x1 PUSH1 0x2 PUSH1 0x0 PUSH2 0x100 EXP DUP2 SLOAD DUP2 PUSH1 0xFF MUL NOT AND SWAP1 DUP4 ISZERO ISZERO MUL OR SWAP1 SSTORE POP DUP2 TIMESTAMP PUSH2 0x1A0A SWAP2 SWAP1 PUSH2 0x295D JUMP JUMPDEST PUSH1 0x0 DUP2 SWAP1 SSTORE POP DUP1 PUSH1 0x0 SLOAD PUSH2 0x1A1E SWAP2 SWAP1 PUSH2 0x295D JUMP JUMPDEST PUSH1 0x1 DUP2 SWAP1 SSTORE POP POP POP JUMP JUMPDEST TIMESTAMP PUSH1 0x4 SLOAD LT ISZERO PUSH2 0x1A4E JUMPI PUSH1 0x0 PUSH1 0x5 PUSH1 0x0 PUSH2 0x100 EXP DUP2 SLOAD DUP2 PUSH1 0xFF MUL NOT AND SWAP1 DUP4 ISZERO ISZERO MUL OR SWAP1 SSTORE POP JUMPDEST JUMP JUMPDEST PUSH1 0x0 PUSH2 0x1A5A PUSH2 0x1A28 JUMP JUMPDEST PUSH1 0x1 ISZERO ISZERO PUSH1 0x5 PUSH1 0x0 SWAP1 SLOAD SWAP1 PUSH2 0x100 EXP SWAP1 DIV PUSH1 0xFF AND ISZERO ISZERO EQ PUSH2 0x1AB0 JUMPI PUSH1 0x40 MLOAD PUSH32 0x8C379A000000000000000000000000000000000000000000000000000000000 DUP2 MSTORE PUSH1 0x4 ADD PUSH2 0x1AA7 SWAP1 PUSH2 0x29DD JUMP JUMPDEST PUSH1 0x40 MLOAD DUP1 SWAP2 SUB SWAP1 REVERT JUMPDEST PUSH1 0x0 ISZERO ISZERO PUSH1 0x8 PUSH1 0x0 SWAP1 SLOAD SWAP1 PUSH2 0x100 EXP SWAP1 DIV PUSH1 0xFF AND ISZERO ISZERO EQ PUSH2 0x1B06 JUMPI PUSH1 0x40 MLOAD PUSH32 0x8C379A000000000000000000000000000000000000000000000000000000000 DUP2 MSTORE PUSH1 0x4 ADD PUSH2 0x1AFD SWAP1 PUSH2 0x293D JUMP JUMPDEST PUSH1 0x40 MLOAD DUP1 SWAP2 SUB SWAP1 REVERT JUMPDEST PUSH1 0x0 PUSH1 0x1 SWAP1 POP JUMPDEST PUSH1 0xD SLOAD DUP2 LT ISZERO PUSH2 0x1B9D JUMPI DUP3 PUSH20 0xFFFFFFFFFFFFFFFFFFFFFFFFFFFFFFFFFFFFFFFF AND PUSH1 0xA PUSH1 0x0 DUP4 DUP2 MSTORE PUSH1 0x20 ADD SWAP1 DUP2 MSTORE PUSH1 0x20 ADD PUSH1 0x0 KECCAK256 PUSH1 0x5 ADD PUSH1 0x0 SWAP1 SLOAD SWAP1 PUSH2 0x100 EXP SWAP1 DIV PUSH20 0xFFFFFFFFFFFFFFFFFFFFFFFFFFFFFFFFFFFFFFFF AND PUSH20 0xFFFFFFFFFFFFFFFFFFFFFFFFFFFFFFFFFFFFFFFF AND SUB PUSH2 0x1B8A JUMPI PUSH1 0x0 SWAP2 POP POP PUSH2 0x1BA3 JUMP JUMPDEST DUP1 DUP1 PUSH2 0x1B95 SWAP1 PUSH2 0x26F3 JUMP JUMPDEST SWAP2 POP POP PUSH2 0x1B0D JUMP JUMPDEST POP PUSH1 0x1 SWAP1 POP JUMPDEST SWAP2 SWAP1 POP JUMP JUMPDEST TIMESTAMP PUSH1 0x1 SLOAD LT ISZERO PUSH2 0x1BCE JUMPI PUSH1 0x0 PUSH1 0x2 PUSH1 0x0 PUSH2 0x100 EXP DUP2 SLOAD DUP2 PUSH1 0xFF MUL NOT AND SWAP1 DUP4 ISZERO ISZERO MUL OR SWAP1 SSTORE POP JUMPDEST JUMP JUMPDEST PUSH1 0x0 DUP1 PUSH1 0x1 SWAP1 POP JUMPDEST PUSH1 0xE SLOAD DUP2 LT ISZERO PUSH2 0x1C68 JUMPI DUP3 PUSH20 0xFFFFFFFFFFFFFFFFFFFFFFFFFFFFFFFFFFFFFFFF AND PUSH1 0x9 PUSH1 0x0 DUP4 DUP2 MSTORE PUSH1 0x20 ADD SWAP1 DUP2 MSTORE PUSH1 0x20 ADD PUSH1 0x0 KECCAK256 PUSH1 0x5 ADD PUSH1 0x0 SWAP1 SLOAD SWAP1 PUSH2 0x100 EXP SWAP1 DIV PUSH20 0xFFFFFFFFFFFFFFFFFFFFFFFFFFFFFFFFFFFFFFFF AND PUSH20 0xFFFFFFFFFFFFFFFFFFFFFFFFFFFFFFFFFFFFFFFF AND SUB PUSH2 0x1C55 JUMPI PUSH1 0x0 SWAP2 POP POP PUSH2 0x1C6E JUMP JUMPDEST DUP1 DUP1 PUSH2 0x1C60 SWAP1 PUSH2 0x26F3 JUMP JUMPDEST SWAP2 POP POP PUSH2 0x1BD8 JUMP JUMPDEST POP PUSH1 0x1 SWAP1 POP JUMPDEST SWAP2 SWAP1 POP JUMP JUMPDEST PUSH1 0x40 MLOAD DUP1 PUSH1 0xC0 ADD PUSH1 0x40 MSTORE DUP1 PUSH1 0x60 DUP2 MSTORE PUSH1 0x20 ADD PUSH1 0x0 DUP2 MSTORE PUSH1 0x20 ADD PUSH1 0x0 DUP2 MSTORE PUSH1 0x20 ADD PUSH1 0x60 DUP2 MSTORE PUSH1 0x20 ADD PUSH1 0x0 DUP2 MSTORE PUSH1 0x20 ADD PUSH1 0x0 PUSH20 0xFFFFFFFFFFFFFFFFFFFFFFFFFFFFFFFFFFFFFFFF AND DUP2 MSTORE POP SWAP1 JUMP JUMPDEST PUSH1 0x40 MLOAD DUP1 PUSH1 0xE0 ADD PUSH1 0x40 MSTORE DUP1 PUSH1 0x60 DUP2 MSTORE PUSH1 0x20 ADD PUSH1 0x0 DUP2 MSTORE PUSH1 0x20 ADD PUSH1 0x60 DUP2 MSTORE PUSH1 0x20 ADD PUSH1 0x0 DUP2 MSTORE PUSH1 0x20 ADD PUSH1 0x60 DUP2 MSTORE PUSH1 0x20 ADD PUSH1 0x0 PUSH20 0xFFFFFFFFFFFFFFFFFFFFFFFFFFFFFFFFFFFFFFFF AND DUP2 MSTORE PUSH1 0x20 ADD PUSH1 0x0 DUP2 MSTORE POP SWAP1 JUMP JUMPDEST PUSH1 0x0 DUP2 MLOAD SWAP1 POP SWAP2 SWAP1 POP JUMP JUMPDEST PUSH1 0x0 DUP3 DUP3 MSTORE PUSH1 0x20 DUP3 ADD SWAP1 POP SWAP3 SWAP2 POP POP JUMP JUMPDEST PUSH1 0x0 DUP2 SWAP1 POP PUSH1 0x20 DUP3 ADD SWAP1 POP SWAP2 SWAP1 POP JUMP JUMPDEST PUSH1 0x0 DUP2 MLOAD SWAP1 POP SWAP2 SWAP1 POP JUMP JUMPDEST PUSH1 0x0 DUP3 DUP3 MSTORE PUSH1 0x20 DUP3 ADD SWAP1 POP SWAP3 SWAP2 POP POP JUMP JUMPDEST PUSH1 0x0 JUMPDEST DUP4 DUP2 LT ISZERO PUSH2 0x1D78 JUMPI DUP1 DUP3 ADD MLOAD DUP2 DUP5 ADD MSTORE PUSH1 0x20 DUP2 ADD SWAP1 POP PUSH2 0x1D5D JUMP JUMPDEST PUSH1 0x0 DUP5 DUP5 ADD MSTORE POP POP POP POP JUMP JUMPDEST PUSH1 0x0 PUSH1 0x1F NOT PUSH1 0x1F DUP4 ADD AND SWAP1 POP SWAP2 SWAP1 POP JUMP JUMPDEST PUSH1 0x0 PUSH2 0x1DA0 DUP3 PUSH2 0x1D3E JUMP JUMPDEST PUSH2 0x1DAA DUP2 DUP6 PUSH2 0x1D49 JUMP JUMPDEST SWAP4 POP PUSH2 0x1DBA DUP2 DUP6 PUSH1 0x20 DUP7 ADD PUSH2 0x1D5A JUMP JUMPDEST PUSH2 0x1DC3 DUP2 PUSH2 0x1D84 JUMP JUMPDEST DUP5 ADD SWAP2 POP POP SWAP3 SWAP2 POP POP JUMP JUMPDEST PUSH1 0x0 DUP2 SWAP1 POP SWAP2 SWAP1 POP JUMP JUMPDEST PUSH2 0x1DE1 DUP2 PUSH2 0x1DCE JUMP JUMPDEST DUP3 MSTORE POP POP JUMP JUMPDEST PUSH1 0x0 PUSH20 0xFFFFFFFFFFFFFFFFFFFFFFFFFFFFFFFFFFFFFFFF DUP3 AND SWAP1 POP SWAP2 SWAP1 POP JUMP JUMPDEST PUSH1 0x0 PUSH2 0x1E12 DUP3 PUSH2 0x1DE7 JUMP JUMPDEST SWAP1 POP SWAP2 SWAP1 POP JUMP JUMPDEST PUSH2 0x1E22 DUP2 PUSH2 0x1E07 JUMP JUMPDEST DUP3 MSTORE POP POP JUMP JUMPDEST PUSH1 0x0 PUSH1 0xC0 DUP4 ADD PUSH1 0x0 DUP4 ADD MLOAD DUP5 DUP3 SUB PUSH1 0x0 DUP7 ADD MSTORE PUSH2 0x1E45 DUP3 DUP3 PUSH2 0x1D95 JUMP JUMPDEST SWAP2 POP POP PUSH1 0x20 DUP4 ADD MLOAD PUSH2 0x1E5A PUSH1 0x20 DUP7 ADD DUP3 PUSH2 0x1DD8 JUMP JUMPDEST POP PUSH1 0x40 DUP4 ADD MLOAD PUSH2 0x1E6D PUSH1 0x40 DUP7 ADD DUP3 PUSH2 0x1DD8 JUMP JUMPDEST POP PUSH1 0x60 DUP4 ADD MLOAD DUP5 DUP3 SUB PUSH1 0x60 DUP7 ADD MSTORE PUSH2 0x1E85 DUP3 DUP3 PUSH2 0x1D95 JUMP JUMPDEST SWAP2 POP POP PUSH1 0x80 DUP4 ADD MLOAD PUSH2 0x1E9A PUSH1 0x80 DUP7 ADD DUP3 PUSH2 0x1DD8 JUMP JUMPDEST POP PUSH1 0xA0 DUP4 ADD MLOAD PUSH2 0x1EAD PUSH1 0xA0 DUP7 ADD DUP3 PUSH2 0x1E19 JUMP JUMPDEST POP DUP1 SWAP2 POP POP SWAP3 SWAP2 POP POP JUMP JUMPDEST PUSH1 0x0 PUSH2 0x1EC4 DUP4 DUP4 PUSH2 0x1E28 JUMP JUMPDEST SWAP1 POP SWAP3 SWAP2 POP POP JUMP JUMPDEST PUSH1 0x0 PUSH1 0x20 DUP3 ADD SWAP1 POP SWAP2 SWAP1 POP JUMP JUMPDEST PUSH1 0x0 PUSH2 0x1EE4 DUP3 PUSH2 0x1D12 JUMP JUMPDEST PUSH2 0x1EEE DUP2 DUP6 PUSH2 0x1D1D JUMP JUMPDEST SWAP4 POP DUP4 PUSH1 0x20 DUP3 MUL DUP6 ADD PUSH2 0x1F00 DUP6 PUSH2 0x1D2E JUMP JUMPDEST DUP1 PUSH1 0x0 JUMPDEST DUP6 DUP2 LT ISZERO PUSH2 0x1F3C JUMPI DUP5 DUP5 SUB DUP10 MSTORE DUP2 MLOAD PUSH2 0x1F1D DUP6 DUP3 PUSH2 0x1EB8 JUMP JUMPDEST SWAP5 POP PUSH2 0x1F28 DUP4 PUSH2 0x1ECC JUMP JUMPDEST SWAP3 POP PUSH1 0x20 DUP11 ADD SWAP10 POP POP PUSH1 0x1 DUP2 ADD SWAP1 POP PUSH2 0x1F04 JUMP JUMPDEST POP DUP3 SWAP8 POP DUP8 SWAP6 POP POP POP POP POP POP SWAP3 SWAP2 POP POP JUMP JUMPDEST PUSH1 0x0 PUSH1 0x20 DUP3 ADD SWAP1 POP DUP2 DUP2 SUB PUSH1 0x0 DUP4 ADD MSTORE PUSH2 0x1F68 DUP2 DUP5 PUSH2 0x1ED9 JUMP JUMPDEST SWAP1 POP SWAP3 SWAP2 POP POP JUMP JUMPDEST PUSH2 0x1F79 DUP2 PUSH2 0x1E07 JUMP JUMPDEST DUP3 MSTORE POP POP JUMP JUMPDEST PUSH1 0x0 PUSH1 0x20 DUP3 ADD SWAP1 POP PUSH2 0x1F94 PUSH1 0x0 DUP4 ADD DUP5 PUSH2 0x1F70 JUMP JUMPDEST SWAP3 SWAP2 POP POP JUMP JUMPDEST PUSH1 0x0 DUP2 MLOAD SWAP1 POP SWAP2 SWAP1 POP JUMP JUMPDEST PUSH1 0x0 DUP3 DUP3 MSTORE PUSH1 0x20 DUP3 ADD SWAP1 POP SWAP3 SWAP2 POP POP JUMP JUMPDEST PUSH1 0x0 DUP2 SWAP1 POP PUSH1 0x20 DUP3 ADD SWAP1 POP SWAP2 SWAP1 POP JUMP JUMPDEST PUSH1 0x0 PUSH1 0xE0 DUP4 ADD PUSH1 0x0 DUP4 ADD MLOAD DUP5 DUP3 SUB PUSH1 0x0 DUP7 ADD MSTORE PUSH2 0x1FE3 DUP3 DUP3 PUSH2 0x1D95 JUMP JUMPDEST SWAP2 POP POP PUSH1 0x20 DUP4 ADD MLOAD PUSH2 0x1FF8 PUSH1 0x20 DUP7 ADD DUP3 PUSH2 0x1DD8 JUMP JUMPDEST POP PUSH1 0x40 DUP4 ADD MLOAD DUP5 DUP3 SUB PUSH1 0x40 DUP7 ADD MSTORE PUSH2 0x2010 DUP3 DUP3 PUSH2 0x1D95 JUMP JUMPDEST SWAP2 POP POP PUSH1 0x60 DUP4 ADD MLOAD PUSH2 0x2025 PUSH1 0x60 DUP7 ADD DUP3 PUSH2 0x1DD8 JUMP JUMPDEST POP PUSH1 0x80 DUP4 ADD MLOAD DUP5 DUP3 SUB PUSH1 0x80 DUP7 ADD MSTORE PUSH2 0x203D DUP3 DUP3 PUSH2 0x1D95 JUMP JUMPDEST SWAP2 POP POP PUSH1 0xA0 DUP4 ADD MLOAD PUSH2 0x2052 PUSH1 0xA0 DUP7 ADD DUP3 PUSH2 0x1E19 JUMP JUMPDEST POP PUSH1 0xC0 DUP4 ADD MLOAD PUSH2 0x2065 PUSH1 0xC0 DUP7 ADD DUP3 PUSH2 0x1DD8 JUMP JUMPDEST POP DUP1 SWAP2 POP POP SWAP3 SWAP2 POP POP JUMP JUMPDEST PUSH1 0x0 PUSH2 0x207C DUP4 DUP4 PUSH2 0x1FC6 JUMP JUMPDEST SWAP1 POP SWAP3 SWAP2 POP POP JUMP JUMPDEST PUSH1 0x0 PUSH1 0x20 DUP3 ADD SWAP1 POP SWAP2 SWAP1 POP JUMP JUMPDEST PUSH1 0x0 PUSH2 0x209C DUP3 PUSH2 0x1F9A JUMP JUMPDEST PUSH2 0x20A6 DUP2 DUP6 PUSH2 0x1FA5 JUMP JUMPDEST SWAP4 POP DUP4 PUSH1 0x20 DUP3 MUL DUP6 ADD PUSH2 0x20B8 DUP6 PUSH2 0x1FB6 JUMP JUMPDEST DUP1 PUSH1 0x0 JUMPDEST DUP6 DUP2 LT ISZERO PUSH2 0x20F4 JUMPI DUP5 DUP5 SUB DUP10 MSTORE DUP2 MLOAD PUSH2 0x20D5 DUP6 DUP3 PUSH2 0x2070 JUMP JUMPDEST SWAP5 POP PUSH2 0x20E0 DUP4 PUSH2 0x2084 JUMP JUMPDEST SWAP3 POP PUSH1 0x20 DUP11 ADD SWAP10 POP POP PUSH1 0x1 DUP2 ADD SWAP1 POP PUSH2 0x20BC JUMP JUMPDEST POP DUP3 SWAP8 POP DUP8 SWAP6 POP POP POP POP POP POP SWAP3 SWAP2 POP POP JUMP JUMPDEST PUSH1 0x0 PUSH1 0x20 DUP3 ADD SWAP1 POP DUP2 DUP2 SUB PUSH1 0x0 DUP4 ADD MSTORE PUSH2 0x2120 DUP2 DUP5 PUSH2 0x2091 JUMP JUMPDEST SWAP1 POP SWAP3 SWAP2 POP POP JUMP JUMPDEST PUSH1 0x0 PUSH1 0x40 MLOAD SWAP1 POP SWAP1 JUMP JUMPDEST PUSH1 0x0 DUP1 REVERT JUMPDEST PUSH1 0x0 DUP1 REVERT JUMPDEST PUSH2 0x2145 DUP2 PUSH2 0x1DCE JUMP JUMPDEST DUP2 EQ PUSH2 0x2150 JUMPI PUSH1 0x0 DUP1 REVERT JUMPDEST POP JUMP JUMPDEST PUSH1 0x0 DUP2 CALLDATALOAD SWAP1 POP PUSH2 0x2162 DUP2 PUSH2 0x213C JUMP JUMPDEST SWAP3 SWAP2 POP POP JUMP JUMPDEST PUSH1 0x0 DUP1 PUSH1 0x40 DUP4 DUP6 SUB SLT ISZERO PUSH2 0x217F JUMPI PUSH2 0x217E PUSH2 0x2132 JUMP JUMPDEST JUMPDEST PUSH1 0x0 PUSH2 0x218D DUP6 DUP3 DUP7 ADD PUSH2 0x2153 JUMP JUMPDEST SWAP3 POP POP PUSH1 0x20 PUSH2 0x219E DUP6 DUP3 DUP7 ADD PUSH2 0x2153 JUMP JUMPDEST SWAP2 POP POP SWAP3 POP SWAP3 SWAP1 POP JUMP JUMPDEST PUSH1 0x0 DUP1 REVERT JUMPDEST PUSH1 0x0 DUP1 REVERT JUMPDEST PUSH32 0x4E487B7100000000000000000000000000000000000000000000000000000000 PUSH1 0x0 MSTORE PUSH1 0x41 PUSH1 0x4 MSTORE PUSH1 0x24 PUSH1 0x0 REVERT JUMPDEST PUSH2 0x21EA DUP3 PUSH2 0x1D84 JUMP JUMPDEST DUP2 ADD DUP2 DUP2 LT PUSH8 0xFFFFFFFFFFFFFFFF DUP3 GT OR ISZERO PUSH2 0x2209 JUMPI PUSH2 0x2208 PUSH2 0x21B2 JUMP JUMPDEST JUMPDEST DUP1 PUSH1 0x40 MSTORE POP POP POP JUMP JUMPDEST PUSH1 0x0 PUSH2 0x221C PUSH2 0x2128 JUMP JUMPDEST SWAP1 POP PUSH2 0x2228 DUP3 DUP3 PUSH2 0x21E1 JUMP JUMPDEST SWAP2 SWAP1 POP JUMP JUMPDEST PUSH1 0x0 PUSH8 0xFFFFFFFFFFFFFFFF DUP3 GT ISZERO PUSH2 0x2248 JUMPI PUSH2 0x2247 PUSH2 0x21B2 JUMP JUMPDEST JUMPDEST PUSH2 0x2251 DUP3 PUSH2 0x1D84 JUMP JUMPDEST SWAP1 POP PUSH1 0x20 DUP2 ADD SWAP1 POP SWAP2 SWAP1 POP JUMP JUMPDEST DUP3 DUP2 DUP4 CALLDATACOPY PUSH1 0x0 DUP4 DUP4 ADD MSTORE POP POP POP JUMP JUMPDEST PUSH1 0x0 PUSH2 0x2280 PUSH2 0x227B DUP5 PUSH2 0x222D JUMP JUMPDEST PUSH2 0x2212 JUMP JUMPDEST SWAP1 POP DUP3 DUP2 MSTORE PUSH1 0x20 DUP2 ADD DUP5 DUP5 DUP5 ADD GT ISZERO PUSH2 0x229C JUMPI PUSH2 0x229B PUSH2 0x21AD JUMP JUMPDEST JUMPDEST PUSH2 0x22A7 DUP5 DUP3 DUP6 PUSH2 0x225E JUMP JUMPDEST POP SWAP4 SWAP3 POP POP POP JUMP JUMPDEST PUSH1 0x0 DUP3 PUSH1 0x1F DUP4 ADD SLT PUSH2 0x22C4 JUMPI PUSH2 0x22C3 PUSH2 0x21A8 JUMP JUMPDEST JUMPDEST DUP2 CALLDATALOAD PUSH2 0x22D4 DUP5 DUP3 PUSH1 0x20 DUP7 ADD PUSH2 0x226D JUMP JUMPDEST SWAP2 POP POP SWAP3 SWAP2 POP POP JUMP JUMPDEST PUSH1 0x0 DUP1 PUSH1 0x0 PUSH1 0x60 DUP5 DUP7 SUB SLT ISZERO PUSH2 0x22F6 JUMPI PUSH2 0x22F5 PUSH2 0x2132 JUMP JUMPDEST JUMPDEST PUSH1 0x0 DUP5 ADD CALLDATALOAD PUSH8 0xFFFFFFFFFFFFFFFF DUP2 GT ISZERO PUSH2 0x2314 JUMPI PUSH2 0x2313 PUSH2 0x2137 JUMP JUMPDEST JUMPDEST PUSH2 0x2320 DUP7 DUP3 DUP8 ADD PUSH2 0x22AF JUMP JUMPDEST SWAP4 POP POP PUSH1 0x20 PUSH2 0x2331 DUP7 DUP3 DUP8 ADD PUSH2 0x2153 JUMP JUMPDEST SWAP3 POP POP PUSH1 0x40 DUP5 ADD CALLDATALOAD PUSH8 0xFFFFFFFFFFFFFFFF DUP2 GT ISZERO PUSH2 0x2352 JUMPI PUSH2 0x2351 PUSH2 0x2137 JUMP JUMPDEST JUMPDEST PUSH2 0x235E DUP7 DUP3 DUP8 ADD PUSH2 0x22AF JUMP JUMPDEST SWAP2 POP POP SWAP3 POP SWAP3 POP SWAP3 JUMP JUMPDEST PUSH1 0x0 DUP1 REVERT JUMPDEST PUSH1 0x0 DUP1 REVERT JUMPDEST PUSH1 0x0 DUP1 DUP4 PUSH1 0x1F DUP5 ADD SLT PUSH2 0x2388 JUMPI PUSH2 0x2387 PUSH2 0x21A8 JUMP JUMPDEST JUMPDEST DUP3 CALLDATALOAD SWAP1 POP PUSH8 0xFFFFFFFFFFFFFFFF DUP2 GT ISZERO PUSH2 0x23A5 JUMPI PUSH2 0x23A4 PUSH2 0x2368 JUMP JUMPDEST JUMPDEST PUSH1 0x20 DUP4 ADD SWAP2 POP DUP4 PUSH1 0x1 DUP3 MUL DUP4 ADD GT ISZERO PUSH2 0x23C1 JUMPI PUSH2 0x23C0 PUSH2 0x236D JUMP JUMPDEST JUMPDEST SWAP3 POP SWAP3 SWAP1 POP JUMP JUMPDEST PUSH1 0x0 DUP1 PUSH1 0x0 DUP1 PUSH1 0x0 PUSH1 0x80 DUP7 DUP9 SUB SLT ISZERO PUSH2 0x23E4 JUMPI PUSH2 0x23E3 PUSH2 0x2132 JUMP JUMPDEST JUMPDEST PUSH1 0x0 DUP7 ADD CALLDATALOAD PUSH8 0xFFFFFFFFFFFFFFFF DUP2 GT ISZERO PUSH2 0x2402 JUMPI PUSH2 0x2401 PUSH2 0x2137 JUMP JUMPDEST JUMPDEST PUSH2 0x240E DUP9 DUP3 DUP10 ADD PUSH2 0x2372 JUMP JUMPDEST SWAP6 POP SWAP6 POP POP PUSH1 0x20 PUSH2 0x2421 DUP9 DUP3 DUP10 ADD PUSH2 0x2153 JUMP JUMPDEST SWAP4 POP POP PUSH1 0x40 DUP7 ADD CALLDATALOAD PUSH8 0xFFFFFFFFFFFFFFFF DUP2 GT ISZERO PUSH2 0x2442 JUMPI PUSH2 0x2441 PUSH2 0x2137 JUMP JUMPDEST JUMPDEST PUSH2 0x244E DUP9 DUP3 DUP10 ADD PUSH2 0x22AF JUMP JUMPDEST SWAP3 POP POP PUSH1 0x60 DUP7 ADD CALLDATALOAD PUSH8 0xFFFFFFFFFFFFFFFF DUP2 GT ISZERO PUSH2 0x246F JUMPI PUSH2 0x246E PUSH2 0x2137 JUMP JUMPDEST JUMPDEST PUSH2 0x247B DUP9 DUP3 DUP10 ADD PUSH2 0x22AF JUMP JUMPDEST SWAP2 POP POP SWAP3 SWAP6 POP SWAP3 SWAP6 SWAP1 SWAP4 POP JUMP JUMPDEST PUSH1 0x0 PUSH1 0x20 DUP3 DUP5 SUB SLT ISZERO PUSH2 0x249E JUMPI PUSH2 0x249D PUSH2 0x2132 JUMP JUMPDEST JUMPDEST PUSH1 0x0 PUSH2 0x24AC DUP5 DUP3 DUP6 ADD PUSH2 0x2153 JUMP JUMPDEST SWAP2 POP POP SWAP3 SWAP2 POP POP JUMP JUMPDEST PUSH1 0x0 DUP3 DUP3 MSTORE PUSH1 0x20 DUP3 ADD SWAP1 POP SWAP3 SWAP2 POP POP JUMP JUMPDEST PUSH1 0x0 PUSH2 0x24D1 DUP3 PUSH2 0x1D3E JUMP JUMPDEST PUSH2 0x24DB DUP2 DUP6 PUSH2 0x24B5 JUMP JUMPDEST SWAP4 POP PUSH2 0x24EB DUP2 DUP6 PUSH1 0x20 DUP7 ADD PUSH2 0x1D5A JUMP JUMPDEST PUSH2 0x24F4 DUP2 PUSH2 0x1D84 JUMP JUMPDEST DUP5 ADD SWAP2 POP POP SWAP3 SWAP2 POP POP JUMP JUMPDEST PUSH2 0x2508 DUP2 PUSH2 0x1DCE JUMP JUMPDEST DUP3 MSTORE POP POP JUMP JUMPDEST PUSH1 0x0 PUSH1 0xE0 DUP3 ADD SWAP1 POP DUP2 DUP2 SUB PUSH1 0x0 DUP4 ADD MSTORE PUSH2 0x2528 DUP2 DUP11 PUSH2 0x24C6 JUMP JUMPDEST SWAP1 POP PUSH2 0x2537 PUSH1 0x20 DUP4 ADD DUP10 PUSH2 0x24FF JUMP JUMPDEST DUP2 DUP2 SUB PUSH1 0x40 DUP4 ADD MSTORE PUSH2 0x2549 DUP2 DUP9 PUSH2 0x24C6 JUMP JUMPDEST SWAP1 POP PUSH2 0x2558 PUSH1 0x60 DUP4 ADD DUP8 PUSH2 0x24FF JUMP JUMPDEST DUP2 DUP2 SUB PUSH1 0x80 DUP4 ADD MSTORE PUSH2 0x256A DUP2 DUP7 PUSH2 0x24C6 JUMP JUMPDEST SWAP1 POP PUSH2 0x2579 PUSH1 0xA0 DUP4 ADD DUP6 PUSH2 0x1F70 JUMP JUMPDEST PUSH2 0x2586 PUSH1 0xC0 DUP4 ADD DUP5 PUSH2 0x24FF JUMP JUMPDEST SWAP9 SWAP8 POP POP POP POP POP POP POP POP JUMP JUMPDEST PUSH1 0x0 PUSH1 0xC0 DUP3 ADD SWAP1 POP DUP2 DUP2 SUB PUSH1 0x0 DUP4 ADD MSTORE PUSH2 0x25AC DUP2 DUP10 PUSH2 0x24C6 JUMP JUMPDEST SWAP1 POP PUSH2 0x25BB PUSH1 0x20 DUP4 ADD DUP9 PUSH2 0x24FF JUMP JUMPDEST PUSH2 0x25C8 PUSH1 0x40 DUP4 ADD DUP8 PUSH2 0x24FF JUMP JUMPDEST DUP2 DUP2 SUB PUSH1 0x60 DUP4 ADD MSTORE PUSH2 0x25DA DUP2 DUP7 PUSH2 0x24C6 JUMP JUMPDEST SWAP1 POP PUSH2 0x25E9 PUSH1 0x80 DUP4 ADD DUP6 PUSH2 0x24FF JUMP JUMPDEST PUSH2 0x25F6 PUSH1 0xA0 DUP4 ADD DUP5 PUSH2 0x1F70 JUMP JUMPDEST SWAP8 SWAP7 POP POP POP POP POP POP POP JUMP JUMPDEST PUSH32 0x4E487B7100000000000000000000000000000000000000000000000000000000 PUSH1 0x0 MSTORE PUSH1 0x11 PUSH1 0x4 MSTORE PUSH1 0x24 PUSH1 0x0 REVERT JUMPDEST PUSH1 0x0 PUSH2 0x263B DUP3 PUSH2 0x1DCE JUMP JUMPDEST SWAP2 POP PUSH2 0x2646 DUP4 PUSH2 0x1DCE JUMP JUMPDEST SWAP3 POP DUP3 DUP3 SUB SWAP1 POP DUP2 DUP2 GT ISZERO PUSH2 0x265E JUMPI PUSH2 0x265D PUSH2 0x2601 JUMP JUMPDEST JUMPDEST SWAP3 SWAP2 POP POP JUMP JUMPDEST PUSH32 0x4E487B7100000000000000000000000000000000000000000000000000000000 PUSH1 0x0 MSTORE PUSH1 0x22 PUSH1 0x4 MSTORE PUSH1 0x24 PUSH1 0x0 REVERT JUMPDEST PUSH1 0x0 PUSH1 0x2 DUP3 DIV SWAP1 POP PUSH1 0x1 DUP3 AND DUP1 PUSH2 0x26AB JUMPI PUSH1 0x7F DUP3 AND SWAP2 POP JUMPDEST PUSH1 0x20 DUP3 LT DUP2 SUB PUSH2 0x26BE JUMPI PUSH2 0x26BD PUSH2 0x2664 JUMP JUMPDEST JUMPDEST POP SWAP2 SWAP1 POP JUMP JUMPDEST PUSH32 0x4E487B7100000000000000000000000000000000000000000000000000000000 PUSH1 0x0 MSTORE PUSH1 0x32 PUSH1 0x4 MSTORE PUSH1 0x24 PUSH1 0x0 REVERT JUMPDEST PUSH1 0x0 PUSH2 0x26FE DUP3 PUSH2 0x1DCE JUMP JUMPDEST SWAP2 POP PUSH32 0xFFFFFFFFFFFFFFFFFFFFFFFFFFFFFFFFFFFFFFFFFFFFFFFFFFFFFFFFFFFFFFFF DUP3 SUB PUSH2 0x2730 JUMPI PUSH2 0x272F PUSH2 0x2601 JUMP JUMPDEST JUMPDEST PUSH1 0x1 DUP3 ADD SWAP1 POP SWAP2 SWAP1 POP JUMP JUMPDEST PUSH32 0x596F7520617265206E6F742066726F6D20656C656374696F6E20636F6D697373 PUSH1 0x0 DUP3 ADD MSTORE PUSH32 0x696F6E0000000000000000000000000000000000000000000000000000000000 PUSH1 0x20 DUP3 ADD MSTORE POP JUMP JUMPDEST PUSH1 0x0 PUSH2 0x2797 PUSH1 0x23 DUP4 PUSH2 0x24B5 JUMP JUMPDEST SWAP2 POP PUSH2 0x27A2 DUP3 PUSH2 0x273B JUMP JUMPDEST PUSH1 0x40 DUP3 ADD SWAP1 POP SWAP2 SWAP1 POP JUMP JUMPDEST PUSH1 0x0 PUSH1 0x20 DUP3 ADD SWAP1 POP DUP2 DUP2 SUB PUSH1 0x0 DUP4 ADD MSTORE PUSH2 0x27C6 DUP2 PUSH2 0x278A JUMP JUMPDEST SWAP1 POP SWAP2 SWAP1 POP JUMP JUMPDEST PUSH32 0x43616E64696461746520726567697374726174696F6E20706861736520697320 PUSH1 0x0 DUP3 ADD MSTORE PUSH32 0x6E6F7420636C6F73656400000000000000000000000000000000000000000000 PUSH1 0x20 DUP3 ADD MSTORE POP JUMP JUMPDEST PUSH1 0x0 PUSH2 0x2829 PUSH1 0x2A DUP4 PUSH2 0x24B5 JUMP JUMPDEST SWAP2 POP PUSH2 0x2834 DUP3 PUSH2 0x27CD JUMP JUMPDEST PUSH1 0x40 DUP3 ADD SWAP1 POP SWAP2 SWAP1 POP JUMP JUMPDEST PUSH1 0x0 PUSH1 0x20 DUP3 ADD SWAP1 POP DUP2 DUP2 SUB PUSH1 0x0 DUP4 ADD MSTORE PUSH2 0x2858 DUP2 PUSH2 0x281C JUMP JUMPDEST SWAP1 POP SWAP2 SWAP1 POP JUMP JUMPDEST PUSH32 0x566F74696E6720697320696E20636F6E64756374696F6E207068617365206973 PUSH1 0x0 DUP3 ADD MSTORE PUSH32 0x206E6F7420636C6F736564000000000000000000000000000000000000000000 PUSH1 0x20 DUP3 ADD MSTORE POP JUMP JUMPDEST PUSH1 0x0 PUSH2 0x28BB PUSH1 0x2B DUP4 PUSH2 0x24B5 JUMP JUMPDEST SWAP2 POP PUSH2 0x28C6 DUP3 PUSH2 0x285F JUMP JUMPDEST PUSH1 0x40 DUP3 ADD SWAP1 POP SWAP2 SWAP1 POP JUMP JUMPDEST PUSH1 0x0 PUSH1 0x20 DUP3 ADD SWAP1 POP DUP2 DUP2 SUB PUSH1 0x0 DUP4 ADD MSTORE PUSH2 0x28EA DUP2 PUSH2 0x28AE JUMP JUMPDEST SWAP1 POP SWAP2 SWAP1 POP JUMP JUMPDEST PUSH32 0x566F74696E67206973206F6E676F696E67000000000000000000000000000000 PUSH1 0x0 DUP3 ADD MSTORE POP JUMP JUMPDEST PUSH1 0x0 PUSH2 0x2927 PUSH1 0x11 DUP4 PUSH2 0x24B5 JUMP JUMPDEST SWAP2 POP PUSH2 0x2932 DUP3 PUSH2 0x28F1 JUMP JUMPDEST PUSH1 0x20 DUP3 ADD SWAP1 POP SWAP2 SWAP1 POP JUMP JUMPDEST PUSH1 0x0 PUSH1 0x20 DUP3 ADD SWAP1 POP DUP2 DUP2 SUB PUSH1 0x0 DUP4 ADD MSTORE PUSH2 0x2956 DUP2 PUSH2 0x291A JUMP JUMPDEST SWAP1 POP SWAP2 SWAP1 POP JUMP JUMPDEST PUSH1 0x0 PUSH2 0x2968 DUP3 PUSH2 0x1DCE JUMP JUMPDEST SWAP2 POP PUSH2 0x2973 DUP4 PUSH2 0x1DCE JUMP JUMPDEST SWAP3 POP DUP3 DUP3 ADD SWAP1 POP DUP1 DUP3 GT ISZERO PUSH2 0x298B JUMPI PUSH2 0x298A PUSH2 0x2601 JUMP JUMPDEST JUMPDEST SWAP3 SWAP2 POP POP JUMP JUMPDEST PUSH32 0x566F74657220726567697374726174696F6E20697320636C6F73656400000000 PUSH1 0x0 DUP3 ADD MSTORE POP JUMP JUMPDEST PUSH1 0x0 PUSH2 0x29C7 PUSH1 0x1C DUP4 PUSH2 0x24B5 JUMP JUMPDEST SWAP2 POP PUSH2 0x29D2 DUP3 PUSH2 0x2991 JUMP JUMPDEST PUSH1 0x20 DUP3 ADD SWAP1 POP SWAP2 SWAP1 POP JUMP JUMPDEST PUSH1 0x0 PUSH1 0x20 DUP3 ADD SWAP1 POP DUP2 DUP2 SUB PUSH1 0x0 DUP4 ADD MSTORE PUSH2 0x29F6 DUP2 PUSH2 0x29BA JUMP JUMPDEST SWAP1 POP SWAP2 SWAP1 POP JUMP JUMPDEST PUSH32 0x596F75612061726520756E646572206167650000000000000000000000000000 PUSH1 0x0 DUP3 ADD MSTORE POP JUMP JUMPDEST PUSH1 0x0 PUSH2 0x2A33 PUSH1 0x12 DUP4 PUSH2 0x24B5 JUMP JUMPDEST SWAP2 POP PUSH2 0x2A3E DUP3 PUSH2 0x29FD JUMP JUMPDEST PUSH1 0x20 DUP3 ADD SWAP1 POP SWAP2 SWAP1 POP JUMP JUMPDEST PUSH1 0x0 PUSH1 0x20 DUP3 ADD SWAP1 POP DUP2 DUP2 SUB PUSH1 0x0 DUP4 ADD MSTORE PUSH2 0x2A62 DUP2 PUSH2 0x2A26 JUMP JUMPDEST SWAP1 POP SWAP2 SWAP1 POP JUMP JUMPDEST PUSH32 0x416C726561647920726567697374657264000000000000000000000000000000 PUSH1 0x0 DUP3 ADD MSTORE POP JUMP JUMPDEST PUSH1 0x0 PUSH2 0x2A9F PUSH1 0x11 DUP4 PUSH2 0x24B5 JUMP JUMPDEST SWAP2 POP PUSH2 0x2AAA DUP3 PUSH2 0x2A69 JUMP JUMPDEST PUSH1 0x20 DUP3 ADD SWAP1 POP SWAP2 SWAP1 POP JUMP JUMPDEST PUSH1 0x0 PUSH1 0x20 DUP3 ADD SWAP1 POP DUP2 DUP2 SUB PUSH1 0x0 DUP4 ADD MSTORE PUSH2 0x2ACE DUP2 PUSH2 0x2A92 JUMP JUMPDEST SWAP1 POP SWAP2 SWAP1 POP JUMP JUMPDEST PUSH1 0x0 DUP2 SWAP1 POP DUP2 PUSH1 0x0 MSTORE PUSH1 0x20 PUSH1 0x0 KECCAK256 SWAP1 POP SWAP2 SWAP1 POP JUMP JUMPDEST PUSH1 0x0 PUSH1 0x20 PUSH1 0x1F DUP4 ADD DIV SWAP1 POP SWAP2 SWAP1 POP JUMP JUMPDEST PUSH1 0x0 DUP3 DUP3 SHL SWAP1 POP SWAP3 SWAP2 POP POP JUMP JUMPDEST PUSH1 0x0 PUSH1 0x8 DUP4 MUL PUSH2 0x2B37 PUSH32 0xFFFFFFFFFFFFFFFFFFFFFFFFFFFFFFFFFFFFFFFFFFFFFFFFFFFFFFFFFFFFFFFF DUP3 PUSH2 0x2AFA JUMP JUMPDEST PUSH2 0x2B41 DUP7 DUP4 PUSH2 0x2AFA JUMP JUMPDEST SWAP6 POP DUP1 NOT DUP5 AND SWAP4 POP DUP1 DUP7 AND DUP5 OR SWAP3 POP POP POP SWAP4 SWAP3 POP POP POP JUMP JUMPDEST PUSH1 0x0 DUP2 SWAP1 POP SWAP2 SWAP1 POP JUMP JUMPDEST PUSH1 0x0 PUSH2 0x2B7E PUSH2 0x2B79 PUSH2 0x2B74 DUP5 PUSH2 0x1DCE JUMP JUMPDEST PUSH2 0x2B59 JUMP JUMPDEST PUSH2 0x1DCE JUMP JUMPDEST SWAP1 POP SWAP2 SWAP1 POP JUMP JUMPDEST PUSH1 0x0 DUP2 SWAP1 POP SWAP2 SWAP1 POP JUMP JUMPDEST PUSH2 0x2B98 DUP4 PUSH2 0x2B63 JUMP JUMPDEST PUSH2 0x2BAC PUSH2 0x2BA4 DUP3 PUSH2 0x2B85 JUMP JUMPDEST DUP5 DUP5 SLOAD PUSH2 0x2B07 JUMP JUMPDEST DUP3 SSTORE POP POP POP POP JUMP JUMPDEST PUSH1 0x0 SWAP1 JUMP JUMPDEST PUSH2 0x2BC1 PUSH2 0x2BB4 JUMP JUMPDEST PUSH2 0x2BCC DUP2 DUP5 DUP5 PUSH2 0x2B8F JUMP JUMPDEST POP POP POP JUMP JUMPDEST JUMPDEST DUP2 DUP2 LT ISZERO PUSH2 0x2BF0 JUMPI PUSH2 0x2BE5 PUSH1 0x0 DUP3 PUSH2 0x2BB9 JUMP JUMPDEST PUSH1 0x1 DUP2 ADD SWAP1 POP PUSH2 0x2BD2 JUMP JUMPDEST POP POP JUMP JUMPDEST PUSH1 0x1F DUP3 GT ISZERO PUSH2 0x2C35 JUMPI PUSH2 0x2C06 DUP2 PUSH2 0x2AD5 JUMP JUMPDEST PUSH2 0x2C0F DUP5 PUSH2 0x2AEA JUMP JUMPDEST DUP2 ADD PUSH1 0x20 DUP6 LT ISZERO PUSH2 0x2C1E JUMPI DUP2 SWAP1 POP JUMPDEST PUSH2 0x2C32 PUSH2 0x2C2A DUP6 PUSH2 0x2AEA JUMP JUMPDEST DUP4 ADD DUP3 PUSH2 0x2BD1 JUMP JUMPDEST POP POP JUMPDEST POP POP POP JUMP JUMPDEST PUSH1 0x0 DUP3 DUP3 SHR SWAP1 POP SWAP3 SWAP2 POP POP JUMP JUMPDEST PUSH1 0x0 PUSH2 0x2C58 PUSH1 0x0 NOT DUP5 PUSH1 0x8 MUL PUSH2 0x2C3A JUMP JUMPDEST NOT DUP1 DUP4 AND SWAP2 POP POP SWAP3 SWAP2 POP POP JUMP JUMPDEST PUSH1 0x0 PUSH2 0x2C71 DUP4 DUP4 PUSH2 0x2C47 JUMP JUMPDEST SWAP2 POP DUP3 PUSH1 0x2 MUL DUP3 OR SWAP1 POP SWAP3 SWAP2 POP POP JUMP JUMPDEST PUSH2 0x2C8A DUP3 PUSH2 0x1D3E JUMP JUMPDEST PUSH8 0xFFFFFFFFFFFFFFFF DUP2 GT ISZERO PUSH2 0x2CA3 JUMPI PUSH2 0x2CA2 PUSH2 0x21B2 JUMP JUMPDEST JUMPDEST PUSH2 0x2CAD DUP3 SLOAD PUSH2 0x2693 JUMP JUMPDEST PUSH2 0x2CB8 DUP3 DUP3 DUP6 PUSH2 0x2BF4 JUMP JUMPDEST PUSH1 0x0 PUSH1 0x20 SWAP1 POP PUSH1 0x1F DUP4 GT PUSH1 0x1 DUP2 EQ PUSH2 0x2CEB JUMPI PUSH1 0x0 DUP5 ISZERO PUSH2 0x2CD9 JUMPI DUP3 DUP8 ADD MLOAD SWAP1 POP JUMPDEST PUSH2 0x2CE3 DUP6 DUP3 PUSH2 0x2C65 JUMP JUMPDEST DUP7 SSTORE POP PUSH2 0x2D4B JUMP JUMPDEST PUSH1 0x1F NOT DUP5 AND PUSH2 0x2CF9 DUP7 PUSH2 0x2AD5 JUMP JUMPDEST PUSH1 0x0 JUMPDEST DUP3 DUP2 LT ISZERO PUSH2 0x2D21 JUMPI DUP5 DUP10 ADD MLOAD DUP3 SSTORE PUSH1 0x1 DUP3 ADD SWAP2 POP PUSH1 0x20 DUP6 ADD SWAP5 POP PUSH1 0x20 DUP2 ADD SWAP1 POP PUSH2 0x2CFC JUMP JUMPDEST DUP7 DUP4 LT ISZERO PUSH2 0x2D3E JUMPI DUP5 DUP10 ADD MLOAD PUSH2 0x2D3A PUSH1 0x1F DUP10 AND DUP3 PUSH2 0x2C47 JUMP JUMPDEST DUP4 SSTORE POP JUMPDEST PUSH1 0x1 PUSH1 0x2 DUP9 MUL ADD DUP9 SSTORE POP POP POP JUMPDEST POP POP POP POP POP POP JUMP JUMPDEST PUSH32 0x43616E64696461746520526567697374726174696F6E20697320636C6F736564 PUSH1 0x0 DUP3 ADD MSTORE POP JUMP JUMPDEST PUSH1 0x0 PUSH2 0x2D89 PUSH1 0x20 DUP4 PUSH2 0x24B5 JUMP JUMPDEST SWAP2 POP PUSH2 0x2D94 DUP3 PUSH2 0x2D53 JUMP JUMPDEST PUSH1 0x20 DUP3 ADD SWAP1 POP SWAP2 SWAP1 POP JUMP JUMPDEST PUSH1 0x0 PUSH1 0x20 DUP3 ADD SWAP1 POP DUP2 DUP2 SUB PUSH1 0x0 DUP4 ADD MSTORE PUSH2 0x2DB8 DUP2 PUSH2 0x2D7C JUMP JUMPDEST SWAP1 POP SWAP2 SWAP1 POP JUMP JUMPDEST PUSH32 0x596F75206172652066726F6D20656C656374696F6E20636F6D697373696F6E00 PUSH1 0x0 DUP3 ADD MSTORE POP JUMP JUMPDEST PUSH1 0x0 PUSH2 0x2DF5 PUSH1 0x1F DUP4 PUSH2 0x24B5 JUMP JUMPDEST SWAP2 POP PUSH2 0x2E00 DUP3 PUSH2 0x2DBF JUMP JUMPDEST PUSH1 0x20 DUP3 ADD SWAP1 POP SWAP2 SWAP1 POP JUMP JUMPDEST PUSH1 0x0 PUSH1 0x20 DUP3 ADD SWAP1 POP DUP2 DUP2 SUB PUSH1 0x0 DUP4 ADD MSTORE PUSH2 0x2E24 DUP2 PUSH2 0x2DE8 JUMP JUMPDEST SWAP1 POP SWAP2 SWAP1 POP JUMP JUMPDEST PUSH32 0x596F75206861766520766F746564000000000000000000000000000000000000 PUSH1 0x0 DUP3 ADD MSTORE POP JUMP JUMPDEST PUSH1 0x0 PUSH2 0x2E61 PUSH1 0xE DUP4 PUSH2 0x24B5 JUMP JUMPDEST SWAP2 POP PUSH2 0x2E6C DUP3 PUSH2 0x2E2B JUMP JUMPDEST PUSH1 0x20 DUP3 ADD SWAP1 POP SWAP2 SWAP1 POP JUMP JUMPDEST PUSH1 0x0 PUSH1 0x20 DUP3 ADD SWAP1 POP DUP2 DUP2 SUB PUSH1 0x0 DUP4 ADD MSTORE PUSH2 0x2E90 DUP2 PUSH2 0x2E54 JUMP JUMPDEST SWAP1 POP SWAP2 SWAP1 POP JUMP JUMPDEST PUSH32 0x596F752063616E7420766F74652066726F6D206F746865727320626568616C66 PUSH1 0x0 DUP3 ADD MSTORE POP JUMP JUMPDEST PUSH1 0x0 PUSH2 0x2ECD PUSH1 0x20 DUP4 PUSH2 0x24B5 JUMP JUMPDEST SWAP2 POP PUSH2 0x2ED8 DUP3 PUSH2 0x2E97 JUMP JUMPDEST PUSH1 0x20 DUP3 ADD SWAP1 POP SWAP2 SWAP1 POP JUMP JUMPDEST PUSH1 0x0 PUSH1 0x20 DUP3 ADD SWAP1 POP DUP2 DUP2 SUB PUSH1 0x0 DUP4 ADD MSTORE PUSH2 0x2EFC DUP2 PUSH2 0x2EC0 JUMP JUMPDEST SWAP1 POP SWAP2 SWAP1 POP JUMP JUMPDEST PUSH32 0x43616E6469646174657320617265206E6F74207265676973746572656420636F PUSH1 0x0 DUP3 ADD MSTORE PUSH32 0x6D706C6574656C79000000000000000000000000000000000000000000000000 PUSH1 0x20 DUP3 ADD MSTORE POP JUMP JUMPDEST PUSH1 0x0 PUSH2 0x2F5F PUSH1 0x28 DUP4 PUSH2 0x24B5 JUMP JUMPDEST SWAP2 POP PUSH2 0x2F6A DUP3 PUSH2 0x2F03 JUMP JUMPDEST PUSH1 0x40 DUP3 ADD SWAP1 POP SWAP2 SWAP1 POP JUMP JUMPDEST PUSH1 0x0 PUSH1 0x20 DUP3 ADD SWAP1 POP DUP2 DUP2 SUB PUSH1 0x0 DUP4 ADD MSTORE PUSH2 0x2F8E DUP2 PUSH2 0x2F52 JUMP JUMPDEST SWAP1 POP SWAP2 SWAP1 POP JUMP JUMPDEST PUSH32 0x566F74696E67206973206E6F7420737461727465640000000000000000000000 PUSH1 0x0 DUP3 ADD MSTORE POP JUMP JUMPDEST PUSH1 0x0 PUSH2 0x2FCB PUSH1 0x15 DUP4 PUSH2 0x24B5 JUMP JUMPDEST SWAP2 POP PUSH2 0x2FD6 DUP3 PUSH2 0x2F95 JUMP JUMPDEST PUSH1 0x20 DUP3 ADD SWAP1 POP SWAP2 SWAP1 POP JUMP JUMPDEST PUSH1 0x0 PUSH1 0x20 DUP3 ADD SWAP1 POP DUP2 DUP2 SUB PUSH1 0x0 DUP4 ADD MSTORE PUSH2 0x2FFA DUP2 PUSH2 0x2FBE JUMP JUMPDEST SWAP1 POP SWAP2 SWAP1 POP JUMP JUMPDEST PUSH32 0x43616E64696461746520646F6573206E6F742065786973740000000000000000 PUSH1 0x0 DUP3 ADD MSTORE POP JUMP JUMPDEST PUSH1 0x0 PUSH2 0x3037 PUSH1 0x18 DUP4 PUSH2 0x24B5 JUMP JUMPDEST SWAP2 POP PUSH2 0x3042 DUP3 PUSH2 0x3001 JUMP JUMPDEST PUSH1 0x20 DUP3 ADD SWAP1 POP SWAP2 SWAP1 POP JUMP JUMPDEST PUSH1 0x0 PUSH1 0x20 DUP3 ADD SWAP1 POP DUP2 DUP2 SUB PUSH1 0x0 DUP4 ADD MSTORE PUSH2 0x3066 DUP2 PUSH2 0x302A JUMP JUMPDEST SWAP1 POP SWAP2 SWAP1 POP JUMP JUMPDEST PUSH32 0x52657175697265642063616E646964617465732061726520696E737566666963 PUSH1 0x0 DUP3 ADD MSTORE PUSH32 0x69656E7400000000000000000000000000000000000000000000000000000000 PUSH1 0x20 DUP3 ADD MSTORE POP JUMP JUMPDEST PUSH1 0x0 PUSH2 0x30C9 PUSH1 0x24 DUP4 PUSH2 0x24B5 JUMP JUMPDEST SWAP2 POP PUSH2 0x30D4 DUP3 PUSH2 0x306D JUMP JUMPDEST PUSH1 0x40 DUP3 ADD SWAP1 POP SWAP2 SWAP1 POP JUMP JUMPDEST PUSH1 0x0 PUSH1 0x20 DUP3 ADD SWAP1 POP DUP2 DUP2 SUB PUSH1 0x0 DUP4 ADD MSTORE PUSH2 0x30F8 DUP2 PUSH2 0x30BC JUMP JUMPDEST SWAP1 POP SWAP2 SWAP1 POP JUMP JUMPDEST PUSH32 0x43616E64696461746520726567697374726174696F6E20697320676F696E6720 PUSH1 0x0 DUP3 ADD MSTORE PUSH32 0x6F6E000000000000000000000000000000000000000000000000000000000000 PUSH1 0x20 DUP3 ADD MSTORE POP JUMP JUMPDEST PUSH1 0x0 PUSH2 0x315B PUSH1 0x22 DUP4 PUSH2 0x24B5 JUMP JUMPDEST SWAP2 POP PUSH2 0x3166 DUP3 PUSH2 0x30FF JUMP JUMPDEST PUSH1 0x40 DUP3 ADD SWAP1 POP SWAP2 SWAP1 POP JUMP JUMPDEST PUSH1 0x0 PUSH1 0x20 DUP3 ADD SWAP1 POP DUP2 DUP2 SUB PUSH1 0x0 DUP4 ADD MSTORE PUSH2 0x318A DUP2 PUSH2 0x314E JUMP JUMPDEST SWAP1 POP SWAP2 SWAP1 POP JUMP JUMPDEST PUSH32 0x766F74657220726567697374726174696F6E20697320676F696E67206F6E0000 PUSH1 0x0 DUP3 ADD MSTORE POP JUMP JUMPDEST PUSH1 0x0 PUSH2 0x31C7 PUSH1 0x1E DUP4 PUSH2 0x24B5 JUMP JUMPDEST SWAP2 POP PUSH2 0x31D2 DUP3 PUSH2 0x3191 JUMP JUMPDEST PUSH1 0x20 DUP3 ADD SWAP1 POP SWAP2 SWAP1 POP JUMP JUMPDEST PUSH1 0x0 PUSH1 0x20 DUP3 ADD SWAP1 POP DUP2 DUP2 SUB PUSH1 0x0 DUP4 ADD MSTORE PUSH2 0x31F6 DUP2 PUSH2 0x31BA JUMP JUMPDEST SWAP1 POP SWAP2 SWAP1 POP JUMP INVALID LOG2 PUSH5 0x6970667358 0x22 SLT KECCAK256 0xAF SGT SWAP10 STOP SAR STATICCALL SWAP14 0xD5 CODESIZE 0x24 0xB3 DUP6 0xCD 0x1E KECCAK256 0xE0 0xDD 0xCF DUP4 PUSH4 0x4102CA4B 0xE0 SWAP5 0xC1 PUSH10 0x3380B88964736F6C6343 STOP ADDMOD SLT STOP CALLER "
				},
				"gasEstimates": {
					"creation": {
						"codeDepositCost": "2570200",
						"executionCost": "infinite",
						"totalCost": "infinite"
					},
					"external": {
						"CandidateDetails(uint256)": "infinite",
						"VoterDetails(uint256)": "infinite",
						"candidateList()": "infinite",
						"candidateRegister(string,uint256,string,string)": "infinite",
						"candidateRegistrationSet(uint256,uint256)": "infinite",
						"selectWinner()": "infinite",
						"vote(uint256,uint256)": "infinite",
						"voterList()": "infinite",
						"voterRegistration(string,uint256,string)": "infinite",
						"voterRegistrationSet(uint256,uint256)": "infinite",
						"votingPeriodSet(uint256,uint256)": "infinite",
						"winner()": "2602"
					},
					"internal": {
						"candidateRegistrationPhaseStatus()": "26401",
						"candidateVerification(address)": "infinite",
						"voterRegistrationPhaseStatus()": "26401",
						"voterVerification(address)": "infinite",
						"votingPhaseStatus()": "infinite"
					}
				},
				"methodIdentifiers": {
					"CandidateDetails(uint256)": "6d2bc1eb",
					"VoterDetails(uint256)": "7da0e15e",
					"candidateList()": "498ea441",
					"candidateRegister(string,uint256,string,string)": "69042bec",
					"candidateRegistrationSet(uint256,uint256)": "f83f40db",
					"selectWinner()": "33a99e04",
					"vote(uint256,uint256)": "b384abef",
					"voterList()": "24089918",
					"voterRegistration(string,uint256,string)": "5d74b023",
					"voterRegistrationSet(uint256,uint256)": "5042746c",
					"votingPeriodSet(uint256,uint256)": "c0636b91",
					"winner()": "dfbf53ae"
				}
			},
			"storageLayout": {
				"storage": [
					{
						"astId": 31,
						"contract": "Voting Contract/contracts/myVoting.sol:VotingContract",
						"label": "candidate_Registraion_Start",
						"offset": 0,
						"slot": "0",
						"type": "t_uint256"
					},
					{
						"astId": 33,
						"contract": "Voting Contract/contracts/myVoting.sol:VotingContract",
						"label": "candidate_Registraion_End",
						"offset": 0,
						"slot": "1",
						"type": "t_uint256"
					},
					{
						"astId": 36,
						"contract": "Voting Contract/contracts/myVoting.sol:VotingContract",
						"label": "candidate_Registration_Time",
						"offset": 0,
						"slot": "2",
						"type": "t_bool"
					},
					{
						"astId": 38,
						"contract": "Voting Contract/contracts/myVoting.sol:VotingContract",
						"label": "voter_Registraion_Start",
						"offset": 0,
						"slot": "3",
						"type": "t_uint256"
					},
					{
						"astId": 40,
						"contract": "Voting Contract/contracts/myVoting.sol:VotingContract",
						"label": "voter_Registraion_End",
						"offset": 0,
						"slot": "4",
						"type": "t_uint256"
					},
					{
						"astId": 43,
						"contract": "Voting Contract/contracts/myVoting.sol:VotingContract",
						"label": "voter_Registration_Time",
						"offset": 0,
						"slot": "5",
						"type": "t_bool"
					},
					{
						"astId": 45,
						"contract": "Voting Contract/contracts/myVoting.sol:VotingContract",
						"label": "voting_Conduction_Start",
						"offset": 0,
						"slot": "6",
						"type": "t_uint256"
					},
					{
						"astId": 47,
						"contract": "Voting Contract/contracts/myVoting.sol:VotingContract",
						"label": "voting_Conduction_End",
						"offset": 0,
						"slot": "7",
						"type": "t_uint256"
					},
					{
						"astId": 50,
						"contract": "Voting Contract/contracts/myVoting.sol:VotingContract",
						"label": "votingConductionTime",
						"offset": 0,
						"slot": "8",
						"type": "t_bool"
					},
					{
						"astId": 55,
						"contract": "Voting Contract/contracts/myVoting.sol:VotingContract",
						"label": "CandidateDetails",
						"offset": 0,
						"slot": "9",
						"type": "t_mapping(t_uint256,t_struct(Candidate)29_storage)"
					},
					{
						"astId": 60,
						"contract": "Voting Contract/contracts/myVoting.sol:VotingContract",
						"label": "VoterDetails",
						"offset": 0,
						"slot": "10",
						"type": "t_mapping(t_uint256,t_struct(Voter)14_storage)"
					},
					{
						"astId": 62,
						"contract": "Voting Contract/contracts/myVoting.sol:VotingContract",
						"label": "ElectionComission",
						"offset": 0,
						"slot": "11",
						"type": "t_address"
					},
					{
						"astId": 64,
						"contract": "Voting Contract/contracts/myVoting.sol:VotingContract",
						"label": "winner",
						"offset": 0,
						"slot": "12",
						"type": "t_address"
					},
					{
						"astId": 67,
						"contract": "Voting Contract/contracts/myVoting.sol:VotingContract",
						"label": "nextVoterID",
						"offset": 0,
						"slot": "13",
						"type": "t_uint256"
					},
					{
						"astId": 70,
						"contract": "Voting Contract/contracts/myVoting.sol:VotingContract",
						"label": "nextCandidateID",
						"offset": 0,
						"slot": "14",
						"type": "t_uint256"
					},
					{
						"astId": 73,
						"contract": "Voting Contract/contracts/myVoting.sol:VotingContract",
						"label": "stopVoting",
						"offset": 0,
						"slot": "15",
						"type": "t_bool"
					}
				],
				"types": {
					"t_address": {
						"encoding": "inplace",
						"label": "address",
						"numberOfBytes": "20"
					},
					"t_bool": {
						"encoding": "inplace",
						"label": "bool",
						"numberOfBytes": "1"
					},
					"t_mapping(t_uint256,t_struct(Candidate)29_storage)": {
						"encoding": "mapping",
						"key": "t_uint256",
						"label": "mapping(uint256 => struct VotingContract.Candidate)",
						"numberOfBytes": "32",
						"value": "t_struct(Candidate)29_storage"
					},
					"t_mapping(t_uint256,t_struct(Voter)14_storage)": {
						"encoding": "mapping",
						"key": "t_uint256",
						"label": "mapping(uint256 => struct VotingContract.Voter)",
						"numberOfBytes": "32",
						"value": "t_struct(Voter)14_storage"
					},
					"t_string_storage": {
						"encoding": "bytes",
						"label": "string",
						"numberOfBytes": "32"
					},
					"t_struct(Candidate)29_storage": {
						"encoding": "inplace",
						"label": "struct VotingContract.Candidate",
						"members": [
							{
								"astId": 16,
								"contract": "Voting Contract/contracts/myVoting.sol:VotingContract",
								"label": "name",
								"offset": 0,
								"slot": "0",
								"type": "t_string_storage"
							},
							{
								"astId": 18,
								"contract": "Voting Contract/contracts/myVoting.sol:VotingContract",
								"label": "age",
								"offset": 0,
								"slot": "1",
								"type": "t_uint256"
							},
							{
								"astId": 20,
								"contract": "Voting Contract/contracts/myVoting.sol:VotingContract",
								"label": "party",
								"offset": 0,
								"slot": "2",
								"type": "t_string_storage"
							},
							{
								"astId": 22,
								"contract": "Voting Contract/contracts/myVoting.sol:VotingContract",
								"label": "candidateID",
								"offset": 0,
								"slot": "3",
								"type": "t_uint256"
							},
							{
								"astId": 24,
								"contract": "Voting Contract/contracts/myVoting.sol:VotingContract",
								"label": "gender",
								"offset": 0,
								"slot": "4",
								"type": "t_string_storage"
							},
							{
								"astId": 26,
								"contract": "Voting Contract/contracts/myVoting.sol:VotingContract",
								"label": "candidateAddress",
								"offset": 0,
								"slot": "5",
								"type": "t_address"
							},
							{
								"astId": 28,
								"contract": "Voting Contract/contracts/myVoting.sol:VotingContract",
								"label": "votes",
								"offset": 0,
								"slot": "6",
								"type": "t_uint256"
							}
						],
						"numberOfBytes": "224"
					},
					"t_struct(Voter)14_storage": {
						"encoding": "inplace",
						"label": "struct VotingContract.Voter",
						"members": [
							{
								"astId": 3,
								"contract": "Voting Contract/contracts/myVoting.sol:VotingContract",
								"label": "name",
								"offset": 0,
								"slot": "0",
								"type": "t_string_storage"
							},
							{
								"astId": 5,
								"contract": "Voting Contract/contracts/myVoting.sol:VotingContract",
								"label": "age",
								"offset": 0,
								"slot": "1",
								"type": "t_uint256"
							},
							{
								"astId": 7,
								"contract": "Voting Contract/contracts/myVoting.sol:VotingContract",
								"label": "voterID",
								"offset": 0,
								"slot": "2",
								"type": "t_uint256"
							},
							{
								"astId": 9,
								"contract": "Voting Contract/contracts/myVoting.sol:VotingContract",
								"label": "gender",
								"offset": 0,
								"slot": "3",
								"type": "t_string_storage"
							},
							{
								"astId": 11,
								"contract": "Voting Contract/contracts/myVoting.sol:VotingContract",
								"label": "voteCandidateID",
								"offset": 0,
								"slot": "4",
								"type": "t_uint256"
							},
							{
								"astId": 13,
								"contract": "Voting Contract/contracts/myVoting.sol:VotingContract",
								"label": "voterAddress",
								"offset": 0,
								"slot": "5",
								"type": "t_address"
							}
						],
						"numberOfBytes": "192"
					},
					"t_uint256": {
						"encoding": "inplace",
						"label": "uint256",
						"numberOfBytes": "32"
					}
				}
			},
			"userdoc": {
				"kind": "user",
				"methods": {},
				"version": 1
			}
		}
	}
}