{
	"OOPs Solidity/complex.sol": {
		"ComplexNumber": {
			"abi": [
				{
					"inputs": [],
					"name": "getComplexNumber",
					"outputs": [
						{
							"internalType": "uint256",
							"name": "",
							"type": "uint256"
						},
						{
							"internalType": "uint256",
							"name": "",
							"type": "uint256"
						}
					],
					"stateMutability": "view",
					"type": "function"
				},
				{
					"inputs": [],
					"name": "getImaginary",
					"outputs": [
						{
							"internalType": "uint256",
							"name": "",
							"type": "uint256"
						}
					],
					"stateMutability": "view",
					"type": "function"
				},
				{
					"inputs": [],
					"name": "getReal",
					"outputs": [
						{
							"internalType": "uint256",
							"name": "",
							"type": "uint256"
						}
					],
					"stateMutability": "view",
					"type": "function"
				},
				{
					"inputs": [
						{
							"internalType": "uint256",
							"name": "_real",
							"type": "uint256"
						},
						{
							"internalType": "uint256",
							"name": "_imaginary",
							"type": "uint256"
						}
					],
					"name": "setComplexNumber",
					"outputs": [],
					"stateMutability": "nonpayable",
					"type": "function"
				}
			],
			"devdoc": {
				"kind": "dev",
				"methods": {},
				"version": 1
			},
			"evm": {
				"assembly": "    /* \"OOPs Solidity/complex.sol\":602:1131  contract ComplexNumber is RealNumber, ImaginaryNumber{... */\n  mstore(0x40, 0x80)\n  callvalue\n  dup1\n  iszero\n  tag_1\n  jumpi\n  0x00\n  dup1\n  revert\ntag_1:\n  pop\n  dataSize(sub_0)\n  dup1\n  dataOffset(sub_0)\n  0x00\n  codecopy\n  0x00\n  return\nstop\n\nsub_0: assembly {\n        /* \"OOPs Solidity/complex.sol\":602:1131  contract ComplexNumber is RealNumber, ImaginaryNumber{... */\n      mstore(0x40, 0x80)\n      callvalue\n      dup1\n      iszero\n      tag_1\n      jumpi\n      0x00\n      dup1\n      revert\n    tag_1:\n      pop\n      jumpi(tag_2, lt(calldatasize, 0x04))\n      shr(0xe0, calldataload(0x00))\n      dup1\n      0x6f0f82c5\n      eq\n      tag_3\n      jumpi\n      dup1\n      0x7b3860b3\n      eq\n      tag_4\n      jumpi\n      dup1\n      0x9fd8581e\n      eq\n      tag_5\n      jumpi\n      dup1\n      0xe9f92e69\n      eq\n      tag_6\n      jumpi\n    tag_2:\n      0x00\n      dup1\n      revert\n        /* \"OOPs Solidity/complex.sol\":662:801  function setComplexNumber(uint _real , uint _imaginary) public {... */\n    tag_3:\n      tag_7\n      0x04\n      dup1\n      calldatasize\n      sub\n      dup2\n      add\n      swap1\n      tag_8\n      swap2\n      swap1\n      tag_9\n      jump\t// in\n    tag_8:\n      tag_10\n      jump\t// in\n    tag_7:\n      stop\n        /* \"OOPs Solidity/complex.sol\":1031:1128  function getImaginary() public view  returns(uint){... */\n    tag_4:\n      tag_11\n      tag_12\n      jump\t// in\n    tag_11:\n      mload(0x40)\n      tag_13\n      swap2\n      swap1\n      tag_14\n      jump\t// in\n    tag_13:\n      mload(0x40)\n      dup1\n      swap2\n      sub\n      swap1\n      return\n        /* \"OOPs Solidity/complex.sol\":807:933  function getComplexNumber() public view returns(uint, uint){... */\n    tag_5:\n      tag_15\n      tag_16\n      jump\t// in\n    tag_15:\n      mload(0x40)\n      tag_17\n      swap3\n      swap2\n      swap1\n      tag_18\n      jump\t// in\n    tag_17:\n      mload(0x40)\n      dup1\n      swap2\n      sub\n      swap1\n      return\n        /* \"OOPs Solidity/complex.sol\":939:1025  function getReal() public view returns(uint){... */\n    tag_6:\n      tag_19\n      tag_20\n      jump\t// in\n    tag_19:\n      mload(0x40)\n      tag_21\n      swap2\n      swap1\n      tag_14\n      jump\t// in\n    tag_21:\n      mload(0x40)\n      dup1\n      swap2\n      sub\n      swap1\n      return\n        /* \"OOPs Solidity/complex.sol\":662:801  function setComplexNumber(uint _real , uint _imaginary) public {... */\n    tag_10:\n        /* \"OOPs Solidity/complex.sol\":736:754  setRealPart(_real) */\n      tag_23\n        /* \"OOPs Solidity/complex.sol\":748:753  _real */\n      dup3\n        /* \"OOPs Solidity/complex.sol\":736:747  setRealPart */\n      tag_24\n        /* \"OOPs Solidity/complex.sol\":736:754  setRealPart(_real) */\n      jump\t// in\n    tag_23:\n        /* \"OOPs Solidity/complex.sol\":765:793  setImaginaryPart(_imaginary) */\n      tag_25\n        /* \"OOPs Solidity/complex.sol\":782:792  _imaginary */\n      dup2\n        /* \"OOPs Solidity/complex.sol\":765:781  setImaginaryPart */\n      tag_26\n        /* \"OOPs Solidity/complex.sol\":765:793  setImaginaryPart(_imaginary) */\n      jump\t// in\n    tag_25:\n        /* \"OOPs Solidity/complex.sol\":662:801  function setComplexNumber(uint _real , uint _imaginary) public {... */\n      pop\n      pop\n      jump\t// out\n        /* \"OOPs Solidity/complex.sol\":1031:1128  function getImaginary() public view  returns(uint){... */\n    tag_12:\n        /* \"OOPs Solidity/complex.sol\":1076:1080  uint */\n      0x00\n        /* \"OOPs Solidity/complex.sol\":1099:1120  returnImaginaryPart() */\n      tag_28\n        /* \"OOPs Solidity/complex.sol\":1099:1118  returnImaginaryPart */\n      tag_29\n        /* \"OOPs Solidity/complex.sol\":1099:1120  returnImaginaryPart() */\n      jump\t// in\n    tag_28:\n        /* \"OOPs Solidity/complex.sol\":1092:1120  return returnImaginaryPart() */\n      swap1\n      pop\n        /* \"OOPs Solidity/complex.sol\":1031:1128  function getImaginary() public view  returns(uint){... */\n      swap1\n      jump\t// out\n        /* \"OOPs Solidity/complex.sol\":807:933  function getComplexNumber() public view returns(uint, uint){... */\n    tag_16:\n        /* \"OOPs Solidity/complex.sol\":855:859  uint */\n      0x00\n        /* \"OOPs Solidity/complex.sol\":861:865  uint */\n      dup1\n        /* \"OOPs Solidity/complex.sol\":884:900  returnRealPart() */\n      tag_31\n        /* \"OOPs Solidity/complex.sol\":884:898  returnRealPart */\n      tag_32\n        /* \"OOPs Solidity/complex.sol\":884:900  returnRealPart() */\n      jump\t// in\n    tag_31:\n        /* \"OOPs Solidity/complex.sol\":903:924  returnImaginaryPart() */\n      tag_33\n        /* \"OOPs Solidity/complex.sol\":903:922  returnImaginaryPart */\n      tag_29\n        /* \"OOPs Solidity/complex.sol\":903:924  returnImaginaryPart() */\n      jump\t// in\n    tag_33:\n        /* \"OOPs Solidity/complex.sol\":877:925  return(returnRealPart(),  returnImaginaryPart()) */\n      swap2\n      pop\n      swap2\n      pop\n        /* \"OOPs Solidity/complex.sol\":807:933  function getComplexNumber() public view returns(uint, uint){... */\n      swap1\n      swap2\n      jump\t// out\n        /* \"OOPs Solidity/complex.sol\":939:1025  function getReal() public view returns(uint){... */\n    tag_20:\n        /* \"OOPs Solidity/complex.sol\":978:982  uint */\n      0x00\n        /* \"OOPs Solidity/complex.sol\":1001:1017  returnRealPart() */\n      tag_35\n        /* \"OOPs Solidity/complex.sol\":1001:1015  returnRealPart */\n      tag_32\n        /* \"OOPs Solidity/complex.sol\":1001:1017  returnRealPart() */\n      jump\t// in\n    tag_35:\n        /* \"OOPs Solidity/complex.sol\":994:1017  return returnRealPart() */\n      swap1\n      pop\n        /* \"OOPs Solidity/complex.sol\":939:1025  function getReal() public view returns(uint){... */\n      swap1\n      jump\t// out\n        /* \"OOPs Solidity/complex.sol\":136:221  function setRealPart(uint _realPart) internal {... */\n    tag_24:\n        /* \"OOPs Solidity/complex.sol\":204:213  _realPart */\n      dup1\n        /* \"OOPs Solidity/complex.sol\":193:201  realPart */\n      0x00\n        /* \"OOPs Solidity/complex.sol\":193:213  realPart = _realPart */\n      dup2\n      swap1\n      sstore\n      pop\n        /* \"OOPs Solidity/complex.sol\":136:221  function setRealPart(uint _realPart) internal {... */\n      pop\n      jump\t// out\n        /* \"OOPs Solidity/complex.sol\":387:492  function setImaginaryPart(uint _imaginaryPart) internal {... */\n    tag_26:\n        /* \"OOPs Solidity/complex.sol\":470:484  _imaginaryPart */\n      dup1\n        /* \"OOPs Solidity/complex.sol\":454:467  imaginaryPart */\n      0x01\n        /* \"OOPs Solidity/complex.sol\":454:484  imaginaryPart = _imaginaryPart */\n      dup2\n      swap1\n      sstore\n      pop\n        /* \"OOPs Solidity/complex.sol\":387:492  function setImaginaryPart(uint _imaginaryPart) internal {... */\n      pop\n      jump\t// out\n        /* \"OOPs Solidity/complex.sol\":498:595  function returnImaginaryPart() internal view returns(uint){... */\n    tag_29:\n        /* \"OOPs Solidity/complex.sol\":551:555  uint */\n      0x00\n        /* \"OOPs Solidity/complex.sol\":574:587  imaginaryPart */\n      sload(0x01)\n        /* \"OOPs Solidity/complex.sol\":567:587  return imaginaryPart */\n      swap1\n      pop\n        /* \"OOPs Solidity/complex.sol\":498:595  function returnImaginaryPart() internal view returns(uint){... */\n      swap1\n      jump\t// out\n        /* \"OOPs Solidity/complex.sol\":227:314  function returnRealPart() internal view returns(uint){... */\n    tag_32:\n        /* \"OOPs Solidity/complex.sol\":275:279  uint */\n      0x00\n        /* \"OOPs Solidity/complex.sol\":298:306  realPart */\n      dup1\n      sload\n        /* \"OOPs Solidity/complex.sol\":291:306  return realPart */\n      swap1\n      pop\n        /* \"OOPs Solidity/complex.sol\":227:314  function returnRealPart() internal view returns(uint){... */\n      swap1\n      jump\t// out\n        /* \"#utility.yul\":88:205   */\n    tag_41:\n        /* \"#utility.yul\":197:198   */\n      0x00\n        /* \"#utility.yul\":194:195   */\n      dup1\n        /* \"#utility.yul\":187:199   */\n      revert\n        /* \"#utility.yul\":334:411   */\n    tag_43:\n        /* \"#utility.yul\":371:378   */\n      0x00\n        /* \"#utility.yul\":400:405   */\n      dup2\n        /* \"#utility.yul\":389:405   */\n      swap1\n      pop\n        /* \"#utility.yul\":334:411   */\n      swap2\n      swap1\n      pop\n      jump\t// out\n        /* \"#utility.yul\":417:539   */\n    tag_44:\n        /* \"#utility.yul\":490:514   */\n      tag_53\n        /* \"#utility.yul\":508:513   */\n      dup2\n        /* \"#utility.yul\":490:514   */\n      tag_43\n      jump\t// in\n    tag_53:\n        /* \"#utility.yul\":483:488   */\n      dup2\n        /* \"#utility.yul\":480:515   */\n      eq\n        /* \"#utility.yul\":470:533   */\n      tag_54\n      jumpi\n        /* \"#utility.yul\":529:530   */\n      0x00\n        /* \"#utility.yul\":526:527   */\n      dup1\n        /* \"#utility.yul\":519:531   */\n      revert\n        /* \"#utility.yul\":470:533   */\n    tag_54:\n        /* \"#utility.yul\":417:539   */\n      pop\n      jump\t// out\n        /* \"#utility.yul\":545:684   */\n    tag_45:\n        /* \"#utility.yul\":591:596   */\n      0x00\n        /* \"#utility.yul\":629:635   */\n      dup2\n        /* \"#utility.yul\":616:636   */\n      calldataload\n        /* \"#utility.yul\":607:636   */\n      swap1\n      pop\n        /* \"#utility.yul\":645:678   */\n      tag_56\n        /* \"#utility.yul\":672:677   */\n      dup2\n        /* \"#utility.yul\":645:678   */\n      tag_44\n      jump\t// in\n    tag_56:\n        /* \"#utility.yul\":545:684   */\n      swap3\n      swap2\n      pop\n      pop\n      jump\t// out\n        /* \"#utility.yul\":690:1164   */\n    tag_9:\n        /* \"#utility.yul\":758:764   */\n      0x00\n        /* \"#utility.yul\":766:772   */\n      dup1\n        /* \"#utility.yul\":815:817   */\n      0x40\n        /* \"#utility.yul\":803:812   */\n      dup4\n        /* \"#utility.yul\":794:801   */\n      dup6\n        /* \"#utility.yul\":790:813   */\n      sub\n        /* \"#utility.yul\":786:818   */\n      slt\n        /* \"#utility.yul\":783:902   */\n      iszero\n      tag_58\n      jumpi\n        /* \"#utility.yul\":821:900   */\n      tag_59\n      tag_41\n      jump\t// in\n    tag_59:\n        /* \"#utility.yul\":783:902   */\n    tag_58:\n        /* \"#utility.yul\":941:942   */\n      0x00\n        /* \"#utility.yul\":966:1019   */\n      tag_60\n        /* \"#utility.yul\":1011:1018   */\n      dup6\n        /* \"#utility.yul\":1002:1008   */\n      dup3\n        /* \"#utility.yul\":991:1000   */\n      dup7\n        /* \"#utility.yul\":987:1009   */\n      add\n        /* \"#utility.yul\":966:1019   */\n      tag_45\n      jump\t// in\n    tag_60:\n        /* \"#utility.yul\":956:1019   */\n      swap3\n      pop\n        /* \"#utility.yul\":912:1029   */\n      pop\n        /* \"#utility.yul\":1068:1070   */\n      0x20\n        /* \"#utility.yul\":1094:1147   */\n      tag_61\n        /* \"#utility.yul\":1139:1146   */\n      dup6\n        /* \"#utility.yul\":1130:1136   */\n      dup3\n        /* \"#utility.yul\":1119:1128   */\n      dup7\n        /* \"#utility.yul\":1115:1137   */\n      add\n        /* \"#utility.yul\":1094:1147   */\n      tag_45\n      jump\t// in\n    tag_61:\n        /* \"#utility.yul\":1084:1147   */\n      swap2\n      pop\n        /* \"#utility.yul\":1039:1157   */\n      pop\n        /* \"#utility.yul\":690:1164   */\n      swap3\n      pop\n      swap3\n      swap1\n      pop\n      jump\t// out\n        /* \"#utility.yul\":1170:1288   */\n    tag_46:\n        /* \"#utility.yul\":1257:1281   */\n      tag_63\n        /* \"#utility.yul\":1275:1280   */\n      dup2\n        /* \"#utility.yul\":1257:1281   */\n      tag_43\n      jump\t// in\n    tag_63:\n        /* \"#utility.yul\":1252:1255   */\n      dup3\n        /* \"#utility.yul\":1245:1282   */\n      mstore\n        /* \"#utility.yul\":1170:1288   */\n      pop\n      pop\n      jump\t// out\n        /* \"#utility.yul\":1294:1516   */\n    tag_14:\n        /* \"#utility.yul\":1387:1391   */\n      0x00\n        /* \"#utility.yul\":1425:1427   */\n      0x20\n        /* \"#utility.yul\":1414:1423   */\n      dup3\n        /* \"#utility.yul\":1410:1428   */\n      add\n        /* \"#utility.yul\":1402:1428   */\n      swap1\n      pop\n        /* \"#utility.yul\":1438:1509   */\n      tag_65\n        /* \"#utility.yul\":1506:1507   */\n      0x00\n        /* \"#utility.yul\":1495:1504   */\n      dup4\n        /* \"#utility.yul\":1491:1508   */\n      add\n        /* \"#utility.yul\":1482:1488   */\n      dup5\n        /* \"#utility.yul\":1438:1509   */\n      tag_46\n      jump\t// in\n    tag_65:\n        /* \"#utility.yul\":1294:1516   */\n      swap3\n      swap2\n      pop\n      pop\n      jump\t// out\n        /* \"#utility.yul\":1522:1854   */\n    tag_18:\n        /* \"#utility.yul\":1643:1647   */\n      0x00\n        /* \"#utility.yul\":1681:1683   */\n      0x40\n        /* \"#utility.yul\":1670:1679   */\n      dup3\n        /* \"#utility.yul\":1666:1684   */\n      add\n        /* \"#utility.yul\":1658:1684   */\n      swap1\n      pop\n        /* \"#utility.yul\":1694:1765   */\n      tag_67\n        /* \"#utility.yul\":1762:1763   */\n      0x00\n        /* \"#utility.yul\":1751:1760   */\n      dup4\n        /* \"#utility.yul\":1747:1764   */\n      add\n        /* \"#utility.yul\":1738:1744   */\n      dup6\n        /* \"#utility.yul\":1694:1765   */\n      tag_46\n      jump\t// in\n    tag_67:\n        /* \"#utility.yul\":1775:1847   */\n      tag_68\n        /* \"#utility.yul\":1843:1845   */\n      0x20\n        /* \"#utility.yul\":1832:1841   */\n      dup4\n        /* \"#utility.yul\":1828:1846   */\n      add\n        /* \"#utility.yul\":1819:1825   */\n      dup5\n        /* \"#utility.yul\":1775:1847   */\n      tag_46\n      jump\t// in\n    tag_68:\n        /* \"#utility.yul\":1522:1854   */\n      swap4\n      swap3\n      pop\n      pop\n      pop\n      jump\t// out\n\n    auxdata: 0xa2646970667358221220e33cda5e4504f51a018413e428fa9ff95500ea19d4d51b31f061b37b0fd5b55d64736f6c63430008120033\n}\n",
				"bytecode": {
					"linkReferences": {},
					"object": "608060405234801561001057600080fd5b50610242806100206000396000f3fe608060405234801561001057600080fd5b506004361061004c5760003560e01c80636f0f82c5146100515780637b3860b31461006d5780639fd8581e1461008b578063e9f92e69146100aa575b600080fd5b61006b60048036038101906100669190610179565b6100c8565b005b6100756100de565b60405161008291906101c8565b60405180910390f35b6100936100ed565b6040516100a19291906101e3565b60405180910390f35b6100b2610108565b6040516100bf91906101c8565b60405180910390f35b6100d182610117565b6100da81610121565b5050565b60006100e861012b565b905090565b6000806100f8610135565b61010061012b565b915091509091565b6000610112610135565b905090565b8060008190555050565b8060018190555050565b6000600154905090565b60008054905090565b600080fd5b6000819050919050565b61015681610143565b811461016157600080fd5b50565b6000813590506101738161014d565b92915050565b600080604083850312156101905761018f61013e565b5b600061019e85828601610164565b92505060206101af85828601610164565b9150509250929050565b6101c281610143565b82525050565b60006020820190506101dd60008301846101b9565b92915050565b60006040820190506101f860008301856101b9565b61020560208301846101b9565b939250505056fea2646970667358221220e33cda5e4504f51a018413e428fa9ff95500ea19d4d51b31f061b37b0fd5b55d64736f6c63430008120033",
					"opcodes": "PUSH1 0x80 PUSH1 0x40 MSTORE CALLVALUE DUP1 ISZERO PUSH2 0x10 JUMPI PUSH1 0x0 DUP1 REVERT JUMPDEST POP PUSH2 0x242 DUP1 PUSH2 0x20 PUSH1 0x0 CODECOPY PUSH1 0x0 RETURN INVALID PUSH1 0x80 PUSH1 0x40 MSTORE CALLVALUE DUP1 ISZERO PUSH2 0x10 JUMPI PUSH1 0x0 DUP1 REVERT JUMPDEST POP PUSH1 0x4 CALLDATASIZE LT PUSH2 0x4C JUMPI PUSH1 0x0 CALLDATALOAD PUSH1 0xE0 SHR DUP1 PUSH4 0x6F0F82C5 EQ PUSH2 0x51 JUMPI DUP1 PUSH4 0x7B3860B3 EQ PUSH2 0x6D JUMPI DUP1 PUSH4 0x9FD8581E EQ PUSH2 0x8B JUMPI DUP1 PUSH4 0xE9F92E69 EQ PUSH2 0xAA JUMPI JUMPDEST PUSH1 0x0 DUP1 REVERT JUMPDEST PUSH2 0x6B PUSH1 0x4 DUP1 CALLDATASIZE SUB DUP2 ADD SWAP1 PUSH2 0x66 SWAP2 SWAP1 PUSH2 0x179 JUMP JUMPDEST PUSH2 0xC8 JUMP JUMPDEST STOP JUMPDEST PUSH2 0x75 PUSH2 0xDE JUMP JUMPDEST PUSH1 0x40 MLOAD PUSH2 0x82 SWAP2 SWAP1 PUSH2 0x1C8 JUMP JUMPDEST PUSH1 0x40 MLOAD DUP1 SWAP2 SUB SWAP1 RETURN JUMPDEST PUSH2 0x93 PUSH2 0xED JUMP JUMPDEST PUSH1 0x40 MLOAD PUSH2 0xA1 SWAP3 SWAP2 SWAP1 PUSH2 0x1E3 JUMP JUMPDEST PUSH1 0x40 MLOAD DUP1 SWAP2 SUB SWAP1 RETURN JUMPDEST PUSH2 0xB2 PUSH2 0x108 JUMP JUMPDEST PUSH1 0x40 MLOAD PUSH2 0xBF SWAP2 SWAP1 PUSH2 0x1C8 JUMP JUMPDEST PUSH1 0x40 MLOAD DUP1 SWAP2 SUB SWAP1 RETURN JUMPDEST PUSH2 0xD1 DUP3 PUSH2 0x117 JUMP JUMPDEST PUSH2 0xDA DUP2 PUSH2 0x121 JUMP JUMPDEST POP POP JUMP JUMPDEST PUSH1 0x0 PUSH2 0xE8 PUSH2 0x12B JUMP JUMPDEST SWAP1 POP SWAP1 JUMP JUMPDEST PUSH1 0x0 DUP1 PUSH2 0xF8 PUSH2 0x135 JUMP JUMPDEST PUSH2 0x100 PUSH2 0x12B JUMP JUMPDEST SWAP2 POP SWAP2 POP SWAP1 SWAP2 JUMP JUMPDEST PUSH1 0x0 PUSH2 0x112 PUSH2 0x135 JUMP JUMPDEST SWAP1 POP SWAP1 JUMP JUMPDEST DUP1 PUSH1 0x0 DUP2 SWAP1 SSTORE POP POP JUMP JUMPDEST DUP1 PUSH1 0x1 DUP2 SWAP1 SSTORE POP POP JUMP JUMPDEST PUSH1 0x0 PUSH1 0x1 SLOAD SWAP1 POP SWAP1 JUMP JUMPDEST PUSH1 0x0 DUP1 SLOAD SWAP1 POP SWAP1 JUMP JUMPDEST PUSH1 0x0 DUP1 REVERT JUMPDEST PUSH1 0x0 DUP2 SWAP1 POP SWAP2 SWAP1 POP JUMP JUMPDEST PUSH2 0x156 DUP2 PUSH2 0x143 JUMP JUMPDEST DUP2 EQ PUSH2 0x161 JUMPI PUSH1 0x0 DUP1 REVERT JUMPDEST POP JUMP JUMPDEST PUSH1 0x0 DUP2 CALLDATALOAD SWAP1 POP PUSH2 0x173 DUP2 PUSH2 0x14D JUMP JUMPDEST SWAP3 SWAP2 POP POP JUMP JUMPDEST PUSH1 0x0 DUP1 PUSH1 0x40 DUP4 DUP6 SUB SLT ISZERO PUSH2 0x190 JUMPI PUSH2 0x18F PUSH2 0x13E JUMP JUMPDEST JUMPDEST PUSH1 0x0 PUSH2 0x19E DUP6 DUP3 DUP7 ADD PUSH2 0x164 JUMP JUMPDEST SWAP3 POP POP PUSH1 0x20 PUSH2 0x1AF DUP6 DUP3 DUP7 ADD PUSH2 0x164 JUMP JUMPDEST SWAP2 POP POP SWAP3 POP SWAP3 SWAP1 POP JUMP JUMPDEST PUSH2 0x1C2 DUP2 PUSH2 0x143 JUMP JUMPDEST DUP3 MSTORE POP POP JUMP JUMPDEST PUSH1 0x0 PUSH1 0x20 DUP3 ADD SWAP1 POP PUSH2 0x1DD PUSH1 0x0 DUP4 ADD DUP5 PUSH2 0x1B9 JUMP JUMPDEST SWAP3 SWAP2 POP POP JUMP JUMPDEST PUSH1 0x0 PUSH1 0x40 DUP3 ADD SWAP1 POP PUSH2 0x1F8 PUSH1 0x0 DUP4 ADD DUP6 PUSH2 0x1B9 JUMP JUMPDEST PUSH2 0x205 PUSH1 0x20 DUP4 ADD DUP5 PUSH2 0x1B9 JUMP JUMPDEST SWAP4 SWAP3 POP POP POP JUMP INVALID LOG2 PUSH5 0x6970667358 0x22 SLT KECCAK256 0xE3 EXTCODECOPY 0xDA 0x5E GASLIMIT DIV CREATE2 BYTE ADD DUP5 SGT 0xE4 0x28 STATICCALL SWAP16 0xF9 SSTORE STOP 0xEA NOT 0xD4 0xD5 SHL BALANCE CREATE PUSH2 0xB37B 0xF 0xD5 0xB5 0x5D PUSH5 0x736F6C6343 STOP ADDMOD SLT STOP CALLER "
				},
				"gasEstimates": {
					"creation": {
						"codeDepositCost": "115600",
						"executionCost": "165",
						"totalCost": "115765"
					},
					"external": {
						"getComplexNumber()": "infinite",
						"getImaginary()": "2472",
						"getReal()": "2516",
						"setComplexNumber(uint256,uint256)": "infinite"
					}
				},
				"methodIdentifiers": {
					"getComplexNumber()": "9fd8581e",
					"getImaginary()": "7b3860b3",
					"getReal()": "e9f92e69",
					"setComplexNumber(uint256,uint256)": "6f0f82c5"
				}
			},
			"storageLayout": {
				"storage": [
					{
						"astId": 3,
						"contract": "OOPs Solidity/complex.sol:ComplexNumber",
						"label": "realPart",
						"offset": 0,
						"slot": "0",
						"type": "t_uint256"
					},
					{
						"astId": 24,
						"contract": "OOPs Solidity/complex.sol:ComplexNumber",
						"label": "imaginaryPart",
						"offset": 0,
						"slot": "1",
						"type": "t_uint256"
					}
				],
				"types": {
					"t_uint256": {
						"encoding": "inplace",
						"label": "uint256",
						"numberOfBytes": "32"
					}
				}
			},
			"userdoc": {
				"kind": "user",
				"methods": {},
				"version": 1
			}
		}
	}
}