{
	"data": {
		"bytecode": {
			"linkReferences": {},
			"object": "608060405234801561001057600080fd5b50610493806100206000396000f3fe608060405234801561001057600080fd5b506004361061002b5760003560e01c8063b6e1293614610030575b600080fd5b61004a60048036038101906100459190610200565b610060565b60405161005791906102bd565b60405180910390f35b6060600061006d83610103565b9050600061007b848361013a565b90508084036100c3576040518060400160405280601381526020017f4e756d6265722069732061726d7374726f6e6700000000000000000000000000815250925050506100fe565b6040518060400160405280601881526020017f4e756d626572206973206e6f742061726d2d7374726f6e670000000000000000815250925050505b919050565b6000805b6000831461013157808061011a9061030e565b915050600a8361012a9190610385565b9250610107565b80915050919050565b6000805b6000841461017d5761015c600a8561015691906103b6565b84610187565b8161016791906103e7565b9050600a846101769190610385565b935061013e565b8091505092915050565b6000806001905060005b838110156101ba5784826101a5919061041b565b915080806101b29061030e565b915050610191565b508091505092915050565b600080fd5b6000819050919050565b6101dd816101ca565b81146101e857600080fd5b50565b6000813590506101fa816101d4565b92915050565b600060208284031215610216576102156101c5565b5b6000610224848285016101eb565b91505092915050565b600081519050919050565b600082825260208201905092915050565b60005b8381101561026757808201518184015260208101905061024c565b60008484015250505050565b6000601f19601f8301169050919050565b600061028f8261022d565b6102998185610238565b93506102a9818560208601610249565b6102b281610273565b840191505092915050565b600060208201905081810360008301526102d78184610284565b905092915050565b7f4e487b7100000000000000000000000000000000000000000000000000000000600052601160045260246000fd5b6000610319826101ca565b91507fffffffffffffffffffffffffffffffffffffffffffffffffffffffffffffffff820361034b5761034a6102df565b5b600182019050919050565b7f4e487b7100000000000000000000000000000000000000000000000000000000600052601260045260246000fd5b6000610390826101ca565b915061039b836101ca565b9250826103ab576103aa610356565b5b828204905092915050565b60006103c1826101ca565b91506103cc836101ca565b9250826103dc576103db610356565b5b828206905092915050565b60006103f2826101ca565b91506103fd836101ca565b9250828201905080821115610415576104146102df565b5b92915050565b6000610426826101ca565b9150610431836101ca565b925082820261043f816101ca565b91508282048414831517610456576104556102df565b5b509291505056fea264697066735822122045d081be033cddb97be18d0f3c75f1f28f2b65b479dc6aa8c8cf2cb329bc94d264736f6c63430008120033",
			"opcodes": "PUSH1 0x80 PUSH1 0x40 MSTORE CALLVALUE DUP1 ISZERO PUSH2 0x10 JUMPI PUSH1 0x0 DUP1 REVERT JUMPDEST POP PUSH2 0x493 DUP1 PUSH2 0x20 PUSH1 0x0 CODECOPY PUSH1 0x0 RETURN INVALID PUSH1 0x80 PUSH1 0x40 MSTORE CALLVALUE DUP1 ISZERO PUSH2 0x10 JUMPI PUSH1 0x0 DUP1 REVERT JUMPDEST POP PUSH1 0x4 CALLDATASIZE LT PUSH2 0x2B JUMPI PUSH1 0x0 CALLDATALOAD PUSH1 0xE0 SHR DUP1 PUSH4 0xB6E12936 EQ PUSH2 0x30 JUMPI JUMPDEST PUSH1 0x0 DUP1 REVERT JUMPDEST PUSH2 0x4A PUSH1 0x4 DUP1 CALLDATASIZE SUB DUP2 ADD SWAP1 PUSH2 0x45 SWAP2 SWAP1 PUSH2 0x200 JUMP JUMPDEST PUSH2 0x60 JUMP JUMPDEST PUSH1 0x40 MLOAD PUSH2 0x57 SWAP2 SWAP1 PUSH2 0x2BD JUMP JUMPDEST PUSH1 0x40 MLOAD DUP1 SWAP2 SUB SWAP1 RETURN JUMPDEST PUSH1 0x60 PUSH1 0x0 PUSH2 0x6D DUP4 PUSH2 0x103 JUMP JUMPDEST SWAP1 POP PUSH1 0x0 PUSH2 0x7B DUP5 DUP4 PUSH2 0x13A JUMP JUMPDEST SWAP1 POP DUP1 DUP5 SUB PUSH2 0xC3 JUMPI PUSH1 0x40 MLOAD DUP1 PUSH1 0x40 ADD PUSH1 0x40 MSTORE DUP1 PUSH1 0x13 DUP2 MSTORE PUSH1 0x20 ADD PUSH32 0x4E756D6265722069732061726D7374726F6E6700000000000000000000000000 DUP2 MSTORE POP SWAP3 POP POP POP PUSH2 0xFE JUMP JUMPDEST PUSH1 0x40 MLOAD DUP1 PUSH1 0x40 ADD PUSH1 0x40 MSTORE DUP1 PUSH1 0x18 DUP2 MSTORE PUSH1 0x20 ADD PUSH32 0x4E756D626572206973206E6F742061726D2D7374726F6E670000000000000000 DUP2 MSTORE POP SWAP3 POP POP POP JUMPDEST SWAP2 SWAP1 POP JUMP JUMPDEST PUSH1 0x0 DUP1 JUMPDEST PUSH1 0x0 DUP4 EQ PUSH2 0x131 JUMPI DUP1 DUP1 PUSH2 0x11A SWAP1 PUSH2 0x30E JUMP JUMPDEST SWAP2 POP POP PUSH1 0xA DUP4 PUSH2 0x12A SWAP2 SWAP1 PUSH2 0x385 JUMP JUMPDEST SWAP3 POP PUSH2 0x107 JUMP JUMPDEST DUP1 SWAP2 POP POP SWAP2 SWAP1 POP JUMP JUMPDEST PUSH1 0x0 DUP1 JUMPDEST PUSH1 0x0 DUP5 EQ PUSH2 0x17D JUMPI PUSH2 0x15C PUSH1 0xA DUP6 PUSH2 0x156 SWAP2 SWAP1 PUSH2 0x3B6 JUMP JUMPDEST DUP5 PUSH2 0x187 JUMP JUMPDEST DUP2 PUSH2 0x167 SWAP2 SWAP1 PUSH2 0x3E7 JUMP JUMPDEST SWAP1 POP PUSH1 0xA DUP5 PUSH2 0x176 SWAP2 SWAP1 PUSH2 0x385 JUMP JUMPDEST SWAP4 POP PUSH2 0x13E JUMP JUMPDEST DUP1 SWAP2 POP POP SWAP3 SWAP2 POP POP JUMP JUMPDEST PUSH1 0x0 DUP1 PUSH1 0x1 SWAP1 POP PUSH1 0x0 JUMPDEST DUP4 DUP2 LT ISZERO PUSH2 0x1BA JUMPI DUP5 DUP3 PUSH2 0x1A5 SWAP2 SWAP1 PUSH2 0x41B JUMP JUMPDEST SWAP2 POP DUP1 DUP1 PUSH2 0x1B2 SWAP1 PUSH2 0x30E JUMP JUMPDEST SWAP2 POP POP PUSH2 0x191 JUMP JUMPDEST POP DUP1 SWAP2 POP POP SWAP3 SWAP2 POP POP JUMP JUMPDEST PUSH1 0x0 DUP1 REVERT JUMPDEST PUSH1 0x0 DUP2 SWAP1 POP SWAP2 SWAP1 POP JUMP JUMPDEST PUSH2 0x1DD DUP2 PUSH2 0x1CA JUMP JUMPDEST DUP2 EQ PUSH2 0x1E8 JUMPI PUSH1 0x0 DUP1 REVERT JUMPDEST POP JUMP JUMPDEST PUSH1 0x0 DUP2 CALLDATALOAD SWAP1 POP PUSH2 0x1FA DUP2 PUSH2 0x1D4 JUMP JUMPDEST SWAP3 SWAP2 POP POP JUMP JUMPDEST PUSH1 0x0 PUSH1 0x20 DUP3 DUP5 SUB SLT ISZERO PUSH2 0x216 JUMPI PUSH2 0x215 PUSH2 0x1C5 JUMP JUMPDEST JUMPDEST PUSH1 0x0 PUSH2 0x224 DUP5 DUP3 DUP6 ADD PUSH2 0x1EB JUMP JUMPDEST SWAP2 POP POP SWAP3 SWAP2 POP POP JUMP JUMPDEST PUSH1 0x0 DUP2 MLOAD SWAP1 POP SWAP2 SWAP1 POP JUMP JUMPDEST PUSH1 0x0 DUP3 DUP3 MSTORE PUSH1 0x20 DUP3 ADD SWAP1 POP SWAP3 SWAP2 POP POP JUMP JUMPDEST PUSH1 0x0 JUMPDEST DUP4 DUP2 LT ISZERO PUSH2 0x267 JUMPI DUP1 DUP3 ADD MLOAD DUP2 DUP5 ADD MSTORE PUSH1 0x20 DUP2 ADD SWAP1 POP PUSH2 0x24C JUMP JUMPDEST PUSH1 0x0 DUP5 DUP5 ADD MSTORE POP POP POP POP JUMP JUMPDEST PUSH1 0x0 PUSH1 0x1F NOT PUSH1 0x1F DUP4 ADD AND SWAP1 POP SWAP2 SWAP1 POP JUMP JUMPDEST PUSH1 0x0 PUSH2 0x28F DUP3 PUSH2 0x22D JUMP JUMPDEST PUSH2 0x299 DUP2 DUP6 PUSH2 0x238 JUMP JUMPDEST SWAP4 POP PUSH2 0x2A9 DUP2 DUP6 PUSH1 0x20 DUP7 ADD PUSH2 0x249 JUMP JUMPDEST PUSH2 0x2B2 DUP2 PUSH2 0x273 JUMP JUMPDEST DUP5 ADD SWAP2 POP POP SWAP3 SWAP2 POP POP JUMP JUMPDEST PUSH1 0x0 PUSH1 0x20 DUP3 ADD SWAP1 POP DUP2 DUP2 SUB PUSH1 0x0 DUP4 ADD MSTORE PUSH2 0x2D7 DUP2 DUP5 PUSH2 0x284 JUMP JUMPDEST SWAP1 POP SWAP3 SWAP2 POP POP JUMP JUMPDEST PUSH32 0x4E487B7100000000000000000000000000000000000000000000000000000000 PUSH1 0x0 MSTORE PUSH1 0x11 PUSH1 0x4 MSTORE PUSH1 0x24 PUSH1 0x0 REVERT JUMPDEST PUSH1 0x0 PUSH2 0x319 DUP3 PUSH2 0x1CA JUMP JUMPDEST SWAP2 POP PUSH32 0xFFFFFFFFFFFFFFFFFFFFFFFFFFFFFFFFFFFFFFFFFFFFFFFFFFFFFFFFFFFFFFFF DUP3 SUB PUSH2 0x34B JUMPI PUSH2 0x34A PUSH2 0x2DF JUMP JUMPDEST JUMPDEST PUSH1 0x1 DUP3 ADD SWAP1 POP SWAP2 SWAP1 POP JUMP JUMPDEST PUSH32 0x4E487B7100000000000000000000000000000000000000000000000000000000 PUSH1 0x0 MSTORE PUSH1 0x12 PUSH1 0x4 MSTORE PUSH1 0x24 PUSH1 0x0 REVERT JUMPDEST PUSH1 0x0 PUSH2 0x390 DUP3 PUSH2 0x1CA JUMP JUMPDEST SWAP2 POP PUSH2 0x39B DUP4 PUSH2 0x1CA JUMP JUMPDEST SWAP3 POP DUP3 PUSH2 0x3AB JUMPI PUSH2 0x3AA PUSH2 0x356 JUMP JUMPDEST JUMPDEST DUP3 DUP3 DIV SWAP1 POP SWAP3 SWAP2 POP POP JUMP JUMPDEST PUSH1 0x0 PUSH2 0x3C1 DUP3 PUSH2 0x1CA JUMP JUMPDEST SWAP2 POP PUSH2 0x3CC DUP4 PUSH2 0x1CA JUMP JUMPDEST SWAP3 POP DUP3 PUSH2 0x3DC JUMPI PUSH2 0x3DB PUSH2 0x356 JUMP JUMPDEST JUMPDEST DUP3 DUP3 MOD SWAP1 POP SWAP3 SWAP2 POP POP JUMP JUMPDEST PUSH1 0x0 PUSH2 0x3F2 DUP3 PUSH2 0x1CA JUMP JUMPDEST SWAP2 POP PUSH2 0x3FD DUP4 PUSH2 0x1CA JUMP JUMPDEST SWAP3 POP DUP3 DUP3 ADD SWAP1 POP DUP1 DUP3 GT ISZERO PUSH2 0x415 JUMPI PUSH2 0x414 PUSH2 0x2DF JUMP JUMPDEST JUMPDEST SWAP3 SWAP2 POP POP JUMP JUMPDEST PUSH1 0x0 PUSH2 0x426 DUP3 PUSH2 0x1CA JUMP JUMPDEST SWAP2 POP PUSH2 0x431 DUP4 PUSH2 0x1CA JUMP JUMPDEST SWAP3 POP DUP3 DUP3 MUL PUSH2 0x43F DUP2 PUSH2 0x1CA JUMP JUMPDEST SWAP2 POP DUP3 DUP3 DIV DUP5 EQ DUP4 ISZERO OR PUSH2 0x456 JUMPI PUSH2 0x455 PUSH2 0x2DF JUMP JUMPDEST JUMPDEST POP SWAP3 SWAP2 POP POP JUMP INVALID LOG2 PUSH5 0x6970667358 0x22 SLT KECCAK256 GASLIMIT 0xD0 DUP2 0xBE SUB EXTCODECOPY 0xDD 0xB9 PUSH28 0xE18D0F3C75F1F28F2B65B479DC6AA8C8CF2CB329BC94D264736F6C63 NUMBER STOP ADDMOD SLT STOP CALLER "
		},
		"gasEstimates": {
			"creation": {
				"codeDepositCost": "234200",
				"executionCost": "275",
				"totalCost": "234475"
			},
			"external": {
				"checkArmstrong(uint256)": "infinite"
			},
			"internal": {
				"calculateNum(uint256,uint256)": "infinite",
				"calculatepower(uint256,uint256)": "infinite",
				"digitCalculate(uint256)": "infinite"
			}
		},
		"methodIdentifiers": {
			"checkArmstrong(uint256)": "b6e12936"
		}
	},
	"abi": [
		{
			"inputs": [
				{
					"internalType": "uint256",
					"name": "num",
					"type": "uint256"
				}
			],
			"name": "checkArmstrong",
			"outputs": [
				{
					"internalType": "string",
					"name": "",
					"type": "string"
				}
			],
			"stateMutability": "pure",
			"type": "function"
		}
	]
}