{
	"data": {
		"bytecode": {
			"linkReferences": {},
			"object": "608060405234801561001057600080fd5b5061032b806100206000396000f3fe608060405234801561001057600080fd5b506004361061002b5760003560e01c80638d4aa11314610030575b600080fd5b61004a60048036038101906100459190610110565b610061565b604051610058929190610202565b60405180910390f35b606060008060038486886100759190610261565b61007f9190610261565b61008991906102c4565b905060006040518060400160405280600c81526020017f417665726167652069733a20000000000000000000000000000000000000000081525090508082935093505050935093915050565b600080fd5b6000819050919050565b6100ed816100da565b81146100f857600080fd5b50565b60008135905061010a816100e4565b92915050565b600080600060608486031215610129576101286100d5565b5b6000610137868287016100fb565b9350506020610148868287016100fb565b9250506040610159868287016100fb565b9150509250925092565b600081519050919050565b600082825260208201905092915050565b60005b8381101561019d578082015181840152602081019050610182565b60008484015250505050565b6000601f19601f8301169050919050565b60006101c582610163565b6101cf818561016e565b93506101df81856020860161017f565b6101e8816101a9565b840191505092915050565b6101fc816100da565b82525050565b6000604082019050818103600083015261021c81856101ba565b905061022b60208301846101f3565b9392505050565b7f4e487b7100000000000000000000000000000000000000000000000000000000600052601160045260246000fd5b600061026c826100da565b9150610277836100da565b925082820190508082111561028f5761028e610232565b5b92915050565b7f4e487b7100000000000000000000000000000000000000000000000000000000600052601260045260246000fd5b60006102cf826100da565b91506102da836100da565b9250826102ea576102e9610295565b5b82820490509291505056fea2646970667358221220defcc01f78cd1edfaddc59fad763bc26e595123f991ad5bddf01b7e0abb48b5364736f6c63430008120033",
			"opcodes": "PUSH1 0x80 PUSH1 0x40 MSTORE CALLVALUE DUP1 ISZERO PUSH2 0x10 JUMPI PUSH1 0x0 DUP1 REVERT JUMPDEST POP PUSH2 0x32B DUP1 PUSH2 0x20 PUSH1 0x0 CODECOPY PUSH1 0x0 RETURN INVALID PUSH1 0x80 PUSH1 0x40 MSTORE CALLVALUE DUP1 ISZERO PUSH2 0x10 JUMPI PUSH1 0x0 DUP1 REVERT JUMPDEST POP PUSH1 0x4 CALLDATASIZE LT PUSH2 0x2B JUMPI PUSH1 0x0 CALLDATALOAD PUSH1 0xE0 SHR DUP1 PUSH4 0x8D4AA113 EQ PUSH2 0x30 JUMPI JUMPDEST PUSH1 0x0 DUP1 REVERT JUMPDEST PUSH2 0x4A PUSH1 0x4 DUP1 CALLDATASIZE SUB DUP2 ADD SWAP1 PUSH2 0x45 SWAP2 SWAP1 PUSH2 0x110 JUMP JUMPDEST PUSH2 0x61 JUMP JUMPDEST PUSH1 0x40 MLOAD PUSH2 0x58 SWAP3 SWAP2 SWAP1 PUSH2 0x202 JUMP JUMPDEST PUSH1 0x40 MLOAD DUP1 SWAP2 SUB SWAP1 RETURN JUMPDEST PUSH1 0x60 PUSH1 0x0 DUP1 PUSH1 0x3 DUP5 DUP7 DUP9 PUSH2 0x75 SWAP2 SWAP1 PUSH2 0x261 JUMP JUMPDEST PUSH2 0x7F SWAP2 SWAP1 PUSH2 0x261 JUMP JUMPDEST PUSH2 0x89 SWAP2 SWAP1 PUSH2 0x2C4 JUMP JUMPDEST SWAP1 POP PUSH1 0x0 PUSH1 0x40 MLOAD DUP1 PUSH1 0x40 ADD PUSH1 0x40 MSTORE DUP1 PUSH1 0xC DUP2 MSTORE PUSH1 0x20 ADD PUSH32 0x417665726167652069733A200000000000000000000000000000000000000000 DUP2 MSTORE POP SWAP1 POP DUP1 DUP3 SWAP4 POP SWAP4 POP POP POP SWAP4 POP SWAP4 SWAP2 POP POP JUMP JUMPDEST PUSH1 0x0 DUP1 REVERT JUMPDEST PUSH1 0x0 DUP2 SWAP1 POP SWAP2 SWAP1 POP JUMP JUMPDEST PUSH2 0xED DUP2 PUSH2 0xDA JUMP JUMPDEST DUP2 EQ PUSH2 0xF8 JUMPI PUSH1 0x0 DUP1 REVERT JUMPDEST POP JUMP JUMPDEST PUSH1 0x0 DUP2 CALLDATALOAD SWAP1 POP PUSH2 0x10A DUP2 PUSH2 0xE4 JUMP JUMPDEST SWAP3 SWAP2 POP POP JUMP JUMPDEST PUSH1 0x0 DUP1 PUSH1 0x0 PUSH1 0x60 DUP5 DUP7 SUB SLT ISZERO PUSH2 0x129 JUMPI PUSH2 0x128 PUSH2 0xD5 JUMP JUMPDEST JUMPDEST PUSH1 0x0 PUSH2 0x137 DUP7 DUP3 DUP8 ADD PUSH2 0xFB JUMP JUMPDEST SWAP4 POP POP PUSH1 0x20 PUSH2 0x148 DUP7 DUP3 DUP8 ADD PUSH2 0xFB JUMP JUMPDEST SWAP3 POP POP PUSH1 0x40 PUSH2 0x159 DUP7 DUP3 DUP8 ADD PUSH2 0xFB JUMP JUMPDEST SWAP2 POP POP SWAP3 POP SWAP3 POP SWAP3 JUMP JUMPDEST PUSH1 0x0 DUP2 MLOAD SWAP1 POP SWAP2 SWAP1 POP JUMP JUMPDEST PUSH1 0x0 DUP3 DUP3 MSTORE PUSH1 0x20 DUP3 ADD SWAP1 POP SWAP3 SWAP2 POP POP JUMP JUMPDEST PUSH1 0x0 JUMPDEST DUP4 DUP2 LT ISZERO PUSH2 0x19D JUMPI DUP1 DUP3 ADD MLOAD DUP2 DUP5 ADD MSTORE PUSH1 0x20 DUP2 ADD SWAP1 POP PUSH2 0x182 JUMP JUMPDEST PUSH1 0x0 DUP5 DUP5 ADD MSTORE POP POP POP POP JUMP JUMPDEST PUSH1 0x0 PUSH1 0x1F NOT PUSH1 0x1F DUP4 ADD AND SWAP1 POP SWAP2 SWAP1 POP JUMP JUMPDEST PUSH1 0x0 PUSH2 0x1C5 DUP3 PUSH2 0x163 JUMP JUMPDEST PUSH2 0x1CF DUP2 DUP6 PUSH2 0x16E JUMP JUMPDEST SWAP4 POP PUSH2 0x1DF DUP2 DUP6 PUSH1 0x20 DUP7 ADD PUSH2 0x17F JUMP JUMPDEST PUSH2 0x1E8 DUP2 PUSH2 0x1A9 JUMP JUMPDEST DUP5 ADD SWAP2 POP POP SWAP3 SWAP2 POP POP JUMP JUMPDEST PUSH2 0x1FC DUP2 PUSH2 0xDA JUMP JUMPDEST DUP3 MSTORE POP POP JUMP JUMPDEST PUSH1 0x0 PUSH1 0x40 DUP3 ADD SWAP1 POP DUP2 DUP2 SUB PUSH1 0x0 DUP4 ADD MSTORE PUSH2 0x21C DUP2 DUP6 PUSH2 0x1BA JUMP JUMPDEST SWAP1 POP PUSH2 0x22B PUSH1 0x20 DUP4 ADD DUP5 PUSH2 0x1F3 JUMP JUMPDEST SWAP4 SWAP3 POP POP POP JUMP JUMPDEST PUSH32 0x4E487B7100000000000000000000000000000000000000000000000000000000 PUSH1 0x0 MSTORE PUSH1 0x11 PUSH1 0x4 MSTORE PUSH1 0x24 PUSH1 0x0 REVERT JUMPDEST PUSH1 0x0 PUSH2 0x26C DUP3 PUSH2 0xDA JUMP JUMPDEST SWAP2 POP PUSH2 0x277 DUP4 PUSH2 0xDA JUMP JUMPDEST SWAP3 POP DUP3 DUP3 ADD SWAP1 POP DUP1 DUP3 GT ISZERO PUSH2 0x28F JUMPI PUSH2 0x28E PUSH2 0x232 JUMP JUMPDEST JUMPDEST SWAP3 SWAP2 POP POP JUMP JUMPDEST PUSH32 0x4E487B7100000000000000000000000000000000000000000000000000000000 PUSH1 0x0 MSTORE PUSH1 0x12 PUSH1 0x4 MSTORE PUSH1 0x24 PUSH1 0x0 REVERT JUMPDEST PUSH1 0x0 PUSH2 0x2CF DUP3 PUSH2 0xDA JUMP JUMPDEST SWAP2 POP PUSH2 0x2DA DUP4 PUSH2 0xDA JUMP JUMPDEST SWAP3 POP DUP3 PUSH2 0x2EA JUMPI PUSH2 0x2E9 PUSH2 0x295 JUMP JUMPDEST JUMPDEST DUP3 DUP3 DIV SWAP1 POP SWAP3 SWAP2 POP POP JUMP INVALID LOG2 PUSH5 0x6970667358 0x22 SLT KECCAK256 0xDE 0xFC 0xC0 0x1F PUSH25 0xCD1EDFADDC59FAD763BC26E595123F991AD5BDDF01B7E0ABB4 DUP12 MSTORE8 PUSH5 0x736F6C6343 STOP ADDMOD SLT STOP CALLER "
		},
		"gasEstimates": {
			"creation": {
				"codeDepositCost": "162200",
				"executionCost": "208",
				"totalCost": "162408"
			},
			"external": {
				"calAverage(uint256,uint256,uint256)": "infinite"
			}
		},
		"methodIdentifiers": {
			"calAverage(uint256,uint256,uint256)": "8d4aa113"
		}
	},
	"abi": [
		{
			"inputs": [
				{
					"internalType": "uint256",
					"name": "a",
					"type": "uint256"
				},
				{
					"internalType": "uint256",
					"name": "b",
					"type": "uint256"
				},
				{
					"internalType": "uint256",
					"name": "c",
					"type": "uint256"
				}
			],
			"name": "calAverage",
			"outputs": [
				{
					"internalType": "string",
					"name": "",
					"type": "string"
				},
				{
					"internalType": "uint256",
					"name": "",
					"type": "uint256"
				}
			],
			"stateMutability": "pure",
			"type": "function"
		}
	]
}