{
	"data": {
		"bytecode": {
			"linkReferences": {},
			"object": "608060405234801561001057600080fd5b5061025f806100206000396000f3fe608060405234801561001057600080fd5b506004361061002b5760003560e01c8063d918cbb014610030575b600080fd5b61004a600480360381019061004591906100de565b610060565b604051610057919061011a565b60405180910390f35b6000805b6000831461009a57600a836100799190610164565b8161008491906101c4565b9050600a8361009391906101f8565b9250610064565b80915050919050565b600080fd5b6000819050919050565b6100bb816100a8565b81146100c657600080fd5b50565b6000813590506100d8816100b2565b92915050565b6000602082840312156100f4576100f36100a3565b5b6000610102848285016100c9565b91505092915050565b610114816100a8565b82525050565b600060208201905061012f600083018461010b565b92915050565b7f4e487b7100000000000000000000000000000000000000000000000000000000600052601260045260246000fd5b600061016f826100a8565b915061017a836100a8565b92508261018a57610189610135565b5b828206905092915050565b7f4e487b7100000000000000000000000000000000000000000000000000000000600052601160045260246000fd5b60006101cf826100a8565b91506101da836100a8565b92508282019050808211156101f2576101f1610195565b5b92915050565b6000610203826100a8565b915061020e836100a8565b92508261021e5761021d610135565b5b82820490509291505056fea264697066735822122031c32035183260073b6e7ad5bfb8dcac3c7f60a99ffbc22b27c6d0e8549ae79664736f6c63430008120033",
			"opcodes": "PUSH1 0x80 PUSH1 0x40 MSTORE CALLVALUE DUP1 ISZERO PUSH2 0x10 JUMPI PUSH1 0x0 DUP1 REVERT JUMPDEST POP PUSH2 0x25F DUP1 PUSH2 0x20 PUSH1 0x0 CODECOPY PUSH1 0x0 RETURN INVALID PUSH1 0x80 PUSH1 0x40 MSTORE CALLVALUE DUP1 ISZERO PUSH2 0x10 JUMPI PUSH1 0x0 DUP1 REVERT JUMPDEST POP PUSH1 0x4 CALLDATASIZE LT PUSH2 0x2B JUMPI PUSH1 0x0 CALLDATALOAD PUSH1 0xE0 SHR DUP1 PUSH4 0xD918CBB0 EQ PUSH2 0x30 JUMPI JUMPDEST PUSH1 0x0 DUP1 REVERT JUMPDEST PUSH2 0x4A PUSH1 0x4 DUP1 CALLDATASIZE SUB DUP2 ADD SWAP1 PUSH2 0x45 SWAP2 SWAP1 PUSH2 0xDE JUMP JUMPDEST PUSH2 0x60 JUMP JUMPDEST PUSH1 0x40 MLOAD PUSH2 0x57 SWAP2 SWAP1 PUSH2 0x11A JUMP JUMPDEST PUSH1 0x40 MLOAD DUP1 SWAP2 SUB SWAP1 RETURN JUMPDEST PUSH1 0x0 DUP1 JUMPDEST PUSH1 0x0 DUP4 EQ PUSH2 0x9A JUMPI PUSH1 0xA DUP4 PUSH2 0x79 SWAP2 SWAP1 PUSH2 0x164 JUMP JUMPDEST DUP2 PUSH2 0x84 SWAP2 SWAP1 PUSH2 0x1C4 JUMP JUMPDEST SWAP1 POP PUSH1 0xA DUP4 PUSH2 0x93 SWAP2 SWAP1 PUSH2 0x1F8 JUMP JUMPDEST SWAP3 POP PUSH2 0x64 JUMP JUMPDEST DUP1 SWAP2 POP POP SWAP2 SWAP1 POP JUMP JUMPDEST PUSH1 0x0 DUP1 REVERT JUMPDEST PUSH1 0x0 DUP2 SWAP1 POP SWAP2 SWAP1 POP JUMP JUMPDEST PUSH2 0xBB DUP2 PUSH2 0xA8 JUMP JUMPDEST DUP2 EQ PUSH2 0xC6 JUMPI PUSH1 0x0 DUP1 REVERT JUMPDEST POP JUMP JUMPDEST PUSH1 0x0 DUP2 CALLDATALOAD SWAP1 POP PUSH2 0xD8 DUP2 PUSH2 0xB2 JUMP JUMPDEST SWAP3 SWAP2 POP POP JUMP JUMPDEST PUSH1 0x0 PUSH1 0x20 DUP3 DUP5 SUB SLT ISZERO PUSH2 0xF4 JUMPI PUSH2 0xF3 PUSH2 0xA3 JUMP JUMPDEST JUMPDEST PUSH1 0x0 PUSH2 0x102 DUP5 DUP3 DUP6 ADD PUSH2 0xC9 JUMP JUMPDEST SWAP2 POP POP SWAP3 SWAP2 POP POP JUMP JUMPDEST PUSH2 0x114 DUP2 PUSH2 0xA8 JUMP JUMPDEST DUP3 MSTORE POP POP JUMP JUMPDEST PUSH1 0x0 PUSH1 0x20 DUP3 ADD SWAP1 POP PUSH2 0x12F PUSH1 0x0 DUP4 ADD DUP5 PUSH2 0x10B JUMP JUMPDEST SWAP3 SWAP2 POP POP JUMP JUMPDEST PUSH32 0x4E487B7100000000000000000000000000000000000000000000000000000000 PUSH1 0x0 MSTORE PUSH1 0x12 PUSH1 0x4 MSTORE PUSH1 0x24 PUSH1 0x0 REVERT JUMPDEST PUSH1 0x0 PUSH2 0x16F DUP3 PUSH2 0xA8 JUMP JUMPDEST SWAP2 POP PUSH2 0x17A DUP4 PUSH2 0xA8 JUMP JUMPDEST SWAP3 POP DUP3 PUSH2 0x18A JUMPI PUSH2 0x189 PUSH2 0x135 JUMP JUMPDEST JUMPDEST DUP3 DUP3 MOD SWAP1 POP SWAP3 SWAP2 POP POP JUMP JUMPDEST PUSH32 0x4E487B7100000000000000000000000000000000000000000000000000000000 PUSH1 0x0 MSTORE PUSH1 0x11 PUSH1 0x4 MSTORE PUSH1 0x24 PUSH1 0x0 REVERT JUMPDEST PUSH1 0x0 PUSH2 0x1CF DUP3 PUSH2 0xA8 JUMP JUMPDEST SWAP2 POP PUSH2 0x1DA DUP4 PUSH2 0xA8 JUMP JUMPDEST SWAP3 POP DUP3 DUP3 ADD SWAP1 POP DUP1 DUP3 GT ISZERO PUSH2 0x1F2 JUMPI PUSH2 0x1F1 PUSH2 0x195 JUMP JUMPDEST JUMPDEST SWAP3 SWAP2 POP POP JUMP JUMPDEST PUSH1 0x0 PUSH2 0x203 DUP3 PUSH2 0xA8 JUMP JUMPDEST SWAP2 POP PUSH2 0x20E DUP4 PUSH2 0xA8 JUMP JUMPDEST SWAP3 POP DUP3 PUSH2 0x21E JUMPI PUSH2 0x21D PUSH2 0x135 JUMP JUMPDEST JUMPDEST DUP3 DUP3 DIV SWAP1 POP SWAP3 SWAP2 POP POP JUMP INVALID LOG2 PUSH5 0x6970667358 0x22 SLT KECCAK256 BALANCE 0xC3 KECCAK256 CALLDATALOAD XOR ORIGIN PUSH1 0x7 EXTCODESIZE PUSH15 0x7AD5BFB8DCAC3C7F60A99FFBC22B27 0xC6 0xD0 0xE8 SLOAD SWAP11 0xE7 SWAP7 PUSH5 0x736F6C6343 STOP ADDMOD SLT STOP CALLER "
		},
		"gasEstimates": {
			"creation": {
				"codeDepositCost": "121400",
				"executionCost": "165",
				"totalCost": "121565"
			},
			"external": {
				"sumDigit(uint256)": "infinite"
			}
		},
		"methodIdentifiers": {
			"sumDigit(uint256)": "d918cbb0"
		}
	},
	"abi": [
		{
			"inputs": [
				{
					"internalType": "uint256",
					"name": "num",
					"type": "uint256"
				}
			],
			"name": "sumDigit",
			"outputs": [
				{
					"internalType": "uint256",
					"name": "",
					"type": "uint256"
				}
			],
			"stateMutability": "pure",
			"type": "function"
		}
	]
}